{
	"client-oracle/OptimisticOracleV3.sol": {
		"OptimisticOracleV3": {
			"abi": [
				{
					"anonymous": false,
					"inputs": [
						{
							"indexed": false,
							"internalType": "uint256",
							"name": "assertId",
							"type": "uint256"
						},
						{
							"indexed": false,
							"internalType": "address",
							"name": "requester",
							"type": "address"
						},
						{
							"indexed": false,
							"internalType": "bytes",
							"name": "claim",
							"type": "bytes"
						},
						{
							"indexed": false,
							"internalType": "uint256",
							"name": "timestamp",
							"type": "uint256"
						}
					],
					"name": "assertTruth",
					"type": "event"
				},
				{
					"anonymous": false,
					"inputs": [
						{
							"indexed": false,
							"internalType": "uint256",
							"name": "assertId",
							"type": "uint256"
						},
						{
							"indexed": false,
							"internalType": "uint256",
							"name": "timestamp",
							"type": "uint256"
						}
					],
					"name": "settleRequest",
					"type": "event"
				},
				{
					"inputs": [
						{
							"internalType": "bytes",
							"name": "claim",
							"type": "bytes"
						}
					],
					"name": "assertTruthWithDefaults",
					"outputs": [
						{
							"internalType": "uint256",
							"name": "assertId",
							"type": "uint256"
						}
					],
					"stateMutability": "nonpayable",
					"type": "function"
				},
				{
					"inputs": [
						{
							"internalType": "uint256",
							"name": "",
							"type": "uint256"
						}
					],
					"name": "assertionRequests",
					"outputs": [
						{
							"internalType": "bytes32",
							"name": "assertionId",
							"type": "bytes32"
						},
						{
							"internalType": "bytes",
							"name": "assertedClaim",
							"type": "bytes"
						},
						{
							"internalType": "address",
							"name": "requester",
							"type": "address"
						},
						{
							"internalType": "bool",
							"name": "result",
							"type": "bool"
						},
						{
							"internalType": "enum OptimisticOracleV3.Status",
							"name": "currentStatus",
							"type": "uint8"
						}
					],
					"stateMutability": "view",
					"type": "function"
				},
				{
					"inputs": [
						{
							"internalType": "uint256",
							"name": "assertId",
							"type": "uint256"
						}
					],
					"name": "getAssertion",
					"outputs": [
						{
							"components": [
								{
									"internalType": "bytes32",
									"name": "assertionId",
									"type": "bytes32"
								},
								{
									"internalType": "bytes",
									"name": "assertedClaim",
									"type": "bytes"
								},
								{
									"internalType": "address",
									"name": "requester",
									"type": "address"
								},
								{
									"internalType": "bool",
									"name": "result",
									"type": "bool"
								},
								{
									"internalType": "enum OptimisticOracleV3.Status",
									"name": "currentStatus",
									"type": "uint8"
								}
							],
							"internalType": "struct OptimisticOracleV3.AssertionRequest",
							"name": "",
							"type": "tuple"
						}
					],
					"stateMutability": "view",
					"type": "function"
				},
				{
					"inputs": [
						{
							"internalType": "uint256",
							"name": "assertId",
							"type": "uint256"
						}
					],
					"name": "getAssertionResult",
					"outputs": [
						{
							"internalType": "bool",
							"name": "",
							"type": "bool"
						}
					],
					"stateMutability": "view",
					"type": "function"
				},
				{
					"inputs": [
						{
							"internalType": "uint256",
							"name": "assertId",
							"type": "uint256"
						},
						{
							"internalType": "bool",
							"name": "assertResult",
							"type": "bool"
						}
					],
					"name": "setAssertResult",
					"outputs": [],
					"stateMutability": "nonpayable",
					"type": "function"
				},
				{
					"inputs": [
						{
							"internalType": "uint256",
							"name": "assertId",
							"type": "uint256"
						},
						{
							"internalType": "bytes32",
							"name": "assertionId",
							"type": "bytes32"
						}
					],
					"name": "setAssertionId",
					"outputs": [],
					"stateMutability": "nonpayable",
					"type": "function"
				},
				{
					"inputs": [
						{
							"internalType": "uint256",
							"name": "assertId",
							"type": "uint256"
						}
					],
					"name": "settleAssertion",
					"outputs": [],
					"stateMutability": "nonpayable",
					"type": "function"
				},
				{
					"inputs": [],
					"name": "totalAssertions",
					"outputs": [
						{
							"internalType": "uint256",
							"name": "",
							"type": "uint256"
						}
					],
					"stateMutability": "view",
					"type": "function"
				}
			],
			"devdoc": {
				"kind": "dev",
				"methods": {},
				"version": 1
			},
			"evm": {
				"assembly": "    /* \"client-oracle/OptimisticOracleV3.sol\":131:2314  contract OptimisticOracleV3 {... */\n  mstore(0x40, 0x80)\n    /* \"client-oracle/OptimisticOracleV3.sol\":195:196  1 */\n  0x01\n    /* \"client-oracle/OptimisticOracleV3.sol\":165:196  uint public totalAssertions = 1 */\n  0x00\n  sstore\n    /* \"client-oracle/OptimisticOracleV3.sol\":131:2314  contract OptimisticOracleV3 {... */\n  callvalue\n  dup1\n  iszero\n  tag_1\n  jumpi\n  0x00\n  dup1\n  revert\ntag_1:\n  pop\n  dataSize(sub_0)\n  dup1\n  dataOffset(sub_0)\n  0x00\n  codecopy\n  0x00\n  return\nstop\n\nsub_0: assembly {\n        /* \"client-oracle/OptimisticOracleV3.sol\":131:2314  contract OptimisticOracleV3 {... */\n      mstore(0x40, 0x80)\n      callvalue\n      dup1\n      iszero\n      tag_1\n      jumpi\n      0x00\n      dup1\n      revert\n    tag_1:\n      pop\n      jumpi(tag_2, lt(calldatasize, 0x04))\n      shr(0xe0, calldataload(0x00))\n      dup1\n      0x884e3f43\n      gt\n      tag_11\n      jumpi\n      dup1\n      0x884e3f43\n      eq\n      tag_7\n      jumpi\n      dup1\n      0xadee9e00\n      eq\n      tag_8\n      jumpi\n      dup1\n      0xb1a15891\n      eq\n      tag_9\n      jumpi\n      dup1\n      0xbb27bdec\n      eq\n      tag_10\n      jumpi\n      jump(tag_2)\n    tag_11:\n      dup1\n      0x14d82c04\n      eq\n      tag_3\n      jumpi\n      dup1\n      0x1d99e167\n      eq\n      tag_4\n      jumpi\n      dup1\n      0x2c59e707\n      eq\n      tag_5\n      jumpi\n      dup1\n      0x3fbec59b\n      eq\n      tag_6\n      jumpi\n    tag_2:\n      0x00\n      dup1\n      revert\n        /* \"client-oracle/OptimisticOracleV3.sol\":1330:1649  function settleAssertion(uint assertId) public {... */\n    tag_3:\n      tag_12\n      0x04\n      dup1\n      calldatasize\n      sub\n      dup2\n      add\n      swap1\n      tag_13\n      swap2\n      swap1\n      tag_14\n      jump\t// in\n    tag_13:\n      tag_15\n      jump\t// in\n    tag_12:\n      stop\n        /* \"client-oracle/OptimisticOracleV3.sol\":2164:2312  function getAssertion(... */\n    tag_4:\n      tag_16\n      0x04\n      dup1\n      calldatasize\n      sub\n      dup2\n      add\n      swap1\n      tag_17\n      swap2\n      swap1\n      tag_14\n      jump\t// in\n    tag_17:\n      tag_18\n      jump\t// in\n    tag_16:\n      mload(0x40)\n      tag_19\n      swap2\n      swap1\n      tag_20\n      jump\t// in\n    tag_19:\n      mload(0x40)\n      dup1\n      swap2\n      sub\n      swap1\n      return\n        /* \"client-oracle/OptimisticOracleV3.sol\":707:1123  function assertTruthWithDefaults(... */\n    tag_5:\n      tag_21\n      0x04\n      dup1\n      calldatasize\n      sub\n      dup2\n      add\n      swap1\n      tag_22\n      swap2\n      swap1\n      tag_23\n      jump\t// in\n    tag_22:\n      tag_24\n      jump\t// in\n    tag_21:\n      mload(0x40)\n      tag_25\n      swap2\n      swap1\n      tag_26\n      jump\t// in\n    tag_25:\n      mload(0x40)\n      dup1\n      swap2\n      sub\n      swap1\n      return\n        /* \"client-oracle/OptimisticOracleV3.sol\":165:196  uint public totalAssertions = 1 */\n    tag_6:\n      tag_27\n      tag_28\n      jump\t// in\n    tag_27:\n      mload(0x40)\n      tag_29\n      swap2\n      swap1\n      tag_26\n      jump\t// in\n    tag_29:\n      mload(0x40)\n      dup1\n      swap2\n      sub\n      swap1\n      return\n        /* \"client-oracle/OptimisticOracleV3.sol\":1683:2024  function setAssertResult(uint assertId, bool assertResult) public {... */\n    tag_7:\n      tag_30\n      0x04\n      dup1\n      calldatasize\n      sub\n      dup2\n      add\n      swap1\n      tag_31\n      swap2\n      swap1\n      tag_32\n      jump\t// in\n    tag_31:\n      tag_33\n      jump\t// in\n    tag_30:\n      stop\n        /* \"client-oracle/OptimisticOracleV3.sol\":2030:2158  function getAssertionResult(uint assertId) public view returns (bool) {... */\n    tag_8:\n      tag_34\n      0x04\n      dup1\n      calldatasize\n      sub\n      dup2\n      add\n      swap1\n      tag_35\n      swap2\n      swap1\n      tag_14\n      jump\t// in\n    tag_35:\n      tag_36\n      jump\t// in\n    tag_34:\n      mload(0x40)\n      tag_37\n      swap2\n      swap1\n      tag_38\n      jump\t// in\n    tag_37:\n      mload(0x40)\n      dup1\n      swap2\n      sub\n      swap1\n      return\n        /* \"client-oracle/OptimisticOracleV3.sol\":1157:1294  function setAssertionId(uint assertId, bytes32 assertionId) public {... */\n    tag_9:\n      tag_39\n      0x04\n      dup1\n      calldatasize\n      sub\n      dup2\n      add\n      swap1\n      tag_40\n      swap2\n      swap1\n      tag_41\n      jump\t// in\n    tag_40:\n      tag_42\n      jump\t// in\n    tag_39:\n      stop\n        /* \"client-oracle/OptimisticOracleV3.sol\":460:518  mapping(uint => AssertionRequest) public assertionRequests */\n    tag_10:\n      tag_43\n      0x04\n      dup1\n      calldatasize\n      sub\n      dup2\n      add\n      swap1\n      tag_44\n      swap2\n      swap1\n      tag_14\n      jump\t// in\n    tag_44:\n      tag_45\n      jump\t// in\n    tag_43:\n      mload(0x40)\n      tag_46\n      swap6\n      swap5\n      swap4\n      swap3\n      swap2\n      swap1\n      tag_47\n      jump\t// in\n    tag_46:\n      mload(0x40)\n      dup1\n      swap2\n      sub\n      swap1\n      return\n        /* \"client-oracle/OptimisticOracleV3.sol\":1330:1649  function settleAssertion(uint assertId) public {... */\n    tag_15:\n        /* \"client-oracle/OptimisticOracleV3.sol\":1453:1468  Status.Asserted */\n      0x00\n        /* \"client-oracle/OptimisticOracleV3.sol\":1408:1468  assertionRequests[assertId].currentStatus == Status.Asserted */\n      0x02\n      dup2\n      gt\n      iszero\n      tag_49\n      jumpi\n      tag_50\n      tag_51\n      jump\t// in\n    tag_50:\n    tag_49:\n        /* \"client-oracle/OptimisticOracleV3.sol\":1408:1425  assertionRequests */\n      0x01\n        /* \"client-oracle/OptimisticOracleV3.sol\":1408:1435  assertionRequests[assertId] */\n      0x00\n        /* \"client-oracle/OptimisticOracleV3.sol\":1426:1434  assertId */\n      dup4\n        /* \"client-oracle/OptimisticOracleV3.sol\":1408:1435  assertionRequests[assertId] */\n      dup2\n      mstore\n      0x20\n      add\n      swap1\n      dup2\n      mstore\n      0x20\n      add\n      0x00\n      keccak256\n        /* \"client-oracle/OptimisticOracleV3.sol\":1408:1449  assertionRequests[assertId].currentStatus */\n      0x02\n      add\n      0x15\n      swap1\n      sload\n      swap1\n      0x0100\n      exp\n      swap1\n      div\n      0xff\n      and\n        /* \"client-oracle/OptimisticOracleV3.sol\":1408:1468  assertionRequests[assertId].currentStatus == Status.Asserted */\n      0x02\n      dup2\n      gt\n      iszero\n      tag_52\n      jumpi\n      tag_53\n      tag_51\n      jump\t// in\n    tag_53:\n    tag_52:\n      eq\n        /* \"client-oracle/OptimisticOracleV3.sol\":1387:1510  require(... */\n      tag_54\n      jumpi\n      mload(0x40)\n      0x08c379a000000000000000000000000000000000000000000000000000000000\n      dup2\n      mstore\n      0x04\n      add\n      tag_55\n      swap1\n      tag_56\n      jump\t// in\n    tag_55:\n      mload(0x40)\n      dup1\n      swap2\n      sub\n      swap1\n      revert\n    tag_54:\n        /* \"client-oracle/OptimisticOracleV3.sol\":1564:1586  Status.SettleRequested */\n      0x01\n        /* \"client-oracle/OptimisticOracleV3.sol\":1520:1537  assertionRequests */\n      dup1\n        /* \"client-oracle/OptimisticOracleV3.sol\":1520:1547  assertionRequests[assertId] */\n      0x00\n        /* \"client-oracle/OptimisticOracleV3.sol\":1538:1546  assertId */\n      dup4\n        /* \"client-oracle/OptimisticOracleV3.sol\":1520:1547  assertionRequests[assertId] */\n      dup2\n      mstore\n      0x20\n      add\n      swap1\n      dup2\n      mstore\n      0x20\n      add\n      0x00\n      keccak256\n        /* \"client-oracle/OptimisticOracleV3.sol\":1520:1561  assertionRequests[assertId].currentStatus */\n      0x02\n      add\n      0x15\n        /* \"client-oracle/OptimisticOracleV3.sol\":1520:1586  assertionRequests[assertId].currentStatus = Status.SettleRequested */\n      0x0100\n      exp\n      dup2\n      sload\n      dup2\n      0xff\n      mul\n      not\n      and\n      swap1\n      dup4\n      0x02\n      dup2\n      gt\n      iszero\n      tag_57\n      jumpi\n      tag_58\n      tag_51\n      jump\t// in\n    tag_58:\n    tag_57:\n      mul\n      or\n      swap1\n      sstore\n      pop\n        /* \"client-oracle/OptimisticOracleV3.sol\":1602:1642  settleRequest(assertId, block.timestamp) */\n      0x27eae51a13096bbf91c9ade81b17ef36e6b1785e85ced181d9cd9af19afc4c16\n        /* \"client-oracle/OptimisticOracleV3.sol\":1616:1624  assertId */\n      dup2\n        /* \"client-oracle/OptimisticOracleV3.sol\":1626:1641  block.timestamp */\n      timestamp\n        /* \"client-oracle/OptimisticOracleV3.sol\":1602:1642  settleRequest(assertId, block.timestamp) */\n      mload(0x40)\n      tag_59\n      swap3\n      swap2\n      swap1\n      tag_60\n      jump\t// in\n    tag_59:\n      mload(0x40)\n      dup1\n      swap2\n      sub\n      swap1\n      log1\n        /* \"client-oracle/OptimisticOracleV3.sol\":1330:1649  function settleAssertion(uint assertId) public {... */\n      pop\n      jump\t// out\n        /* \"client-oracle/OptimisticOracleV3.sol\":2164:2312  function getAssertion(... */\n    tag_18:\n        /* \"client-oracle/OptimisticOracleV3.sol\":2236:2259  AssertionRequest memory */\n      tag_61\n      tag_62\n      jump\t// in\n    tag_61:\n        /* \"client-oracle/OptimisticOracleV3.sol\":2278:2295  assertionRequests */\n      0x01\n        /* \"client-oracle/OptimisticOracleV3.sol\":2278:2305  assertionRequests[assertId] */\n      0x00\n        /* \"client-oracle/OptimisticOracleV3.sol\":2296:2304  assertId */\n      dup4\n        /* \"client-oracle/OptimisticOracleV3.sol\":2278:2305  assertionRequests[assertId] */\n      dup2\n      mstore\n      0x20\n      add\n      swap1\n      dup2\n      mstore\n      0x20\n      add\n      0x00\n      keccak256\n        /* \"client-oracle/OptimisticOracleV3.sol\":2271:2305  return assertionRequests[assertId] */\n      mload(0x40)\n      dup1\n      0xa0\n      add\n      0x40\n      mstore\n      swap1\n      dup2\n      0x00\n      dup3\n      add\n      sload\n      dup2\n      mstore\n      0x20\n      add\n      0x01\n      dup3\n      add\n      dup1\n      sload\n      tag_64\n      swap1\n      tag_65\n      jump\t// in\n    tag_64:\n      dup1\n      0x1f\n      add\n      0x20\n      dup1\n      swap2\n      div\n      mul\n      0x20\n      add\n      mload(0x40)\n      swap1\n      dup2\n      add\n      0x40\n      mstore\n      dup1\n      swap3\n      swap2\n      swap1\n      dup2\n      dup2\n      mstore\n      0x20\n      add\n      dup3\n      dup1\n      sload\n      tag_66\n      swap1\n      tag_65\n      jump\t// in\n    tag_66:\n      dup1\n      iszero\n      tag_67\n      jumpi\n      dup1\n      0x1f\n      lt\n      tag_68\n      jumpi\n      0x0100\n      dup1\n      dup4\n      sload\n      div\n      mul\n      dup4\n      mstore\n      swap2\n      0x20\n      add\n      swap2\n      jump(tag_67)\n    tag_68:\n      dup3\n      add\n      swap2\n      swap1\n      0x00\n      mstore\n      keccak256(0x00, 0x20)\n      swap1\n    tag_69:\n      dup2\n      sload\n      dup2\n      mstore\n      swap1\n      0x01\n      add\n      swap1\n      0x20\n      add\n      dup1\n      dup4\n      gt\n      tag_69\n      jumpi\n      dup3\n      swap1\n      sub\n      0x1f\n      and\n      dup3\n      add\n      swap2\n    tag_67:\n      pop\n      pop\n      pop\n      pop\n      pop\n      dup2\n      mstore\n      0x20\n      add\n      0x02\n      dup3\n      add\n      0x00\n      swap1\n      sload\n      swap1\n      0x0100\n      exp\n      swap1\n      div\n      0xffffffffffffffffffffffffffffffffffffffff\n      and\n      0xffffffffffffffffffffffffffffffffffffffff\n      and\n      0xffffffffffffffffffffffffffffffffffffffff\n      and\n      dup2\n      mstore\n      0x20\n      add\n      0x02\n      dup3\n      add\n      0x14\n      swap1\n      sload\n      swap1\n      0x0100\n      exp\n      swap1\n      div\n      0xff\n      and\n      iszero\n      iszero\n      iszero\n      iszero\n      dup2\n      mstore\n      0x20\n      add\n      0x02\n      dup3\n      add\n      0x15\n      swap1\n      sload\n      swap1\n      0x0100\n      exp\n      swap1\n      div\n      0xff\n      and\n      0x02\n      dup2\n      gt\n      iszero\n      tag_70\n      jumpi\n      tag_71\n      tag_51\n      jump\t// in\n    tag_71:\n    tag_70:\n      0x02\n      dup2\n      gt\n      iszero\n      tag_72\n      jumpi\n      tag_73\n      tag_51\n      jump\t// in\n    tag_73:\n    tag_72:\n      dup2\n      mstore\n      pop\n      pop\n      swap1\n      pop\n        /* \"client-oracle/OptimisticOracleV3.sol\":2164:2312  function getAssertion(... */\n      swap2\n      swap1\n      pop\n      jump\t// out\n        /* \"client-oracle/OptimisticOracleV3.sol\":707:1123  function assertTruthWithDefaults(... */\n    tag_24:\n        /* \"client-oracle/OptimisticOracleV3.sol\":790:803  uint assertId */\n      0x00\n        /* \"client-oracle/OptimisticOracleV3.sol\":826:841  totalAssertions */\n      dup1\n      sload\n        /* \"client-oracle/OptimisticOracleV3.sol\":815:841  assertId = totalAssertions */\n      swap1\n      pop\n        /* \"client-oracle/OptimisticOracleV3.sol\":881:1014  AssertionRequest(... */\n      mload(0x40)\n      dup1\n      0xa0\n      add\n      0x40\n      mstore\n      dup1\n      0x00\n      dup1\n      not\n      and\n      dup2\n      mstore\n      0x20\n      add\n        /* \"client-oracle/OptimisticOracleV3.sol\":927:932  claim */\n      dup4\n        /* \"client-oracle/OptimisticOracleV3.sol\":881:1014  AssertionRequest(... */\n      dup2\n      mstore\n      0x20\n      add\n        /* \"client-oracle/OptimisticOracleV3.sol\":946:956  msg.sender */\n      caller\n        /* \"client-oracle/OptimisticOracleV3.sol\":881:1014  AssertionRequest(... */\n      0xffffffffffffffffffffffffffffffffffffffff\n      and\n      dup2\n      mstore\n      0x20\n      add\n        /* \"client-oracle/OptimisticOracleV3.sol\":970:975  false */\n      0x00\n        /* \"client-oracle/OptimisticOracleV3.sol\":881:1014  AssertionRequest(... */\n      iszero\n      iszero\n      dup2\n      mstore\n      0x20\n      add\n        /* \"client-oracle/OptimisticOracleV3.sol\":989:1004  Status.Asserted */\n      0x00\n        /* \"client-oracle/OptimisticOracleV3.sol\":881:1014  AssertionRequest(... */\n      0x02\n      dup2\n      gt\n      iszero\n      tag_75\n      jumpi\n      tag_76\n      tag_51\n      jump\t// in\n    tag_76:\n    tag_75:\n      dup2\n      mstore\n      pop\n        /* \"client-oracle/OptimisticOracleV3.sol\":851:868  assertionRequests */\n      0x01\n        /* \"client-oracle/OptimisticOracleV3.sol\":851:878  assertionRequests[assertId] */\n      0x00\n        /* \"client-oracle/OptimisticOracleV3.sol\":869:877  assertId */\n      dup4\n        /* \"client-oracle/OptimisticOracleV3.sol\":851:878  assertionRequests[assertId] */\n      dup2\n      mstore\n      0x20\n      add\n      swap1\n      dup2\n      mstore\n      0x20\n      add\n      0x00\n      keccak256\n        /* \"client-oracle/OptimisticOracleV3.sol\":851:1014  assertionRequests[assertId] = AssertionRequest(... */\n      0x00\n      dup3\n      add\n      mload\n      dup2\n      0x00\n      add\n      sstore\n      0x20\n      dup3\n      add\n      mload\n      dup2\n      0x01\n      add\n      swap1\n      dup2\n      tag_77\n      swap2\n      swap1\n      tag_78\n      jump\t// in\n    tag_77:\n      pop\n      0x40\n      dup3\n      add\n      mload\n      dup2\n      0x02\n      add\n      exp(0x0100, 0x00)\n      dup2\n      sload\n      dup2\n      0xffffffffffffffffffffffffffffffffffffffff\n      mul\n      not\n      and\n      swap1\n      dup4\n      0xffffffffffffffffffffffffffffffffffffffff\n      and\n      mul\n      or\n      swap1\n      sstore\n      pop\n      0x60\n      dup3\n      add\n      mload\n      dup2\n      0x02\n      add\n      exp(0x0100, 0x14)\n      dup2\n      sload\n      dup2\n      0xff\n      mul\n      not\n      and\n      swap1\n      dup4\n      iszero\n      iszero\n      mul\n      or\n      swap1\n      sstore\n      pop\n      0x80\n      dup3\n      add\n      mload\n      dup2\n      0x02\n      add\n      exp(0x0100, 0x15)\n      dup2\n      sload\n      dup2\n      0xff\n      mul\n      not\n      and\n      swap1\n      dup4\n      0x02\n      dup2\n      gt\n      iszero\n      tag_79\n      jumpi\n      tag_80\n      tag_51\n      jump\t// in\n    tag_80:\n    tag_79:\n      mul\n      or\n      swap1\n      sstore\n      pop\n      swap1\n      pop\n      pop\n        /* \"client-oracle/OptimisticOracleV3.sol\":1043:1044  1 */\n      0x01\n        /* \"client-oracle/OptimisticOracleV3.sol\":1024:1039  totalAssertions */\n      0x00\n      dup1\n        /* \"client-oracle/OptimisticOracleV3.sol\":1024:1044  totalAssertions += 1 */\n      dup3\n      dup3\n      sload\n      tag_81\n      swap2\n      swap1\n      tag_82\n      jump\t// in\n    tag_81:\n      swap3\n      pop\n      pop\n      dup2\n      swap1\n      sstore\n      pop\n        /* \"client-oracle/OptimisticOracleV3.sol\":1059:1116  assertTruth(assertId, msg.sender, claim, block.timestamp) */\n      0x64d3908edca7df860b524330c97271844d5bf3cf0b3cab43c48311c8e464119a\n        /* \"client-oracle/OptimisticOracleV3.sol\":1071:1079  assertId */\n      dup2\n        /* \"client-oracle/OptimisticOracleV3.sol\":1081:1091  msg.sender */\n      caller\n        /* \"client-oracle/OptimisticOracleV3.sol\":1093:1098  claim */\n      dup5\n        /* \"client-oracle/OptimisticOracleV3.sol\":1100:1115  block.timestamp */\n      timestamp\n        /* \"client-oracle/OptimisticOracleV3.sol\":1059:1116  assertTruth(assertId, msg.sender, claim, block.timestamp) */\n      mload(0x40)\n      tag_83\n      swap5\n      swap4\n      swap3\n      swap2\n      swap1\n      tag_84\n      jump\t// in\n    tag_83:\n      mload(0x40)\n      dup1\n      swap2\n      sub\n      swap1\n      log1\n        /* \"client-oracle/OptimisticOracleV3.sol\":707:1123  function assertTruthWithDefaults(... */\n      swap2\n      swap1\n      pop\n      jump\t// out\n        /* \"client-oracle/OptimisticOracleV3.sol\":165:196  uint public totalAssertions = 1 */\n    tag_28:\n      sload(0x00)\n      dup2\n      jump\t// out\n        /* \"client-oracle/OptimisticOracleV3.sol\":1683:2024  function setAssertResult(uint assertId, bool assertResult) public {... */\n    tag_33:\n        /* \"client-oracle/OptimisticOracleV3.sol\":1825:1847  Status.SettleRequested */\n      0x01\n        /* \"client-oracle/OptimisticOracleV3.sol\":1780:1847  assertionRequests[assertId].currentStatus == Status.SettleRequested */\n      0x02\n      dup2\n      gt\n      iszero\n      tag_86\n      jumpi\n      tag_87\n      tag_51\n      jump\t// in\n    tag_87:\n    tag_86:\n        /* \"client-oracle/OptimisticOracleV3.sol\":1780:1797  assertionRequests */\n      0x01\n        /* \"client-oracle/OptimisticOracleV3.sol\":1780:1807  assertionRequests[assertId] */\n      0x00\n        /* \"client-oracle/OptimisticOracleV3.sol\":1798:1806  assertId */\n      dup5\n        /* \"client-oracle/OptimisticOracleV3.sol\":1780:1807  assertionRequests[assertId] */\n      dup2\n      mstore\n      0x20\n      add\n      swap1\n      dup2\n      mstore\n      0x20\n      add\n      0x00\n      keccak256\n        /* \"client-oracle/OptimisticOracleV3.sol\":1780:1821  assertionRequests[assertId].currentStatus */\n      0x02\n      add\n      0x15\n      swap1\n      sload\n      swap1\n      0x0100\n      exp\n      swap1\n      div\n      0xff\n      and\n        /* \"client-oracle/OptimisticOracleV3.sol\":1780:1847  assertionRequests[assertId].currentStatus == Status.SettleRequested */\n      0x02\n      dup2\n      gt\n      iszero\n      tag_88\n      jumpi\n      tag_89\n      tag_51\n      jump\t// in\n    tag_89:\n    tag_88:\n      eq\n        /* \"client-oracle/OptimisticOracleV3.sol\":1759:1890  require(... */\n      tag_90\n      jumpi\n      mload(0x40)\n      0x08c379a000000000000000000000000000000000000000000000000000000000\n      dup2\n      mstore\n      0x04\n      add\n      tag_91\n      swap1\n      tag_92\n      jump\t// in\n    tag_91:\n      mload(0x40)\n      dup1\n      swap2\n      sub\n      swap1\n      revert\n    tag_90:\n        /* \"client-oracle/OptimisticOracleV3.sol\":1937:1949  assertResult */\n      dup1\n        /* \"client-oracle/OptimisticOracleV3.sol\":1900:1917  assertionRequests */\n      0x01\n        /* \"client-oracle/OptimisticOracleV3.sol\":1900:1927  assertionRequests[assertId] */\n      0x00\n        /* \"client-oracle/OptimisticOracleV3.sol\":1918:1926  assertId */\n      dup5\n        /* \"client-oracle/OptimisticOracleV3.sol\":1900:1927  assertionRequests[assertId] */\n      dup2\n      mstore\n      0x20\n      add\n      swap1\n      dup2\n      mstore\n      0x20\n      add\n      0x00\n      keccak256\n        /* \"client-oracle/OptimisticOracleV3.sol\":1900:1934  assertionRequests[assertId].result */\n      0x02\n      add\n      0x14\n        /* \"client-oracle/OptimisticOracleV3.sol\":1900:1949  assertionRequests[assertId].result = assertResult */\n      0x0100\n      exp\n      dup2\n      sload\n      dup2\n      0xff\n      mul\n      not\n      and\n      swap1\n      dup4\n      iszero\n      iszero\n      mul\n      or\n      swap1\n      sstore\n      pop\n        /* \"client-oracle/OptimisticOracleV3.sol\":2003:2017  Status.Settled */\n      0x02\n        /* \"client-oracle/OptimisticOracleV3.sol\":1959:1976  assertionRequests */\n      0x01\n        /* \"client-oracle/OptimisticOracleV3.sol\":1959:1986  assertionRequests[assertId] */\n      0x00\n        /* \"client-oracle/OptimisticOracleV3.sol\":1977:1985  assertId */\n      dup5\n        /* \"client-oracle/OptimisticOracleV3.sol\":1959:1986  assertionRequests[assertId] */\n      dup2\n      mstore\n      0x20\n      add\n      swap1\n      dup2\n      mstore\n      0x20\n      add\n      0x00\n      keccak256\n        /* \"client-oracle/OptimisticOracleV3.sol\":1959:2000  assertionRequests[assertId].currentStatus */\n      0x02\n      add\n      0x15\n        /* \"client-oracle/OptimisticOracleV3.sol\":1959:2017  assertionRequests[assertId].currentStatus = Status.Settled */\n      0x0100\n      exp\n      dup2\n      sload\n      dup2\n      0xff\n      mul\n      not\n      and\n      swap1\n      dup4\n      0x02\n      dup2\n      gt\n      iszero\n      tag_93\n      jumpi\n      tag_94\n      tag_51\n      jump\t// in\n    tag_94:\n    tag_93:\n      mul\n      or\n      swap1\n      sstore\n      pop\n        /* \"client-oracle/OptimisticOracleV3.sol\":1683:2024  function setAssertResult(uint assertId, bool assertResult) public {... */\n      pop\n      pop\n      jump\t// out\n        /* \"client-oracle/OptimisticOracleV3.sol\":2030:2158  function getAssertionResult(uint assertId) public view returns (bool) {... */\n    tag_36:\n        /* \"client-oracle/OptimisticOracleV3.sol\":2094:2098  bool */\n      0x00\n        /* \"client-oracle/OptimisticOracleV3.sol\":2117:2134  assertionRequests */\n      0x01\n        /* \"client-oracle/OptimisticOracleV3.sol\":2117:2144  assertionRequests[assertId] */\n      0x00\n        /* \"client-oracle/OptimisticOracleV3.sol\":2135:2143  assertId */\n      dup4\n        /* \"client-oracle/OptimisticOracleV3.sol\":2117:2144  assertionRequests[assertId] */\n      dup2\n      mstore\n      0x20\n      add\n      swap1\n      dup2\n      mstore\n      0x20\n      add\n      0x00\n      keccak256\n        /* \"client-oracle/OptimisticOracleV3.sol\":2117:2151  assertionRequests[assertId].result */\n      0x02\n      add\n      0x14\n      swap1\n      sload\n      swap1\n      0x0100\n      exp\n      swap1\n      div\n      0xff\n      and\n        /* \"client-oracle/OptimisticOracleV3.sol\":2110:2151  return assertionRequests[assertId].result */\n      swap1\n      pop\n        /* \"client-oracle/OptimisticOracleV3.sol\":2030:2158  function getAssertionResult(uint assertId) public view returns (bool) {... */\n      swap2\n      swap1\n      pop\n      jump\t// out\n        /* \"client-oracle/OptimisticOracleV3.sol\":1157:1294  function setAssertionId(uint assertId, bytes32 assertionId) public {... */\n    tag_42:\n        /* \"client-oracle/OptimisticOracleV3.sol\":1276:1287  assertionId */\n      dup1\n        /* \"client-oracle/OptimisticOracleV3.sol\":1234:1251  assertionRequests */\n      0x01\n        /* \"client-oracle/OptimisticOracleV3.sol\":1234:1261  assertionRequests[assertId] */\n      0x00\n        /* \"client-oracle/OptimisticOracleV3.sol\":1252:1260  assertId */\n      dup5\n        /* \"client-oracle/OptimisticOracleV3.sol\":1234:1261  assertionRequests[assertId] */\n      dup2\n      mstore\n      0x20\n      add\n      swap1\n      dup2\n      mstore\n      0x20\n      add\n      0x00\n      keccak256\n        /* \"client-oracle/OptimisticOracleV3.sol\":1234:1273  assertionRequests[assertId].assertionId */\n      0x00\n      add\n        /* \"client-oracle/OptimisticOracleV3.sol\":1234:1287  assertionRequests[assertId].assertionId = assertionId */\n      dup2\n      swap1\n      sstore\n      pop\n        /* \"client-oracle/OptimisticOracleV3.sol\":1157:1294  function setAssertionId(uint assertId, bytes32 assertionId) public {... */\n      pop\n      pop\n      jump\t// out\n        /* \"client-oracle/OptimisticOracleV3.sol\":460:518  mapping(uint => AssertionRequest) public assertionRequests */\n    tag_45:\n      mstore(0x20, 0x01)\n      dup1\n      0x00\n      mstore\n      keccak256(0x00, 0x40)\n      0x00\n      swap2\n      pop\n      swap1\n      pop\n      dup1\n      0x00\n      add\n      sload\n      swap1\n      dup1\n      0x01\n      add\n      dup1\n      sload\n      tag_97\n      swap1\n      tag_65\n      jump\t// in\n    tag_97:\n      dup1\n      0x1f\n      add\n      0x20\n      dup1\n      swap2\n      div\n      mul\n      0x20\n      add\n      mload(0x40)\n      swap1\n      dup2\n      add\n      0x40\n      mstore\n      dup1\n      swap3\n      swap2\n      swap1\n      dup2\n      dup2\n      mstore\n      0x20\n      add\n      dup3\n      dup1\n      sload\n      tag_98\n      swap1\n      tag_65\n      jump\t// in\n    tag_98:\n      dup1\n      iszero\n      tag_99\n      jumpi\n      dup1\n      0x1f\n      lt\n      tag_100\n      jumpi\n      0x0100\n      dup1\n      dup4\n      sload\n      div\n      mul\n      dup4\n      mstore\n      swap2\n      0x20\n      add\n      swap2\n      jump(tag_99)\n    tag_100:\n      dup3\n      add\n      swap2\n      swap1\n      0x00\n      mstore\n      keccak256(0x00, 0x20)\n      swap1\n    tag_101:\n      dup2\n      sload\n      dup2\n      mstore\n      swap1\n      0x01\n      add\n      swap1\n      0x20\n      add\n      dup1\n      dup4\n      gt\n      tag_101\n      jumpi\n      dup3\n      swap1\n      sub\n      0x1f\n      and\n      dup3\n      add\n      swap2\n    tag_99:\n      pop\n      pop\n      pop\n      pop\n      pop\n      swap1\n      dup1\n      0x02\n      add\n      0x00\n      swap1\n      sload\n      swap1\n      0x0100\n      exp\n      swap1\n      div\n      0xffffffffffffffffffffffffffffffffffffffff\n      and\n      swap1\n      dup1\n      0x02\n      add\n      0x14\n      swap1\n      sload\n      swap1\n      0x0100\n      exp\n      swap1\n      div\n      0xff\n      and\n      swap1\n      dup1\n      0x02\n      add\n      0x15\n      swap1\n      sload\n      swap1\n      0x0100\n      exp\n      swap1\n      div\n      0xff\n      and\n      swap1\n      pop\n      dup6\n      jump\t// out\n    tag_62:\n      mload(0x40)\n      dup1\n      0xa0\n      add\n      0x40\n      mstore\n      dup1\n      0x00\n      dup1\n      not\n      and\n      dup2\n      mstore\n      0x20\n      add\n      0x60\n      dup2\n      mstore\n      0x20\n      add\n      and(0xffffffffffffffffffffffffffffffffffffffff, 0x00)\n      dup2\n      mstore\n      0x20\n      add\n      iszero(iszero(0x00))\n      dup2\n      mstore\n      0x20\n      add\n      0x00\n      0x02\n      dup2\n      gt\n      iszero\n      tag_102\n      jumpi\n      tag_103\n      tag_51\n      jump\t// in\n    tag_103:\n    tag_102:\n      dup2\n      mstore\n      pop\n      swap1\n      jump\t// out\n        /* \"#utility.yul\":7:82   */\n    tag_104:\n        /* \"#utility.yul\":40:46   */\n      0x00\n        /* \"#utility.yul\":73:75   */\n      0x40\n        /* \"#utility.yul\":67:76   */\n      mload\n        /* \"#utility.yul\":57:76   */\n      swap1\n      pop\n        /* \"#utility.yul\":7:82   */\n      swap1\n      jump\t// out\n        /* \"#utility.yul\":88:205   */\n    tag_105:\n        /* \"#utility.yul\":197:198   */\n      0x00\n        /* \"#utility.yul\":194:195   */\n      dup1\n        /* \"#utility.yul\":187:199   */\n      revert\n        /* \"#utility.yul\":211:328   */\n    tag_106:\n        /* \"#utility.yul\":320:321   */\n      0x00\n        /* \"#utility.yul\":317:318   */\n      dup1\n        /* \"#utility.yul\":310:322   */\n      revert\n        /* \"#utility.yul\":334:411   */\n    tag_107:\n        /* \"#utility.yul\":371:378   */\n      0x00\n        /* \"#utility.yul\":400:405   */\n      dup2\n        /* \"#utility.yul\":389:405   */\n      swap1\n      pop\n        /* \"#utility.yul\":334:411   */\n      swap2\n      swap1\n      pop\n      jump\t// out\n        /* \"#utility.yul\":417:539   */\n    tag_108:\n        /* \"#utility.yul\":490:514   */\n      tag_175\n        /* \"#utility.yul\":508:513   */\n      dup2\n        /* \"#utility.yul\":490:514   */\n      tag_107\n      jump\t// in\n    tag_175:\n        /* \"#utility.yul\":483:488   */\n      dup2\n        /* \"#utility.yul\":480:515   */\n      eq\n        /* \"#utility.yul\":470:533   */\n      tag_176\n      jumpi\n        /* \"#utility.yul\":529:530   */\n      0x00\n        /* \"#utility.yul\":526:527   */\n      dup1\n        /* \"#utility.yul\":519:531   */\n      revert\n        /* \"#utility.yul\":470:533   */\n    tag_176:\n        /* \"#utility.yul\":417:539   */\n      pop\n      jump\t// out\n        /* \"#utility.yul\":545:684   */\n    tag_109:\n        /* \"#utility.yul\":591:596   */\n      0x00\n        /* \"#utility.yul\":629:635   */\n      dup2\n        /* \"#utility.yul\":616:636   */\n      calldataload\n        /* \"#utility.yul\":607:636   */\n      swap1\n      pop\n        /* \"#utility.yul\":645:678   */\n      tag_178\n        /* \"#utility.yul\":672:677   */\n      dup2\n        /* \"#utility.yul\":645:678   */\n      tag_108\n      jump\t// in\n    tag_178:\n        /* \"#utility.yul\":545:684   */\n      swap3\n      swap2\n      pop\n      pop\n      jump\t// out\n        /* \"#utility.yul\":690:1019   */\n    tag_14:\n        /* \"#utility.yul\":749:755   */\n      0x00\n        /* \"#utility.yul\":798:800   */\n      0x20\n        /* \"#utility.yul\":786:795   */\n      dup3\n        /* \"#utility.yul\":777:784   */\n      dup5\n        /* \"#utility.yul\":773:796   */\n      sub\n        /* \"#utility.yul\":769:801   */\n      slt\n        /* \"#utility.yul\":766:885   */\n      iszero\n      tag_180\n      jumpi\n        /* \"#utility.yul\":804:883   */\n      tag_181\n      tag_105\n      jump\t// in\n    tag_181:\n        /* \"#utility.yul\":766:885   */\n    tag_180:\n        /* \"#utility.yul\":924:925   */\n      0x00\n        /* \"#utility.yul\":949:1002   */\n      tag_182\n        /* \"#utility.yul\":994:1001   */\n      dup5\n        /* \"#utility.yul\":985:991   */\n      dup3\n        /* \"#utility.yul\":974:983   */\n      dup6\n        /* \"#utility.yul\":970:992   */\n      add\n        /* \"#utility.yul\":949:1002   */\n      tag_109\n      jump\t// in\n    tag_182:\n        /* \"#utility.yul\":939:1002   */\n      swap2\n      pop\n        /* \"#utility.yul\":895:1012   */\n      pop\n        /* \"#utility.yul\":690:1019   */\n      swap3\n      swap2\n      pop\n      pop\n      jump\t// out\n        /* \"#utility.yul\":1025:1102   */\n    tag_110:\n        /* \"#utility.yul\":1062:1069   */\n      0x00\n        /* \"#utility.yul\":1091:1096   */\n      dup2\n        /* \"#utility.yul\":1080:1096   */\n      swap1\n      pop\n        /* \"#utility.yul\":1025:1102   */\n      swap2\n      swap1\n      pop\n      jump\t// out\n        /* \"#utility.yul\":1108:1216   */\n    tag_111:\n        /* \"#utility.yul\":1185:1209   */\n      tag_185\n        /* \"#utility.yul\":1203:1208   */\n      dup2\n        /* \"#utility.yul\":1185:1209   */\n      tag_110\n      jump\t// in\n    tag_185:\n        /* \"#utility.yul\":1180:1183   */\n      dup3\n        /* \"#utility.yul\":1173:1210   */\n      mstore\n        /* \"#utility.yul\":1108:1216   */\n      pop\n      pop\n      jump\t// out\n        /* \"#utility.yul\":1222:1320   */\n    tag_112:\n        /* \"#utility.yul\":1273:1279   */\n      0x00\n        /* \"#utility.yul\":1307:1312   */\n      dup2\n        /* \"#utility.yul\":1301:1313   */\n      mload\n        /* \"#utility.yul\":1291:1313   */\n      swap1\n      pop\n        /* \"#utility.yul\":1222:1320   */\n      swap2\n      swap1\n      pop\n      jump\t// out\n        /* \"#utility.yul\":1326:1484   */\n    tag_113:\n        /* \"#utility.yul\":1399:1410   */\n      0x00\n        /* \"#utility.yul\":1433:1439   */\n      dup3\n        /* \"#utility.yul\":1428:1431   */\n      dup3\n        /* \"#utility.yul\":1421:1440   */\n      mstore\n        /* \"#utility.yul\":1473:1477   */\n      0x20\n        /* \"#utility.yul\":1468:1471   */\n      dup3\n        /* \"#utility.yul\":1464:1478   */\n      add\n        /* \"#utility.yul\":1449:1478   */\n      swap1\n      pop\n        /* \"#utility.yul\":1326:1484   */\n      swap3\n      swap2\n      pop\n      pop\n      jump\t// out\n        /* \"#utility.yul\":1490:1736   */\n    tag_114:\n        /* \"#utility.yul\":1571:1572   */\n      0x00\n        /* \"#utility.yul\":1581:1694   */\n    tag_189:\n        /* \"#utility.yul\":1595:1601   */\n      dup4\n        /* \"#utility.yul\":1592:1593   */\n      dup2\n        /* \"#utility.yul\":1589:1602   */\n      lt\n        /* \"#utility.yul\":1581:1694   */\n      iszero\n      tag_191\n      jumpi\n        /* \"#utility.yul\":1680:1681   */\n      dup1\n        /* \"#utility.yul\":1675:1678   */\n      dup3\n        /* \"#utility.yul\":1671:1682   */\n      add\n        /* \"#utility.yul\":1665:1683   */\n      mload\n        /* \"#utility.yul\":1661:1662   */\n      dup2\n        /* \"#utility.yul\":1656:1659   */\n      dup5\n        /* \"#utility.yul\":1652:1663   */\n      add\n        /* \"#utility.yul\":1645:1684   */\n      mstore\n        /* \"#utility.yul\":1617:1619   */\n      0x20\n        /* \"#utility.yul\":1614:1615   */\n      dup2\n        /* \"#utility.yul\":1610:1620   */\n      add\n        /* \"#utility.yul\":1605:1620   */\n      swap1\n      pop\n        /* \"#utility.yul\":1581:1694   */\n      jump(tag_189)\n    tag_191:\n        /* \"#utility.yul\":1728:1729   */\n      0x00\n        /* \"#utility.yul\":1719:1725   */\n      dup5\n        /* \"#utility.yul\":1714:1717   */\n      dup5\n        /* \"#utility.yul\":1710:1726   */\n      add\n        /* \"#utility.yul\":1703:1730   */\n      mstore\n        /* \"#utility.yul\":1552:1736   */\n      pop\n        /* \"#utility.yul\":1490:1736   */\n      pop\n      pop\n      pop\n      jump\t// out\n        /* \"#utility.yul\":1742:1844   */\n    tag_115:\n        /* \"#utility.yul\":1783:1789   */\n      0x00\n        /* \"#utility.yul\":1834:1836   */\n      0x1f\n        /* \"#utility.yul\":1830:1837   */\n      not\n        /* \"#utility.yul\":1825:1827   */\n      0x1f\n        /* \"#utility.yul\":1818:1823   */\n      dup4\n        /* \"#utility.yul\":1814:1828   */\n      add\n        /* \"#utility.yul\":1810:1838   */\n      and\n        /* \"#utility.yul\":1800:1838   */\n      swap1\n      pop\n        /* \"#utility.yul\":1742:1844   */\n      swap2\n      swap1\n      pop\n      jump\t// out\n        /* \"#utility.yul\":1850:2203   */\n    tag_116:\n        /* \"#utility.yul\":1926:1929   */\n      0x00\n        /* \"#utility.yul\":1954:1992   */\n      tag_194\n        /* \"#utility.yul\":1986:1991   */\n      dup3\n        /* \"#utility.yul\":1954:1992   */\n      tag_112\n      jump\t// in\n    tag_194:\n        /* \"#utility.yul\":2008:2068   */\n      tag_195\n        /* \"#utility.yul\":2061:2067   */\n      dup2\n        /* \"#utility.yul\":2056:2059   */\n      dup6\n        /* \"#utility.yul\":2008:2068   */\n      tag_113\n      jump\t// in\n    tag_195:\n        /* \"#utility.yul\":2001:2068   */\n      swap4\n      pop\n        /* \"#utility.yul\":2077:2142   */\n      tag_196\n        /* \"#utility.yul\":2135:2141   */\n      dup2\n        /* \"#utility.yul\":2130:2133   */\n      dup6\n        /* \"#utility.yul\":2123:2127   */\n      0x20\n        /* \"#utility.yul\":2116:2121   */\n      dup7\n        /* \"#utility.yul\":2112:2128   */\n      add\n        /* \"#utility.yul\":2077:2142   */\n      tag_114\n      jump\t// in\n    tag_196:\n        /* \"#utility.yul\":2167:2196   */\n      tag_197\n        /* \"#utility.yul\":2189:2195   */\n      dup2\n        /* \"#utility.yul\":2167:2196   */\n      tag_115\n      jump\t// in\n    tag_197:\n        /* \"#utility.yul\":2162:2165   */\n      dup5\n        /* \"#utility.yul\":2158:2197   */\n      add\n        /* \"#utility.yul\":2151:2197   */\n      swap2\n      pop\n        /* \"#utility.yul\":1930:2203   */\n      pop\n        /* \"#utility.yul\":1850:2203   */\n      swap3\n      swap2\n      pop\n      pop\n      jump\t// out\n        /* \"#utility.yul\":2209:2335   */\n    tag_117:\n        /* \"#utility.yul\":2246:2253   */\n      0x00\n        /* \"#utility.yul\":2286:2328   */\n      0xffffffffffffffffffffffffffffffffffffffff\n        /* \"#utility.yul\":2279:2284   */\n      dup3\n        /* \"#utility.yul\":2275:2329   */\n      and\n        /* \"#utility.yul\":2264:2329   */\n      swap1\n      pop\n        /* \"#utility.yul\":2209:2335   */\n      swap2\n      swap1\n      pop\n      jump\t// out\n        /* \"#utility.yul\":2341:2437   */\n    tag_118:\n        /* \"#utility.yul\":2378:2385   */\n      0x00\n        /* \"#utility.yul\":2407:2431   */\n      tag_200\n        /* \"#utility.yul\":2425:2430   */\n      dup3\n        /* \"#utility.yul\":2407:2431   */\n      tag_117\n      jump\t// in\n    tag_200:\n        /* \"#utility.yul\":2396:2431   */\n      swap1\n      pop\n        /* \"#utility.yul\":2341:2437   */\n      swap2\n      swap1\n      pop\n      jump\t// out\n        /* \"#utility.yul\":2443:2551   */\n    tag_119:\n        /* \"#utility.yul\":2520:2544   */\n      tag_202\n        /* \"#utility.yul\":2538:2543   */\n      dup2\n        /* \"#utility.yul\":2520:2544   */\n      tag_118\n      jump\t// in\n    tag_202:\n        /* \"#utility.yul\":2515:2518   */\n      dup3\n        /* \"#utility.yul\":2508:2545   */\n      mstore\n        /* \"#utility.yul\":2443:2551   */\n      pop\n      pop\n      jump\t// out\n        /* \"#utility.yul\":2557:2647   */\n    tag_120:\n        /* \"#utility.yul\":2591:2598   */\n      0x00\n        /* \"#utility.yul\":2634:2639   */\n      dup2\n        /* \"#utility.yul\":2627:2640   */\n      iszero\n        /* \"#utility.yul\":2620:2641   */\n      iszero\n        /* \"#utility.yul\":2609:2641   */\n      swap1\n      pop\n        /* \"#utility.yul\":2557:2647   */\n      swap2\n      swap1\n      pop\n      jump\t// out\n        /* \"#utility.yul\":2653:2752   */\n    tag_121:\n        /* \"#utility.yul\":2724:2745   */\n      tag_205\n        /* \"#utility.yul\":2739:2744   */\n      dup2\n        /* \"#utility.yul\":2724:2745   */\n      tag_120\n      jump\t// in\n    tag_205:\n        /* \"#utility.yul\":2719:2722   */\n      dup3\n        /* \"#utility.yul\":2712:2746   */\n      mstore\n        /* \"#utility.yul\":2653:2752   */\n      pop\n      pop\n      jump\t// out\n        /* \"#utility.yul\":2758:2938   */\n    tag_51:\n        /* \"#utility.yul\":2806:2883   */\n      0x4e487b7100000000000000000000000000000000000000000000000000000000\n        /* \"#utility.yul\":2803:2804   */\n      0x00\n        /* \"#utility.yul\":2796:2884   */\n      mstore\n        /* \"#utility.yul\":2903:2907   */\n      0x21\n        /* \"#utility.yul\":2900:2901   */\n      0x04\n        /* \"#utility.yul\":2893:2908   */\n      mstore\n        /* \"#utility.yul\":2927:2931   */\n      0x24\n        /* \"#utility.yul\":2924:2925   */\n      0x00\n        /* \"#utility.yul\":2917:2932   */\n      revert\n        /* \"#utility.yul\":2944:3058   */\n    tag_122:\n        /* \"#utility.yul\":3026:3027   */\n      0x03\n        /* \"#utility.yul\":3019:3024   */\n      dup2\n        /* \"#utility.yul\":3016:3028   */\n      lt\n        /* \"#utility.yul\":3006:3052   */\n      tag_208\n      jumpi\n        /* \"#utility.yul\":3032:3050   */\n      tag_209\n      tag_51\n      jump\t// in\n    tag_209:\n        /* \"#utility.yul\":3006:3052   */\n    tag_208:\n        /* \"#utility.yul\":2944:3058   */\n      pop\n      jump\t// out\n        /* \"#utility.yul\":3064:3193   */\n    tag_123:\n        /* \"#utility.yul\":3110:3117   */\n      0x00\n        /* \"#utility.yul\":3139:3144   */\n      dup2\n        /* \"#utility.yul\":3128:3144   */\n      swap1\n      pop\n        /* \"#utility.yul\":3145:3187   */\n      tag_211\n        /* \"#utility.yul\":3181:3186   */\n      dup3\n        /* \"#utility.yul\":3145:3187   */\n      tag_122\n      jump\t// in\n    tag_211:\n        /* \"#utility.yul\":3064:3193   */\n      swap2\n      swap1\n      pop\n      jump\t// out\n        /* \"#utility.yul\":3199:3328   */\n    tag_124:\n        /* \"#utility.yul\":3256:3265   */\n      0x00\n        /* \"#utility.yul\":3289:3322   */\n      tag_213\n        /* \"#utility.yul\":3316:3321   */\n      dup3\n        /* \"#utility.yul\":3289:3322   */\n      tag_123\n      jump\t// in\n    tag_213:\n        /* \"#utility.yul\":3276:3322   */\n      swap1\n      pop\n        /* \"#utility.yul\":3199:3328   */\n      swap2\n      swap1\n      pop\n      jump\t// out\n        /* \"#utility.yul\":3334:3469   */\n    tag_125:\n        /* \"#utility.yul\":3418:3462   */\n      tag_215\n        /* \"#utility.yul\":3456:3461   */\n      dup2\n        /* \"#utility.yul\":3418:3462   */\n      tag_124\n      jump\t// in\n    tag_215:\n        /* \"#utility.yul\":3413:3416   */\n      dup3\n        /* \"#utility.yul\":3406:3463   */\n      mstore\n        /* \"#utility.yul\":3334:3469   */\n      pop\n      pop\n      jump\t// out\n        /* \"#utility.yul\":3571:4744   */\n    tag_126:\n        /* \"#utility.yul\":3704:3707   */\n      0x00\n        /* \"#utility.yul\":3740:3744   */\n      0xa0\n        /* \"#utility.yul\":3735:3738   */\n      dup4\n        /* \"#utility.yul\":3731:3745   */\n      add\n        /* \"#utility.yul\":3834:3838   */\n      0x00\n        /* \"#utility.yul\":3827:3832   */\n      dup4\n        /* \"#utility.yul\":3823:3839   */\n      add\n        /* \"#utility.yul\":3817:3840   */\n      mload\n        /* \"#utility.yul\":3853:3916   */\n      tag_217\n        /* \"#utility.yul\":3910:3914   */\n      0x00\n        /* \"#utility.yul\":3905:3908   */\n      dup7\n        /* \"#utility.yul\":3901:3915   */\n      add\n        /* \"#utility.yul\":3887:3899   */\n      dup3\n        /* \"#utility.yul\":3853:3916   */\n      tag_111\n      jump\t// in\n    tag_217:\n        /* \"#utility.yul\":3755:3926   */\n      pop\n        /* \"#utility.yul\":4017:4021   */\n      0x20\n        /* \"#utility.yul\":4010:4015   */\n      dup4\n        /* \"#utility.yul\":4006:4022   */\n      add\n        /* \"#utility.yul\":4000:4023   */\n      mload\n        /* \"#utility.yul\":4070:4073   */\n      dup5\n        /* \"#utility.yul\":4064:4068   */\n      dup3\n        /* \"#utility.yul\":4060:4074   */\n      sub\n        /* \"#utility.yul\":4053:4057   */\n      0x20\n        /* \"#utility.yul\":4048:4051   */\n      dup7\n        /* \"#utility.yul\":4044:4058   */\n      add\n        /* \"#utility.yul\":4037:4075   */\n      mstore\n        /* \"#utility.yul\":4096:4167   */\n      tag_218\n        /* \"#utility.yul\":4162:4166   */\n      dup3\n        /* \"#utility.yul\":4148:4160   */\n      dup3\n        /* \"#utility.yul\":4096:4167   */\n      tag_116\n      jump\t// in\n    tag_218:\n        /* \"#utility.yul\":4088:4167   */\n      swap2\n      pop\n        /* \"#utility.yul\":3936:4178   */\n      pop\n        /* \"#utility.yul\":4265:4269   */\n      0x40\n        /* \"#utility.yul\":4258:4263   */\n      dup4\n        /* \"#utility.yul\":4254:4270   */\n      add\n        /* \"#utility.yul\":4248:4271   */\n      mload\n        /* \"#utility.yul\":4284:4347   */\n      tag_219\n        /* \"#utility.yul\":4341:4345   */\n      0x40\n        /* \"#utility.yul\":4336:4339   */\n      dup7\n        /* \"#utility.yul\":4332:4346   */\n      add\n        /* \"#utility.yul\":4318:4330   */\n      dup3\n        /* \"#utility.yul\":4284:4347   */\n      tag_119\n      jump\t// in\n    tag_219:\n        /* \"#utility.yul\":4188:4357   */\n      pop\n        /* \"#utility.yul\":4441:4445   */\n      0x60\n        /* \"#utility.yul\":4434:4439   */\n      dup4\n        /* \"#utility.yul\":4430:4446   */\n      add\n        /* \"#utility.yul\":4424:4447   */\n      mload\n        /* \"#utility.yul\":4460:4517   */\n      tag_220\n        /* \"#utility.yul\":4511:4515   */\n      0x60\n        /* \"#utility.yul\":4506:4509   */\n      dup7\n        /* \"#utility.yul\":4502:4516   */\n      add\n        /* \"#utility.yul\":4488:4500   */\n      dup3\n        /* \"#utility.yul\":4460:4517   */\n      tag_121\n      jump\t// in\n    tag_220:\n        /* \"#utility.yul\":4367:4527   */\n      pop\n        /* \"#utility.yul\":4618:4622   */\n      0x80\n        /* \"#utility.yul\":4611:4616   */\n      dup4\n        /* \"#utility.yul\":4607:4623   */\n      add\n        /* \"#utility.yul\":4601:4624   */\n      mload\n        /* \"#utility.yul\":4637:4707   */\n      tag_221\n        /* \"#utility.yul\":4701:4705   */\n      0x80\n        /* \"#utility.yul\":4696:4699   */\n      dup7\n        /* \"#utility.yul\":4692:4706   */\n      add\n        /* \"#utility.yul\":4678:4690   */\n      dup3\n        /* \"#utility.yul\":4637:4707   */\n      tag_125\n      jump\t// in\n    tag_221:\n        /* \"#utility.yul\":4537:4717   */\n      pop\n        /* \"#utility.yul\":4734:4738   */\n      dup1\n        /* \"#utility.yul\":4727:4738   */\n      swap2\n      pop\n        /* \"#utility.yul\":3709:4744   */\n      pop\n        /* \"#utility.yul\":3571:4744   */\n      swap3\n      swap2\n      pop\n      pop\n      jump\t// out\n        /* \"#utility.yul\":4750:5151   */\n    tag_20:\n        /* \"#utility.yul\":4907:4911   */\n      0x00\n        /* \"#utility.yul\":4945:4947   */\n      0x20\n        /* \"#utility.yul\":4934:4943   */\n      dup3\n        /* \"#utility.yul\":4930:4948   */\n      add\n        /* \"#utility.yul\":4922:4948   */\n      swap1\n      pop\n        /* \"#utility.yul\":4994:5003   */\n      dup2\n        /* \"#utility.yul\":4988:4992   */\n      dup2\n        /* \"#utility.yul\":4984:5004   */\n      sub\n        /* \"#utility.yul\":4980:4981   */\n      0x00\n        /* \"#utility.yul\":4969:4978   */\n      dup4\n        /* \"#utility.yul\":4965:4982   */\n      add\n        /* \"#utility.yul\":4958:5005   */\n      mstore\n        /* \"#utility.yul\":5022:5144   */\n      tag_223\n        /* \"#utility.yul\":5139:5143   */\n      dup2\n        /* \"#utility.yul\":5130:5136   */\n      dup5\n        /* \"#utility.yul\":5022:5144   */\n      tag_126\n      jump\t// in\n    tag_223:\n        /* \"#utility.yul\":5014:5144   */\n      swap1\n      pop\n        /* \"#utility.yul\":4750:5151   */\n      swap3\n      swap2\n      pop\n      pop\n      jump\t// out\n        /* \"#utility.yul\":5157:5274   */\n    tag_127:\n        /* \"#utility.yul\":5266:5267   */\n      0x00\n        /* \"#utility.yul\":5263:5264   */\n      dup1\n        /* \"#utility.yul\":5256:5268   */\n      revert\n        /* \"#utility.yul\":5280:5397   */\n    tag_128:\n        /* \"#utility.yul\":5389:5390   */\n      0x00\n        /* \"#utility.yul\":5386:5387   */\n      dup1\n        /* \"#utility.yul\":5379:5391   */\n      revert\n        /* \"#utility.yul\":5403:5583   */\n    tag_129:\n        /* \"#utility.yul\":5451:5528   */\n      0x4e487b7100000000000000000000000000000000000000000000000000000000\n        /* \"#utility.yul\":5448:5449   */\n      0x00\n        /* \"#utility.yul\":5441:5529   */\n      mstore\n        /* \"#utility.yul\":5548:5552   */\n      0x41\n        /* \"#utility.yul\":5545:5546   */\n      0x04\n        /* \"#utility.yul\":5538:5553   */\n      mstore\n        /* \"#utility.yul\":5572:5576   */\n      0x24\n        /* \"#utility.yul\":5569:5570   */\n      0x00\n        /* \"#utility.yul\":5562:5577   */\n      revert\n        /* \"#utility.yul\":5589:5870   */\n    tag_130:\n        /* \"#utility.yul\":5672:5699   */\n      tag_228\n        /* \"#utility.yul\":5694:5698   */\n      dup3\n        /* \"#utility.yul\":5672:5699   */\n      tag_115\n      jump\t// in\n    tag_228:\n        /* \"#utility.yul\":5664:5670   */\n      dup2\n        /* \"#utility.yul\":5660:5700   */\n      add\n        /* \"#utility.yul\":5802:5808   */\n      dup2\n        /* \"#utility.yul\":5790:5800   */\n      dup2\n        /* \"#utility.yul\":5787:5809   */\n      lt\n        /* \"#utility.yul\":5766:5784   */\n      0xffffffffffffffff\n        /* \"#utility.yul\":5754:5764   */\n      dup3\n        /* \"#utility.yul\":5751:5785   */\n      gt\n        /* \"#utility.yul\":5748:5810   */\n      or\n        /* \"#utility.yul\":5745:5833   */\n      iszero\n      tag_229\n      jumpi\n        /* \"#utility.yul\":5813:5831   */\n      tag_230\n      tag_129\n      jump\t// in\n    tag_230:\n        /* \"#utility.yul\":5745:5833   */\n    tag_229:\n        /* \"#utility.yul\":5853:5863   */\n      dup1\n        /* \"#utility.yul\":5849:5851   */\n      0x40\n        /* \"#utility.yul\":5842:5864   */\n      mstore\n        /* \"#utility.yul\":5632:5870   */\n      pop\n        /* \"#utility.yul\":5589:5870   */\n      pop\n      pop\n      jump\t// out\n        /* \"#utility.yul\":5876:6005   */\n    tag_131:\n        /* \"#utility.yul\":5910:5916   */\n      0x00\n        /* \"#utility.yul\":5937:5957   */\n      tag_232\n      tag_104\n      jump\t// in\n    tag_232:\n        /* \"#utility.yul\":5927:5957   */\n      swap1\n      pop\n        /* \"#utility.yul\":5966:5999   */\n      tag_233\n        /* \"#utility.yul\":5994:5998   */\n      dup3\n        /* \"#utility.yul\":5986:5992   */\n      dup3\n        /* \"#utility.yul\":5966:5999   */\n      tag_130\n      jump\t// in\n    tag_233:\n        /* \"#utility.yul\":5876:6005   */\n      swap2\n      swap1\n      pop\n      jump\t// out\n        /* \"#utility.yul\":6011:6318   */\n    tag_132:\n        /* \"#utility.yul\":6072:6076   */\n      0x00\n        /* \"#utility.yul\":6162:6180   */\n      0xffffffffffffffff\n        /* \"#utility.yul\":6154:6160   */\n      dup3\n        /* \"#utility.yul\":6151:6181   */\n      gt\n        /* \"#utility.yul\":6148:6204   */\n      iszero\n      tag_235\n      jumpi\n        /* \"#utility.yul\":6184:6202   */\n      tag_236\n      tag_129\n      jump\t// in\n    tag_236:\n        /* \"#utility.yul\":6148:6204   */\n    tag_235:\n        /* \"#utility.yul\":6222:6251   */\n      tag_237\n        /* \"#utility.yul\":6244:6250   */\n      dup3\n        /* \"#utility.yul\":6222:6251   */\n      tag_115\n      jump\t// in\n    tag_237:\n        /* \"#utility.yul\":6214:6251   */\n      swap1\n      pop\n        /* \"#utility.yul\":6306:6310   */\n      0x20\n        /* \"#utility.yul\":6300:6304   */\n      dup2\n        /* \"#utility.yul\":6296:6311   */\n      add\n        /* \"#utility.yul\":6288:6311   */\n      swap1\n      pop\n        /* \"#utility.yul\":6011:6318   */\n      swap2\n      swap1\n      pop\n      jump\t// out\n        /* \"#utility.yul\":6324:6470   */\n    tag_133:\n        /* \"#utility.yul\":6421:6427   */\n      dup3\n        /* \"#utility.yul\":6416:6419   */\n      dup2\n        /* \"#utility.yul\":6411:6414   */\n      dup4\n        /* \"#utility.yul\":6398:6428   */\n      calldatacopy\n        /* \"#utility.yul\":6462:6463   */\n      0x00\n        /* \"#utility.yul\":6453:6459   */\n      dup4\n        /* \"#utility.yul\":6448:6451   */\n      dup4\n        /* \"#utility.yul\":6444:6460   */\n      add\n        /* \"#utility.yul\":6437:6464   */\n      mstore\n        /* \"#utility.yul\":6324:6470   */\n      pop\n      pop\n      pop\n      jump\t// out\n        /* \"#utility.yul\":6476:6899   */\n    tag_134:\n        /* \"#utility.yul\":6553:6558   */\n      0x00\n        /* \"#utility.yul\":6578:6643   */\n      tag_240\n        /* \"#utility.yul\":6594:6642   */\n      tag_241\n        /* \"#utility.yul\":6635:6641   */\n      dup5\n        /* \"#utility.yul\":6594:6642   */\n      tag_132\n      jump\t// in\n    tag_241:\n        /* \"#utility.yul\":6578:6643   */\n      tag_131\n      jump\t// in\n    tag_240:\n        /* \"#utility.yul\":6569:6643   */\n      swap1\n      pop\n        /* \"#utility.yul\":6666:6672   */\n      dup3\n        /* \"#utility.yul\":6659:6664   */\n      dup2\n        /* \"#utility.yul\":6652:6673   */\n      mstore\n        /* \"#utility.yul\":6704:6708   */\n      0x20\n        /* \"#utility.yul\":6697:6702   */\n      dup2\n        /* \"#utility.yul\":6693:6709   */\n      add\n        /* \"#utility.yul\":6742:6745   */\n      dup5\n        /* \"#utility.yul\":6733:6739   */\n      dup5\n        /* \"#utility.yul\":6728:6731   */\n      dup5\n        /* \"#utility.yul\":6724:6740   */\n      add\n        /* \"#utility.yul\":6721:6746   */\n      gt\n        /* \"#utility.yul\":6718:6830   */\n      iszero\n      tag_242\n      jumpi\n        /* \"#utility.yul\":6749:6828   */\n      tag_243\n      tag_128\n      jump\t// in\n    tag_243:\n        /* \"#utility.yul\":6718:6830   */\n    tag_242:\n        /* \"#utility.yul\":6839:6893   */\n      tag_244\n        /* \"#utility.yul\":6886:6892   */\n      dup5\n        /* \"#utility.yul\":6881:6884   */\n      dup3\n        /* \"#utility.yul\":6876:6879   */\n      dup6\n        /* \"#utility.yul\":6839:6893   */\n      tag_133\n      jump\t// in\n    tag_244:\n        /* \"#utility.yul\":6559:6899   */\n      pop\n        /* \"#utility.yul\":6476:6899   */\n      swap4\n      swap3\n      pop\n      pop\n      pop\n      jump\t// out\n        /* \"#utility.yul\":6918:7256   */\n    tag_135:\n        /* \"#utility.yul\":6973:6978   */\n      0x00\n        /* \"#utility.yul\":7022:7025   */\n      dup3\n        /* \"#utility.yul\":7015:7019   */\n      0x1f\n        /* \"#utility.yul\":7007:7013   */\n      dup4\n        /* \"#utility.yul\":7003:7020   */\n      add\n        /* \"#utility.yul\":6999:7026   */\n      slt\n        /* \"#utility.yul\":6989:7111   */\n      tag_246\n      jumpi\n        /* \"#utility.yul\":7030:7109   */\n      tag_247\n      tag_127\n      jump\t// in\n    tag_247:\n        /* \"#utility.yul\":6989:7111   */\n    tag_246:\n        /* \"#utility.yul\":7147:7153   */\n      dup2\n        /* \"#utility.yul\":7134:7154   */\n      calldataload\n        /* \"#utility.yul\":7172:7250   */\n      tag_248\n        /* \"#utility.yul\":7246:7249   */\n      dup5\n        /* \"#utility.yul\":7238:7244   */\n      dup3\n        /* \"#utility.yul\":7231:7235   */\n      0x20\n        /* \"#utility.yul\":7223:7229   */\n      dup7\n        /* \"#utility.yul\":7219:7236   */\n      add\n        /* \"#utility.yul\":7172:7250   */\n      tag_134\n      jump\t// in\n    tag_248:\n        /* \"#utility.yul\":7163:7250   */\n      swap2\n      pop\n        /* \"#utility.yul\":6979:7256   */\n      pop\n        /* \"#utility.yul\":6918:7256   */\n      swap3\n      swap2\n      pop\n      pop\n      jump\t// out\n        /* \"#utility.yul\":7262:7769   */\n    tag_23:\n        /* \"#utility.yul\":7330:7336   */\n      0x00\n        /* \"#utility.yul\":7379:7381   */\n      0x20\n        /* \"#utility.yul\":7367:7376   */\n      dup3\n        /* \"#utility.yul\":7358:7365   */\n      dup5\n        /* \"#utility.yul\":7354:7377   */\n      sub\n        /* \"#utility.yul\":7350:7382   */\n      slt\n        /* \"#utility.yul\":7347:7466   */\n      iszero\n      tag_250\n      jumpi\n        /* \"#utility.yul\":7385:7464   */\n      tag_251\n      tag_105\n      jump\t// in\n    tag_251:\n        /* \"#utility.yul\":7347:7466   */\n    tag_250:\n        /* \"#utility.yul\":7533:7534   */\n      0x00\n        /* \"#utility.yul\":7522:7531   */\n      dup3\n        /* \"#utility.yul\":7518:7535   */\n      add\n        /* \"#utility.yul\":7505:7536   */\n      calldataload\n        /* \"#utility.yul\":7563:7581   */\n      0xffffffffffffffff\n        /* \"#utility.yul\":7555:7561   */\n      dup2\n        /* \"#utility.yul\":7552:7582   */\n      gt\n        /* \"#utility.yul\":7549:7666   */\n      iszero\n      tag_252\n      jumpi\n        /* \"#utility.yul\":7585:7664   */\n      tag_253\n      tag_106\n      jump\t// in\n    tag_253:\n        /* \"#utility.yul\":7549:7666   */\n    tag_252:\n        /* \"#utility.yul\":7690:7752   */\n      tag_254\n        /* \"#utility.yul\":7744:7751   */\n      dup5\n        /* \"#utility.yul\":7735:7741   */\n      dup3\n        /* \"#utility.yul\":7724:7733   */\n      dup6\n        /* \"#utility.yul\":7720:7742   */\n      add\n        /* \"#utility.yul\":7690:7752   */\n      tag_135\n      jump\t// in\n    tag_254:\n        /* \"#utility.yul\":7680:7752   */\n      swap2\n      pop\n        /* \"#utility.yul\":7476:7762   */\n      pop\n        /* \"#utility.yul\":7262:7769   */\n      swap3\n      swap2\n      pop\n      pop\n      jump\t// out\n        /* \"#utility.yul\":7775:7893   */\n    tag_136:\n        /* \"#utility.yul\":7862:7886   */\n      tag_256\n        /* \"#utility.yul\":7880:7885   */\n      dup2\n        /* \"#utility.yul\":7862:7886   */\n      tag_107\n      jump\t// in\n    tag_256:\n        /* \"#utility.yul\":7857:7860   */\n      dup3\n        /* \"#utility.yul\":7850:7887   */\n      mstore\n        /* \"#utility.yul\":7775:7893   */\n      pop\n      pop\n      jump\t// out\n        /* \"#utility.yul\":7899:8121   */\n    tag_26:\n        /* \"#utility.yul\":7992:7996   */\n      0x00\n        /* \"#utility.yul\":8030:8032   */\n      0x20\n        /* \"#utility.yul\":8019:8028   */\n      dup3\n        /* \"#utility.yul\":8015:8033   */\n      add\n        /* \"#utility.yul\":8007:8033   */\n      swap1\n      pop\n        /* \"#utility.yul\":8043:8114   */\n      tag_258\n        /* \"#utility.yul\":8111:8112   */\n      0x00\n        /* \"#utility.yul\":8100:8109   */\n      dup4\n        /* \"#utility.yul\":8096:8113   */\n      add\n        /* \"#utility.yul\":8087:8093   */\n      dup5\n        /* \"#utility.yul\":8043:8114   */\n      tag_136\n      jump\t// in\n    tag_258:\n        /* \"#utility.yul\":7899:8121   */\n      swap3\n      swap2\n      pop\n      pop\n      jump\t// out\n        /* \"#utility.yul\":8127:8243   */\n    tag_137:\n        /* \"#utility.yul\":8197:8218   */\n      tag_260\n        /* \"#utility.yul\":8212:8217   */\n      dup2\n        /* \"#utility.yul\":8197:8218   */\n      tag_120\n      jump\t// in\n    tag_260:\n        /* \"#utility.yul\":8190:8195   */\n      dup2\n        /* \"#utility.yul\":8187:8219   */\n      eq\n        /* \"#utility.yul\":8177:8237   */\n      tag_261\n      jumpi\n        /* \"#utility.yul\":8233:8234   */\n      0x00\n        /* \"#utility.yul\":8230:8231   */\n      dup1\n        /* \"#utility.yul\":8223:8235   */\n      revert\n        /* \"#utility.yul\":8177:8237   */\n    tag_261:\n        /* \"#utility.yul\":8127:8243   */\n      pop\n      jump\t// out\n        /* \"#utility.yul\":8249:8382   */\n    tag_138:\n        /* \"#utility.yul\":8292:8297   */\n      0x00\n        /* \"#utility.yul\":8330:8336   */\n      dup2\n        /* \"#utility.yul\":8317:8337   */\n      calldataload\n        /* \"#utility.yul\":8308:8337   */\n      swap1\n      pop\n        /* \"#utility.yul\":8346:8376   */\n      tag_263\n        /* \"#utility.yul\":8370:8375   */\n      dup2\n        /* \"#utility.yul\":8346:8376   */\n      tag_137\n      jump\t// in\n    tag_263:\n        /* \"#utility.yul\":8249:8382   */\n      swap3\n      swap2\n      pop\n      pop\n      jump\t// out\n        /* \"#utility.yul\":8388:8856   */\n    tag_32:\n        /* \"#utility.yul\":8453:8459   */\n      0x00\n        /* \"#utility.yul\":8461:8467   */\n      dup1\n        /* \"#utility.yul\":8510:8512   */\n      0x40\n        /* \"#utility.yul\":8498:8507   */\n      dup4\n        /* \"#utility.yul\":8489:8496   */\n      dup6\n        /* \"#utility.yul\":8485:8508   */\n      sub\n        /* \"#utility.yul\":8481:8513   */\n      slt\n        /* \"#utility.yul\":8478:8597   */\n      iszero\n      tag_265\n      jumpi\n        /* \"#utility.yul\":8516:8595   */\n      tag_266\n      tag_105\n      jump\t// in\n    tag_266:\n        /* \"#utility.yul\":8478:8597   */\n    tag_265:\n        /* \"#utility.yul\":8636:8637   */\n      0x00\n        /* \"#utility.yul\":8661:8714   */\n      tag_267\n        /* \"#utility.yul\":8706:8713   */\n      dup6\n        /* \"#utility.yul\":8697:8703   */\n      dup3\n        /* \"#utility.yul\":8686:8695   */\n      dup7\n        /* \"#utility.yul\":8682:8704   */\n      add\n        /* \"#utility.yul\":8661:8714   */\n      tag_109\n      jump\t// in\n    tag_267:\n        /* \"#utility.yul\":8651:8714   */\n      swap3\n      pop\n        /* \"#utility.yul\":8607:8724   */\n      pop\n        /* \"#utility.yul\":8763:8765   */\n      0x20\n        /* \"#utility.yul\":8789:8839   */\n      tag_268\n        /* \"#utility.yul\":8831:8838   */\n      dup6\n        /* \"#utility.yul\":8822:8828   */\n      dup3\n        /* \"#utility.yul\":8811:8820   */\n      dup7\n        /* \"#utility.yul\":8807:8829   */\n      add\n        /* \"#utility.yul\":8789:8839   */\n      tag_138\n      jump\t// in\n    tag_268:\n        /* \"#utility.yul\":8779:8839   */\n      swap2\n      pop\n        /* \"#utility.yul\":8734:8849   */\n      pop\n        /* \"#utility.yul\":8388:8856   */\n      swap3\n      pop\n      swap3\n      swap1\n      pop\n      jump\t// out\n        /* \"#utility.yul\":8862:8971   */\n    tag_139:\n        /* \"#utility.yul\":8943:8964   */\n      tag_270\n        /* \"#utility.yul\":8958:8963   */\n      dup2\n        /* \"#utility.yul\":8943:8964   */\n      tag_120\n      jump\t// in\n    tag_270:\n        /* \"#utility.yul\":8938:8941   */\n      dup3\n        /* \"#utility.yul\":8931:8965   */\n      mstore\n        /* \"#utility.yul\":8862:8971   */\n      pop\n      pop\n      jump\t// out\n        /* \"#utility.yul\":8977:9187   */\n    tag_38:\n        /* \"#utility.yul\":9064:9068   */\n      0x00\n        /* \"#utility.yul\":9102:9104   */\n      0x20\n        /* \"#utility.yul\":9091:9100   */\n      dup3\n        /* \"#utility.yul\":9087:9105   */\n      add\n        /* \"#utility.yul\":9079:9105   */\n      swap1\n      pop\n        /* \"#utility.yul\":9115:9180   */\n      tag_272\n        /* \"#utility.yul\":9177:9178   */\n      0x00\n        /* \"#utility.yul\":9166:9175   */\n      dup4\n        /* \"#utility.yul\":9162:9179   */\n      add\n        /* \"#utility.yul\":9153:9159   */\n      dup5\n        /* \"#utility.yul\":9115:9180   */\n      tag_139\n      jump\t// in\n    tag_272:\n        /* \"#utility.yul\":8977:9187   */\n      swap3\n      swap2\n      pop\n      pop\n      jump\t// out\n        /* \"#utility.yul\":9193:9315   */\n    tag_140:\n        /* \"#utility.yul\":9266:9290   */\n      tag_274\n        /* \"#utility.yul\":9284:9289   */\n      dup2\n        /* \"#utility.yul\":9266:9290   */\n      tag_110\n      jump\t// in\n    tag_274:\n        /* \"#utility.yul\":9259:9264   */\n      dup2\n        /* \"#utility.yul\":9256:9291   */\n      eq\n        /* \"#utility.yul\":9246:9309   */\n      tag_275\n      jumpi\n        /* \"#utility.yul\":9305:9306   */\n      0x00\n        /* \"#utility.yul\":9302:9303   */\n      dup1\n        /* \"#utility.yul\":9295:9307   */\n      revert\n        /* \"#utility.yul\":9246:9309   */\n    tag_275:\n        /* \"#utility.yul\":9193:9315   */\n      pop\n      jump\t// out\n        /* \"#utility.yul\":9321:9460   */\n    tag_141:\n        /* \"#utility.yul\":9367:9372   */\n      0x00\n        /* \"#utility.yul\":9405:9411   */\n      dup2\n        /* \"#utility.yul\":9392:9412   */\n      calldataload\n        /* \"#utility.yul\":9383:9412   */\n      swap1\n      pop\n        /* \"#utility.yul\":9421:9454   */\n      tag_277\n        /* \"#utility.yul\":9448:9453   */\n      dup2\n        /* \"#utility.yul\":9421:9454   */\n      tag_140\n      jump\t// in\n    tag_277:\n        /* \"#utility.yul\":9321:9460   */\n      swap3\n      swap2\n      pop\n      pop\n      jump\t// out\n        /* \"#utility.yul\":9466:9940   */\n    tag_41:\n        /* \"#utility.yul\":9534:9540   */\n      0x00\n        /* \"#utility.yul\":9542:9548   */\n      dup1\n        /* \"#utility.yul\":9591:9593   */\n      0x40\n        /* \"#utility.yul\":9579:9588   */\n      dup4\n        /* \"#utility.yul\":9570:9577   */\n      dup6\n        /* \"#utility.yul\":9566:9589   */\n      sub\n        /* \"#utility.yul\":9562:9594   */\n      slt\n        /* \"#utility.yul\":9559:9678   */\n      iszero\n      tag_279\n      jumpi\n        /* \"#utility.yul\":9597:9676   */\n      tag_280\n      tag_105\n      jump\t// in\n    tag_280:\n        /* \"#utility.yul\":9559:9678   */\n    tag_279:\n        /* \"#utility.yul\":9717:9718   */\n      0x00\n        /* \"#utility.yul\":9742:9795   */\n      tag_281\n        /* \"#utility.yul\":9787:9794   */\n      dup6\n        /* \"#utility.yul\":9778:9784   */\n      dup3\n        /* \"#utility.yul\":9767:9776   */\n      dup7\n        /* \"#utility.yul\":9763:9785   */\n      add\n        /* \"#utility.yul\":9742:9795   */\n      tag_109\n      jump\t// in\n    tag_281:\n        /* \"#utility.yul\":9732:9795   */\n      swap3\n      pop\n        /* \"#utility.yul\":9688:9805   */\n      pop\n        /* \"#utility.yul\":9844:9846   */\n      0x20\n        /* \"#utility.yul\":9870:9923   */\n      tag_282\n        /* \"#utility.yul\":9915:9922   */\n      dup6\n        /* \"#utility.yul\":9906:9912   */\n      dup3\n        /* \"#utility.yul\":9895:9904   */\n      dup7\n        /* \"#utility.yul\":9891:9913   */\n      add\n        /* \"#utility.yul\":9870:9923   */\n      tag_141\n      jump\t// in\n    tag_282:\n        /* \"#utility.yul\":9860:9923   */\n      swap2\n      pop\n        /* \"#utility.yul\":9815:9933   */\n      pop\n        /* \"#utility.yul\":9466:9940   */\n      swap3\n      pop\n      swap3\n      swap1\n      pop\n      jump\t// out\n        /* \"#utility.yul\":9946:10064   */\n    tag_142:\n        /* \"#utility.yul\":10033:10057   */\n      tag_284\n        /* \"#utility.yul\":10051:10056   */\n      dup2\n        /* \"#utility.yul\":10033:10057   */\n      tag_110\n      jump\t// in\n    tag_284:\n        /* \"#utility.yul\":10028:10031   */\n      dup3\n        /* \"#utility.yul\":10021:10058   */\n      mstore\n        /* \"#utility.yul\":9946:10064   */\n      pop\n      pop\n      jump\t// out\n        /* \"#utility.yul\":10070:10238   */\n    tag_143:\n        /* \"#utility.yul\":10153:10164   */\n      0x00\n        /* \"#utility.yul\":10187:10193   */\n      dup3\n        /* \"#utility.yul\":10182:10185   */\n      dup3\n        /* \"#utility.yul\":10175:10194   */\n      mstore\n        /* \"#utility.yul\":10227:10231   */\n      0x20\n        /* \"#utility.yul\":10222:10225   */\n      dup3\n        /* \"#utility.yul\":10218:10232   */\n      add\n        /* \"#utility.yul\":10203:10232   */\n      swap1\n      pop\n        /* \"#utility.yul\":10070:10238   */\n      swap3\n      swap2\n      pop\n      pop\n      jump\t// out\n        /* \"#utility.yul\":10244:10617   */\n    tag_144:\n        /* \"#utility.yul\":10330:10333   */\n      0x00\n        /* \"#utility.yul\":10358:10396   */\n      tag_287\n        /* \"#utility.yul\":10390:10395   */\n      dup3\n        /* \"#utility.yul\":10358:10396   */\n      tag_112\n      jump\t// in\n    tag_287:\n        /* \"#utility.yul\":10412:10482   */\n      tag_288\n        /* \"#utility.yul\":10475:10481   */\n      dup2\n        /* \"#utility.yul\":10470:10473   */\n      dup6\n        /* \"#utility.yul\":10412:10482   */\n      tag_143\n      jump\t// in\n    tag_288:\n        /* \"#utility.yul\":10405:10482   */\n      swap4\n      pop\n        /* \"#utility.yul\":10491:10556   */\n      tag_289\n        /* \"#utility.yul\":10549:10555   */\n      dup2\n        /* \"#utility.yul\":10544:10547   */\n      dup6\n        /* \"#utility.yul\":10537:10541   */\n      0x20\n        /* \"#utility.yul\":10530:10535   */\n      dup7\n        /* \"#utility.yul\":10526:10542   */\n      add\n        /* \"#utility.yul\":10491:10556   */\n      tag_114\n      jump\t// in\n    tag_289:\n        /* \"#utility.yul\":10581:10610   */\n      tag_290\n        /* \"#utility.yul\":10603:10609   */\n      dup2\n        /* \"#utility.yul\":10581:10610   */\n      tag_115\n      jump\t// in\n    tag_290:\n        /* \"#utility.yul\":10576:10579   */\n      dup5\n        /* \"#utility.yul\":10572:10611   */\n      add\n        /* \"#utility.yul\":10565:10611   */\n      swap2\n      pop\n        /* \"#utility.yul\":10334:10617   */\n      pop\n        /* \"#utility.yul\":10244:10617   */\n      swap3\n      swap2\n      pop\n      pop\n      jump\t// out\n        /* \"#utility.yul\":10623:10741   */\n    tag_145:\n        /* \"#utility.yul\":10710:10734   */\n      tag_292\n        /* \"#utility.yul\":10728:10733   */\n      dup2\n        /* \"#utility.yul\":10710:10734   */\n      tag_118\n      jump\t// in\n    tag_292:\n        /* \"#utility.yul\":10705:10708   */\n      dup3\n        /* \"#utility.yul\":10698:10735   */\n      mstore\n        /* \"#utility.yul\":10623:10741   */\n      pop\n      pop\n      jump\t// out\n        /* \"#utility.yul\":10747:10892   */\n    tag_146:\n        /* \"#utility.yul\":10841:10885   */\n      tag_294\n        /* \"#utility.yul\":10879:10884   */\n      dup2\n        /* \"#utility.yul\":10841:10885   */\n      tag_124\n      jump\t// in\n    tag_294:\n        /* \"#utility.yul\":10836:10839   */\n      dup3\n        /* \"#utility.yul\":10829:10886   */\n      mstore\n        /* \"#utility.yul\":10747:10892   */\n      pop\n      pop\n      jump\t// out\n        /* \"#utility.yul\":10898:11651   */\n    tag_47:\n        /* \"#utility.yul\":11122:11126   */\n      0x00\n        /* \"#utility.yul\":11160:11163   */\n      0xa0\n        /* \"#utility.yul\":11149:11158   */\n      dup3\n        /* \"#utility.yul\":11145:11164   */\n      add\n        /* \"#utility.yul\":11137:11164   */\n      swap1\n      pop\n        /* \"#utility.yul\":11174:11245   */\n      tag_296\n        /* \"#utility.yul\":11242:11243   */\n      0x00\n        /* \"#utility.yul\":11231:11240   */\n      dup4\n        /* \"#utility.yul\":11227:11244   */\n      add\n        /* \"#utility.yul\":11218:11224   */\n      dup9\n        /* \"#utility.yul\":11174:11245   */\n      tag_142\n      jump\t// in\n    tag_296:\n        /* \"#utility.yul\":11292:11301   */\n      dup2\n        /* \"#utility.yul\":11286:11290   */\n      dup2\n        /* \"#utility.yul\":11282:11302   */\n      sub\n        /* \"#utility.yul\":11277:11279   */\n      0x20\n        /* \"#utility.yul\":11266:11275   */\n      dup4\n        /* \"#utility.yul\":11262:11280   */\n      add\n        /* \"#utility.yul\":11255:11303   */\n      mstore\n        /* \"#utility.yul\":11320:11396   */\n      tag_297\n        /* \"#utility.yul\":11391:11395   */\n      dup2\n        /* \"#utility.yul\":11382:11388   */\n      dup8\n        /* \"#utility.yul\":11320:11396   */\n      tag_144\n      jump\t// in\n    tag_297:\n        /* \"#utility.yul\":11312:11396   */\n      swap1\n      pop\n        /* \"#utility.yul\":11406:11478   */\n      tag_298\n        /* \"#utility.yul\":11474:11476   */\n      0x40\n        /* \"#utility.yul\":11463:11472   */\n      dup4\n        /* \"#utility.yul\":11459:11477   */\n      add\n        /* \"#utility.yul\":11450:11456   */\n      dup7\n        /* \"#utility.yul\":11406:11478   */\n      tag_145\n      jump\t// in\n    tag_298:\n        /* \"#utility.yul\":11488:11554   */\n      tag_299\n        /* \"#utility.yul\":11550:11552   */\n      0x60\n        /* \"#utility.yul\":11539:11548   */\n      dup4\n        /* \"#utility.yul\":11535:11553   */\n      add\n        /* \"#utility.yul\":11526:11532   */\n      dup6\n        /* \"#utility.yul\":11488:11554   */\n      tag_139\n      jump\t// in\n    tag_299:\n        /* \"#utility.yul\":11564:11644   */\n      tag_300\n        /* \"#utility.yul\":11639:11642   */\n      0x80\n        /* \"#utility.yul\":11628:11637   */\n      dup4\n        /* \"#utility.yul\":11624:11643   */\n      add\n        /* \"#utility.yul\":11615:11621   */\n      dup5\n        /* \"#utility.yul\":11564:11644   */\n      tag_146\n      jump\t// in\n    tag_300:\n        /* \"#utility.yul\":10898:11651   */\n      swap7\n      swap6\n      pop\n      pop\n      pop\n      pop\n      pop\n      pop\n      jump\t// out\n        /* \"#utility.yul\":11657:11826   */\n    tag_147:\n        /* \"#utility.yul\":11741:11752   */\n      0x00\n        /* \"#utility.yul\":11775:11781   */\n      dup3\n        /* \"#utility.yul\":11770:11773   */\n      dup3\n        /* \"#utility.yul\":11763:11782   */\n      mstore\n        /* \"#utility.yul\":11815:11819   */\n      0x20\n        /* \"#utility.yul\":11810:11813   */\n      dup3\n        /* \"#utility.yul\":11806:11820   */\n      add\n        /* \"#utility.yul\":11791:11820   */\n      swap1\n      pop\n        /* \"#utility.yul\":11657:11826   */\n      swap3\n      swap2\n      pop\n      pop\n      jump\t// out\n        /* \"#utility.yul\":11832:11998   */\n    tag_148:\n        /* \"#utility.yul\":11972:11990   */\n      0x4e6f742079657420417373657274656400000000000000000000000000000000\n        /* \"#utility.yul\":11968:11969   */\n      0x00\n        /* \"#utility.yul\":11960:11966   */\n      dup3\n        /* \"#utility.yul\":11956:11970   */\n      add\n        /* \"#utility.yul\":11949:11991   */\n      mstore\n        /* \"#utility.yul\":11832:11998   */\n      pop\n      jump\t// out\n        /* \"#utility.yul\":12004:12370   */\n    tag_149:\n        /* \"#utility.yul\":12146:12149   */\n      0x00\n        /* \"#utility.yul\":12167:12234   */\n      tag_304\n        /* \"#utility.yul\":12231:12233   */\n      0x10\n        /* \"#utility.yul\":12226:12229   */\n      dup4\n        /* \"#utility.yul\":12167:12234   */\n      tag_147\n      jump\t// in\n    tag_304:\n        /* \"#utility.yul\":12160:12234   */\n      swap2\n      pop\n        /* \"#utility.yul\":12243:12336   */\n      tag_305\n        /* \"#utility.yul\":12332:12335   */\n      dup3\n        /* \"#utility.yul\":12243:12336   */\n      tag_148\n      jump\t// in\n    tag_305:\n        /* \"#utility.yul\":12361:12363   */\n      0x20\n        /* \"#utility.yul\":12356:12359   */\n      dup3\n        /* \"#utility.yul\":12352:12364   */\n      add\n        /* \"#utility.yul\":12345:12364   */\n      swap1\n      pop\n        /* \"#utility.yul\":12004:12370   */\n      swap2\n      swap1\n      pop\n      jump\t// out\n        /* \"#utility.yul\":12376:12795   */\n    tag_56:\n        /* \"#utility.yul\":12542:12546   */\n      0x00\n        /* \"#utility.yul\":12580:12582   */\n      0x20\n        /* \"#utility.yul\":12569:12578   */\n      dup3\n        /* \"#utility.yul\":12565:12583   */\n      add\n        /* \"#utility.yul\":12557:12583   */\n      swap1\n      pop\n        /* \"#utility.yul\":12629:12638   */\n      dup2\n        /* \"#utility.yul\":12623:12627   */\n      dup2\n        /* \"#utility.yul\":12619:12639   */\n      sub\n        /* \"#utility.yul\":12615:12616   */\n      0x00\n        /* \"#utility.yul\":12604:12613   */\n      dup4\n        /* \"#utility.yul\":12600:12617   */\n      add\n        /* \"#utility.yul\":12593:12640   */\n      mstore\n        /* \"#utility.yul\":12657:12788   */\n      tag_307\n        /* \"#utility.yul\":12783:12787   */\n      dup2\n        /* \"#utility.yul\":12657:12788   */\n      tag_149\n      jump\t// in\n    tag_307:\n        /* \"#utility.yul\":12649:12788   */\n      swap1\n      pop\n        /* \"#utility.yul\":12376:12795   */\n      swap2\n      swap1\n      pop\n      jump\t// out\n        /* \"#utility.yul\":12801:13133   */\n    tag_60:\n        /* \"#utility.yul\":12922:12926   */\n      0x00\n        /* \"#utility.yul\":12960:12962   */\n      0x40\n        /* \"#utility.yul\":12949:12958   */\n      dup3\n        /* \"#utility.yul\":12945:12963   */\n      add\n        /* \"#utility.yul\":12937:12963   */\n      swap1\n      pop\n        /* \"#utility.yul\":12973:13044   */\n      tag_309\n        /* \"#utility.yul\":13041:13042   */\n      0x00\n        /* \"#utility.yul\":13030:13039   */\n      dup4\n        /* \"#utility.yul\":13026:13043   */\n      add\n        /* \"#utility.yul\":13017:13023   */\n      dup6\n        /* \"#utility.yul\":12973:13044   */\n      tag_136\n      jump\t// in\n    tag_309:\n        /* \"#utility.yul\":13054:13126   */\n      tag_310\n        /* \"#utility.yul\":13122:13124   */\n      0x20\n        /* \"#utility.yul\":13111:13120   */\n      dup4\n        /* \"#utility.yul\":13107:13125   */\n      add\n        /* \"#utility.yul\":13098:13104   */\n      dup5\n        /* \"#utility.yul\":13054:13126   */\n      tag_136\n      jump\t// in\n    tag_310:\n        /* \"#utility.yul\":12801:13133   */\n      swap4\n      swap3\n      pop\n      pop\n      pop\n      jump\t// out\n        /* \"#utility.yul\":13139:13319   */\n    tag_150:\n        /* \"#utility.yul\":13187:13264   */\n      0x4e487b7100000000000000000000000000000000000000000000000000000000\n        /* \"#utility.yul\":13184:13185   */\n      0x00\n        /* \"#utility.yul\":13177:13265   */\n      mstore\n        /* \"#utility.yul\":13284:13288   */\n      0x22\n        /* \"#utility.yul\":13281:13282   */\n      0x04\n        /* \"#utility.yul\":13274:13289   */\n      mstore\n        /* \"#utility.yul\":13308:13312   */\n      0x24\n        /* \"#utility.yul\":13305:13306   */\n      0x00\n        /* \"#utility.yul\":13298:13313   */\n      revert\n        /* \"#utility.yul\":13325:13645   */\n    tag_65:\n        /* \"#utility.yul\":13369:13375   */\n      0x00\n        /* \"#utility.yul\":13406:13407   */\n      0x02\n        /* \"#utility.yul\":13400:13404   */\n      dup3\n        /* \"#utility.yul\":13396:13408   */\n      div\n        /* \"#utility.yul\":13386:13408   */\n      swap1\n      pop\n        /* \"#utility.yul\":13453:13454   */\n      0x01\n        /* \"#utility.yul\":13447:13451   */\n      dup3\n        /* \"#utility.yul\":13443:13455   */\n      and\n        /* \"#utility.yul\":13474:13492   */\n      dup1\n        /* \"#utility.yul\":13464:13545   */\n      tag_313\n      jumpi\n        /* \"#utility.yul\":13530:13534   */\n      0x7f\n        /* \"#utility.yul\":13522:13528   */\n      dup3\n        /* \"#utility.yul\":13518:13535   */\n      and\n        /* \"#utility.yul\":13508:13535   */\n      swap2\n      pop\n        /* \"#utility.yul\":13464:13545   */\n    tag_313:\n        /* \"#utility.yul\":13592:13594   */\n      0x20\n        /* \"#utility.yul\":13584:13590   */\n      dup3\n        /* \"#utility.yul\":13581:13595   */\n      lt\n        /* \"#utility.yul\":13561:13579   */\n      dup2\n        /* \"#utility.yul\":13558:13596   */\n      sub\n        /* \"#utility.yul\":13555:13639   */\n      tag_314\n      jumpi\n        /* \"#utility.yul\":13611:13629   */\n      tag_315\n      tag_150\n      jump\t// in\n    tag_315:\n        /* \"#utility.yul\":13555:13639   */\n    tag_314:\n        /* \"#utility.yul\":13376:13645   */\n      pop\n        /* \"#utility.yul\":13325:13645   */\n      swap2\n      swap1\n      pop\n      jump\t// out\n        /* \"#utility.yul\":13651:13791   */\n    tag_151:\n        /* \"#utility.yul\":13699:13703   */\n      0x00\n        /* \"#utility.yul\":13722:13725   */\n      dup2\n        /* \"#utility.yul\":13714:13725   */\n      swap1\n      pop\n        /* \"#utility.yul\":13745:13748   */\n      dup2\n        /* \"#utility.yul\":13742:13743   */\n      0x00\n        /* \"#utility.yul\":13735:13749   */\n      mstore\n        /* \"#utility.yul\":13779:13783   */\n      0x20\n        /* \"#utility.yul\":13776:13777   */\n      0x00\n        /* \"#utility.yul\":13766:13784   */\n      keccak256\n        /* \"#utility.yul\":13758:13784   */\n      swap1\n      pop\n        /* \"#utility.yul\":13651:13791   */\n      swap2\n      swap1\n      pop\n      jump\t// out\n        /* \"#utility.yul\":13797:13890   */\n    tag_152:\n        /* \"#utility.yul\":13834:13840   */\n      0x00\n        /* \"#utility.yul\":13881:13883   */\n      0x20\n        /* \"#utility.yul\":13876:13878   */\n      0x1f\n        /* \"#utility.yul\":13869:13874   */\n      dup4\n        /* \"#utility.yul\":13865:13879   */\n      add\n        /* \"#utility.yul\":13861:13884   */\n      div\n        /* \"#utility.yul\":13851:13884   */\n      swap1\n      pop\n        /* \"#utility.yul\":13797:13890   */\n      swap2\n      swap1\n      pop\n      jump\t// out\n        /* \"#utility.yul\":13896:14003   */\n    tag_153:\n        /* \"#utility.yul\":13940:13948   */\n      0x00\n        /* \"#utility.yul\":13990:13995   */\n      dup3\n        /* \"#utility.yul\":13984:13988   */\n      dup3\n        /* \"#utility.yul\":13980:13996   */\n      shl\n        /* \"#utility.yul\":13959:13996   */\n      swap1\n      pop\n        /* \"#utility.yul\":13896:14003   */\n      swap3\n      swap2\n      pop\n      pop\n      jump\t// out\n        /* \"#utility.yul\":14009:14402   */\n    tag_154:\n        /* \"#utility.yul\":14078:14084   */\n      0x00\n        /* \"#utility.yul\":14128:14129   */\n      0x08\n        /* \"#utility.yul\":14116:14126   */\n      dup4\n        /* \"#utility.yul\":14112:14130   */\n      mul\n        /* \"#utility.yul\":14151:14248   */\n      tag_320\n        /* \"#utility.yul\":14181:14247   */\n      0xffffffffffffffffffffffffffffffffffffffffffffffffffffffffffffffff\n        /* \"#utility.yul\":14170:14179   */\n      dup3\n        /* \"#utility.yul\":14151:14248   */\n      tag_153\n      jump\t// in\n    tag_320:\n        /* \"#utility.yul\":14269:14308   */\n      tag_321\n        /* \"#utility.yul\":14299:14307   */\n      dup7\n        /* \"#utility.yul\":14288:14297   */\n      dup4\n        /* \"#utility.yul\":14269:14308   */\n      tag_153\n      jump\t// in\n    tag_321:\n        /* \"#utility.yul\":14257:14308   */\n      swap6\n      pop\n        /* \"#utility.yul\":14341:14345   */\n      dup1\n        /* \"#utility.yul\":14337:14346   */\n      not\n        /* \"#utility.yul\":14330:14335   */\n      dup5\n        /* \"#utility.yul\":14326:14347   */\n      and\n        /* \"#utility.yul\":14317:14347   */\n      swap4\n      pop\n        /* \"#utility.yul\":14390:14394   */\n      dup1\n        /* \"#utility.yul\":14380:14388   */\n      dup7\n        /* \"#utility.yul\":14376:14395   */\n      and\n        /* \"#utility.yul\":14369:14374   */\n      dup5\n        /* \"#utility.yul\":14366:14396   */\n      or\n        /* \"#utility.yul\":14356:14396   */\n      swap3\n      pop\n        /* \"#utility.yul\":14085:14402   */\n      pop\n      pop\n        /* \"#utility.yul\":14009:14402   */\n      swap4\n      swap3\n      pop\n      pop\n      pop\n      jump\t// out\n        /* \"#utility.yul\":14408:14468   */\n    tag_155:\n        /* \"#utility.yul\":14436:14439   */\n      0x00\n        /* \"#utility.yul\":14457:14462   */\n      dup2\n        /* \"#utility.yul\":14450:14462   */\n      swap1\n      pop\n        /* \"#utility.yul\":14408:14468   */\n      swap2\n      swap1\n      pop\n      jump\t// out\n        /* \"#utility.yul\":14474:14616   */\n    tag_156:\n        /* \"#utility.yul\":14524:14533   */\n      0x00\n        /* \"#utility.yul\":14557:14610   */\n      tag_324\n        /* \"#utility.yul\":14575:14609   */\n      tag_325\n        /* \"#utility.yul\":14584:14608   */\n      tag_326\n        /* \"#utility.yul\":14602:14607   */\n      dup5\n        /* \"#utility.yul\":14584:14608   */\n      tag_107\n      jump\t// in\n    tag_326:\n        /* \"#utility.yul\":14575:14609   */\n      tag_155\n      jump\t// in\n    tag_325:\n        /* \"#utility.yul\":14557:14610   */\n      tag_107\n      jump\t// in\n    tag_324:\n        /* \"#utility.yul\":14544:14610   */\n      swap1\n      pop\n        /* \"#utility.yul\":14474:14616   */\n      swap2\n      swap1\n      pop\n      jump\t// out\n        /* \"#utility.yul\":14622:14697   */\n    tag_157:\n        /* \"#utility.yul\":14665:14668   */\n      0x00\n        /* \"#utility.yul\":14686:14691   */\n      dup2\n        /* \"#utility.yul\":14679:14691   */\n      swap1\n      pop\n        /* \"#utility.yul\":14622:14697   */\n      swap2\n      swap1\n      pop\n      jump\t// out\n        /* \"#utility.yul\":14703:14972   */\n    tag_158:\n        /* \"#utility.yul\":14813:14852   */\n      tag_329\n        /* \"#utility.yul\":14844:14851   */\n      dup4\n        /* \"#utility.yul\":14813:14852   */\n      tag_156\n      jump\t// in\n    tag_329:\n        /* \"#utility.yul\":14874:14965   */\n      tag_330\n        /* \"#utility.yul\":14923:14964   */\n      tag_331\n        /* \"#utility.yul\":14947:14963   */\n      dup3\n        /* \"#utility.yul\":14923:14964   */\n      tag_157\n      jump\t// in\n    tag_331:\n        /* \"#utility.yul\":14915:14921   */\n      dup5\n        /* \"#utility.yul\":14908:14912   */\n      dup5\n        /* \"#utility.yul\":14902:14913   */\n      sload\n        /* \"#utility.yul\":14874:14965   */\n      tag_154\n      jump\t// in\n    tag_330:\n        /* \"#utility.yul\":14868:14872   */\n      dup3\n        /* \"#utility.yul\":14861:14966   */\n      sstore\n        /* \"#utility.yul\":14779:14972   */\n      pop\n        /* \"#utility.yul\":14703:14972   */\n      pop\n      pop\n      pop\n      jump\t// out\n        /* \"#utility.yul\":14978:15051   */\n    tag_159:\n        /* \"#utility.yul\":15023:15026   */\n      0x00\n        /* \"#utility.yul\":14978:15051   */\n      swap1\n      jump\t// out\n        /* \"#utility.yul\":15057:15246   */\n    tag_160:\n        /* \"#utility.yul\":15134:15166   */\n      tag_334\n      tag_159\n      jump\t// in\n    tag_334:\n        /* \"#utility.yul\":15175:15240   */\n      tag_335\n        /* \"#utility.yul\":15233:15239   */\n      dup2\n        /* \"#utility.yul\":15225:15231   */\n      dup5\n        /* \"#utility.yul\":15219:15223   */\n      dup5\n        /* \"#utility.yul\":15175:15240   */\n      tag_158\n      jump\t// in\n    tag_335:\n        /* \"#utility.yul\":15110:15246   */\n      pop\n        /* \"#utility.yul\":15057:15246   */\n      pop\n      pop\n      jump\t// out\n        /* \"#utility.yul\":15252:15438   */\n    tag_161:\n        /* \"#utility.yul\":15312:15432   */\n    tag_337:\n        /* \"#utility.yul\":15329:15332   */\n      dup2\n        /* \"#utility.yul\":15322:15327   */\n      dup2\n        /* \"#utility.yul\":15319:15333   */\n      lt\n        /* \"#utility.yul\":15312:15432   */\n      iszero\n      tag_339\n      jumpi\n        /* \"#utility.yul\":15383:15422   */\n      tag_340\n        /* \"#utility.yul\":15420:15421   */\n      0x00\n        /* \"#utility.yul\":15413:15418   */\n      dup3\n        /* \"#utility.yul\":15383:15422   */\n      tag_160\n      jump\t// in\n    tag_340:\n        /* \"#utility.yul\":15356:15357   */\n      0x01\n        /* \"#utility.yul\":15349:15354   */\n      dup2\n        /* \"#utility.yul\":15345:15358   */\n      add\n        /* \"#utility.yul\":15336:15358   */\n      swap1\n      pop\n        /* \"#utility.yul\":15312:15432   */\n      jump(tag_337)\n    tag_339:\n        /* \"#utility.yul\":15252:15438   */\n      pop\n      pop\n      jump\t// out\n        /* \"#utility.yul\":15444:15985   */\n    tag_162:\n        /* \"#utility.yul\":15544:15546   */\n      0x1f\n        /* \"#utility.yul\":15539:15542   */\n      dup3\n        /* \"#utility.yul\":15536:15547   */\n      gt\n        /* \"#utility.yul\":15533:15978   */\n      iszero\n      tag_342\n      jumpi\n        /* \"#utility.yul\":15578:15615   */\n      tag_343\n        /* \"#utility.yul\":15609:15614   */\n      dup2\n        /* \"#utility.yul\":15578:15615   */\n      tag_151\n      jump\t// in\n    tag_343:\n        /* \"#utility.yul\":15661:15690   */\n      tag_344\n        /* \"#utility.yul\":15679:15689   */\n      dup5\n        /* \"#utility.yul\":15661:15690   */\n      tag_152\n      jump\t// in\n    tag_344:\n        /* \"#utility.yul\":15651:15659   */\n      dup2\n        /* \"#utility.yul\":15647:15691   */\n      add\n        /* \"#utility.yul\":15844:15846   */\n      0x20\n        /* \"#utility.yul\":15832:15842   */\n      dup6\n        /* \"#utility.yul\":15829:15847   */\n      lt\n        /* \"#utility.yul\":15826:15875   */\n      iszero\n      tag_345\n      jumpi\n        /* \"#utility.yul\":15865:15873   */\n      dup2\n        /* \"#utility.yul\":15850:15873   */\n      swap1\n      pop\n        /* \"#utility.yul\":15826:15875   */\n    tag_345:\n        /* \"#utility.yul\":15888:15968   */\n      tag_346\n        /* \"#utility.yul\":15944:15966   */\n      tag_347\n        /* \"#utility.yul\":15962:15965   */\n      dup6\n        /* \"#utility.yul\":15944:15966   */\n      tag_152\n      jump\t// in\n    tag_347:\n        /* \"#utility.yul\":15934:15942   */\n      dup4\n        /* \"#utility.yul\":15930:15967   */\n      add\n        /* \"#utility.yul\":15917:15928   */\n      dup3\n        /* \"#utility.yul\":15888:15968   */\n      tag_161\n      jump\t// in\n    tag_346:\n        /* \"#utility.yul\":15548:15978   */\n      pop\n      pop\n        /* \"#utility.yul\":15533:15978   */\n    tag_342:\n        /* \"#utility.yul\":15444:15985   */\n      pop\n      pop\n      pop\n      jump\t// out\n        /* \"#utility.yul\":15991:16108   */\n    tag_163:\n        /* \"#utility.yul\":16045:16053   */\n      0x00\n        /* \"#utility.yul\":16095:16100   */\n      dup3\n        /* \"#utility.yul\":16089:16093   */\n      dup3\n        /* \"#utility.yul\":16085:16101   */\n      shr\n        /* \"#utility.yul\":16064:16101   */\n      swap1\n      pop\n        /* \"#utility.yul\":15991:16108   */\n      swap3\n      swap2\n      pop\n      pop\n      jump\t// out\n        /* \"#utility.yul\":16114:16283   */\n    tag_164:\n        /* \"#utility.yul\":16158:16164   */\n      0x00\n        /* \"#utility.yul\":16191:16242   */\n      tag_350\n        /* \"#utility.yul\":16239:16240   */\n      0x00\n        /* \"#utility.yul\":16235:16241   */\n      not\n        /* \"#utility.yul\":16227:16232   */\n      dup5\n        /* \"#utility.yul\":16224:16225   */\n      0x08\n        /* \"#utility.yul\":16220:16233   */\n      mul\n        /* \"#utility.yul\":16191:16242   */\n      tag_163\n      jump\t// in\n    tag_350:\n        /* \"#utility.yul\":16187:16243   */\n      not\n        /* \"#utility.yul\":16272:16276   */\n      dup1\n        /* \"#utility.yul\":16266:16270   */\n      dup4\n        /* \"#utility.yul\":16262:16277   */\n      and\n        /* \"#utility.yul\":16252:16277   */\n      swap2\n      pop\n        /* \"#utility.yul\":16165:16283   */\n      pop\n        /* \"#utility.yul\":16114:16283   */\n      swap3\n      swap2\n      pop\n      pop\n      jump\t// out\n        /* \"#utility.yul\":16288:16583   */\n    tag_165:\n        /* \"#utility.yul\":16364:16368   */\n      0x00\n        /* \"#utility.yul\":16510:16539   */\n      tag_352\n        /* \"#utility.yul\":16535:16538   */\n      dup4\n        /* \"#utility.yul\":16529:16533   */\n      dup4\n        /* \"#utility.yul\":16510:16539   */\n      tag_164\n      jump\t// in\n    tag_352:\n        /* \"#utility.yul\":16502:16539   */\n      swap2\n      pop\n        /* \"#utility.yul\":16572:16575   */\n      dup3\n        /* \"#utility.yul\":16569:16570   */\n      0x02\n        /* \"#utility.yul\":16565:16576   */\n      mul\n        /* \"#utility.yul\":16559:16563   */\n      dup3\n        /* \"#utility.yul\":16556:16577   */\n      or\n        /* \"#utility.yul\":16548:16577   */\n      swap1\n      pop\n        /* \"#utility.yul\":16288:16583   */\n      swap3\n      swap2\n      pop\n      pop\n      jump\t// out\n        /* \"#utility.yul\":16588:17978   */\n    tag_78:\n        /* \"#utility.yul\":16703:16739   */\n      tag_354\n        /* \"#utility.yul\":16735:16738   */\n      dup3\n        /* \"#utility.yul\":16703:16739   */\n      tag_112\n      jump\t// in\n    tag_354:\n        /* \"#utility.yul\":16804:16822   */\n      0xffffffffffffffff\n        /* \"#utility.yul\":16796:16802   */\n      dup2\n        /* \"#utility.yul\":16793:16823   */\n      gt\n        /* \"#utility.yul\":16790:16846   */\n      iszero\n      tag_355\n      jumpi\n        /* \"#utility.yul\":16826:16844   */\n      tag_356\n      tag_129\n      jump\t// in\n    tag_356:\n        /* \"#utility.yul\":16790:16846   */\n    tag_355:\n        /* \"#utility.yul\":16870:16908   */\n      tag_357\n        /* \"#utility.yul\":16902:16906   */\n      dup3\n        /* \"#utility.yul\":16896:16907   */\n      sload\n        /* \"#utility.yul\":16870:16908   */\n      tag_65\n      jump\t// in\n    tag_357:\n        /* \"#utility.yul\":16955:17021   */\n      tag_358\n        /* \"#utility.yul\":17014:17020   */\n      dup3\n        /* \"#utility.yul\":17006:17012   */\n      dup3\n        /* \"#utility.yul\":17000:17004   */\n      dup6\n        /* \"#utility.yul\":16955:17021   */\n      tag_162\n      jump\t// in\n    tag_358:\n        /* \"#utility.yul\":17048:17049   */\n      0x00\n        /* \"#utility.yul\":17072:17076   */\n      0x20\n        /* \"#utility.yul\":17059:17076   */\n      swap1\n      pop\n        /* \"#utility.yul\":17104:17106   */\n      0x1f\n        /* \"#utility.yul\":17096:17102   */\n      dup4\n        /* \"#utility.yul\":17093:17107   */\n      gt\n        /* \"#utility.yul\":17121:17122   */\n      0x01\n        /* \"#utility.yul\":17116:17733   */\n      dup2\n      eq\n      tag_360\n      jumpi\n        /* \"#utility.yul\":17777:17778   */\n      0x00\n        /* \"#utility.yul\":17794:17800   */\n      dup5\n        /* \"#utility.yul\":17791:17868   */\n      iszero\n      tag_361\n      jumpi\n        /* \"#utility.yul\":17843:17852   */\n      dup3\n        /* \"#utility.yul\":17838:17841   */\n      dup8\n        /* \"#utility.yul\":17834:17853   */\n      add\n        /* \"#utility.yul\":17828:17854   */\n      mload\n        /* \"#utility.yul\":17819:17854   */\n      swap1\n      pop\n        /* \"#utility.yul\":17791:17868   */\n    tag_361:\n        /* \"#utility.yul\":17894:17961   */\n      tag_362\n        /* \"#utility.yul\":17954:17960   */\n      dup6\n        /* \"#utility.yul\":17947:17952   */\n      dup3\n        /* \"#utility.yul\":17894:17961   */\n      tag_165\n      jump\t// in\n    tag_362:\n        /* \"#utility.yul\":17888:17892   */\n      dup7\n        /* \"#utility.yul\":17881:17962   */\n      sstore\n        /* \"#utility.yul\":17750:17972   */\n      pop\n        /* \"#utility.yul\":17086:17972   */\n      jump(tag_359)\n        /* \"#utility.yul\":17116:17733   */\n    tag_360:\n        /* \"#utility.yul\":17168:17172   */\n      0x1f\n        /* \"#utility.yul\":17164:17173   */\n      not\n        /* \"#utility.yul\":17156:17162   */\n      dup5\n        /* \"#utility.yul\":17152:17174   */\n      and\n        /* \"#utility.yul\":17202:17238   */\n      tag_363\n        /* \"#utility.yul\":17233:17237   */\n      dup7\n        /* \"#utility.yul\":17202:17238   */\n      tag_151\n      jump\t// in\n    tag_363:\n        /* \"#utility.yul\":17260:17261   */\n      0x00\n        /* \"#utility.yul\":17274:17482   */\n    tag_364:\n        /* \"#utility.yul\":17288:17295   */\n      dup3\n        /* \"#utility.yul\":17285:17286   */\n      dup2\n        /* \"#utility.yul\":17282:17296   */\n      lt\n        /* \"#utility.yul\":17274:17482   */\n      iszero\n      tag_366\n      jumpi\n        /* \"#utility.yul\":17367:17376   */\n      dup5\n        /* \"#utility.yul\":17362:17365   */\n      dup10\n        /* \"#utility.yul\":17358:17377   */\n      add\n        /* \"#utility.yul\":17352:17378   */\n      mload\n        /* \"#utility.yul\":17344:17350   */\n      dup3\n        /* \"#utility.yul\":17337:17379   */\n      sstore\n        /* \"#utility.yul\":17418:17419   */\n      0x01\n        /* \"#utility.yul\":17410:17416   */\n      dup3\n        /* \"#utility.yul\":17406:17420   */\n      add\n        /* \"#utility.yul\":17396:17420   */\n      swap2\n      pop\n        /* \"#utility.yul\":17465:17467   */\n      0x20\n        /* \"#utility.yul\":17454:17463   */\n      dup6\n        /* \"#utility.yul\":17450:17468   */\n      add\n        /* \"#utility.yul\":17437:17468   */\n      swap5\n      pop\n        /* \"#utility.yul\":17311:17315   */\n      0x20\n        /* \"#utility.yul\":17308:17309   */\n      dup2\n        /* \"#utility.yul\":17304:17316   */\n      add\n        /* \"#utility.yul\":17299:17316   */\n      swap1\n      pop\n        /* \"#utility.yul\":17274:17482   */\n      jump(tag_364)\n    tag_366:\n        /* \"#utility.yul\":17510:17516   */\n      dup7\n        /* \"#utility.yul\":17501:17508   */\n      dup4\n        /* \"#utility.yul\":17498:17517   */\n      lt\n        /* \"#utility.yul\":17495:17674   */\n      iszero\n      tag_367\n      jumpi\n        /* \"#utility.yul\":17568:17577   */\n      dup5\n        /* \"#utility.yul\":17563:17566   */\n      dup10\n        /* \"#utility.yul\":17559:17578   */\n      add\n        /* \"#utility.yul\":17553:17579   */\n      mload\n        /* \"#utility.yul\":17611:17659   */\n      tag_368\n        /* \"#utility.yul\":17653:17657   */\n      0x1f\n        /* \"#utility.yul\":17645:17651   */\n      dup10\n        /* \"#utility.yul\":17641:17658   */\n      and\n        /* \"#utility.yul\":17630:17639   */\n      dup3\n        /* \"#utility.yul\":17611:17659   */\n      tag_164\n      jump\t// in\n    tag_368:\n        /* \"#utility.yul\":17603:17609   */\n      dup4\n        /* \"#utility.yul\":17596:17660   */\n      sstore\n        /* \"#utility.yul\":17518:17674   */\n      pop\n        /* \"#utility.yul\":17495:17674   */\n    tag_367:\n        /* \"#utility.yul\":17720:17721   */\n      0x01\n        /* \"#utility.yul\":17716:17717   */\n      0x02\n        /* \"#utility.yul\":17708:17714   */\n      dup9\n        /* \"#utility.yul\":17704:17718   */\n      mul\n        /* \"#utility.yul\":17700:17722   */\n      add\n        /* \"#utility.yul\":17694:17698   */\n      dup9\n        /* \"#utility.yul\":17687:17723   */\n      sstore\n        /* \"#utility.yul\":17123:17733   */\n      pop\n      pop\n      pop\n        /* \"#utility.yul\":17086:17972   */\n    tag_359:\n      pop\n        /* \"#utility.yul\":16678:17978   */\n      pop\n      pop\n      pop\n        /* \"#utility.yul\":16588:17978   */\n      pop\n      pop\n      jump\t// out\n        /* \"#utility.yul\":17984:18164   */\n    tag_166:\n        /* \"#utility.yul\":18032:18109   */\n      0x4e487b7100000000000000000000000000000000000000000000000000000000\n        /* \"#utility.yul\":18029:18030   */\n      0x00\n        /* \"#utility.yul\":18022:18110   */\n      mstore\n        /* \"#utility.yul\":18129:18133   */\n      0x11\n        /* \"#utility.yul\":18126:18127   */\n      0x04\n        /* \"#utility.yul\":18119:18134   */\n      mstore\n        /* \"#utility.yul\":18153:18157   */\n      0x24\n        /* \"#utility.yul\":18150:18151   */\n      0x00\n        /* \"#utility.yul\":18143:18158   */\n      revert\n        /* \"#utility.yul\":18170:18361   */\n    tag_82:\n        /* \"#utility.yul\":18210:18213   */\n      0x00\n        /* \"#utility.yul\":18229:18249   */\n      tag_371\n        /* \"#utility.yul\":18247:18248   */\n      dup3\n        /* \"#utility.yul\":18229:18249   */\n      tag_107\n      jump\t// in\n    tag_371:\n        /* \"#utility.yul\":18224:18249   */\n      swap2\n      pop\n        /* \"#utility.yul\":18263:18283   */\n      tag_372\n        /* \"#utility.yul\":18281:18282   */\n      dup4\n        /* \"#utility.yul\":18263:18283   */\n      tag_107\n      jump\t// in\n    tag_372:\n        /* \"#utility.yul\":18258:18283   */\n      swap3\n      pop\n        /* \"#utility.yul\":18306:18307   */\n      dup3\n        /* \"#utility.yul\":18303:18304   */\n      dup3\n        /* \"#utility.yul\":18299:18308   */\n      add\n        /* \"#utility.yul\":18292:18308   */\n      swap1\n      pop\n        /* \"#utility.yul\":18327:18330   */\n      dup1\n        /* \"#utility.yul\":18324:18325   */\n      dup3\n        /* \"#utility.yul\":18321:18331   */\n      gt\n        /* \"#utility.yul\":18318:18354   */\n      iszero\n      tag_373\n      jumpi\n        /* \"#utility.yul\":18334:18352   */\n      tag_374\n      tag_166\n      jump\t// in\n    tag_374:\n        /* \"#utility.yul\":18318:18354   */\n    tag_373:\n        /* \"#utility.yul\":18170:18361   */\n      swap3\n      swap2\n      pop\n      pop\n      jump\t// out\n        /* \"#utility.yul\":18367:19007   */\n    tag_84:\n        /* \"#utility.yul\":18562:18566   */\n      0x00\n        /* \"#utility.yul\":18600:18603   */\n      0x80\n        /* \"#utility.yul\":18589:18598   */\n      dup3\n        /* \"#utility.yul\":18585:18604   */\n      add\n        /* \"#utility.yul\":18577:18604   */\n      swap1\n      pop\n        /* \"#utility.yul\":18614:18685   */\n      tag_376\n        /* \"#utility.yul\":18682:18683   */\n      0x00\n        /* \"#utility.yul\":18671:18680   */\n      dup4\n        /* \"#utility.yul\":18667:18684   */\n      add\n        /* \"#utility.yul\":18658:18664   */\n      dup8\n        /* \"#utility.yul\":18614:18685   */\n      tag_136\n      jump\t// in\n    tag_376:\n        /* \"#utility.yul\":18695:18767   */\n      tag_377\n        /* \"#utility.yul\":18763:18765   */\n      0x20\n        /* \"#utility.yul\":18752:18761   */\n      dup4\n        /* \"#utility.yul\":18748:18766   */\n      add\n        /* \"#utility.yul\":18739:18745   */\n      dup7\n        /* \"#utility.yul\":18695:18767   */\n      tag_145\n      jump\t// in\n    tag_377:\n        /* \"#utility.yul\":18814:18823   */\n      dup2\n        /* \"#utility.yul\":18808:18812   */\n      dup2\n        /* \"#utility.yul\":18804:18824   */\n      sub\n        /* \"#utility.yul\":18799:18801   */\n      0x40\n        /* \"#utility.yul\":18788:18797   */\n      dup4\n        /* \"#utility.yul\":18784:18802   */\n      add\n        /* \"#utility.yul\":18777:18825   */\n      mstore\n        /* \"#utility.yul\":18842:18918   */\n      tag_378\n        /* \"#utility.yul\":18913:18917   */\n      dup2\n        /* \"#utility.yul\":18904:18910   */\n      dup6\n        /* \"#utility.yul\":18842:18918   */\n      tag_144\n      jump\t// in\n    tag_378:\n        /* \"#utility.yul\":18834:18918   */\n      swap1\n      pop\n        /* \"#utility.yul\":18928:19000   */\n      tag_379\n        /* \"#utility.yul\":18996:18998   */\n      0x60\n        /* \"#utility.yul\":18985:18994   */\n      dup4\n        /* \"#utility.yul\":18981:18999   */\n      add\n        /* \"#utility.yul\":18972:18978   */\n      dup5\n        /* \"#utility.yul\":18928:19000   */\n      tag_136\n      jump\t// in\n    tag_379:\n        /* \"#utility.yul\":18367:19007   */\n      swap6\n      swap5\n      pop\n      pop\n      pop\n      pop\n      pop\n      jump\t// out\n        /* \"#utility.yul\":19013:19180   */\n    tag_167:\n        /* \"#utility.yul\":19153:19172   */\n      0x4e6f742079657420726571756573746564000000000000000000000000000000\n        /* \"#utility.yul\":19149:19150   */\n      0x00\n        /* \"#utility.yul\":19141:19147   */\n      dup3\n        /* \"#utility.yul\":19137:19151   */\n      add\n        /* \"#utility.yul\":19130:19173   */\n      mstore\n        /* \"#utility.yul\":19013:19180   */\n      pop\n      jump\t// out\n        /* \"#utility.yul\":19186:19552   */\n    tag_168:\n        /* \"#utility.yul\":19328:19331   */\n      0x00\n        /* \"#utility.yul\":19349:19416   */\n      tag_382\n        /* \"#utility.yul\":19413:19415   */\n      0x11\n        /* \"#utility.yul\":19408:19411   */\n      dup4\n        /* \"#utility.yul\":19349:19416   */\n      tag_147\n      jump\t// in\n    tag_382:\n        /* \"#utility.yul\":19342:19416   */\n      swap2\n      pop\n        /* \"#utility.yul\":19425:19518   */\n      tag_383\n        /* \"#utility.yul\":19514:19517   */\n      dup3\n        /* \"#utility.yul\":19425:19518   */\n      tag_167\n      jump\t// in\n    tag_383:\n        /* \"#utility.yul\":19543:19545   */\n      0x20\n        /* \"#utility.yul\":19538:19541   */\n      dup3\n        /* \"#utility.yul\":19534:19546   */\n      add\n        /* \"#utility.yul\":19527:19546   */\n      swap1\n      pop\n        /* \"#utility.yul\":19186:19552   */\n      swap2\n      swap1\n      pop\n      jump\t// out\n        /* \"#utility.yul\":19558:19977   */\n    tag_92:\n        /* \"#utility.yul\":19724:19728   */\n      0x00\n        /* \"#utility.yul\":19762:19764   */\n      0x20\n        /* \"#utility.yul\":19751:19760   */\n      dup3\n        /* \"#utility.yul\":19747:19765   */\n      add\n        /* \"#utility.yul\":19739:19765   */\n      swap1\n      pop\n        /* \"#utility.yul\":19811:19820   */\n      dup2\n        /* \"#utility.yul\":19805:19809   */\n      dup2\n        /* \"#utility.yul\":19801:19821   */\n      sub\n        /* \"#utility.yul\":19797:19798   */\n      0x00\n        /* \"#utility.yul\":19786:19795   */\n      dup4\n        /* \"#utility.yul\":19782:19799   */\n      add\n        /* \"#utility.yul\":19775:19822   */\n      mstore\n        /* \"#utility.yul\":19839:19970   */\n      tag_385\n        /* \"#utility.yul\":19965:19969   */\n      dup2\n        /* \"#utility.yul\":19839:19970   */\n      tag_168\n      jump\t// in\n    tag_385:\n        /* \"#utility.yul\":19831:19970   */\n      swap1\n      pop\n        /* \"#utility.yul\":19558:19977   */\n      swap2\n      swap1\n      pop\n      jump\t// out\n\n    auxdata: 0xa2646970667358221220364276d21936afbe3448ef98ca7246b10954828292ce85c206661ad7bbc40bea64736f6c63430008100033\n}\n",
				"bytecode": {
					"linkReferences": {},
					"object": "6080604052600160005534801561001557600080fd5b5061133d806100256000396000f3fe608060405234801561001057600080fd5b50600436106100885760003560e01c8063884e3f431161005b578063884e3f4314610127578063adee9e0014610143578063b1a1589114610173578063bb27bdec1461018f57610088565b806314d82c041461008d5780631d99e167146100a95780632c59e707146100d95780633fbec59b14610109575b600080fd5b6100a760048036038101906100a291906108ac565b6101c3565b005b6100c360048036038101906100be91906108ac565b6102c7565b6040516100d09190610acb565b60405180910390f35b6100f360048036038101906100ee9190610c22565b61043c565b6040516101009190610c7a565b60405180910390f35b6101116105c1565b60405161011e9190610c7a565b60405180910390f35b610141600480360381019061013c9190610cc1565b6105c7565b005b61015d600480360381019061015891906108ac565b6106c2565b60405161016a9190610d10565b60405180910390f35b61018d60048036038101906101889190610d57565b6106ef565b005b6101a960048036038101906101a491906108ac565b61070e565b6040516101ba959493929190610e0e565b60405180910390f35b600060028111156101d7576101d66109de565b5b6001600083815260200190815260200160002060020160159054906101000a900460ff16600281111561020d5761020c6109de565b5b1461024d576040517f08c379a000000000000000000000000000000000000000000000000000000000815260040161024490610ec5565b60405180910390fd5b600180600083815260200190815260200160002060020160156101000a81548160ff02191690836002811115610286576102856109de565b5b02179055507f27eae51a13096bbf91c9ade81b17ef36e6b1785e85ced181d9cd9af19afc4c1681426040516102bc929190610ee5565b60405180910390a150565b6102cf610806565b600160008381526020019081526020016000206040518060a00160405290816000820154815260200160018201805461030790610f3d565b80601f016020809104026020016040519081016040528092919081815260200182805461033390610f3d565b80156103805780601f1061035557610100808354040283529160200191610380565b820191906000526020600020905b81548152906001019060200180831161036357829003601f168201915b505050505081526020016002820160009054906101000a900473ffffffffffffffffffffffffffffffffffffffff1673ffffffffffffffffffffffffffffffffffffffff1673ffffffffffffffffffffffffffffffffffffffff1681526020016002820160149054906101000a900460ff161515151581526020016002820160159054906101000a900460ff16600281111561041f5761041e6109de565b5b6002811115610431576104306109de565b5b815250509050919050565b6000805490506040518060a00160405280600080191681526020018381526020013373ffffffffffffffffffffffffffffffffffffffff16815260200160001515815260200160006002811115610496576104956109de565b5b815250600160008381526020019081526020016000206000820151816000015560208201518160010190816104cb919061111a565b5060408201518160020160006101000a81548173ffffffffffffffffffffffffffffffffffffffff021916908373ffffffffffffffffffffffffffffffffffffffff16021790555060608201518160020160146101000a81548160ff02191690831515021790555060808201518160020160156101000a81548160ff0219169083600281111561055e5761055d6109de565b5b02179055509050506001600080828254610578919061121b565b925050819055507f64d3908edca7df860b524330c97271844d5bf3cf0b3cab43c48311c8e464119a813384426040516105b4949392919061124f565b60405180910390a1919050565b60005481565b600160028111156105db576105da6109de565b5b6001600084815260200190815260200160002060020160159054906101000a900460ff166002811115610611576106106109de565b5b14610651576040517f08c379a0000000000000000000000000000000000000000000000000000000008152600401610648906112e7565b60405180910390fd5b806001600084815260200190815260200160002060020160146101000a81548160ff02191690831515021790555060026001600084815260200190815260200160002060020160156101000a81548160ff021916908360028111156106b9576106b86109de565b5b02179055505050565b60006001600083815260200190815260200160002060020160149054906101000a900460ff169050919050565b8060016000848152602001908152602001600020600001819055505050565b600160205280600052604060002060009150905080600001549080600101805461073790610f3d565b80601f016020809104026020016040519081016040528092919081815260200182805461076390610f3d565b80156107b05780601f10610785576101008083540402835291602001916107b0565b820191906000526020600020905b81548152906001019060200180831161079357829003601f168201915b5050505050908060020160009054906101000a900473ffffffffffffffffffffffffffffffffffffffff16908060020160149054906101000a900460ff16908060020160159054906101000a900460ff16905085565b6040518060a001604052806000801916815260200160608152602001600073ffffffffffffffffffffffffffffffffffffffff1681526020016000151581526020016000600281111561085c5761085b6109de565b5b81525090565b6000604051905090565b600080fd5b600080fd5b6000819050919050565b61088981610876565b811461089457600080fd5b50565b6000813590506108a681610880565b92915050565b6000602082840312156108c2576108c161086c565b5b60006108d084828501610897565b91505092915050565b6000819050919050565b6108ec816108d9565b82525050565b600081519050919050565b600082825260208201905092915050565b60005b8381101561092c578082015181840152602081019050610911565b60008484015250505050565b6000601f19601f8301169050919050565b6000610954826108f2565b61095e81856108fd565b935061096e81856020860161090e565b61097781610938565b840191505092915050565b600073ffffffffffffffffffffffffffffffffffffffff82169050919050565b60006109ad82610982565b9050919050565b6109bd816109a2565b82525050565b60008115159050919050565b6109d8816109c3565b82525050565b7f4e487b7100000000000000000000000000000000000000000000000000000000600052602160045260246000fd5b60038110610a1e57610a1d6109de565b5b50565b6000819050610a2f82610a0d565b919050565b6000610a3f82610a21565b9050919050565b610a4f81610a34565b82525050565b600060a083016000830151610a6d60008601826108e3565b5060208301518482036020860152610a858282610949565b9150506040830151610a9a60408601826109b4565b506060830151610aad60608601826109cf565b506080830151610ac06080860182610a46565b508091505092915050565b60006020820190508181036000830152610ae58184610a55565b905092915050565b600080fd5b600080fd5b7f4e487b7100000000000000000000000000000000000000000000000000000000600052604160045260246000fd5b610b2f82610938565b810181811067ffffffffffffffff82111715610b4e57610b4d610af7565b5b80604052505050565b6000610b61610862565b9050610b6d8282610b26565b919050565b600067ffffffffffffffff821115610b8d57610b8c610af7565b5b610b9682610938565b9050602081019050919050565b82818337600083830152505050565b6000610bc5610bc084610b72565b610b57565b905082815260208101848484011115610be157610be0610af2565b5b610bec848285610ba3565b509392505050565b600082601f830112610c0957610c08610aed565b5b8135610c19848260208601610bb2565b91505092915050565b600060208284031215610c3857610c3761086c565b5b600082013567ffffffffffffffff811115610c5657610c55610871565b5b610c6284828501610bf4565b91505092915050565b610c7481610876565b82525050565b6000602082019050610c8f6000830184610c6b565b92915050565b610c9e816109c3565b8114610ca957600080fd5b50565b600081359050610cbb81610c95565b92915050565b60008060408385031215610cd857610cd761086c565b5b6000610ce685828601610897565b9250506020610cf785828601610cac565b9150509250929050565b610d0a816109c3565b82525050565b6000602082019050610d256000830184610d01565b92915050565b610d34816108d9565b8114610d3f57600080fd5b50565b600081359050610d5181610d2b565b92915050565b60008060408385031215610d6e57610d6d61086c565b5b6000610d7c85828601610897565b9250506020610d8d85828601610d42565b9150509250929050565b610da0816108d9565b82525050565b600082825260208201905092915050565b6000610dc2826108f2565b610dcc8185610da6565b9350610ddc81856020860161090e565b610de581610938565b840191505092915050565b610df9816109a2565b82525050565b610e0881610a34565b82525050565b600060a082019050610e236000830188610d97565b8181036020830152610e358187610db7565b9050610e446040830186610df0565b610e516060830185610d01565b610e5e6080830184610dff565b9695505050505050565b600082825260208201905092915050565b7f4e6f742079657420417373657274656400000000000000000000000000000000600082015250565b6000610eaf601083610e68565b9150610eba82610e79565b602082019050919050565b60006020820190508181036000830152610ede81610ea2565b9050919050565b6000604082019050610efa6000830185610c6b565b610f076020830184610c6b565b9392505050565b7f4e487b7100000000000000000000000000000000000000000000000000000000600052602260045260246000fd5b60006002820490506001821680610f5557607f821691505b602082108103610f6857610f67610f0e565b5b50919050565b60008190508160005260206000209050919050565b60006020601f8301049050919050565b600082821b905092915050565b600060088302610fd07fffffffffffffffffffffffffffffffffffffffffffffffffffffffffffffffff82610f93565b610fda8683610f93565b95508019841693508086168417925050509392505050565b6000819050919050565b600061101761101261100d84610876565b610ff2565b610876565b9050919050565b6000819050919050565b61103183610ffc565b61104561103d8261101e565b848454610fa0565b825550505050565b600090565b61105a61104d565b611065818484611028565b505050565b5b818110156110895761107e600082611052565b60018101905061106b565b5050565b601f8211156110ce5761109f81610f6e565b6110a884610f83565b810160208510156110b7578190505b6110cb6110c385610f83565b83018261106a565b50505b505050565b600082821c905092915050565b60006110f1600019846008026110d3565b1980831691505092915050565b600061110a83836110e0565b9150826002028217905092915050565b611123826108f2565b67ffffffffffffffff81111561113c5761113b610af7565b5b6111468254610f3d565b61115182828561108d565b600060209050601f8311600181146111845760008415611172578287015190505b61117c85826110fe565b8655506111e4565b601f19841661119286610f6e565b60005b828110156111ba57848901518255600182019150602085019450602081019050611195565b868310156111d757848901516111d3601f8916826110e0565b8355505b6001600288020188555050505b505050505050565b7f4e487b7100000000000000000000000000000000000000000000000000000000600052601160045260246000fd5b600061122682610876565b915061123183610876565b9250828201905080821115611249576112486111ec565b5b92915050565b60006080820190506112646000830187610c6b565b6112716020830186610df0565b81810360408301526112838185610db7565b90506112926060830184610c6b565b95945050505050565b7f4e6f742079657420726571756573746564000000000000000000000000000000600082015250565b60006112d1601183610e68565b91506112dc8261129b565b602082019050919050565b60006020820190508181036000830152611300816112c4565b905091905056fea2646970667358221220364276d21936afbe3448ef98ca7246b10954828292ce85c206661ad7bbc40bea64736f6c63430008100033",
					"opcodes": "PUSH1 0x80 PUSH1 0x40 MSTORE PUSH1 0x1 PUSH1 0x0 SSTORE CALLVALUE DUP1 ISZERO PUSH2 0x15 JUMPI PUSH1 0x0 DUP1 REVERT JUMPDEST POP PUSH2 0x133D DUP1 PUSH2 0x25 PUSH1 0x0 CODECOPY PUSH1 0x0 RETURN INVALID PUSH1 0x80 PUSH1 0x40 MSTORE CALLVALUE DUP1 ISZERO PUSH2 0x10 JUMPI PUSH1 0x0 DUP1 REVERT JUMPDEST POP PUSH1 0x4 CALLDATASIZE LT PUSH2 0x88 JUMPI PUSH1 0x0 CALLDATALOAD PUSH1 0xE0 SHR DUP1 PUSH4 0x884E3F43 GT PUSH2 0x5B JUMPI DUP1 PUSH4 0x884E3F43 EQ PUSH2 0x127 JUMPI DUP1 PUSH4 0xADEE9E00 EQ PUSH2 0x143 JUMPI DUP1 PUSH4 0xB1A15891 EQ PUSH2 0x173 JUMPI DUP1 PUSH4 0xBB27BDEC EQ PUSH2 0x18F JUMPI PUSH2 0x88 JUMP JUMPDEST DUP1 PUSH4 0x14D82C04 EQ PUSH2 0x8D JUMPI DUP1 PUSH4 0x1D99E167 EQ PUSH2 0xA9 JUMPI DUP1 PUSH4 0x2C59E707 EQ PUSH2 0xD9 JUMPI DUP1 PUSH4 0x3FBEC59B EQ PUSH2 0x109 JUMPI JUMPDEST PUSH1 0x0 DUP1 REVERT JUMPDEST PUSH2 0xA7 PUSH1 0x4 DUP1 CALLDATASIZE SUB DUP2 ADD SWAP1 PUSH2 0xA2 SWAP2 SWAP1 PUSH2 0x8AC JUMP JUMPDEST PUSH2 0x1C3 JUMP JUMPDEST STOP JUMPDEST PUSH2 0xC3 PUSH1 0x4 DUP1 CALLDATASIZE SUB DUP2 ADD SWAP1 PUSH2 0xBE SWAP2 SWAP1 PUSH2 0x8AC JUMP JUMPDEST PUSH2 0x2C7 JUMP JUMPDEST PUSH1 0x40 MLOAD PUSH2 0xD0 SWAP2 SWAP1 PUSH2 0xACB JUMP JUMPDEST PUSH1 0x40 MLOAD DUP1 SWAP2 SUB SWAP1 RETURN JUMPDEST PUSH2 0xF3 PUSH1 0x4 DUP1 CALLDATASIZE SUB DUP2 ADD SWAP1 PUSH2 0xEE SWAP2 SWAP1 PUSH2 0xC22 JUMP JUMPDEST PUSH2 0x43C JUMP JUMPDEST PUSH1 0x40 MLOAD PUSH2 0x100 SWAP2 SWAP1 PUSH2 0xC7A JUMP JUMPDEST PUSH1 0x40 MLOAD DUP1 SWAP2 SUB SWAP1 RETURN JUMPDEST PUSH2 0x111 PUSH2 0x5C1 JUMP JUMPDEST PUSH1 0x40 MLOAD PUSH2 0x11E SWAP2 SWAP1 PUSH2 0xC7A JUMP JUMPDEST PUSH1 0x40 MLOAD DUP1 SWAP2 SUB SWAP1 RETURN JUMPDEST PUSH2 0x141 PUSH1 0x4 DUP1 CALLDATASIZE SUB DUP2 ADD SWAP1 PUSH2 0x13C SWAP2 SWAP1 PUSH2 0xCC1 JUMP JUMPDEST PUSH2 0x5C7 JUMP JUMPDEST STOP JUMPDEST PUSH2 0x15D PUSH1 0x4 DUP1 CALLDATASIZE SUB DUP2 ADD SWAP1 PUSH2 0x158 SWAP2 SWAP1 PUSH2 0x8AC JUMP JUMPDEST PUSH2 0x6C2 JUMP JUMPDEST PUSH1 0x40 MLOAD PUSH2 0x16A SWAP2 SWAP1 PUSH2 0xD10 JUMP JUMPDEST PUSH1 0x40 MLOAD DUP1 SWAP2 SUB SWAP1 RETURN JUMPDEST PUSH2 0x18D PUSH1 0x4 DUP1 CALLDATASIZE SUB DUP2 ADD SWAP1 PUSH2 0x188 SWAP2 SWAP1 PUSH2 0xD57 JUMP JUMPDEST PUSH2 0x6EF JUMP JUMPDEST STOP JUMPDEST PUSH2 0x1A9 PUSH1 0x4 DUP1 CALLDATASIZE SUB DUP2 ADD SWAP1 PUSH2 0x1A4 SWAP2 SWAP1 PUSH2 0x8AC JUMP JUMPDEST PUSH2 0x70E JUMP JUMPDEST PUSH1 0x40 MLOAD PUSH2 0x1BA SWAP6 SWAP5 SWAP4 SWAP3 SWAP2 SWAP1 PUSH2 0xE0E JUMP JUMPDEST PUSH1 0x40 MLOAD DUP1 SWAP2 SUB SWAP1 RETURN JUMPDEST PUSH1 0x0 PUSH1 0x2 DUP2 GT ISZERO PUSH2 0x1D7 JUMPI PUSH2 0x1D6 PUSH2 0x9DE JUMP JUMPDEST JUMPDEST PUSH1 0x1 PUSH1 0x0 DUP4 DUP2 MSTORE PUSH1 0x20 ADD SWAP1 DUP2 MSTORE PUSH1 0x20 ADD PUSH1 0x0 KECCAK256 PUSH1 0x2 ADD PUSH1 0x15 SWAP1 SLOAD SWAP1 PUSH2 0x100 EXP SWAP1 DIV PUSH1 0xFF AND PUSH1 0x2 DUP2 GT ISZERO PUSH2 0x20D JUMPI PUSH2 0x20C PUSH2 0x9DE JUMP JUMPDEST JUMPDEST EQ PUSH2 0x24D JUMPI PUSH1 0x40 MLOAD PUSH32 0x8C379A000000000000000000000000000000000000000000000000000000000 DUP2 MSTORE PUSH1 0x4 ADD PUSH2 0x244 SWAP1 PUSH2 0xEC5 JUMP JUMPDEST PUSH1 0x40 MLOAD DUP1 SWAP2 SUB SWAP1 REVERT JUMPDEST PUSH1 0x1 DUP1 PUSH1 0x0 DUP4 DUP2 MSTORE PUSH1 0x20 ADD SWAP1 DUP2 MSTORE PUSH1 0x20 ADD PUSH1 0x0 KECCAK256 PUSH1 0x2 ADD PUSH1 0x15 PUSH2 0x100 EXP DUP2 SLOAD DUP2 PUSH1 0xFF MUL NOT AND SWAP1 DUP4 PUSH1 0x2 DUP2 GT ISZERO PUSH2 0x286 JUMPI PUSH2 0x285 PUSH2 0x9DE JUMP JUMPDEST JUMPDEST MUL OR SWAP1 SSTORE POP PUSH32 0x27EAE51A13096BBF91C9ADE81B17EF36E6B1785E85CED181D9CD9AF19AFC4C16 DUP2 TIMESTAMP PUSH1 0x40 MLOAD PUSH2 0x2BC SWAP3 SWAP2 SWAP1 PUSH2 0xEE5 JUMP JUMPDEST PUSH1 0x40 MLOAD DUP1 SWAP2 SUB SWAP1 LOG1 POP JUMP JUMPDEST PUSH2 0x2CF PUSH2 0x806 JUMP JUMPDEST PUSH1 0x1 PUSH1 0x0 DUP4 DUP2 MSTORE PUSH1 0x20 ADD SWAP1 DUP2 MSTORE PUSH1 0x20 ADD PUSH1 0x0 KECCAK256 PUSH1 0x40 MLOAD DUP1 PUSH1 0xA0 ADD PUSH1 0x40 MSTORE SWAP1 DUP2 PUSH1 0x0 DUP3 ADD SLOAD DUP2 MSTORE PUSH1 0x20 ADD PUSH1 0x1 DUP3 ADD DUP1 SLOAD PUSH2 0x307 SWAP1 PUSH2 0xF3D JUMP JUMPDEST DUP1 PUSH1 0x1F ADD PUSH1 0x20 DUP1 SWAP2 DIV MUL PUSH1 0x20 ADD PUSH1 0x40 MLOAD SWAP1 DUP2 ADD PUSH1 0x40 MSTORE DUP1 SWAP3 SWAP2 SWAP1 DUP2 DUP2 MSTORE PUSH1 0x20 ADD DUP3 DUP1 SLOAD PUSH2 0x333 SWAP1 PUSH2 0xF3D JUMP JUMPDEST DUP1 ISZERO PUSH2 0x380 JUMPI DUP1 PUSH1 0x1F LT PUSH2 0x355 JUMPI PUSH2 0x100 DUP1 DUP4 SLOAD DIV MUL DUP4 MSTORE SWAP2 PUSH1 0x20 ADD SWAP2 PUSH2 0x380 JUMP JUMPDEST DUP3 ADD SWAP2 SWAP1 PUSH1 0x0 MSTORE PUSH1 0x20 PUSH1 0x0 KECCAK256 SWAP1 JUMPDEST DUP2 SLOAD DUP2 MSTORE SWAP1 PUSH1 0x1 ADD SWAP1 PUSH1 0x20 ADD DUP1 DUP4 GT PUSH2 0x363 JUMPI DUP3 SWAP1 SUB PUSH1 0x1F AND DUP3 ADD SWAP2 JUMPDEST POP POP POP POP POP DUP2 MSTORE PUSH1 0x20 ADD PUSH1 0x2 DUP3 ADD PUSH1 0x0 SWAP1 SLOAD SWAP1 PUSH2 0x100 EXP SWAP1 DIV PUSH20 0xFFFFFFFFFFFFFFFFFFFFFFFFFFFFFFFFFFFFFFFF AND PUSH20 0xFFFFFFFFFFFFFFFFFFFFFFFFFFFFFFFFFFFFFFFF AND PUSH20 0xFFFFFFFFFFFFFFFFFFFFFFFFFFFFFFFFFFFFFFFF AND DUP2 MSTORE PUSH1 0x20 ADD PUSH1 0x2 DUP3 ADD PUSH1 0x14 SWAP1 SLOAD SWAP1 PUSH2 0x100 EXP SWAP1 DIV PUSH1 0xFF AND ISZERO ISZERO ISZERO ISZERO DUP2 MSTORE PUSH1 0x20 ADD PUSH1 0x2 DUP3 ADD PUSH1 0x15 SWAP1 SLOAD SWAP1 PUSH2 0x100 EXP SWAP1 DIV PUSH1 0xFF AND PUSH1 0x2 DUP2 GT ISZERO PUSH2 0x41F JUMPI PUSH2 0x41E PUSH2 0x9DE JUMP JUMPDEST JUMPDEST PUSH1 0x2 DUP2 GT ISZERO PUSH2 0x431 JUMPI PUSH2 0x430 PUSH2 0x9DE JUMP JUMPDEST JUMPDEST DUP2 MSTORE POP POP SWAP1 POP SWAP2 SWAP1 POP JUMP JUMPDEST PUSH1 0x0 DUP1 SLOAD SWAP1 POP PUSH1 0x40 MLOAD DUP1 PUSH1 0xA0 ADD PUSH1 0x40 MSTORE DUP1 PUSH1 0x0 DUP1 NOT AND DUP2 MSTORE PUSH1 0x20 ADD DUP4 DUP2 MSTORE PUSH1 0x20 ADD CALLER PUSH20 0xFFFFFFFFFFFFFFFFFFFFFFFFFFFFFFFFFFFFFFFF AND DUP2 MSTORE PUSH1 0x20 ADD PUSH1 0x0 ISZERO ISZERO DUP2 MSTORE PUSH1 0x20 ADD PUSH1 0x0 PUSH1 0x2 DUP2 GT ISZERO PUSH2 0x496 JUMPI PUSH2 0x495 PUSH2 0x9DE JUMP JUMPDEST JUMPDEST DUP2 MSTORE POP PUSH1 0x1 PUSH1 0x0 DUP4 DUP2 MSTORE PUSH1 0x20 ADD SWAP1 DUP2 MSTORE PUSH1 0x20 ADD PUSH1 0x0 KECCAK256 PUSH1 0x0 DUP3 ADD MLOAD DUP2 PUSH1 0x0 ADD SSTORE PUSH1 0x20 DUP3 ADD MLOAD DUP2 PUSH1 0x1 ADD SWAP1 DUP2 PUSH2 0x4CB SWAP2 SWAP1 PUSH2 0x111A JUMP JUMPDEST POP PUSH1 0x40 DUP3 ADD MLOAD DUP2 PUSH1 0x2 ADD PUSH1 0x0 PUSH2 0x100 EXP DUP2 SLOAD DUP2 PUSH20 0xFFFFFFFFFFFFFFFFFFFFFFFFFFFFFFFFFFFFFFFF MUL NOT AND SWAP1 DUP4 PUSH20 0xFFFFFFFFFFFFFFFFFFFFFFFFFFFFFFFFFFFFFFFF AND MUL OR SWAP1 SSTORE POP PUSH1 0x60 DUP3 ADD MLOAD DUP2 PUSH1 0x2 ADD PUSH1 0x14 PUSH2 0x100 EXP DUP2 SLOAD DUP2 PUSH1 0xFF MUL NOT AND SWAP1 DUP4 ISZERO ISZERO MUL OR SWAP1 SSTORE POP PUSH1 0x80 DUP3 ADD MLOAD DUP2 PUSH1 0x2 ADD PUSH1 0x15 PUSH2 0x100 EXP DUP2 SLOAD DUP2 PUSH1 0xFF MUL NOT AND SWAP1 DUP4 PUSH1 0x2 DUP2 GT ISZERO PUSH2 0x55E JUMPI PUSH2 0x55D PUSH2 0x9DE JUMP JUMPDEST JUMPDEST MUL OR SWAP1 SSTORE POP SWAP1 POP POP PUSH1 0x1 PUSH1 0x0 DUP1 DUP3 DUP3 SLOAD PUSH2 0x578 SWAP2 SWAP1 PUSH2 0x121B JUMP JUMPDEST SWAP3 POP POP DUP2 SWAP1 SSTORE POP PUSH32 0x64D3908EDCA7DF860B524330C97271844D5BF3CF0B3CAB43C48311C8E464119A DUP2 CALLER DUP5 TIMESTAMP PUSH1 0x40 MLOAD PUSH2 0x5B4 SWAP5 SWAP4 SWAP3 SWAP2 SWAP1 PUSH2 0x124F JUMP JUMPDEST PUSH1 0x40 MLOAD DUP1 SWAP2 SUB SWAP1 LOG1 SWAP2 SWAP1 POP JUMP JUMPDEST PUSH1 0x0 SLOAD DUP2 JUMP JUMPDEST PUSH1 0x1 PUSH1 0x2 DUP2 GT ISZERO PUSH2 0x5DB JUMPI PUSH2 0x5DA PUSH2 0x9DE JUMP JUMPDEST JUMPDEST PUSH1 0x1 PUSH1 0x0 DUP5 DUP2 MSTORE PUSH1 0x20 ADD SWAP1 DUP2 MSTORE PUSH1 0x20 ADD PUSH1 0x0 KECCAK256 PUSH1 0x2 ADD PUSH1 0x15 SWAP1 SLOAD SWAP1 PUSH2 0x100 EXP SWAP1 DIV PUSH1 0xFF AND PUSH1 0x2 DUP2 GT ISZERO PUSH2 0x611 JUMPI PUSH2 0x610 PUSH2 0x9DE JUMP JUMPDEST JUMPDEST EQ PUSH2 0x651 JUMPI PUSH1 0x40 MLOAD PUSH32 0x8C379A000000000000000000000000000000000000000000000000000000000 DUP2 MSTORE PUSH1 0x4 ADD PUSH2 0x648 SWAP1 PUSH2 0x12E7 JUMP JUMPDEST PUSH1 0x40 MLOAD DUP1 SWAP2 SUB SWAP1 REVERT JUMPDEST DUP1 PUSH1 0x1 PUSH1 0x0 DUP5 DUP2 MSTORE PUSH1 0x20 ADD SWAP1 DUP2 MSTORE PUSH1 0x20 ADD PUSH1 0x0 KECCAK256 PUSH1 0x2 ADD PUSH1 0x14 PUSH2 0x100 EXP DUP2 SLOAD DUP2 PUSH1 0xFF MUL NOT AND SWAP1 DUP4 ISZERO ISZERO MUL OR SWAP1 SSTORE POP PUSH1 0x2 PUSH1 0x1 PUSH1 0x0 DUP5 DUP2 MSTORE PUSH1 0x20 ADD SWAP1 DUP2 MSTORE PUSH1 0x20 ADD PUSH1 0x0 KECCAK256 PUSH1 0x2 ADD PUSH1 0x15 PUSH2 0x100 EXP DUP2 SLOAD DUP2 PUSH1 0xFF MUL NOT AND SWAP1 DUP4 PUSH1 0x2 DUP2 GT ISZERO PUSH2 0x6B9 JUMPI PUSH2 0x6B8 PUSH2 0x9DE JUMP JUMPDEST JUMPDEST MUL OR SWAP1 SSTORE POP POP POP JUMP JUMPDEST PUSH1 0x0 PUSH1 0x1 PUSH1 0x0 DUP4 DUP2 MSTORE PUSH1 0x20 ADD SWAP1 DUP2 MSTORE PUSH1 0x20 ADD PUSH1 0x0 KECCAK256 PUSH1 0x2 ADD PUSH1 0x14 SWAP1 SLOAD SWAP1 PUSH2 0x100 EXP SWAP1 DIV PUSH1 0xFF AND SWAP1 POP SWAP2 SWAP1 POP JUMP JUMPDEST DUP1 PUSH1 0x1 PUSH1 0x0 DUP5 DUP2 MSTORE PUSH1 0x20 ADD SWAP1 DUP2 MSTORE PUSH1 0x20 ADD PUSH1 0x0 KECCAK256 PUSH1 0x0 ADD DUP2 SWAP1 SSTORE POP POP POP JUMP JUMPDEST PUSH1 0x1 PUSH1 0x20 MSTORE DUP1 PUSH1 0x0 MSTORE PUSH1 0x40 PUSH1 0x0 KECCAK256 PUSH1 0x0 SWAP2 POP SWAP1 POP DUP1 PUSH1 0x0 ADD SLOAD SWAP1 DUP1 PUSH1 0x1 ADD DUP1 SLOAD PUSH2 0x737 SWAP1 PUSH2 0xF3D JUMP JUMPDEST DUP1 PUSH1 0x1F ADD PUSH1 0x20 DUP1 SWAP2 DIV MUL PUSH1 0x20 ADD PUSH1 0x40 MLOAD SWAP1 DUP2 ADD PUSH1 0x40 MSTORE DUP1 SWAP3 SWAP2 SWAP1 DUP2 DUP2 MSTORE PUSH1 0x20 ADD DUP3 DUP1 SLOAD PUSH2 0x763 SWAP1 PUSH2 0xF3D JUMP JUMPDEST DUP1 ISZERO PUSH2 0x7B0 JUMPI DUP1 PUSH1 0x1F LT PUSH2 0x785 JUMPI PUSH2 0x100 DUP1 DUP4 SLOAD DIV MUL DUP4 MSTORE SWAP2 PUSH1 0x20 ADD SWAP2 PUSH2 0x7B0 JUMP JUMPDEST DUP3 ADD SWAP2 SWAP1 PUSH1 0x0 MSTORE PUSH1 0x20 PUSH1 0x0 KECCAK256 SWAP1 JUMPDEST DUP2 SLOAD DUP2 MSTORE SWAP1 PUSH1 0x1 ADD SWAP1 PUSH1 0x20 ADD DUP1 DUP4 GT PUSH2 0x793 JUMPI DUP3 SWAP1 SUB PUSH1 0x1F AND DUP3 ADD SWAP2 JUMPDEST POP POP POP POP POP SWAP1 DUP1 PUSH1 0x2 ADD PUSH1 0x0 SWAP1 SLOAD SWAP1 PUSH2 0x100 EXP SWAP1 DIV PUSH20 0xFFFFFFFFFFFFFFFFFFFFFFFFFFFFFFFFFFFFFFFF AND SWAP1 DUP1 PUSH1 0x2 ADD PUSH1 0x14 SWAP1 SLOAD SWAP1 PUSH2 0x100 EXP SWAP1 DIV PUSH1 0xFF AND SWAP1 DUP1 PUSH1 0x2 ADD PUSH1 0x15 SWAP1 SLOAD SWAP1 PUSH2 0x100 EXP SWAP1 DIV PUSH1 0xFF AND SWAP1 POP DUP6 JUMP JUMPDEST PUSH1 0x40 MLOAD DUP1 PUSH1 0xA0 ADD PUSH1 0x40 MSTORE DUP1 PUSH1 0x0 DUP1 NOT AND DUP2 MSTORE PUSH1 0x20 ADD PUSH1 0x60 DUP2 MSTORE PUSH1 0x20 ADD PUSH1 0x0 PUSH20 0xFFFFFFFFFFFFFFFFFFFFFFFFFFFFFFFFFFFFFFFF AND DUP2 MSTORE PUSH1 0x20 ADD PUSH1 0x0 ISZERO ISZERO DUP2 MSTORE PUSH1 0x20 ADD PUSH1 0x0 PUSH1 0x2 DUP2 GT ISZERO PUSH2 0x85C JUMPI PUSH2 0x85B PUSH2 0x9DE JUMP JUMPDEST JUMPDEST DUP2 MSTORE POP SWAP1 JUMP JUMPDEST PUSH1 0x0 PUSH1 0x40 MLOAD SWAP1 POP SWAP1 JUMP JUMPDEST PUSH1 0x0 DUP1 REVERT JUMPDEST PUSH1 0x0 DUP1 REVERT JUMPDEST PUSH1 0x0 DUP2 SWAP1 POP SWAP2 SWAP1 POP JUMP JUMPDEST PUSH2 0x889 DUP2 PUSH2 0x876 JUMP JUMPDEST DUP2 EQ PUSH2 0x894 JUMPI PUSH1 0x0 DUP1 REVERT JUMPDEST POP JUMP JUMPDEST PUSH1 0x0 DUP2 CALLDATALOAD SWAP1 POP PUSH2 0x8A6 DUP2 PUSH2 0x880 JUMP JUMPDEST SWAP3 SWAP2 POP POP JUMP JUMPDEST PUSH1 0x0 PUSH1 0x20 DUP3 DUP5 SUB SLT ISZERO PUSH2 0x8C2 JUMPI PUSH2 0x8C1 PUSH2 0x86C JUMP JUMPDEST JUMPDEST PUSH1 0x0 PUSH2 0x8D0 DUP5 DUP3 DUP6 ADD PUSH2 0x897 JUMP JUMPDEST SWAP2 POP POP SWAP3 SWAP2 POP POP JUMP JUMPDEST PUSH1 0x0 DUP2 SWAP1 POP SWAP2 SWAP1 POP JUMP JUMPDEST PUSH2 0x8EC DUP2 PUSH2 0x8D9 JUMP JUMPDEST DUP3 MSTORE POP POP JUMP JUMPDEST PUSH1 0x0 DUP2 MLOAD SWAP1 POP SWAP2 SWAP1 POP JUMP JUMPDEST PUSH1 0x0 DUP3 DUP3 MSTORE PUSH1 0x20 DUP3 ADD SWAP1 POP SWAP3 SWAP2 POP POP JUMP JUMPDEST PUSH1 0x0 JUMPDEST DUP4 DUP2 LT ISZERO PUSH2 0x92C JUMPI DUP1 DUP3 ADD MLOAD DUP2 DUP5 ADD MSTORE PUSH1 0x20 DUP2 ADD SWAP1 POP PUSH2 0x911 JUMP JUMPDEST PUSH1 0x0 DUP5 DUP5 ADD MSTORE POP POP POP POP JUMP JUMPDEST PUSH1 0x0 PUSH1 0x1F NOT PUSH1 0x1F DUP4 ADD AND SWAP1 POP SWAP2 SWAP1 POP JUMP JUMPDEST PUSH1 0x0 PUSH2 0x954 DUP3 PUSH2 0x8F2 JUMP JUMPDEST PUSH2 0x95E DUP2 DUP6 PUSH2 0x8FD JUMP JUMPDEST SWAP4 POP PUSH2 0x96E DUP2 DUP6 PUSH1 0x20 DUP7 ADD PUSH2 0x90E JUMP JUMPDEST PUSH2 0x977 DUP2 PUSH2 0x938 JUMP JUMPDEST DUP5 ADD SWAP2 POP POP SWAP3 SWAP2 POP POP JUMP JUMPDEST PUSH1 0x0 PUSH20 0xFFFFFFFFFFFFFFFFFFFFFFFFFFFFFFFFFFFFFFFF DUP3 AND SWAP1 POP SWAP2 SWAP1 POP JUMP JUMPDEST PUSH1 0x0 PUSH2 0x9AD DUP3 PUSH2 0x982 JUMP JUMPDEST SWAP1 POP SWAP2 SWAP1 POP JUMP JUMPDEST PUSH2 0x9BD DUP2 PUSH2 0x9A2 JUMP JUMPDEST DUP3 MSTORE POP POP JUMP JUMPDEST PUSH1 0x0 DUP2 ISZERO ISZERO SWAP1 POP SWAP2 SWAP1 POP JUMP JUMPDEST PUSH2 0x9D8 DUP2 PUSH2 0x9C3 JUMP JUMPDEST DUP3 MSTORE POP POP JUMP JUMPDEST PUSH32 0x4E487B7100000000000000000000000000000000000000000000000000000000 PUSH1 0x0 MSTORE PUSH1 0x21 PUSH1 0x4 MSTORE PUSH1 0x24 PUSH1 0x0 REVERT JUMPDEST PUSH1 0x3 DUP2 LT PUSH2 0xA1E JUMPI PUSH2 0xA1D PUSH2 0x9DE JUMP JUMPDEST JUMPDEST POP JUMP JUMPDEST PUSH1 0x0 DUP2 SWAP1 POP PUSH2 0xA2F DUP3 PUSH2 0xA0D JUMP JUMPDEST SWAP2 SWAP1 POP JUMP JUMPDEST PUSH1 0x0 PUSH2 0xA3F DUP3 PUSH2 0xA21 JUMP JUMPDEST SWAP1 POP SWAP2 SWAP1 POP JUMP JUMPDEST PUSH2 0xA4F DUP2 PUSH2 0xA34 JUMP JUMPDEST DUP3 MSTORE POP POP JUMP JUMPDEST PUSH1 0x0 PUSH1 0xA0 DUP4 ADD PUSH1 0x0 DUP4 ADD MLOAD PUSH2 0xA6D PUSH1 0x0 DUP7 ADD DUP3 PUSH2 0x8E3 JUMP JUMPDEST POP PUSH1 0x20 DUP4 ADD MLOAD DUP5 DUP3 SUB PUSH1 0x20 DUP7 ADD MSTORE PUSH2 0xA85 DUP3 DUP3 PUSH2 0x949 JUMP JUMPDEST SWAP2 POP POP PUSH1 0x40 DUP4 ADD MLOAD PUSH2 0xA9A PUSH1 0x40 DUP7 ADD DUP3 PUSH2 0x9B4 JUMP JUMPDEST POP PUSH1 0x60 DUP4 ADD MLOAD PUSH2 0xAAD PUSH1 0x60 DUP7 ADD DUP3 PUSH2 0x9CF JUMP JUMPDEST POP PUSH1 0x80 DUP4 ADD MLOAD PUSH2 0xAC0 PUSH1 0x80 DUP7 ADD DUP3 PUSH2 0xA46 JUMP JUMPDEST POP DUP1 SWAP2 POP POP SWAP3 SWAP2 POP POP JUMP JUMPDEST PUSH1 0x0 PUSH1 0x20 DUP3 ADD SWAP1 POP DUP2 DUP2 SUB PUSH1 0x0 DUP4 ADD MSTORE PUSH2 0xAE5 DUP2 DUP5 PUSH2 0xA55 JUMP JUMPDEST SWAP1 POP SWAP3 SWAP2 POP POP JUMP JUMPDEST PUSH1 0x0 DUP1 REVERT JUMPDEST PUSH1 0x0 DUP1 REVERT JUMPDEST PUSH32 0x4E487B7100000000000000000000000000000000000000000000000000000000 PUSH1 0x0 MSTORE PUSH1 0x41 PUSH1 0x4 MSTORE PUSH1 0x24 PUSH1 0x0 REVERT JUMPDEST PUSH2 0xB2F DUP3 PUSH2 0x938 JUMP JUMPDEST DUP2 ADD DUP2 DUP2 LT PUSH8 0xFFFFFFFFFFFFFFFF DUP3 GT OR ISZERO PUSH2 0xB4E JUMPI PUSH2 0xB4D PUSH2 0xAF7 JUMP JUMPDEST JUMPDEST DUP1 PUSH1 0x40 MSTORE POP POP POP JUMP JUMPDEST PUSH1 0x0 PUSH2 0xB61 PUSH2 0x862 JUMP JUMPDEST SWAP1 POP PUSH2 0xB6D DUP3 DUP3 PUSH2 0xB26 JUMP JUMPDEST SWAP2 SWAP1 POP JUMP JUMPDEST PUSH1 0x0 PUSH8 0xFFFFFFFFFFFFFFFF DUP3 GT ISZERO PUSH2 0xB8D JUMPI PUSH2 0xB8C PUSH2 0xAF7 JUMP JUMPDEST JUMPDEST PUSH2 0xB96 DUP3 PUSH2 0x938 JUMP JUMPDEST SWAP1 POP PUSH1 0x20 DUP2 ADD SWAP1 POP SWAP2 SWAP1 POP JUMP JUMPDEST DUP3 DUP2 DUP4 CALLDATACOPY PUSH1 0x0 DUP4 DUP4 ADD MSTORE POP POP POP JUMP JUMPDEST PUSH1 0x0 PUSH2 0xBC5 PUSH2 0xBC0 DUP5 PUSH2 0xB72 JUMP JUMPDEST PUSH2 0xB57 JUMP JUMPDEST SWAP1 POP DUP3 DUP2 MSTORE PUSH1 0x20 DUP2 ADD DUP5 DUP5 DUP5 ADD GT ISZERO PUSH2 0xBE1 JUMPI PUSH2 0xBE0 PUSH2 0xAF2 JUMP JUMPDEST JUMPDEST PUSH2 0xBEC DUP5 DUP3 DUP6 PUSH2 0xBA3 JUMP JUMPDEST POP SWAP4 SWAP3 POP POP POP JUMP JUMPDEST PUSH1 0x0 DUP3 PUSH1 0x1F DUP4 ADD SLT PUSH2 0xC09 JUMPI PUSH2 0xC08 PUSH2 0xAED JUMP JUMPDEST JUMPDEST DUP2 CALLDATALOAD PUSH2 0xC19 DUP5 DUP3 PUSH1 0x20 DUP7 ADD PUSH2 0xBB2 JUMP JUMPDEST SWAP2 POP POP SWAP3 SWAP2 POP POP JUMP JUMPDEST PUSH1 0x0 PUSH1 0x20 DUP3 DUP5 SUB SLT ISZERO PUSH2 0xC38 JUMPI PUSH2 0xC37 PUSH2 0x86C JUMP JUMPDEST JUMPDEST PUSH1 0x0 DUP3 ADD CALLDATALOAD PUSH8 0xFFFFFFFFFFFFFFFF DUP2 GT ISZERO PUSH2 0xC56 JUMPI PUSH2 0xC55 PUSH2 0x871 JUMP JUMPDEST JUMPDEST PUSH2 0xC62 DUP5 DUP3 DUP6 ADD PUSH2 0xBF4 JUMP JUMPDEST SWAP2 POP POP SWAP3 SWAP2 POP POP JUMP JUMPDEST PUSH2 0xC74 DUP2 PUSH2 0x876 JUMP JUMPDEST DUP3 MSTORE POP POP JUMP JUMPDEST PUSH1 0x0 PUSH1 0x20 DUP3 ADD SWAP1 POP PUSH2 0xC8F PUSH1 0x0 DUP4 ADD DUP5 PUSH2 0xC6B JUMP JUMPDEST SWAP3 SWAP2 POP POP JUMP JUMPDEST PUSH2 0xC9E DUP2 PUSH2 0x9C3 JUMP JUMPDEST DUP2 EQ PUSH2 0xCA9 JUMPI PUSH1 0x0 DUP1 REVERT JUMPDEST POP JUMP JUMPDEST PUSH1 0x0 DUP2 CALLDATALOAD SWAP1 POP PUSH2 0xCBB DUP2 PUSH2 0xC95 JUMP JUMPDEST SWAP3 SWAP2 POP POP JUMP JUMPDEST PUSH1 0x0 DUP1 PUSH1 0x40 DUP4 DUP6 SUB SLT ISZERO PUSH2 0xCD8 JUMPI PUSH2 0xCD7 PUSH2 0x86C JUMP JUMPDEST JUMPDEST PUSH1 0x0 PUSH2 0xCE6 DUP6 DUP3 DUP7 ADD PUSH2 0x897 JUMP JUMPDEST SWAP3 POP POP PUSH1 0x20 PUSH2 0xCF7 DUP6 DUP3 DUP7 ADD PUSH2 0xCAC JUMP JUMPDEST SWAP2 POP POP SWAP3 POP SWAP3 SWAP1 POP JUMP JUMPDEST PUSH2 0xD0A DUP2 PUSH2 0x9C3 JUMP JUMPDEST DUP3 MSTORE POP POP JUMP JUMPDEST PUSH1 0x0 PUSH1 0x20 DUP3 ADD SWAP1 POP PUSH2 0xD25 PUSH1 0x0 DUP4 ADD DUP5 PUSH2 0xD01 JUMP JUMPDEST SWAP3 SWAP2 POP POP JUMP JUMPDEST PUSH2 0xD34 DUP2 PUSH2 0x8D9 JUMP JUMPDEST DUP2 EQ PUSH2 0xD3F JUMPI PUSH1 0x0 DUP1 REVERT JUMPDEST POP JUMP JUMPDEST PUSH1 0x0 DUP2 CALLDATALOAD SWAP1 POP PUSH2 0xD51 DUP2 PUSH2 0xD2B JUMP JUMPDEST SWAP3 SWAP2 POP POP JUMP JUMPDEST PUSH1 0x0 DUP1 PUSH1 0x40 DUP4 DUP6 SUB SLT ISZERO PUSH2 0xD6E JUMPI PUSH2 0xD6D PUSH2 0x86C JUMP JUMPDEST JUMPDEST PUSH1 0x0 PUSH2 0xD7C DUP6 DUP3 DUP7 ADD PUSH2 0x897 JUMP JUMPDEST SWAP3 POP POP PUSH1 0x20 PUSH2 0xD8D DUP6 DUP3 DUP7 ADD PUSH2 0xD42 JUMP JUMPDEST SWAP2 POP POP SWAP3 POP SWAP3 SWAP1 POP JUMP JUMPDEST PUSH2 0xDA0 DUP2 PUSH2 0x8D9 JUMP JUMPDEST DUP3 MSTORE POP POP JUMP JUMPDEST PUSH1 0x0 DUP3 DUP3 MSTORE PUSH1 0x20 DUP3 ADD SWAP1 POP SWAP3 SWAP2 POP POP JUMP JUMPDEST PUSH1 0x0 PUSH2 0xDC2 DUP3 PUSH2 0x8F2 JUMP JUMPDEST PUSH2 0xDCC DUP2 DUP6 PUSH2 0xDA6 JUMP JUMPDEST SWAP4 POP PUSH2 0xDDC DUP2 DUP6 PUSH1 0x20 DUP7 ADD PUSH2 0x90E JUMP JUMPDEST PUSH2 0xDE5 DUP2 PUSH2 0x938 JUMP JUMPDEST DUP5 ADD SWAP2 POP POP SWAP3 SWAP2 POP POP JUMP JUMPDEST PUSH2 0xDF9 DUP2 PUSH2 0x9A2 JUMP JUMPDEST DUP3 MSTORE POP POP JUMP JUMPDEST PUSH2 0xE08 DUP2 PUSH2 0xA34 JUMP JUMPDEST DUP3 MSTORE POP POP JUMP JUMPDEST PUSH1 0x0 PUSH1 0xA0 DUP3 ADD SWAP1 POP PUSH2 0xE23 PUSH1 0x0 DUP4 ADD DUP9 PUSH2 0xD97 JUMP JUMPDEST DUP2 DUP2 SUB PUSH1 0x20 DUP4 ADD MSTORE PUSH2 0xE35 DUP2 DUP8 PUSH2 0xDB7 JUMP JUMPDEST SWAP1 POP PUSH2 0xE44 PUSH1 0x40 DUP4 ADD DUP7 PUSH2 0xDF0 JUMP JUMPDEST PUSH2 0xE51 PUSH1 0x60 DUP4 ADD DUP6 PUSH2 0xD01 JUMP JUMPDEST PUSH2 0xE5E PUSH1 0x80 DUP4 ADD DUP5 PUSH2 0xDFF JUMP JUMPDEST SWAP7 SWAP6 POP POP POP POP POP POP JUMP JUMPDEST PUSH1 0x0 DUP3 DUP3 MSTORE PUSH1 0x20 DUP3 ADD SWAP1 POP SWAP3 SWAP2 POP POP JUMP JUMPDEST PUSH32 0x4E6F742079657420417373657274656400000000000000000000000000000000 PUSH1 0x0 DUP3 ADD MSTORE POP JUMP JUMPDEST PUSH1 0x0 PUSH2 0xEAF PUSH1 0x10 DUP4 PUSH2 0xE68 JUMP JUMPDEST SWAP2 POP PUSH2 0xEBA DUP3 PUSH2 0xE79 JUMP JUMPDEST PUSH1 0x20 DUP3 ADD SWAP1 POP SWAP2 SWAP1 POP JUMP JUMPDEST PUSH1 0x0 PUSH1 0x20 DUP3 ADD SWAP1 POP DUP2 DUP2 SUB PUSH1 0x0 DUP4 ADD MSTORE PUSH2 0xEDE DUP2 PUSH2 0xEA2 JUMP JUMPDEST SWAP1 POP SWAP2 SWAP1 POP JUMP JUMPDEST PUSH1 0x0 PUSH1 0x40 DUP3 ADD SWAP1 POP PUSH2 0xEFA PUSH1 0x0 DUP4 ADD DUP6 PUSH2 0xC6B JUMP JUMPDEST PUSH2 0xF07 PUSH1 0x20 DUP4 ADD DUP5 PUSH2 0xC6B JUMP JUMPDEST SWAP4 SWAP3 POP POP POP JUMP JUMPDEST PUSH32 0x4E487B7100000000000000000000000000000000000000000000000000000000 PUSH1 0x0 MSTORE PUSH1 0x22 PUSH1 0x4 MSTORE PUSH1 0x24 PUSH1 0x0 REVERT JUMPDEST PUSH1 0x0 PUSH1 0x2 DUP3 DIV SWAP1 POP PUSH1 0x1 DUP3 AND DUP1 PUSH2 0xF55 JUMPI PUSH1 0x7F DUP3 AND SWAP2 POP JUMPDEST PUSH1 0x20 DUP3 LT DUP2 SUB PUSH2 0xF68 JUMPI PUSH2 0xF67 PUSH2 0xF0E JUMP JUMPDEST JUMPDEST POP SWAP2 SWAP1 POP JUMP JUMPDEST PUSH1 0x0 DUP2 SWAP1 POP DUP2 PUSH1 0x0 MSTORE PUSH1 0x20 PUSH1 0x0 KECCAK256 SWAP1 POP SWAP2 SWAP1 POP JUMP JUMPDEST PUSH1 0x0 PUSH1 0x20 PUSH1 0x1F DUP4 ADD DIV SWAP1 POP SWAP2 SWAP1 POP JUMP JUMPDEST PUSH1 0x0 DUP3 DUP3 SHL SWAP1 POP SWAP3 SWAP2 POP POP JUMP JUMPDEST PUSH1 0x0 PUSH1 0x8 DUP4 MUL PUSH2 0xFD0 PUSH32 0xFFFFFFFFFFFFFFFFFFFFFFFFFFFFFFFFFFFFFFFFFFFFFFFFFFFFFFFFFFFFFFFF DUP3 PUSH2 0xF93 JUMP JUMPDEST PUSH2 0xFDA DUP7 DUP4 PUSH2 0xF93 JUMP JUMPDEST SWAP6 POP DUP1 NOT DUP5 AND SWAP4 POP DUP1 DUP7 AND DUP5 OR SWAP3 POP POP POP SWAP4 SWAP3 POP POP POP JUMP JUMPDEST PUSH1 0x0 DUP2 SWAP1 POP SWAP2 SWAP1 POP JUMP JUMPDEST PUSH1 0x0 PUSH2 0x1017 PUSH2 0x1012 PUSH2 0x100D DUP5 PUSH2 0x876 JUMP JUMPDEST PUSH2 0xFF2 JUMP JUMPDEST PUSH2 0x876 JUMP JUMPDEST SWAP1 POP SWAP2 SWAP1 POP JUMP JUMPDEST PUSH1 0x0 DUP2 SWAP1 POP SWAP2 SWAP1 POP JUMP JUMPDEST PUSH2 0x1031 DUP4 PUSH2 0xFFC JUMP JUMPDEST PUSH2 0x1045 PUSH2 0x103D DUP3 PUSH2 0x101E JUMP JUMPDEST DUP5 DUP5 SLOAD PUSH2 0xFA0 JUMP JUMPDEST DUP3 SSTORE POP POP POP POP JUMP JUMPDEST PUSH1 0x0 SWAP1 JUMP JUMPDEST PUSH2 0x105A PUSH2 0x104D JUMP JUMPDEST PUSH2 0x1065 DUP2 DUP5 DUP5 PUSH2 0x1028 JUMP JUMPDEST POP POP POP JUMP JUMPDEST JUMPDEST DUP2 DUP2 LT ISZERO PUSH2 0x1089 JUMPI PUSH2 0x107E PUSH1 0x0 DUP3 PUSH2 0x1052 JUMP JUMPDEST PUSH1 0x1 DUP2 ADD SWAP1 POP PUSH2 0x106B JUMP JUMPDEST POP POP JUMP JUMPDEST PUSH1 0x1F DUP3 GT ISZERO PUSH2 0x10CE JUMPI PUSH2 0x109F DUP2 PUSH2 0xF6E JUMP JUMPDEST PUSH2 0x10A8 DUP5 PUSH2 0xF83 JUMP JUMPDEST DUP2 ADD PUSH1 0x20 DUP6 LT ISZERO PUSH2 0x10B7 JUMPI DUP2 SWAP1 POP JUMPDEST PUSH2 0x10CB PUSH2 0x10C3 DUP6 PUSH2 0xF83 JUMP JUMPDEST DUP4 ADD DUP3 PUSH2 0x106A JUMP JUMPDEST POP POP JUMPDEST POP POP POP JUMP JUMPDEST PUSH1 0x0 DUP3 DUP3 SHR SWAP1 POP SWAP3 SWAP2 POP POP JUMP JUMPDEST PUSH1 0x0 PUSH2 0x10F1 PUSH1 0x0 NOT DUP5 PUSH1 0x8 MUL PUSH2 0x10D3 JUMP JUMPDEST NOT DUP1 DUP4 AND SWAP2 POP POP SWAP3 SWAP2 POP POP JUMP JUMPDEST PUSH1 0x0 PUSH2 0x110A DUP4 DUP4 PUSH2 0x10E0 JUMP JUMPDEST SWAP2 POP DUP3 PUSH1 0x2 MUL DUP3 OR SWAP1 POP SWAP3 SWAP2 POP POP JUMP JUMPDEST PUSH2 0x1123 DUP3 PUSH2 0x8F2 JUMP JUMPDEST PUSH8 0xFFFFFFFFFFFFFFFF DUP2 GT ISZERO PUSH2 0x113C JUMPI PUSH2 0x113B PUSH2 0xAF7 JUMP JUMPDEST JUMPDEST PUSH2 0x1146 DUP3 SLOAD PUSH2 0xF3D JUMP JUMPDEST PUSH2 0x1151 DUP3 DUP3 DUP6 PUSH2 0x108D JUMP JUMPDEST PUSH1 0x0 PUSH1 0x20 SWAP1 POP PUSH1 0x1F DUP4 GT PUSH1 0x1 DUP2 EQ PUSH2 0x1184 JUMPI PUSH1 0x0 DUP5 ISZERO PUSH2 0x1172 JUMPI DUP3 DUP8 ADD MLOAD SWAP1 POP JUMPDEST PUSH2 0x117C DUP6 DUP3 PUSH2 0x10FE JUMP JUMPDEST DUP7 SSTORE POP PUSH2 0x11E4 JUMP JUMPDEST PUSH1 0x1F NOT DUP5 AND PUSH2 0x1192 DUP7 PUSH2 0xF6E JUMP JUMPDEST PUSH1 0x0 JUMPDEST DUP3 DUP2 LT ISZERO PUSH2 0x11BA JUMPI DUP5 DUP10 ADD MLOAD DUP3 SSTORE PUSH1 0x1 DUP3 ADD SWAP2 POP PUSH1 0x20 DUP6 ADD SWAP5 POP PUSH1 0x20 DUP2 ADD SWAP1 POP PUSH2 0x1195 JUMP JUMPDEST DUP7 DUP4 LT ISZERO PUSH2 0x11D7 JUMPI DUP5 DUP10 ADD MLOAD PUSH2 0x11D3 PUSH1 0x1F DUP10 AND DUP3 PUSH2 0x10E0 JUMP JUMPDEST DUP4 SSTORE POP JUMPDEST PUSH1 0x1 PUSH1 0x2 DUP9 MUL ADD DUP9 SSTORE POP POP POP JUMPDEST POP POP POP POP POP POP JUMP JUMPDEST PUSH32 0x4E487B7100000000000000000000000000000000000000000000000000000000 PUSH1 0x0 MSTORE PUSH1 0x11 PUSH1 0x4 MSTORE PUSH1 0x24 PUSH1 0x0 REVERT JUMPDEST PUSH1 0x0 PUSH2 0x1226 DUP3 PUSH2 0x876 JUMP JUMPDEST SWAP2 POP PUSH2 0x1231 DUP4 PUSH2 0x876 JUMP JUMPDEST SWAP3 POP DUP3 DUP3 ADD SWAP1 POP DUP1 DUP3 GT ISZERO PUSH2 0x1249 JUMPI PUSH2 0x1248 PUSH2 0x11EC JUMP JUMPDEST JUMPDEST SWAP3 SWAP2 POP POP JUMP JUMPDEST PUSH1 0x0 PUSH1 0x80 DUP3 ADD SWAP1 POP PUSH2 0x1264 PUSH1 0x0 DUP4 ADD DUP8 PUSH2 0xC6B JUMP JUMPDEST PUSH2 0x1271 PUSH1 0x20 DUP4 ADD DUP7 PUSH2 0xDF0 JUMP JUMPDEST DUP2 DUP2 SUB PUSH1 0x40 DUP4 ADD MSTORE PUSH2 0x1283 DUP2 DUP6 PUSH2 0xDB7 JUMP JUMPDEST SWAP1 POP PUSH2 0x1292 PUSH1 0x60 DUP4 ADD DUP5 PUSH2 0xC6B JUMP JUMPDEST SWAP6 SWAP5 POP POP POP POP POP JUMP JUMPDEST PUSH32 0x4E6F742079657420726571756573746564000000000000000000000000000000 PUSH1 0x0 DUP3 ADD MSTORE POP JUMP JUMPDEST PUSH1 0x0 PUSH2 0x12D1 PUSH1 0x11 DUP4 PUSH2 0xE68 JUMP JUMPDEST SWAP2 POP PUSH2 0x12DC DUP3 PUSH2 0x129B JUMP JUMPDEST PUSH1 0x20 DUP3 ADD SWAP1 POP SWAP2 SWAP1 POP JUMP JUMPDEST PUSH1 0x0 PUSH1 0x20 DUP3 ADD SWAP1 POP DUP2 DUP2 SUB PUSH1 0x0 DUP4 ADD MSTORE PUSH2 0x1300 DUP2 PUSH2 0x12C4 JUMP JUMPDEST SWAP1 POP SWAP2 SWAP1 POP JUMP INVALID LOG2 PUSH5 0x6970667358 0x22 SLT KECCAK256 CALLDATASIZE TIMESTAMP PUSH23 0xD21936AFBE3448EF98CA7246B10954828292CE85C20666 BYTE 0xD7 0xBB 0xC4 SIGNEXTEND 0xEA PUSH5 0x736F6C6343 STOP ADDMOD LT STOP CALLER "
				},
				"gasEstimates": {
					"creation": {
						"codeDepositCost": "985000",
						"executionCost": "23127",
						"totalCost": "1008127"
					},
					"external": {
						"assertTruthWithDefaults(bytes)": "infinite",
						"assertionRequests(uint256)": "infinite",
						"getAssertion(uint256)": "infinite",
						"getAssertionResult(uint256)": "2900",
						"setAssertResult(uint256,bool)": "51752",
						"setAssertionId(uint256,bytes32)": "22821",
						"settleAssertion(uint256)": "infinite",
						"totalAssertions()": "2496"
					}
				},
				"methodIdentifiers": {
					"assertTruthWithDefaults(bytes)": "2c59e707",
					"assertionRequests(uint256)": "bb27bdec",
					"getAssertion(uint256)": "1d99e167",
					"getAssertionResult(uint256)": "adee9e00",
					"setAssertResult(uint256,bool)": "884e3f43",
					"setAssertionId(uint256,bytes32)": "b1a15891",
					"settleAssertion(uint256)": "14d82c04",
					"totalAssertions()": "3fbec59b"
				}
			},
			"storageLayout": {
				"storage": [
					{
						"astId": 55,
						"contract": "client-oracle/OptimisticOracleV3.sol:OptimisticOracleV3",
						"label": "totalAssertions",
						"offset": 0,
						"slot": "0",
						"type": "t_uint256"
					},
					{
						"astId": 76,
						"contract": "client-oracle/OptimisticOracleV3.sol:OptimisticOracleV3",
						"label": "assertionRequests",
						"offset": 0,
						"slot": "1",
						"type": "t_mapping(t_uint256,t_struct(AssertionRequest)71_storage)"
					}
				],
				"types": {
					"t_address": {
						"encoding": "inplace",
						"label": "address",
						"numberOfBytes": "20"
					},
					"t_bool": {
						"encoding": "inplace",
						"label": "bool",
						"numberOfBytes": "1"
					},
					"t_bytes32": {
						"encoding": "inplace",
						"label": "bytes32",
						"numberOfBytes": "32"
					},
					"t_bytes_storage": {
						"encoding": "bytes",
						"label": "bytes",
						"numberOfBytes": "32"
					},
					"t_enum(Status)59": {
						"encoding": "inplace",
						"label": "enum OptimisticOracleV3.Status",
						"numberOfBytes": "1"
					},
					"t_mapping(t_uint256,t_struct(AssertionRequest)71_storage)": {
						"encoding": "mapping",
						"key": "t_uint256",
						"label": "mapping(uint256 => struct OptimisticOracleV3.AssertionRequest)",
						"numberOfBytes": "32",
						"value": "t_struct(AssertionRequest)71_storage"
					},
					"t_struct(AssertionRequest)71_storage": {
						"encoding": "inplace",
						"label": "struct OptimisticOracleV3.AssertionRequest",
						"members": [
							{
								"astId": 61,
								"contract": "client-oracle/OptimisticOracleV3.sol:OptimisticOracleV3",
								"label": "assertionId",
								"offset": 0,
								"slot": "0",
								"type": "t_bytes32"
							},
							{
								"astId": 63,
								"contract": "client-oracle/OptimisticOracleV3.sol:OptimisticOracleV3",
								"label": "assertedClaim",
								"offset": 0,
								"slot": "1",
								"type": "t_bytes_storage"
							},
							{
								"astId": 65,
								"contract": "client-oracle/OptimisticOracleV3.sol:OptimisticOracleV3",
								"label": "requester",
								"offset": 0,
								"slot": "2",
								"type": "t_address"
							},
							{
								"astId": 67,
								"contract": "client-oracle/OptimisticOracleV3.sol:OptimisticOracleV3",
								"label": "result",
								"offset": 20,
								"slot": "2",
								"type": "t_bool"
							},
							{
								"astId": 70,
								"contract": "client-oracle/OptimisticOracleV3.sol:OptimisticOracleV3",
								"label": "currentStatus",
								"offset": 21,
								"slot": "2",
								"type": "t_enum(Status)59"
							}
						],
						"numberOfBytes": "96"
					},
					"t_uint256": {
						"encoding": "inplace",
						"label": "uint256",
						"numberOfBytes": "32"
					}
				}
			},
			"userdoc": {
				"kind": "user",
				"methods": {},
				"notice": "Add the conditions based on the status Getter Requests",
				"version": 1
			}
		}
	}
}