{
	"Test/OOV3.sol": {
		"OO_GettingStarted": {
			"abi": [
				{
					"inputs": [],
					"name": "assertTruth",
					"outputs": [],
					"stateMutability": "nonpayable",
					"type": "function"
				},
				{
					"inputs": [],
					"name": "assertedClaim",
					"outputs": [
						{
							"internalType": "bytes",
							"name": "",
							"type": "bytes"
						}
					],
					"stateMutability": "view",
					"type": "function"
				},
				{
					"inputs": [],
					"name": "assertionId",
					"outputs": [
						{
							"internalType": "uint256",
							"name": "",
							"type": "uint256"
						}
					],
					"stateMutability": "view",
					"type": "function"
				},
				{
					"inputs": [],
					"name": "getAssertionResult",
					"outputs": [
						{
							"internalType": "bool",
							"name": "",
							"type": "bool"
						}
					],
					"stateMutability": "view",
					"type": "function"
				},
				{
					"inputs": [],
					"name": "settleResult",
					"outputs": [],
					"stateMutability": "nonpayable",
					"type": "function"
				}
			],
			"devdoc": {
				"kind": "dev",
				"methods": {},
				"version": 1
			},
			"evm": {
				"assembly": "    /* \"Test/OOV3.sol\":596:2379  contract OO_GettingStarted {... */\n  mstore(0x40, 0x80)\n    /* \"Test/OOV3.sol\":753:795  0x9923D42eF695B5dd9911D05Ac944d4cAca3c4EAB */\n  0x9923d42ef695b5dd9911d05ac944d4caca3c4eab\n    /* \"Test/OOV3.sol\":710:796  OptimisticOracleV3 oa = OptimisticOracleV3(0x9923D42eF695B5dd9911D05Ac944d4cAca3c4EAB) */\n  0x00\n  dup1\n  0x0100\n  exp\n  dup2\n  sload\n  dup2\n  0xffffffffffffffffffffffffffffffffffffffff\n  mul\n  not\n  and\n  swap1\n  dup4\n  0xffffffffffffffffffffffffffffffffffffffff\n  and\n  mul\n  or\n  swap1\n  sstore\n  pop\n    /* \"Test/OOV3.sol\":957:1012  bytes(\"Argentina won the 2022 Fifa world cup in Qatar\") */\n  mload(0x40)\n  dup1\n  0x60\n  add\n  0x40\n  mstore\n  dup1\n  0x2e\n  dup2\n  mstore\n  0x20\n  add\n  data_e27adcbf19cbc7524b47a166a81f830c58e2486bd3598e5660bb98caefb36d48\n  0x2e\n  swap2\n  codecopy\n    /* \"Test/OOV3.sol\":920:1012  bytes public assertedClaim =... */\n  0x01\n  swap1\n  dup2\n  tag_1\n  swap2\n  swap1\n  tag_2\n  jump\t// in\ntag_1:\n  pop\n    /* \"Test/OOV3.sol\":596:2379  contract OO_GettingStarted {... */\n  callvalue\n  dup1\n  iszero\n  tag_3\n  jumpi\n  0x00\n  dup1\n  revert\ntag_3:\n  pop\n  jump(tag_4)\n    /* \"#utility.yul\":7:105   */\ntag_5:\n    /* \"#utility.yul\":58:64   */\n  0x00\n    /* \"#utility.yul\":92:97   */\n  dup2\n    /* \"#utility.yul\":86:98   */\n  mload\n    /* \"#utility.yul\":76:98   */\n  swap1\n  pop\n    /* \"#utility.yul\":7:105   */\n  swap2\n  swap1\n  pop\n  jump\t// out\n    /* \"#utility.yul\":111:291   */\ntag_6:\n    /* \"#utility.yul\":159:236   */\n  0x4e487b7100000000000000000000000000000000000000000000000000000000\n    /* \"#utility.yul\":156:157   */\n  0x00\n    /* \"#utility.yul\":149:237   */\n  mstore\n    /* \"#utility.yul\":256:260   */\n  0x41\n    /* \"#utility.yul\":253:254   */\n  0x04\n    /* \"#utility.yul\":246:261   */\n  mstore\n    /* \"#utility.yul\":280:284   */\n  0x24\n    /* \"#utility.yul\":277:278   */\n  0x00\n    /* \"#utility.yul\":270:285   */\n  revert\n    /* \"#utility.yul\":297:477   */\ntag_7:\n    /* \"#utility.yul\":345:422   */\n  0x4e487b7100000000000000000000000000000000000000000000000000000000\n    /* \"#utility.yul\":342:343   */\n  0x00\n    /* \"#utility.yul\":335:423   */\n  mstore\n    /* \"#utility.yul\":442:446   */\n  0x22\n    /* \"#utility.yul\":439:440   */\n  0x04\n    /* \"#utility.yul\":432:447   */\n  mstore\n    /* \"#utility.yul\":466:470   */\n  0x24\n    /* \"#utility.yul\":463:464   */\n  0x00\n    /* \"#utility.yul\":456:471   */\n  revert\n    /* \"#utility.yul\":483:803   */\ntag_8:\n    /* \"#utility.yul\":527:533   */\n  0x00\n    /* \"#utility.yul\":564:565   */\n  0x02\n    /* \"#utility.yul\":558:562   */\n  dup3\n    /* \"#utility.yul\":554:566   */\n  div\n    /* \"#utility.yul\":544:566   */\n  swap1\n  pop\n    /* \"#utility.yul\":611:612   */\n  0x01\n    /* \"#utility.yul\":605:609   */\n  dup3\n    /* \"#utility.yul\":601:613   */\n  and\n    /* \"#utility.yul\":632:650   */\n  dup1\n    /* \"#utility.yul\":622:703   */\n  tag_30\n  jumpi\n    /* \"#utility.yul\":688:692   */\n  0x7f\n    /* \"#utility.yul\":680:686   */\n  dup3\n    /* \"#utility.yul\":676:693   */\n  and\n    /* \"#utility.yul\":666:693   */\n  swap2\n  pop\n    /* \"#utility.yul\":622:703   */\ntag_30:\n    /* \"#utility.yul\":750:752   */\n  0x20\n    /* \"#utility.yul\":742:748   */\n  dup3\n    /* \"#utility.yul\":739:753   */\n  lt\n    /* \"#utility.yul\":719:737   */\n  dup2\n    /* \"#utility.yul\":716:754   */\n  sub\n    /* \"#utility.yul\":713:797   */\n  tag_31\n  jumpi\n    /* \"#utility.yul\":769:787   */\n  tag_32\n  tag_7\n  jump\t// in\ntag_32:\n    /* \"#utility.yul\":713:797   */\ntag_31:\n    /* \"#utility.yul\":534:803   */\n  pop\n    /* \"#utility.yul\":483:803   */\n  swap2\n  swap1\n  pop\n  jump\t// out\n    /* \"#utility.yul\":809:949   */\ntag_9:\n    /* \"#utility.yul\":857:861   */\n  0x00\n    /* \"#utility.yul\":880:883   */\n  dup2\n    /* \"#utility.yul\":872:883   */\n  swap1\n  pop\n    /* \"#utility.yul\":903:906   */\n  dup2\n    /* \"#utility.yul\":900:901   */\n  0x00\n    /* \"#utility.yul\":893:907   */\n  mstore\n    /* \"#utility.yul\":937:941   */\n  0x20\n    /* \"#utility.yul\":934:935   */\n  0x00\n    /* \"#utility.yul\":924:942   */\n  keccak256\n    /* \"#utility.yul\":916:942   */\n  swap1\n  pop\n    /* \"#utility.yul\":809:949   */\n  swap2\n  swap1\n  pop\n  jump\t// out\n    /* \"#utility.yul\":955:1048   */\ntag_10:\n    /* \"#utility.yul\":992:998   */\n  0x00\n    /* \"#utility.yul\":1039:1041   */\n  0x20\n    /* \"#utility.yul\":1034:1036   */\n  0x1f\n    /* \"#utility.yul\":1027:1032   */\n  dup4\n    /* \"#utility.yul\":1023:1037   */\n  add\n    /* \"#utility.yul\":1019:1042   */\n  div\n    /* \"#utility.yul\":1009:1042   */\n  swap1\n  pop\n    /* \"#utility.yul\":955:1048   */\n  swap2\n  swap1\n  pop\n  jump\t// out\n    /* \"#utility.yul\":1054:1161   */\ntag_11:\n    /* \"#utility.yul\":1098:1106   */\n  0x00\n    /* \"#utility.yul\":1148:1153   */\n  dup3\n    /* \"#utility.yul\":1142:1146   */\n  dup3\n    /* \"#utility.yul\":1138:1154   */\n  shl\n    /* \"#utility.yul\":1117:1154   */\n  swap1\n  pop\n    /* \"#utility.yul\":1054:1161   */\n  swap3\n  swap2\n  pop\n  pop\n  jump\t// out\n    /* \"#utility.yul\":1167:1560   */\ntag_12:\n    /* \"#utility.yul\":1236:1242   */\n  0x00\n    /* \"#utility.yul\":1286:1287   */\n  0x08\n    /* \"#utility.yul\":1274:1284   */\n  dup4\n    /* \"#utility.yul\":1270:1288   */\n  mul\n    /* \"#utility.yul\":1309:1406   */\n  tag_37\n    /* \"#utility.yul\":1339:1405   */\n  0xffffffffffffffffffffffffffffffffffffffffffffffffffffffffffffffff\n    /* \"#utility.yul\":1328:1337   */\n  dup3\n    /* \"#utility.yul\":1309:1406   */\n  tag_11\n  jump\t// in\ntag_37:\n    /* \"#utility.yul\":1427:1466   */\n  tag_38\n    /* \"#utility.yul\":1457:1465   */\n  dup7\n    /* \"#utility.yul\":1446:1455   */\n  dup4\n    /* \"#utility.yul\":1427:1466   */\n  tag_11\n  jump\t// in\ntag_38:\n    /* \"#utility.yul\":1415:1466   */\n  swap6\n  pop\n    /* \"#utility.yul\":1499:1503   */\n  dup1\n    /* \"#utility.yul\":1495:1504   */\n  not\n    /* \"#utility.yul\":1488:1493   */\n  dup5\n    /* \"#utility.yul\":1484:1505   */\n  and\n    /* \"#utility.yul\":1475:1505   */\n  swap4\n  pop\n    /* \"#utility.yul\":1548:1552   */\n  dup1\n    /* \"#utility.yul\":1538:1546   */\n  dup7\n    /* \"#utility.yul\":1534:1553   */\n  and\n    /* \"#utility.yul\":1527:1532   */\n  dup5\n    /* \"#utility.yul\":1524:1554   */\n  or\n    /* \"#utility.yul\":1514:1554   */\n  swap3\n  pop\n    /* \"#utility.yul\":1243:1560   */\n  pop\n  pop\n    /* \"#utility.yul\":1167:1560   */\n  swap4\n  swap3\n  pop\n  pop\n  pop\n  jump\t// out\n    /* \"#utility.yul\":1566:1643   */\ntag_13:\n    /* \"#utility.yul\":1603:1610   */\n  0x00\n    /* \"#utility.yul\":1632:1637   */\n  dup2\n    /* \"#utility.yul\":1621:1637   */\n  swap1\n  pop\n    /* \"#utility.yul\":1566:1643   */\n  swap2\n  swap1\n  pop\n  jump\t// out\n    /* \"#utility.yul\":1649:1709   */\ntag_14:\n    /* \"#utility.yul\":1677:1680   */\n  0x00\n    /* \"#utility.yul\":1698:1703   */\n  dup2\n    /* \"#utility.yul\":1691:1703   */\n  swap1\n  pop\n    /* \"#utility.yul\":1649:1709   */\n  swap2\n  swap1\n  pop\n  jump\t// out\n    /* \"#utility.yul\":1715:1857   */\ntag_15:\n    /* \"#utility.yul\":1765:1774   */\n  0x00\n    /* \"#utility.yul\":1798:1851   */\n  tag_42\n    /* \"#utility.yul\":1816:1850   */\n  tag_43\n    /* \"#utility.yul\":1825:1849   */\n  tag_44\n    /* \"#utility.yul\":1843:1848   */\n  dup5\n    /* \"#utility.yul\":1825:1849   */\n  tag_13\n  jump\t// in\ntag_44:\n    /* \"#utility.yul\":1816:1850   */\n  tag_14\n  jump\t// in\ntag_43:\n    /* \"#utility.yul\":1798:1851   */\n  tag_13\n  jump\t// in\ntag_42:\n    /* \"#utility.yul\":1785:1851   */\n  swap1\n  pop\n    /* \"#utility.yul\":1715:1857   */\n  swap2\n  swap1\n  pop\n  jump\t// out\n    /* \"#utility.yul\":1863:1938   */\ntag_16:\n    /* \"#utility.yul\":1906:1909   */\n  0x00\n    /* \"#utility.yul\":1927:1932   */\n  dup2\n    /* \"#utility.yul\":1920:1932   */\n  swap1\n  pop\n    /* \"#utility.yul\":1863:1938   */\n  swap2\n  swap1\n  pop\n  jump\t// out\n    /* \"#utility.yul\":1944:2213   */\ntag_17:\n    /* \"#utility.yul\":2054:2093   */\n  tag_47\n    /* \"#utility.yul\":2085:2092   */\n  dup4\n    /* \"#utility.yul\":2054:2093   */\n  tag_15\n  jump\t// in\ntag_47:\n    /* \"#utility.yul\":2115:2206   */\n  tag_48\n    /* \"#utility.yul\":2164:2205   */\n  tag_49\n    /* \"#utility.yul\":2188:2204   */\n  dup3\n    /* \"#utility.yul\":2164:2205   */\n  tag_16\n  jump\t// in\ntag_49:\n    /* \"#utility.yul\":2156:2162   */\n  dup5\n    /* \"#utility.yul\":2149:2153   */\n  dup5\n    /* \"#utility.yul\":2143:2154   */\n  sload\n    /* \"#utility.yul\":2115:2206   */\n  tag_12\n  jump\t// in\ntag_48:\n    /* \"#utility.yul\":2109:2113   */\n  dup3\n    /* \"#utility.yul\":2102:2207   */\n  sstore\n    /* \"#utility.yul\":2020:2213   */\n  pop\n    /* \"#utility.yul\":1944:2213   */\n  pop\n  pop\n  pop\n  jump\t// out\n    /* \"#utility.yul\":2219:2292   */\ntag_18:\n    /* \"#utility.yul\":2264:2267   */\n  0x00\n    /* \"#utility.yul\":2219:2292   */\n  swap1\n  jump\t// out\n    /* \"#utility.yul\":2298:2487   */\ntag_19:\n    /* \"#utility.yul\":2375:2407   */\n  tag_52\n  tag_18\n  jump\t// in\ntag_52:\n    /* \"#utility.yul\":2416:2481   */\n  tag_53\n    /* \"#utility.yul\":2474:2480   */\n  dup2\n    /* \"#utility.yul\":2466:2472   */\n  dup5\n    /* \"#utility.yul\":2460:2464   */\n  dup5\n    /* \"#utility.yul\":2416:2481   */\n  tag_17\n  jump\t// in\ntag_53:\n    /* \"#utility.yul\":2351:2487   */\n  pop\n    /* \"#utility.yul\":2298:2487   */\n  pop\n  pop\n  jump\t// out\n    /* \"#utility.yul\":2493:2679   */\ntag_20:\n    /* \"#utility.yul\":2553:2673   */\ntag_55:\n    /* \"#utility.yul\":2570:2573   */\n  dup2\n    /* \"#utility.yul\":2563:2568   */\n  dup2\n    /* \"#utility.yul\":2560:2574   */\n  lt\n    /* \"#utility.yul\":2553:2673   */\n  iszero\n  tag_57\n  jumpi\n    /* \"#utility.yul\":2624:2663   */\n  tag_58\n    /* \"#utility.yul\":2661:2662   */\n  0x00\n    /* \"#utility.yul\":2654:2659   */\n  dup3\n    /* \"#utility.yul\":2624:2663   */\n  tag_19\n  jump\t// in\ntag_58:\n    /* \"#utility.yul\":2597:2598   */\n  0x01\n    /* \"#utility.yul\":2590:2595   */\n  dup2\n    /* \"#utility.yul\":2586:2599   */\n  add\n    /* \"#utility.yul\":2577:2599   */\n  swap1\n  pop\n    /* \"#utility.yul\":2553:2673   */\n  jump(tag_55)\ntag_57:\n    /* \"#utility.yul\":2493:2679   */\n  pop\n  pop\n  jump\t// out\n    /* \"#utility.yul\":2685:3226   */\ntag_21:\n    /* \"#utility.yul\":2785:2787   */\n  0x1f\n    /* \"#utility.yul\":2780:2783   */\n  dup3\n    /* \"#utility.yul\":2777:2788   */\n  gt\n    /* \"#utility.yul\":2774:3219   */\n  iszero\n  tag_60\n  jumpi\n    /* \"#utility.yul\":2819:2856   */\n  tag_61\n    /* \"#utility.yul\":2850:2855   */\n  dup2\n    /* \"#utility.yul\":2819:2856   */\n  tag_9\n  jump\t// in\ntag_61:\n    /* \"#utility.yul\":2902:2931   */\n  tag_62\n    /* \"#utility.yul\":2920:2930   */\n  dup5\n    /* \"#utility.yul\":2902:2931   */\n  tag_10\n  jump\t// in\ntag_62:\n    /* \"#utility.yul\":2892:2900   */\n  dup2\n    /* \"#utility.yul\":2888:2932   */\n  add\n    /* \"#utility.yul\":3085:3087   */\n  0x20\n    /* \"#utility.yul\":3073:3083   */\n  dup6\n    /* \"#utility.yul\":3070:3088   */\n  lt\n    /* \"#utility.yul\":3067:3116   */\n  iszero\n  tag_63\n  jumpi\n    /* \"#utility.yul\":3106:3114   */\n  dup2\n    /* \"#utility.yul\":3091:3114   */\n  swap1\n  pop\n    /* \"#utility.yul\":3067:3116   */\ntag_63:\n    /* \"#utility.yul\":3129:3209   */\n  tag_64\n    /* \"#utility.yul\":3185:3207   */\n  tag_65\n    /* \"#utility.yul\":3203:3206   */\n  dup6\n    /* \"#utility.yul\":3185:3207   */\n  tag_10\n  jump\t// in\ntag_65:\n    /* \"#utility.yul\":3175:3183   */\n  dup4\n    /* \"#utility.yul\":3171:3208   */\n  add\n    /* \"#utility.yul\":3158:3169   */\n  dup3\n    /* \"#utility.yul\":3129:3209   */\n  tag_20\n  jump\t// in\ntag_64:\n    /* \"#utility.yul\":2789:3219   */\n  pop\n  pop\n    /* \"#utility.yul\":2774:3219   */\ntag_60:\n    /* \"#utility.yul\":2685:3226   */\n  pop\n  pop\n  pop\n  jump\t// out\n    /* \"#utility.yul\":3232:3349   */\ntag_22:\n    /* \"#utility.yul\":3286:3294   */\n  0x00\n    /* \"#utility.yul\":3336:3341   */\n  dup3\n    /* \"#utility.yul\":3330:3334   */\n  dup3\n    /* \"#utility.yul\":3326:3342   */\n  shr\n    /* \"#utility.yul\":3305:3342   */\n  swap1\n  pop\n    /* \"#utility.yul\":3232:3349   */\n  swap3\n  swap2\n  pop\n  pop\n  jump\t// out\n    /* \"#utility.yul\":3355:3524   */\ntag_23:\n    /* \"#utility.yul\":3399:3405   */\n  0x00\n    /* \"#utility.yul\":3432:3483   */\n  tag_68\n    /* \"#utility.yul\":3480:3481   */\n  0x00\n    /* \"#utility.yul\":3476:3482   */\n  not\n    /* \"#utility.yul\":3468:3473   */\n  dup5\n    /* \"#utility.yul\":3465:3466   */\n  0x08\n    /* \"#utility.yul\":3461:3474   */\n  mul\n    /* \"#utility.yul\":3432:3483   */\n  tag_22\n  jump\t// in\ntag_68:\n    /* \"#utility.yul\":3428:3484   */\n  not\n    /* \"#utility.yul\":3513:3517   */\n  dup1\n    /* \"#utility.yul\":3507:3511   */\n  dup4\n    /* \"#utility.yul\":3503:3518   */\n  and\n    /* \"#utility.yul\":3493:3518   */\n  swap2\n  pop\n    /* \"#utility.yul\":3406:3524   */\n  pop\n    /* \"#utility.yul\":3355:3524   */\n  swap3\n  swap2\n  pop\n  pop\n  jump\t// out\n    /* \"#utility.yul\":3529:3824   */\ntag_24:\n    /* \"#utility.yul\":3605:3609   */\n  0x00\n    /* \"#utility.yul\":3751:3780   */\n  tag_70\n    /* \"#utility.yul\":3776:3779   */\n  dup4\n    /* \"#utility.yul\":3770:3774   */\n  dup4\n    /* \"#utility.yul\":3751:3780   */\n  tag_23\n  jump\t// in\ntag_70:\n    /* \"#utility.yul\":3743:3780   */\n  swap2\n  pop\n    /* \"#utility.yul\":3813:3816   */\n  dup3\n    /* \"#utility.yul\":3810:3811   */\n  0x02\n    /* \"#utility.yul\":3806:3817   */\n  mul\n    /* \"#utility.yul\":3800:3804   */\n  dup3\n    /* \"#utility.yul\":3797:3818   */\n  or\n    /* \"#utility.yul\":3789:3818   */\n  swap1\n  pop\n    /* \"#utility.yul\":3529:3824   */\n  swap3\n  swap2\n  pop\n  pop\n  jump\t// out\n    /* \"#utility.yul\":3829:5219   */\ntag_2:\n    /* \"#utility.yul\":3944:3980   */\n  tag_72\n    /* \"#utility.yul\":3976:3979   */\n  dup3\n    /* \"#utility.yul\":3944:3980   */\n  tag_5\n  jump\t// in\ntag_72:\n    /* \"#utility.yul\":4045:4063   */\n  0xffffffffffffffff\n    /* \"#utility.yul\":4037:4043   */\n  dup2\n    /* \"#utility.yul\":4034:4064   */\n  gt\n    /* \"#utility.yul\":4031:4087   */\n  iszero\n  tag_73\n  jumpi\n    /* \"#utility.yul\":4067:4085   */\n  tag_74\n  tag_6\n  jump\t// in\ntag_74:\n    /* \"#utility.yul\":4031:4087   */\ntag_73:\n    /* \"#utility.yul\":4111:4149   */\n  tag_75\n    /* \"#utility.yul\":4143:4147   */\n  dup3\n    /* \"#utility.yul\":4137:4148   */\n  sload\n    /* \"#utility.yul\":4111:4149   */\n  tag_8\n  jump\t// in\ntag_75:\n    /* \"#utility.yul\":4196:4262   */\n  tag_76\n    /* \"#utility.yul\":4255:4261   */\n  dup3\n    /* \"#utility.yul\":4247:4253   */\n  dup3\n    /* \"#utility.yul\":4241:4245   */\n  dup6\n    /* \"#utility.yul\":4196:4262   */\n  tag_21\n  jump\t// in\ntag_76:\n    /* \"#utility.yul\":4289:4290   */\n  0x00\n    /* \"#utility.yul\":4313:4317   */\n  0x20\n    /* \"#utility.yul\":4300:4317   */\n  swap1\n  pop\n    /* \"#utility.yul\":4345:4347   */\n  0x1f\n    /* \"#utility.yul\":4337:4343   */\n  dup4\n    /* \"#utility.yul\":4334:4348   */\n  gt\n    /* \"#utility.yul\":4362:4363   */\n  0x01\n    /* \"#utility.yul\":4357:4974   */\n  dup2\n  eq\n  tag_78\n  jumpi\n    /* \"#utility.yul\":5018:5019   */\n  0x00\n    /* \"#utility.yul\":5035:5041   */\n  dup5\n    /* \"#utility.yul\":5032:5109   */\n  iszero\n  tag_79\n  jumpi\n    /* \"#utility.yul\":5084:5093   */\n  dup3\n    /* \"#utility.yul\":5079:5082   */\n  dup8\n    /* \"#utility.yul\":5075:5094   */\n  add\n    /* \"#utility.yul\":5069:5095   */\n  mload\n    /* \"#utility.yul\":5060:5095   */\n  swap1\n  pop\n    /* \"#utility.yul\":5032:5109   */\ntag_79:\n    /* \"#utility.yul\":5135:5202   */\n  tag_80\n    /* \"#utility.yul\":5195:5201   */\n  dup6\n    /* \"#utility.yul\":5188:5193   */\n  dup3\n    /* \"#utility.yul\":5135:5202   */\n  tag_24\n  jump\t// in\ntag_80:\n    /* \"#utility.yul\":5129:5133   */\n  dup7\n    /* \"#utility.yul\":5122:5203   */\n  sstore\n    /* \"#utility.yul\":4991:5213   */\n  pop\n    /* \"#utility.yul\":4327:5213   */\n  jump(tag_77)\n    /* \"#utility.yul\":4357:4974   */\ntag_78:\n    /* \"#utility.yul\":4409:4413   */\n  0x1f\n    /* \"#utility.yul\":4405:4414   */\n  not\n    /* \"#utility.yul\":4397:4403   */\n  dup5\n    /* \"#utility.yul\":4393:4415   */\n  and\n    /* \"#utility.yul\":4443:4479   */\n  tag_81\n    /* \"#utility.yul\":4474:4478   */\n  dup7\n    /* \"#utility.yul\":4443:4479   */\n  tag_9\n  jump\t// in\ntag_81:\n    /* \"#utility.yul\":4501:4502   */\n  0x00\n    /* \"#utility.yul\":4515:4723   */\ntag_82:\n    /* \"#utility.yul\":4529:4536   */\n  dup3\n    /* \"#utility.yul\":4526:4527   */\n  dup2\n    /* \"#utility.yul\":4523:4537   */\n  lt\n    /* \"#utility.yul\":4515:4723   */\n  iszero\n  tag_84\n  jumpi\n    /* \"#utility.yul\":4608:4617   */\n  dup5\n    /* \"#utility.yul\":4603:4606   */\n  dup10\n    /* \"#utility.yul\":4599:4618   */\n  add\n    /* \"#utility.yul\":4593:4619   */\n  mload\n    /* \"#utility.yul\":4585:4591   */\n  dup3\n    /* \"#utility.yul\":4578:4620   */\n  sstore\n    /* \"#utility.yul\":4659:4660   */\n  0x01\n    /* \"#utility.yul\":4651:4657   */\n  dup3\n    /* \"#utility.yul\":4647:4661   */\n  add\n    /* \"#utility.yul\":4637:4661   */\n  swap2\n  pop\n    /* \"#utility.yul\":4706:4708   */\n  0x20\n    /* \"#utility.yul\":4695:4704   */\n  dup6\n    /* \"#utility.yul\":4691:4709   */\n  add\n    /* \"#utility.yul\":4678:4709   */\n  swap5\n  pop\n    /* \"#utility.yul\":4552:4556   */\n  0x20\n    /* \"#utility.yul\":4549:4550   */\n  dup2\n    /* \"#utility.yul\":4545:4557   */\n  add\n    /* \"#utility.yul\":4540:4557   */\n  swap1\n  pop\n    /* \"#utility.yul\":4515:4723   */\n  jump(tag_82)\ntag_84:\n    /* \"#utility.yul\":4751:4757   */\n  dup7\n    /* \"#utility.yul\":4742:4749   */\n  dup4\n    /* \"#utility.yul\":4739:4758   */\n  lt\n    /* \"#utility.yul\":4736:4915   */\n  iszero\n  tag_85\n  jumpi\n    /* \"#utility.yul\":4809:4818   */\n  dup5\n    /* \"#utility.yul\":4804:4807   */\n  dup10\n    /* \"#utility.yul\":4800:4819   */\n  add\n    /* \"#utility.yul\":4794:4820   */\n  mload\n    /* \"#utility.yul\":4852:4900   */\n  tag_86\n    /* \"#utility.yul\":4894:4898   */\n  0x1f\n    /* \"#utility.yul\":4886:4892   */\n  dup10\n    /* \"#utility.yul\":4882:4899   */\n  and\n    /* \"#utility.yul\":4871:4880   */\n  dup3\n    /* \"#utility.yul\":4852:4900   */\n  tag_23\n  jump\t// in\ntag_86:\n    /* \"#utility.yul\":4844:4850   */\n  dup4\n    /* \"#utility.yul\":4837:4901   */\n  sstore\n    /* \"#utility.yul\":4759:4915   */\n  pop\n    /* \"#utility.yul\":4736:4915   */\ntag_85:\n    /* \"#utility.yul\":4961:4962   */\n  0x01\n    /* \"#utility.yul\":4957:4958   */\n  0x02\n    /* \"#utility.yul\":4949:4955   */\n  dup9\n    /* \"#utility.yul\":4945:4959   */\n  mul\n    /* \"#utility.yul\":4941:4963   */\n  add\n    /* \"#utility.yul\":4935:4939   */\n  dup9\n    /* \"#utility.yul\":4928:4964   */\n  sstore\n    /* \"#utility.yul\":4364:4974   */\n  pop\n  pop\n  pop\n    /* \"#utility.yul\":4327:5213   */\ntag_77:\n  pop\n    /* \"#utility.yul\":3919:5219   */\n  pop\n  pop\n  pop\n    /* \"#utility.yul\":3829:5219   */\n  pop\n  pop\n  jump\t// out\n    /* \"Test/OOV3.sol\":596:2379  contract OO_GettingStarted {... */\ntag_4:\n  dataSize(sub_0)\n  dup1\n  dataOffset(sub_0)\n  0x00\n  codecopy\n  0x00\n  return\nstop\ndata_e27adcbf19cbc7524b47a166a81f830c58e2486bd3598e5660bb98caefb36d48 417267656e74696e6120776f6e207468652032303232204669666120776f726c642063757020696e205161746172\n\nsub_0: assembly {\n        /* \"Test/OOV3.sol\":596:2379  contract OO_GettingStarted {... */\n      mstore(0x40, 0x80)\n      callvalue\n      dup1\n      iszero\n      tag_1\n      jumpi\n      0x00\n      dup1\n      revert\n    tag_1:\n      pop\n      jumpi(tag_2, lt(calldatasize, 0x04))\n      shr(0xe0, calldataload(0x00))\n      dup1\n      0x0d80da74\n      eq\n      tag_3\n      jumpi\n      dup1\n      0x3421390b\n      eq\n      tag_4\n      jumpi\n      dup1\n      0x7facaf3f\n      eq\n      tag_5\n      jumpi\n      dup1\n      0xae0190ee\n      eq\n      tag_6\n      jumpi\n      dup1\n      0xc1a8ec2c\n      eq\n      tag_7\n      jumpi\n    tag_2:\n      0x00\n      dup1\n      revert\n        /* \"Test/OOV3.sol\":1135:1158  uint public assertionId */\n    tag_3:\n      tag_8\n      tag_9\n      jump\t// in\n    tag_8:\n      mload(0x40)\n      tag_10\n      swap2\n      swap1\n      tag_11\n      jump\t// in\n    tag_10:\n      mload(0x40)\n      dup1\n      swap2\n      sub\n      swap1\n      return\n        /* \"Test/OOV3.sol\":1521:1623  function assertTruth() public {... */\n    tag_4:\n      tag_12\n      tag_13\n      jump\t// in\n    tag_12:\n      stop\n        /* \"Test/OOV3.sol\":1945:2060  function getAssertionResult() public view returns (bool) {... */\n    tag_5:\n      tag_14\n      tag_15\n      jump\t// in\n    tag_14:\n      mload(0x40)\n      tag_16\n      swap2\n      swap1\n      tag_17\n      jump\t// in\n    tag_16:\n      mload(0x40)\n      dup1\n      swap2\n      sub\n      swap1\n      return\n        /* \"Test/OOV3.sol\":1763:1842  function settleResult() public {... */\n    tag_6:\n      tag_18\n      tag_19\n      jump\t// in\n    tag_18:\n      stop\n        /* \"Test/OOV3.sol\":920:1012  bytes public assertedClaim =... */\n    tag_7:\n      tag_20\n      tag_21\n      jump\t// in\n    tag_20:\n      mload(0x40)\n      tag_22\n      swap2\n      swap1\n      tag_23\n      jump\t// in\n    tag_22:\n      mload(0x40)\n      dup1\n      swap2\n      sub\n      swap1\n      return\n        /* \"Test/OOV3.sol\":1135:1158  uint public assertionId */\n    tag_9:\n      sload(0x02)\n      dup2\n      jump\t// out\n        /* \"Test/OOV3.sol\":1521:1623  function assertTruth() public {... */\n    tag_13:\n        /* \"Test/OOV3.sol\":1575:1577  oa */\n      0x00\n      dup1\n      sload\n      swap1\n      0x0100\n      exp\n      swap1\n      div\n      0xffffffffffffffffffffffffffffffffffffffff\n      and\n        /* \"Test/OOV3.sol\":1575:1601  oa.assertTruthWithDefaults */\n      0xffffffffffffffffffffffffffffffffffffffff\n      and\n      0x2c59e707\n        /* \"Test/OOV3.sol\":1602:1615  assertedClaim */\n      0x01\n        /* \"Test/OOV3.sol\":1575:1616  oa.assertTruthWithDefaults(assertedClaim) */\n      mload(0x40)\n      dup3\n      0xffffffff\n      and\n      0xe0\n      shl\n      dup2\n      mstore\n      0x04\n      add\n      tag_25\n      swap2\n      swap1\n      tag_26\n      jump\t// in\n    tag_25:\n      0x20\n      mload(0x40)\n      dup1\n      dup4\n      sub\n      dup2\n      0x00\n      dup8\n      gas\n      call\n      iszero\n      dup1\n      iszero\n      tag_28\n      jumpi\n      returndatasize\n      0x00\n      dup1\n      returndatacopy\n      revert(0x00, returndatasize)\n    tag_28:\n      pop\n      pop\n      pop\n      pop\n      mload(0x40)\n      returndatasize\n      not(0x1f)\n      0x1f\n      dup3\n      add\n      and\n      dup3\n      add\n      dup1\n      0x40\n      mstore\n      pop\n      dup2\n      add\n      swap1\n      tag_29\n      swap2\n      swap1\n      tag_30\n      jump\t// in\n    tag_29:\n        /* \"Test/OOV3.sol\":1561:1572  assertionId */\n      0x02\n        /* \"Test/OOV3.sol\":1561:1616  assertionId = oa.assertTruthWithDefaults(assertedClaim) */\n      dup2\n      swap1\n      sstore\n      pop\n        /* \"Test/OOV3.sol\":1521:1623  function assertTruth() public {... */\n      jump\t// out\n        /* \"Test/OOV3.sol\":1945:2060  function getAssertionResult() public view returns (bool) {... */\n    tag_15:\n        /* \"Test/OOV3.sol\":1996:2000  bool */\n      0x00\n        /* \"Test/OOV3.sol\":2019:2021  oa */\n      dup1\n      0x00\n      swap1\n      sload\n      swap1\n      0x0100\n      exp\n      swap1\n      div\n      0xffffffffffffffffffffffffffffffffffffffff\n      and\n        /* \"Test/OOV3.sol\":2019:2040  oa.getAssertionResult */\n      0xffffffffffffffffffffffffffffffffffffffff\n      and\n      0xadee9e00\n        /* \"Test/OOV3.sol\":2041:2052  assertionId */\n      sload(0x02)\n        /* \"Test/OOV3.sol\":2019:2053  oa.getAssertionResult(assertionId) */\n      mload(0x40)\n      dup3\n      0xffffffff\n      and\n      0xe0\n      shl\n      dup2\n      mstore\n      0x04\n      add\n      tag_32\n      swap2\n      swap1\n      tag_11\n      jump\t// in\n    tag_32:\n      0x20\n      mload(0x40)\n      dup1\n      dup4\n      sub\n      dup2\n      dup7\n      gas\n      staticcall\n      iszero\n      dup1\n      iszero\n      tag_34\n      jumpi\n      returndatasize\n      0x00\n      dup1\n      returndatacopy\n      revert(0x00, returndatasize)\n    tag_34:\n      pop\n      pop\n      pop\n      pop\n      mload(0x40)\n      returndatasize\n      not(0x1f)\n      0x1f\n      dup3\n      add\n      and\n      dup3\n      add\n      dup1\n      0x40\n      mstore\n      pop\n      dup2\n      add\n      swap1\n      tag_35\n      swap2\n      swap1\n      tag_36\n      jump\t// in\n    tag_35:\n        /* \"Test/OOV3.sol\":2012:2053  return oa.getAssertionResult(assertionId) */\n      swap1\n      pop\n        /* \"Test/OOV3.sol\":1945:2060  function getAssertionResult() public view returns (bool) {... */\n      swap1\n      jump\t// out\n        /* \"Test/OOV3.sol\":1763:1842  function settleResult() public {... */\n    tag_19:\n        /* \"Test/OOV3.sol\":1804:1806  oa */\n      0x00\n      dup1\n      sload\n      swap1\n      0x0100\n      exp\n      swap1\n      div\n      0xffffffffffffffffffffffffffffffffffffffff\n      and\n        /* \"Test/OOV3.sol\":1804:1822  oa.settleAssertion */\n      0xffffffffffffffffffffffffffffffffffffffff\n      and\n      0x14d82c04\n        /* \"Test/OOV3.sol\":1823:1834  assertionId */\n      sload(0x02)\n        /* \"Test/OOV3.sol\":1804:1835  oa.settleAssertion(assertionId) */\n      mload(0x40)\n      dup3\n      0xffffffff\n      and\n      0xe0\n      shl\n      dup2\n      mstore\n      0x04\n      add\n      tag_38\n      swap2\n      swap1\n      tag_11\n      jump\t// in\n    tag_38:\n      0x00\n      mload(0x40)\n      dup1\n      dup4\n      sub\n      dup2\n      0x00\n      dup8\n      dup1\n      extcodesize\n      iszero\n      dup1\n      iszero\n      tag_39\n      jumpi\n      0x00\n      dup1\n      revert\n    tag_39:\n      pop\n      gas\n      call\n      iszero\n      dup1\n      iszero\n      tag_41\n      jumpi\n      returndatasize\n      0x00\n      dup1\n      returndatacopy\n      revert(0x00, returndatasize)\n    tag_41:\n      pop\n      pop\n      pop\n      pop\n        /* \"Test/OOV3.sol\":1763:1842  function settleResult() public {... */\n      jump\t// out\n        /* \"Test/OOV3.sol\":920:1012  bytes public assertedClaim =... */\n    tag_21:\n      0x01\n      dup1\n      sload\n      tag_42\n      swap1\n      tag_43\n      jump\t// in\n    tag_42:\n      dup1\n      0x1f\n      add\n      0x20\n      dup1\n      swap2\n      div\n      mul\n      0x20\n      add\n      mload(0x40)\n      swap1\n      dup2\n      add\n      0x40\n      mstore\n      dup1\n      swap3\n      swap2\n      swap1\n      dup2\n      dup2\n      mstore\n      0x20\n      add\n      dup3\n      dup1\n      sload\n      tag_44\n      swap1\n      tag_43\n      jump\t// in\n    tag_44:\n      dup1\n      iszero\n      tag_45\n      jumpi\n      dup1\n      0x1f\n      lt\n      tag_46\n      jumpi\n      0x0100\n      dup1\n      dup4\n      sload\n      div\n      mul\n      dup4\n      mstore\n      swap2\n      0x20\n      add\n      swap2\n      jump(tag_45)\n    tag_46:\n      dup3\n      add\n      swap2\n      swap1\n      0x00\n      mstore\n      keccak256(0x00, 0x20)\n      swap1\n    tag_47:\n      dup2\n      sload\n      dup2\n      mstore\n      swap1\n      0x01\n      add\n      swap1\n      0x20\n      add\n      dup1\n      dup4\n      gt\n      tag_47\n      jumpi\n      dup3\n      swap1\n      sub\n      0x1f\n      and\n      dup3\n      add\n      swap2\n    tag_45:\n      pop\n      pop\n      pop\n      pop\n      pop\n      dup2\n      jump\t// out\n        /* \"#utility.yul\":7:84   */\n    tag_48:\n        /* \"#utility.yul\":44:51   */\n      0x00\n        /* \"#utility.yul\":73:78   */\n      dup2\n        /* \"#utility.yul\":62:78   */\n      swap1\n      pop\n        /* \"#utility.yul\":7:84   */\n      swap2\n      swap1\n      pop\n      jump\t// out\n        /* \"#utility.yul\":90:208   */\n    tag_49:\n        /* \"#utility.yul\":177:201   */\n      tag_70\n        /* \"#utility.yul\":195:200   */\n      dup2\n        /* \"#utility.yul\":177:201   */\n      tag_48\n      jump\t// in\n    tag_70:\n        /* \"#utility.yul\":172:175   */\n      dup3\n        /* \"#utility.yul\":165:202   */\n      mstore\n        /* \"#utility.yul\":90:208   */\n      pop\n      pop\n      jump\t// out\n        /* \"#utility.yul\":214:436   */\n    tag_11:\n        /* \"#utility.yul\":307:311   */\n      0x00\n        /* \"#utility.yul\":345:347   */\n      0x20\n        /* \"#utility.yul\":334:343   */\n      dup3\n        /* \"#utility.yul\":330:348   */\n      add\n        /* \"#utility.yul\":322:348   */\n      swap1\n      pop\n        /* \"#utility.yul\":358:429   */\n      tag_72\n        /* \"#utility.yul\":426:427   */\n      0x00\n        /* \"#utility.yul\":415:424   */\n      dup4\n        /* \"#utility.yul\":411:428   */\n      add\n        /* \"#utility.yul\":402:408   */\n      dup5\n        /* \"#utility.yul\":358:429   */\n      tag_49\n      jump\t// in\n    tag_72:\n        /* \"#utility.yul\":214:436   */\n      swap3\n      swap2\n      pop\n      pop\n      jump\t// out\n        /* \"#utility.yul\":442:532   */\n    tag_50:\n        /* \"#utility.yul\":476:483   */\n      0x00\n        /* \"#utility.yul\":519:524   */\n      dup2\n        /* \"#utility.yul\":512:525   */\n      iszero\n        /* \"#utility.yul\":505:526   */\n      iszero\n        /* \"#utility.yul\":494:526   */\n      swap1\n      pop\n        /* \"#utility.yul\":442:532   */\n      swap2\n      swap1\n      pop\n      jump\t// out\n        /* \"#utility.yul\":538:647   */\n    tag_51:\n        /* \"#utility.yul\":619:640   */\n      tag_75\n        /* \"#utility.yul\":634:639   */\n      dup2\n        /* \"#utility.yul\":619:640   */\n      tag_50\n      jump\t// in\n    tag_75:\n        /* \"#utility.yul\":614:617   */\n      dup3\n        /* \"#utility.yul\":607:641   */\n      mstore\n        /* \"#utility.yul\":538:647   */\n      pop\n      pop\n      jump\t// out\n        /* \"#utility.yul\":653:863   */\n    tag_17:\n        /* \"#utility.yul\":740:744   */\n      0x00\n        /* \"#utility.yul\":778:780   */\n      0x20\n        /* \"#utility.yul\":767:776   */\n      dup3\n        /* \"#utility.yul\":763:781   */\n      add\n        /* \"#utility.yul\":755:781   */\n      swap1\n      pop\n        /* \"#utility.yul\":791:856   */\n      tag_77\n        /* \"#utility.yul\":853:854   */\n      0x00\n        /* \"#utility.yul\":842:851   */\n      dup4\n        /* \"#utility.yul\":838:855   */\n      add\n        /* \"#utility.yul\":829:835   */\n      dup5\n        /* \"#utility.yul\":791:856   */\n      tag_51\n      jump\t// in\n    tag_77:\n        /* \"#utility.yul\":653:863   */\n      swap3\n      swap2\n      pop\n      pop\n      jump\t// out\n        /* \"#utility.yul\":869:967   */\n    tag_52:\n        /* \"#utility.yul\":920:926   */\n      0x00\n        /* \"#utility.yul\":954:959   */\n      dup2\n        /* \"#utility.yul\":948:960   */\n      mload\n        /* \"#utility.yul\":938:960   */\n      swap1\n      pop\n        /* \"#utility.yul\":869:967   */\n      swap2\n      swap1\n      pop\n      jump\t// out\n        /* \"#utility.yul\":973:1141   */\n    tag_53:\n        /* \"#utility.yul\":1056:1067   */\n      0x00\n        /* \"#utility.yul\":1090:1096   */\n      dup3\n        /* \"#utility.yul\":1085:1088   */\n      dup3\n        /* \"#utility.yul\":1078:1097   */\n      mstore\n        /* \"#utility.yul\":1130:1134   */\n      0x20\n        /* \"#utility.yul\":1125:1128   */\n      dup3\n        /* \"#utility.yul\":1121:1135   */\n      add\n        /* \"#utility.yul\":1106:1135   */\n      swap1\n      pop\n        /* \"#utility.yul\":973:1141   */\n      swap3\n      swap2\n      pop\n      pop\n      jump\t// out\n        /* \"#utility.yul\":1147:1393   */\n    tag_54:\n        /* \"#utility.yul\":1228:1229   */\n      0x00\n        /* \"#utility.yul\":1238:1351   */\n    tag_81:\n        /* \"#utility.yul\":1252:1258   */\n      dup4\n        /* \"#utility.yul\":1249:1250   */\n      dup2\n        /* \"#utility.yul\":1246:1259   */\n      lt\n        /* \"#utility.yul\":1238:1351   */\n      iszero\n      tag_83\n      jumpi\n        /* \"#utility.yul\":1337:1338   */\n      dup1\n        /* \"#utility.yul\":1332:1335   */\n      dup3\n        /* \"#utility.yul\":1328:1339   */\n      add\n        /* \"#utility.yul\":1322:1340   */\n      mload\n        /* \"#utility.yul\":1318:1319   */\n      dup2\n        /* \"#utility.yul\":1313:1316   */\n      dup5\n        /* \"#utility.yul\":1309:1320   */\n      add\n        /* \"#utility.yul\":1302:1341   */\n      mstore\n        /* \"#utility.yul\":1274:1276   */\n      0x20\n        /* \"#utility.yul\":1271:1272   */\n      dup2\n        /* \"#utility.yul\":1267:1277   */\n      add\n        /* \"#utility.yul\":1262:1277   */\n      swap1\n      pop\n        /* \"#utility.yul\":1238:1351   */\n      jump(tag_81)\n    tag_83:\n        /* \"#utility.yul\":1385:1386   */\n      0x00\n        /* \"#utility.yul\":1376:1382   */\n      dup5\n        /* \"#utility.yul\":1371:1374   */\n      dup5\n        /* \"#utility.yul\":1367:1383   */\n      add\n        /* \"#utility.yul\":1360:1387   */\n      mstore\n        /* \"#utility.yul\":1209:1393   */\n      pop\n        /* \"#utility.yul\":1147:1393   */\n      pop\n      pop\n      pop\n      jump\t// out\n        /* \"#utility.yul\":1399:1501   */\n    tag_55:\n        /* \"#utility.yul\":1440:1446   */\n      0x00\n        /* \"#utility.yul\":1491:1493   */\n      0x1f\n        /* \"#utility.yul\":1487:1494   */\n      not\n        /* \"#utility.yul\":1482:1484   */\n      0x1f\n        /* \"#utility.yul\":1475:1480   */\n      dup4\n        /* \"#utility.yul\":1471:1485   */\n      add\n        /* \"#utility.yul\":1467:1495   */\n      and\n        /* \"#utility.yul\":1457:1495   */\n      swap1\n      pop\n        /* \"#utility.yul\":1399:1501   */\n      swap2\n      swap1\n      pop\n      jump\t// out\n        /* \"#utility.yul\":1507:1880   */\n    tag_56:\n        /* \"#utility.yul\":1593:1596   */\n      0x00\n        /* \"#utility.yul\":1621:1659   */\n      tag_86\n        /* \"#utility.yul\":1653:1658   */\n      dup3\n        /* \"#utility.yul\":1621:1659   */\n      tag_52\n      jump\t// in\n    tag_86:\n        /* \"#utility.yul\":1675:1745   */\n      tag_87\n        /* \"#utility.yul\":1738:1744   */\n      dup2\n        /* \"#utility.yul\":1733:1736   */\n      dup6\n        /* \"#utility.yul\":1675:1745   */\n      tag_53\n      jump\t// in\n    tag_87:\n        /* \"#utility.yul\":1668:1745   */\n      swap4\n      pop\n        /* \"#utility.yul\":1754:1819   */\n      tag_88\n        /* \"#utility.yul\":1812:1818   */\n      dup2\n        /* \"#utility.yul\":1807:1810   */\n      dup6\n        /* \"#utility.yul\":1800:1804   */\n      0x20\n        /* \"#utility.yul\":1793:1798   */\n      dup7\n        /* \"#utility.yul\":1789:1805   */\n      add\n        /* \"#utility.yul\":1754:1819   */\n      tag_54\n      jump\t// in\n    tag_88:\n        /* \"#utility.yul\":1844:1873   */\n      tag_89\n        /* \"#utility.yul\":1866:1872   */\n      dup2\n        /* \"#utility.yul\":1844:1873   */\n      tag_55\n      jump\t// in\n    tag_89:\n        /* \"#utility.yul\":1839:1842   */\n      dup5\n        /* \"#utility.yul\":1835:1874   */\n      add\n        /* \"#utility.yul\":1828:1874   */\n      swap2\n      pop\n        /* \"#utility.yul\":1597:1880   */\n      pop\n        /* \"#utility.yul\":1507:1880   */\n      swap3\n      swap2\n      pop\n      pop\n      jump\t// out\n        /* \"#utility.yul\":1886:2195   */\n    tag_23:\n        /* \"#utility.yul\":1997:2001   */\n      0x00\n        /* \"#utility.yul\":2035:2037   */\n      0x20\n        /* \"#utility.yul\":2024:2033   */\n      dup3\n        /* \"#utility.yul\":2020:2038   */\n      add\n        /* \"#utility.yul\":2012:2038   */\n      swap1\n      pop\n        /* \"#utility.yul\":2084:2093   */\n      dup2\n        /* \"#utility.yul\":2078:2082   */\n      dup2\n        /* \"#utility.yul\":2074:2094   */\n      sub\n        /* \"#utility.yul\":2070:2071   */\n      0x00\n        /* \"#utility.yul\":2059:2068   */\n      dup4\n        /* \"#utility.yul\":2055:2072   */\n      add\n        /* \"#utility.yul\":2048:2095   */\n      mstore\n        /* \"#utility.yul\":2112:2188   */\n      tag_91\n        /* \"#utility.yul\":2183:2187   */\n      dup2\n        /* \"#utility.yul\":2174:2180   */\n      dup5\n        /* \"#utility.yul\":2112:2188   */\n      tag_56\n      jump\t// in\n    tag_91:\n        /* \"#utility.yul\":2104:2188   */\n      swap1\n      pop\n        /* \"#utility.yul\":1886:2195   */\n      swap3\n      swap2\n      pop\n      pop\n      jump\t// out\n        /* \"#utility.yul\":2201:2381   */\n    tag_57:\n        /* \"#utility.yul\":2249:2326   */\n      0x4e487b7100000000000000000000000000000000000000000000000000000000\n        /* \"#utility.yul\":2246:2247   */\n      0x00\n        /* \"#utility.yul\":2239:2327   */\n      mstore\n        /* \"#utility.yul\":2346:2350   */\n      0x22\n        /* \"#utility.yul\":2343:2344   */\n      0x04\n        /* \"#utility.yul\":2336:2351   */\n      mstore\n        /* \"#utility.yul\":2370:2374   */\n      0x24\n        /* \"#utility.yul\":2367:2368   */\n      0x00\n        /* \"#utility.yul\":2360:2375   */\n      revert\n        /* \"#utility.yul\":2387:2707   */\n    tag_43:\n        /* \"#utility.yul\":2431:2437   */\n      0x00\n        /* \"#utility.yul\":2468:2469   */\n      0x02\n        /* \"#utility.yul\":2462:2466   */\n      dup3\n        /* \"#utility.yul\":2458:2470   */\n      div\n        /* \"#utility.yul\":2448:2470   */\n      swap1\n      pop\n        /* \"#utility.yul\":2515:2516   */\n      0x01\n        /* \"#utility.yul\":2509:2513   */\n      dup3\n        /* \"#utility.yul\":2505:2517   */\n      and\n        /* \"#utility.yul\":2536:2554   */\n      dup1\n        /* \"#utility.yul\":2526:2607   */\n      tag_94\n      jumpi\n        /* \"#utility.yul\":2592:2596   */\n      0x7f\n        /* \"#utility.yul\":2584:2590   */\n      dup3\n        /* \"#utility.yul\":2580:2597   */\n      and\n        /* \"#utility.yul\":2570:2597   */\n      swap2\n      pop\n        /* \"#utility.yul\":2526:2607   */\n    tag_94:\n        /* \"#utility.yul\":2654:2656   */\n      0x20\n        /* \"#utility.yul\":2646:2652   */\n      dup3\n        /* \"#utility.yul\":2643:2657   */\n      lt\n        /* \"#utility.yul\":2623:2641   */\n      dup2\n        /* \"#utility.yul\":2620:2658   */\n      sub\n        /* \"#utility.yul\":2617:2701   */\n      tag_95\n      jumpi\n        /* \"#utility.yul\":2673:2691   */\n      tag_96\n      tag_57\n      jump\t// in\n    tag_96:\n        /* \"#utility.yul\":2617:2701   */\n    tag_95:\n        /* \"#utility.yul\":2438:2707   */\n      pop\n        /* \"#utility.yul\":2387:2707   */\n      swap2\n      swap1\n      pop\n      jump\t// out\n        /* \"#utility.yul\":2713:2853   */\n    tag_58:\n        /* \"#utility.yul\":2761:2765   */\n      0x00\n        /* \"#utility.yul\":2784:2787   */\n      dup2\n        /* \"#utility.yul\":2776:2787   */\n      swap1\n      pop\n        /* \"#utility.yul\":2807:2810   */\n      dup2\n        /* \"#utility.yul\":2804:2805   */\n      0x00\n        /* \"#utility.yul\":2797:2811   */\n      mstore\n        /* \"#utility.yul\":2841:2845   */\n      0x20\n        /* \"#utility.yul\":2838:2839   */\n      0x00\n        /* \"#utility.yul\":2828:2846   */\n      keccak256\n        /* \"#utility.yul\":2820:2846   */\n      swap1\n      pop\n        /* \"#utility.yul\":2713:2853   */\n      swap2\n      swap1\n      pop\n      jump\t// out\n        /* \"#utility.yul\":2881:3708   */\n    tag_59:\n        /* \"#utility.yul\":2964:2967   */\n      0x00\n        /* \"#utility.yul\":3001:3006   */\n      dup2\n        /* \"#utility.yul\":2995:3007   */\n      sload\n        /* \"#utility.yul\":3030:3066   */\n      tag_99\n        /* \"#utility.yul\":3056:3065   */\n      dup2\n        /* \"#utility.yul\":3030:3066   */\n      tag_43\n      jump\t// in\n    tag_99:\n        /* \"#utility.yul\":3082:3152   */\n      tag_100\n        /* \"#utility.yul\":3145:3151   */\n      dup2\n        /* \"#utility.yul\":3140:3143   */\n      dup7\n        /* \"#utility.yul\":3082:3152   */\n      tag_53\n      jump\t// in\n    tag_100:\n        /* \"#utility.yul\":3075:3152   */\n      swap5\n      pop\n        /* \"#utility.yul\":3183:3184   */\n      0x01\n        /* \"#utility.yul\":3172:3181   */\n      dup3\n        /* \"#utility.yul\":3168:3185   */\n      and\n        /* \"#utility.yul\":3199:3200   */\n      0x00\n        /* \"#utility.yul\":3194:3358   */\n      dup2\n      eq\n      tag_102\n      jumpi\n        /* \"#utility.yul\":3372:3373   */\n      0x01\n        /* \"#utility.yul\":3367:3702   */\n      dup2\n      eq\n      tag_103\n      jumpi\n        /* \"#utility.yul\":3161:3702   */\n      jump(tag_101)\n        /* \"#utility.yul\":3194:3358   */\n    tag_102:\n        /* \"#utility.yul\":3278:3282   */\n      0xff\n        /* \"#utility.yul\":3274:3283   */\n      not\n        /* \"#utility.yul\":3263:3272   */\n      dup4\n        /* \"#utility.yul\":3259:3284   */\n      and\n        /* \"#utility.yul\":3254:3257   */\n      dup7\n        /* \"#utility.yul\":3247:3285   */\n      mstore\n        /* \"#utility.yul\":3338:3344   */\n      dup2\n        /* \"#utility.yul\":3331:3345   */\n      iszero\n        /* \"#utility.yul\":3324:3346   */\n      iszero\n        /* \"#utility.yul\":3318:3322   */\n      0x20\n        /* \"#utility.yul\":3314:3347   */\n      mul\n        /* \"#utility.yul\":3309:3312   */\n      dup7\n        /* \"#utility.yul\":3305:3348   */\n      add\n        /* \"#utility.yul\":3298:3348   */\n      swap4\n      pop\n        /* \"#utility.yul\":3194:3358   */\n      jump(tag_101)\n        /* \"#utility.yul\":3367:3702   */\n    tag_103:\n        /* \"#utility.yul\":3434:3471   */\n      tag_104\n        /* \"#utility.yul\":3465:3470   */\n      dup6\n        /* \"#utility.yul\":3434:3471   */\n      tag_58\n      jump\t// in\n    tag_104:\n        /* \"#utility.yul\":3493:3494   */\n      0x00\n        /* \"#utility.yul\":3507:3661   */\n    tag_105:\n        /* \"#utility.yul\":3521:3527   */\n      dup4\n        /* \"#utility.yul\":3518:3519   */\n      dup2\n        /* \"#utility.yul\":3515:3528   */\n      lt\n        /* \"#utility.yul\":3507:3661   */\n      iszero\n      tag_107\n      jumpi\n        /* \"#utility.yul\":3595:3602   */\n      dup2\n        /* \"#utility.yul\":3589:3603   */\n      sload\n        /* \"#utility.yul\":3585:3586   */\n      dup2\n        /* \"#utility.yul\":3580:3583   */\n      dup10\n        /* \"#utility.yul\":3576:3587   */\n      add\n        /* \"#utility.yul\":3569:3604   */\n      mstore\n        /* \"#utility.yul\":3645:3646   */\n      0x01\n        /* \"#utility.yul\":3636:3643   */\n      dup3\n        /* \"#utility.yul\":3632:3647   */\n      add\n        /* \"#utility.yul\":3621:3647   */\n      swap2\n      pop\n        /* \"#utility.yul\":3543:3547   */\n      0x20\n        /* \"#utility.yul\":3540:3541   */\n      dup2\n        /* \"#utility.yul\":3536:3548   */\n      add\n        /* \"#utility.yul\":3531:3548   */\n      swap1\n      pop\n        /* \"#utility.yul\":3507:3661   */\n      jump(tag_105)\n    tag_107:\n        /* \"#utility.yul\":3690:3691   */\n      dup1\n        /* \"#utility.yul\":3685:3688   */\n      dup9\n        /* \"#utility.yul\":3681:3692   */\n      add\n        /* \"#utility.yul\":3674:3692   */\n      swap6\n      pop\n        /* \"#utility.yul\":3374:3702   */\n      pop\n      pop\n        /* \"#utility.yul\":3161:3702   */\n    tag_101:\n      pop\n        /* \"#utility.yul\":2968:3708   */\n      pop\n      pop\n        /* \"#utility.yul\":2881:3708   */\n      swap3\n      swap2\n      pop\n      pop\n      jump\t// out\n        /* \"#utility.yul\":3714:4017   */\n    tag_26:\n        /* \"#utility.yul\":3822:3826   */\n      0x00\n        /* \"#utility.yul\":3860:3862   */\n      0x20\n        /* \"#utility.yul\":3849:3858   */\n      dup3\n        /* \"#utility.yul\":3845:3863   */\n      add\n        /* \"#utility.yul\":3837:3863   */\n      swap1\n      pop\n        /* \"#utility.yul\":3909:3918   */\n      dup2\n        /* \"#utility.yul\":3903:3907   */\n      dup2\n        /* \"#utility.yul\":3899:3919   */\n      sub\n        /* \"#utility.yul\":3895:3896   */\n      0x00\n        /* \"#utility.yul\":3884:3893   */\n      dup4\n        /* \"#utility.yul\":3880:3897   */\n      add\n        /* \"#utility.yul\":3873:3920   */\n      mstore\n        /* \"#utility.yul\":3937:4010   */\n      tag_109\n        /* \"#utility.yul\":4005:4009   */\n      dup2\n        /* \"#utility.yul\":3996:4002   */\n      dup5\n        /* \"#utility.yul\":3937:4010   */\n      tag_59\n      jump\t// in\n    tag_109:\n        /* \"#utility.yul\":3929:4010   */\n      swap1\n      pop\n        /* \"#utility.yul\":3714:4017   */\n      swap3\n      swap2\n      pop\n      pop\n      jump\t// out\n        /* \"#utility.yul\":4104:4221   */\n    tag_61:\n        /* \"#utility.yul\":4213:4214   */\n      0x00\n        /* \"#utility.yul\":4210:4211   */\n      dup1\n        /* \"#utility.yul\":4203:4215   */\n      revert\n        /* \"#utility.yul\":4350:4472   */\n    tag_63:\n        /* \"#utility.yul\":4423:4447   */\n      tag_114\n        /* \"#utility.yul\":4441:4446   */\n      dup2\n        /* \"#utility.yul\":4423:4447   */\n      tag_48\n      jump\t// in\n    tag_114:\n        /* \"#utility.yul\":4416:4421   */\n      dup2\n        /* \"#utility.yul\":4413:4448   */\n      eq\n        /* \"#utility.yul\":4403:4466   */\n      tag_115\n      jumpi\n        /* \"#utility.yul\":4462:4463   */\n      0x00\n        /* \"#utility.yul\":4459:4460   */\n      dup1\n        /* \"#utility.yul\":4452:4464   */\n      revert\n        /* \"#utility.yul\":4403:4466   */\n    tag_115:\n        /* \"#utility.yul\":4350:4472   */\n      pop\n      jump\t// out\n        /* \"#utility.yul\":4478:4621   */\n    tag_64:\n        /* \"#utility.yul\":4535:4540   */\n      0x00\n        /* \"#utility.yul\":4566:4572   */\n      dup2\n        /* \"#utility.yul\":4560:4573   */\n      mload\n        /* \"#utility.yul\":4551:4573   */\n      swap1\n      pop\n        /* \"#utility.yul\":4582:4615   */\n      tag_117\n        /* \"#utility.yul\":4609:4614   */\n      dup2\n        /* \"#utility.yul\":4582:4615   */\n      tag_63\n      jump\t// in\n    tag_117:\n        /* \"#utility.yul\":4478:4621   */\n      swap3\n      swap2\n      pop\n      pop\n      jump\t// out\n        /* \"#utility.yul\":4627:4978   */\n    tag_30:\n        /* \"#utility.yul\":4697:4703   */\n      0x00\n        /* \"#utility.yul\":4746:4748   */\n      0x20\n        /* \"#utility.yul\":4734:4743   */\n      dup3\n        /* \"#utility.yul\":4725:4732   */\n      dup5\n        /* \"#utility.yul\":4721:4744   */\n      sub\n        /* \"#utility.yul\":4717:4749   */\n      slt\n        /* \"#utility.yul\":4714:4833   */\n      iszero\n      tag_119\n      jumpi\n        /* \"#utility.yul\":4752:4831   */\n      tag_120\n      tag_61\n      jump\t// in\n    tag_120:\n        /* \"#utility.yul\":4714:4833   */\n    tag_119:\n        /* \"#utility.yul\":4872:4873   */\n      0x00\n        /* \"#utility.yul\":4897:4961   */\n      tag_121\n        /* \"#utility.yul\":4953:4960   */\n      dup5\n        /* \"#utility.yul\":4944:4950   */\n      dup3\n        /* \"#utility.yul\":4933:4942   */\n      dup6\n        /* \"#utility.yul\":4929:4951   */\n      add\n        /* \"#utility.yul\":4897:4961   */\n      tag_64\n      jump\t// in\n    tag_121:\n        /* \"#utility.yul\":4887:4961   */\n      swap2\n      pop\n        /* \"#utility.yul\":4843:4971   */\n      pop\n        /* \"#utility.yul\":4627:4978   */\n      swap3\n      swap2\n      pop\n      pop\n      jump\t// out\n        /* \"#utility.yul\":4984:5100   */\n    tag_65:\n        /* \"#utility.yul\":5054:5075   */\n      tag_123\n        /* \"#utility.yul\":5069:5074   */\n      dup2\n        /* \"#utility.yul\":5054:5075   */\n      tag_50\n      jump\t// in\n    tag_123:\n        /* \"#utility.yul\":5047:5052   */\n      dup2\n        /* \"#utility.yul\":5044:5076   */\n      eq\n        /* \"#utility.yul\":5034:5094   */\n      tag_124\n      jumpi\n        /* \"#utility.yul\":5090:5091   */\n      0x00\n        /* \"#utility.yul\":5087:5088   */\n      dup1\n        /* \"#utility.yul\":5080:5092   */\n      revert\n        /* \"#utility.yul\":5034:5094   */\n    tag_124:\n        /* \"#utility.yul\":4984:5100   */\n      pop\n      jump\t// out\n        /* \"#utility.yul\":5106:5243   */\n    tag_66:\n        /* \"#utility.yul\":5160:5165   */\n      0x00\n        /* \"#utility.yul\":5191:5197   */\n      dup2\n        /* \"#utility.yul\":5185:5198   */\n      mload\n        /* \"#utility.yul\":5176:5198   */\n      swap1\n      pop\n        /* \"#utility.yul\":5207:5237   */\n      tag_126\n        /* \"#utility.yul\":5231:5236   */\n      dup2\n        /* \"#utility.yul\":5207:5237   */\n      tag_65\n      jump\t// in\n    tag_126:\n        /* \"#utility.yul\":5106:5243   */\n      swap3\n      swap2\n      pop\n      pop\n      jump\t// out\n        /* \"#utility.yul\":5249:5594   */\n    tag_36:\n        /* \"#utility.yul\":5316:5322   */\n      0x00\n        /* \"#utility.yul\":5365:5367   */\n      0x20\n        /* \"#utility.yul\":5353:5362   */\n      dup3\n        /* \"#utility.yul\":5344:5351   */\n      dup5\n        /* \"#utility.yul\":5340:5363   */\n      sub\n        /* \"#utility.yul\":5336:5368   */\n      slt\n        /* \"#utility.yul\":5333:5452   */\n      iszero\n      tag_128\n      jumpi\n        /* \"#utility.yul\":5371:5450   */\n      tag_129\n      tag_61\n      jump\t// in\n    tag_129:\n        /* \"#utility.yul\":5333:5452   */\n    tag_128:\n        /* \"#utility.yul\":5491:5492   */\n      0x00\n        /* \"#utility.yul\":5516:5577   */\n      tag_130\n        /* \"#utility.yul\":5569:5576   */\n      dup5\n        /* \"#utility.yul\":5560:5566   */\n      dup3\n        /* \"#utility.yul\":5549:5558   */\n      dup6\n        /* \"#utility.yul\":5545:5567   */\n      add\n        /* \"#utility.yul\":5516:5577   */\n      tag_66\n      jump\t// in\n    tag_130:\n        /* \"#utility.yul\":5506:5577   */\n      swap2\n      pop\n        /* \"#utility.yul\":5462:5587   */\n      pop\n        /* \"#utility.yul\":5249:5594   */\n      swap3\n      swap2\n      pop\n      pop\n      jump\t// out\n\n    auxdata: 0xa2646970667358221220b8ffc14c0bc34d192ba3e7299958adc13d58ec490377525073e09fcdccffd7c164736f6c63430008100033\n}\n",
				"bytecode": {
					"linkReferences": {},
					"object": "6080604052739923d42ef695b5dd9911d05ac944d4caca3c4eab6000806101000a81548173ffffffffffffffffffffffffffffffffffffffff021916908373ffffffffffffffffffffffffffffffffffffffff1602179055506040518060600160405280602e815260200162000a62602e91396001908162000082919062000311565b503480156200009057600080fd5b50620003f8565b600081519050919050565b7f4e487b7100000000000000000000000000000000000000000000000000000000600052604160045260246000fd5b7f4e487b7100000000000000000000000000000000000000000000000000000000600052602260045260246000fd5b600060028204905060018216806200011957607f821691505b6020821081036200012f576200012e620000d1565b5b50919050565b60008190508160005260206000209050919050565b60006020601f8301049050919050565b600082821b905092915050565b600060088302620001997fffffffffffffffffffffffffffffffffffffffffffffffffffffffffffffffff826200015a565b620001a586836200015a565b95508019841693508086168417925050509392505050565b6000819050919050565b6000819050919050565b6000620001f2620001ec620001e684620001bd565b620001c7565b620001bd565b9050919050565b6000819050919050565b6200020e83620001d1565b620002266200021d82620001f9565b84845462000167565b825550505050565b600090565b6200023d6200022e565b6200024a81848462000203565b505050565b5b8181101562000272576200026660008262000233565b60018101905062000250565b5050565b601f821115620002c1576200028b8162000135565b62000296846200014a565b81016020851015620002a6578190505b620002be620002b5856200014a565b8301826200024f565b50505b505050565b600082821c905092915050565b6000620002e660001984600802620002c6565b1980831691505092915050565b6000620003018383620002d3565b9150826002028217905092915050565b6200031c8262000097565b67ffffffffffffffff811115620003385762000337620000a2565b5b62000344825462000100565b6200035182828562000276565b600060209050601f83116001811462000389576000841562000374578287015190505b620003808582620002f3565b865550620003f0565b601f198416620003998662000135565b60005b82811015620003c3578489015182556001820191506020850194506020810190506200039c565b86831015620003e35784890151620003df601f891682620002d3565b8355505b6001600288020188555050505b505050505050565b61065a80620004086000396000f3fe608060405234801561001057600080fd5b50600436106100575760003560e01c80630d80da741461005c5780633421390b1461007a5780637facaf3f14610084578063ae0190ee146100a2578063c1a8ec2c146100ac575b600080fd5b6100646100ca565b604051610071919061034f565b60405180910390f35b6100826100d0565b005b61008c610175565b6040516100999190610385565b60405180910390f35b6100aa610219565b005b6100b46102a8565b6040516100c19190610430565b60405180910390f35b60025481565b60008054906101000a900473ffffffffffffffffffffffffffffffffffffffff1673ffffffffffffffffffffffffffffffffffffffff16632c59e70760016040518263ffffffff1660e01b815260040161012a919061054b565b6020604051808303816000875af1158015610149573d6000803e3d6000fd5b505050506040513d601f19601f8201168201806040525081019061016d919061059e565b600281905550565b60008060009054906101000a900473ffffffffffffffffffffffffffffffffffffffff1673ffffffffffffffffffffffffffffffffffffffff1663adee9e006002546040518263ffffffff1660e01b81526004016101d3919061034f565b602060405180830381865afa1580156101f0573d6000803e3d6000fd5b505050506040513d601f19601f8201168201806040525081019061021491906105f7565b905090565b60008054906101000a900473ffffffffffffffffffffffffffffffffffffffff1673ffffffffffffffffffffffffffffffffffffffff166314d82c046002546040518263ffffffff1660e01b8152600401610274919061034f565b600060405180830381600087803b15801561028e57600080fd5b505af11580156102a2573d6000803e3d6000fd5b50505050565b600180546102b590610481565b80601f01602080910402602001604051908101604052809291908181526020018280546102e190610481565b801561032e5780601f106103035761010080835404028352916020019161032e565b820191906000526020600020905b81548152906001019060200180831161031157829003601f168201915b505050505081565b6000819050919050565b61034981610336565b82525050565b60006020820190506103646000830184610340565b92915050565b60008115159050919050565b61037f8161036a565b82525050565b600060208201905061039a6000830184610376565b92915050565b600081519050919050565b600082825260208201905092915050565b60005b838110156103da5780820151818401526020810190506103bf565b60008484015250505050565b6000601f19601f8301169050919050565b6000610402826103a0565b61040c81856103ab565b935061041c8185602086016103bc565b610425816103e6565b840191505092915050565b6000602082019050818103600083015261044a81846103f7565b905092915050565b7f4e487b7100000000000000000000000000000000000000000000000000000000600052602260045260246000fd5b6000600282049050600182168061049957607f821691505b6020821081036104ac576104ab610452565b5b50919050565b60008190508160005260206000209050919050565b600081546104d481610481565b6104de81866103ab565b945060018216600081146104f9576001811461050f57610542565b60ff198316865281151560200286019350610542565b610518856104b2565b60005b8381101561053a5781548189015260018201915060208101905061051b565b808801955050505b50505092915050565b6000602082019050818103600083015261056581846104c7565b905092915050565b600080fd5b61057b81610336565b811461058657600080fd5b50565b60008151905061059881610572565b92915050565b6000602082840312156105b4576105b361056d565b5b60006105c284828501610589565b91505092915050565b6105d48161036a565b81146105df57600080fd5b50565b6000815190506105f1816105cb565b92915050565b60006020828403121561060d5761060c61056d565b5b600061061b848285016105e2565b9150509291505056fea2646970667358221220b8ffc14c0bc34d192ba3e7299958adc13d58ec490377525073e09fcdccffd7c164736f6c63430008100033417267656e74696e6120776f6e207468652032303232204669666120776f726c642063757020696e205161746172",
					"opcodes": "PUSH1 0x80 PUSH1 0x40 MSTORE PUSH20 0x9923D42EF695B5DD9911D05AC944D4CACA3C4EAB PUSH1 0x0 DUP1 PUSH2 0x100 EXP DUP2 SLOAD DUP2 PUSH20 0xFFFFFFFFFFFFFFFFFFFFFFFFFFFFFFFFFFFFFFFF MUL NOT AND SWAP1 DUP4 PUSH20 0xFFFFFFFFFFFFFFFFFFFFFFFFFFFFFFFFFFFFFFFF AND MUL OR SWAP1 SSTORE POP PUSH1 0x40 MLOAD DUP1 PUSH1 0x60 ADD PUSH1 0x40 MSTORE DUP1 PUSH1 0x2E DUP2 MSTORE PUSH1 0x20 ADD PUSH3 0xA62 PUSH1 0x2E SWAP2 CODECOPY PUSH1 0x1 SWAP1 DUP2 PUSH3 0x82 SWAP2 SWAP1 PUSH3 0x311 JUMP JUMPDEST POP CALLVALUE DUP1 ISZERO PUSH3 0x90 JUMPI PUSH1 0x0 DUP1 REVERT JUMPDEST POP PUSH3 0x3F8 JUMP JUMPDEST PUSH1 0x0 DUP2 MLOAD SWAP1 POP SWAP2 SWAP1 POP JUMP JUMPDEST PUSH32 0x4E487B7100000000000000000000000000000000000000000000000000000000 PUSH1 0x0 MSTORE PUSH1 0x41 PUSH1 0x4 MSTORE PUSH1 0x24 PUSH1 0x0 REVERT JUMPDEST PUSH32 0x4E487B7100000000000000000000000000000000000000000000000000000000 PUSH1 0x0 MSTORE PUSH1 0x22 PUSH1 0x4 MSTORE PUSH1 0x24 PUSH1 0x0 REVERT JUMPDEST PUSH1 0x0 PUSH1 0x2 DUP3 DIV SWAP1 POP PUSH1 0x1 DUP3 AND DUP1 PUSH3 0x119 JUMPI PUSH1 0x7F DUP3 AND SWAP2 POP JUMPDEST PUSH1 0x20 DUP3 LT DUP2 SUB PUSH3 0x12F JUMPI PUSH3 0x12E PUSH3 0xD1 JUMP JUMPDEST JUMPDEST POP SWAP2 SWAP1 POP JUMP JUMPDEST PUSH1 0x0 DUP2 SWAP1 POP DUP2 PUSH1 0x0 MSTORE PUSH1 0x20 PUSH1 0x0 KECCAK256 SWAP1 POP SWAP2 SWAP1 POP JUMP JUMPDEST PUSH1 0x0 PUSH1 0x20 PUSH1 0x1F DUP4 ADD DIV SWAP1 POP SWAP2 SWAP1 POP JUMP JUMPDEST PUSH1 0x0 DUP3 DUP3 SHL SWAP1 POP SWAP3 SWAP2 POP POP JUMP JUMPDEST PUSH1 0x0 PUSH1 0x8 DUP4 MUL PUSH3 0x199 PUSH32 0xFFFFFFFFFFFFFFFFFFFFFFFFFFFFFFFFFFFFFFFFFFFFFFFFFFFFFFFFFFFFFFFF DUP3 PUSH3 0x15A JUMP JUMPDEST PUSH3 0x1A5 DUP7 DUP4 PUSH3 0x15A JUMP JUMPDEST SWAP6 POP DUP1 NOT DUP5 AND SWAP4 POP DUP1 DUP7 AND DUP5 OR SWAP3 POP POP POP SWAP4 SWAP3 POP POP POP JUMP JUMPDEST PUSH1 0x0 DUP2 SWAP1 POP SWAP2 SWAP1 POP JUMP JUMPDEST PUSH1 0x0 DUP2 SWAP1 POP SWAP2 SWAP1 POP JUMP JUMPDEST PUSH1 0x0 PUSH3 0x1F2 PUSH3 0x1EC PUSH3 0x1E6 DUP5 PUSH3 0x1BD JUMP JUMPDEST PUSH3 0x1C7 JUMP JUMPDEST PUSH3 0x1BD JUMP JUMPDEST SWAP1 POP SWAP2 SWAP1 POP JUMP JUMPDEST PUSH1 0x0 DUP2 SWAP1 POP SWAP2 SWAP1 POP JUMP JUMPDEST PUSH3 0x20E DUP4 PUSH3 0x1D1 JUMP JUMPDEST PUSH3 0x226 PUSH3 0x21D DUP3 PUSH3 0x1F9 JUMP JUMPDEST DUP5 DUP5 SLOAD PUSH3 0x167 JUMP JUMPDEST DUP3 SSTORE POP POP POP POP JUMP JUMPDEST PUSH1 0x0 SWAP1 JUMP JUMPDEST PUSH3 0x23D PUSH3 0x22E JUMP JUMPDEST PUSH3 0x24A DUP2 DUP5 DUP5 PUSH3 0x203 JUMP JUMPDEST POP POP POP JUMP JUMPDEST JUMPDEST DUP2 DUP2 LT ISZERO PUSH3 0x272 JUMPI PUSH3 0x266 PUSH1 0x0 DUP3 PUSH3 0x233 JUMP JUMPDEST PUSH1 0x1 DUP2 ADD SWAP1 POP PUSH3 0x250 JUMP JUMPDEST POP POP JUMP JUMPDEST PUSH1 0x1F DUP3 GT ISZERO PUSH3 0x2C1 JUMPI PUSH3 0x28B DUP2 PUSH3 0x135 JUMP JUMPDEST PUSH3 0x296 DUP5 PUSH3 0x14A JUMP JUMPDEST DUP2 ADD PUSH1 0x20 DUP6 LT ISZERO PUSH3 0x2A6 JUMPI DUP2 SWAP1 POP JUMPDEST PUSH3 0x2BE PUSH3 0x2B5 DUP6 PUSH3 0x14A JUMP JUMPDEST DUP4 ADD DUP3 PUSH3 0x24F JUMP JUMPDEST POP POP JUMPDEST POP POP POP JUMP JUMPDEST PUSH1 0x0 DUP3 DUP3 SHR SWAP1 POP SWAP3 SWAP2 POP POP JUMP JUMPDEST PUSH1 0x0 PUSH3 0x2E6 PUSH1 0x0 NOT DUP5 PUSH1 0x8 MUL PUSH3 0x2C6 JUMP JUMPDEST NOT DUP1 DUP4 AND SWAP2 POP POP SWAP3 SWAP2 POP POP JUMP JUMPDEST PUSH1 0x0 PUSH3 0x301 DUP4 DUP4 PUSH3 0x2D3 JUMP JUMPDEST SWAP2 POP DUP3 PUSH1 0x2 MUL DUP3 OR SWAP1 POP SWAP3 SWAP2 POP POP JUMP JUMPDEST PUSH3 0x31C DUP3 PUSH3 0x97 JUMP JUMPDEST PUSH8 0xFFFFFFFFFFFFFFFF DUP2 GT ISZERO PUSH3 0x338 JUMPI PUSH3 0x337 PUSH3 0xA2 JUMP JUMPDEST JUMPDEST PUSH3 0x344 DUP3 SLOAD PUSH3 0x100 JUMP JUMPDEST PUSH3 0x351 DUP3 DUP3 DUP6 PUSH3 0x276 JUMP JUMPDEST PUSH1 0x0 PUSH1 0x20 SWAP1 POP PUSH1 0x1F DUP4 GT PUSH1 0x1 DUP2 EQ PUSH3 0x389 JUMPI PUSH1 0x0 DUP5 ISZERO PUSH3 0x374 JUMPI DUP3 DUP8 ADD MLOAD SWAP1 POP JUMPDEST PUSH3 0x380 DUP6 DUP3 PUSH3 0x2F3 JUMP JUMPDEST DUP7 SSTORE POP PUSH3 0x3F0 JUMP JUMPDEST PUSH1 0x1F NOT DUP5 AND PUSH3 0x399 DUP7 PUSH3 0x135 JUMP JUMPDEST PUSH1 0x0 JUMPDEST DUP3 DUP2 LT ISZERO PUSH3 0x3C3 JUMPI DUP5 DUP10 ADD MLOAD DUP3 SSTORE PUSH1 0x1 DUP3 ADD SWAP2 POP PUSH1 0x20 DUP6 ADD SWAP5 POP PUSH1 0x20 DUP2 ADD SWAP1 POP PUSH3 0x39C JUMP JUMPDEST DUP7 DUP4 LT ISZERO PUSH3 0x3E3 JUMPI DUP5 DUP10 ADD MLOAD PUSH3 0x3DF PUSH1 0x1F DUP10 AND DUP3 PUSH3 0x2D3 JUMP JUMPDEST DUP4 SSTORE POP JUMPDEST PUSH1 0x1 PUSH1 0x2 DUP9 MUL ADD DUP9 SSTORE POP POP POP JUMPDEST POP POP POP POP POP POP JUMP JUMPDEST PUSH2 0x65A DUP1 PUSH3 0x408 PUSH1 0x0 CODECOPY PUSH1 0x0 RETURN INVALID PUSH1 0x80 PUSH1 0x40 MSTORE CALLVALUE DUP1 ISZERO PUSH2 0x10 JUMPI PUSH1 0x0 DUP1 REVERT JUMPDEST POP PUSH1 0x4 CALLDATASIZE LT PUSH2 0x57 JUMPI PUSH1 0x0 CALLDATALOAD PUSH1 0xE0 SHR DUP1 PUSH4 0xD80DA74 EQ PUSH2 0x5C JUMPI DUP1 PUSH4 0x3421390B EQ PUSH2 0x7A JUMPI DUP1 PUSH4 0x7FACAF3F EQ PUSH2 0x84 JUMPI DUP1 PUSH4 0xAE0190EE EQ PUSH2 0xA2 JUMPI DUP1 PUSH4 0xC1A8EC2C EQ PUSH2 0xAC JUMPI JUMPDEST PUSH1 0x0 DUP1 REVERT JUMPDEST PUSH2 0x64 PUSH2 0xCA JUMP JUMPDEST PUSH1 0x40 MLOAD PUSH2 0x71 SWAP2 SWAP1 PUSH2 0x34F JUMP JUMPDEST PUSH1 0x40 MLOAD DUP1 SWAP2 SUB SWAP1 RETURN JUMPDEST PUSH2 0x82 PUSH2 0xD0 JUMP JUMPDEST STOP JUMPDEST PUSH2 0x8C PUSH2 0x175 JUMP JUMPDEST PUSH1 0x40 MLOAD PUSH2 0x99 SWAP2 SWAP1 PUSH2 0x385 JUMP JUMPDEST PUSH1 0x40 MLOAD DUP1 SWAP2 SUB SWAP1 RETURN JUMPDEST PUSH2 0xAA PUSH2 0x219 JUMP JUMPDEST STOP JUMPDEST PUSH2 0xB4 PUSH2 0x2A8 JUMP JUMPDEST PUSH1 0x40 MLOAD PUSH2 0xC1 SWAP2 SWAP1 PUSH2 0x430 JUMP JUMPDEST PUSH1 0x40 MLOAD DUP1 SWAP2 SUB SWAP1 RETURN JUMPDEST PUSH1 0x2 SLOAD DUP2 JUMP JUMPDEST PUSH1 0x0 DUP1 SLOAD SWAP1 PUSH2 0x100 EXP SWAP1 DIV PUSH20 0xFFFFFFFFFFFFFFFFFFFFFFFFFFFFFFFFFFFFFFFF AND PUSH20 0xFFFFFFFFFFFFFFFFFFFFFFFFFFFFFFFFFFFFFFFF AND PUSH4 0x2C59E707 PUSH1 0x1 PUSH1 0x40 MLOAD DUP3 PUSH4 0xFFFFFFFF AND PUSH1 0xE0 SHL DUP2 MSTORE PUSH1 0x4 ADD PUSH2 0x12A SWAP2 SWAP1 PUSH2 0x54B JUMP JUMPDEST PUSH1 0x20 PUSH1 0x40 MLOAD DUP1 DUP4 SUB DUP2 PUSH1 0x0 DUP8 GAS CALL ISZERO DUP1 ISZERO PUSH2 0x149 JUMPI RETURNDATASIZE PUSH1 0x0 DUP1 RETURNDATACOPY RETURNDATASIZE PUSH1 0x0 REVERT JUMPDEST POP POP POP POP PUSH1 0x40 MLOAD RETURNDATASIZE PUSH1 0x1F NOT PUSH1 0x1F DUP3 ADD AND DUP3 ADD DUP1 PUSH1 0x40 MSTORE POP DUP2 ADD SWAP1 PUSH2 0x16D SWAP2 SWAP1 PUSH2 0x59E JUMP JUMPDEST PUSH1 0x2 DUP2 SWAP1 SSTORE POP JUMP JUMPDEST PUSH1 0x0 DUP1 PUSH1 0x0 SWAP1 SLOAD SWAP1 PUSH2 0x100 EXP SWAP1 DIV PUSH20 0xFFFFFFFFFFFFFFFFFFFFFFFFFFFFFFFFFFFFFFFF AND PUSH20 0xFFFFFFFFFFFFFFFFFFFFFFFFFFFFFFFFFFFFFFFF AND PUSH4 0xADEE9E00 PUSH1 0x2 SLOAD PUSH1 0x40 MLOAD DUP3 PUSH4 0xFFFFFFFF AND PUSH1 0xE0 SHL DUP2 MSTORE PUSH1 0x4 ADD PUSH2 0x1D3 SWAP2 SWAP1 PUSH2 0x34F JUMP JUMPDEST PUSH1 0x20 PUSH1 0x40 MLOAD DUP1 DUP4 SUB DUP2 DUP7 GAS STATICCALL ISZERO DUP1 ISZERO PUSH2 0x1F0 JUMPI RETURNDATASIZE PUSH1 0x0 DUP1 RETURNDATACOPY RETURNDATASIZE PUSH1 0x0 REVERT JUMPDEST POP POP POP POP PUSH1 0x40 MLOAD RETURNDATASIZE PUSH1 0x1F NOT PUSH1 0x1F DUP3 ADD AND DUP3 ADD DUP1 PUSH1 0x40 MSTORE POP DUP2 ADD SWAP1 PUSH2 0x214 SWAP2 SWAP1 PUSH2 0x5F7 JUMP JUMPDEST SWAP1 POP SWAP1 JUMP JUMPDEST PUSH1 0x0 DUP1 SLOAD SWAP1 PUSH2 0x100 EXP SWAP1 DIV PUSH20 0xFFFFFFFFFFFFFFFFFFFFFFFFFFFFFFFFFFFFFFFF AND PUSH20 0xFFFFFFFFFFFFFFFFFFFFFFFFFFFFFFFFFFFFFFFF AND PUSH4 0x14D82C04 PUSH1 0x2 SLOAD PUSH1 0x40 MLOAD DUP3 PUSH4 0xFFFFFFFF AND PUSH1 0xE0 SHL DUP2 MSTORE PUSH1 0x4 ADD PUSH2 0x274 SWAP2 SWAP1 PUSH2 0x34F JUMP JUMPDEST PUSH1 0x0 PUSH1 0x40 MLOAD DUP1 DUP4 SUB DUP2 PUSH1 0x0 DUP8 DUP1 EXTCODESIZE ISZERO DUP1 ISZERO PUSH2 0x28E JUMPI PUSH1 0x0 DUP1 REVERT JUMPDEST POP GAS CALL ISZERO DUP1 ISZERO PUSH2 0x2A2 JUMPI RETURNDATASIZE PUSH1 0x0 DUP1 RETURNDATACOPY RETURNDATASIZE PUSH1 0x0 REVERT JUMPDEST POP POP POP POP JUMP JUMPDEST PUSH1 0x1 DUP1 SLOAD PUSH2 0x2B5 SWAP1 PUSH2 0x481 JUMP JUMPDEST DUP1 PUSH1 0x1F ADD PUSH1 0x20 DUP1 SWAP2 DIV MUL PUSH1 0x20 ADD PUSH1 0x40 MLOAD SWAP1 DUP2 ADD PUSH1 0x40 MSTORE DUP1 SWAP3 SWAP2 SWAP1 DUP2 DUP2 MSTORE PUSH1 0x20 ADD DUP3 DUP1 SLOAD PUSH2 0x2E1 SWAP1 PUSH2 0x481 JUMP JUMPDEST DUP1 ISZERO PUSH2 0x32E JUMPI DUP1 PUSH1 0x1F LT PUSH2 0x303 JUMPI PUSH2 0x100 DUP1 DUP4 SLOAD DIV MUL DUP4 MSTORE SWAP2 PUSH1 0x20 ADD SWAP2 PUSH2 0x32E JUMP JUMPDEST DUP3 ADD SWAP2 SWAP1 PUSH1 0x0 MSTORE PUSH1 0x20 PUSH1 0x0 KECCAK256 SWAP1 JUMPDEST DUP2 SLOAD DUP2 MSTORE SWAP1 PUSH1 0x1 ADD SWAP1 PUSH1 0x20 ADD DUP1 DUP4 GT PUSH2 0x311 JUMPI DUP3 SWAP1 SUB PUSH1 0x1F AND DUP3 ADD SWAP2 JUMPDEST POP POP POP POP POP DUP2 JUMP JUMPDEST PUSH1 0x0 DUP2 SWAP1 POP SWAP2 SWAP1 POP JUMP JUMPDEST PUSH2 0x349 DUP2 PUSH2 0x336 JUMP JUMPDEST DUP3 MSTORE POP POP JUMP JUMPDEST PUSH1 0x0 PUSH1 0x20 DUP3 ADD SWAP1 POP PUSH2 0x364 PUSH1 0x0 DUP4 ADD DUP5 PUSH2 0x340 JUMP JUMPDEST SWAP3 SWAP2 POP POP JUMP JUMPDEST PUSH1 0x0 DUP2 ISZERO ISZERO SWAP1 POP SWAP2 SWAP1 POP JUMP JUMPDEST PUSH2 0x37F DUP2 PUSH2 0x36A JUMP JUMPDEST DUP3 MSTORE POP POP JUMP JUMPDEST PUSH1 0x0 PUSH1 0x20 DUP3 ADD SWAP1 POP PUSH2 0x39A PUSH1 0x0 DUP4 ADD DUP5 PUSH2 0x376 JUMP JUMPDEST SWAP3 SWAP2 POP POP JUMP JUMPDEST PUSH1 0x0 DUP2 MLOAD SWAP1 POP SWAP2 SWAP1 POP JUMP JUMPDEST PUSH1 0x0 DUP3 DUP3 MSTORE PUSH1 0x20 DUP3 ADD SWAP1 POP SWAP3 SWAP2 POP POP JUMP JUMPDEST PUSH1 0x0 JUMPDEST DUP4 DUP2 LT ISZERO PUSH2 0x3DA JUMPI DUP1 DUP3 ADD MLOAD DUP2 DUP5 ADD MSTORE PUSH1 0x20 DUP2 ADD SWAP1 POP PUSH2 0x3BF JUMP JUMPDEST PUSH1 0x0 DUP5 DUP5 ADD MSTORE POP POP POP POP JUMP JUMPDEST PUSH1 0x0 PUSH1 0x1F NOT PUSH1 0x1F DUP4 ADD AND SWAP1 POP SWAP2 SWAP1 POP JUMP JUMPDEST PUSH1 0x0 PUSH2 0x402 DUP3 PUSH2 0x3A0 JUMP JUMPDEST PUSH2 0x40C DUP2 DUP6 PUSH2 0x3AB JUMP JUMPDEST SWAP4 POP PUSH2 0x41C DUP2 DUP6 PUSH1 0x20 DUP7 ADD PUSH2 0x3BC JUMP JUMPDEST PUSH2 0x425 DUP2 PUSH2 0x3E6 JUMP JUMPDEST DUP5 ADD SWAP2 POP POP SWAP3 SWAP2 POP POP JUMP JUMPDEST PUSH1 0x0 PUSH1 0x20 DUP3 ADD SWAP1 POP DUP2 DUP2 SUB PUSH1 0x0 DUP4 ADD MSTORE PUSH2 0x44A DUP2 DUP5 PUSH2 0x3F7 JUMP JUMPDEST SWAP1 POP SWAP3 SWAP2 POP POP JUMP JUMPDEST PUSH32 0x4E487B7100000000000000000000000000000000000000000000000000000000 PUSH1 0x0 MSTORE PUSH1 0x22 PUSH1 0x4 MSTORE PUSH1 0x24 PUSH1 0x0 REVERT JUMPDEST PUSH1 0x0 PUSH1 0x2 DUP3 DIV SWAP1 POP PUSH1 0x1 DUP3 AND DUP1 PUSH2 0x499 JUMPI PUSH1 0x7F DUP3 AND SWAP2 POP JUMPDEST PUSH1 0x20 DUP3 LT DUP2 SUB PUSH2 0x4AC JUMPI PUSH2 0x4AB PUSH2 0x452 JUMP JUMPDEST JUMPDEST POP SWAP2 SWAP1 POP JUMP JUMPDEST PUSH1 0x0 DUP2 SWAP1 POP DUP2 PUSH1 0x0 MSTORE PUSH1 0x20 PUSH1 0x0 KECCAK256 SWAP1 POP SWAP2 SWAP1 POP JUMP JUMPDEST PUSH1 0x0 DUP2 SLOAD PUSH2 0x4D4 DUP2 PUSH2 0x481 JUMP JUMPDEST PUSH2 0x4DE DUP2 DUP7 PUSH2 0x3AB JUMP JUMPDEST SWAP5 POP PUSH1 0x1 DUP3 AND PUSH1 0x0 DUP2 EQ PUSH2 0x4F9 JUMPI PUSH1 0x1 DUP2 EQ PUSH2 0x50F JUMPI PUSH2 0x542 JUMP JUMPDEST PUSH1 0xFF NOT DUP4 AND DUP7 MSTORE DUP2 ISZERO ISZERO PUSH1 0x20 MUL DUP7 ADD SWAP4 POP PUSH2 0x542 JUMP JUMPDEST PUSH2 0x518 DUP6 PUSH2 0x4B2 JUMP JUMPDEST PUSH1 0x0 JUMPDEST DUP4 DUP2 LT ISZERO PUSH2 0x53A JUMPI DUP2 SLOAD DUP2 DUP10 ADD MSTORE PUSH1 0x1 DUP3 ADD SWAP2 POP PUSH1 0x20 DUP2 ADD SWAP1 POP PUSH2 0x51B JUMP JUMPDEST DUP1 DUP9 ADD SWAP6 POP POP POP JUMPDEST POP POP POP SWAP3 SWAP2 POP POP JUMP JUMPDEST PUSH1 0x0 PUSH1 0x20 DUP3 ADD SWAP1 POP DUP2 DUP2 SUB PUSH1 0x0 DUP4 ADD MSTORE PUSH2 0x565 DUP2 DUP5 PUSH2 0x4C7 JUMP JUMPDEST SWAP1 POP SWAP3 SWAP2 POP POP JUMP JUMPDEST PUSH1 0x0 DUP1 REVERT JUMPDEST PUSH2 0x57B DUP2 PUSH2 0x336 JUMP JUMPDEST DUP2 EQ PUSH2 0x586 JUMPI PUSH1 0x0 DUP1 REVERT JUMPDEST POP JUMP JUMPDEST PUSH1 0x0 DUP2 MLOAD SWAP1 POP PUSH2 0x598 DUP2 PUSH2 0x572 JUMP JUMPDEST SWAP3 SWAP2 POP POP JUMP JUMPDEST PUSH1 0x0 PUSH1 0x20 DUP3 DUP5 SUB SLT ISZERO PUSH2 0x5B4 JUMPI PUSH2 0x5B3 PUSH2 0x56D JUMP JUMPDEST JUMPDEST PUSH1 0x0 PUSH2 0x5C2 DUP5 DUP3 DUP6 ADD PUSH2 0x589 JUMP JUMPDEST SWAP2 POP POP SWAP3 SWAP2 POP POP JUMP JUMPDEST PUSH2 0x5D4 DUP2 PUSH2 0x36A JUMP JUMPDEST DUP2 EQ PUSH2 0x5DF JUMPI PUSH1 0x0 DUP1 REVERT JUMPDEST POP JUMP JUMPDEST PUSH1 0x0 DUP2 MLOAD SWAP1 POP PUSH2 0x5F1 DUP2 PUSH2 0x5CB JUMP JUMPDEST SWAP3 SWAP2 POP POP JUMP JUMPDEST PUSH1 0x0 PUSH1 0x20 DUP3 DUP5 SUB SLT ISZERO PUSH2 0x60D JUMPI PUSH2 0x60C PUSH2 0x56D JUMP JUMPDEST JUMPDEST PUSH1 0x0 PUSH2 0x61B DUP5 DUP3 DUP6 ADD PUSH2 0x5E2 JUMP JUMPDEST SWAP2 POP POP SWAP3 SWAP2 POP POP JUMP INVALID LOG2 PUSH5 0x6970667358 0x22 SLT KECCAK256 0xB8 SELFDESTRUCT 0xC1 0x4C SIGNEXTEND 0xC3 0x4D NOT 0x2B LOG3 0xE7 0x29 SWAP10 PC 0xAD 0xC1 RETURNDATASIZE PC 0xEC 0x49 SUB PUSH24 0x525073E09FCDCCFFD7C164736F6C63430008100033417267 PUSH6 0x6E74696E6120 PUSH24 0x6F6E207468652032303232204669666120776F726C642063 PUSH22 0x7020696E205161746172000000000000000000000000 "
				},
				"gasEstimates": {
					"creation": {
						"codeDepositCost": "325200",
						"executionCost": "infinite",
						"totalCost": "infinite"
					},
					"external": {
						"assertTruth()": "infinite",
						"assertedClaim()": "infinite",
						"assertionId()": "2407",
						"getAssertionResult()": "infinite",
						"settleResult()": "infinite"
					}
				},
				"methodIdentifiers": {
					"assertTruth()": "3421390b",
					"assertedClaim()": "c1a8ec2c",
					"assertionId()": "0d80da74",
					"getAssertionResult()": "7facaf3f",
					"settleResult()": "ae0190ee"
				}
			},
			"storageLayout": {
				"storage": [
					{
						"astId": 8,
						"contract": "Test/OOV3.sol:OO_GettingStarted",
						"label": "oa",
						"offset": 0,
						"slot": "0",
						"type": "t_contract(OptimisticOracleV3)238"
					},
					{
						"astId": 14,
						"contract": "Test/OOV3.sol:OO_GettingStarted",
						"label": "assertedClaim",
						"offset": 0,
						"slot": "1",
						"type": "t_bytes_storage"
					},
					{
						"astId": 16,
						"contract": "Test/OOV3.sol:OO_GettingStarted",
						"label": "assertionId",
						"offset": 0,
						"slot": "2",
						"type": "t_uint256"
					}
				],
				"types": {
					"t_bytes_storage": {
						"encoding": "bytes",
						"label": "bytes",
						"numberOfBytes": "32"
					},
					"t_contract(OptimisticOracleV3)238": {
						"encoding": "inplace",
						"label": "contract OptimisticOracleV3",
						"numberOfBytes": "20"
					},
					"t_uint256": {
						"encoding": "inplace",
						"label": "uint256",
						"numberOfBytes": "32"
					}
				}
			},
			"userdoc": {
				"kind": "user",
				"methods": {},
				"version": 1
			}
		}
	}
}