{
	"Test/OOV2.sol": {
		"OO_GettingStarted": {
			"abi": [
				{
					"inputs": [],
					"name": "getSettledData",
					"outputs": [
						{
							"internalType": "int256",
							"name": "",
							"type": "int256"
						}
					],
					"stateMutability": "view",
					"type": "function"
				},
				{
					"inputs": [],
					"name": "requestData",
					"outputs": [],
					"stateMutability": "nonpayable",
					"type": "function"
				},
				{
					"inputs": [],
					"name": "settleRequest",
					"outputs": [],
					"stateMutability": "nonpayable",
					"type": "function"
				}
			],
			"devdoc": {
				"kind": "dev",
				"methods": {},
				"version": 1
			},
			"evm": {
				"assembly": "    /* \"Test/OOV2.sol\":713:2751  contract OO_GettingStarted {... */\n  mstore(0x40, 0x80)\n    /* \"Test/OOV2.sol\":868:910  0xA5B9d8a0B0Fa04Ba71BDD68069661ED5C0848884 */\n  0xa5b9d8a0b0fa04ba71bdd68069661ed5c0848884\n    /* \"Test/OOV2.sol\":825:911  OptimisticOracleV2 oo = OptimisticOracleV2(0xA5B9d8a0B0Fa04Ba71BDD68069661ED5C0848884) */\n  0x00\n  dup1\n  0x0100\n  exp\n  dup2\n  sload\n  dup2\n  0xffffffffffffffffffffffffffffffffffffffff\n  mul\n  not\n  and\n  swap1\n  dup4\n  0xffffffffffffffffffffffffffffffffffffffff\n  and\n  mul\n  or\n  swap1\n  sstore\n  pop\n    /* \"Test/OOV2.sol\":1039:1065  bytes32(\"YES_OR_NO_QUERY\") */\n  0x5945535f4f525f4e4f5f51554552590000000000000000000000000000000000\n    /* \"Test/OOV2.sol\":1018:1065  bytes32 identifier = bytes32(\"YES_OR_NO_QUERY\") */\n  0x01\n  sstore\n    /* \"Test/OOV2.sol\":1355:1483  bytes(... */\n  mload(0x40)\n  dup1\n  0xa0\n  add\n  0x40\n  mstore\n  dup1\n  0x61\n  dup2\n  mstore\n  0x20\n  add\n  data_211fb6934242c4a170a55409f23721024ef4610d68f86ceb2da8f56040a35d65\n  0x61\n  swap2\n  codecopy\n    /* \"Test/OOV2.sol\":1325:1483  bytes ancillaryData =... */\n  0x02\n  swap1\n  dup2\n  tag_1\n  swap2\n  swap1\n  tag_2\n  jump\t// in\ntag_1:\n  pop\n    /* \"Test/OOV2.sol\":1512:1513  0 */\n  0x00\n    /* \"Test/OOV2.sol\":1490:1513  uint256 requestTime = 0 */\n  0x03\n  sstore\n    /* \"Test/OOV2.sol\":713:2751  contract OO_GettingStarted {... */\n  callvalue\n  dup1\n  iszero\n  tag_3\n  jumpi\n  0x00\n  dup1\n  revert\ntag_3:\n  pop\n  jump(tag_4)\n    /* \"#utility.yul\":7:105   */\ntag_5:\n    /* \"#utility.yul\":58:64   */\n  0x00\n    /* \"#utility.yul\":92:97   */\n  dup2\n    /* \"#utility.yul\":86:98   */\n  mload\n    /* \"#utility.yul\":76:98   */\n  swap1\n  pop\n    /* \"#utility.yul\":7:105   */\n  swap2\n  swap1\n  pop\n  jump\t// out\n    /* \"#utility.yul\":111:291   */\ntag_6:\n    /* \"#utility.yul\":159:236   */\n  0x4e487b7100000000000000000000000000000000000000000000000000000000\n    /* \"#utility.yul\":156:157   */\n  0x00\n    /* \"#utility.yul\":149:237   */\n  mstore\n    /* \"#utility.yul\":256:260   */\n  0x41\n    /* \"#utility.yul\":253:254   */\n  0x04\n    /* \"#utility.yul\":246:261   */\n  mstore\n    /* \"#utility.yul\":280:284   */\n  0x24\n    /* \"#utility.yul\":277:278   */\n  0x00\n    /* \"#utility.yul\":270:285   */\n  revert\n    /* \"#utility.yul\":297:477   */\ntag_7:\n    /* \"#utility.yul\":345:422   */\n  0x4e487b7100000000000000000000000000000000000000000000000000000000\n    /* \"#utility.yul\":342:343   */\n  0x00\n    /* \"#utility.yul\":335:423   */\n  mstore\n    /* \"#utility.yul\":442:446   */\n  0x22\n    /* \"#utility.yul\":439:440   */\n  0x04\n    /* \"#utility.yul\":432:447   */\n  mstore\n    /* \"#utility.yul\":466:470   */\n  0x24\n    /* \"#utility.yul\":463:464   */\n  0x00\n    /* \"#utility.yul\":456:471   */\n  revert\n    /* \"#utility.yul\":483:803   */\ntag_8:\n    /* \"#utility.yul\":527:533   */\n  0x00\n    /* \"#utility.yul\":564:565   */\n  0x02\n    /* \"#utility.yul\":558:562   */\n  dup3\n    /* \"#utility.yul\":554:566   */\n  div\n    /* \"#utility.yul\":544:566   */\n  swap1\n  pop\n    /* \"#utility.yul\":611:612   */\n  0x01\n    /* \"#utility.yul\":605:609   */\n  dup3\n    /* \"#utility.yul\":601:613   */\n  and\n    /* \"#utility.yul\":632:650   */\n  dup1\n    /* \"#utility.yul\":622:703   */\n  tag_30\n  jumpi\n    /* \"#utility.yul\":688:692   */\n  0x7f\n    /* \"#utility.yul\":680:686   */\n  dup3\n    /* \"#utility.yul\":676:693   */\n  and\n    /* \"#utility.yul\":666:693   */\n  swap2\n  pop\n    /* \"#utility.yul\":622:703   */\ntag_30:\n    /* \"#utility.yul\":750:752   */\n  0x20\n    /* \"#utility.yul\":742:748   */\n  dup3\n    /* \"#utility.yul\":739:753   */\n  lt\n    /* \"#utility.yul\":719:737   */\n  dup2\n    /* \"#utility.yul\":716:754   */\n  sub\n    /* \"#utility.yul\":713:797   */\n  tag_31\n  jumpi\n    /* \"#utility.yul\":769:787   */\n  tag_32\n  tag_7\n  jump\t// in\ntag_32:\n    /* \"#utility.yul\":713:797   */\ntag_31:\n    /* \"#utility.yul\":534:803   */\n  pop\n    /* \"#utility.yul\":483:803   */\n  swap2\n  swap1\n  pop\n  jump\t// out\n    /* \"#utility.yul\":809:949   */\ntag_9:\n    /* \"#utility.yul\":857:861   */\n  0x00\n    /* \"#utility.yul\":880:883   */\n  dup2\n    /* \"#utility.yul\":872:883   */\n  swap1\n  pop\n    /* \"#utility.yul\":903:906   */\n  dup2\n    /* \"#utility.yul\":900:901   */\n  0x00\n    /* \"#utility.yul\":893:907   */\n  mstore\n    /* \"#utility.yul\":937:941   */\n  0x20\n    /* \"#utility.yul\":934:935   */\n  0x00\n    /* \"#utility.yul\":924:942   */\n  keccak256\n    /* \"#utility.yul\":916:942   */\n  swap1\n  pop\n    /* \"#utility.yul\":809:949   */\n  swap2\n  swap1\n  pop\n  jump\t// out\n    /* \"#utility.yul\":955:1048   */\ntag_10:\n    /* \"#utility.yul\":992:998   */\n  0x00\n    /* \"#utility.yul\":1039:1041   */\n  0x20\n    /* \"#utility.yul\":1034:1036   */\n  0x1f\n    /* \"#utility.yul\":1027:1032   */\n  dup4\n    /* \"#utility.yul\":1023:1037   */\n  add\n    /* \"#utility.yul\":1019:1042   */\n  div\n    /* \"#utility.yul\":1009:1042   */\n  swap1\n  pop\n    /* \"#utility.yul\":955:1048   */\n  swap2\n  swap1\n  pop\n  jump\t// out\n    /* \"#utility.yul\":1054:1161   */\ntag_11:\n    /* \"#utility.yul\":1098:1106   */\n  0x00\n    /* \"#utility.yul\":1148:1153   */\n  dup3\n    /* \"#utility.yul\":1142:1146   */\n  dup3\n    /* \"#utility.yul\":1138:1154   */\n  shl\n    /* \"#utility.yul\":1117:1154   */\n  swap1\n  pop\n    /* \"#utility.yul\":1054:1161   */\n  swap3\n  swap2\n  pop\n  pop\n  jump\t// out\n    /* \"#utility.yul\":1167:1560   */\ntag_12:\n    /* \"#utility.yul\":1236:1242   */\n  0x00\n    /* \"#utility.yul\":1286:1287   */\n  0x08\n    /* \"#utility.yul\":1274:1284   */\n  dup4\n    /* \"#utility.yul\":1270:1288   */\n  mul\n    /* \"#utility.yul\":1309:1406   */\n  tag_37\n    /* \"#utility.yul\":1339:1405   */\n  0xffffffffffffffffffffffffffffffffffffffffffffffffffffffffffffffff\n    /* \"#utility.yul\":1328:1337   */\n  dup3\n    /* \"#utility.yul\":1309:1406   */\n  tag_11\n  jump\t// in\ntag_37:\n    /* \"#utility.yul\":1427:1466   */\n  tag_38\n    /* \"#utility.yul\":1457:1465   */\n  dup7\n    /* \"#utility.yul\":1446:1455   */\n  dup4\n    /* \"#utility.yul\":1427:1466   */\n  tag_11\n  jump\t// in\ntag_38:\n    /* \"#utility.yul\":1415:1466   */\n  swap6\n  pop\n    /* \"#utility.yul\":1499:1503   */\n  dup1\n    /* \"#utility.yul\":1495:1504   */\n  not\n    /* \"#utility.yul\":1488:1493   */\n  dup5\n    /* \"#utility.yul\":1484:1505   */\n  and\n    /* \"#utility.yul\":1475:1505   */\n  swap4\n  pop\n    /* \"#utility.yul\":1548:1552   */\n  dup1\n    /* \"#utility.yul\":1538:1546   */\n  dup7\n    /* \"#utility.yul\":1534:1553   */\n  and\n    /* \"#utility.yul\":1527:1532   */\n  dup5\n    /* \"#utility.yul\":1524:1554   */\n  or\n    /* \"#utility.yul\":1514:1554   */\n  swap3\n  pop\n    /* \"#utility.yul\":1243:1560   */\n  pop\n  pop\n    /* \"#utility.yul\":1167:1560   */\n  swap4\n  swap3\n  pop\n  pop\n  pop\n  jump\t// out\n    /* \"#utility.yul\":1566:1643   */\ntag_13:\n    /* \"#utility.yul\":1603:1610   */\n  0x00\n    /* \"#utility.yul\":1632:1637   */\n  dup2\n    /* \"#utility.yul\":1621:1637   */\n  swap1\n  pop\n    /* \"#utility.yul\":1566:1643   */\n  swap2\n  swap1\n  pop\n  jump\t// out\n    /* \"#utility.yul\":1649:1709   */\ntag_14:\n    /* \"#utility.yul\":1677:1680   */\n  0x00\n    /* \"#utility.yul\":1698:1703   */\n  dup2\n    /* \"#utility.yul\":1691:1703   */\n  swap1\n  pop\n    /* \"#utility.yul\":1649:1709   */\n  swap2\n  swap1\n  pop\n  jump\t// out\n    /* \"#utility.yul\":1715:1857   */\ntag_15:\n    /* \"#utility.yul\":1765:1774   */\n  0x00\n    /* \"#utility.yul\":1798:1851   */\n  tag_42\n    /* \"#utility.yul\":1816:1850   */\n  tag_43\n    /* \"#utility.yul\":1825:1849   */\n  tag_44\n    /* \"#utility.yul\":1843:1848   */\n  dup5\n    /* \"#utility.yul\":1825:1849   */\n  tag_13\n  jump\t// in\ntag_44:\n    /* \"#utility.yul\":1816:1850   */\n  tag_14\n  jump\t// in\ntag_43:\n    /* \"#utility.yul\":1798:1851   */\n  tag_13\n  jump\t// in\ntag_42:\n    /* \"#utility.yul\":1785:1851   */\n  swap1\n  pop\n    /* \"#utility.yul\":1715:1857   */\n  swap2\n  swap1\n  pop\n  jump\t// out\n    /* \"#utility.yul\":1863:1938   */\ntag_16:\n    /* \"#utility.yul\":1906:1909   */\n  0x00\n    /* \"#utility.yul\":1927:1932   */\n  dup2\n    /* \"#utility.yul\":1920:1932   */\n  swap1\n  pop\n    /* \"#utility.yul\":1863:1938   */\n  swap2\n  swap1\n  pop\n  jump\t// out\n    /* \"#utility.yul\":1944:2213   */\ntag_17:\n    /* \"#utility.yul\":2054:2093   */\n  tag_47\n    /* \"#utility.yul\":2085:2092   */\n  dup4\n    /* \"#utility.yul\":2054:2093   */\n  tag_15\n  jump\t// in\ntag_47:\n    /* \"#utility.yul\":2115:2206   */\n  tag_48\n    /* \"#utility.yul\":2164:2205   */\n  tag_49\n    /* \"#utility.yul\":2188:2204   */\n  dup3\n    /* \"#utility.yul\":2164:2205   */\n  tag_16\n  jump\t// in\ntag_49:\n    /* \"#utility.yul\":2156:2162   */\n  dup5\n    /* \"#utility.yul\":2149:2153   */\n  dup5\n    /* \"#utility.yul\":2143:2154   */\n  sload\n    /* \"#utility.yul\":2115:2206   */\n  tag_12\n  jump\t// in\ntag_48:\n    /* \"#utility.yul\":2109:2113   */\n  dup3\n    /* \"#utility.yul\":2102:2207   */\n  sstore\n    /* \"#utility.yul\":2020:2213   */\n  pop\n    /* \"#utility.yul\":1944:2213   */\n  pop\n  pop\n  pop\n  jump\t// out\n    /* \"#utility.yul\":2219:2292   */\ntag_18:\n    /* \"#utility.yul\":2264:2267   */\n  0x00\n    /* \"#utility.yul\":2219:2292   */\n  swap1\n  jump\t// out\n    /* \"#utility.yul\":2298:2487   */\ntag_19:\n    /* \"#utility.yul\":2375:2407   */\n  tag_52\n  tag_18\n  jump\t// in\ntag_52:\n    /* \"#utility.yul\":2416:2481   */\n  tag_53\n    /* \"#utility.yul\":2474:2480   */\n  dup2\n    /* \"#utility.yul\":2466:2472   */\n  dup5\n    /* \"#utility.yul\":2460:2464   */\n  dup5\n    /* \"#utility.yul\":2416:2481   */\n  tag_17\n  jump\t// in\ntag_53:\n    /* \"#utility.yul\":2351:2487   */\n  pop\n    /* \"#utility.yul\":2298:2487   */\n  pop\n  pop\n  jump\t// out\n    /* \"#utility.yul\":2493:2679   */\ntag_20:\n    /* \"#utility.yul\":2553:2673   */\ntag_55:\n    /* \"#utility.yul\":2570:2573   */\n  dup2\n    /* \"#utility.yul\":2563:2568   */\n  dup2\n    /* \"#utility.yul\":2560:2574   */\n  lt\n    /* \"#utility.yul\":2553:2673   */\n  iszero\n  tag_57\n  jumpi\n    /* \"#utility.yul\":2624:2663   */\n  tag_58\n    /* \"#utility.yul\":2661:2662   */\n  0x00\n    /* \"#utility.yul\":2654:2659   */\n  dup3\n    /* \"#utility.yul\":2624:2663   */\n  tag_19\n  jump\t// in\ntag_58:\n    /* \"#utility.yul\":2597:2598   */\n  0x01\n    /* \"#utility.yul\":2590:2595   */\n  dup2\n    /* \"#utility.yul\":2586:2599   */\n  add\n    /* \"#utility.yul\":2577:2599   */\n  swap1\n  pop\n    /* \"#utility.yul\":2553:2673   */\n  jump(tag_55)\ntag_57:\n    /* \"#utility.yul\":2493:2679   */\n  pop\n  pop\n  jump\t// out\n    /* \"#utility.yul\":2685:3226   */\ntag_21:\n    /* \"#utility.yul\":2785:2787   */\n  0x1f\n    /* \"#utility.yul\":2780:2783   */\n  dup3\n    /* \"#utility.yul\":2777:2788   */\n  gt\n    /* \"#utility.yul\":2774:3219   */\n  iszero\n  tag_60\n  jumpi\n    /* \"#utility.yul\":2819:2856   */\n  tag_61\n    /* \"#utility.yul\":2850:2855   */\n  dup2\n    /* \"#utility.yul\":2819:2856   */\n  tag_9\n  jump\t// in\ntag_61:\n    /* \"#utility.yul\":2902:2931   */\n  tag_62\n    /* \"#utility.yul\":2920:2930   */\n  dup5\n    /* \"#utility.yul\":2902:2931   */\n  tag_10\n  jump\t// in\ntag_62:\n    /* \"#utility.yul\":2892:2900   */\n  dup2\n    /* \"#utility.yul\":2888:2932   */\n  add\n    /* \"#utility.yul\":3085:3087   */\n  0x20\n    /* \"#utility.yul\":3073:3083   */\n  dup6\n    /* \"#utility.yul\":3070:3088   */\n  lt\n    /* \"#utility.yul\":3067:3116   */\n  iszero\n  tag_63\n  jumpi\n    /* \"#utility.yul\":3106:3114   */\n  dup2\n    /* \"#utility.yul\":3091:3114   */\n  swap1\n  pop\n    /* \"#utility.yul\":3067:3116   */\ntag_63:\n    /* \"#utility.yul\":3129:3209   */\n  tag_64\n    /* \"#utility.yul\":3185:3207   */\n  tag_65\n    /* \"#utility.yul\":3203:3206   */\n  dup6\n    /* \"#utility.yul\":3185:3207   */\n  tag_10\n  jump\t// in\ntag_65:\n    /* \"#utility.yul\":3175:3183   */\n  dup4\n    /* \"#utility.yul\":3171:3208   */\n  add\n    /* \"#utility.yul\":3158:3169   */\n  dup3\n    /* \"#utility.yul\":3129:3209   */\n  tag_20\n  jump\t// in\ntag_64:\n    /* \"#utility.yul\":2789:3219   */\n  pop\n  pop\n    /* \"#utility.yul\":2774:3219   */\ntag_60:\n    /* \"#utility.yul\":2685:3226   */\n  pop\n  pop\n  pop\n  jump\t// out\n    /* \"#utility.yul\":3232:3349   */\ntag_22:\n    /* \"#utility.yul\":3286:3294   */\n  0x00\n    /* \"#utility.yul\":3336:3341   */\n  dup3\n    /* \"#utility.yul\":3330:3334   */\n  dup3\n    /* \"#utility.yul\":3326:3342   */\n  shr\n    /* \"#utility.yul\":3305:3342   */\n  swap1\n  pop\n    /* \"#utility.yul\":3232:3349   */\n  swap3\n  swap2\n  pop\n  pop\n  jump\t// out\n    /* \"#utility.yul\":3355:3524   */\ntag_23:\n    /* \"#utility.yul\":3399:3405   */\n  0x00\n    /* \"#utility.yul\":3432:3483   */\n  tag_68\n    /* \"#utility.yul\":3480:3481   */\n  0x00\n    /* \"#utility.yul\":3476:3482   */\n  not\n    /* \"#utility.yul\":3468:3473   */\n  dup5\n    /* \"#utility.yul\":3465:3466   */\n  0x08\n    /* \"#utility.yul\":3461:3474   */\n  mul\n    /* \"#utility.yul\":3432:3483   */\n  tag_22\n  jump\t// in\ntag_68:\n    /* \"#utility.yul\":3428:3484   */\n  not\n    /* \"#utility.yul\":3513:3517   */\n  dup1\n    /* \"#utility.yul\":3507:3511   */\n  dup4\n    /* \"#utility.yul\":3503:3518   */\n  and\n    /* \"#utility.yul\":3493:3518   */\n  swap2\n  pop\n    /* \"#utility.yul\":3406:3524   */\n  pop\n    /* \"#utility.yul\":3355:3524   */\n  swap3\n  swap2\n  pop\n  pop\n  jump\t// out\n    /* \"#utility.yul\":3529:3824   */\ntag_24:\n    /* \"#utility.yul\":3605:3609   */\n  0x00\n    /* \"#utility.yul\":3751:3780   */\n  tag_70\n    /* \"#utility.yul\":3776:3779   */\n  dup4\n    /* \"#utility.yul\":3770:3774   */\n  dup4\n    /* \"#utility.yul\":3751:3780   */\n  tag_23\n  jump\t// in\ntag_70:\n    /* \"#utility.yul\":3743:3780   */\n  swap2\n  pop\n    /* \"#utility.yul\":3813:3816   */\n  dup3\n    /* \"#utility.yul\":3810:3811   */\n  0x02\n    /* \"#utility.yul\":3806:3817   */\n  mul\n    /* \"#utility.yul\":3800:3804   */\n  dup3\n    /* \"#utility.yul\":3797:3818   */\n  or\n    /* \"#utility.yul\":3789:3818   */\n  swap1\n  pop\n    /* \"#utility.yul\":3529:3824   */\n  swap3\n  swap2\n  pop\n  pop\n  jump\t// out\n    /* \"#utility.yul\":3829:5219   */\ntag_2:\n    /* \"#utility.yul\":3944:3980   */\n  tag_72\n    /* \"#utility.yul\":3976:3979   */\n  dup3\n    /* \"#utility.yul\":3944:3980   */\n  tag_5\n  jump\t// in\ntag_72:\n    /* \"#utility.yul\":4045:4063   */\n  0xffffffffffffffff\n    /* \"#utility.yul\":4037:4043   */\n  dup2\n    /* \"#utility.yul\":4034:4064   */\n  gt\n    /* \"#utility.yul\":4031:4087   */\n  iszero\n  tag_73\n  jumpi\n    /* \"#utility.yul\":4067:4085   */\n  tag_74\n  tag_6\n  jump\t// in\ntag_74:\n    /* \"#utility.yul\":4031:4087   */\ntag_73:\n    /* \"#utility.yul\":4111:4149   */\n  tag_75\n    /* \"#utility.yul\":4143:4147   */\n  dup3\n    /* \"#utility.yul\":4137:4148   */\n  sload\n    /* \"#utility.yul\":4111:4149   */\n  tag_8\n  jump\t// in\ntag_75:\n    /* \"#utility.yul\":4196:4262   */\n  tag_76\n    /* \"#utility.yul\":4255:4261   */\n  dup3\n    /* \"#utility.yul\":4247:4253   */\n  dup3\n    /* \"#utility.yul\":4241:4245   */\n  dup6\n    /* \"#utility.yul\":4196:4262   */\n  tag_21\n  jump\t// in\ntag_76:\n    /* \"#utility.yul\":4289:4290   */\n  0x00\n    /* \"#utility.yul\":4313:4317   */\n  0x20\n    /* \"#utility.yul\":4300:4317   */\n  swap1\n  pop\n    /* \"#utility.yul\":4345:4347   */\n  0x1f\n    /* \"#utility.yul\":4337:4343   */\n  dup4\n    /* \"#utility.yul\":4334:4348   */\n  gt\n    /* \"#utility.yul\":4362:4363   */\n  0x01\n    /* \"#utility.yul\":4357:4974   */\n  dup2\n  eq\n  tag_78\n  jumpi\n    /* \"#utility.yul\":5018:5019   */\n  0x00\n    /* \"#utility.yul\":5035:5041   */\n  dup5\n    /* \"#utility.yul\":5032:5109   */\n  iszero\n  tag_79\n  jumpi\n    /* \"#utility.yul\":5084:5093   */\n  dup3\n    /* \"#utility.yul\":5079:5082   */\n  dup8\n    /* \"#utility.yul\":5075:5094   */\n  add\n    /* \"#utility.yul\":5069:5095   */\n  mload\n    /* \"#utility.yul\":5060:5095   */\n  swap1\n  pop\n    /* \"#utility.yul\":5032:5109   */\ntag_79:\n    /* \"#utility.yul\":5135:5202   */\n  tag_80\n    /* \"#utility.yul\":5195:5201   */\n  dup6\n    /* \"#utility.yul\":5188:5193   */\n  dup3\n    /* \"#utility.yul\":5135:5202   */\n  tag_24\n  jump\t// in\ntag_80:\n    /* \"#utility.yul\":5129:5133   */\n  dup7\n    /* \"#utility.yul\":5122:5203   */\n  sstore\n    /* \"#utility.yul\":4991:5213   */\n  pop\n    /* \"#utility.yul\":4327:5213   */\n  jump(tag_77)\n    /* \"#utility.yul\":4357:4974   */\ntag_78:\n    /* \"#utility.yul\":4409:4413   */\n  0x1f\n    /* \"#utility.yul\":4405:4414   */\n  not\n    /* \"#utility.yul\":4397:4403   */\n  dup5\n    /* \"#utility.yul\":4393:4415   */\n  and\n    /* \"#utility.yul\":4443:4479   */\n  tag_81\n    /* \"#utility.yul\":4474:4478   */\n  dup7\n    /* \"#utility.yul\":4443:4479   */\n  tag_9\n  jump\t// in\ntag_81:\n    /* \"#utility.yul\":4501:4502   */\n  0x00\n    /* \"#utility.yul\":4515:4723   */\ntag_82:\n    /* \"#utility.yul\":4529:4536   */\n  dup3\n    /* \"#utility.yul\":4526:4527   */\n  dup2\n    /* \"#utility.yul\":4523:4537   */\n  lt\n    /* \"#utility.yul\":4515:4723   */\n  iszero\n  tag_84\n  jumpi\n    /* \"#utility.yul\":4608:4617   */\n  dup5\n    /* \"#utility.yul\":4603:4606   */\n  dup10\n    /* \"#utility.yul\":4599:4618   */\n  add\n    /* \"#utility.yul\":4593:4619   */\n  mload\n    /* \"#utility.yul\":4585:4591   */\n  dup3\n    /* \"#utility.yul\":4578:4620   */\n  sstore\n    /* \"#utility.yul\":4659:4660   */\n  0x01\n    /* \"#utility.yul\":4651:4657   */\n  dup3\n    /* \"#utility.yul\":4647:4661   */\n  add\n    /* \"#utility.yul\":4637:4661   */\n  swap2\n  pop\n    /* \"#utility.yul\":4706:4708   */\n  0x20\n    /* \"#utility.yul\":4695:4704   */\n  dup6\n    /* \"#utility.yul\":4691:4709   */\n  add\n    /* \"#utility.yul\":4678:4709   */\n  swap5\n  pop\n    /* \"#utility.yul\":4552:4556   */\n  0x20\n    /* \"#utility.yul\":4549:4550   */\n  dup2\n    /* \"#utility.yul\":4545:4557   */\n  add\n    /* \"#utility.yul\":4540:4557   */\n  swap1\n  pop\n    /* \"#utility.yul\":4515:4723   */\n  jump(tag_82)\ntag_84:\n    /* \"#utility.yul\":4751:4757   */\n  dup7\n    /* \"#utility.yul\":4742:4749   */\n  dup4\n    /* \"#utility.yul\":4739:4758   */\n  lt\n    /* \"#utility.yul\":4736:4915   */\n  iszero\n  tag_85\n  jumpi\n    /* \"#utility.yul\":4809:4818   */\n  dup5\n    /* \"#utility.yul\":4804:4807   */\n  dup10\n    /* \"#utility.yul\":4800:4819   */\n  add\n    /* \"#utility.yul\":4794:4820   */\n  mload\n    /* \"#utility.yul\":4852:4900   */\n  tag_86\n    /* \"#utility.yul\":4894:4898   */\n  0x1f\n    /* \"#utility.yul\":4886:4892   */\n  dup10\n    /* \"#utility.yul\":4882:4899   */\n  and\n    /* \"#utility.yul\":4871:4880   */\n  dup3\n    /* \"#utility.yul\":4852:4900   */\n  tag_23\n  jump\t// in\ntag_86:\n    /* \"#utility.yul\":4844:4850   */\n  dup4\n    /* \"#utility.yul\":4837:4901   */\n  sstore\n    /* \"#utility.yul\":4759:4915   */\n  pop\n    /* \"#utility.yul\":4736:4915   */\ntag_85:\n    /* \"#utility.yul\":4961:4962   */\n  0x01\n    /* \"#utility.yul\":4957:4958   */\n  0x02\n    /* \"#utility.yul\":4949:4955   */\n  dup9\n    /* \"#utility.yul\":4945:4959   */\n  mul\n    /* \"#utility.yul\":4941:4963   */\n  add\n    /* \"#utility.yul\":4935:4939   */\n  dup9\n    /* \"#utility.yul\":4928:4964   */\n  sstore\n    /* \"#utility.yul\":4364:4974   */\n  pop\n  pop\n  pop\n    /* \"#utility.yul\":4327:5213   */\ntag_77:\n  pop\n    /* \"#utility.yul\":3919:5219   */\n  pop\n  pop\n  pop\n    /* \"#utility.yul\":3829:5219   */\n  pop\n  pop\n  jump\t// out\n    /* \"Test/OOV2.sol\":713:2751  contract OO_GettingStarted {... */\ntag_4:\n  dataSize(sub_0)\n  dup1\n  dataOffset(sub_0)\n  0x00\n  codecopy\n  0x00\n  return\nstop\ndata_211fb6934242c4a170a55409f23721024ef4610d68f86ceb2da8f56040a35d65 513a446964207468652074656d7065726174757265206f6e207468652032357468206f66204a756c79203230323220696e204d616e68617474616e204e5920657863656564203335633f20413a3120666f72207965732e203020666f72206e6f2e\n\nsub_0: assembly {\n        /* \"Test/OOV2.sol\":713:2751  contract OO_GettingStarted {... */\n      mstore(0x40, 0x80)\n      callvalue\n      dup1\n      iszero\n      tag_1\n      jumpi\n      0x00\n      dup1\n      revert\n    tag_1:\n      pop\n      jumpi(tag_2, lt(calldatasize, 0x04))\n      shr(0xe0, calldataload(0x00))\n      dup1\n      0x606deecd\n      eq\n      tag_3\n      jumpi\n      dup1\n      0xf25ffb20\n      eq\n      tag_4\n      jumpi\n      dup1\n      0xfa776152\n      eq\n      tag_5\n      jumpi\n    tag_2:\n      0x00\n      dup1\n      revert\n        /* \"Test/OOV2.sol\":1648:2151  function requestData() public {... */\n    tag_3:\n      tag_6\n      tag_7\n      jump\t// in\n    tag_6:\n      stop\n        /* \"Test/OOV2.sol\":2573:2749  function getSettledData() public view returns (int256) {... */\n    tag_4:\n      tag_8\n      tag_9\n      jump\t// in\n    tag_8:\n      mload(0x40)\n      tag_10\n      swap2\n      swap1\n      tag_11\n      jump\t// in\n    tag_10:\n      mload(0x40)\n      dup1\n      swap2\n      sub\n      swap1\n      return\n        /* \"Test/OOV2.sol\":2414:2490  function settleRequest() public {... */\n    tag_5:\n      tag_12\n      tag_13\n      jump\t// in\n    tag_12:\n      stop\n        /* \"Test/OOV2.sol\":1648:2151  function requestData() public {... */\n    tag_7:\n        /* \"Test/OOV2.sol\":1702:1717  block.timestamp */\n      timestamp\n        /* \"Test/OOV2.sol\":1688:1699  requestTime */\n      0x03\n        /* \"Test/OOV2.sol\":1688:1717  requestTime = block.timestamp */\n      dup2\n      swap1\n      sstore\n      pop\n        /* \"Test/OOV2.sol\":1778:1798  address bondCurrency */\n      0x00\n        /* \"Test/OOV2.sol\":1801:1843  0xB4FBF271143F4FBf7B91A5ded31805e42b2208d6 */\n      0xb4fbf271143f4fbf7b91a5ded31805e42b2208d6\n        /* \"Test/OOV2.sol\":1778:1843  address bondCurrency = 0xB4FBF271143F4FBf7B91A5ded31805e42b2208d6 */\n      swap1\n      pop\n        /* \"Test/OOV2.sol\":1894:1908  uint256 reward */\n      0x00\n        /* \"Test/OOV2.sol\":2007:2009  oo */\n      dup1\n      dup1\n      sload\n      swap1\n      0x0100\n      exp\n      swap1\n      div\n      0xffffffffffffffffffffffffffffffffffffffff\n      and\n        /* \"Test/OOV2.sol\":2007:2021  oo.requestData */\n      0xffffffffffffffffffffffffffffffffffffffff\n      and\n      0xf84507ad\n        /* \"Test/OOV2.sol\":2035:2045  identifier */\n      sload(0x01)\n        /* \"Test/OOV2.sol\":2059:2072  ancillaryData */\n      0x02\n        /* \"Test/OOV2.sol\":2086:2098  bondCurrency */\n      dup6\n        /* \"Test/OOV2.sol\":2112:2118  reward */\n      dup6\n        /* \"Test/OOV2.sol\":2132:2134  30 */\n      0x1e\n        /* \"Test/OOV2.sol\":2007:2144  oo.requestData(... */\n      mload(0x40)\n      dup7\n      0xffffffff\n      and\n      0xe0\n      shl\n      dup2\n      mstore\n      0x04\n      add\n      tag_15\n      swap6\n      swap5\n      swap4\n      swap3\n      swap2\n      swap1\n      tag_16\n      jump\t// in\n    tag_15:\n      0x20\n      mload(0x40)\n      dup1\n      dup4\n      sub\n      dup2\n      0x00\n      dup8\n      gas\n      call\n      iszero\n      dup1\n      iszero\n      tag_18\n      jumpi\n      returndatasize\n      0x00\n      dup1\n      returndatacopy\n      revert(0x00, returndatasize)\n    tag_18:\n      pop\n      pop\n      pop\n      pop\n      mload(0x40)\n      returndatasize\n      not(0x1f)\n      0x1f\n      dup3\n      add\n      and\n      dup3\n      add\n      dup1\n      0x40\n      mstore\n      pop\n      dup2\n      add\n      swap1\n      tag_19\n      swap2\n      swap1\n      tag_20\n      jump\t// in\n    tag_19:\n        /* \"Test/OOV2.sol\":1995:2004  requestId */\n      0x04\n        /* \"Test/OOV2.sol\":1995:2144  requestId = oo.requestData(... */\n      dup2\n      swap1\n      sstore\n      pop\n        /* \"Test/OOV2.sol\":1678:2151  {... */\n      pop\n      pop\n        /* \"Test/OOV2.sol\":1648:2151  function requestData() public {... */\n      jump\t// out\n        /* \"Test/OOV2.sol\":2573:2749  function getSettledData() public view returns (int256) {... */\n    tag_9:\n        /* \"Test/OOV2.sol\":2620:2626  int256 */\n      0x00\n        /* \"Test/OOV2.sol\":2657:2659  oo */\n      dup1\n      0x00\n      swap1\n      sload\n      swap1\n      0x0100\n      exp\n      swap1\n      div\n      0xffffffffffffffffffffffffffffffffffffffff\n      and\n        /* \"Test/OOV2.sol\":2657:2693  oo... */\n      0xffffffffffffffffffffffffffffffffffffffff\n      and\n      0x5944427b\n        /* \"Test/OOV2.sol\":2715:2724  requestId */\n      sload(0x04)\n        /* \"Test/OOV2.sol\":2657:2742  oo... */\n      mload(0x40)\n      dup3\n      0xffffffff\n      and\n      0xe0\n      shl\n      dup2\n      mstore\n      0x04\n      add\n      tag_22\n      swap2\n      swap1\n      tag_23\n      jump\t// in\n    tag_22:\n      0x20\n      mload(0x40)\n      dup1\n      dup4\n      sub\n      dup2\n      dup7\n      gas\n      staticcall\n      iszero\n      dup1\n      iszero\n      tag_25\n      jumpi\n      returndatasize\n      0x00\n      dup1\n      returndatacopy\n      revert(0x00, returndatasize)\n    tag_25:\n      pop\n      pop\n      pop\n      pop\n      mload(0x40)\n      returndatasize\n      not(0x1f)\n      0x1f\n      dup3\n      add\n      and\n      dup3\n      add\n      dup1\n      0x40\n      mstore\n      pop\n      dup2\n      add\n      swap1\n      tag_26\n      swap2\n      swap1\n      tag_27\n      jump\t// in\n    tag_26:\n        /* \"Test/OOV2.sol\":2638:2742  return... */\n      swap1\n      pop\n        /* \"Test/OOV2.sol\":2573:2749  function getSettledData() public view returns (int256) {... */\n      swap1\n      jump\t// out\n        /* \"Test/OOV2.sol\":2414:2490  function settleRequest() public {... */\n    tag_13:\n        /* \"Test/OOV2.sol\":2456:2458  oo */\n      0x00\n      dup1\n      sload\n      swap1\n      0x0100\n      exp\n      swap1\n      div\n      0xffffffffffffffffffffffffffffffffffffffff\n      and\n        /* \"Test/OOV2.sol\":2456:2472  oo.settleRequest */\n      0xffffffffffffffffffffffffffffffffffffffff\n      and\n      0xd247f92b\n        /* \"Test/OOV2.sol\":2473:2482  requestId */\n      sload(0x04)\n        /* \"Test/OOV2.sol\":2456:2483  oo.settleRequest(requestId) */\n      mload(0x40)\n      dup3\n      0xffffffff\n      and\n      0xe0\n      shl\n      dup2\n      mstore\n      0x04\n      add\n      tag_29\n      swap2\n      swap1\n      tag_23\n      jump\t// in\n    tag_29:\n      0x00\n      mload(0x40)\n      dup1\n      dup4\n      sub\n      dup2\n      0x00\n      dup8\n      dup1\n      extcodesize\n      iszero\n      dup1\n      iszero\n      tag_30\n      jumpi\n      0x00\n      dup1\n      revert\n    tag_30:\n      pop\n      gas\n      call\n      iszero\n      dup1\n      iszero\n      tag_32\n      jumpi\n      returndatasize\n      0x00\n      dup1\n      returndatacopy\n      revert(0x00, returndatasize)\n    tag_32:\n      pop\n      pop\n      pop\n      pop\n        /* \"Test/OOV2.sol\":2414:2490  function settleRequest() public {... */\n      jump\t// out\n        /* \"#utility.yul\":7:83   */\n    tag_33:\n        /* \"#utility.yul\":43:50   */\n      0x00\n        /* \"#utility.yul\":72:77   */\n      dup2\n        /* \"#utility.yul\":61:77   */\n      swap1\n      pop\n        /* \"#utility.yul\":7:83   */\n      swap2\n      swap1\n      pop\n      jump\t// out\n        /* \"#utility.yul\":89:204   */\n    tag_34:\n        /* \"#utility.yul\":174:197   */\n      tag_61\n        /* \"#utility.yul\":191:196   */\n      dup2\n        /* \"#utility.yul\":174:197   */\n      tag_33\n      jump\t// in\n    tag_61:\n        /* \"#utility.yul\":169:172   */\n      dup3\n        /* \"#utility.yul\":162:198   */\n      mstore\n        /* \"#utility.yul\":89:204   */\n      pop\n      pop\n      jump\t// out\n        /* \"#utility.yul\":210:428   */\n    tag_11:\n        /* \"#utility.yul\":301:305   */\n      0x00\n        /* \"#utility.yul\":339:341   */\n      0x20\n        /* \"#utility.yul\":328:337   */\n      dup3\n        /* \"#utility.yul\":324:342   */\n      add\n        /* \"#utility.yul\":316:342   */\n      swap1\n      pop\n        /* \"#utility.yul\":352:421   */\n      tag_63\n        /* \"#utility.yul\":418:419   */\n      0x00\n        /* \"#utility.yul\":407:416   */\n      dup4\n        /* \"#utility.yul\":403:420   */\n      add\n        /* \"#utility.yul\":394:400   */\n      dup5\n        /* \"#utility.yul\":352:421   */\n      tag_34\n      jump\t// in\n    tag_63:\n        /* \"#utility.yul\":210:428   */\n      swap3\n      swap2\n      pop\n      pop\n      jump\t// out\n        /* \"#utility.yul\":434:511   */\n    tag_35:\n        /* \"#utility.yul\":471:478   */\n      0x00\n        /* \"#utility.yul\":500:505   */\n      dup2\n        /* \"#utility.yul\":489:505   */\n      swap1\n      pop\n        /* \"#utility.yul\":434:511   */\n      swap2\n      swap1\n      pop\n      jump\t// out\n        /* \"#utility.yul\":517:635   */\n    tag_36:\n        /* \"#utility.yul\":604:628   */\n      tag_66\n        /* \"#utility.yul\":622:627   */\n      dup2\n        /* \"#utility.yul\":604:628   */\n      tag_35\n      jump\t// in\n    tag_66:\n        /* \"#utility.yul\":599:602   */\n      dup3\n        /* \"#utility.yul\":592:629   */\n      mstore\n        /* \"#utility.yul\":517:635   */\n      pop\n      pop\n      jump\t// out\n        /* \"#utility.yul\":641:821   */\n    tag_37:\n        /* \"#utility.yul\":689:766   */\n      0x4e487b7100000000000000000000000000000000000000000000000000000000\n        /* \"#utility.yul\":686:687   */\n      0x00\n        /* \"#utility.yul\":679:767   */\n      mstore\n        /* \"#utility.yul\":786:790   */\n      0x22\n        /* \"#utility.yul\":783:784   */\n      0x04\n        /* \"#utility.yul\":776:791   */\n      mstore\n        /* \"#utility.yul\":810:814   */\n      0x24\n        /* \"#utility.yul\":807:808   */\n      0x00\n        /* \"#utility.yul\":800:815   */\n      revert\n        /* \"#utility.yul\":827:1147   */\n    tag_38:\n        /* \"#utility.yul\":871:877   */\n      0x00\n        /* \"#utility.yul\":908:909   */\n      0x02\n        /* \"#utility.yul\":902:906   */\n      dup3\n        /* \"#utility.yul\":898:910   */\n      div\n        /* \"#utility.yul\":888:910   */\n      swap1\n      pop\n        /* \"#utility.yul\":955:956   */\n      0x01\n        /* \"#utility.yul\":949:953   */\n      dup3\n        /* \"#utility.yul\":945:957   */\n      and\n        /* \"#utility.yul\":976:994   */\n      dup1\n        /* \"#utility.yul\":966:1047   */\n      tag_69\n      jumpi\n        /* \"#utility.yul\":1032:1036   */\n      0x7f\n        /* \"#utility.yul\":1024:1030   */\n      dup3\n        /* \"#utility.yul\":1020:1037   */\n      and\n        /* \"#utility.yul\":1010:1037   */\n      swap2\n      pop\n        /* \"#utility.yul\":966:1047   */\n    tag_69:\n        /* \"#utility.yul\":1094:1096   */\n      0x20\n        /* \"#utility.yul\":1086:1092   */\n      dup3\n        /* \"#utility.yul\":1083:1097   */\n      lt\n        /* \"#utility.yul\":1063:1081   */\n      dup2\n        /* \"#utility.yul\":1060:1098   */\n      sub\n        /* \"#utility.yul\":1057:1141   */\n      tag_70\n      jumpi\n        /* \"#utility.yul\":1113:1131   */\n      tag_71\n      tag_37\n      jump\t// in\n    tag_71:\n        /* \"#utility.yul\":1057:1141   */\n    tag_70:\n        /* \"#utility.yul\":878:1147   */\n      pop\n        /* \"#utility.yul\":827:1147   */\n      swap2\n      swap1\n      pop\n      jump\t// out\n        /* \"#utility.yul\":1153:1321   */\n    tag_39:\n        /* \"#utility.yul\":1236:1247   */\n      0x00\n        /* \"#utility.yul\":1270:1276   */\n      dup3\n        /* \"#utility.yul\":1265:1268   */\n      dup3\n        /* \"#utility.yul\":1258:1277   */\n      mstore\n        /* \"#utility.yul\":1310:1314   */\n      0x20\n        /* \"#utility.yul\":1305:1308   */\n      dup3\n        /* \"#utility.yul\":1301:1315   */\n      add\n        /* \"#utility.yul\":1286:1315   */\n      swap1\n      pop\n        /* \"#utility.yul\":1153:1321   */\n      swap3\n      swap2\n      pop\n      pop\n      jump\t// out\n        /* \"#utility.yul\":1327:1467   */\n    tag_40:\n        /* \"#utility.yul\":1375:1379   */\n      0x00\n        /* \"#utility.yul\":1398:1401   */\n      dup2\n        /* \"#utility.yul\":1390:1401   */\n      swap1\n      pop\n        /* \"#utility.yul\":1421:1424   */\n      dup2\n        /* \"#utility.yul\":1418:1419   */\n      0x00\n        /* \"#utility.yul\":1411:1425   */\n      mstore\n        /* \"#utility.yul\":1455:1459   */\n      0x20\n        /* \"#utility.yul\":1452:1453   */\n      0x00\n        /* \"#utility.yul\":1442:1460   */\n      keccak256\n        /* \"#utility.yul\":1434:1460   */\n      swap1\n      pop\n        /* \"#utility.yul\":1327:1467   */\n      swap2\n      swap1\n      pop\n      jump\t// out\n        /* \"#utility.yul\":1495:2322   */\n    tag_41:\n        /* \"#utility.yul\":1578:1581   */\n      0x00\n        /* \"#utility.yul\":1615:1620   */\n      dup2\n        /* \"#utility.yul\":1609:1621   */\n      sload\n        /* \"#utility.yul\":1644:1680   */\n      tag_75\n        /* \"#utility.yul\":1670:1679   */\n      dup2\n        /* \"#utility.yul\":1644:1680   */\n      tag_38\n      jump\t// in\n    tag_75:\n        /* \"#utility.yul\":1696:1766   */\n      tag_76\n        /* \"#utility.yul\":1759:1765   */\n      dup2\n        /* \"#utility.yul\":1754:1757   */\n      dup7\n        /* \"#utility.yul\":1696:1766   */\n      tag_39\n      jump\t// in\n    tag_76:\n        /* \"#utility.yul\":1689:1766   */\n      swap5\n      pop\n        /* \"#utility.yul\":1797:1798   */\n      0x01\n        /* \"#utility.yul\":1786:1795   */\n      dup3\n        /* \"#utility.yul\":1782:1799   */\n      and\n        /* \"#utility.yul\":1813:1814   */\n      0x00\n        /* \"#utility.yul\":1808:1972   */\n      dup2\n      eq\n      tag_78\n      jumpi\n        /* \"#utility.yul\":1986:1987   */\n      0x01\n        /* \"#utility.yul\":1981:2316   */\n      dup2\n      eq\n      tag_79\n      jumpi\n        /* \"#utility.yul\":1775:2316   */\n      jump(tag_77)\n        /* \"#utility.yul\":1808:1972   */\n    tag_78:\n        /* \"#utility.yul\":1892:1896   */\n      0xff\n        /* \"#utility.yul\":1888:1897   */\n      not\n        /* \"#utility.yul\":1877:1886   */\n      dup4\n        /* \"#utility.yul\":1873:1898   */\n      and\n        /* \"#utility.yul\":1868:1871   */\n      dup7\n        /* \"#utility.yul\":1861:1899   */\n      mstore\n        /* \"#utility.yul\":1952:1958   */\n      dup2\n        /* \"#utility.yul\":1945:1959   */\n      iszero\n        /* \"#utility.yul\":1938:1960   */\n      iszero\n        /* \"#utility.yul\":1932:1936   */\n      0x20\n        /* \"#utility.yul\":1928:1961   */\n      mul\n        /* \"#utility.yul\":1923:1926   */\n      dup7\n        /* \"#utility.yul\":1919:1962   */\n      add\n        /* \"#utility.yul\":1912:1962   */\n      swap4\n      pop\n        /* \"#utility.yul\":1808:1972   */\n      jump(tag_77)\n        /* \"#utility.yul\":1981:2316   */\n    tag_79:\n        /* \"#utility.yul\":2048:2085   */\n      tag_80\n        /* \"#utility.yul\":2079:2084   */\n      dup6\n        /* \"#utility.yul\":2048:2085   */\n      tag_40\n      jump\t// in\n    tag_80:\n        /* \"#utility.yul\":2107:2108   */\n      0x00\n        /* \"#utility.yul\":2121:2275   */\n    tag_81:\n        /* \"#utility.yul\":2135:2141   */\n      dup4\n        /* \"#utility.yul\":2132:2133   */\n      dup2\n        /* \"#utility.yul\":2129:2142   */\n      lt\n        /* \"#utility.yul\":2121:2275   */\n      iszero\n      tag_83\n      jumpi\n        /* \"#utility.yul\":2209:2216   */\n      dup2\n        /* \"#utility.yul\":2203:2217   */\n      sload\n        /* \"#utility.yul\":2199:2200   */\n      dup2\n        /* \"#utility.yul\":2194:2197   */\n      dup10\n        /* \"#utility.yul\":2190:2201   */\n      add\n        /* \"#utility.yul\":2183:2218   */\n      mstore\n        /* \"#utility.yul\":2259:2260   */\n      0x01\n        /* \"#utility.yul\":2250:2257   */\n      dup3\n        /* \"#utility.yul\":2246:2261   */\n      add\n        /* \"#utility.yul\":2235:2261   */\n      swap2\n      pop\n        /* \"#utility.yul\":2157:2161   */\n      0x20\n        /* \"#utility.yul\":2154:2155   */\n      dup2\n        /* \"#utility.yul\":2150:2162   */\n      add\n        /* \"#utility.yul\":2145:2162   */\n      swap1\n      pop\n        /* \"#utility.yul\":2121:2275   */\n      jump(tag_81)\n    tag_83:\n        /* \"#utility.yul\":2304:2305   */\n      dup1\n        /* \"#utility.yul\":2299:2302   */\n      dup9\n        /* \"#utility.yul\":2295:2306   */\n      add\n        /* \"#utility.yul\":2288:2306   */\n      swap6\n      pop\n        /* \"#utility.yul\":1988:2316   */\n      pop\n      pop\n        /* \"#utility.yul\":1775:2316   */\n    tag_77:\n      pop\n        /* \"#utility.yul\":1582:2322   */\n      pop\n      pop\n        /* \"#utility.yul\":1495:2322   */\n      swap3\n      swap2\n      pop\n      pop\n      jump\t// out\n        /* \"#utility.yul\":2328:2454   */\n    tag_42:\n        /* \"#utility.yul\":2365:2372   */\n      0x00\n        /* \"#utility.yul\":2405:2447   */\n      0xffffffffffffffffffffffffffffffffffffffff\n        /* \"#utility.yul\":2398:2403   */\n      dup3\n        /* \"#utility.yul\":2394:2448   */\n      and\n        /* \"#utility.yul\":2383:2448   */\n      swap1\n      pop\n        /* \"#utility.yul\":2328:2454   */\n      swap2\n      swap1\n      pop\n      jump\t// out\n        /* \"#utility.yul\":2460:2556   */\n    tag_43:\n        /* \"#utility.yul\":2497:2504   */\n      0x00\n        /* \"#utility.yul\":2526:2550   */\n      tag_86\n        /* \"#utility.yul\":2544:2549   */\n      dup3\n        /* \"#utility.yul\":2526:2550   */\n      tag_42\n      jump\t// in\n    tag_86:\n        /* \"#utility.yul\":2515:2550   */\n      swap1\n      pop\n        /* \"#utility.yul\":2460:2556   */\n      swap2\n      swap1\n      pop\n      jump\t// out\n        /* \"#utility.yul\":2562:2680   */\n    tag_44:\n        /* \"#utility.yul\":2649:2673   */\n      tag_88\n        /* \"#utility.yul\":2667:2672   */\n      dup2\n        /* \"#utility.yul\":2649:2673   */\n      tag_43\n      jump\t// in\n    tag_88:\n        /* \"#utility.yul\":2644:2647   */\n      dup3\n        /* \"#utility.yul\":2637:2674   */\n      mstore\n        /* \"#utility.yul\":2562:2680   */\n      pop\n      pop\n      jump\t// out\n        /* \"#utility.yul\":2686:2763   */\n    tag_45:\n        /* \"#utility.yul\":2723:2730   */\n      0x00\n        /* \"#utility.yul\":2752:2757   */\n      dup2\n        /* \"#utility.yul\":2741:2757   */\n      swap1\n      pop\n        /* \"#utility.yul\":2686:2763   */\n      swap2\n      swap1\n      pop\n      jump\t// out\n        /* \"#utility.yul\":2769:2887   */\n    tag_46:\n        /* \"#utility.yul\":2856:2880   */\n      tag_91\n        /* \"#utility.yul\":2874:2879   */\n      dup2\n        /* \"#utility.yul\":2856:2880   */\n      tag_45\n      jump\t// in\n    tag_91:\n        /* \"#utility.yul\":2851:2854   */\n      dup3\n        /* \"#utility.yul\":2844:2881   */\n      mstore\n        /* \"#utility.yul\":2769:2887   */\n      pop\n      pop\n      jump\t// out\n        /* \"#utility.yul\":2893:2979   */\n    tag_47:\n        /* \"#utility.yul\":2939:2946   */\n      0x00\n        /* \"#utility.yul\":2968:2973   */\n      dup2\n        /* \"#utility.yul\":2957:2973   */\n      swap1\n      pop\n        /* \"#utility.yul\":2893:2979   */\n      swap2\n      swap1\n      pop\n      jump\t// out\n        /* \"#utility.yul\":2985:3045   */\n    tag_48:\n        /* \"#utility.yul\":3013:3016   */\n      0x00\n        /* \"#utility.yul\":3034:3039   */\n      dup2\n        /* \"#utility.yul\":3027:3039   */\n      swap1\n      pop\n        /* \"#utility.yul\":2985:3045   */\n      swap2\n      swap1\n      pop\n      jump\t// out\n        /* \"#utility.yul\":3051:3211   */\n    tag_49:\n        /* \"#utility.yul\":3110:3119   */\n      0x00\n        /* \"#utility.yul\":3143:3205   */\n      tag_95\n        /* \"#utility.yul\":3161:3204   */\n      tag_96\n        /* \"#utility.yul\":3170:3203   */\n      tag_97\n        /* \"#utility.yul\":3197:3202   */\n      dup5\n        /* \"#utility.yul\":3170:3203   */\n      tag_47\n      jump\t// in\n    tag_97:\n        /* \"#utility.yul\":3161:3204   */\n      tag_48\n      jump\t// in\n    tag_96:\n        /* \"#utility.yul\":3143:3205   */\n      tag_45\n      jump\t// in\n    tag_95:\n        /* \"#utility.yul\":3130:3205   */\n      swap1\n      pop\n        /* \"#utility.yul\":3051:3211   */\n      swap2\n      swap1\n      pop\n      jump\t// out\n        /* \"#utility.yul\":3217:3366   */\n    tag_50:\n        /* \"#utility.yul\":3313:3359   */\n      tag_99\n        /* \"#utility.yul\":3353:3358   */\n      dup2\n        /* \"#utility.yul\":3313:3359   */\n      tag_49\n      jump\t// in\n    tag_99:\n        /* \"#utility.yul\":3308:3311   */\n      dup3\n        /* \"#utility.yul\":3301:3360   */\n      mstore\n        /* \"#utility.yul\":3217:3366   */\n      pop\n      pop\n      jump\t// out\n        /* \"#utility.yul\":3372:4135   */\n    tag_16:\n        /* \"#utility.yul\":3601:3605   */\n      0x00\n        /* \"#utility.yul\":3639:3642   */\n      0xa0\n        /* \"#utility.yul\":3628:3637   */\n      dup3\n        /* \"#utility.yul\":3624:3643   */\n      add\n        /* \"#utility.yul\":3616:3643   */\n      swap1\n      pop\n        /* \"#utility.yul\":3653:3724   */\n      tag_101\n        /* \"#utility.yul\":3721:3722   */\n      0x00\n        /* \"#utility.yul\":3710:3719   */\n      dup4\n        /* \"#utility.yul\":3706:3723   */\n      add\n        /* \"#utility.yul\":3697:3703   */\n      dup9\n        /* \"#utility.yul\":3653:3724   */\n      tag_36\n      jump\t// in\n    tag_101:\n        /* \"#utility.yul\":3771:3780   */\n      dup2\n        /* \"#utility.yul\":3765:3769   */\n      dup2\n        /* \"#utility.yul\":3761:3781   */\n      sub\n        /* \"#utility.yul\":3756:3758   */\n      0x20\n        /* \"#utility.yul\":3745:3754   */\n      dup4\n        /* \"#utility.yul\":3741:3759   */\n      add\n        /* \"#utility.yul\":3734:3782   */\n      mstore\n        /* \"#utility.yul\":3799:3872   */\n      tag_102\n        /* \"#utility.yul\":3867:3871   */\n      dup2\n        /* \"#utility.yul\":3858:3864   */\n      dup8\n        /* \"#utility.yul\":3799:3872   */\n      tag_41\n      jump\t// in\n    tag_102:\n        /* \"#utility.yul\":3791:3872   */\n      swap1\n      pop\n        /* \"#utility.yul\":3882:3954   */\n      tag_103\n        /* \"#utility.yul\":3950:3952   */\n      0x40\n        /* \"#utility.yul\":3939:3948   */\n      dup4\n        /* \"#utility.yul\":3935:3953   */\n      add\n        /* \"#utility.yul\":3926:3932   */\n      dup7\n        /* \"#utility.yul\":3882:3954   */\n      tag_44\n      jump\t// in\n    tag_103:\n        /* \"#utility.yul\":3964:4036   */\n      tag_104\n        /* \"#utility.yul\":4032:4034   */\n      0x60\n        /* \"#utility.yul\":4021:4030   */\n      dup4\n        /* \"#utility.yul\":4017:4035   */\n      add\n        /* \"#utility.yul\":4008:4014   */\n      dup6\n        /* \"#utility.yul\":3964:4036   */\n      tag_46\n      jump\t// in\n    tag_104:\n        /* \"#utility.yul\":4046:4128   */\n      tag_105\n        /* \"#utility.yul\":4123:4126   */\n      0x80\n        /* \"#utility.yul\":4112:4121   */\n      dup4\n        /* \"#utility.yul\":4108:4127   */\n      add\n        /* \"#utility.yul\":4099:4105   */\n      dup5\n        /* \"#utility.yul\":4046:4128   */\n      tag_50\n      jump\t// in\n    tag_105:\n        /* \"#utility.yul\":3372:4135   */\n      swap7\n      swap6\n      pop\n      pop\n      pop\n      pop\n      pop\n      pop\n      jump\t// out\n        /* \"#utility.yul\":4222:4339   */\n    tag_52:\n        /* \"#utility.yul\":4331:4332   */\n      0x00\n        /* \"#utility.yul\":4328:4329   */\n      dup1\n        /* \"#utility.yul\":4321:4333   */\n      revert\n        /* \"#utility.yul\":4468:4590   */\n    tag_54:\n        /* \"#utility.yul\":4541:4565   */\n      tag_110\n        /* \"#utility.yul\":4559:4564   */\n      dup2\n        /* \"#utility.yul\":4541:4565   */\n      tag_45\n      jump\t// in\n    tag_110:\n        /* \"#utility.yul\":4534:4539   */\n      dup2\n        /* \"#utility.yul\":4531:4566   */\n      eq\n        /* \"#utility.yul\":4521:4584   */\n      tag_111\n      jumpi\n        /* \"#utility.yul\":4580:4581   */\n      0x00\n        /* \"#utility.yul\":4577:4578   */\n      dup1\n        /* \"#utility.yul\":4570:4582   */\n      revert\n        /* \"#utility.yul\":4521:4584   */\n    tag_111:\n        /* \"#utility.yul\":4468:4590   */\n      pop\n      jump\t// out\n        /* \"#utility.yul\":4596:4739   */\n    tag_55:\n        /* \"#utility.yul\":4653:4658   */\n      0x00\n        /* \"#utility.yul\":4684:4690   */\n      dup2\n        /* \"#utility.yul\":4678:4691   */\n      mload\n        /* \"#utility.yul\":4669:4691   */\n      swap1\n      pop\n        /* \"#utility.yul\":4700:4733   */\n      tag_113\n        /* \"#utility.yul\":4727:4732   */\n      dup2\n        /* \"#utility.yul\":4700:4733   */\n      tag_54\n      jump\t// in\n    tag_113:\n        /* \"#utility.yul\":4596:4739   */\n      swap3\n      swap2\n      pop\n      pop\n      jump\t// out\n        /* \"#utility.yul\":4745:5096   */\n    tag_20:\n        /* \"#utility.yul\":4815:4821   */\n      0x00\n        /* \"#utility.yul\":4864:4866   */\n      0x20\n        /* \"#utility.yul\":4852:4861   */\n      dup3\n        /* \"#utility.yul\":4843:4850   */\n      dup5\n        /* \"#utility.yul\":4839:4862   */\n      sub\n        /* \"#utility.yul\":4835:4867   */\n      slt\n        /* \"#utility.yul\":4832:4951   */\n      iszero\n      tag_115\n      jumpi\n        /* \"#utility.yul\":4870:4949   */\n      tag_116\n      tag_52\n      jump\t// in\n    tag_116:\n        /* \"#utility.yul\":4832:4951   */\n    tag_115:\n        /* \"#utility.yul\":4990:4991   */\n      0x00\n        /* \"#utility.yul\":5015:5079   */\n      tag_117\n        /* \"#utility.yul\":5071:5078   */\n      dup5\n        /* \"#utility.yul\":5062:5068   */\n      dup3\n        /* \"#utility.yul\":5051:5060   */\n      dup6\n        /* \"#utility.yul\":5047:5069   */\n      add\n        /* \"#utility.yul\":5015:5079   */\n      tag_55\n      jump\t// in\n    tag_117:\n        /* \"#utility.yul\":5005:5079   */\n      swap2\n      pop\n        /* \"#utility.yul\":4961:5089   */\n      pop\n        /* \"#utility.yul\":4745:5096   */\n      swap3\n      swap2\n      pop\n      pop\n      jump\t// out\n        /* \"#utility.yul\":5102:5324   */\n    tag_23:\n        /* \"#utility.yul\":5195:5199   */\n      0x00\n        /* \"#utility.yul\":5233:5235   */\n      0x20\n        /* \"#utility.yul\":5222:5231   */\n      dup3\n        /* \"#utility.yul\":5218:5236   */\n      add\n        /* \"#utility.yul\":5210:5236   */\n      swap1\n      pop\n        /* \"#utility.yul\":5246:5317   */\n      tag_119\n        /* \"#utility.yul\":5314:5315   */\n      0x00\n        /* \"#utility.yul\":5303:5312   */\n      dup4\n        /* \"#utility.yul\":5299:5316   */\n      add\n        /* \"#utility.yul\":5290:5296   */\n      dup5\n        /* \"#utility.yul\":5246:5317   */\n      tag_46\n      jump\t// in\n    tag_119:\n        /* \"#utility.yul\":5102:5324   */\n      swap3\n      swap2\n      pop\n      pop\n      jump\t// out\n        /* \"#utility.yul\":5330:5450   */\n    tag_56:\n        /* \"#utility.yul\":5402:5425   */\n      tag_121\n        /* \"#utility.yul\":5419:5424   */\n      dup2\n        /* \"#utility.yul\":5402:5425   */\n      tag_33\n      jump\t// in\n    tag_121:\n        /* \"#utility.yul\":5395:5400   */\n      dup2\n        /* \"#utility.yul\":5392:5426   */\n      eq\n        /* \"#utility.yul\":5382:5444   */\n      tag_122\n      jumpi\n        /* \"#utility.yul\":5440:5441   */\n      0x00\n        /* \"#utility.yul\":5437:5438   */\n      dup1\n        /* \"#utility.yul\":5430:5442   */\n      revert\n        /* \"#utility.yul\":5382:5444   */\n    tag_122:\n        /* \"#utility.yul\":5330:5450   */\n      pop\n      jump\t// out\n        /* \"#utility.yul\":5456:5597   */\n    tag_57:\n        /* \"#utility.yul\":5512:5517   */\n      0x00\n        /* \"#utility.yul\":5543:5549   */\n      dup2\n        /* \"#utility.yul\":5537:5550   */\n      mload\n        /* \"#utility.yul\":5528:5550   */\n      swap1\n      pop\n        /* \"#utility.yul\":5559:5591   */\n      tag_124\n        /* \"#utility.yul\":5585:5590   */\n      dup2\n        /* \"#utility.yul\":5559:5591   */\n      tag_56\n      jump\t// in\n    tag_124:\n        /* \"#utility.yul\":5456:5597   */\n      swap3\n      swap2\n      pop\n      pop\n      jump\t// out\n        /* \"#utility.yul\":5603:5952   */\n    tag_27:\n        /* \"#utility.yul\":5672:5678   */\n      0x00\n        /* \"#utility.yul\":5721:5723   */\n      0x20\n        /* \"#utility.yul\":5709:5718   */\n      dup3\n        /* \"#utility.yul\":5700:5707   */\n      dup5\n        /* \"#utility.yul\":5696:5719   */\n      sub\n        /* \"#utility.yul\":5692:5724   */\n      slt\n        /* \"#utility.yul\":5689:5808   */\n      iszero\n      tag_126\n      jumpi\n        /* \"#utility.yul\":5727:5806   */\n      tag_127\n      tag_52\n      jump\t// in\n    tag_127:\n        /* \"#utility.yul\":5689:5808   */\n    tag_126:\n        /* \"#utility.yul\":5847:5848   */\n      0x00\n        /* \"#utility.yul\":5872:5935   */\n      tag_128\n        /* \"#utility.yul\":5927:5934   */\n      dup5\n        /* \"#utility.yul\":5918:5924   */\n      dup3\n        /* \"#utility.yul\":5907:5916   */\n      dup6\n        /* \"#utility.yul\":5903:5925   */\n      add\n        /* \"#utility.yul\":5872:5935   */\n      tag_57\n      jump\t// in\n    tag_128:\n        /* \"#utility.yul\":5862:5935   */\n      swap2\n      pop\n        /* \"#utility.yul\":5818:5945   */\n      pop\n        /* \"#utility.yul\":5603:5952   */\n      swap3\n      swap2\n      pop\n      pop\n      jump\t// out\n\n    auxdata: 0xa26469706673582212205d6c5a9b06d8a72df25eb7c05a8c798d5fb113cde3161d63d843fcac91734b1c64736f6c63430008100033\n}\n",
				"bytecode": {
					"linkReferences": {},
					"object": "608060405273a5b9d8a0b0fa04ba71bdd68069661ed5c08488846000806101000a81548173ffffffffffffffffffffffffffffffffffffffff021916908373ffffffffffffffffffffffffffffffffffffffff1602179055507f5945535f4f525f4e4f5f515545525900000000000000000000000000000000006001556040518060a001604052806061815260200162000a076061913960029081620000a691906200033a565b506000600355348015620000b957600080fd5b5062000421565b600081519050919050565b7f4e487b7100000000000000000000000000000000000000000000000000000000600052604160045260246000fd5b7f4e487b7100000000000000000000000000000000000000000000000000000000600052602260045260246000fd5b600060028204905060018216806200014257607f821691505b602082108103620001585762000157620000fa565b5b50919050565b60008190508160005260206000209050919050565b60006020601f8301049050919050565b600082821b905092915050565b600060088302620001c27fffffffffffffffffffffffffffffffffffffffffffffffffffffffffffffffff8262000183565b620001ce868362000183565b95508019841693508086168417925050509392505050565b6000819050919050565b6000819050919050565b60006200021b620002156200020f84620001e6565b620001f0565b620001e6565b9050919050565b6000819050919050565b6200023783620001fa565b6200024f620002468262000222565b84845462000190565b825550505050565b600090565b6200026662000257565b620002738184846200022c565b505050565b5b818110156200029b576200028f6000826200025c565b60018101905062000279565b5050565b601f821115620002ea57620002b4816200015e565b620002bf8462000173565b81016020851015620002cf578190505b620002e7620002de8562000173565b83018262000278565b50505b505050565b600082821c905092915050565b60006200030f60001984600802620002ef565b1980831691505092915050565b60006200032a8383620002fc565b9150826002028217905092915050565b6200034582620000c0565b67ffffffffffffffff811115620003615762000360620000cb565b5b6200036d825462000129565b6200037a8282856200029f565b600060209050601f831160018114620003b257600084156200039d578287015190505b620003a985826200031c565b86555062000419565b601f198416620003c2866200015e565b60005b82811015620003ec57848901518255600182019150602085019450602081019050620003c5565b868310156200040c578489015162000408601f891682620002fc565b8355505b6001600288020188555050505b505050505050565b6105d680620004316000396000f3fe608060405234801561001057600080fd5b50600436106100415760003560e01c8063606deecd14610046578063f25ffb2014610050578063fa7761521461006e575b600080fd5b61004e610078565b005b61005861014b565b6040516100659190610297565b60405180910390f35b6100766101ef565b005b42600381905550600073b4fbf271143f4fbf7b91a5ded31805e42b2208d690506000808054906101000a900473ffffffffffffffffffffffffffffffffffffffff1673ffffffffffffffffffffffffffffffffffffffff1663f84507ad60015460028585601e6040518663ffffffff1660e01b81526004016100fe959493929190610474565b6020604051808303816000875af115801561011d573d6000803e3d6000fd5b505050506040513d601f19601f8201168201806040525081019061014191906104ff565b6004819055505050565b60008060009054906101000a900473ffffffffffffffffffffffffffffffffffffffff1673ffffffffffffffffffffffffffffffffffffffff16635944427b6004546040518263ffffffff1660e01b81526004016101a9919061052c565b602060405180830381865afa1580156101c6573d6000803e3d6000fd5b505050506040513d601f19601f820116820180604052508101906101ea9190610573565b905090565b60008054906101000a900473ffffffffffffffffffffffffffffffffffffffff1673ffffffffffffffffffffffffffffffffffffffff1663d247f92b6004546040518263ffffffff1660e01b815260040161024a919061052c565b600060405180830381600087803b15801561026457600080fd5b505af1158015610278573d6000803e3d6000fd5b50505050565b6000819050919050565b6102918161027e565b82525050565b60006020820190506102ac6000830184610288565b92915050565b6000819050919050565b6102c5816102b2565b82525050565b7f4e487b7100000000000000000000000000000000000000000000000000000000600052602260045260246000fd5b6000600282049050600182168061031257607f821691505b602082108103610325576103246102cb565b5b50919050565b600082825260208201905092915050565b60008190508160005260206000209050919050565b6000815461035e816102fa565b610368818661032b565b945060018216600081146103835760018114610399576103cc565b60ff1983168652811515602002860193506103cc565b6103a28561033c565b60005b838110156103c4578154818901526001820191506020810190506103a5565b808801955050505b50505092915050565b600073ffffffffffffffffffffffffffffffffffffffff82169050919050565b6000610400826103d5565b9050919050565b610410816103f5565b82525050565b6000819050919050565b61042981610416565b82525050565b6000819050919050565b6000819050919050565b600061045e6104596104548461042f565b610439565b610416565b9050919050565b61046e81610443565b82525050565b600060a08201905061048960008301886102bc565b818103602083015261049b8187610351565b90506104aa6040830186610407565b6104b76060830185610420565b6104c46080830184610465565b9695505050505050565b600080fd5b6104dc81610416565b81146104e757600080fd5b50565b6000815190506104f9816104d3565b92915050565b600060208284031215610515576105146104ce565b5b6000610523848285016104ea565b91505092915050565b60006020820190506105416000830184610420565b92915050565b6105508161027e565b811461055b57600080fd5b50565b60008151905061056d81610547565b92915050565b600060208284031215610589576105886104ce565b5b60006105978482850161055e565b9150509291505056fea26469706673582212205d6c5a9b06d8a72df25eb7c05a8c798d5fb113cde3161d63d843fcac91734b1c64736f6c63430008100033513a446964207468652074656d7065726174757265206f6e207468652032357468206f66204a756c79203230323220696e204d616e68617474616e204e5920657863656564203335633f20413a3120666f72207965732e203020666f72206e6f2e",
					"opcodes": "PUSH1 0x80 PUSH1 0x40 MSTORE PUSH20 0xA5B9D8A0B0FA04BA71BDD68069661ED5C0848884 PUSH1 0x0 DUP1 PUSH2 0x100 EXP DUP2 SLOAD DUP2 PUSH20 0xFFFFFFFFFFFFFFFFFFFFFFFFFFFFFFFFFFFFFFFF MUL NOT AND SWAP1 DUP4 PUSH20 0xFFFFFFFFFFFFFFFFFFFFFFFFFFFFFFFFFFFFFFFF AND MUL OR SWAP1 SSTORE POP PUSH32 0x5945535F4F525F4E4F5F51554552590000000000000000000000000000000000 PUSH1 0x1 SSTORE PUSH1 0x40 MLOAD DUP1 PUSH1 0xA0 ADD PUSH1 0x40 MSTORE DUP1 PUSH1 0x61 DUP2 MSTORE PUSH1 0x20 ADD PUSH3 0xA07 PUSH1 0x61 SWAP2 CODECOPY PUSH1 0x2 SWAP1 DUP2 PUSH3 0xA6 SWAP2 SWAP1 PUSH3 0x33A JUMP JUMPDEST POP PUSH1 0x0 PUSH1 0x3 SSTORE CALLVALUE DUP1 ISZERO PUSH3 0xB9 JUMPI PUSH1 0x0 DUP1 REVERT JUMPDEST POP PUSH3 0x421 JUMP JUMPDEST PUSH1 0x0 DUP2 MLOAD SWAP1 POP SWAP2 SWAP1 POP JUMP JUMPDEST PUSH32 0x4E487B7100000000000000000000000000000000000000000000000000000000 PUSH1 0x0 MSTORE PUSH1 0x41 PUSH1 0x4 MSTORE PUSH1 0x24 PUSH1 0x0 REVERT JUMPDEST PUSH32 0x4E487B7100000000000000000000000000000000000000000000000000000000 PUSH1 0x0 MSTORE PUSH1 0x22 PUSH1 0x4 MSTORE PUSH1 0x24 PUSH1 0x0 REVERT JUMPDEST PUSH1 0x0 PUSH1 0x2 DUP3 DIV SWAP1 POP PUSH1 0x1 DUP3 AND DUP1 PUSH3 0x142 JUMPI PUSH1 0x7F DUP3 AND SWAP2 POP JUMPDEST PUSH1 0x20 DUP3 LT DUP2 SUB PUSH3 0x158 JUMPI PUSH3 0x157 PUSH3 0xFA JUMP JUMPDEST JUMPDEST POP SWAP2 SWAP1 POP JUMP JUMPDEST PUSH1 0x0 DUP2 SWAP1 POP DUP2 PUSH1 0x0 MSTORE PUSH1 0x20 PUSH1 0x0 KECCAK256 SWAP1 POP SWAP2 SWAP1 POP JUMP JUMPDEST PUSH1 0x0 PUSH1 0x20 PUSH1 0x1F DUP4 ADD DIV SWAP1 POP SWAP2 SWAP1 POP JUMP JUMPDEST PUSH1 0x0 DUP3 DUP3 SHL SWAP1 POP SWAP3 SWAP2 POP POP JUMP JUMPDEST PUSH1 0x0 PUSH1 0x8 DUP4 MUL PUSH3 0x1C2 PUSH32 0xFFFFFFFFFFFFFFFFFFFFFFFFFFFFFFFFFFFFFFFFFFFFFFFFFFFFFFFFFFFFFFFF DUP3 PUSH3 0x183 JUMP JUMPDEST PUSH3 0x1CE DUP7 DUP4 PUSH3 0x183 JUMP JUMPDEST SWAP6 POP DUP1 NOT DUP5 AND SWAP4 POP DUP1 DUP7 AND DUP5 OR SWAP3 POP POP POP SWAP4 SWAP3 POP POP POP JUMP JUMPDEST PUSH1 0x0 DUP2 SWAP1 POP SWAP2 SWAP1 POP JUMP JUMPDEST PUSH1 0x0 DUP2 SWAP1 POP SWAP2 SWAP1 POP JUMP JUMPDEST PUSH1 0x0 PUSH3 0x21B PUSH3 0x215 PUSH3 0x20F DUP5 PUSH3 0x1E6 JUMP JUMPDEST PUSH3 0x1F0 JUMP JUMPDEST PUSH3 0x1E6 JUMP JUMPDEST SWAP1 POP SWAP2 SWAP1 POP JUMP JUMPDEST PUSH1 0x0 DUP2 SWAP1 POP SWAP2 SWAP1 POP JUMP JUMPDEST PUSH3 0x237 DUP4 PUSH3 0x1FA JUMP JUMPDEST PUSH3 0x24F PUSH3 0x246 DUP3 PUSH3 0x222 JUMP JUMPDEST DUP5 DUP5 SLOAD PUSH3 0x190 JUMP JUMPDEST DUP3 SSTORE POP POP POP POP JUMP JUMPDEST PUSH1 0x0 SWAP1 JUMP JUMPDEST PUSH3 0x266 PUSH3 0x257 JUMP JUMPDEST PUSH3 0x273 DUP2 DUP5 DUP5 PUSH3 0x22C JUMP JUMPDEST POP POP POP JUMP JUMPDEST JUMPDEST DUP2 DUP2 LT ISZERO PUSH3 0x29B JUMPI PUSH3 0x28F PUSH1 0x0 DUP3 PUSH3 0x25C JUMP JUMPDEST PUSH1 0x1 DUP2 ADD SWAP1 POP PUSH3 0x279 JUMP JUMPDEST POP POP JUMP JUMPDEST PUSH1 0x1F DUP3 GT ISZERO PUSH3 0x2EA JUMPI PUSH3 0x2B4 DUP2 PUSH3 0x15E JUMP JUMPDEST PUSH3 0x2BF DUP5 PUSH3 0x173 JUMP JUMPDEST DUP2 ADD PUSH1 0x20 DUP6 LT ISZERO PUSH3 0x2CF JUMPI DUP2 SWAP1 POP JUMPDEST PUSH3 0x2E7 PUSH3 0x2DE DUP6 PUSH3 0x173 JUMP JUMPDEST DUP4 ADD DUP3 PUSH3 0x278 JUMP JUMPDEST POP POP JUMPDEST POP POP POP JUMP JUMPDEST PUSH1 0x0 DUP3 DUP3 SHR SWAP1 POP SWAP3 SWAP2 POP POP JUMP JUMPDEST PUSH1 0x0 PUSH3 0x30F PUSH1 0x0 NOT DUP5 PUSH1 0x8 MUL PUSH3 0x2EF JUMP JUMPDEST NOT DUP1 DUP4 AND SWAP2 POP POP SWAP3 SWAP2 POP POP JUMP JUMPDEST PUSH1 0x0 PUSH3 0x32A DUP4 DUP4 PUSH3 0x2FC JUMP JUMPDEST SWAP2 POP DUP3 PUSH1 0x2 MUL DUP3 OR SWAP1 POP SWAP3 SWAP2 POP POP JUMP JUMPDEST PUSH3 0x345 DUP3 PUSH3 0xC0 JUMP JUMPDEST PUSH8 0xFFFFFFFFFFFFFFFF DUP2 GT ISZERO PUSH3 0x361 JUMPI PUSH3 0x360 PUSH3 0xCB JUMP JUMPDEST JUMPDEST PUSH3 0x36D DUP3 SLOAD PUSH3 0x129 JUMP JUMPDEST PUSH3 0x37A DUP3 DUP3 DUP6 PUSH3 0x29F JUMP JUMPDEST PUSH1 0x0 PUSH1 0x20 SWAP1 POP PUSH1 0x1F DUP4 GT PUSH1 0x1 DUP2 EQ PUSH3 0x3B2 JUMPI PUSH1 0x0 DUP5 ISZERO PUSH3 0x39D JUMPI DUP3 DUP8 ADD MLOAD SWAP1 POP JUMPDEST PUSH3 0x3A9 DUP6 DUP3 PUSH3 0x31C JUMP JUMPDEST DUP7 SSTORE POP PUSH3 0x419 JUMP JUMPDEST PUSH1 0x1F NOT DUP5 AND PUSH3 0x3C2 DUP7 PUSH3 0x15E JUMP JUMPDEST PUSH1 0x0 JUMPDEST DUP3 DUP2 LT ISZERO PUSH3 0x3EC JUMPI DUP5 DUP10 ADD MLOAD DUP3 SSTORE PUSH1 0x1 DUP3 ADD SWAP2 POP PUSH1 0x20 DUP6 ADD SWAP5 POP PUSH1 0x20 DUP2 ADD SWAP1 POP PUSH3 0x3C5 JUMP JUMPDEST DUP7 DUP4 LT ISZERO PUSH3 0x40C JUMPI DUP5 DUP10 ADD MLOAD PUSH3 0x408 PUSH1 0x1F DUP10 AND DUP3 PUSH3 0x2FC JUMP JUMPDEST DUP4 SSTORE POP JUMPDEST PUSH1 0x1 PUSH1 0x2 DUP9 MUL ADD DUP9 SSTORE POP POP POP JUMPDEST POP POP POP POP POP POP JUMP JUMPDEST PUSH2 0x5D6 DUP1 PUSH3 0x431 PUSH1 0x0 CODECOPY PUSH1 0x0 RETURN INVALID PUSH1 0x80 PUSH1 0x40 MSTORE CALLVALUE DUP1 ISZERO PUSH2 0x10 JUMPI PUSH1 0x0 DUP1 REVERT JUMPDEST POP PUSH1 0x4 CALLDATASIZE LT PUSH2 0x41 JUMPI PUSH1 0x0 CALLDATALOAD PUSH1 0xE0 SHR DUP1 PUSH4 0x606DEECD EQ PUSH2 0x46 JUMPI DUP1 PUSH4 0xF25FFB20 EQ PUSH2 0x50 JUMPI DUP1 PUSH4 0xFA776152 EQ PUSH2 0x6E JUMPI JUMPDEST PUSH1 0x0 DUP1 REVERT JUMPDEST PUSH2 0x4E PUSH2 0x78 JUMP JUMPDEST STOP JUMPDEST PUSH2 0x58 PUSH2 0x14B JUMP JUMPDEST PUSH1 0x40 MLOAD PUSH2 0x65 SWAP2 SWAP1 PUSH2 0x297 JUMP JUMPDEST PUSH1 0x40 MLOAD DUP1 SWAP2 SUB SWAP1 RETURN JUMPDEST PUSH2 0x76 PUSH2 0x1EF JUMP JUMPDEST STOP JUMPDEST TIMESTAMP PUSH1 0x3 DUP2 SWAP1 SSTORE POP PUSH1 0x0 PUSH20 0xB4FBF271143F4FBF7B91A5DED31805E42B2208D6 SWAP1 POP PUSH1 0x0 DUP1 DUP1 SLOAD SWAP1 PUSH2 0x100 EXP SWAP1 DIV PUSH20 0xFFFFFFFFFFFFFFFFFFFFFFFFFFFFFFFFFFFFFFFF AND PUSH20 0xFFFFFFFFFFFFFFFFFFFFFFFFFFFFFFFFFFFFFFFF AND PUSH4 0xF84507AD PUSH1 0x1 SLOAD PUSH1 0x2 DUP6 DUP6 PUSH1 0x1E PUSH1 0x40 MLOAD DUP7 PUSH4 0xFFFFFFFF AND PUSH1 0xE0 SHL DUP2 MSTORE PUSH1 0x4 ADD PUSH2 0xFE SWAP6 SWAP5 SWAP4 SWAP3 SWAP2 SWAP1 PUSH2 0x474 JUMP JUMPDEST PUSH1 0x20 PUSH1 0x40 MLOAD DUP1 DUP4 SUB DUP2 PUSH1 0x0 DUP8 GAS CALL ISZERO DUP1 ISZERO PUSH2 0x11D JUMPI RETURNDATASIZE PUSH1 0x0 DUP1 RETURNDATACOPY RETURNDATASIZE PUSH1 0x0 REVERT JUMPDEST POP POP POP POP PUSH1 0x40 MLOAD RETURNDATASIZE PUSH1 0x1F NOT PUSH1 0x1F DUP3 ADD AND DUP3 ADD DUP1 PUSH1 0x40 MSTORE POP DUP2 ADD SWAP1 PUSH2 0x141 SWAP2 SWAP1 PUSH2 0x4FF JUMP JUMPDEST PUSH1 0x4 DUP2 SWAP1 SSTORE POP POP POP JUMP JUMPDEST PUSH1 0x0 DUP1 PUSH1 0x0 SWAP1 SLOAD SWAP1 PUSH2 0x100 EXP SWAP1 DIV PUSH20 0xFFFFFFFFFFFFFFFFFFFFFFFFFFFFFFFFFFFFFFFF AND PUSH20 0xFFFFFFFFFFFFFFFFFFFFFFFFFFFFFFFFFFFFFFFF AND PUSH4 0x5944427B PUSH1 0x4 SLOAD PUSH1 0x40 MLOAD DUP3 PUSH4 0xFFFFFFFF AND PUSH1 0xE0 SHL DUP2 MSTORE PUSH1 0x4 ADD PUSH2 0x1A9 SWAP2 SWAP1 PUSH2 0x52C JUMP JUMPDEST PUSH1 0x20 PUSH1 0x40 MLOAD DUP1 DUP4 SUB DUP2 DUP7 GAS STATICCALL ISZERO DUP1 ISZERO PUSH2 0x1C6 JUMPI RETURNDATASIZE PUSH1 0x0 DUP1 RETURNDATACOPY RETURNDATASIZE PUSH1 0x0 REVERT JUMPDEST POP POP POP POP PUSH1 0x40 MLOAD RETURNDATASIZE PUSH1 0x1F NOT PUSH1 0x1F DUP3 ADD AND DUP3 ADD DUP1 PUSH1 0x40 MSTORE POP DUP2 ADD SWAP1 PUSH2 0x1EA SWAP2 SWAP1 PUSH2 0x573 JUMP JUMPDEST SWAP1 POP SWAP1 JUMP JUMPDEST PUSH1 0x0 DUP1 SLOAD SWAP1 PUSH2 0x100 EXP SWAP1 DIV PUSH20 0xFFFFFFFFFFFFFFFFFFFFFFFFFFFFFFFFFFFFFFFF AND PUSH20 0xFFFFFFFFFFFFFFFFFFFFFFFFFFFFFFFFFFFFFFFF AND PUSH4 0xD247F92B PUSH1 0x4 SLOAD PUSH1 0x40 MLOAD DUP3 PUSH4 0xFFFFFFFF AND PUSH1 0xE0 SHL DUP2 MSTORE PUSH1 0x4 ADD PUSH2 0x24A SWAP2 SWAP1 PUSH2 0x52C JUMP JUMPDEST PUSH1 0x0 PUSH1 0x40 MLOAD DUP1 DUP4 SUB DUP2 PUSH1 0x0 DUP8 DUP1 EXTCODESIZE ISZERO DUP1 ISZERO PUSH2 0x264 JUMPI PUSH1 0x0 DUP1 REVERT JUMPDEST POP GAS CALL ISZERO DUP1 ISZERO PUSH2 0x278 JUMPI RETURNDATASIZE PUSH1 0x0 DUP1 RETURNDATACOPY RETURNDATASIZE PUSH1 0x0 REVERT JUMPDEST POP POP POP POP JUMP JUMPDEST PUSH1 0x0 DUP2 SWAP1 POP SWAP2 SWAP1 POP JUMP JUMPDEST PUSH2 0x291 DUP2 PUSH2 0x27E JUMP JUMPDEST DUP3 MSTORE POP POP JUMP JUMPDEST PUSH1 0x0 PUSH1 0x20 DUP3 ADD SWAP1 POP PUSH2 0x2AC PUSH1 0x0 DUP4 ADD DUP5 PUSH2 0x288 JUMP JUMPDEST SWAP3 SWAP2 POP POP JUMP JUMPDEST PUSH1 0x0 DUP2 SWAP1 POP SWAP2 SWAP1 POP JUMP JUMPDEST PUSH2 0x2C5 DUP2 PUSH2 0x2B2 JUMP JUMPDEST DUP3 MSTORE POP POP JUMP JUMPDEST PUSH32 0x4E487B7100000000000000000000000000000000000000000000000000000000 PUSH1 0x0 MSTORE PUSH1 0x22 PUSH1 0x4 MSTORE PUSH1 0x24 PUSH1 0x0 REVERT JUMPDEST PUSH1 0x0 PUSH1 0x2 DUP3 DIV SWAP1 POP PUSH1 0x1 DUP3 AND DUP1 PUSH2 0x312 JUMPI PUSH1 0x7F DUP3 AND SWAP2 POP JUMPDEST PUSH1 0x20 DUP3 LT DUP2 SUB PUSH2 0x325 JUMPI PUSH2 0x324 PUSH2 0x2CB JUMP JUMPDEST JUMPDEST POP SWAP2 SWAP1 POP JUMP JUMPDEST PUSH1 0x0 DUP3 DUP3 MSTORE PUSH1 0x20 DUP3 ADD SWAP1 POP SWAP3 SWAP2 POP POP JUMP JUMPDEST PUSH1 0x0 DUP2 SWAP1 POP DUP2 PUSH1 0x0 MSTORE PUSH1 0x20 PUSH1 0x0 KECCAK256 SWAP1 POP SWAP2 SWAP1 POP JUMP JUMPDEST PUSH1 0x0 DUP2 SLOAD PUSH2 0x35E DUP2 PUSH2 0x2FA JUMP JUMPDEST PUSH2 0x368 DUP2 DUP7 PUSH2 0x32B JUMP JUMPDEST SWAP5 POP PUSH1 0x1 DUP3 AND PUSH1 0x0 DUP2 EQ PUSH2 0x383 JUMPI PUSH1 0x1 DUP2 EQ PUSH2 0x399 JUMPI PUSH2 0x3CC JUMP JUMPDEST PUSH1 0xFF NOT DUP4 AND DUP7 MSTORE DUP2 ISZERO ISZERO PUSH1 0x20 MUL DUP7 ADD SWAP4 POP PUSH2 0x3CC JUMP JUMPDEST PUSH2 0x3A2 DUP6 PUSH2 0x33C JUMP JUMPDEST PUSH1 0x0 JUMPDEST DUP4 DUP2 LT ISZERO PUSH2 0x3C4 JUMPI DUP2 SLOAD DUP2 DUP10 ADD MSTORE PUSH1 0x1 DUP3 ADD SWAP2 POP PUSH1 0x20 DUP2 ADD SWAP1 POP PUSH2 0x3A5 JUMP JUMPDEST DUP1 DUP9 ADD SWAP6 POP POP POP JUMPDEST POP POP POP SWAP3 SWAP2 POP POP JUMP JUMPDEST PUSH1 0x0 PUSH20 0xFFFFFFFFFFFFFFFFFFFFFFFFFFFFFFFFFFFFFFFF DUP3 AND SWAP1 POP SWAP2 SWAP1 POP JUMP JUMPDEST PUSH1 0x0 PUSH2 0x400 DUP3 PUSH2 0x3D5 JUMP JUMPDEST SWAP1 POP SWAP2 SWAP1 POP JUMP JUMPDEST PUSH2 0x410 DUP2 PUSH2 0x3F5 JUMP JUMPDEST DUP3 MSTORE POP POP JUMP JUMPDEST PUSH1 0x0 DUP2 SWAP1 POP SWAP2 SWAP1 POP JUMP JUMPDEST PUSH2 0x429 DUP2 PUSH2 0x416 JUMP JUMPDEST DUP3 MSTORE POP POP JUMP JUMPDEST PUSH1 0x0 DUP2 SWAP1 POP SWAP2 SWAP1 POP JUMP JUMPDEST PUSH1 0x0 DUP2 SWAP1 POP SWAP2 SWAP1 POP JUMP JUMPDEST PUSH1 0x0 PUSH2 0x45E PUSH2 0x459 PUSH2 0x454 DUP5 PUSH2 0x42F JUMP JUMPDEST PUSH2 0x439 JUMP JUMPDEST PUSH2 0x416 JUMP JUMPDEST SWAP1 POP SWAP2 SWAP1 POP JUMP JUMPDEST PUSH2 0x46E DUP2 PUSH2 0x443 JUMP JUMPDEST DUP3 MSTORE POP POP JUMP JUMPDEST PUSH1 0x0 PUSH1 0xA0 DUP3 ADD SWAP1 POP PUSH2 0x489 PUSH1 0x0 DUP4 ADD DUP9 PUSH2 0x2BC JUMP JUMPDEST DUP2 DUP2 SUB PUSH1 0x20 DUP4 ADD MSTORE PUSH2 0x49B DUP2 DUP8 PUSH2 0x351 JUMP JUMPDEST SWAP1 POP PUSH2 0x4AA PUSH1 0x40 DUP4 ADD DUP7 PUSH2 0x407 JUMP JUMPDEST PUSH2 0x4B7 PUSH1 0x60 DUP4 ADD DUP6 PUSH2 0x420 JUMP JUMPDEST PUSH2 0x4C4 PUSH1 0x80 DUP4 ADD DUP5 PUSH2 0x465 JUMP JUMPDEST SWAP7 SWAP6 POP POP POP POP POP POP JUMP JUMPDEST PUSH1 0x0 DUP1 REVERT JUMPDEST PUSH2 0x4DC DUP2 PUSH2 0x416 JUMP JUMPDEST DUP2 EQ PUSH2 0x4E7 JUMPI PUSH1 0x0 DUP1 REVERT JUMPDEST POP JUMP JUMPDEST PUSH1 0x0 DUP2 MLOAD SWAP1 POP PUSH2 0x4F9 DUP2 PUSH2 0x4D3 JUMP JUMPDEST SWAP3 SWAP2 POP POP JUMP JUMPDEST PUSH1 0x0 PUSH1 0x20 DUP3 DUP5 SUB SLT ISZERO PUSH2 0x515 JUMPI PUSH2 0x514 PUSH2 0x4CE JUMP JUMPDEST JUMPDEST PUSH1 0x0 PUSH2 0x523 DUP5 DUP3 DUP6 ADD PUSH2 0x4EA JUMP JUMPDEST SWAP2 POP POP SWAP3 SWAP2 POP POP JUMP JUMPDEST PUSH1 0x0 PUSH1 0x20 DUP3 ADD SWAP1 POP PUSH2 0x541 PUSH1 0x0 DUP4 ADD DUP5 PUSH2 0x420 JUMP JUMPDEST SWAP3 SWAP2 POP POP JUMP JUMPDEST PUSH2 0x550 DUP2 PUSH2 0x27E JUMP JUMPDEST DUP2 EQ PUSH2 0x55B JUMPI PUSH1 0x0 DUP1 REVERT JUMPDEST POP JUMP JUMPDEST PUSH1 0x0 DUP2 MLOAD SWAP1 POP PUSH2 0x56D DUP2 PUSH2 0x547 JUMP JUMPDEST SWAP3 SWAP2 POP POP JUMP JUMPDEST PUSH1 0x0 PUSH1 0x20 DUP3 DUP5 SUB SLT ISZERO PUSH2 0x589 JUMPI PUSH2 0x588 PUSH2 0x4CE JUMP JUMPDEST JUMPDEST PUSH1 0x0 PUSH2 0x597 DUP5 DUP3 DUP6 ADD PUSH2 0x55E JUMP JUMPDEST SWAP2 POP POP SWAP3 SWAP2 POP POP JUMP INVALID LOG2 PUSH5 0x6970667358 0x22 SLT KECCAK256 0x5D PUSH13 0x5A9B06D8A72DF25EB7C05A8C79 DUP14 0x5F 0xB1 SGT 0xCD 0xE3 AND SAR PUSH4 0xD843FCAC SWAP2 PUSH20 0x4B1C64736F6C63430008100033513A4469642074 PUSH9 0x652074656D70657261 PUSH21 0x757265206F6E207468652032357468206F66204A75 PUSH13 0x79203230323220696E204D616E PUSH9 0x617474616E204E5920 PUSH6 0x786365656420 CALLER CALLDATALOAD PUSH4 0x3F20413A BALANCE KECCAK256 PUSH7 0x6F72207965732E KECCAK256 ADDRESS KECCAK256 PUSH7 0x6F72206E6F2E00 "
				},
				"gasEstimates": {
					"creation": {
						"codeDepositCost": "298800",
						"executionCost": "infinite",
						"totalCost": "infinite"
					},
					"external": {
						"getSettledData()": "infinite",
						"requestData()": "infinite",
						"settleRequest()": "infinite"
					}
				},
				"methodIdentifiers": {
					"getSettledData()": "f25ffb20",
					"requestData()": "606deecd",
					"settleRequest()": "fa776152"
				}
			},
			"storageLayout": {
				"storage": [
					{
						"astId": 9,
						"contract": "Test/OOV2.sol:OO_GettingStarted",
						"label": "oo",
						"offset": 0,
						"slot": "0",
						"type": "t_contract(OptimisticOracleV2)268"
					},
					{
						"astId": 15,
						"contract": "Test/OOV2.sol:OO_GettingStarted",
						"label": "identifier",
						"offset": 0,
						"slot": "1",
						"type": "t_bytes32"
					},
					{
						"astId": 21,
						"contract": "Test/OOV2.sol:OO_GettingStarted",
						"label": "ancillaryData",
						"offset": 0,
						"slot": "2",
						"type": "t_bytes_storage"
					},
					{
						"astId": 24,
						"contract": "Test/OOV2.sol:OO_GettingStarted",
						"label": "requestTime",
						"offset": 0,
						"slot": "3",
						"type": "t_uint256"
					},
					{
						"astId": 26,
						"contract": "Test/OOV2.sol:OO_GettingStarted",
						"label": "requestId",
						"offset": 0,
						"slot": "4",
						"type": "t_uint256"
					}
				],
				"types": {
					"t_bytes32": {
						"encoding": "inplace",
						"label": "bytes32",
						"numberOfBytes": "32"
					},
					"t_bytes_storage": {
						"encoding": "bytes",
						"label": "bytes",
						"numberOfBytes": "32"
					},
					"t_contract(OptimisticOracleV2)268": {
						"encoding": "inplace",
						"label": "contract OptimisticOracleV2",
						"numberOfBytes": "20"
					},
					"t_uint256": {
						"encoding": "inplace",
						"label": "uint256",
						"numberOfBytes": "32"
					}
				}
			},
			"userdoc": {
				"kind": "user",
				"methods": {},
				"version": 1
			}
		}
	}
}