{
	"chain-oracle/OOConsumerV2.sol": {
		"OOConsumerV2": {
			"abi": [
				{
					"inputs": [
						{
							"internalType": "address",
							"name": "ooContractAddress",
							"type": "address"
						}
					],
					"stateMutability": "nonpayable",
					"type": "constructor"
				},
				{
					"anonymous": false,
					"inputs": [
						{
							"indexed": false,
							"internalType": "uint256",
							"name": "requestId",
							"type": "uint256"
						},
						{
							"indexed": false,
							"internalType": "bytes32",
							"name": "identifier",
							"type": "bytes32"
						},
						{
							"indexed": false,
							"internalType": "bytes",
							"name": "ancillaryData",
							"type": "bytes"
						},
						{
							"indexed": false,
							"internalType": "uint256",
							"name": "requestTime",
							"type": "uint256"
						},
						{
							"indexed": false,
							"internalType": "address",
							"name": "requester",
							"type": "address"
						}
					],
					"name": "requestCreated",
					"type": "event"
				},
				{
					"anonymous": false,
					"inputs": [
						{
							"indexed": false,
							"internalType": "uint256",
							"name": "requestId",
							"type": "uint256"
						},
						{
							"indexed": false,
							"internalType": "uint256",
							"name": "timestamp",
							"type": "uint256"
						}
					],
					"name": "requestSettled",
					"type": "event"
				},
				{
					"inputs": [
						{
							"internalType": "uint256",
							"name": "requestId",
							"type": "uint256"
						}
					],
					"name": "getRequest",
					"outputs": [
						{
							"components": [
								{
									"internalType": "bytes32",
									"name": "identifier",
									"type": "bytes32"
								},
								{
									"internalType": "bytes",
									"name": "ancillaryData",
									"type": "bytes"
								},
								{
									"internalType": "address",
									"name": "bondCurrencyAddress",
									"type": "address"
								},
								{
									"internalType": "uint256",
									"name": "reward",
									"type": "uint256"
								},
								{
									"internalType": "uint256",
									"name": "livenessTime",
									"type": "uint256"
								},
								{
									"internalType": "uint256",
									"name": "requestTime",
									"type": "uint256"
								},
								{
									"internalType": "address",
									"name": "requester",
									"type": "address"
								},
								{
									"internalType": "address",
									"name": "oracle",
									"type": "address"
								}
							],
							"internalType": "struct OOConsumerV2.Request",
							"name": "",
							"type": "tuple"
						}
					],
					"stateMutability": "view",
					"type": "function"
				},
				{
					"inputs": [
						{
							"internalType": "uint256",
							"name": "requestId",
							"type": "uint256"
						}
					],
					"name": "getSettledData",
					"outputs": [
						{
							"internalType": "int256",
							"name": "",
							"type": "int256"
						}
					],
					"stateMutability": "view",
					"type": "function"
				},
				{
					"inputs": [
						{
							"internalType": "uint256",
							"name": "",
							"type": "uint256"
						}
					],
					"name": "ooRequests",
					"outputs": [
						{
							"internalType": "bytes32",
							"name": "identifier",
							"type": "bytes32"
						},
						{
							"internalType": "bytes",
							"name": "ancillaryData",
							"type": "bytes"
						},
						{
							"internalType": "address",
							"name": "bondCurrencyAddress",
							"type": "address"
						},
						{
							"internalType": "uint256",
							"name": "reward",
							"type": "uint256"
						},
						{
							"internalType": "uint256",
							"name": "livenessTime",
							"type": "uint256"
						},
						{
							"internalType": "uint256",
							"name": "requestTime",
							"type": "uint256"
						},
						{
							"internalType": "address",
							"name": "requester",
							"type": "address"
						},
						{
							"internalType": "address",
							"name": "oracle",
							"type": "address"
						}
					],
					"stateMutability": "view",
					"type": "function"
				},
				{
					"inputs": [
						{
							"internalType": "uint256",
							"name": "requestId",
							"type": "uint256"
						},
						{
							"internalType": "bytes32",
							"name": "identifier",
							"type": "bytes32"
						},
						{
							"internalType": "bytes",
							"name": "ancillaryData",
							"type": "bytes"
						},
						{
							"internalType": "address",
							"name": "bondCurrencyAddress",
							"type": "address"
						},
						{
							"internalType": "uint256",
							"name": "rewardAmount",
							"type": "uint256"
						},
						{
							"internalType": "uint256",
							"name": "livenessTime",
							"type": "uint256"
						},
						{
							"internalType": "address",
							"name": "requester",
							"type": "address"
						}
					],
					"name": "requestData",
					"outputs": [],
					"stateMutability": "nonpayable",
					"type": "function"
				},
				{
					"inputs": [
						{
							"internalType": "uint256",
							"name": "requestId",
							"type": "uint256"
						}
					],
					"name": "settleRequest",
					"outputs": [],
					"stateMutability": "nonpayable",
					"type": "function"
				}
			],
			"devdoc": {
				"kind": "dev",
				"methods": {},
				"version": 1
			},
			"evm": {
				"assembly": "    /* \"chain-oracle/OOConsumerV2.sol\":472:4339  contract OOConsumerV2 {... */\n  mstore(0x40, 0x80)\n    /* \"chain-oracle/OOConsumerV2.sol\":1284:1391  constructor(address ooContractAddress) {... */\n  callvalue\n  dup1\n  iszero\n  tag_1\n  jumpi\n  0x00\n  dup1\n  revert\ntag_1:\n  pop\n  mload(0x40)\n  sub(codesize, bytecodeSize)\n  dup1\n  bytecodeSize\n  dup4\n  codecopy\n  dup2\n  dup2\n  add\n  0x40\n  mstore\n  dup2\n  add\n  swap1\n  tag_2\n  swap2\n  swap1\n  tag_3\n  jump\t// in\ntag_2:\n    /* \"chain-oracle/OOConsumerV2.sol\":1366:1383  ooContractAddress */\n  dup1\n    /* \"chain-oracle/OOConsumerV2.sol\":1333:1335  oo */\n  0x00\n  dup1\n    /* \"chain-oracle/OOConsumerV2.sol\":1333:1384  oo = OptimisticOracleV2Interface(ooContractAddress) */\n  0x0100\n  exp\n  dup2\n  sload\n  dup2\n  0xffffffffffffffffffffffffffffffffffffffff\n  mul\n  not\n  and\n  swap1\n  dup4\n  0xffffffffffffffffffffffffffffffffffffffff\n  and\n  mul\n  or\n  swap1\n  sstore\n  pop\n    /* \"chain-oracle/OOConsumerV2.sol\":1284:1391  constructor(address ooContractAddress) {... */\n  pop\n    /* \"chain-oracle/OOConsumerV2.sol\":472:4339  contract OOConsumerV2 {... */\n  jump(tag_6)\n    /* \"#utility.yul\":88:205   */\ntag_8:\n    /* \"#utility.yul\":197:198   */\n  0x00\n    /* \"#utility.yul\":194:195   */\n  dup1\n    /* \"#utility.yul\":187:199   */\n  revert\n    /* \"#utility.yul\":334:460   */\ntag_10:\n    /* \"#utility.yul\":371:378   */\n  0x00\n    /* \"#utility.yul\":411:453   */\n  0xffffffffffffffffffffffffffffffffffffffff\n    /* \"#utility.yul\":404:409   */\n  dup3\n    /* \"#utility.yul\":400:454   */\n  and\n    /* \"#utility.yul\":389:454   */\n  swap1\n  pop\n    /* \"#utility.yul\":334:460   */\n  swap2\n  swap1\n  pop\n  jump\t// out\n    /* \"#utility.yul\":466:562   */\ntag_11:\n    /* \"#utility.yul\":503:510   */\n  0x00\n    /* \"#utility.yul\":532:556   */\n  tag_20\n    /* \"#utility.yul\":550:555   */\n  dup3\n    /* \"#utility.yul\":532:556   */\n  tag_10\n  jump\t// in\ntag_20:\n    /* \"#utility.yul\":521:556   */\n  swap1\n  pop\n    /* \"#utility.yul\":466:562   */\n  swap2\n  swap1\n  pop\n  jump\t// out\n    /* \"#utility.yul\":568:690   */\ntag_12:\n    /* \"#utility.yul\":641:665   */\n  tag_22\n    /* \"#utility.yul\":659:664   */\n  dup2\n    /* \"#utility.yul\":641:665   */\n  tag_11\n  jump\t// in\ntag_22:\n    /* \"#utility.yul\":634:639   */\n  dup2\n    /* \"#utility.yul\":631:666   */\n  eq\n    /* \"#utility.yul\":621:684   */\n  tag_23\n  jumpi\n    /* \"#utility.yul\":680:681   */\n  0x00\n    /* \"#utility.yul\":677:678   */\n  dup1\n    /* \"#utility.yul\":670:682   */\n  revert\n    /* \"#utility.yul\":621:684   */\ntag_23:\n    /* \"#utility.yul\":568:690   */\n  pop\n  jump\t// out\n    /* \"#utility.yul\":696:839   */\ntag_13:\n    /* \"#utility.yul\":753:758   */\n  0x00\n    /* \"#utility.yul\":784:790   */\n  dup2\n    /* \"#utility.yul\":778:791   */\n  mload\n    /* \"#utility.yul\":769:791   */\n  swap1\n  pop\n    /* \"#utility.yul\":800:833   */\n  tag_25\n    /* \"#utility.yul\":827:832   */\n  dup2\n    /* \"#utility.yul\":800:833   */\n  tag_12\n  jump\t// in\ntag_25:\n    /* \"#utility.yul\":696:839   */\n  swap3\n  swap2\n  pop\n  pop\n  jump\t// out\n    /* \"#utility.yul\":845:1196   */\ntag_3:\n    /* \"#utility.yul\":915:921   */\n  0x00\n    /* \"#utility.yul\":964:966   */\n  0x20\n    /* \"#utility.yul\":952:961   */\n  dup3\n    /* \"#utility.yul\":943:950   */\n  dup5\n    /* \"#utility.yul\":939:962   */\n  sub\n    /* \"#utility.yul\":935:967   */\n  slt\n    /* \"#utility.yul\":932:1051   */\n  iszero\n  tag_27\n  jumpi\n    /* \"#utility.yul\":970:1049   */\n  tag_28\n  tag_8\n  jump\t// in\ntag_28:\n    /* \"#utility.yul\":932:1051   */\ntag_27:\n    /* \"#utility.yul\":1090:1091   */\n  0x00\n    /* \"#utility.yul\":1115:1179   */\n  tag_29\n    /* \"#utility.yul\":1171:1178   */\n  dup5\n    /* \"#utility.yul\":1162:1168   */\n  dup3\n    /* \"#utility.yul\":1151:1160   */\n  dup6\n    /* \"#utility.yul\":1147:1169   */\n  add\n    /* \"#utility.yul\":1115:1179   */\n  tag_13\n  jump\t// in\ntag_29:\n    /* \"#utility.yul\":1105:1179   */\n  swap2\n  pop\n    /* \"#utility.yul\":1061:1189   */\n  pop\n    /* \"#utility.yul\":845:1196   */\n  swap3\n  swap2\n  pop\n  pop\n  jump\t// out\n    /* \"chain-oracle/OOConsumerV2.sol\":472:4339  contract OOConsumerV2 {... */\ntag_6:\n  dataSize(sub_0)\n  dup1\n  dataOffset(sub_0)\n  0x00\n  codecopy\n  0x00\n  return\nstop\n\nsub_0: assembly {\n        /* \"chain-oracle/OOConsumerV2.sol\":472:4339  contract OOConsumerV2 {... */\n      mstore(0x40, 0x80)\n      callvalue\n      dup1\n      iszero\n      tag_1\n      jumpi\n      0x00\n      dup1\n      revert\n    tag_1:\n      pop\n      jumpi(tag_2, lt(calldatasize, 0x04))\n      shr(0xe0, calldataload(0x00))\n      dup1\n      0x43c2ed99\n      eq\n      tag_3\n      jumpi\n      dup1\n      0xc58343ef\n      eq\n      tag_4\n      jumpi\n      dup1\n      0xd247f92b\n      eq\n      tag_5\n      jumpi\n      dup1\n      0xe5da66af\n      eq\n      tag_6\n      jumpi\n      dup1\n      0xf418ad7a\n      eq\n      tag_7\n      jumpi\n    tag_2:\n      0x00\n      dup1\n      revert\n        /* \"chain-oracle/OOConsumerV2.sol\":1778:3064  function requestData(... */\n    tag_3:\n      tag_8\n      0x04\n      dup1\n      calldatasize\n      sub\n      dup2\n      add\n      swap1\n      tag_9\n      swap2\n      swap1\n      tag_10\n      jump\t// in\n    tag_9:\n      tag_11\n      jump\t// in\n    tag_8:\n      stop\n        /* \"chain-oracle/OOConsumerV2.sol\":4146:4264  function getRequest(uint requestId) public view returns (Request memory) {... */\n    tag_4:\n      tag_12\n      0x04\n      dup1\n      calldatasize\n      sub\n      dup2\n      add\n      swap1\n      tag_13\n      swap2\n      swap1\n      tag_14\n      jump\t// in\n    tag_13:\n      tag_15\n      jump\t// in\n    tag_12:\n      mload(0x40)\n      tag_16\n      swap2\n      swap1\n      tag_17\n      jump\t// in\n    tag_16:\n      mload(0x40)\n      dup1\n      swap2\n      sub\n      swap1\n      return\n        /* \"chain-oracle/OOConsumerV2.sol\":3327:3654  function settleRequest(uint requestId) public {... */\n    tag_5:\n      tag_18\n      0x04\n      dup1\n      calldatasize\n      sub\n      dup2\n      add\n      swap1\n      tag_19\n      swap2\n      swap1\n      tag_14\n      jump\t// in\n    tag_19:\n      tag_20\n      jump\t// in\n    tag_18:\n      stop\n        /* \"chain-oracle/OOConsumerV2.sol\":3737:4140  function getSettledData(uint requestId) public view returns (int256) {... */\n    tag_6:\n      tag_21\n      0x04\n      dup1\n      calldatasize\n      sub\n      dup2\n      add\n      swap1\n      tag_22\n      swap2\n      swap1\n      tag_14\n      jump\t// in\n    tag_22:\n      tag_23\n      jump\t// in\n    tag_21:\n      mload(0x40)\n      tag_24\n      swap2\n      swap1\n      tag_25\n      jump\t// in\n    tag_24:\n      mload(0x40)\n      dup1\n      swap2\n      sub\n      swap1\n      return\n        /* \"chain-oracle/OOConsumerV2.sol\":939:981  mapping(uint => Request) public ooRequests */\n    tag_7:\n      tag_26\n      0x04\n      dup1\n      calldatasize\n      sub\n      dup2\n      add\n      swap1\n      tag_27\n      swap2\n      swap1\n      tag_14\n      jump\t// in\n    tag_27:\n      tag_28\n      jump\t// in\n    tag_26:\n      mload(0x40)\n      tag_29\n      swap9\n      swap8\n      swap7\n      swap6\n      swap5\n      swap4\n      swap3\n      swap2\n      swap1\n      tag_30\n      jump\t// in\n    tag_29:\n      mload(0x40)\n      dup1\n      swap2\n      sub\n      swap1\n      return\n        /* \"chain-oracle/OOConsumerV2.sol\":1778:3064  function requestData(... */\n    tag_11:\n        /* \"chain-oracle/OOConsumerV2.sol\":2034:2053  IERC20 bondCurrency */\n      0x00\n        /* \"chain-oracle/OOConsumerV2.sol\":2063:2082  bondCurrencyAddress */\n      dup5\n        /* \"chain-oracle/OOConsumerV2.sol\":2034:2083  IERC20 bondCurrency = IERC20(bondCurrencyAddress) */\n      swap1\n      pop\n        /* \"chain-oracle/OOConsumerV2.sol\":2134:2153  uint256 requestTime */\n      0x00\n        /* \"chain-oracle/OOConsumerV2.sol\":2339:2341  oo */\n      dup1\n      dup1\n      sload\n      swap1\n      0x0100\n      exp\n      swap1\n      div\n      0xffffffffffffffffffffffffffffffffffffffff\n      and\n        /* \"chain-oracle/OOConsumerV2.sol\":2339:2354  oo.requestPrice */\n      0xffffffffffffffffffffffffffffffffffffffff\n      and\n      0x11df92f1\n        /* \"chain-oracle/OOConsumerV2.sol\":2368:2378  identifier */\n      dup10\n        /* \"chain-oracle/OOConsumerV2.sol\":2392:2403  requestTime */\n      dup4\n        /* \"chain-oracle/OOConsumerV2.sol\":2417:2430  ancillaryData */\n      dup11\n        /* \"chain-oracle/OOConsumerV2.sol\":2444:2456  bondCurrency */\n      dup7\n        /* \"chain-oracle/OOConsumerV2.sol\":2470:2482  rewardAmount */\n      dup11\n        /* \"chain-oracle/OOConsumerV2.sol\":2339:2492  oo.requestPrice(... */\n      mload(0x40)\n      dup7\n      0xffffffff\n      and\n      0xe0\n      shl\n      dup2\n      mstore\n      0x04\n      add\n      tag_32\n      swap6\n      swap5\n      swap4\n      swap3\n      swap2\n      swap1\n      tag_33\n      jump\t// in\n    tag_32:\n      0x20\n      mload(0x40)\n      dup1\n      dup4\n      sub\n      dup2\n      0x00\n      dup8\n      gas\n      call\n      iszero\n      dup1\n      iszero\n      tag_35\n      jumpi\n      returndatasize\n      0x00\n      dup1\n      returndatacopy\n      revert(0x00, returndatasize)\n    tag_35:\n      pop\n      pop\n      pop\n      pop\n      mload(0x40)\n      returndatasize\n      not(0x1f)\n      0x1f\n      dup3\n      add\n      and\n      dup3\n      add\n      dup1\n      0x40\n      mstore\n      pop\n      dup2\n      add\n      swap1\n      tag_36\n      swap2\n      swap1\n      tag_37\n      jump\t// in\n    tag_36:\n      pop\n        /* \"chain-oracle/OOConsumerV2.sol\":2503:2505  oo */\n      0x00\n      dup1\n      sload\n      swap1\n      0x0100\n      exp\n      swap1\n      div\n      0xffffffffffffffffffffffffffffffffffffffff\n      and\n        /* \"chain-oracle/OOConsumerV2.sol\":2503:2523  oo.setCustomLiveness */\n      0xffffffffffffffffffffffffffffffffffffffff\n      and\n      0x473c45fe\n        /* \"chain-oracle/OOConsumerV2.sol\":2537:2547  identifier */\n      dup10\n        /* \"chain-oracle/OOConsumerV2.sol\":2561:2572  requestTime */\n      dup4\n        /* \"chain-oracle/OOConsumerV2.sol\":2586:2599  ancillaryData */\n      dup11\n        /* \"chain-oracle/OOConsumerV2.sol\":2613:2625  livenessTime */\n      dup9\n        /* \"chain-oracle/OOConsumerV2.sol\":2503:2635  oo.setCustomLiveness(... */\n      mload(0x40)\n      dup6\n      0xffffffff\n      and\n      0xe0\n      shl\n      dup2\n      mstore\n      0x04\n      add\n      tag_38\n      swap5\n      swap4\n      swap3\n      swap2\n      swap1\n      tag_39\n      jump\t// in\n    tag_38:\n      0x00\n      mload(0x40)\n      dup1\n      dup4\n      sub\n      dup2\n      0x00\n      dup8\n      dup1\n      extcodesize\n      iszero\n      dup1\n      iszero\n      tag_40\n      jumpi\n      0x00\n      dup1\n      revert\n    tag_40:\n      pop\n      gas\n      call\n      iszero\n      dup1\n      iszero\n      tag_42\n      jumpi\n      returndatasize\n      0x00\n      dup1\n      returndatacopy\n      revert(0x00, returndatasize)\n    tag_42:\n      pop\n      pop\n      pop\n      pop\n        /* \"chain-oracle/OOConsumerV2.sol\":2670:2895  Request(... */\n      mload(0x40)\n      dup1\n      0x0100\n      add\n      0x40\n      mstore\n      dup1\n        /* \"chain-oracle/OOConsumerV2.sol\":2691:2701  identifier */\n      dup10\n        /* \"chain-oracle/OOConsumerV2.sol\":2670:2895  Request(... */\n      dup2\n      mstore\n      0x20\n      add\n        /* \"chain-oracle/OOConsumerV2.sol\":2715:2728  ancillaryData */\n      dup9\n        /* \"chain-oracle/OOConsumerV2.sol\":2670:2895  Request(... */\n      dup2\n      mstore\n      0x20\n      add\n        /* \"chain-oracle/OOConsumerV2.sol\":2742:2761  bondCurrencyAddress */\n      dup8\n        /* \"chain-oracle/OOConsumerV2.sol\":2670:2895  Request(... */\n      0xffffffffffffffffffffffffffffffffffffffff\n      and\n      dup2\n      mstore\n      0x20\n      add\n        /* \"chain-oracle/OOConsumerV2.sol\":2775:2787  rewardAmount */\n      dup7\n        /* \"chain-oracle/OOConsumerV2.sol\":2670:2895  Request(... */\n      dup2\n      mstore\n      0x20\n      add\n        /* \"chain-oracle/OOConsumerV2.sol\":2801:2813  livenessTime */\n      dup6\n        /* \"chain-oracle/OOConsumerV2.sol\":2670:2895  Request(... */\n      dup2\n      mstore\n      0x20\n      add\n        /* \"chain-oracle/OOConsumerV2.sol\":2827:2838  requestTime */\n      dup3\n        /* \"chain-oracle/OOConsumerV2.sol\":2670:2895  Request(... */\n      dup2\n      mstore\n      0x20\n      add\n        /* \"chain-oracle/OOConsumerV2.sol\":2852:2861  requester */\n      dup5\n        /* \"chain-oracle/OOConsumerV2.sol\":2670:2895  Request(... */\n      0xffffffffffffffffffffffffffffffffffffffff\n      and\n      dup2\n      mstore\n      0x20\n      add\n        /* \"chain-oracle/OOConsumerV2.sol\":2875:2885  msg.sender */\n      caller\n        /* \"chain-oracle/OOConsumerV2.sol\":2670:2895  Request(... */\n      0xffffffffffffffffffffffffffffffffffffffff\n      and\n      dup2\n      mstore\n      pop\n        /* \"chain-oracle/OOConsumerV2.sol\":2646:2656  ooRequests */\n      0x01\n        /* \"chain-oracle/OOConsumerV2.sol\":2646:2667  ooRequests[requestId] */\n      0x00\n        /* \"chain-oracle/OOConsumerV2.sol\":2657:2666  requestId */\n      dup12\n        /* \"chain-oracle/OOConsumerV2.sol\":2646:2667  ooRequests[requestId] */\n      dup2\n      mstore\n      0x20\n      add\n      swap1\n      dup2\n      mstore\n      0x20\n      add\n      0x00\n      keccak256\n        /* \"chain-oracle/OOConsumerV2.sol\":2646:2895  ooRequests[requestId] = Request(... */\n      0x00\n      dup3\n      add\n      mload\n      dup2\n      0x00\n      add\n      sstore\n      0x20\n      dup3\n      add\n      mload\n      dup2\n      0x01\n      add\n      swap1\n      dup1\n      mload\n      swap1\n      0x20\n      add\n      swap1\n      tag_43\n      swap3\n      swap2\n      swap1\n      tag_44\n      jump\t// in\n    tag_43:\n      pop\n      0x40\n      dup3\n      add\n      mload\n      dup2\n      0x02\n      add\n      exp(0x0100, 0x00)\n      dup2\n      sload\n      dup2\n      0xffffffffffffffffffffffffffffffffffffffff\n      mul\n      not\n      and\n      swap1\n      dup4\n      0xffffffffffffffffffffffffffffffffffffffff\n      and\n      mul\n      or\n      swap1\n      sstore\n      pop\n      0x60\n      dup3\n      add\n      mload\n      dup2\n      0x03\n      add\n      sstore\n      0x80\n      dup3\n      add\n      mload\n      dup2\n      0x04\n      add\n      sstore\n      0xa0\n      dup3\n      add\n      mload\n      dup2\n      0x05\n      add\n      sstore\n      0xc0\n      dup3\n      add\n      mload\n      dup2\n      0x06\n      add\n      exp(0x0100, 0x00)\n      dup2\n      sload\n      dup2\n      0xffffffffffffffffffffffffffffffffffffffff\n      mul\n      not\n      and\n      swap1\n      dup4\n      0xffffffffffffffffffffffffffffffffffffffff\n      and\n      mul\n      or\n      swap1\n      sstore\n      pop\n      0xe0\n      dup3\n      add\n      mload\n      dup2\n      0x07\n      add\n      exp(0x0100, 0x00)\n      dup2\n      sload\n      dup2\n      0xffffffffffffffffffffffffffffffffffffffff\n      mul\n      not\n      and\n      swap1\n      dup4\n      0xffffffffffffffffffffffffffffffffffffffff\n      and\n      mul\n      or\n      swap1\n      sstore\n      pop\n      swap1\n      pop\n      pop\n        /* \"chain-oracle/OOConsumerV2.sol\":2911:3057  requestCreated(... */\n      0x30b5bfd849df20e3e537cf95d7077e1aa0fcd8cc44832c6abd42da4534099f36\n        /* \"chain-oracle/OOConsumerV2.sol\":2939:2948  requestId */\n      dup10\n        /* \"chain-oracle/OOConsumerV2.sol\":2962:2972  identifier */\n      dup10\n        /* \"chain-oracle/OOConsumerV2.sol\":2986:2999  ancillaryData */\n      dup10\n        /* \"chain-oracle/OOConsumerV2.sol\":3013:3024  requestTime */\n      dup5\n        /* \"chain-oracle/OOConsumerV2.sol\":3038:3047  requester */\n      dup8\n        /* \"chain-oracle/OOConsumerV2.sol\":2911:3057  requestCreated(... */\n      mload(0x40)\n      tag_45\n      swap6\n      swap5\n      swap4\n      swap3\n      swap2\n      swap1\n      tag_46\n      jump\t// in\n    tag_45:\n      mload(0x40)\n      dup1\n      swap2\n      sub\n      swap1\n      log1\n        /* \"chain-oracle/OOConsumerV2.sol\":2024:3064  {... */\n      pop\n      pop\n        /* \"chain-oracle/OOConsumerV2.sol\":1778:3064  function requestData(... */\n      pop\n      pop\n      pop\n      pop\n      pop\n      pop\n      pop\n      jump\t// out\n        /* \"chain-oracle/OOConsumerV2.sol\":4146:4264  function getRequest(uint requestId) public view returns (Request memory) {... */\n    tag_15:\n        /* \"chain-oracle/OOConsumerV2.sol\":4203:4217  Request memory */\n      tag_47\n      tag_48\n      jump\t// in\n    tag_47:\n        /* \"chain-oracle/OOConsumerV2.sol\":4236:4246  ooRequests */\n      0x01\n        /* \"chain-oracle/OOConsumerV2.sol\":4236:4257  ooRequests[requestId] */\n      0x00\n        /* \"chain-oracle/OOConsumerV2.sol\":4247:4256  requestId */\n      dup4\n        /* \"chain-oracle/OOConsumerV2.sol\":4236:4257  ooRequests[requestId] */\n      dup2\n      mstore\n      0x20\n      add\n      swap1\n      dup2\n      mstore\n      0x20\n      add\n      0x00\n      keccak256\n        /* \"chain-oracle/OOConsumerV2.sol\":4229:4257  return ooRequests[requestId] */\n      mload(0x40)\n      dup1\n      0x0100\n      add\n      0x40\n      mstore\n      swap1\n      dup2\n      0x00\n      dup3\n      add\n      sload\n      dup2\n      mstore\n      0x20\n      add\n      0x01\n      dup3\n      add\n      dup1\n      sload\n      tag_50\n      swap1\n      tag_51\n      jump\t// in\n    tag_50:\n      dup1\n      0x1f\n      add\n      0x20\n      dup1\n      swap2\n      div\n      mul\n      0x20\n      add\n      mload(0x40)\n      swap1\n      dup2\n      add\n      0x40\n      mstore\n      dup1\n      swap3\n      swap2\n      swap1\n      dup2\n      dup2\n      mstore\n      0x20\n      add\n      dup3\n      dup1\n      sload\n      tag_52\n      swap1\n      tag_51\n      jump\t// in\n    tag_52:\n      dup1\n      iszero\n      tag_53\n      jumpi\n      dup1\n      0x1f\n      lt\n      tag_54\n      jumpi\n      0x0100\n      dup1\n      dup4\n      sload\n      div\n      mul\n      dup4\n      mstore\n      swap2\n      0x20\n      add\n      swap2\n      jump(tag_53)\n    tag_54:\n      dup3\n      add\n      swap2\n      swap1\n      0x00\n      mstore\n      keccak256(0x00, 0x20)\n      swap1\n    tag_55:\n      dup2\n      sload\n      dup2\n      mstore\n      swap1\n      0x01\n      add\n      swap1\n      0x20\n      add\n      dup1\n      dup4\n      gt\n      tag_55\n      jumpi\n      dup3\n      swap1\n      sub\n      0x1f\n      and\n      dup3\n      add\n      swap2\n    tag_53:\n      pop\n      pop\n      pop\n      pop\n      pop\n      dup2\n      mstore\n      0x20\n      add\n      0x02\n      dup3\n      add\n      0x00\n      swap1\n      sload\n      swap1\n      0x0100\n      exp\n      swap1\n      div\n      0xffffffffffffffffffffffffffffffffffffffff\n      and\n      0xffffffffffffffffffffffffffffffffffffffff\n      and\n      0xffffffffffffffffffffffffffffffffffffffff\n      and\n      dup2\n      mstore\n      0x20\n      add\n      0x03\n      dup3\n      add\n      sload\n      dup2\n      mstore\n      0x20\n      add\n      0x04\n      dup3\n      add\n      sload\n      dup2\n      mstore\n      0x20\n      add\n      0x05\n      dup3\n      add\n      sload\n      dup2\n      mstore\n      0x20\n      add\n      0x06\n      dup3\n      add\n      0x00\n      swap1\n      sload\n      swap1\n      0x0100\n      exp\n      swap1\n      div\n      0xffffffffffffffffffffffffffffffffffffffff\n      and\n      0xffffffffffffffffffffffffffffffffffffffff\n      and\n      0xffffffffffffffffffffffffffffffffffffffff\n      and\n      dup2\n      mstore\n      0x20\n      add\n      0x07\n      dup3\n      add\n      0x00\n      swap1\n      sload\n      swap1\n      0x0100\n      exp\n      swap1\n      div\n      0xffffffffffffffffffffffffffffffffffffffff\n      and\n      0xffffffffffffffffffffffffffffffffffffffff\n      and\n      0xffffffffffffffffffffffffffffffffffffffff\n      and\n      dup2\n      mstore\n      pop\n      pop\n      swap1\n      pop\n        /* \"chain-oracle/OOConsumerV2.sol\":4146:4264  function getRequest(uint requestId) public view returns (Request memory) {... */\n      swap2\n      swap1\n      pop\n      jump\t// out\n        /* \"chain-oracle/OOConsumerV2.sol\":3327:3654  function settleRequest(uint requestId) public {... */\n    tag_20:\n        /* \"chain-oracle/OOConsumerV2.sol\":3383:3406  Request memory _request */\n      0x00\n        /* \"chain-oracle/OOConsumerV2.sol\":3409:3419  ooRequests */\n      0x01\n        /* \"chain-oracle/OOConsumerV2.sol\":3409:3430  ooRequests[requestId] */\n      0x00\n        /* \"chain-oracle/OOConsumerV2.sol\":3420:3429  requestId */\n      dup4\n        /* \"chain-oracle/OOConsumerV2.sol\":3409:3430  ooRequests[requestId] */\n      dup2\n      mstore\n      0x20\n      add\n      swap1\n      dup2\n      mstore\n      0x20\n      add\n      0x00\n      keccak256\n        /* \"chain-oracle/OOConsumerV2.sol\":3383:3430  Request memory _request = ooRequests[requestId] */\n      mload(0x40)\n      dup1\n      0x0100\n      add\n      0x40\n      mstore\n      swap1\n      dup2\n      0x00\n      dup3\n      add\n      sload\n      dup2\n      mstore\n      0x20\n      add\n      0x01\n      dup3\n      add\n      dup1\n      sload\n      tag_57\n      swap1\n      tag_51\n      jump\t// in\n    tag_57:\n      dup1\n      0x1f\n      add\n      0x20\n      dup1\n      swap2\n      div\n      mul\n      0x20\n      add\n      mload(0x40)\n      swap1\n      dup2\n      add\n      0x40\n      mstore\n      dup1\n      swap3\n      swap2\n      swap1\n      dup2\n      dup2\n      mstore\n      0x20\n      add\n      dup3\n      dup1\n      sload\n      tag_58\n      swap1\n      tag_51\n      jump\t// in\n    tag_58:\n      dup1\n      iszero\n      tag_59\n      jumpi\n      dup1\n      0x1f\n      lt\n      tag_60\n      jumpi\n      0x0100\n      dup1\n      dup4\n      sload\n      div\n      mul\n      dup4\n      mstore\n      swap2\n      0x20\n      add\n      swap2\n      jump(tag_59)\n    tag_60:\n      dup3\n      add\n      swap2\n      swap1\n      0x00\n      mstore\n      keccak256(0x00, 0x20)\n      swap1\n    tag_61:\n      dup2\n      sload\n      dup2\n      mstore\n      swap1\n      0x01\n      add\n      swap1\n      0x20\n      add\n      dup1\n      dup4\n      gt\n      tag_61\n      jumpi\n      dup3\n      swap1\n      sub\n      0x1f\n      and\n      dup3\n      add\n      swap2\n    tag_59:\n      pop\n      pop\n      pop\n      pop\n      pop\n      dup2\n      mstore\n      0x20\n      add\n      0x02\n      dup3\n      add\n      0x00\n      swap1\n      sload\n      swap1\n      0x0100\n      exp\n      swap1\n      div\n      0xffffffffffffffffffffffffffffffffffffffff\n      and\n      0xffffffffffffffffffffffffffffffffffffffff\n      and\n      0xffffffffffffffffffffffffffffffffffffffff\n      and\n      dup2\n      mstore\n      0x20\n      add\n      0x03\n      dup3\n      add\n      sload\n      dup2\n      mstore\n      0x20\n      add\n      0x04\n      dup3\n      add\n      sload\n      dup2\n      mstore\n      0x20\n      add\n      0x05\n      dup3\n      add\n      sload\n      dup2\n      mstore\n      0x20\n      add\n      0x06\n      dup3\n      add\n      0x00\n      swap1\n      sload\n      swap1\n      0x0100\n      exp\n      swap1\n      div\n      0xffffffffffffffffffffffffffffffffffffffff\n      and\n      0xffffffffffffffffffffffffffffffffffffffff\n      and\n      0xffffffffffffffffffffffffffffffffffffffff\n      and\n      dup2\n      mstore\n      0x20\n      add\n      0x07\n      dup3\n      add\n      0x00\n      swap1\n      sload\n      swap1\n      0x0100\n      exp\n      swap1\n      div\n      0xffffffffffffffffffffffffffffffffffffffff\n      and\n      0xffffffffffffffffffffffffffffffffffffffff\n      and\n      0xffffffffffffffffffffffffffffffffffffffff\n      and\n      dup2\n      mstore\n      pop\n      pop\n      swap1\n      pop\n        /* \"chain-oracle/OOConsumerV2.sol\":3440:3442  oo */\n      0x00\n      dup1\n      sload\n      swap1\n      0x0100\n      exp\n      swap1\n      div\n      0xffffffffffffffffffffffffffffffffffffffff\n      and\n        /* \"chain-oracle/OOConsumerV2.sol\":3440:3449  oo.settle */\n      0xffffffffffffffffffffffffffffffffffffffff\n      and\n      0x5e9a79a9\n        /* \"chain-oracle/OOConsumerV2.sol\":3471:3475  this */\n      address\n        /* \"chain-oracle/OOConsumerV2.sol\":3490:3498  _request */\n      dup4\n        /* \"chain-oracle/OOConsumerV2.sol\":3490:3509  _request.identifier */\n      0x00\n      add\n      mload\n        /* \"chain-oracle/OOConsumerV2.sol\":3523:3531  _request */\n      dup5\n        /* \"chain-oracle/OOConsumerV2.sol\":3523:3543  _request.requestTime */\n      0xa0\n      add\n      mload\n        /* \"chain-oracle/OOConsumerV2.sol\":3557:3565  _request */\n      dup6\n        /* \"chain-oracle/OOConsumerV2.sol\":3557:3579  _request.ancillaryData */\n      0x20\n      add\n      mload\n        /* \"chain-oracle/OOConsumerV2.sol\":3440:3589  oo.settle(... */\n      mload(0x40)\n      dup6\n      0xffffffff\n      and\n      0xe0\n      shl\n      dup2\n      mstore\n      0x04\n      add\n      tag_62\n      swap5\n      swap4\n      swap3\n      swap2\n      swap1\n      tag_63\n      jump\t// in\n    tag_62:\n      0x20\n      mload(0x40)\n      dup1\n      dup4\n      sub\n      dup2\n      0x00\n      dup8\n      gas\n      call\n      iszero\n      dup1\n      iszero\n      tag_65\n      jumpi\n      returndatasize\n      0x00\n      dup1\n      returndatacopy\n      revert(0x00, returndatasize)\n    tag_65:\n      pop\n      pop\n      pop\n      pop\n      mload(0x40)\n      returndatasize\n      not(0x1f)\n      0x1f\n      dup3\n      add\n      and\n      dup3\n      add\n      dup1\n      0x40\n      mstore\n      pop\n      dup2\n      add\n      swap1\n      tag_66\n      swap2\n      swap1\n      tag_37\n      jump\t// in\n    tag_66:\n      pop\n        /* \"chain-oracle/OOConsumerV2.sol\":3605:3647  requestSettled(requestId, block.timestamp) */\n      0x3310ccc874795089b108b55b552feb307812189b9b162a282f97f6c5d0399927\n        /* \"chain-oracle/OOConsumerV2.sol\":3620:3629  requestId */\n      dup3\n        /* \"chain-oracle/OOConsumerV2.sol\":3631:3646  block.timestamp */\n      timestamp\n        /* \"chain-oracle/OOConsumerV2.sol\":3605:3647  requestSettled(requestId, block.timestamp) */\n      mload(0x40)\n      tag_67\n      swap3\n      swap2\n      swap1\n      tag_68\n      jump\t// in\n    tag_67:\n      mload(0x40)\n      dup1\n      swap2\n      sub\n      swap1\n      log1\n        /* \"chain-oracle/OOConsumerV2.sol\":3373:3654  {... */\n      pop\n        /* \"chain-oracle/OOConsumerV2.sol\":3327:3654  function settleRequest(uint requestId) public {... */\n      pop\n      jump\t// out\n        /* \"chain-oracle/OOConsumerV2.sol\":3737:4140  function getSettledData(uint requestId) public view returns (int256) {... */\n    tag_23:\n        /* \"chain-oracle/OOConsumerV2.sol\":3798:3804  int256 */\n      0x00\n        /* \"chain-oracle/OOConsumerV2.sol\":3816:3839  Request memory _request */\n      dup1\n        /* \"chain-oracle/OOConsumerV2.sol\":3842:3852  ooRequests */\n      0x01\n        /* \"chain-oracle/OOConsumerV2.sol\":3842:3863  ooRequests[requestId] */\n      0x00\n        /* \"chain-oracle/OOConsumerV2.sol\":3853:3862  requestId */\n      dup5\n        /* \"chain-oracle/OOConsumerV2.sol\":3842:3863  ooRequests[requestId] */\n      dup2\n      mstore\n      0x20\n      add\n      swap1\n      dup2\n      mstore\n      0x20\n      add\n      0x00\n      keccak256\n        /* \"chain-oracle/OOConsumerV2.sol\":3816:3863  Request memory _request = ooRequests[requestId] */\n      mload(0x40)\n      dup1\n      0x0100\n      add\n      0x40\n      mstore\n      swap1\n      dup2\n      0x00\n      dup3\n      add\n      sload\n      dup2\n      mstore\n      0x20\n      add\n      0x01\n      dup3\n      add\n      dup1\n      sload\n      tag_70\n      swap1\n      tag_51\n      jump\t// in\n    tag_70:\n      dup1\n      0x1f\n      add\n      0x20\n      dup1\n      swap2\n      div\n      mul\n      0x20\n      add\n      mload(0x40)\n      swap1\n      dup2\n      add\n      0x40\n      mstore\n      dup1\n      swap3\n      swap2\n      swap1\n      dup2\n      dup2\n      mstore\n      0x20\n      add\n      dup3\n      dup1\n      sload\n      tag_71\n      swap1\n      tag_51\n      jump\t// in\n    tag_71:\n      dup1\n      iszero\n      tag_72\n      jumpi\n      dup1\n      0x1f\n      lt\n      tag_73\n      jumpi\n      0x0100\n      dup1\n      dup4\n      sload\n      div\n      mul\n      dup4\n      mstore\n      swap2\n      0x20\n      add\n      swap2\n      jump(tag_72)\n    tag_73:\n      dup3\n      add\n      swap2\n      swap1\n      0x00\n      mstore\n      keccak256(0x00, 0x20)\n      swap1\n    tag_74:\n      dup2\n      sload\n      dup2\n      mstore\n      swap1\n      0x01\n      add\n      swap1\n      0x20\n      add\n      dup1\n      dup4\n      gt\n      tag_74\n      jumpi\n      dup3\n      swap1\n      sub\n      0x1f\n      and\n      dup3\n      add\n      swap2\n    tag_72:\n      pop\n      pop\n      pop\n      pop\n      pop\n      dup2\n      mstore\n      0x20\n      add\n      0x02\n      dup3\n      add\n      0x00\n      swap1\n      sload\n      swap1\n      0x0100\n      exp\n      swap1\n      div\n      0xffffffffffffffffffffffffffffffffffffffff\n      and\n      0xffffffffffffffffffffffffffffffffffffffff\n      and\n      0xffffffffffffffffffffffffffffffffffffffff\n      and\n      dup2\n      mstore\n      0x20\n      add\n      0x03\n      dup3\n      add\n      sload\n      dup2\n      mstore\n      0x20\n      add\n      0x04\n      dup3\n      add\n      sload\n      dup2\n      mstore\n      0x20\n      add\n      0x05\n      dup3\n      add\n      sload\n      dup2\n      mstore\n      0x20\n      add\n      0x06\n      dup3\n      add\n      0x00\n      swap1\n      sload\n      swap1\n      0x0100\n      exp\n      swap1\n      div\n      0xffffffffffffffffffffffffffffffffffffffff\n      and\n      0xffffffffffffffffffffffffffffffffffffffff\n      and\n      0xffffffffffffffffffffffffffffffffffffffff\n      and\n      dup2\n      mstore\n      0x20\n      add\n      0x07\n      dup3\n      add\n      0x00\n      swap1\n      sload\n      swap1\n      0x0100\n      exp\n      swap1\n      div\n      0xffffffffffffffffffffffffffffffffffffffff\n      and\n      0xffffffffffffffffffffffffffffffffffffffff\n      and\n      0xffffffffffffffffffffffffffffffffffffffff\n      and\n      dup2\n      mstore\n      pop\n      pop\n      swap1\n      pop\n        /* \"chain-oracle/OOConsumerV2.sol\":3892:3894  oo */\n      0x00\n      dup1\n      sload\n      swap1\n      0x0100\n      exp\n      swap1\n      div\n      0xffffffffffffffffffffffffffffffffffffffff\n      and\n        /* \"chain-oracle/OOConsumerV2.sol\":3892:3922  oo... */\n      0xffffffffffffffffffffffffffffffffffffffff\n      and\n      0xa9904f9b\n        /* \"chain-oracle/OOConsumerV2.sol\":3952:3956  this */\n      address\n        /* \"chain-oracle/OOConsumerV2.sol\":3979:3987  _request */\n      dup4\n        /* \"chain-oracle/OOConsumerV2.sol\":3979:3998  _request.identifier */\n      0x00\n      add\n      mload\n        /* \"chain-oracle/OOConsumerV2.sol\":4020:4028  _request */\n      dup5\n        /* \"chain-oracle/OOConsumerV2.sol\":4020:4040  _request.requestTime */\n      0xa0\n      add\n      mload\n        /* \"chain-oracle/OOConsumerV2.sol\":4062:4070  _request */\n      dup6\n        /* \"chain-oracle/OOConsumerV2.sol\":4062:4084  _request.ancillaryData */\n      0x20\n      add\n      mload\n        /* \"chain-oracle/OOConsumerV2.sol\":3892:4102  oo... */\n      mload(0x40)\n      dup6\n      0xffffffff\n      and\n      0xe0\n      shl\n      dup2\n      mstore\n      0x04\n      add\n      tag_75\n      swap5\n      swap4\n      swap3\n      swap2\n      swap1\n      tag_63\n      jump\t// in\n    tag_75:\n      0x0200\n      mload(0x40)\n      dup1\n      dup4\n      sub\n      dup2\n      dup7\n      gas\n      staticcall\n      iszero\n      dup1\n      iszero\n      tag_77\n      jumpi\n      returndatasize\n      0x00\n      dup1\n      returndatacopy\n      revert(0x00, returndatasize)\n    tag_77:\n      pop\n      pop\n      pop\n      pop\n      mload(0x40)\n      returndatasize\n      not(0x1f)\n      0x1f\n      dup3\n      add\n      and\n      dup3\n      add\n      dup1\n      0x40\n      mstore\n      pop\n      dup2\n      add\n      swap1\n      tag_78\n      swap2\n      swap1\n      tag_79\n      jump\t// in\n    tag_78:\n        /* \"chain-oracle/OOConsumerV2.sol\":3892:4133  oo... */\n      0xc0\n      add\n      mload\n        /* \"chain-oracle/OOConsumerV2.sol\":3873:4133  return... */\n      swap2\n      pop\n      pop\n        /* \"chain-oracle/OOConsumerV2.sol\":3737:4140  function getSettledData(uint requestId) public view returns (int256) {... */\n      swap2\n      swap1\n      pop\n      jump\t// out\n        /* \"chain-oracle/OOConsumerV2.sol\":939:981  mapping(uint => Request) public ooRequests */\n    tag_28:\n      mstore(0x20, 0x01)\n      dup1\n      0x00\n      mstore\n      keccak256(0x00, 0x40)\n      0x00\n      swap2\n      pop\n      swap1\n      pop\n      dup1\n      0x00\n      add\n      sload\n      swap1\n      dup1\n      0x01\n      add\n      dup1\n      sload\n      tag_80\n      swap1\n      tag_51\n      jump\t// in\n    tag_80:\n      dup1\n      0x1f\n      add\n      0x20\n      dup1\n      swap2\n      div\n      mul\n      0x20\n      add\n      mload(0x40)\n      swap1\n      dup2\n      add\n      0x40\n      mstore\n      dup1\n      swap3\n      swap2\n      swap1\n      dup2\n      dup2\n      mstore\n      0x20\n      add\n      dup3\n      dup1\n      sload\n      tag_81\n      swap1\n      tag_51\n      jump\t// in\n    tag_81:\n      dup1\n      iszero\n      tag_82\n      jumpi\n      dup1\n      0x1f\n      lt\n      tag_83\n      jumpi\n      0x0100\n      dup1\n      dup4\n      sload\n      div\n      mul\n      dup4\n      mstore\n      swap2\n      0x20\n      add\n      swap2\n      jump(tag_82)\n    tag_83:\n      dup3\n      add\n      swap2\n      swap1\n      0x00\n      mstore\n      keccak256(0x00, 0x20)\n      swap1\n    tag_84:\n      dup2\n      sload\n      dup2\n      mstore\n      swap1\n      0x01\n      add\n      swap1\n      0x20\n      add\n      dup1\n      dup4\n      gt\n      tag_84\n      jumpi\n      dup3\n      swap1\n      sub\n      0x1f\n      and\n      dup3\n      add\n      swap2\n    tag_82:\n      pop\n      pop\n      pop\n      pop\n      pop\n      swap1\n      dup1\n      0x02\n      add\n      0x00\n      swap1\n      sload\n      swap1\n      0x0100\n      exp\n      swap1\n      div\n      0xffffffffffffffffffffffffffffffffffffffff\n      and\n      swap1\n      dup1\n      0x03\n      add\n      sload\n      swap1\n      dup1\n      0x04\n      add\n      sload\n      swap1\n      dup1\n      0x05\n      add\n      sload\n      swap1\n      dup1\n      0x06\n      add\n      0x00\n      swap1\n      sload\n      swap1\n      0x0100\n      exp\n      swap1\n      div\n      0xffffffffffffffffffffffffffffffffffffffff\n      and\n      swap1\n      dup1\n      0x07\n      add\n      0x00\n      swap1\n      sload\n      swap1\n      0x0100\n      exp\n      swap1\n      div\n      0xffffffffffffffffffffffffffffffffffffffff\n      and\n      swap1\n      pop\n      dup9\n      jump\t// out\n    tag_44:\n      dup3\n      dup1\n      sload\n      tag_85\n      swap1\n      tag_51\n      jump\t// in\n    tag_85:\n      swap1\n      0x00\n      mstore\n      keccak256(0x00, 0x20)\n      swap1\n      0x1f\n      add\n      0x20\n      swap1\n      div\n      dup2\n      add\n      swap3\n      dup3\n      tag_87\n      jumpi\n      0x00\n      dup6\n      sstore\n      jump(tag_86)\n    tag_87:\n      dup3\n      0x1f\n      lt\n      tag_88\n      jumpi\n      dup1\n      mload\n      not(0xff)\n      and\n      dup4\n      dup1\n      add\n      or\n      dup6\n      sstore\n      jump(tag_86)\n    tag_88:\n      dup3\n      dup1\n      add\n      0x01\n      add\n      dup6\n      sstore\n      dup3\n      iszero\n      tag_86\n      jumpi\n      swap2\n      dup3\n      add\n    tag_89:\n      dup3\n      dup2\n      gt\n      iszero\n      tag_90\n      jumpi\n      dup3\n      mload\n      dup3\n      sstore\n      swap2\n      0x20\n      add\n      swap2\n      swap1\n      0x01\n      add\n      swap1\n      jump(tag_89)\n    tag_90:\n    tag_86:\n      pop\n      swap1\n      pop\n      tag_91\n      swap2\n      swap1\n      tag_92\n      jump\t// in\n    tag_91:\n      pop\n      swap1\n      jump\t// out\n    tag_48:\n      mload(0x40)\n      dup1\n      0x0100\n      add\n      0x40\n      mstore\n      dup1\n      0x00\n      dup1\n      not\n      and\n      dup2\n      mstore\n      0x20\n      add\n      0x60\n      dup2\n      mstore\n      0x20\n      add\n      and(0xffffffffffffffffffffffffffffffffffffffff, 0x00)\n      dup2\n      mstore\n      0x20\n      add\n      0x00\n      dup2\n      mstore\n      0x20\n      add\n      0x00\n      dup2\n      mstore\n      0x20\n      add\n      0x00\n      dup2\n      mstore\n      0x20\n      add\n      and(0xffffffffffffffffffffffffffffffffffffffff, 0x00)\n      dup2\n      mstore\n      0x20\n      add\n      and(0xffffffffffffffffffffffffffffffffffffffff, 0x00)\n      dup2\n      mstore\n      pop\n      swap1\n      jump\t// out\n    tag_92:\n    tag_93:\n      dup1\n      dup3\n      gt\n      iszero\n      tag_94\n      jumpi\n      0x00\n      dup2\n      0x00\n      swap1\n      sstore\n      pop\n      0x01\n      add\n      jump(tag_93)\n    tag_94:\n      pop\n      swap1\n      jump\t// out\n        /* \"#utility.yul\":7:82   */\n    tag_95:\n        /* \"#utility.yul\":40:46   */\n      0x00\n        /* \"#utility.yul\":73:75   */\n      0x40\n        /* \"#utility.yul\":67:76   */\n      mload\n        /* \"#utility.yul\":57:76   */\n      swap1\n      pop\n        /* \"#utility.yul\":7:82   */\n      swap1\n      jump\t// out\n        /* \"#utility.yul\":88:205   */\n    tag_96:\n        /* \"#utility.yul\":197:198   */\n      0x00\n        /* \"#utility.yul\":194:195   */\n      dup1\n        /* \"#utility.yul\":187:199   */\n      revert\n        /* \"#utility.yul\":211:328   */\n    tag_97:\n        /* \"#utility.yul\":320:321   */\n      0x00\n        /* \"#utility.yul\":317:318   */\n      dup1\n        /* \"#utility.yul\":310:322   */\n      revert\n        /* \"#utility.yul\":334:411   */\n    tag_98:\n        /* \"#utility.yul\":371:378   */\n      0x00\n        /* \"#utility.yul\":400:405   */\n      dup2\n        /* \"#utility.yul\":389:405   */\n      swap1\n      pop\n        /* \"#utility.yul\":334:411   */\n      swap2\n      swap1\n      pop\n      jump\t// out\n        /* \"#utility.yul\":417:539   */\n    tag_99:\n        /* \"#utility.yul\":490:514   */\n      tag_159\n        /* \"#utility.yul\":508:513   */\n      dup2\n        /* \"#utility.yul\":490:514   */\n      tag_98\n      jump\t// in\n    tag_159:\n        /* \"#utility.yul\":483:488   */\n      dup2\n        /* \"#utility.yul\":480:515   */\n      eq\n        /* \"#utility.yul\":470:533   */\n      tag_160\n      jumpi\n        /* \"#utility.yul\":529:530   */\n      0x00\n        /* \"#utility.yul\":526:527   */\n      dup1\n        /* \"#utility.yul\":519:531   */\n      revert\n        /* \"#utility.yul\":470:533   */\n    tag_160:\n        /* \"#utility.yul\":417:539   */\n      pop\n      jump\t// out\n        /* \"#utility.yul\":545:684   */\n    tag_100:\n        /* \"#utility.yul\":591:596   */\n      0x00\n        /* \"#utility.yul\":629:635   */\n      dup2\n        /* \"#utility.yul\":616:636   */\n      calldataload\n        /* \"#utility.yul\":607:636   */\n      swap1\n      pop\n        /* \"#utility.yul\":645:678   */\n      tag_162\n        /* \"#utility.yul\":672:677   */\n      dup2\n        /* \"#utility.yul\":645:678   */\n      tag_99\n      jump\t// in\n    tag_162:\n        /* \"#utility.yul\":545:684   */\n      swap3\n      swap2\n      pop\n      pop\n      jump\t// out\n        /* \"#utility.yul\":690:767   */\n    tag_101:\n        /* \"#utility.yul\":727:734   */\n      0x00\n        /* \"#utility.yul\":756:761   */\n      dup2\n        /* \"#utility.yul\":745:761   */\n      swap1\n      pop\n        /* \"#utility.yul\":690:767   */\n      swap2\n      swap1\n      pop\n      jump\t// out\n        /* \"#utility.yul\":773:895   */\n    tag_102:\n        /* \"#utility.yul\":846:870   */\n      tag_165\n        /* \"#utility.yul\":864:869   */\n      dup2\n        /* \"#utility.yul\":846:870   */\n      tag_101\n      jump\t// in\n    tag_165:\n        /* \"#utility.yul\":839:844   */\n      dup2\n        /* \"#utility.yul\":836:871   */\n      eq\n        /* \"#utility.yul\":826:889   */\n      tag_166\n      jumpi\n        /* \"#utility.yul\":885:886   */\n      0x00\n        /* \"#utility.yul\":882:883   */\n      dup1\n        /* \"#utility.yul\":875:887   */\n      revert\n        /* \"#utility.yul\":826:889   */\n    tag_166:\n        /* \"#utility.yul\":773:895   */\n      pop\n      jump\t// out\n        /* \"#utility.yul\":901:1040   */\n    tag_103:\n        /* \"#utility.yul\":947:952   */\n      0x00\n        /* \"#utility.yul\":985:991   */\n      dup2\n        /* \"#utility.yul\":972:992   */\n      calldataload\n        /* \"#utility.yul\":963:992   */\n      swap1\n      pop\n        /* \"#utility.yul\":1001:1034   */\n      tag_168\n        /* \"#utility.yul\":1028:1033   */\n      dup2\n        /* \"#utility.yul\":1001:1034   */\n      tag_102\n      jump\t// in\n    tag_168:\n        /* \"#utility.yul\":901:1040   */\n      swap3\n      swap2\n      pop\n      pop\n      jump\t// out\n        /* \"#utility.yul\":1046:1163   */\n    tag_104:\n        /* \"#utility.yul\":1155:1156   */\n      0x00\n        /* \"#utility.yul\":1152:1153   */\n      dup1\n        /* \"#utility.yul\":1145:1157   */\n      revert\n        /* \"#utility.yul\":1169:1286   */\n    tag_105:\n        /* \"#utility.yul\":1278:1279   */\n      0x00\n        /* \"#utility.yul\":1275:1276   */\n      dup1\n        /* \"#utility.yul\":1268:1280   */\n      revert\n        /* \"#utility.yul\":1292:1394   */\n    tag_106:\n        /* \"#utility.yul\":1333:1339   */\n      0x00\n        /* \"#utility.yul\":1384:1386   */\n      0x1f\n        /* \"#utility.yul\":1380:1387   */\n      not\n        /* \"#utility.yul\":1375:1377   */\n      0x1f\n        /* \"#utility.yul\":1368:1373   */\n      dup4\n        /* \"#utility.yul\":1364:1378   */\n      add\n        /* \"#utility.yul\":1360:1388   */\n      and\n        /* \"#utility.yul\":1350:1388   */\n      swap1\n      pop\n        /* \"#utility.yul\":1292:1394   */\n      swap2\n      swap1\n      pop\n      jump\t// out\n        /* \"#utility.yul\":1400:1580   */\n    tag_107:\n        /* \"#utility.yul\":1448:1525   */\n      0x4e487b7100000000000000000000000000000000000000000000000000000000\n        /* \"#utility.yul\":1445:1446   */\n      0x00\n        /* \"#utility.yul\":1438:1526   */\n      mstore\n        /* \"#utility.yul\":1545:1549   */\n      0x41\n        /* \"#utility.yul\":1542:1543   */\n      0x04\n        /* \"#utility.yul\":1535:1550   */\n      mstore\n        /* \"#utility.yul\":1569:1573   */\n      0x24\n        /* \"#utility.yul\":1566:1567   */\n      0x00\n        /* \"#utility.yul\":1559:1574   */\n      revert\n        /* \"#utility.yul\":1586:1867   */\n    tag_108:\n        /* \"#utility.yul\":1669:1696   */\n      tag_174\n        /* \"#utility.yul\":1691:1695   */\n      dup3\n        /* \"#utility.yul\":1669:1696   */\n      tag_106\n      jump\t// in\n    tag_174:\n        /* \"#utility.yul\":1661:1667   */\n      dup2\n        /* \"#utility.yul\":1657:1697   */\n      add\n        /* \"#utility.yul\":1799:1805   */\n      dup2\n        /* \"#utility.yul\":1787:1797   */\n      dup2\n        /* \"#utility.yul\":1784:1806   */\n      lt\n        /* \"#utility.yul\":1763:1781   */\n      0xffffffffffffffff\n        /* \"#utility.yul\":1751:1761   */\n      dup3\n        /* \"#utility.yul\":1748:1782   */\n      gt\n        /* \"#utility.yul\":1745:1807   */\n      or\n        /* \"#utility.yul\":1742:1830   */\n      iszero\n      tag_175\n      jumpi\n        /* \"#utility.yul\":1810:1828   */\n      tag_176\n      tag_107\n      jump\t// in\n    tag_176:\n        /* \"#utility.yul\":1742:1830   */\n    tag_175:\n        /* \"#utility.yul\":1850:1860   */\n      dup1\n        /* \"#utility.yul\":1846:1848   */\n      0x40\n        /* \"#utility.yul\":1839:1861   */\n      mstore\n        /* \"#utility.yul\":1629:1867   */\n      pop\n        /* \"#utility.yul\":1586:1867   */\n      pop\n      pop\n      jump\t// out\n        /* \"#utility.yul\":1873:2002   */\n    tag_109:\n        /* \"#utility.yul\":1907:1913   */\n      0x00\n        /* \"#utility.yul\":1934:1954   */\n      tag_178\n      tag_95\n      jump\t// in\n    tag_178:\n        /* \"#utility.yul\":1924:1954   */\n      swap1\n      pop\n        /* \"#utility.yul\":1963:1996   */\n      tag_179\n        /* \"#utility.yul\":1991:1995   */\n      dup3\n        /* \"#utility.yul\":1983:1989   */\n      dup3\n        /* \"#utility.yul\":1963:1996   */\n      tag_108\n      jump\t// in\n    tag_179:\n        /* \"#utility.yul\":1873:2002   */\n      swap2\n      swap1\n      pop\n      jump\t// out\n        /* \"#utility.yul\":2008:2315   */\n    tag_110:\n        /* \"#utility.yul\":2069:2073   */\n      0x00\n        /* \"#utility.yul\":2159:2177   */\n      0xffffffffffffffff\n        /* \"#utility.yul\":2151:2157   */\n      dup3\n        /* \"#utility.yul\":2148:2178   */\n      gt\n        /* \"#utility.yul\":2145:2201   */\n      iszero\n      tag_181\n      jumpi\n        /* \"#utility.yul\":2181:2199   */\n      tag_182\n      tag_107\n      jump\t// in\n    tag_182:\n        /* \"#utility.yul\":2145:2201   */\n    tag_181:\n        /* \"#utility.yul\":2219:2248   */\n      tag_183\n        /* \"#utility.yul\":2241:2247   */\n      dup3\n        /* \"#utility.yul\":2219:2248   */\n      tag_106\n      jump\t// in\n    tag_183:\n        /* \"#utility.yul\":2211:2248   */\n      swap1\n      pop\n        /* \"#utility.yul\":2303:2307   */\n      0x20\n        /* \"#utility.yul\":2297:2301   */\n      dup2\n        /* \"#utility.yul\":2293:2308   */\n      add\n        /* \"#utility.yul\":2285:2308   */\n      swap1\n      pop\n        /* \"#utility.yul\":2008:2315   */\n      swap2\n      swap1\n      pop\n      jump\t// out\n        /* \"#utility.yul\":2321:2475   */\n    tag_111:\n        /* \"#utility.yul\":2405:2411   */\n      dup3\n        /* \"#utility.yul\":2400:2403   */\n      dup2\n        /* \"#utility.yul\":2395:2398   */\n      dup4\n        /* \"#utility.yul\":2382:2412   */\n      calldatacopy\n        /* \"#utility.yul\":2467:2468   */\n      0x00\n        /* \"#utility.yul\":2458:2464   */\n      dup4\n        /* \"#utility.yul\":2453:2456   */\n      dup4\n        /* \"#utility.yul\":2449:2465   */\n      add\n        /* \"#utility.yul\":2442:2469   */\n      mstore\n        /* \"#utility.yul\":2321:2475   */\n      pop\n      pop\n      pop\n      jump\t// out\n        /* \"#utility.yul\":2481:2891   */\n    tag_112:\n        /* \"#utility.yul\":2558:2563   */\n      0x00\n        /* \"#utility.yul\":2583:2648   */\n      tag_186\n        /* \"#utility.yul\":2599:2647   */\n      tag_187\n        /* \"#utility.yul\":2640:2646   */\n      dup5\n        /* \"#utility.yul\":2599:2647   */\n      tag_110\n      jump\t// in\n    tag_187:\n        /* \"#utility.yul\":2583:2648   */\n      tag_109\n      jump\t// in\n    tag_186:\n        /* \"#utility.yul\":2574:2648   */\n      swap1\n      pop\n        /* \"#utility.yul\":2671:2677   */\n      dup3\n        /* \"#utility.yul\":2664:2669   */\n      dup2\n        /* \"#utility.yul\":2657:2678   */\n      mstore\n        /* \"#utility.yul\":2709:2713   */\n      0x20\n        /* \"#utility.yul\":2702:2707   */\n      dup2\n        /* \"#utility.yul\":2698:2714   */\n      add\n        /* \"#utility.yul\":2747:2750   */\n      dup5\n        /* \"#utility.yul\":2738:2744   */\n      dup5\n        /* \"#utility.yul\":2733:2736   */\n      dup5\n        /* \"#utility.yul\":2729:2745   */\n      add\n        /* \"#utility.yul\":2726:2751   */\n      gt\n        /* \"#utility.yul\":2723:2835   */\n      iszero\n      tag_188\n      jumpi\n        /* \"#utility.yul\":2754:2833   */\n      tag_189\n      tag_105\n      jump\t// in\n    tag_189:\n        /* \"#utility.yul\":2723:2835   */\n    tag_188:\n        /* \"#utility.yul\":2844:2885   */\n      tag_190\n        /* \"#utility.yul\":2878:2884   */\n      dup5\n        /* \"#utility.yul\":2873:2876   */\n      dup3\n        /* \"#utility.yul\":2868:2871   */\n      dup6\n        /* \"#utility.yul\":2844:2885   */\n      tag_111\n      jump\t// in\n    tag_190:\n        /* \"#utility.yul\":2564:2891   */\n      pop\n        /* \"#utility.yul\":2481:2891   */\n      swap4\n      swap3\n      pop\n      pop\n      pop\n      jump\t// out\n        /* \"#utility.yul\":2910:3248   */\n    tag_113:\n        /* \"#utility.yul\":2965:2970   */\n      0x00\n        /* \"#utility.yul\":3014:3017   */\n      dup3\n        /* \"#utility.yul\":3007:3011   */\n      0x1f\n        /* \"#utility.yul\":2999:3005   */\n      dup4\n        /* \"#utility.yul\":2995:3012   */\n      add\n        /* \"#utility.yul\":2991:3018   */\n      slt\n        /* \"#utility.yul\":2981:3103   */\n      tag_192\n      jumpi\n        /* \"#utility.yul\":3022:3101   */\n      tag_193\n      tag_104\n      jump\t// in\n    tag_193:\n        /* \"#utility.yul\":2981:3103   */\n    tag_192:\n        /* \"#utility.yul\":3139:3145   */\n      dup2\n        /* \"#utility.yul\":3126:3146   */\n      calldataload\n        /* \"#utility.yul\":3164:3242   */\n      tag_194\n        /* \"#utility.yul\":3238:3241   */\n      dup5\n        /* \"#utility.yul\":3230:3236   */\n      dup3\n        /* \"#utility.yul\":3223:3227   */\n      0x20\n        /* \"#utility.yul\":3215:3221   */\n      dup7\n        /* \"#utility.yul\":3211:3228   */\n      add\n        /* \"#utility.yul\":3164:3242   */\n      tag_112\n      jump\t// in\n    tag_194:\n        /* \"#utility.yul\":3155:3242   */\n      swap2\n      pop\n        /* \"#utility.yul\":2971:3248   */\n      pop\n        /* \"#utility.yul\":2910:3248   */\n      swap3\n      swap2\n      pop\n      pop\n      jump\t// out\n        /* \"#utility.yul\":3254:3380   */\n    tag_114:\n        /* \"#utility.yul\":3291:3298   */\n      0x00\n        /* \"#utility.yul\":3331:3373   */\n      0xffffffffffffffffffffffffffffffffffffffff\n        /* \"#utility.yul\":3324:3329   */\n      dup3\n        /* \"#utility.yul\":3320:3374   */\n      and\n        /* \"#utility.yul\":3309:3374   */\n      swap1\n      pop\n        /* \"#utility.yul\":3254:3380   */\n      swap2\n      swap1\n      pop\n      jump\t// out\n        /* \"#utility.yul\":3386:3482   */\n    tag_115:\n        /* \"#utility.yul\":3423:3430   */\n      0x00\n        /* \"#utility.yul\":3452:3476   */\n      tag_197\n        /* \"#utility.yul\":3470:3475   */\n      dup3\n        /* \"#utility.yul\":3452:3476   */\n      tag_114\n      jump\t// in\n    tag_197:\n        /* \"#utility.yul\":3441:3476   */\n      swap1\n      pop\n        /* \"#utility.yul\":3386:3482   */\n      swap2\n      swap1\n      pop\n      jump\t// out\n        /* \"#utility.yul\":3488:3610   */\n    tag_116:\n        /* \"#utility.yul\":3561:3585   */\n      tag_199\n        /* \"#utility.yul\":3579:3584   */\n      dup2\n        /* \"#utility.yul\":3561:3585   */\n      tag_115\n      jump\t// in\n    tag_199:\n        /* \"#utility.yul\":3554:3559   */\n      dup2\n        /* \"#utility.yul\":3551:3586   */\n      eq\n        /* \"#utility.yul\":3541:3604   */\n      tag_200\n      jumpi\n        /* \"#utility.yul\":3600:3601   */\n      0x00\n        /* \"#utility.yul\":3597:3598   */\n      dup1\n        /* \"#utility.yul\":3590:3602   */\n      revert\n        /* \"#utility.yul\":3541:3604   */\n    tag_200:\n        /* \"#utility.yul\":3488:3610   */\n      pop\n      jump\t// out\n        /* \"#utility.yul\":3616:3755   */\n    tag_117:\n        /* \"#utility.yul\":3662:3667   */\n      0x00\n        /* \"#utility.yul\":3700:3706   */\n      dup2\n        /* \"#utility.yul\":3687:3707   */\n      calldataload\n        /* \"#utility.yul\":3678:3707   */\n      swap1\n      pop\n        /* \"#utility.yul\":3716:3749   */\n      tag_202\n        /* \"#utility.yul\":3743:3748   */\n      dup2\n        /* \"#utility.yul\":3716:3749   */\n      tag_116\n      jump\t// in\n    tag_202:\n        /* \"#utility.yul\":3616:3755   */\n      swap3\n      swap2\n      pop\n      pop\n      jump\t// out\n        /* \"#utility.yul\":3761:5142   */\n    tag_10:\n        /* \"#utility.yul\":3883:3889   */\n      0x00\n        /* \"#utility.yul\":3891:3897   */\n      dup1\n        /* \"#utility.yul\":3899:3905   */\n      0x00\n        /* \"#utility.yul\":3907:3913   */\n      dup1\n        /* \"#utility.yul\":3915:3921   */\n      0x00\n        /* \"#utility.yul\":3923:3929   */\n      dup1\n        /* \"#utility.yul\":3931:3937   */\n      0x00\n        /* \"#utility.yul\":3980:3983   */\n      0xe0\n        /* \"#utility.yul\":3968:3977   */\n      dup9\n        /* \"#utility.yul\":3959:3966   */\n      dup11\n        /* \"#utility.yul\":3955:3978   */\n      sub\n        /* \"#utility.yul\":3951:3984   */\n      slt\n        /* \"#utility.yul\":3948:4068   */\n      iszero\n      tag_204\n      jumpi\n        /* \"#utility.yul\":3987:4066   */\n      tag_205\n      tag_96\n      jump\t// in\n    tag_205:\n        /* \"#utility.yul\":3948:4068   */\n    tag_204:\n        /* \"#utility.yul\":4107:4108   */\n      0x00\n        /* \"#utility.yul\":4132:4185   */\n      tag_206\n        /* \"#utility.yul\":4177:4184   */\n      dup11\n        /* \"#utility.yul\":4168:4174   */\n      dup3\n        /* \"#utility.yul\":4157:4166   */\n      dup12\n        /* \"#utility.yul\":4153:4175   */\n      add\n        /* \"#utility.yul\":4132:4185   */\n      tag_100\n      jump\t// in\n    tag_206:\n        /* \"#utility.yul\":4122:4185   */\n      swap8\n      pop\n        /* \"#utility.yul\":4078:4195   */\n      pop\n        /* \"#utility.yul\":4234:4236   */\n      0x20\n        /* \"#utility.yul\":4260:4313   */\n      tag_207\n        /* \"#utility.yul\":4305:4312   */\n      dup11\n        /* \"#utility.yul\":4296:4302   */\n      dup3\n        /* \"#utility.yul\":4285:4294   */\n      dup12\n        /* \"#utility.yul\":4281:4303   */\n      add\n        /* \"#utility.yul\":4260:4313   */\n      tag_103\n      jump\t// in\n    tag_207:\n        /* \"#utility.yul\":4250:4313   */\n      swap7\n      pop\n        /* \"#utility.yul\":4205:4323   */\n      pop\n        /* \"#utility.yul\":4390:4392   */\n      0x40\n        /* \"#utility.yul\":4379:4388   */\n      dup9\n        /* \"#utility.yul\":4375:4393   */\n      add\n        /* \"#utility.yul\":4362:4394   */\n      calldataload\n        /* \"#utility.yul\":4421:4439   */\n      0xffffffffffffffff\n        /* \"#utility.yul\":4413:4419   */\n      dup2\n        /* \"#utility.yul\":4410:4440   */\n      gt\n        /* \"#utility.yul\":4407:4524   */\n      iszero\n      tag_208\n      jumpi\n        /* \"#utility.yul\":4443:4522   */\n      tag_209\n      tag_97\n      jump\t// in\n    tag_209:\n        /* \"#utility.yul\":4407:4524   */\n    tag_208:\n        /* \"#utility.yul\":4548:4610   */\n      tag_210\n        /* \"#utility.yul\":4602:4609   */\n      dup11\n        /* \"#utility.yul\":4593:4599   */\n      dup3\n        /* \"#utility.yul\":4582:4591   */\n      dup12\n        /* \"#utility.yul\":4578:4600   */\n      add\n        /* \"#utility.yul\":4548:4610   */\n      tag_113\n      jump\t// in\n    tag_210:\n        /* \"#utility.yul\":4538:4610   */\n      swap6\n      pop\n        /* \"#utility.yul\":4333:4620   */\n      pop\n        /* \"#utility.yul\":4659:4661   */\n      0x60\n        /* \"#utility.yul\":4685:4738   */\n      tag_211\n        /* \"#utility.yul\":4730:4737   */\n      dup11\n        /* \"#utility.yul\":4721:4727   */\n      dup3\n        /* \"#utility.yul\":4710:4719   */\n      dup12\n        /* \"#utility.yul\":4706:4728   */\n      add\n        /* \"#utility.yul\":4685:4738   */\n      tag_117\n      jump\t// in\n    tag_211:\n        /* \"#utility.yul\":4675:4738   */\n      swap5\n      pop\n        /* \"#utility.yul\":4630:4748   */\n      pop\n        /* \"#utility.yul\":4787:4790   */\n      0x80\n        /* \"#utility.yul\":4814:4867   */\n      tag_212\n        /* \"#utility.yul\":4859:4866   */\n      dup11\n        /* \"#utility.yul\":4850:4856   */\n      dup3\n        /* \"#utility.yul\":4839:4848   */\n      dup12\n        /* \"#utility.yul\":4835:4857   */\n      add\n        /* \"#utility.yul\":4814:4867   */\n      tag_100\n      jump\t// in\n    tag_212:\n        /* \"#utility.yul\":4804:4867   */\n      swap4\n      pop\n        /* \"#utility.yul\":4758:4877   */\n      pop\n        /* \"#utility.yul\":4916:4919   */\n      0xa0\n        /* \"#utility.yul\":4943:4996   */\n      tag_213\n        /* \"#utility.yul\":4988:4995   */\n      dup11\n        /* \"#utility.yul\":4979:4985   */\n      dup3\n        /* \"#utility.yul\":4968:4977   */\n      dup12\n        /* \"#utility.yul\":4964:4986   */\n      add\n        /* \"#utility.yul\":4943:4996   */\n      tag_100\n      jump\t// in\n    tag_213:\n        /* \"#utility.yul\":4933:4996   */\n      swap3\n      pop\n        /* \"#utility.yul\":4887:5006   */\n      pop\n        /* \"#utility.yul\":5045:5048   */\n      0xc0\n        /* \"#utility.yul\":5072:5125   */\n      tag_214\n        /* \"#utility.yul\":5117:5124   */\n      dup11\n        /* \"#utility.yul\":5108:5114   */\n      dup3\n        /* \"#utility.yul\":5097:5106   */\n      dup12\n        /* \"#utility.yul\":5093:5115   */\n      add\n        /* \"#utility.yul\":5072:5125   */\n      tag_117\n      jump\t// in\n    tag_214:\n        /* \"#utility.yul\":5062:5125   */\n      swap2\n      pop\n        /* \"#utility.yul\":5016:5135   */\n      pop\n        /* \"#utility.yul\":3761:5142   */\n      swap3\n      swap6\n      swap9\n      swap2\n      swap5\n      swap8\n      pop\n      swap3\n      swap6\n      pop\n      jump\t// out\n        /* \"#utility.yul\":5148:5477   */\n    tag_14:\n        /* \"#utility.yul\":5207:5213   */\n      0x00\n        /* \"#utility.yul\":5256:5258   */\n      0x20\n        /* \"#utility.yul\":5244:5253   */\n      dup3\n        /* \"#utility.yul\":5235:5242   */\n      dup5\n        /* \"#utility.yul\":5231:5254   */\n      sub\n        /* \"#utility.yul\":5227:5259   */\n      slt\n        /* \"#utility.yul\":5224:5343   */\n      iszero\n      tag_216\n      jumpi\n        /* \"#utility.yul\":5262:5341   */\n      tag_217\n      tag_96\n      jump\t// in\n    tag_217:\n        /* \"#utility.yul\":5224:5343   */\n    tag_216:\n        /* \"#utility.yul\":5382:5383   */\n      0x00\n        /* \"#utility.yul\":5407:5460   */\n      tag_218\n        /* \"#utility.yul\":5452:5459   */\n      dup5\n        /* \"#utility.yul\":5443:5449   */\n      dup3\n        /* \"#utility.yul\":5432:5441   */\n      dup6\n        /* \"#utility.yul\":5428:5450   */\n      add\n        /* \"#utility.yul\":5407:5460   */\n      tag_100\n      jump\t// in\n    tag_218:\n        /* \"#utility.yul\":5397:5460   */\n      swap2\n      pop\n        /* \"#utility.yul\":5353:5470   */\n      pop\n        /* \"#utility.yul\":5148:5477   */\n      swap3\n      swap2\n      pop\n      pop\n      jump\t// out\n        /* \"#utility.yul\":5483:5591   */\n    tag_118:\n        /* \"#utility.yul\":5560:5584   */\n      tag_220\n        /* \"#utility.yul\":5578:5583   */\n      dup2\n        /* \"#utility.yul\":5560:5584   */\n      tag_101\n      jump\t// in\n    tag_220:\n        /* \"#utility.yul\":5555:5558   */\n      dup3\n        /* \"#utility.yul\":5548:5585   */\n      mstore\n        /* \"#utility.yul\":5483:5591   */\n      pop\n      pop\n      jump\t// out\n        /* \"#utility.yul\":5597:5695   */\n    tag_119:\n        /* \"#utility.yul\":5648:5654   */\n      0x00\n        /* \"#utility.yul\":5682:5687   */\n      dup2\n        /* \"#utility.yul\":5676:5688   */\n      mload\n        /* \"#utility.yul\":5666:5688   */\n      swap1\n      pop\n        /* \"#utility.yul\":5597:5695   */\n      swap2\n      swap1\n      pop\n      jump\t// out\n        /* \"#utility.yul\":5701:5859   */\n    tag_120:\n        /* \"#utility.yul\":5774:5785   */\n      0x00\n        /* \"#utility.yul\":5808:5814   */\n      dup3\n        /* \"#utility.yul\":5803:5806   */\n      dup3\n        /* \"#utility.yul\":5796:5815   */\n      mstore\n        /* \"#utility.yul\":5848:5852   */\n      0x20\n        /* \"#utility.yul\":5843:5846   */\n      dup3\n        /* \"#utility.yul\":5839:5853   */\n      add\n        /* \"#utility.yul\":5824:5853   */\n      swap1\n      pop\n        /* \"#utility.yul\":5701:5859   */\n      swap3\n      swap2\n      pop\n      pop\n      jump\t// out\n        /* \"#utility.yul\":5865:6172   */\n    tag_121:\n        /* \"#utility.yul\":5933:5934   */\n      0x00\n        /* \"#utility.yul\":5943:6056   */\n    tag_224:\n        /* \"#utility.yul\":5957:5963   */\n      dup4\n        /* \"#utility.yul\":5954:5955   */\n      dup2\n        /* \"#utility.yul\":5951:5964   */\n      lt\n        /* \"#utility.yul\":5943:6056   */\n      iszero\n      tag_226\n      jumpi\n        /* \"#utility.yul\":6042:6043   */\n      dup1\n        /* \"#utility.yul\":6037:6040   */\n      dup3\n        /* \"#utility.yul\":6033:6044   */\n      add\n        /* \"#utility.yul\":6027:6045   */\n      mload\n        /* \"#utility.yul\":6023:6024   */\n      dup2\n        /* \"#utility.yul\":6018:6021   */\n      dup5\n        /* \"#utility.yul\":6014:6025   */\n      add\n        /* \"#utility.yul\":6007:6046   */\n      mstore\n        /* \"#utility.yul\":5979:5981   */\n      0x20\n        /* \"#utility.yul\":5976:5977   */\n      dup2\n        /* \"#utility.yul\":5972:5982   */\n      add\n        /* \"#utility.yul\":5967:5982   */\n      swap1\n      pop\n        /* \"#utility.yul\":5943:6056   */\n      jump(tag_224)\n    tag_226:\n        /* \"#utility.yul\":6074:6080   */\n      dup4\n        /* \"#utility.yul\":6071:6072   */\n      dup2\n        /* \"#utility.yul\":6068:6081   */\n      gt\n        /* \"#utility.yul\":6065:6166   */\n      iszero\n      tag_227\n      jumpi\n        /* \"#utility.yul\":6154:6155   */\n      0x00\n        /* \"#utility.yul\":6145:6151   */\n      dup5\n        /* \"#utility.yul\":6140:6143   */\n      dup5\n        /* \"#utility.yul\":6136:6152   */\n      add\n        /* \"#utility.yul\":6129:6156   */\n      mstore\n        /* \"#utility.yul\":6065:6166   */\n    tag_227:\n        /* \"#utility.yul\":5914:6172   */\n      pop\n        /* \"#utility.yul\":5865:6172   */\n      pop\n      pop\n      pop\n      jump\t// out\n        /* \"#utility.yul\":6178:6518   */\n    tag_122:\n        /* \"#utility.yul\":6254:6257   */\n      0x00\n        /* \"#utility.yul\":6282:6320   */\n      tag_229\n        /* \"#utility.yul\":6314:6319   */\n      dup3\n        /* \"#utility.yul\":6282:6320   */\n      tag_119\n      jump\t// in\n    tag_229:\n        /* \"#utility.yul\":6336:6396   */\n      tag_230\n        /* \"#utility.yul\":6389:6395   */\n      dup2\n        /* \"#utility.yul\":6384:6387   */\n      dup6\n        /* \"#utility.yul\":6336:6396   */\n      tag_120\n      jump\t// in\n    tag_230:\n        /* \"#utility.yul\":6329:6396   */\n      swap4\n      pop\n        /* \"#utility.yul\":6405:6457   */\n      tag_231\n        /* \"#utility.yul\":6450:6456   */\n      dup2\n        /* \"#utility.yul\":6445:6448   */\n      dup6\n        /* \"#utility.yul\":6438:6442   */\n      0x20\n        /* \"#utility.yul\":6431:6436   */\n      dup7\n        /* \"#utility.yul\":6427:6443   */\n      add\n        /* \"#utility.yul\":6405:6457   */\n      tag_121\n      jump\t// in\n    tag_231:\n        /* \"#utility.yul\":6482:6511   */\n      tag_232\n        /* \"#utility.yul\":6504:6510   */\n      dup2\n        /* \"#utility.yul\":6482:6511   */\n      tag_106\n      jump\t// in\n    tag_232:\n        /* \"#utility.yul\":6477:6480   */\n      dup5\n        /* \"#utility.yul\":6473:6512   */\n      add\n        /* \"#utility.yul\":6466:6512   */\n      swap2\n      pop\n        /* \"#utility.yul\":6258:6518   */\n      pop\n        /* \"#utility.yul\":6178:6518   */\n      swap3\n      swap2\n      pop\n      pop\n      jump\t// out\n        /* \"#utility.yul\":6524:6632   */\n    tag_123:\n        /* \"#utility.yul\":6601:6625   */\n      tag_234\n        /* \"#utility.yul\":6619:6624   */\n      dup2\n        /* \"#utility.yul\":6601:6625   */\n      tag_115\n      jump\t// in\n    tag_234:\n        /* \"#utility.yul\":6596:6599   */\n      dup3\n        /* \"#utility.yul\":6589:6626   */\n      mstore\n        /* \"#utility.yul\":6524:6632   */\n      pop\n      pop\n      jump\t// out\n        /* \"#utility.yul\":6638:6746   */\n    tag_124:\n        /* \"#utility.yul\":6715:6739   */\n      tag_236\n        /* \"#utility.yul\":6733:6738   */\n      dup2\n        /* \"#utility.yul\":6715:6739   */\n      tag_98\n      jump\t// in\n    tag_236:\n        /* \"#utility.yul\":6710:6713   */\n      dup3\n        /* \"#utility.yul\":6703:6740   */\n      mstore\n        /* \"#utility.yul\":6638:6746   */\n      pop\n      pop\n      jump\t// out\n        /* \"#utility.yul\":6818:8520   */\n    tag_125:\n        /* \"#utility.yul\":6935:6938   */\n      0x00\n        /* \"#utility.yul\":6971:6977   */\n      0x0100\n        /* \"#utility.yul\":6966:6969   */\n      dup4\n        /* \"#utility.yul\":6962:6978   */\n      add\n        /* \"#utility.yul\":7066:7070   */\n      0x00\n        /* \"#utility.yul\":7059:7064   */\n      dup4\n        /* \"#utility.yul\":7055:7071   */\n      add\n        /* \"#utility.yul\":7049:7072   */\n      mload\n        /* \"#utility.yul\":7085:7148   */\n      tag_238\n        /* \"#utility.yul\":7142:7146   */\n      0x00\n        /* \"#utility.yul\":7137:7140   */\n      dup7\n        /* \"#utility.yul\":7133:7147   */\n      add\n        /* \"#utility.yul\":7119:7131   */\n      dup3\n        /* \"#utility.yul\":7085:7148   */\n      tag_118\n      jump\t// in\n    tag_238:\n        /* \"#utility.yul\":6988:7158   */\n      pop\n        /* \"#utility.yul\":7249:7253   */\n      0x20\n        /* \"#utility.yul\":7242:7247   */\n      dup4\n        /* \"#utility.yul\":7238:7254   */\n      add\n        /* \"#utility.yul\":7232:7255   */\n      mload\n        /* \"#utility.yul\":7302:7305   */\n      dup5\n        /* \"#utility.yul\":7296:7300   */\n      dup3\n        /* \"#utility.yul\":7292:7306   */\n      sub\n        /* \"#utility.yul\":7285:7289   */\n      0x20\n        /* \"#utility.yul\":7280:7283   */\n      dup7\n        /* \"#utility.yul\":7276:7290   */\n      add\n        /* \"#utility.yul\":7269:7307   */\n      mstore\n        /* \"#utility.yul\":7328:7399   */\n      tag_239\n        /* \"#utility.yul\":7394:7398   */\n      dup3\n        /* \"#utility.yul\":7380:7392   */\n      dup3\n        /* \"#utility.yul\":7328:7399   */\n      tag_122\n      jump\t// in\n    tag_239:\n        /* \"#utility.yul\":7320:7399   */\n      swap2\n      pop\n        /* \"#utility.yul\":7168:7410   */\n      pop\n        /* \"#utility.yul\":7507:7511   */\n      0x40\n        /* \"#utility.yul\":7500:7505   */\n      dup4\n        /* \"#utility.yul\":7496:7512   */\n      add\n        /* \"#utility.yul\":7490:7513   */\n      mload\n        /* \"#utility.yul\":7526:7589   */\n      tag_240\n        /* \"#utility.yul\":7583:7587   */\n      0x40\n        /* \"#utility.yul\":7578:7581   */\n      dup7\n        /* \"#utility.yul\":7574:7588   */\n      add\n        /* \"#utility.yul\":7560:7572   */\n      dup3\n        /* \"#utility.yul\":7526:7589   */\n      tag_123\n      jump\t// in\n    tag_240:\n        /* \"#utility.yul\":7420:7599   */\n      pop\n        /* \"#utility.yul\":7683:7687   */\n      0x60\n        /* \"#utility.yul\":7676:7681   */\n      dup4\n        /* \"#utility.yul\":7672:7688   */\n      add\n        /* \"#utility.yul\":7666:7689   */\n      mload\n        /* \"#utility.yul\":7702:7765   */\n      tag_241\n        /* \"#utility.yul\":7759:7763   */\n      0x60\n        /* \"#utility.yul\":7754:7757   */\n      dup7\n        /* \"#utility.yul\":7750:7764   */\n      add\n        /* \"#utility.yul\":7736:7748   */\n      dup3\n        /* \"#utility.yul\":7702:7765   */\n      tag_124\n      jump\t// in\n    tag_241:\n        /* \"#utility.yul\":7609:7775   */\n      pop\n        /* \"#utility.yul\":7865:7869   */\n      0x80\n        /* \"#utility.yul\":7858:7863   */\n      dup4\n        /* \"#utility.yul\":7854:7870   */\n      add\n        /* \"#utility.yul\":7848:7871   */\n      mload\n        /* \"#utility.yul\":7884:7947   */\n      tag_242\n        /* \"#utility.yul\":7941:7945   */\n      0x80\n        /* \"#utility.yul\":7936:7939   */\n      dup7\n        /* \"#utility.yul\":7932:7946   */\n      add\n        /* \"#utility.yul\":7918:7930   */\n      dup3\n        /* \"#utility.yul\":7884:7947   */\n      tag_124\n      jump\t// in\n    tag_242:\n        /* \"#utility.yul\":7785:7957   */\n      pop\n        /* \"#utility.yul\":8046:8050   */\n      0xa0\n        /* \"#utility.yul\":8039:8044   */\n      dup4\n        /* \"#utility.yul\":8035:8051   */\n      add\n        /* \"#utility.yul\":8029:8052   */\n      mload\n        /* \"#utility.yul\":8065:8128   */\n      tag_243\n        /* \"#utility.yul\":8122:8126   */\n      0xa0\n        /* \"#utility.yul\":8117:8120   */\n      dup7\n        /* \"#utility.yul\":8113:8127   */\n      add\n        /* \"#utility.yul\":8099:8111   */\n      dup3\n        /* \"#utility.yul\":8065:8128   */\n      tag_124\n      jump\t// in\n    tag_243:\n        /* \"#utility.yul\":7967:8138   */\n      pop\n        /* \"#utility.yul\":8225:8229   */\n      0xc0\n        /* \"#utility.yul\":8218:8223   */\n      dup4\n        /* \"#utility.yul\":8214:8230   */\n      add\n        /* \"#utility.yul\":8208:8231   */\n      mload\n        /* \"#utility.yul\":8244:8307   */\n      tag_244\n        /* \"#utility.yul\":8301:8305   */\n      0xc0\n        /* \"#utility.yul\":8296:8299   */\n      dup7\n        /* \"#utility.yul\":8292:8306   */\n      add\n        /* \"#utility.yul\":8278:8290   */\n      dup3\n        /* \"#utility.yul\":8244:8307   */\n      tag_123\n      jump\t// in\n    tag_244:\n        /* \"#utility.yul\":8148:8317   */\n      pop\n        /* \"#utility.yul\":8401:8405   */\n      0xe0\n        /* \"#utility.yul\":8394:8399   */\n      dup4\n        /* \"#utility.yul\":8390:8406   */\n      add\n        /* \"#utility.yul\":8384:8407   */\n      mload\n        /* \"#utility.yul\":8420:8483   */\n      tag_245\n        /* \"#utility.yul\":8477:8481   */\n      0xe0\n        /* \"#utility.yul\":8472:8475   */\n      dup7\n        /* \"#utility.yul\":8468:8482   */\n      add\n        /* \"#utility.yul\":8454:8466   */\n      dup3\n        /* \"#utility.yul\":8420:8483   */\n      tag_123\n      jump\t// in\n    tag_245:\n        /* \"#utility.yul\":8327:8493   */\n      pop\n        /* \"#utility.yul\":8510:8514   */\n      dup1\n        /* \"#utility.yul\":8503:8514   */\n      swap2\n      pop\n        /* \"#utility.yul\":6940:8520   */\n      pop\n        /* \"#utility.yul\":6818:8520   */\n      swap3\n      swap2\n      pop\n      pop\n      jump\t// out\n        /* \"#utility.yul\":8526:8895   */\n    tag_17:\n        /* \"#utility.yul\":8667:8671   */\n      0x00\n        /* \"#utility.yul\":8705:8707   */\n      0x20\n        /* \"#utility.yul\":8694:8703   */\n      dup3\n        /* \"#utility.yul\":8690:8708   */\n      add\n        /* \"#utility.yul\":8682:8708   */\n      swap1\n      pop\n        /* \"#utility.yul\":8754:8763   */\n      dup2\n        /* \"#utility.yul\":8748:8752   */\n      dup2\n        /* \"#utility.yul\":8744:8764   */\n      sub\n        /* \"#utility.yul\":8740:8741   */\n      0x00\n        /* \"#utility.yul\":8729:8738   */\n      dup4\n        /* \"#utility.yul\":8725:8742   */\n      add\n        /* \"#utility.yul\":8718:8765   */\n      mstore\n        /* \"#utility.yul\":8782:8888   */\n      tag_247\n        /* \"#utility.yul\":8883:8887   */\n      dup2\n        /* \"#utility.yul\":8874:8880   */\n      dup5\n        /* \"#utility.yul\":8782:8888   */\n      tag_125\n      jump\t// in\n    tag_247:\n        /* \"#utility.yul\":8774:8888   */\n      swap1\n      pop\n        /* \"#utility.yul\":8526:8895   */\n      swap3\n      swap2\n      pop\n      pop\n      jump\t// out\n        /* \"#utility.yul\":8901:8977   */\n    tag_126:\n        /* \"#utility.yul\":8937:8944   */\n      0x00\n        /* \"#utility.yul\":8966:8971   */\n      dup2\n        /* \"#utility.yul\":8955:8971   */\n      swap1\n      pop\n        /* \"#utility.yul\":8901:8977   */\n      swap2\n      swap1\n      pop\n      jump\t// out\n        /* \"#utility.yul\":8983:9098   */\n    tag_127:\n        /* \"#utility.yul\":9068:9091   */\n      tag_250\n        /* \"#utility.yul\":9085:9090   */\n      dup2\n        /* \"#utility.yul\":9068:9091   */\n      tag_126\n      jump\t// in\n    tag_250:\n        /* \"#utility.yul\":9063:9066   */\n      dup3\n        /* \"#utility.yul\":9056:9092   */\n      mstore\n        /* \"#utility.yul\":8983:9098   */\n      pop\n      pop\n      jump\t// out\n        /* \"#utility.yul\":9104:9322   */\n    tag_25:\n        /* \"#utility.yul\":9195:9199   */\n      0x00\n        /* \"#utility.yul\":9233:9235   */\n      0x20\n        /* \"#utility.yul\":9222:9231   */\n      dup3\n        /* \"#utility.yul\":9218:9236   */\n      add\n        /* \"#utility.yul\":9210:9236   */\n      swap1\n      pop\n        /* \"#utility.yul\":9246:9315   */\n      tag_252\n        /* \"#utility.yul\":9312:9313   */\n      0x00\n        /* \"#utility.yul\":9301:9310   */\n      dup4\n        /* \"#utility.yul\":9297:9314   */\n      add\n        /* \"#utility.yul\":9288:9294   */\n      dup5\n        /* \"#utility.yul\":9246:9315   */\n      tag_127\n      jump\t// in\n    tag_252:\n        /* \"#utility.yul\":9104:9322   */\n      swap3\n      swap2\n      pop\n      pop\n      jump\t// out\n        /* \"#utility.yul\":9328:9446   */\n    tag_128:\n        /* \"#utility.yul\":9415:9439   */\n      tag_254\n        /* \"#utility.yul\":9433:9438   */\n      dup2\n        /* \"#utility.yul\":9415:9439   */\n      tag_101\n      jump\t// in\n    tag_254:\n        /* \"#utility.yul\":9410:9413   */\n      dup3\n        /* \"#utility.yul\":9403:9440   */\n      mstore\n        /* \"#utility.yul\":9328:9446   */\n      pop\n      pop\n      jump\t// out\n        /* \"#utility.yul\":9452:9620   */\n    tag_129:\n        /* \"#utility.yul\":9535:9546   */\n      0x00\n        /* \"#utility.yul\":9569:9575   */\n      dup3\n        /* \"#utility.yul\":9564:9567   */\n      dup3\n        /* \"#utility.yul\":9557:9576   */\n      mstore\n        /* \"#utility.yul\":9609:9613   */\n      0x20\n        /* \"#utility.yul\":9604:9607   */\n      dup3\n        /* \"#utility.yul\":9600:9614   */\n      add\n        /* \"#utility.yul\":9585:9614   */\n      swap1\n      pop\n        /* \"#utility.yul\":9452:9620   */\n      swap3\n      swap2\n      pop\n      pop\n      jump\t// out\n        /* \"#utility.yul\":9626:9986   */\n    tag_130:\n        /* \"#utility.yul\":9712:9715   */\n      0x00\n        /* \"#utility.yul\":9740:9778   */\n      tag_257\n        /* \"#utility.yul\":9772:9777   */\n      dup3\n        /* \"#utility.yul\":9740:9778   */\n      tag_119\n      jump\t// in\n    tag_257:\n        /* \"#utility.yul\":9794:9864   */\n      tag_258\n        /* \"#utility.yul\":9857:9863   */\n      dup2\n        /* \"#utility.yul\":9852:9855   */\n      dup6\n        /* \"#utility.yul\":9794:9864   */\n      tag_129\n      jump\t// in\n    tag_258:\n        /* \"#utility.yul\":9787:9864   */\n      swap4\n      pop\n        /* \"#utility.yul\":9873:9925   */\n      tag_259\n        /* \"#utility.yul\":9918:9924   */\n      dup2\n        /* \"#utility.yul\":9913:9916   */\n      dup6\n        /* \"#utility.yul\":9906:9910   */\n      0x20\n        /* \"#utility.yul\":9899:9904   */\n      dup7\n        /* \"#utility.yul\":9895:9911   */\n      add\n        /* \"#utility.yul\":9873:9925   */\n      tag_121\n      jump\t// in\n    tag_259:\n        /* \"#utility.yul\":9950:9979   */\n      tag_260\n        /* \"#utility.yul\":9972:9978   */\n      dup2\n        /* \"#utility.yul\":9950:9979   */\n      tag_106\n      jump\t// in\n    tag_260:\n        /* \"#utility.yul\":9945:9948   */\n      dup5\n        /* \"#utility.yul\":9941:9980   */\n      add\n        /* \"#utility.yul\":9934:9980   */\n      swap2\n      pop\n        /* \"#utility.yul\":9716:9986   */\n      pop\n        /* \"#utility.yul\":9626:9986   */\n      swap3\n      swap2\n      pop\n      pop\n      jump\t// out\n        /* \"#utility.yul\":9992:10110   */\n    tag_131:\n        /* \"#utility.yul\":10079:10103   */\n      tag_262\n        /* \"#utility.yul\":10097:10102   */\n      dup2\n        /* \"#utility.yul\":10079:10103   */\n      tag_115\n      jump\t// in\n    tag_262:\n        /* \"#utility.yul\":10074:10077   */\n      dup3\n        /* \"#utility.yul\":10067:10104   */\n      mstore\n        /* \"#utility.yul\":9992:10110   */\n      pop\n      pop\n      jump\t// out\n        /* \"#utility.yul\":10116:10234   */\n    tag_132:\n        /* \"#utility.yul\":10203:10227   */\n      tag_264\n        /* \"#utility.yul\":10221:10226   */\n      dup2\n        /* \"#utility.yul\":10203:10227   */\n      tag_98\n      jump\t// in\n    tag_264:\n        /* \"#utility.yul\":10198:10201   */\n      dup3\n        /* \"#utility.yul\":10191:10228   */\n      mstore\n        /* \"#utility.yul\":10116:10234   */\n      pop\n      pop\n      jump\t// out\n        /* \"#utility.yul\":10240:11324   */\n    tag_30:\n        /* \"#utility.yul\":10547:10551   */\n      0x00\n        /* \"#utility.yul\":10585:10588   */\n      0x0100\n        /* \"#utility.yul\":10574:10583   */\n      dup3\n        /* \"#utility.yul\":10570:10589   */\n      add\n        /* \"#utility.yul\":10562:10589   */\n      swap1\n      pop\n        /* \"#utility.yul\":10599:10670   */\n      tag_266\n        /* \"#utility.yul\":10667:10668   */\n      0x00\n        /* \"#utility.yul\":10656:10665   */\n      dup4\n        /* \"#utility.yul\":10652:10669   */\n      add\n        /* \"#utility.yul\":10643:10649   */\n      dup12\n        /* \"#utility.yul\":10599:10670   */\n      tag_128\n      jump\t// in\n    tag_266:\n        /* \"#utility.yul\":10717:10726   */\n      dup2\n        /* \"#utility.yul\":10711:10715   */\n      dup2\n        /* \"#utility.yul\":10707:10727   */\n      sub\n        /* \"#utility.yul\":10702:10704   */\n      0x20\n        /* \"#utility.yul\":10691:10700   */\n      dup4\n        /* \"#utility.yul\":10687:10705   */\n      add\n        /* \"#utility.yul\":10680:10728   */\n      mstore\n        /* \"#utility.yul\":10745:10821   */\n      tag_267\n        /* \"#utility.yul\":10816:10820   */\n      dup2\n        /* \"#utility.yul\":10807:10813   */\n      dup11\n        /* \"#utility.yul\":10745:10821   */\n      tag_130\n      jump\t// in\n    tag_267:\n        /* \"#utility.yul\":10737:10821   */\n      swap1\n      pop\n        /* \"#utility.yul\":10831:10903   */\n      tag_268\n        /* \"#utility.yul\":10899:10901   */\n      0x40\n        /* \"#utility.yul\":10888:10897   */\n      dup4\n        /* \"#utility.yul\":10884:10902   */\n      add\n        /* \"#utility.yul\":10875:10881   */\n      dup10\n        /* \"#utility.yul\":10831:10903   */\n      tag_131\n      jump\t// in\n    tag_268:\n        /* \"#utility.yul\":10913:10985   */\n      tag_269\n        /* \"#utility.yul\":10981:10983   */\n      0x60\n        /* \"#utility.yul\":10970:10979   */\n      dup4\n        /* \"#utility.yul\":10966:10984   */\n      add\n        /* \"#utility.yul\":10957:10963   */\n      dup9\n        /* \"#utility.yul\":10913:10985   */\n      tag_132\n      jump\t// in\n    tag_269:\n        /* \"#utility.yul\":10995:11068   */\n      tag_270\n        /* \"#utility.yul\":11063:11066   */\n      0x80\n        /* \"#utility.yul\":11052:11061   */\n      dup4\n        /* \"#utility.yul\":11048:11067   */\n      add\n        /* \"#utility.yul\":11039:11045   */\n      dup8\n        /* \"#utility.yul\":10995:11068   */\n      tag_132\n      jump\t// in\n    tag_270:\n        /* \"#utility.yul\":11078:11151   */\n      tag_271\n        /* \"#utility.yul\":11146:11149   */\n      0xa0\n        /* \"#utility.yul\":11135:11144   */\n      dup4\n        /* \"#utility.yul\":11131:11150   */\n      add\n        /* \"#utility.yul\":11122:11128   */\n      dup7\n        /* \"#utility.yul\":11078:11151   */\n      tag_132\n      jump\t// in\n    tag_271:\n        /* \"#utility.yul\":11161:11234   */\n      tag_272\n        /* \"#utility.yul\":11229:11232   */\n      0xc0\n        /* \"#utility.yul\":11218:11227   */\n      dup4\n        /* \"#utility.yul\":11214:11233   */\n      add\n        /* \"#utility.yul\":11205:11211   */\n      dup6\n        /* \"#utility.yul\":11161:11234   */\n      tag_131\n      jump\t// in\n    tag_272:\n        /* \"#utility.yul\":11244:11317   */\n      tag_273\n        /* \"#utility.yul\":11312:11315   */\n      0xe0\n        /* \"#utility.yul\":11301:11310   */\n      dup4\n        /* \"#utility.yul\":11297:11316   */\n      add\n        /* \"#utility.yul\":11288:11294   */\n      dup5\n        /* \"#utility.yul\":11244:11317   */\n      tag_131\n      jump\t// in\n    tag_273:\n        /* \"#utility.yul\":10240:11324   */\n      swap10\n      swap9\n      pop\n      pop\n      pop\n      pop\n      pop\n      pop\n      pop\n      pop\n      pop\n      jump\t// out\n        /* \"#utility.yul\":11330:11390   */\n    tag_133:\n        /* \"#utility.yul\":11358:11361   */\n      0x00\n        /* \"#utility.yul\":11379:11384   */\n      dup2\n        /* \"#utility.yul\":11372:11384   */\n      swap1\n      pop\n        /* \"#utility.yul\":11330:11390   */\n      swap2\n      swap1\n      pop\n      jump\t// out\n        /* \"#utility.yul\":11396:11538   */\n    tag_134:\n        /* \"#utility.yul\":11446:11455   */\n      0x00\n        /* \"#utility.yul\":11479:11532   */\n      tag_276\n        /* \"#utility.yul\":11497:11531   */\n      tag_277\n        /* \"#utility.yul\":11506:11530   */\n      tag_278\n        /* \"#utility.yul\":11524:11529   */\n      dup5\n        /* \"#utility.yul\":11506:11530   */\n      tag_114\n      jump\t// in\n    tag_278:\n        /* \"#utility.yul\":11497:11531   */\n      tag_133\n      jump\t// in\n    tag_277:\n        /* \"#utility.yul\":11479:11532   */\n      tag_114\n      jump\t// in\n    tag_276:\n        /* \"#utility.yul\":11466:11532   */\n      swap1\n      pop\n        /* \"#utility.yul\":11396:11538   */\n      swap2\n      swap1\n      pop\n      jump\t// out\n        /* \"#utility.yul\":11544:11670   */\n    tag_135:\n        /* \"#utility.yul\":11594:11603   */\n      0x00\n        /* \"#utility.yul\":11627:11664   */\n      tag_280\n        /* \"#utility.yul\":11658:11663   */\n      dup3\n        /* \"#utility.yul\":11627:11664   */\n      tag_134\n      jump\t// in\n    tag_280:\n        /* \"#utility.yul\":11614:11664   */\n      swap1\n      pop\n        /* \"#utility.yul\":11544:11670   */\n      swap2\n      swap1\n      pop\n      jump\t// out\n        /* \"#utility.yul\":11676:11815   */\n    tag_136:\n        /* \"#utility.yul\":11739:11748   */\n      0x00\n        /* \"#utility.yul\":11772:11809   */\n      tag_282\n        /* \"#utility.yul\":11803:11808   */\n      dup3\n        /* \"#utility.yul\":11772:11809   */\n      tag_135\n      jump\t// in\n    tag_282:\n        /* \"#utility.yul\":11759:11809   */\n      swap1\n      pop\n        /* \"#utility.yul\":11676:11815   */\n      swap2\n      swap1\n      pop\n      jump\t// out\n        /* \"#utility.yul\":11821:11978   */\n    tag_137:\n        /* \"#utility.yul\":11921:11971   */\n      tag_284\n        /* \"#utility.yul\":11965:11970   */\n      dup2\n        /* \"#utility.yul\":11921:11971   */\n      tag_136\n      jump\t// in\n    tag_284:\n        /* \"#utility.yul\":11916:11919   */\n      dup3\n        /* \"#utility.yul\":11909:11972   */\n      mstore\n        /* \"#utility.yul\":11821:11978   */\n      pop\n      pop\n      jump\t// out\n        /* \"#utility.yul\":11984:12761   */\n    tag_33:\n        /* \"#utility.yul\":12220:12224   */\n      0x00\n        /* \"#utility.yul\":12258:12261   */\n      0xa0\n        /* \"#utility.yul\":12247:12256   */\n      dup3\n        /* \"#utility.yul\":12243:12262   */\n      add\n        /* \"#utility.yul\":12235:12262   */\n      swap1\n      pop\n        /* \"#utility.yul\":12272:12343   */\n      tag_286\n        /* \"#utility.yul\":12340:12341   */\n      0x00\n        /* \"#utility.yul\":12329:12338   */\n      dup4\n        /* \"#utility.yul\":12325:12342   */\n      add\n        /* \"#utility.yul\":12316:12322   */\n      dup9\n        /* \"#utility.yul\":12272:12343   */\n      tag_128\n      jump\t// in\n    tag_286:\n        /* \"#utility.yul\":12353:12425   */\n      tag_287\n        /* \"#utility.yul\":12421:12423   */\n      0x20\n        /* \"#utility.yul\":12410:12419   */\n      dup4\n        /* \"#utility.yul\":12406:12424   */\n      add\n        /* \"#utility.yul\":12397:12403   */\n      dup8\n        /* \"#utility.yul\":12353:12425   */\n      tag_132\n      jump\t// in\n    tag_287:\n        /* \"#utility.yul\":12472:12481   */\n      dup2\n        /* \"#utility.yul\":12466:12470   */\n      dup2\n        /* \"#utility.yul\":12462:12482   */\n      sub\n        /* \"#utility.yul\":12457:12459   */\n      0x40\n        /* \"#utility.yul\":12446:12455   */\n      dup4\n        /* \"#utility.yul\":12442:12460   */\n      add\n        /* \"#utility.yul\":12435:12483   */\n      mstore\n        /* \"#utility.yul\":12500:12576   */\n      tag_288\n        /* \"#utility.yul\":12571:12575   */\n      dup2\n        /* \"#utility.yul\":12562:12568   */\n      dup7\n        /* \"#utility.yul\":12500:12576   */\n      tag_130\n      jump\t// in\n    tag_288:\n        /* \"#utility.yul\":12492:12576   */\n      swap1\n      pop\n        /* \"#utility.yul\":12586:12671   */\n      tag_289\n        /* \"#utility.yul\":12667:12669   */\n      0x60\n        /* \"#utility.yul\":12656:12665   */\n      dup4\n        /* \"#utility.yul\":12652:12670   */\n      add\n        /* \"#utility.yul\":12643:12649   */\n      dup6\n        /* \"#utility.yul\":12586:12671   */\n      tag_137\n      jump\t// in\n    tag_289:\n        /* \"#utility.yul\":12681:12754   */\n      tag_290\n        /* \"#utility.yul\":12749:12752   */\n      0x80\n        /* \"#utility.yul\":12738:12747   */\n      dup4\n        /* \"#utility.yul\":12734:12753   */\n      add\n        /* \"#utility.yul\":12725:12731   */\n      dup5\n        /* \"#utility.yul\":12681:12754   */\n      tag_132\n      jump\t// in\n    tag_290:\n        /* \"#utility.yul\":11984:12761   */\n      swap7\n      swap6\n      pop\n      pop\n      pop\n      pop\n      pop\n      pop\n      jump\t// out\n        /* \"#utility.yul\":12767:12910   */\n    tag_138:\n        /* \"#utility.yul\":12824:12829   */\n      0x00\n        /* \"#utility.yul\":12855:12861   */\n      dup2\n        /* \"#utility.yul\":12849:12862   */\n      mload\n        /* \"#utility.yul\":12840:12862   */\n      swap1\n      pop\n        /* \"#utility.yul\":12871:12904   */\n      tag_292\n        /* \"#utility.yul\":12898:12903   */\n      dup2\n        /* \"#utility.yul\":12871:12904   */\n      tag_99\n      jump\t// in\n    tag_292:\n        /* \"#utility.yul\":12767:12910   */\n      swap3\n      swap2\n      pop\n      pop\n      jump\t// out\n        /* \"#utility.yul\":12916:13267   */\n    tag_37:\n        /* \"#utility.yul\":12986:12992   */\n      0x00\n        /* \"#utility.yul\":13035:13037   */\n      0x20\n        /* \"#utility.yul\":13023:13032   */\n      dup3\n        /* \"#utility.yul\":13014:13021   */\n      dup5\n        /* \"#utility.yul\":13010:13033   */\n      sub\n        /* \"#utility.yul\":13006:13038   */\n      slt\n        /* \"#utility.yul\":13003:13122   */\n      iszero\n      tag_294\n      jumpi\n        /* \"#utility.yul\":13041:13120   */\n      tag_295\n      tag_96\n      jump\t// in\n    tag_295:\n        /* \"#utility.yul\":13003:13122   */\n    tag_294:\n        /* \"#utility.yul\":13161:13162   */\n      0x00\n        /* \"#utility.yul\":13186:13250   */\n      tag_296\n        /* \"#utility.yul\":13242:13249   */\n      dup5\n        /* \"#utility.yul\":13233:13239   */\n      dup3\n        /* \"#utility.yul\":13222:13231   */\n      dup6\n        /* \"#utility.yul\":13218:13240   */\n      add\n        /* \"#utility.yul\":13186:13250   */\n      tag_138\n      jump\t// in\n    tag_296:\n        /* \"#utility.yul\":13176:13250   */\n      swap2\n      pop\n        /* \"#utility.yul\":13132:13260   */\n      pop\n        /* \"#utility.yul\":12916:13267   */\n      swap3\n      swap2\n      pop\n      pop\n      jump\t// out\n        /* \"#utility.yul\":13273:13913   */\n    tag_39:\n        /* \"#utility.yul\":13468:13472   */\n      0x00\n        /* \"#utility.yul\":13506:13509   */\n      0x80\n        /* \"#utility.yul\":13495:13504   */\n      dup3\n        /* \"#utility.yul\":13491:13510   */\n      add\n        /* \"#utility.yul\":13483:13510   */\n      swap1\n      pop\n        /* \"#utility.yul\":13520:13591   */\n      tag_298\n        /* \"#utility.yul\":13588:13589   */\n      0x00\n        /* \"#utility.yul\":13577:13586   */\n      dup4\n        /* \"#utility.yul\":13573:13590   */\n      add\n        /* \"#utility.yul\":13564:13570   */\n      dup8\n        /* \"#utility.yul\":13520:13591   */\n      tag_128\n      jump\t// in\n    tag_298:\n        /* \"#utility.yul\":13601:13673   */\n      tag_299\n        /* \"#utility.yul\":13669:13671   */\n      0x20\n        /* \"#utility.yul\":13658:13667   */\n      dup4\n        /* \"#utility.yul\":13654:13672   */\n      add\n        /* \"#utility.yul\":13645:13651   */\n      dup7\n        /* \"#utility.yul\":13601:13673   */\n      tag_132\n      jump\t// in\n    tag_299:\n        /* \"#utility.yul\":13720:13729   */\n      dup2\n        /* \"#utility.yul\":13714:13718   */\n      dup2\n        /* \"#utility.yul\":13710:13730   */\n      sub\n        /* \"#utility.yul\":13705:13707   */\n      0x40\n        /* \"#utility.yul\":13694:13703   */\n      dup4\n        /* \"#utility.yul\":13690:13708   */\n      add\n        /* \"#utility.yul\":13683:13731   */\n      mstore\n        /* \"#utility.yul\":13748:13824   */\n      tag_300\n        /* \"#utility.yul\":13819:13823   */\n      dup2\n        /* \"#utility.yul\":13810:13816   */\n      dup6\n        /* \"#utility.yul\":13748:13824   */\n      tag_130\n      jump\t// in\n    tag_300:\n        /* \"#utility.yul\":13740:13824   */\n      swap1\n      pop\n        /* \"#utility.yul\":13834:13906   */\n      tag_301\n        /* \"#utility.yul\":13902:13904   */\n      0x60\n        /* \"#utility.yul\":13891:13900   */\n      dup4\n        /* \"#utility.yul\":13887:13905   */\n      add\n        /* \"#utility.yul\":13878:13884   */\n      dup5\n        /* \"#utility.yul\":13834:13906   */\n      tag_132\n      jump\t// in\n    tag_301:\n        /* \"#utility.yul\":13273:13913   */\n      swap6\n      swap5\n      pop\n      pop\n      pop\n      pop\n      pop\n      jump\t// out\n        /* \"#utility.yul\":13919:14670   */\n    tag_46:\n        /* \"#utility.yul\":14142:14146   */\n      0x00\n        /* \"#utility.yul\":14180:14183   */\n      0xa0\n        /* \"#utility.yul\":14169:14178   */\n      dup3\n        /* \"#utility.yul\":14165:14184   */\n      add\n        /* \"#utility.yul\":14157:14184   */\n      swap1\n      pop\n        /* \"#utility.yul\":14194:14265   */\n      tag_303\n        /* \"#utility.yul\":14262:14263   */\n      0x00\n        /* \"#utility.yul\":14251:14260   */\n      dup4\n        /* \"#utility.yul\":14247:14264   */\n      add\n        /* \"#utility.yul\":14238:14244   */\n      dup9\n        /* \"#utility.yul\":14194:14265   */\n      tag_132\n      jump\t// in\n    tag_303:\n        /* \"#utility.yul\":14275:14347   */\n      tag_304\n        /* \"#utility.yul\":14343:14345   */\n      0x20\n        /* \"#utility.yul\":14332:14341   */\n      dup4\n        /* \"#utility.yul\":14328:14346   */\n      add\n        /* \"#utility.yul\":14319:14325   */\n      dup8\n        /* \"#utility.yul\":14275:14347   */\n      tag_128\n      jump\t// in\n    tag_304:\n        /* \"#utility.yul\":14394:14403   */\n      dup2\n        /* \"#utility.yul\":14388:14392   */\n      dup2\n        /* \"#utility.yul\":14384:14404   */\n      sub\n        /* \"#utility.yul\":14379:14381   */\n      0x40\n        /* \"#utility.yul\":14368:14377   */\n      dup4\n        /* \"#utility.yul\":14364:14382   */\n      add\n        /* \"#utility.yul\":14357:14405   */\n      mstore\n        /* \"#utility.yul\":14422:14498   */\n      tag_305\n        /* \"#utility.yul\":14493:14497   */\n      dup2\n        /* \"#utility.yul\":14484:14490   */\n      dup7\n        /* \"#utility.yul\":14422:14498   */\n      tag_130\n      jump\t// in\n    tag_305:\n        /* \"#utility.yul\":14414:14498   */\n      swap1\n      pop\n        /* \"#utility.yul\":14508:14580   */\n      tag_306\n        /* \"#utility.yul\":14576:14578   */\n      0x60\n        /* \"#utility.yul\":14565:14574   */\n      dup4\n        /* \"#utility.yul\":14561:14579   */\n      add\n        /* \"#utility.yul\":14552:14558   */\n      dup6\n        /* \"#utility.yul\":14508:14580   */\n      tag_132\n      jump\t// in\n    tag_306:\n        /* \"#utility.yul\":14590:14663   */\n      tag_307\n        /* \"#utility.yul\":14658:14661   */\n      0x80\n        /* \"#utility.yul\":14647:14656   */\n      dup4\n        /* \"#utility.yul\":14643:14662   */\n      add\n        /* \"#utility.yul\":14634:14640   */\n      dup5\n        /* \"#utility.yul\":14590:14663   */\n      tag_131\n      jump\t// in\n    tag_307:\n        /* \"#utility.yul\":13919:14670   */\n      swap7\n      swap6\n      pop\n      pop\n      pop\n      pop\n      pop\n      pop\n      jump\t// out\n        /* \"#utility.yul\":14676:14856   */\n    tag_139:\n        /* \"#utility.yul\":14724:14801   */\n      0x4e487b7100000000000000000000000000000000000000000000000000000000\n        /* \"#utility.yul\":14721:14722   */\n      0x00\n        /* \"#utility.yul\":14714:14802   */\n      mstore\n        /* \"#utility.yul\":14821:14825   */\n      0x22\n        /* \"#utility.yul\":14818:14819   */\n      0x04\n        /* \"#utility.yul\":14811:14826   */\n      mstore\n        /* \"#utility.yul\":14845:14849   */\n      0x24\n        /* \"#utility.yul\":14842:14843   */\n      0x00\n        /* \"#utility.yul\":14835:14850   */\n      revert\n        /* \"#utility.yul\":14862:15182   */\n    tag_51:\n        /* \"#utility.yul\":14906:14912   */\n      0x00\n        /* \"#utility.yul\":14943:14944   */\n      0x02\n        /* \"#utility.yul\":14937:14941   */\n      dup3\n        /* \"#utility.yul\":14933:14945   */\n      div\n        /* \"#utility.yul\":14923:14945   */\n      swap1\n      pop\n        /* \"#utility.yul\":14990:14991   */\n      0x01\n        /* \"#utility.yul\":14984:14988   */\n      dup3\n        /* \"#utility.yul\":14980:14992   */\n      and\n        /* \"#utility.yul\":15011:15029   */\n      dup1\n        /* \"#utility.yul\":15001:15082   */\n      tag_310\n      jumpi\n        /* \"#utility.yul\":15067:15071   */\n      0x7f\n        /* \"#utility.yul\":15059:15065   */\n      dup3\n        /* \"#utility.yul\":15055:15072   */\n      and\n        /* \"#utility.yul\":15045:15072   */\n      swap2\n      pop\n        /* \"#utility.yul\":15001:15082   */\n    tag_310:\n        /* \"#utility.yul\":15129:15131   */\n      0x20\n        /* \"#utility.yul\":15121:15127   */\n      dup3\n        /* \"#utility.yul\":15118:15132   */\n      lt\n        /* \"#utility.yul\":15098:15116   */\n      dup2\n        /* \"#utility.yul\":15095:15133   */\n      sub\n        /* \"#utility.yul\":15092:15176   */\n      tag_311\n      jumpi\n        /* \"#utility.yul\":15148:15166   */\n      tag_312\n      tag_139\n      jump\t// in\n    tag_312:\n        /* \"#utility.yul\":15092:15176   */\n    tag_311:\n        /* \"#utility.yul\":14913:15182   */\n      pop\n        /* \"#utility.yul\":14862:15182   */\n      swap2\n      swap1\n      pop\n      jump\t// out\n        /* \"#utility.yul\":15188:15828   */\n    tag_63:\n        /* \"#utility.yul\":15383:15387   */\n      0x00\n        /* \"#utility.yul\":15421:15424   */\n      0x80\n        /* \"#utility.yul\":15410:15419   */\n      dup3\n        /* \"#utility.yul\":15406:15425   */\n      add\n        /* \"#utility.yul\":15398:15425   */\n      swap1\n      pop\n        /* \"#utility.yul\":15435:15506   */\n      tag_314\n        /* \"#utility.yul\":15503:15504   */\n      0x00\n        /* \"#utility.yul\":15492:15501   */\n      dup4\n        /* \"#utility.yul\":15488:15505   */\n      add\n        /* \"#utility.yul\":15479:15485   */\n      dup8\n        /* \"#utility.yul\":15435:15506   */\n      tag_131\n      jump\t// in\n    tag_314:\n        /* \"#utility.yul\":15516:15588   */\n      tag_315\n        /* \"#utility.yul\":15584:15586   */\n      0x20\n        /* \"#utility.yul\":15573:15582   */\n      dup4\n        /* \"#utility.yul\":15569:15587   */\n      add\n        /* \"#utility.yul\":15560:15566   */\n      dup7\n        /* \"#utility.yul\":15516:15588   */\n      tag_128\n      jump\t// in\n    tag_315:\n        /* \"#utility.yul\":15598:15670   */\n      tag_316\n        /* \"#utility.yul\":15666:15668   */\n      0x40\n        /* \"#utility.yul\":15655:15664   */\n      dup4\n        /* \"#utility.yul\":15651:15669   */\n      add\n        /* \"#utility.yul\":15642:15648   */\n      dup6\n        /* \"#utility.yul\":15598:15670   */\n      tag_132\n      jump\t// in\n    tag_316:\n        /* \"#utility.yul\":15717:15726   */\n      dup2\n        /* \"#utility.yul\":15711:15715   */\n      dup2\n        /* \"#utility.yul\":15707:15727   */\n      sub\n        /* \"#utility.yul\":15702:15704   */\n      0x60\n        /* \"#utility.yul\":15691:15700   */\n      dup4\n        /* \"#utility.yul\":15687:15705   */\n      add\n        /* \"#utility.yul\":15680:15728   */\n      mstore\n        /* \"#utility.yul\":15745:15821   */\n      tag_317\n        /* \"#utility.yul\":15816:15820   */\n      dup2\n        /* \"#utility.yul\":15807:15813   */\n      dup5\n        /* \"#utility.yul\":15745:15821   */\n      tag_130\n      jump\t// in\n    tag_317:\n        /* \"#utility.yul\":15737:15821   */\n      swap1\n      pop\n        /* \"#utility.yul\":15188:15828   */\n      swap6\n      swap5\n      pop\n      pop\n      pop\n      pop\n      pop\n      jump\t// out\n        /* \"#utility.yul\":15834:16166   */\n    tag_68:\n        /* \"#utility.yul\":15955:15959   */\n      0x00\n        /* \"#utility.yul\":15993:15995   */\n      0x40\n        /* \"#utility.yul\":15982:15991   */\n      dup3\n        /* \"#utility.yul\":15978:15996   */\n      add\n        /* \"#utility.yul\":15970:15996   */\n      swap1\n      pop\n        /* \"#utility.yul\":16006:16077   */\n      tag_319\n        /* \"#utility.yul\":16074:16075   */\n      0x00\n        /* \"#utility.yul\":16063:16072   */\n      dup4\n        /* \"#utility.yul\":16059:16076   */\n      add\n        /* \"#utility.yul\":16050:16056   */\n      dup6\n        /* \"#utility.yul\":16006:16077   */\n      tag_132\n      jump\t// in\n    tag_319:\n        /* \"#utility.yul\":16087:16159   */\n      tag_320\n        /* \"#utility.yul\":16155:16157   */\n      0x20\n        /* \"#utility.yul\":16144:16153   */\n      dup4\n        /* \"#utility.yul\":16140:16158   */\n      add\n        /* \"#utility.yul\":16131:16137   */\n      dup5\n        /* \"#utility.yul\":16087:16159   */\n      tag_132\n      jump\t// in\n    tag_320:\n        /* \"#utility.yul\":15834:16166   */\n      swap4\n      swap3\n      pop\n      pop\n      pop\n      jump\t// out\n        /* \"#utility.yul\":16172:16289   */\n    tag_140:\n        /* \"#utility.yul\":16281:16282   */\n      0x00\n        /* \"#utility.yul\":16278:16279   */\n      dup1\n        /* \"#utility.yul\":16271:16283   */\n      revert\n        /* \"#utility.yul\":16418:16561   */\n    tag_142:\n        /* \"#utility.yul\":16475:16480   */\n      0x00\n        /* \"#utility.yul\":16506:16512   */\n      dup2\n        /* \"#utility.yul\":16500:16513   */\n      mload\n        /* \"#utility.yul\":16491:16513   */\n      swap1\n      pop\n        /* \"#utility.yul\":16522:16555   */\n      tag_324\n        /* \"#utility.yul\":16549:16554   */\n      dup2\n        /* \"#utility.yul\":16522:16555   */\n      tag_116\n      jump\t// in\n    tag_324:\n        /* \"#utility.yul\":16418:16561   */\n      swap3\n      swap2\n      pop\n      pop\n      jump\t// out\n        /* \"#utility.yul\":16567:16676   */\n    tag_143:\n        /* \"#utility.yul\":16617:16624   */\n      0x00\n        /* \"#utility.yul\":16646:16670   */\n      tag_326\n        /* \"#utility.yul\":16664:16669   */\n      dup3\n        /* \"#utility.yul\":16646:16670   */\n      tag_115\n      jump\t// in\n    tag_326:\n        /* \"#utility.yul\":16635:16670   */\n      swap1\n      pop\n        /* \"#utility.yul\":16567:16676   */\n      swap2\n      swap1\n      pop\n      jump\t// out\n        /* \"#utility.yul\":16682:16830   */\n    tag_144:\n        /* \"#utility.yul\":16768:16805   */\n      tag_328\n        /* \"#utility.yul\":16799:16804   */\n      dup2\n        /* \"#utility.yul\":16768:16805   */\n      tag_143\n      jump\t// in\n    tag_328:\n        /* \"#utility.yul\":16761:16766   */\n      dup2\n        /* \"#utility.yul\":16758:16806   */\n      eq\n        /* \"#utility.yul\":16748:16824   */\n      tag_329\n      jumpi\n        /* \"#utility.yul\":16820:16821   */\n      0x00\n        /* \"#utility.yul\":16817:16818   */\n      dup1\n        /* \"#utility.yul\":16810:16822   */\n      revert\n        /* \"#utility.yul\":16748:16824   */\n    tag_329:\n        /* \"#utility.yul\":16682:16830   */\n      pop\n      jump\t// out\n        /* \"#utility.yul\":16836:17005   */\n    tag_145:\n        /* \"#utility.yul\":16906:16911   */\n      0x00\n        /* \"#utility.yul\":16937:16943   */\n      dup2\n        /* \"#utility.yul\":16931:16944   */\n      mload\n        /* \"#utility.yul\":16922:16944   */\n      swap1\n      pop\n        /* \"#utility.yul\":16953:16999   */\n      tag_331\n        /* \"#utility.yul\":16993:16998   */\n      dup2\n        /* \"#utility.yul\":16953:16999   */\n      tag_144\n      jump\t// in\n    tag_331:\n        /* \"#utility.yul\":16836:17005   */\n      swap3\n      swap2\n      pop\n      pop\n      jump\t// out\n        /* \"#utility.yul\":17011:17101   */\n    tag_146:\n        /* \"#utility.yul\":17045:17052   */\n      0x00\n        /* \"#utility.yul\":17088:17093   */\n      dup2\n        /* \"#utility.yul\":17081:17094   */\n      iszero\n        /* \"#utility.yul\":17074:17095   */\n      iszero\n        /* \"#utility.yul\":17063:17095   */\n      swap1\n      pop\n        /* \"#utility.yul\":17011:17101   */\n      swap2\n      swap1\n      pop\n      jump\t// out\n        /* \"#utility.yul\":17107:17223   */\n    tag_147:\n        /* \"#utility.yul\":17177:17198   */\n      tag_334\n        /* \"#utility.yul\":17192:17197   */\n      dup2\n        /* \"#utility.yul\":17177:17198   */\n      tag_146\n      jump\t// in\n    tag_334:\n        /* \"#utility.yul\":17170:17175   */\n      dup2\n        /* \"#utility.yul\":17167:17199   */\n      eq\n        /* \"#utility.yul\":17157:17217   */\n      tag_335\n      jumpi\n        /* \"#utility.yul\":17213:17214   */\n      0x00\n        /* \"#utility.yul\":17210:17211   */\n      dup1\n        /* \"#utility.yul\":17203:17215   */\n      revert\n        /* \"#utility.yul\":17157:17217   */\n    tag_335:\n        /* \"#utility.yul\":17107:17223   */\n      pop\n      jump\t// out\n        /* \"#utility.yul\":17229:17366   */\n    tag_148:\n        /* \"#utility.yul\":17283:17288   */\n      0x00\n        /* \"#utility.yul\":17314:17320   */\n      dup2\n        /* \"#utility.yul\":17308:17321   */\n      mload\n        /* \"#utility.yul\":17299:17321   */\n      swap1\n      pop\n        /* \"#utility.yul\":17330:17360   */\n      tag_337\n        /* \"#utility.yul\":17354:17359   */\n      dup2\n        /* \"#utility.yul\":17330:17360   */\n      tag_147\n      jump\t// in\n    tag_337:\n        /* \"#utility.yul\":17229:17366   */\n      swap3\n      swap2\n      pop\n      pop\n      jump\t// out\n        /* \"#utility.yul\":17430:18975   */\n    tag_149:\n        /* \"#utility.yul\":17522:17527   */\n      0x00\n        /* \"#utility.yul\":17566:17570   */\n      0xe0\n        /* \"#utility.yul\":17554:17563   */\n      dup3\n        /* \"#utility.yul\":17549:17552   */\n      dup5\n        /* \"#utility.yul\":17545:17564   */\n      sub\n        /* \"#utility.yul\":17541:17571   */\n      slt\n        /* \"#utility.yul\":17538:17655   */\n      iszero\n      tag_339\n      jumpi\n        /* \"#utility.yul\":17574:17653   */\n      tag_340\n      tag_140\n      jump\t// in\n    tag_340:\n        /* \"#utility.yul\":17538:17655   */\n    tag_339:\n        /* \"#utility.yul\":17673:17694   */\n      tag_341\n        /* \"#utility.yul\":17689:17693   */\n      0xe0\n        /* \"#utility.yul\":17673:17694   */\n      tag_109\n      jump\t// in\n    tag_341:\n        /* \"#utility.yul\":17664:17694   */\n      swap1\n      pop\n        /* \"#utility.yul\":17759:17760   */\n      0x00\n        /* \"#utility.yul\":17799:17856   */\n      tag_342\n        /* \"#utility.yul\":17852:17855   */\n      dup5\n        /* \"#utility.yul\":17843:17849   */\n      dup3\n        /* \"#utility.yul\":17832:17841   */\n      dup6\n        /* \"#utility.yul\":17828:17850   */\n      add\n        /* \"#utility.yul\":17799:17856   */\n      tag_148\n      jump\t// in\n    tag_342:\n        /* \"#utility.yul\":17792:17796   */\n      0x00\n        /* \"#utility.yul\":17785:17790   */\n      dup4\n        /* \"#utility.yul\":17781:17797   */\n      add\n        /* \"#utility.yul\":17774:17857   */\n      mstore\n        /* \"#utility.yul\":17704:17868   */\n      pop\n        /* \"#utility.yul\":17938:17940   */\n      0x20\n        /* \"#utility.yul\":17979:18036   */\n      tag_343\n        /* \"#utility.yul\":18032:18035   */\n      dup5\n        /* \"#utility.yul\":18023:18029   */\n      dup3\n        /* \"#utility.yul\":18012:18021   */\n      dup6\n        /* \"#utility.yul\":18008:18030   */\n      add\n        /* \"#utility.yul\":17979:18036   */\n      tag_148\n      jump\t// in\n    tag_343:\n        /* \"#utility.yul\":17972:17976   */\n      0x20\n        /* \"#utility.yul\":17965:17970   */\n      dup4\n        /* \"#utility.yul\":17961:17977   */\n      add\n        /* \"#utility.yul\":17954:18037   */\n      mstore\n        /* \"#utility.yul\":17878:18048   */\n      pop\n        /* \"#utility.yul\":18126:18128   */\n      0x40\n        /* \"#utility.yul\":18167:18224   */\n      tag_344\n        /* \"#utility.yul\":18220:18223   */\n      dup5\n        /* \"#utility.yul\":18211:18217   */\n      dup3\n        /* \"#utility.yul\":18200:18209   */\n      dup6\n        /* \"#utility.yul\":18196:18218   */\n      add\n        /* \"#utility.yul\":18167:18224   */\n      tag_148\n      jump\t// in\n    tag_344:\n        /* \"#utility.yul\":18160:18164   */\n      0x40\n        /* \"#utility.yul\":18153:18158   */\n      dup4\n        /* \"#utility.yul\":18149:18165   */\n      add\n        /* \"#utility.yul\":18142:18225   */\n      mstore\n        /* \"#utility.yul\":18058:18236   */\n      pop\n        /* \"#utility.yul\":18314:18316   */\n      0x60\n        /* \"#utility.yul\":18355:18412   */\n      tag_345\n        /* \"#utility.yul\":18408:18411   */\n      dup5\n        /* \"#utility.yul\":18399:18405   */\n      dup3\n        /* \"#utility.yul\":18388:18397   */\n      dup6\n        /* \"#utility.yul\":18384:18406   */\n      add\n        /* \"#utility.yul\":18355:18412   */\n      tag_148\n      jump\t// in\n    tag_345:\n        /* \"#utility.yul\":18348:18352   */\n      0x60\n        /* \"#utility.yul\":18341:18346   */\n      dup4\n        /* \"#utility.yul\":18337:18353   */\n      add\n        /* \"#utility.yul\":18330:18413   */\n      mstore\n        /* \"#utility.yul\":18246:18424   */\n      pop\n        /* \"#utility.yul\":18501:18504   */\n      0x80\n        /* \"#utility.yul\":18543:18600   */\n      tag_346\n        /* \"#utility.yul\":18596:18599   */\n      dup5\n        /* \"#utility.yul\":18587:18593   */\n      dup3\n        /* \"#utility.yul\":18576:18585   */\n      dup6\n        /* \"#utility.yul\":18572:18594   */\n      add\n        /* \"#utility.yul\":18543:18600   */\n      tag_148\n      jump\t// in\n    tag_346:\n        /* \"#utility.yul\":18536:18540   */\n      0x80\n        /* \"#utility.yul\":18529:18534   */\n      dup4\n        /* \"#utility.yul\":18525:18541   */\n      add\n        /* \"#utility.yul\":18518:18601   */\n      mstore\n        /* \"#utility.yul\":18434:18612   */\n      pop\n        /* \"#utility.yul\":18671:18674   */\n      0xa0\n        /* \"#utility.yul\":18713:18773   */\n      tag_347\n        /* \"#utility.yul\":18769:18772   */\n      dup5\n        /* \"#utility.yul\":18760:18766   */\n      dup3\n        /* \"#utility.yul\":18749:18758   */\n      dup6\n        /* \"#utility.yul\":18745:18767   */\n      add\n        /* \"#utility.yul\":18713:18773   */\n      tag_138\n      jump\t// in\n    tag_347:\n        /* \"#utility.yul\":18706:18710   */\n      0xa0\n        /* \"#utility.yul\":18699:18704   */\n      dup4\n        /* \"#utility.yul\":18695:18711   */\n      add\n        /* \"#utility.yul\":18688:18774   */\n      mstore\n        /* \"#utility.yul\":18622:18785   */\n      pop\n        /* \"#utility.yul\":18854:18857   */\n      0xc0\n        /* \"#utility.yul\":18896:18956   */\n      tag_348\n        /* \"#utility.yul\":18952:18955   */\n      dup5\n        /* \"#utility.yul\":18943:18949   */\n      dup3\n        /* \"#utility.yul\":18932:18941   */\n      dup6\n        /* \"#utility.yul\":18928:18950   */\n      add\n        /* \"#utility.yul\":18896:18956   */\n      tag_138\n      jump\t// in\n    tag_348:\n        /* \"#utility.yul\":18889:18893   */\n      0xc0\n        /* \"#utility.yul\":18882:18887   */\n      dup4\n        /* \"#utility.yul\":18878:18894   */\n      add\n        /* \"#utility.yul\":18871:18957   */\n      mstore\n        /* \"#utility.yul\":18795:18968   */\n      pop\n        /* \"#utility.yul\":17430:18975   */\n      swap3\n      swap2\n      pop\n      pop\n      jump\t// out\n        /* \"#utility.yul\":18981:19101   */\n    tag_150:\n        /* \"#utility.yul\":19053:19076   */\n      tag_350\n        /* \"#utility.yul\":19070:19075   */\n      dup2\n        /* \"#utility.yul\":19053:19076   */\n      tag_126\n      jump\t// in\n    tag_350:\n        /* \"#utility.yul\":19046:19051   */\n      dup2\n        /* \"#utility.yul\":19043:19077   */\n      eq\n        /* \"#utility.yul\":19033:19095   */\n      tag_351\n      jumpi\n        /* \"#utility.yul\":19091:19092   */\n      0x00\n        /* \"#utility.yul\":19088:19089   */\n      dup1\n        /* \"#utility.yul\":19081:19093   */\n      revert\n        /* \"#utility.yul\":19033:19095   */\n    tag_351:\n        /* \"#utility.yul\":18981:19101   */\n      pop\n      jump\t// out\n        /* \"#utility.yul\":19107:19248   */\n    tag_151:\n        /* \"#utility.yul\":19163:19168   */\n      0x00\n        /* \"#utility.yul\":19194:19200   */\n      dup2\n        /* \"#utility.yul\":19188:19201   */\n      mload\n        /* \"#utility.yul\":19179:19201   */\n      swap1\n      pop\n        /* \"#utility.yul\":19210:19242   */\n      tag_353\n        /* \"#utility.yul\":19236:19241   */\n      dup2\n        /* \"#utility.yul\":19210:19242   */\n      tag_150\n      jump\t// in\n    tag_353:\n        /* \"#utility.yul\":19107:19248   */\n      swap3\n      swap2\n      pop\n      pop\n      jump\t// out\n        /* \"#utility.yul\":19304:21400   */\n    tag_152:\n        /* \"#utility.yul\":19388:19393   */\n      0x00\n        /* \"#utility.yul\":19432:19438   */\n      0x0200\n        /* \"#utility.yul\":19420:19429   */\n      dup3\n        /* \"#utility.yul\":19415:19418   */\n      dup5\n        /* \"#utility.yul\":19411:19430   */\n      sub\n        /* \"#utility.yul\":19407:19439   */\n      slt\n        /* \"#utility.yul\":19404:19523   */\n      iszero\n      tag_355\n      jumpi\n        /* \"#utility.yul\":19442:19521   */\n      tag_356\n      tag_140\n      jump\t// in\n    tag_356:\n        /* \"#utility.yul\":19404:19523   */\n    tag_355:\n        /* \"#utility.yul\":19541:19564   */\n      tag_357\n        /* \"#utility.yul\":19557:19563   */\n      0x0140\n        /* \"#utility.yul\":19541:19564   */\n      tag_109\n      jump\t// in\n    tag_357:\n        /* \"#utility.yul\":19532:19564   */\n      swap1\n      pop\n        /* \"#utility.yul\":19627:19628   */\n      0x00\n        /* \"#utility.yul\":19667:19727   */\n      tag_358\n        /* \"#utility.yul\":19723:19726   */\n      dup5\n        /* \"#utility.yul\":19714:19720   */\n      dup3\n        /* \"#utility.yul\":19703:19712   */\n      dup6\n        /* \"#utility.yul\":19699:19721   */\n      add\n        /* \"#utility.yul\":19667:19727   */\n      tag_142\n      jump\t// in\n    tag_358:\n        /* \"#utility.yul\":19660:19664   */\n      0x00\n        /* \"#utility.yul\":19653:19658   */\n      dup4\n        /* \"#utility.yul\":19649:19665   */\n      add\n        /* \"#utility.yul\":19642:19728   */\n      mstore\n        /* \"#utility.yul\":19574:19739   */\n      pop\n        /* \"#utility.yul\":19802:19804   */\n      0x20\n        /* \"#utility.yul\":19843:19903   */\n      tag_359\n        /* \"#utility.yul\":19899:19902   */\n      dup5\n        /* \"#utility.yul\":19890:19896   */\n      dup3\n        /* \"#utility.yul\":19879:19888   */\n      dup6\n        /* \"#utility.yul\":19875:19897   */\n      add\n        /* \"#utility.yul\":19843:19903   */\n      tag_142\n      jump\t// in\n    tag_359:\n        /* \"#utility.yul\":19836:19840   */\n      0x20\n        /* \"#utility.yul\":19829:19834   */\n      dup4\n        /* \"#utility.yul\":19825:19841   */\n      add\n        /* \"#utility.yul\":19818:19904   */\n      mstore\n        /* \"#utility.yul\":19749:19915   */\n      pop\n        /* \"#utility.yul\":19978:19980   */\n      0x40\n        /* \"#utility.yul\":20019:20092   */\n      tag_360\n        /* \"#utility.yul\":20088:20091   */\n      dup5\n        /* \"#utility.yul\":20079:20085   */\n      dup3\n        /* \"#utility.yul\":20068:20077   */\n      dup6\n        /* \"#utility.yul\":20064:20086   */\n      add\n        /* \"#utility.yul\":20019:20092   */\n      tag_145\n      jump\t// in\n    tag_360:\n        /* \"#utility.yul\":20012:20016   */\n      0x40\n        /* \"#utility.yul\":20005:20010   */\n      dup4\n        /* \"#utility.yul\":20001:20017   */\n      add\n        /* \"#utility.yul\":19994:20093   */\n      mstore\n        /* \"#utility.yul\":19925:20104   */\n      pop\n        /* \"#utility.yul\":20166:20168   */\n      0x60\n        /* \"#utility.yul\":20207:20264   */\n      tag_361\n        /* \"#utility.yul\":20260:20263   */\n      dup5\n        /* \"#utility.yul\":20251:20257   */\n      dup3\n        /* \"#utility.yul\":20240:20249   */\n      dup6\n        /* \"#utility.yul\":20236:20258   */\n      add\n        /* \"#utility.yul\":20207:20264   */\n      tag_148\n      jump\t// in\n    tag_361:\n        /* \"#utility.yul\":20200:20204   */\n      0x60\n        /* \"#utility.yul\":20193:20198   */\n      dup4\n        /* \"#utility.yul\":20189:20205   */\n      add\n        /* \"#utility.yul\":20182:20265   */\n      mstore\n        /* \"#utility.yul\":20114:20276   */\n      pop\n        /* \"#utility.yul\":20346:20349   */\n      0x80\n        /* \"#utility.yul\":20388:20480   */\n      tag_362\n        /* \"#utility.yul\":20476:20479   */\n      dup5\n        /* \"#utility.yul\":20467:20473   */\n      dup3\n        /* \"#utility.yul\":20456:20465   */\n      dup6\n        /* \"#utility.yul\":20452:20474   */\n      add\n        /* \"#utility.yul\":20388:20480   */\n      tag_149\n      jump\t// in\n    tag_362:\n        /* \"#utility.yul\":20381:20385   */\n      0x80\n        /* \"#utility.yul\":20374:20379   */\n      dup4\n        /* \"#utility.yul\":20370:20386   */\n      add\n        /* \"#utility.yul\":20363:20481   */\n      mstore\n        /* \"#utility.yul\":20286:20492   */\n      pop\n        /* \"#utility.yul\":20560:20563   */\n      0x0160\n        /* \"#utility.yul\":20602:20661   */\n      tag_363\n        /* \"#utility.yul\":20657:20660   */\n      dup5\n        /* \"#utility.yul\":20648:20654   */\n      dup3\n        /* \"#utility.yul\":20637:20646   */\n      dup6\n        /* \"#utility.yul\":20633:20655   */\n      add\n        /* \"#utility.yul\":20602:20661   */\n      tag_151\n      jump\t// in\n    tag_363:\n        /* \"#utility.yul\":20595:20599   */\n      0xa0\n        /* \"#utility.yul\":20588:20593   */\n      dup4\n        /* \"#utility.yul\":20584:20600   */\n      add\n        /* \"#utility.yul\":20577:20662   */\n      mstore\n        /* \"#utility.yul\":20502:20673   */\n      pop\n        /* \"#utility.yul\":20741:20744   */\n      0x0180\n        /* \"#utility.yul\":20783:20842   */\n      tag_364\n        /* \"#utility.yul\":20838:20841   */\n      dup5\n        /* \"#utility.yul\":20829:20835   */\n      dup3\n        /* \"#utility.yul\":20818:20827   */\n      dup6\n        /* \"#utility.yul\":20814:20836   */\n      add\n        /* \"#utility.yul\":20783:20842   */\n      tag_151\n      jump\t// in\n    tag_364:\n        /* \"#utility.yul\":20776:20780   */\n      0xc0\n        /* \"#utility.yul\":20769:20774   */\n      dup4\n        /* \"#utility.yul\":20765:20781   */\n      add\n        /* \"#utility.yul\":20758:20843   */\n      mstore\n        /* \"#utility.yul\":20683:20854   */\n      pop\n        /* \"#utility.yul\":20923:20926   */\n      0x01a0\n        /* \"#utility.yul\":20965:21025   */\n      tag_365\n        /* \"#utility.yul\":21021:21024   */\n      dup5\n        /* \"#utility.yul\":21012:21018   */\n      dup3\n        /* \"#utility.yul\":21001:21010   */\n      dup6\n        /* \"#utility.yul\":20997:21019   */\n      add\n        /* \"#utility.yul\":20965:21025   */\n      tag_138\n      jump\t// in\n    tag_365:\n        /* \"#utility.yul\":20958:20962   */\n      0xe0\n        /* \"#utility.yul\":20951:20956   */\n      dup4\n        /* \"#utility.yul\":20947:20963   */\n      add\n        /* \"#utility.yul\":20940:21026   */\n      mstore\n        /* \"#utility.yul\":20864:21037   */\n      pop\n        /* \"#utility.yul\":21098:21101   */\n      0x01c0\n        /* \"#utility.yul\":21142:21202   */\n      tag_366\n        /* \"#utility.yul\":21198:21201   */\n      dup5\n        /* \"#utility.yul\":21189:21195   */\n      dup3\n        /* \"#utility.yul\":21178:21187   */\n      dup6\n        /* \"#utility.yul\":21174:21196   */\n      add\n        /* \"#utility.yul\":21142:21202   */\n      tag_138\n      jump\t// in\n    tag_366:\n        /* \"#utility.yul\":21133:21139   */\n      0x0100\n        /* \"#utility.yul\":21126:21131   */\n      dup4\n        /* \"#utility.yul\":21122:21140   */\n      add\n        /* \"#utility.yul\":21115:21203   */\n      mstore\n        /* \"#utility.yul\":21047:21214   */\n      pop\n        /* \"#utility.yul\":21277:21280   */\n      0x01e0\n        /* \"#utility.yul\":21321:21381   */\n      tag_367\n        /* \"#utility.yul\":21377:21380   */\n      dup5\n        /* \"#utility.yul\":21368:21374   */\n      dup3\n        /* \"#utility.yul\":21357:21366   */\n      dup6\n        /* \"#utility.yul\":21353:21375   */\n      add\n        /* \"#utility.yul\":21321:21381   */\n      tag_138\n      jump\t// in\n    tag_367:\n        /* \"#utility.yul\":21312:21318   */\n      0x0120\n        /* \"#utility.yul\":21305:21310   */\n      dup4\n        /* \"#utility.yul\":21301:21319   */\n      add\n        /* \"#utility.yul\":21294:21382   */\n      mstore\n        /* \"#utility.yul\":21224:21393   */\n      pop\n        /* \"#utility.yul\":19304:21400   */\n      swap3\n      swap2\n      pop\n      pop\n      jump\t// out\n        /* \"#utility.yul\":21406:21806   */\n    tag_79:\n        /* \"#utility.yul\":21500:21506   */\n      0x00\n        /* \"#utility.yul\":21549:21552   */\n      0x0200\n        /* \"#utility.yul\":21537:21546   */\n      dup3\n        /* \"#utility.yul\":21528:21535   */\n      dup5\n        /* \"#utility.yul\":21524:21547   */\n      sub\n        /* \"#utility.yul\":21520:21553   */\n      slt\n        /* \"#utility.yul\":21517:21637   */\n      iszero\n      tag_369\n      jumpi\n        /* \"#utility.yul\":21556:21635   */\n      tag_370\n      tag_96\n      jump\t// in\n    tag_370:\n        /* \"#utility.yul\":21517:21637   */\n    tag_369:\n        /* \"#utility.yul\":21676:21677   */\n      0x00\n        /* \"#utility.yul\":21701:21789   */\n      tag_371\n        /* \"#utility.yul\":21781:21788   */\n      dup5\n        /* \"#utility.yul\":21772:21778   */\n      dup3\n        /* \"#utility.yul\":21761:21770   */\n      dup6\n        /* \"#utility.yul\":21757:21779   */\n      add\n        /* \"#utility.yul\":21701:21789   */\n      tag_152\n      jump\t// in\n    tag_371:\n        /* \"#utility.yul\":21691:21789   */\n      swap2\n      pop\n        /* \"#utility.yul\":21647:21799   */\n      pop\n        /* \"#utility.yul\":21406:21806   */\n      swap3\n      swap2\n      pop\n      pop\n      jump\t// out\n\n    auxdata: 0xa2646970667358221220279751da944a2eb7dd25920428c970877ef6a10dcc6e7ac055a588fe84f0137464736f6c634300080e0033\n}\n",
				"bytecode": {
					"linkReferences": {},
					"object": "60806040523480156200001157600080fd5b5060405162001a3b38038062001a3b8339818101604052810190620000379190620000e8565b806000806101000a81548173ffffffffffffffffffffffffffffffffffffffff021916908373ffffffffffffffffffffffffffffffffffffffff160217905550506200011a565b600080fd5b600073ffffffffffffffffffffffffffffffffffffffff82169050919050565b6000620000b08262000083565b9050919050565b620000c281620000a3565b8114620000ce57600080fd5b50565b600081519050620000e281620000b7565b92915050565b6000602082840312156200010157620001006200007e565b5b60006200011184828501620000d1565b91505092915050565b611911806200012a6000396000f3fe608060405234801561001057600080fd5b50600436106100575760003560e01c806343c2ed991461005c578063c58343ef14610078578063d247f92b146100a8578063e5da66af146100c4578063f418ad7a146100f4575b600080fd5b6100766004803603810190610071919061102c565b61012b565b005b610092600480360381019061008d91906110ea565b61045d565b60405161009f919061127c565b60405180910390f35b6100c260048036038101906100bd91906110ea565b610647565b005b6100de60048036038101906100d991906110ea565b610912565b6040516100eb91906112b7565b60405180910390f35b61010e600480360381019061010991906110ea565b610bab565b604051610122989796959493929190611349565b60405180910390f35b60008490506000808054906101000a900473ffffffffffffffffffffffffffffffffffffffff1673ffffffffffffffffffffffffffffffffffffffff166311df92f189838a868a6040518663ffffffff1660e01b815260040161019295949392919061142d565b6020604051808303816000875af11580156101b1573d6000803e3d6000fd5b505050506040513d601f19601f820116820180604052508101906101d5919061149c565b5060008054906101000a900473ffffffffffffffffffffffffffffffffffffffff1673ffffffffffffffffffffffffffffffffffffffff1663473c45fe89838a886040518563ffffffff1660e01b815260040161023594939291906114c9565b600060405180830381600087803b15801561024f57600080fd5b505af1158015610263573d6000803e3d6000fd5b505050506040518061010001604052808981526020018881526020018773ffffffffffffffffffffffffffffffffffffffff1681526020018681526020018581526020018281526020018473ffffffffffffffffffffffffffffffffffffffff1681526020013373ffffffffffffffffffffffffffffffffffffffff16815250600160008b815260200190815260200160002060008201518160000155602082015181600101908051906020019061031c929190610cdb565b5060408201518160020160006101000a81548173ffffffffffffffffffffffffffffffffffffffff021916908373ffffffffffffffffffffffffffffffffffffffff160217905550606082015181600301556080820151816004015560a0820151816005015560c08201518160060160006101000a81548173ffffffffffffffffffffffffffffffffffffffff021916908373ffffffffffffffffffffffffffffffffffffffff16021790555060e08201518160070160006101000a81548173ffffffffffffffffffffffffffffffffffffffff021916908373ffffffffffffffffffffffffffffffffffffffff1602179055509050507f30b5bfd849df20e3e537cf95d7077e1aa0fcd8cc44832c6abd42da4534099f36898989848760405161044a959493929190611515565b60405180910390a1505050505050505050565b610465610d61565b60016000838152602001908152602001600020604051806101000160405290816000820154815260200160018201805461049e9061159e565b80601f01602080910402602001604051908101604052809291908181526020018280546104ca9061159e565b80156105175780601f106104ec57610100808354040283529160200191610517565b820191906000526020600020905b8154815290600101906020018083116104fa57829003601f168201915b505050505081526020016002820160009054906101000a900473ffffffffffffffffffffffffffffffffffffffff1673ffffffffffffffffffffffffffffffffffffffff1673ffffffffffffffffffffffffffffffffffffffff1681526020016003820154815260200160048201548152602001600582015481526020016006820160009054906101000a900473ffffffffffffffffffffffffffffffffffffffff1673ffffffffffffffffffffffffffffffffffffffff1673ffffffffffffffffffffffffffffffffffffffff1681526020016007820160009054906101000a900473ffffffffffffffffffffffffffffffffffffffff1673ffffffffffffffffffffffffffffffffffffffff1673ffffffffffffffffffffffffffffffffffffffff16815250509050919050565b60006001600083815260200190815260200160002060405180610100016040529081600082015481526020016001820180546106829061159e565b80601f01602080910402602001604051908101604052809291908181526020018280546106ae9061159e565b80156106fb5780601f106106d0576101008083540402835291602001916106fb565b820191906000526020600020905b8154815290600101906020018083116106de57829003601f168201915b505050505081526020016002820160009054906101000a900473ffffffffffffffffffffffffffffffffffffffff1673ffffffffffffffffffffffffffffffffffffffff1673ffffffffffffffffffffffffffffffffffffffff1681526020016003820154815260200160048201548152602001600582015481526020016006820160009054906101000a900473ffffffffffffffffffffffffffffffffffffffff1673ffffffffffffffffffffffffffffffffffffffff1673ffffffffffffffffffffffffffffffffffffffff1681526020016007820160009054906101000a900473ffffffffffffffffffffffffffffffffffffffff1673ffffffffffffffffffffffffffffffffffffffff1673ffffffffffffffffffffffffffffffffffffffff1681525050905060008054906101000a900473ffffffffffffffffffffffffffffffffffffffff1673ffffffffffffffffffffffffffffffffffffffff16635e9a79a93083600001518460a0015185602001516040518563ffffffff1660e01b815260040161089194939291906115cf565b6020604051808303816000875af11580156108b0573d6000803e3d6000fd5b505050506040513d601f19601f820116820180604052508101906108d4919061149c565b507f3310ccc874795089b108b55b552feb307812189b9b162a282f97f6c5d0399927824260405161090692919061161b565b60405180910390a15050565b60008060016000848152602001908152602001600020604051806101000160405290816000820154815260200160018201805461094e9061159e565b80601f016020809104026020016040519081016040528092919081815260200182805461097a9061159e565b80156109c75780601f1061099c576101008083540402835291602001916109c7565b820191906000526020600020905b8154815290600101906020018083116109aa57829003601f168201915b505050505081526020016002820160009054906101000a900473ffffffffffffffffffffffffffffffffffffffff1673ffffffffffffffffffffffffffffffffffffffff1673ffffffffffffffffffffffffffffffffffffffff1681526020016003820154815260200160048201548152602001600582015481526020016006820160009054906101000a900473ffffffffffffffffffffffffffffffffffffffff1673ffffffffffffffffffffffffffffffffffffffff1673ffffffffffffffffffffffffffffffffffffffff1681526020016007820160009054906101000a900473ffffffffffffffffffffffffffffffffffffffff1673ffffffffffffffffffffffffffffffffffffffff1673ffffffffffffffffffffffffffffffffffffffff1681525050905060008054906101000a900473ffffffffffffffffffffffffffffffffffffffff1673ffffffffffffffffffffffffffffffffffffffff1663a9904f9b3083600001518460a0015185602001516040518563ffffffff1660e01b8152600401610b5d94939291906115cf565b61020060405180830381865afa158015610b7b573d6000803e3d6000fd5b505050506040513d601f19601f82011682018060405250810190610b9f91906118ad565b60c00151915050919050565b6001602052806000526040600020600091509050806000015490806001018054610bd49061159e565b80601f0160208091040260200160405190810160405280929190818152602001828054610c009061159e565b8015610c4d5780601f10610c2257610100808354040283529160200191610c4d565b820191906000526020600020905b815481529060010190602001808311610c3057829003601f168201915b5050505050908060020160009054906101000a900473ffffffffffffffffffffffffffffffffffffffff16908060030154908060040154908060050154908060060160009054906101000a900473ffffffffffffffffffffffffffffffffffffffff16908060070160009054906101000a900473ffffffffffffffffffffffffffffffffffffffff16905088565b828054610ce79061159e565b90600052602060002090601f016020900481019282610d095760008555610d50565b82601f10610d2257805160ff1916838001178555610d50565b82800160010185558215610d50579182015b82811115610d4f578251825591602001919060010190610d34565b5b509050610d5d9190610deb565b5090565b6040518061010001604052806000801916815260200160608152602001600073ffffffffffffffffffffffffffffffffffffffff168152602001600081526020016000815260200160008152602001600073ffffffffffffffffffffffffffffffffffffffff168152602001600073ffffffffffffffffffffffffffffffffffffffff1681525090565b5b80821115610e04576000816000905550600101610dec565b5090565b6000604051905090565b600080fd5b600080fd5b6000819050919050565b610e2f81610e1c565b8114610e3a57600080fd5b50565b600081359050610e4c81610e26565b92915050565b6000819050919050565b610e6581610e52565b8114610e7057600080fd5b50565b600081359050610e8281610e5c565b92915050565b600080fd5b600080fd5b6000601f19601f8301169050919050565b7f4e487b7100000000000000000000000000000000000000000000000000000000600052604160045260246000fd5b610edb82610e92565b810181811067ffffffffffffffff82111715610efa57610ef9610ea3565b5b80604052505050565b6000610f0d610e08565b9050610f198282610ed2565b919050565b600067ffffffffffffffff821115610f3957610f38610ea3565b5b610f4282610e92565b9050602081019050919050565b82818337600083830152505050565b6000610f71610f6c84610f1e565b610f03565b905082815260208101848484011115610f8d57610f8c610e8d565b5b610f98848285610f4f565b509392505050565b600082601f830112610fb557610fb4610e88565b5b8135610fc5848260208601610f5e565b91505092915050565b600073ffffffffffffffffffffffffffffffffffffffff82169050919050565b6000610ff982610fce565b9050919050565b61100981610fee565b811461101457600080fd5b50565b60008135905061102681611000565b92915050565b600080600080600080600060e0888a03121561104b5761104a610e12565b5b60006110598a828b01610e3d565b975050602061106a8a828b01610e73565b965050604088013567ffffffffffffffff81111561108b5761108a610e17565b5b6110978a828b01610fa0565b95505060606110a88a828b01611017565b94505060806110b98a828b01610e3d565b93505060a06110ca8a828b01610e3d565b92505060c06110db8a828b01611017565b91505092959891949750929550565b600060208284031215611100576110ff610e12565b5b600061110e84828501610e3d565b91505092915050565b61112081610e52565b82525050565b600081519050919050565b600082825260208201905092915050565b60005b83811015611160578082015181840152602081019050611145565b8381111561116f576000848401525b50505050565b600061118082611126565b61118a8185611131565b935061119a818560208601611142565b6111a381610e92565b840191505092915050565b6111b781610fee565b82525050565b6111c681610e1c565b82525050565b6000610100830160008301516111e56000860182611117565b50602083015184820360208601526111fd8282611175565b915050604083015161121260408601826111ae565b50606083015161122560608601826111bd565b50608083015161123860808601826111bd565b5060a083015161124b60a08601826111bd565b5060c083015161125e60c08601826111ae565b5060e083015161127160e08601826111ae565b508091505092915050565b6000602082019050818103600083015261129681846111cc565b905092915050565b6000819050919050565b6112b18161129e565b82525050565b60006020820190506112cc60008301846112a8565b92915050565b6112db81610e52565b82525050565b600082825260208201905092915050565b60006112fd82611126565b61130781856112e1565b9350611317818560208601611142565b61132081610e92565b840191505092915050565b61133481610fee565b82525050565b61134381610e1c565b82525050565b60006101008201905061135f600083018b6112d2565b8181036020830152611371818a6112f2565b9050611380604083018961132b565b61138d606083018861133a565b61139a608083018761133a565b6113a760a083018661133a565b6113b460c083018561132b565b6113c160e083018461132b565b9998505050505050505050565b6000819050919050565b60006113f36113ee6113e984610fce565b6113ce565b610fce565b9050919050565b6000611405826113d8565b9050919050565b6000611417826113fa565b9050919050565b6114278161140c565b82525050565b600060a08201905061144260008301886112d2565b61144f602083018761133a565b818103604083015261146181866112f2565b9050611470606083018561141e565b61147d608083018461133a565b9695505050505050565b60008151905061149681610e26565b92915050565b6000602082840312156114b2576114b1610e12565b5b60006114c084828501611487565b91505092915050565b60006080820190506114de60008301876112d2565b6114eb602083018661133a565b81810360408301526114fd81856112f2565b905061150c606083018461133a565b95945050505050565b600060a08201905061152a600083018861133a565b61153760208301876112d2565b818103604083015261154981866112f2565b9050611558606083018561133a565b611565608083018461132b565b9695505050505050565b7f4e487b7100000000000000000000000000000000000000000000000000000000600052602260045260246000fd5b600060028204905060018216806115b657607f821691505b6020821081036115c9576115c861156f565b5b50919050565b60006080820190506115e4600083018761132b565b6115f160208301866112d2565b6115fe604083018561133a565b818103606083015261161081846112f2565b905095945050505050565b6000604082019050611630600083018561133a565b61163d602083018461133a565b9392505050565b600080fd5b60008151905061165881611000565b92915050565b600061166982610fee565b9050919050565b6116798161165e565b811461168457600080fd5b50565b60008151905061169681611670565b92915050565b60008115159050919050565b6116b18161169c565b81146116bc57600080fd5b50565b6000815190506116ce816116a8565b92915050565b600060e082840312156116ea576116e9611644565b5b6116f460e0610f03565b90506000611704848285016116bf565b6000830152506020611718848285016116bf565b602083015250604061172c848285016116bf565b6040830152506060611740848285016116bf565b6060830152506080611754848285016116bf565b60808301525060a061176884828501611487565b60a08301525060c061177c84828501611487565b60c08301525092915050565b6117918161129e565b811461179c57600080fd5b50565b6000815190506117ae81611788565b92915050565b600061020082840312156117cb576117ca611644565b5b6117d6610140610f03565b905060006117e684828501611649565b60008301525060206117fa84828501611649565b602083015250604061180e84828501611687565b6040830152506060611822848285016116bf565b6060830152506080611836848285016116d4565b60808301525061016061184b8482850161179f565b60a0830152506101806118608482850161179f565b60c0830152506101a061187584828501611487565b60e0830152506101c061188a84828501611487565b610100830152506101e06118a084828501611487565b6101208301525092915050565b600061020082840312156118c4576118c3610e12565b5b60006118d2848285016117b4565b9150509291505056fea2646970667358221220279751da944a2eb7dd25920428c970877ef6a10dcc6e7ac055a588fe84f0137464736f6c634300080e0033",
					"opcodes": "PUSH1 0x80 PUSH1 0x40 MSTORE CALLVALUE DUP1 ISZERO PUSH3 0x11 JUMPI PUSH1 0x0 DUP1 REVERT JUMPDEST POP PUSH1 0x40 MLOAD PUSH3 0x1A3B CODESIZE SUB DUP1 PUSH3 0x1A3B DUP4 CODECOPY DUP2 DUP2 ADD PUSH1 0x40 MSTORE DUP2 ADD SWAP1 PUSH3 0x37 SWAP2 SWAP1 PUSH3 0xE8 JUMP JUMPDEST DUP1 PUSH1 0x0 DUP1 PUSH2 0x100 EXP DUP2 SLOAD DUP2 PUSH20 0xFFFFFFFFFFFFFFFFFFFFFFFFFFFFFFFFFFFFFFFF MUL NOT AND SWAP1 DUP4 PUSH20 0xFFFFFFFFFFFFFFFFFFFFFFFFFFFFFFFFFFFFFFFF AND MUL OR SWAP1 SSTORE POP POP PUSH3 0x11A JUMP JUMPDEST PUSH1 0x0 DUP1 REVERT JUMPDEST PUSH1 0x0 PUSH20 0xFFFFFFFFFFFFFFFFFFFFFFFFFFFFFFFFFFFFFFFF DUP3 AND SWAP1 POP SWAP2 SWAP1 POP JUMP JUMPDEST PUSH1 0x0 PUSH3 0xB0 DUP3 PUSH3 0x83 JUMP JUMPDEST SWAP1 POP SWAP2 SWAP1 POP JUMP JUMPDEST PUSH3 0xC2 DUP2 PUSH3 0xA3 JUMP JUMPDEST DUP2 EQ PUSH3 0xCE JUMPI PUSH1 0x0 DUP1 REVERT JUMPDEST POP JUMP JUMPDEST PUSH1 0x0 DUP2 MLOAD SWAP1 POP PUSH3 0xE2 DUP2 PUSH3 0xB7 JUMP JUMPDEST SWAP3 SWAP2 POP POP JUMP JUMPDEST PUSH1 0x0 PUSH1 0x20 DUP3 DUP5 SUB SLT ISZERO PUSH3 0x101 JUMPI PUSH3 0x100 PUSH3 0x7E JUMP JUMPDEST JUMPDEST PUSH1 0x0 PUSH3 0x111 DUP5 DUP3 DUP6 ADD PUSH3 0xD1 JUMP JUMPDEST SWAP2 POP POP SWAP3 SWAP2 POP POP JUMP JUMPDEST PUSH2 0x1911 DUP1 PUSH3 0x12A PUSH1 0x0 CODECOPY PUSH1 0x0 RETURN INVALID PUSH1 0x80 PUSH1 0x40 MSTORE CALLVALUE DUP1 ISZERO PUSH2 0x10 JUMPI PUSH1 0x0 DUP1 REVERT JUMPDEST POP PUSH1 0x4 CALLDATASIZE LT PUSH2 0x57 JUMPI PUSH1 0x0 CALLDATALOAD PUSH1 0xE0 SHR DUP1 PUSH4 0x43C2ED99 EQ PUSH2 0x5C JUMPI DUP1 PUSH4 0xC58343EF EQ PUSH2 0x78 JUMPI DUP1 PUSH4 0xD247F92B EQ PUSH2 0xA8 JUMPI DUP1 PUSH4 0xE5DA66AF EQ PUSH2 0xC4 JUMPI DUP1 PUSH4 0xF418AD7A EQ PUSH2 0xF4 JUMPI JUMPDEST PUSH1 0x0 DUP1 REVERT JUMPDEST PUSH2 0x76 PUSH1 0x4 DUP1 CALLDATASIZE SUB DUP2 ADD SWAP1 PUSH2 0x71 SWAP2 SWAP1 PUSH2 0x102C JUMP JUMPDEST PUSH2 0x12B JUMP JUMPDEST STOP JUMPDEST PUSH2 0x92 PUSH1 0x4 DUP1 CALLDATASIZE SUB DUP2 ADD SWAP1 PUSH2 0x8D SWAP2 SWAP1 PUSH2 0x10EA JUMP JUMPDEST PUSH2 0x45D JUMP JUMPDEST PUSH1 0x40 MLOAD PUSH2 0x9F SWAP2 SWAP1 PUSH2 0x127C JUMP JUMPDEST PUSH1 0x40 MLOAD DUP1 SWAP2 SUB SWAP1 RETURN JUMPDEST PUSH2 0xC2 PUSH1 0x4 DUP1 CALLDATASIZE SUB DUP2 ADD SWAP1 PUSH2 0xBD SWAP2 SWAP1 PUSH2 0x10EA JUMP JUMPDEST PUSH2 0x647 JUMP JUMPDEST STOP JUMPDEST PUSH2 0xDE PUSH1 0x4 DUP1 CALLDATASIZE SUB DUP2 ADD SWAP1 PUSH2 0xD9 SWAP2 SWAP1 PUSH2 0x10EA JUMP JUMPDEST PUSH2 0x912 JUMP JUMPDEST PUSH1 0x40 MLOAD PUSH2 0xEB SWAP2 SWAP1 PUSH2 0x12B7 JUMP JUMPDEST PUSH1 0x40 MLOAD DUP1 SWAP2 SUB SWAP1 RETURN JUMPDEST PUSH2 0x10E PUSH1 0x4 DUP1 CALLDATASIZE SUB DUP2 ADD SWAP1 PUSH2 0x109 SWAP2 SWAP1 PUSH2 0x10EA JUMP JUMPDEST PUSH2 0xBAB JUMP JUMPDEST PUSH1 0x40 MLOAD PUSH2 0x122 SWAP9 SWAP8 SWAP7 SWAP6 SWAP5 SWAP4 SWAP3 SWAP2 SWAP1 PUSH2 0x1349 JUMP JUMPDEST PUSH1 0x40 MLOAD DUP1 SWAP2 SUB SWAP1 RETURN JUMPDEST PUSH1 0x0 DUP5 SWAP1 POP PUSH1 0x0 DUP1 DUP1 SLOAD SWAP1 PUSH2 0x100 EXP SWAP1 DIV PUSH20 0xFFFFFFFFFFFFFFFFFFFFFFFFFFFFFFFFFFFFFFFF AND PUSH20 0xFFFFFFFFFFFFFFFFFFFFFFFFFFFFFFFFFFFFFFFF AND PUSH4 0x11DF92F1 DUP10 DUP4 DUP11 DUP7 DUP11 PUSH1 0x40 MLOAD DUP7 PUSH4 0xFFFFFFFF AND PUSH1 0xE0 SHL DUP2 MSTORE PUSH1 0x4 ADD PUSH2 0x192 SWAP6 SWAP5 SWAP4 SWAP3 SWAP2 SWAP1 PUSH2 0x142D JUMP JUMPDEST PUSH1 0x20 PUSH1 0x40 MLOAD DUP1 DUP4 SUB DUP2 PUSH1 0x0 DUP8 GAS CALL ISZERO DUP1 ISZERO PUSH2 0x1B1 JUMPI RETURNDATASIZE PUSH1 0x0 DUP1 RETURNDATACOPY RETURNDATASIZE PUSH1 0x0 REVERT JUMPDEST POP POP POP POP PUSH1 0x40 MLOAD RETURNDATASIZE PUSH1 0x1F NOT PUSH1 0x1F DUP3 ADD AND DUP3 ADD DUP1 PUSH1 0x40 MSTORE POP DUP2 ADD SWAP1 PUSH2 0x1D5 SWAP2 SWAP1 PUSH2 0x149C JUMP JUMPDEST POP PUSH1 0x0 DUP1 SLOAD SWAP1 PUSH2 0x100 EXP SWAP1 DIV PUSH20 0xFFFFFFFFFFFFFFFFFFFFFFFFFFFFFFFFFFFFFFFF AND PUSH20 0xFFFFFFFFFFFFFFFFFFFFFFFFFFFFFFFFFFFFFFFF AND PUSH4 0x473C45FE DUP10 DUP4 DUP11 DUP9 PUSH1 0x40 MLOAD DUP6 PUSH4 0xFFFFFFFF AND PUSH1 0xE0 SHL DUP2 MSTORE PUSH1 0x4 ADD PUSH2 0x235 SWAP5 SWAP4 SWAP3 SWAP2 SWAP1 PUSH2 0x14C9 JUMP JUMPDEST PUSH1 0x0 PUSH1 0x40 MLOAD DUP1 DUP4 SUB DUP2 PUSH1 0x0 DUP8 DUP1 EXTCODESIZE ISZERO DUP1 ISZERO PUSH2 0x24F JUMPI PUSH1 0x0 DUP1 REVERT JUMPDEST POP GAS CALL ISZERO DUP1 ISZERO PUSH2 0x263 JUMPI RETURNDATASIZE PUSH1 0x0 DUP1 RETURNDATACOPY RETURNDATASIZE PUSH1 0x0 REVERT JUMPDEST POP POP POP POP PUSH1 0x40 MLOAD DUP1 PUSH2 0x100 ADD PUSH1 0x40 MSTORE DUP1 DUP10 DUP2 MSTORE PUSH1 0x20 ADD DUP9 DUP2 MSTORE PUSH1 0x20 ADD DUP8 PUSH20 0xFFFFFFFFFFFFFFFFFFFFFFFFFFFFFFFFFFFFFFFF AND DUP2 MSTORE PUSH1 0x20 ADD DUP7 DUP2 MSTORE PUSH1 0x20 ADD DUP6 DUP2 MSTORE PUSH1 0x20 ADD DUP3 DUP2 MSTORE PUSH1 0x20 ADD DUP5 PUSH20 0xFFFFFFFFFFFFFFFFFFFFFFFFFFFFFFFFFFFFFFFF AND DUP2 MSTORE PUSH1 0x20 ADD CALLER PUSH20 0xFFFFFFFFFFFFFFFFFFFFFFFFFFFFFFFFFFFFFFFF AND DUP2 MSTORE POP PUSH1 0x1 PUSH1 0x0 DUP12 DUP2 MSTORE PUSH1 0x20 ADD SWAP1 DUP2 MSTORE PUSH1 0x20 ADD PUSH1 0x0 KECCAK256 PUSH1 0x0 DUP3 ADD MLOAD DUP2 PUSH1 0x0 ADD SSTORE PUSH1 0x20 DUP3 ADD MLOAD DUP2 PUSH1 0x1 ADD SWAP1 DUP1 MLOAD SWAP1 PUSH1 0x20 ADD SWAP1 PUSH2 0x31C SWAP3 SWAP2 SWAP1 PUSH2 0xCDB JUMP JUMPDEST POP PUSH1 0x40 DUP3 ADD MLOAD DUP2 PUSH1 0x2 ADD PUSH1 0x0 PUSH2 0x100 EXP DUP2 SLOAD DUP2 PUSH20 0xFFFFFFFFFFFFFFFFFFFFFFFFFFFFFFFFFFFFFFFF MUL NOT AND SWAP1 DUP4 PUSH20 0xFFFFFFFFFFFFFFFFFFFFFFFFFFFFFFFFFFFFFFFF AND MUL OR SWAP1 SSTORE POP PUSH1 0x60 DUP3 ADD MLOAD DUP2 PUSH1 0x3 ADD SSTORE PUSH1 0x80 DUP3 ADD MLOAD DUP2 PUSH1 0x4 ADD SSTORE PUSH1 0xA0 DUP3 ADD MLOAD DUP2 PUSH1 0x5 ADD SSTORE PUSH1 0xC0 DUP3 ADD MLOAD DUP2 PUSH1 0x6 ADD PUSH1 0x0 PUSH2 0x100 EXP DUP2 SLOAD DUP2 PUSH20 0xFFFFFFFFFFFFFFFFFFFFFFFFFFFFFFFFFFFFFFFF MUL NOT AND SWAP1 DUP4 PUSH20 0xFFFFFFFFFFFFFFFFFFFFFFFFFFFFFFFFFFFFFFFF AND MUL OR SWAP1 SSTORE POP PUSH1 0xE0 DUP3 ADD MLOAD DUP2 PUSH1 0x7 ADD PUSH1 0x0 PUSH2 0x100 EXP DUP2 SLOAD DUP2 PUSH20 0xFFFFFFFFFFFFFFFFFFFFFFFFFFFFFFFFFFFFFFFF MUL NOT AND SWAP1 DUP4 PUSH20 0xFFFFFFFFFFFFFFFFFFFFFFFFFFFFFFFFFFFFFFFF AND MUL OR SWAP1 SSTORE POP SWAP1 POP POP PUSH32 0x30B5BFD849DF20E3E537CF95D7077E1AA0FCD8CC44832C6ABD42DA4534099F36 DUP10 DUP10 DUP10 DUP5 DUP8 PUSH1 0x40 MLOAD PUSH2 0x44A SWAP6 SWAP5 SWAP4 SWAP3 SWAP2 SWAP1 PUSH2 0x1515 JUMP JUMPDEST PUSH1 0x40 MLOAD DUP1 SWAP2 SUB SWAP1 LOG1 POP POP POP POP POP POP POP POP POP JUMP JUMPDEST PUSH2 0x465 PUSH2 0xD61 JUMP JUMPDEST PUSH1 0x1 PUSH1 0x0 DUP4 DUP2 MSTORE PUSH1 0x20 ADD SWAP1 DUP2 MSTORE PUSH1 0x20 ADD PUSH1 0x0 KECCAK256 PUSH1 0x40 MLOAD DUP1 PUSH2 0x100 ADD PUSH1 0x40 MSTORE SWAP1 DUP2 PUSH1 0x0 DUP3 ADD SLOAD DUP2 MSTORE PUSH1 0x20 ADD PUSH1 0x1 DUP3 ADD DUP1 SLOAD PUSH2 0x49E SWAP1 PUSH2 0x159E JUMP JUMPDEST DUP1 PUSH1 0x1F ADD PUSH1 0x20 DUP1 SWAP2 DIV MUL PUSH1 0x20 ADD PUSH1 0x40 MLOAD SWAP1 DUP2 ADD PUSH1 0x40 MSTORE DUP1 SWAP3 SWAP2 SWAP1 DUP2 DUP2 MSTORE PUSH1 0x20 ADD DUP3 DUP1 SLOAD PUSH2 0x4CA SWAP1 PUSH2 0x159E JUMP JUMPDEST DUP1 ISZERO PUSH2 0x517 JUMPI DUP1 PUSH1 0x1F LT PUSH2 0x4EC JUMPI PUSH2 0x100 DUP1 DUP4 SLOAD DIV MUL DUP4 MSTORE SWAP2 PUSH1 0x20 ADD SWAP2 PUSH2 0x517 JUMP JUMPDEST DUP3 ADD SWAP2 SWAP1 PUSH1 0x0 MSTORE PUSH1 0x20 PUSH1 0x0 KECCAK256 SWAP1 JUMPDEST DUP2 SLOAD DUP2 MSTORE SWAP1 PUSH1 0x1 ADD SWAP1 PUSH1 0x20 ADD DUP1 DUP4 GT PUSH2 0x4FA JUMPI DUP3 SWAP1 SUB PUSH1 0x1F AND DUP3 ADD SWAP2 JUMPDEST POP POP POP POP POP DUP2 MSTORE PUSH1 0x20 ADD PUSH1 0x2 DUP3 ADD PUSH1 0x0 SWAP1 SLOAD SWAP1 PUSH2 0x100 EXP SWAP1 DIV PUSH20 0xFFFFFFFFFFFFFFFFFFFFFFFFFFFFFFFFFFFFFFFF AND PUSH20 0xFFFFFFFFFFFFFFFFFFFFFFFFFFFFFFFFFFFFFFFF AND PUSH20 0xFFFFFFFFFFFFFFFFFFFFFFFFFFFFFFFFFFFFFFFF AND DUP2 MSTORE PUSH1 0x20 ADD PUSH1 0x3 DUP3 ADD SLOAD DUP2 MSTORE PUSH1 0x20 ADD PUSH1 0x4 DUP3 ADD SLOAD DUP2 MSTORE PUSH1 0x20 ADD PUSH1 0x5 DUP3 ADD SLOAD DUP2 MSTORE PUSH1 0x20 ADD PUSH1 0x6 DUP3 ADD PUSH1 0x0 SWAP1 SLOAD SWAP1 PUSH2 0x100 EXP SWAP1 DIV PUSH20 0xFFFFFFFFFFFFFFFFFFFFFFFFFFFFFFFFFFFFFFFF AND PUSH20 0xFFFFFFFFFFFFFFFFFFFFFFFFFFFFFFFFFFFFFFFF AND PUSH20 0xFFFFFFFFFFFFFFFFFFFFFFFFFFFFFFFFFFFFFFFF AND DUP2 MSTORE PUSH1 0x20 ADD PUSH1 0x7 DUP3 ADD PUSH1 0x0 SWAP1 SLOAD SWAP1 PUSH2 0x100 EXP SWAP1 DIV PUSH20 0xFFFFFFFFFFFFFFFFFFFFFFFFFFFFFFFFFFFFFFFF AND PUSH20 0xFFFFFFFFFFFFFFFFFFFFFFFFFFFFFFFFFFFFFFFF AND PUSH20 0xFFFFFFFFFFFFFFFFFFFFFFFFFFFFFFFFFFFFFFFF AND DUP2 MSTORE POP POP SWAP1 POP SWAP2 SWAP1 POP JUMP JUMPDEST PUSH1 0x0 PUSH1 0x1 PUSH1 0x0 DUP4 DUP2 MSTORE PUSH1 0x20 ADD SWAP1 DUP2 MSTORE PUSH1 0x20 ADD PUSH1 0x0 KECCAK256 PUSH1 0x40 MLOAD DUP1 PUSH2 0x100 ADD PUSH1 0x40 MSTORE SWAP1 DUP2 PUSH1 0x0 DUP3 ADD SLOAD DUP2 MSTORE PUSH1 0x20 ADD PUSH1 0x1 DUP3 ADD DUP1 SLOAD PUSH2 0x682 SWAP1 PUSH2 0x159E JUMP JUMPDEST DUP1 PUSH1 0x1F ADD PUSH1 0x20 DUP1 SWAP2 DIV MUL PUSH1 0x20 ADD PUSH1 0x40 MLOAD SWAP1 DUP2 ADD PUSH1 0x40 MSTORE DUP1 SWAP3 SWAP2 SWAP1 DUP2 DUP2 MSTORE PUSH1 0x20 ADD DUP3 DUP1 SLOAD PUSH2 0x6AE SWAP1 PUSH2 0x159E JUMP JUMPDEST DUP1 ISZERO PUSH2 0x6FB JUMPI DUP1 PUSH1 0x1F LT PUSH2 0x6D0 JUMPI PUSH2 0x100 DUP1 DUP4 SLOAD DIV MUL DUP4 MSTORE SWAP2 PUSH1 0x20 ADD SWAP2 PUSH2 0x6FB JUMP JUMPDEST DUP3 ADD SWAP2 SWAP1 PUSH1 0x0 MSTORE PUSH1 0x20 PUSH1 0x0 KECCAK256 SWAP1 JUMPDEST DUP2 SLOAD DUP2 MSTORE SWAP1 PUSH1 0x1 ADD SWAP1 PUSH1 0x20 ADD DUP1 DUP4 GT PUSH2 0x6DE JUMPI DUP3 SWAP1 SUB PUSH1 0x1F AND DUP3 ADD SWAP2 JUMPDEST POP POP POP POP POP DUP2 MSTORE PUSH1 0x20 ADD PUSH1 0x2 DUP3 ADD PUSH1 0x0 SWAP1 SLOAD SWAP1 PUSH2 0x100 EXP SWAP1 DIV PUSH20 0xFFFFFFFFFFFFFFFFFFFFFFFFFFFFFFFFFFFFFFFF AND PUSH20 0xFFFFFFFFFFFFFFFFFFFFFFFFFFFFFFFFFFFFFFFF AND PUSH20 0xFFFFFFFFFFFFFFFFFFFFFFFFFFFFFFFFFFFFFFFF AND DUP2 MSTORE PUSH1 0x20 ADD PUSH1 0x3 DUP3 ADD SLOAD DUP2 MSTORE PUSH1 0x20 ADD PUSH1 0x4 DUP3 ADD SLOAD DUP2 MSTORE PUSH1 0x20 ADD PUSH1 0x5 DUP3 ADD SLOAD DUP2 MSTORE PUSH1 0x20 ADD PUSH1 0x6 DUP3 ADD PUSH1 0x0 SWAP1 SLOAD SWAP1 PUSH2 0x100 EXP SWAP1 DIV PUSH20 0xFFFFFFFFFFFFFFFFFFFFFFFFFFFFFFFFFFFFFFFF AND PUSH20 0xFFFFFFFFFFFFFFFFFFFFFFFFFFFFFFFFFFFFFFFF AND PUSH20 0xFFFFFFFFFFFFFFFFFFFFFFFFFFFFFFFFFFFFFFFF AND DUP2 MSTORE PUSH1 0x20 ADD PUSH1 0x7 DUP3 ADD PUSH1 0x0 SWAP1 SLOAD SWAP1 PUSH2 0x100 EXP SWAP1 DIV PUSH20 0xFFFFFFFFFFFFFFFFFFFFFFFFFFFFFFFFFFFFFFFF AND PUSH20 0xFFFFFFFFFFFFFFFFFFFFFFFFFFFFFFFFFFFFFFFF AND PUSH20 0xFFFFFFFFFFFFFFFFFFFFFFFFFFFFFFFFFFFFFFFF AND DUP2 MSTORE POP POP SWAP1 POP PUSH1 0x0 DUP1 SLOAD SWAP1 PUSH2 0x100 EXP SWAP1 DIV PUSH20 0xFFFFFFFFFFFFFFFFFFFFFFFFFFFFFFFFFFFFFFFF AND PUSH20 0xFFFFFFFFFFFFFFFFFFFFFFFFFFFFFFFFFFFFFFFF AND PUSH4 0x5E9A79A9 ADDRESS DUP4 PUSH1 0x0 ADD MLOAD DUP5 PUSH1 0xA0 ADD MLOAD DUP6 PUSH1 0x20 ADD MLOAD PUSH1 0x40 MLOAD DUP6 PUSH4 0xFFFFFFFF AND PUSH1 0xE0 SHL DUP2 MSTORE PUSH1 0x4 ADD PUSH2 0x891 SWAP5 SWAP4 SWAP3 SWAP2 SWAP1 PUSH2 0x15CF JUMP JUMPDEST PUSH1 0x20 PUSH1 0x40 MLOAD DUP1 DUP4 SUB DUP2 PUSH1 0x0 DUP8 GAS CALL ISZERO DUP1 ISZERO PUSH2 0x8B0 JUMPI RETURNDATASIZE PUSH1 0x0 DUP1 RETURNDATACOPY RETURNDATASIZE PUSH1 0x0 REVERT JUMPDEST POP POP POP POP PUSH1 0x40 MLOAD RETURNDATASIZE PUSH1 0x1F NOT PUSH1 0x1F DUP3 ADD AND DUP3 ADD DUP1 PUSH1 0x40 MSTORE POP DUP2 ADD SWAP1 PUSH2 0x8D4 SWAP2 SWAP1 PUSH2 0x149C JUMP JUMPDEST POP PUSH32 0x3310CCC874795089B108B55B552FEB307812189B9B162A282F97F6C5D0399927 DUP3 TIMESTAMP PUSH1 0x40 MLOAD PUSH2 0x906 SWAP3 SWAP2 SWAP1 PUSH2 0x161B JUMP JUMPDEST PUSH1 0x40 MLOAD DUP1 SWAP2 SUB SWAP1 LOG1 POP POP JUMP JUMPDEST PUSH1 0x0 DUP1 PUSH1 0x1 PUSH1 0x0 DUP5 DUP2 MSTORE PUSH1 0x20 ADD SWAP1 DUP2 MSTORE PUSH1 0x20 ADD PUSH1 0x0 KECCAK256 PUSH1 0x40 MLOAD DUP1 PUSH2 0x100 ADD PUSH1 0x40 MSTORE SWAP1 DUP2 PUSH1 0x0 DUP3 ADD SLOAD DUP2 MSTORE PUSH1 0x20 ADD PUSH1 0x1 DUP3 ADD DUP1 SLOAD PUSH2 0x94E SWAP1 PUSH2 0x159E JUMP JUMPDEST DUP1 PUSH1 0x1F ADD PUSH1 0x20 DUP1 SWAP2 DIV MUL PUSH1 0x20 ADD PUSH1 0x40 MLOAD SWAP1 DUP2 ADD PUSH1 0x40 MSTORE DUP1 SWAP3 SWAP2 SWAP1 DUP2 DUP2 MSTORE PUSH1 0x20 ADD DUP3 DUP1 SLOAD PUSH2 0x97A SWAP1 PUSH2 0x159E JUMP JUMPDEST DUP1 ISZERO PUSH2 0x9C7 JUMPI DUP1 PUSH1 0x1F LT PUSH2 0x99C JUMPI PUSH2 0x100 DUP1 DUP4 SLOAD DIV MUL DUP4 MSTORE SWAP2 PUSH1 0x20 ADD SWAP2 PUSH2 0x9C7 JUMP JUMPDEST DUP3 ADD SWAP2 SWAP1 PUSH1 0x0 MSTORE PUSH1 0x20 PUSH1 0x0 KECCAK256 SWAP1 JUMPDEST DUP2 SLOAD DUP2 MSTORE SWAP1 PUSH1 0x1 ADD SWAP1 PUSH1 0x20 ADD DUP1 DUP4 GT PUSH2 0x9AA JUMPI DUP3 SWAP1 SUB PUSH1 0x1F AND DUP3 ADD SWAP2 JUMPDEST POP POP POP POP POP DUP2 MSTORE PUSH1 0x20 ADD PUSH1 0x2 DUP3 ADD PUSH1 0x0 SWAP1 SLOAD SWAP1 PUSH2 0x100 EXP SWAP1 DIV PUSH20 0xFFFFFFFFFFFFFFFFFFFFFFFFFFFFFFFFFFFFFFFF AND PUSH20 0xFFFFFFFFFFFFFFFFFFFFFFFFFFFFFFFFFFFFFFFF AND PUSH20 0xFFFFFFFFFFFFFFFFFFFFFFFFFFFFFFFFFFFFFFFF AND DUP2 MSTORE PUSH1 0x20 ADD PUSH1 0x3 DUP3 ADD SLOAD DUP2 MSTORE PUSH1 0x20 ADD PUSH1 0x4 DUP3 ADD SLOAD DUP2 MSTORE PUSH1 0x20 ADD PUSH1 0x5 DUP3 ADD SLOAD DUP2 MSTORE PUSH1 0x20 ADD PUSH1 0x6 DUP3 ADD PUSH1 0x0 SWAP1 SLOAD SWAP1 PUSH2 0x100 EXP SWAP1 DIV PUSH20 0xFFFFFFFFFFFFFFFFFFFFFFFFFFFFFFFFFFFFFFFF AND PUSH20 0xFFFFFFFFFFFFFFFFFFFFFFFFFFFFFFFFFFFFFFFF AND PUSH20 0xFFFFFFFFFFFFFFFFFFFFFFFFFFFFFFFFFFFFFFFF AND DUP2 MSTORE PUSH1 0x20 ADD PUSH1 0x7 DUP3 ADD PUSH1 0x0 SWAP1 SLOAD SWAP1 PUSH2 0x100 EXP SWAP1 DIV PUSH20 0xFFFFFFFFFFFFFFFFFFFFFFFFFFFFFFFFFFFFFFFF AND PUSH20 0xFFFFFFFFFFFFFFFFFFFFFFFFFFFFFFFFFFFFFFFF AND PUSH20 0xFFFFFFFFFFFFFFFFFFFFFFFFFFFFFFFFFFFFFFFF AND DUP2 MSTORE POP POP SWAP1 POP PUSH1 0x0 DUP1 SLOAD SWAP1 PUSH2 0x100 EXP SWAP1 DIV PUSH20 0xFFFFFFFFFFFFFFFFFFFFFFFFFFFFFFFFFFFFFFFF AND PUSH20 0xFFFFFFFFFFFFFFFFFFFFFFFFFFFFFFFFFFFFFFFF AND PUSH4 0xA9904F9B ADDRESS DUP4 PUSH1 0x0 ADD MLOAD DUP5 PUSH1 0xA0 ADD MLOAD DUP6 PUSH1 0x20 ADD MLOAD PUSH1 0x40 MLOAD DUP6 PUSH4 0xFFFFFFFF AND PUSH1 0xE0 SHL DUP2 MSTORE PUSH1 0x4 ADD PUSH2 0xB5D SWAP5 SWAP4 SWAP3 SWAP2 SWAP1 PUSH2 0x15CF JUMP JUMPDEST PUSH2 0x200 PUSH1 0x40 MLOAD DUP1 DUP4 SUB DUP2 DUP7 GAS STATICCALL ISZERO DUP1 ISZERO PUSH2 0xB7B JUMPI RETURNDATASIZE PUSH1 0x0 DUP1 RETURNDATACOPY RETURNDATASIZE PUSH1 0x0 REVERT JUMPDEST POP POP POP POP PUSH1 0x40 MLOAD RETURNDATASIZE PUSH1 0x1F NOT PUSH1 0x1F DUP3 ADD AND DUP3 ADD DUP1 PUSH1 0x40 MSTORE POP DUP2 ADD SWAP1 PUSH2 0xB9F SWAP2 SWAP1 PUSH2 0x18AD JUMP JUMPDEST PUSH1 0xC0 ADD MLOAD SWAP2 POP POP SWAP2 SWAP1 POP JUMP JUMPDEST PUSH1 0x1 PUSH1 0x20 MSTORE DUP1 PUSH1 0x0 MSTORE PUSH1 0x40 PUSH1 0x0 KECCAK256 PUSH1 0x0 SWAP2 POP SWAP1 POP DUP1 PUSH1 0x0 ADD SLOAD SWAP1 DUP1 PUSH1 0x1 ADD DUP1 SLOAD PUSH2 0xBD4 SWAP1 PUSH2 0x159E JUMP JUMPDEST DUP1 PUSH1 0x1F ADD PUSH1 0x20 DUP1 SWAP2 DIV MUL PUSH1 0x20 ADD PUSH1 0x40 MLOAD SWAP1 DUP2 ADD PUSH1 0x40 MSTORE DUP1 SWAP3 SWAP2 SWAP1 DUP2 DUP2 MSTORE PUSH1 0x20 ADD DUP3 DUP1 SLOAD PUSH2 0xC00 SWAP1 PUSH2 0x159E JUMP JUMPDEST DUP1 ISZERO PUSH2 0xC4D JUMPI DUP1 PUSH1 0x1F LT PUSH2 0xC22 JUMPI PUSH2 0x100 DUP1 DUP4 SLOAD DIV MUL DUP4 MSTORE SWAP2 PUSH1 0x20 ADD SWAP2 PUSH2 0xC4D JUMP JUMPDEST DUP3 ADD SWAP2 SWAP1 PUSH1 0x0 MSTORE PUSH1 0x20 PUSH1 0x0 KECCAK256 SWAP1 JUMPDEST DUP2 SLOAD DUP2 MSTORE SWAP1 PUSH1 0x1 ADD SWAP1 PUSH1 0x20 ADD DUP1 DUP4 GT PUSH2 0xC30 JUMPI DUP3 SWAP1 SUB PUSH1 0x1F AND DUP3 ADD SWAP2 JUMPDEST POP POP POP POP POP SWAP1 DUP1 PUSH1 0x2 ADD PUSH1 0x0 SWAP1 SLOAD SWAP1 PUSH2 0x100 EXP SWAP1 DIV PUSH20 0xFFFFFFFFFFFFFFFFFFFFFFFFFFFFFFFFFFFFFFFF AND SWAP1 DUP1 PUSH1 0x3 ADD SLOAD SWAP1 DUP1 PUSH1 0x4 ADD SLOAD SWAP1 DUP1 PUSH1 0x5 ADD SLOAD SWAP1 DUP1 PUSH1 0x6 ADD PUSH1 0x0 SWAP1 SLOAD SWAP1 PUSH2 0x100 EXP SWAP1 DIV PUSH20 0xFFFFFFFFFFFFFFFFFFFFFFFFFFFFFFFFFFFFFFFF AND SWAP1 DUP1 PUSH1 0x7 ADD PUSH1 0x0 SWAP1 SLOAD SWAP1 PUSH2 0x100 EXP SWAP1 DIV PUSH20 0xFFFFFFFFFFFFFFFFFFFFFFFFFFFFFFFFFFFFFFFF AND SWAP1 POP DUP9 JUMP JUMPDEST DUP3 DUP1 SLOAD PUSH2 0xCE7 SWAP1 PUSH2 0x159E JUMP JUMPDEST SWAP1 PUSH1 0x0 MSTORE PUSH1 0x20 PUSH1 0x0 KECCAK256 SWAP1 PUSH1 0x1F ADD PUSH1 0x20 SWAP1 DIV DUP2 ADD SWAP3 DUP3 PUSH2 0xD09 JUMPI PUSH1 0x0 DUP6 SSTORE PUSH2 0xD50 JUMP JUMPDEST DUP3 PUSH1 0x1F LT PUSH2 0xD22 JUMPI DUP1 MLOAD PUSH1 0xFF NOT AND DUP4 DUP1 ADD OR DUP6 SSTORE PUSH2 0xD50 JUMP JUMPDEST DUP3 DUP1 ADD PUSH1 0x1 ADD DUP6 SSTORE DUP3 ISZERO PUSH2 0xD50 JUMPI SWAP2 DUP3 ADD JUMPDEST DUP3 DUP2 GT ISZERO PUSH2 0xD4F JUMPI DUP3 MLOAD DUP3 SSTORE SWAP2 PUSH1 0x20 ADD SWAP2 SWAP1 PUSH1 0x1 ADD SWAP1 PUSH2 0xD34 JUMP JUMPDEST JUMPDEST POP SWAP1 POP PUSH2 0xD5D SWAP2 SWAP1 PUSH2 0xDEB JUMP JUMPDEST POP SWAP1 JUMP JUMPDEST PUSH1 0x40 MLOAD DUP1 PUSH2 0x100 ADD PUSH1 0x40 MSTORE DUP1 PUSH1 0x0 DUP1 NOT AND DUP2 MSTORE PUSH1 0x20 ADD PUSH1 0x60 DUP2 MSTORE PUSH1 0x20 ADD PUSH1 0x0 PUSH20 0xFFFFFFFFFFFFFFFFFFFFFFFFFFFFFFFFFFFFFFFF AND DUP2 MSTORE PUSH1 0x20 ADD PUSH1 0x0 DUP2 MSTORE PUSH1 0x20 ADD PUSH1 0x0 DUP2 MSTORE PUSH1 0x20 ADD PUSH1 0x0 DUP2 MSTORE PUSH1 0x20 ADD PUSH1 0x0 PUSH20 0xFFFFFFFFFFFFFFFFFFFFFFFFFFFFFFFFFFFFFFFF AND DUP2 MSTORE PUSH1 0x20 ADD PUSH1 0x0 PUSH20 0xFFFFFFFFFFFFFFFFFFFFFFFFFFFFFFFFFFFFFFFF AND DUP2 MSTORE POP SWAP1 JUMP JUMPDEST JUMPDEST DUP1 DUP3 GT ISZERO PUSH2 0xE04 JUMPI PUSH1 0x0 DUP2 PUSH1 0x0 SWAP1 SSTORE POP PUSH1 0x1 ADD PUSH2 0xDEC JUMP JUMPDEST POP SWAP1 JUMP JUMPDEST PUSH1 0x0 PUSH1 0x40 MLOAD SWAP1 POP SWAP1 JUMP JUMPDEST PUSH1 0x0 DUP1 REVERT JUMPDEST PUSH1 0x0 DUP1 REVERT JUMPDEST PUSH1 0x0 DUP2 SWAP1 POP SWAP2 SWAP1 POP JUMP JUMPDEST PUSH2 0xE2F DUP2 PUSH2 0xE1C JUMP JUMPDEST DUP2 EQ PUSH2 0xE3A JUMPI PUSH1 0x0 DUP1 REVERT JUMPDEST POP JUMP JUMPDEST PUSH1 0x0 DUP2 CALLDATALOAD SWAP1 POP PUSH2 0xE4C DUP2 PUSH2 0xE26 JUMP JUMPDEST SWAP3 SWAP2 POP POP JUMP JUMPDEST PUSH1 0x0 DUP2 SWAP1 POP SWAP2 SWAP1 POP JUMP JUMPDEST PUSH2 0xE65 DUP2 PUSH2 0xE52 JUMP JUMPDEST DUP2 EQ PUSH2 0xE70 JUMPI PUSH1 0x0 DUP1 REVERT JUMPDEST POP JUMP JUMPDEST PUSH1 0x0 DUP2 CALLDATALOAD SWAP1 POP PUSH2 0xE82 DUP2 PUSH2 0xE5C JUMP JUMPDEST SWAP3 SWAP2 POP POP JUMP JUMPDEST PUSH1 0x0 DUP1 REVERT JUMPDEST PUSH1 0x0 DUP1 REVERT JUMPDEST PUSH1 0x0 PUSH1 0x1F NOT PUSH1 0x1F DUP4 ADD AND SWAP1 POP SWAP2 SWAP1 POP JUMP JUMPDEST PUSH32 0x4E487B7100000000000000000000000000000000000000000000000000000000 PUSH1 0x0 MSTORE PUSH1 0x41 PUSH1 0x4 MSTORE PUSH1 0x24 PUSH1 0x0 REVERT JUMPDEST PUSH2 0xEDB DUP3 PUSH2 0xE92 JUMP JUMPDEST DUP2 ADD DUP2 DUP2 LT PUSH8 0xFFFFFFFFFFFFFFFF DUP3 GT OR ISZERO PUSH2 0xEFA JUMPI PUSH2 0xEF9 PUSH2 0xEA3 JUMP JUMPDEST JUMPDEST DUP1 PUSH1 0x40 MSTORE POP POP POP JUMP JUMPDEST PUSH1 0x0 PUSH2 0xF0D PUSH2 0xE08 JUMP JUMPDEST SWAP1 POP PUSH2 0xF19 DUP3 DUP3 PUSH2 0xED2 JUMP JUMPDEST SWAP2 SWAP1 POP JUMP JUMPDEST PUSH1 0x0 PUSH8 0xFFFFFFFFFFFFFFFF DUP3 GT ISZERO PUSH2 0xF39 JUMPI PUSH2 0xF38 PUSH2 0xEA3 JUMP JUMPDEST JUMPDEST PUSH2 0xF42 DUP3 PUSH2 0xE92 JUMP JUMPDEST SWAP1 POP PUSH1 0x20 DUP2 ADD SWAP1 POP SWAP2 SWAP1 POP JUMP JUMPDEST DUP3 DUP2 DUP4 CALLDATACOPY PUSH1 0x0 DUP4 DUP4 ADD MSTORE POP POP POP JUMP JUMPDEST PUSH1 0x0 PUSH2 0xF71 PUSH2 0xF6C DUP5 PUSH2 0xF1E JUMP JUMPDEST PUSH2 0xF03 JUMP JUMPDEST SWAP1 POP DUP3 DUP2 MSTORE PUSH1 0x20 DUP2 ADD DUP5 DUP5 DUP5 ADD GT ISZERO PUSH2 0xF8D JUMPI PUSH2 0xF8C PUSH2 0xE8D JUMP JUMPDEST JUMPDEST PUSH2 0xF98 DUP5 DUP3 DUP6 PUSH2 0xF4F JUMP JUMPDEST POP SWAP4 SWAP3 POP POP POP JUMP JUMPDEST PUSH1 0x0 DUP3 PUSH1 0x1F DUP4 ADD SLT PUSH2 0xFB5 JUMPI PUSH2 0xFB4 PUSH2 0xE88 JUMP JUMPDEST JUMPDEST DUP2 CALLDATALOAD PUSH2 0xFC5 DUP5 DUP3 PUSH1 0x20 DUP7 ADD PUSH2 0xF5E JUMP JUMPDEST SWAP2 POP POP SWAP3 SWAP2 POP POP JUMP JUMPDEST PUSH1 0x0 PUSH20 0xFFFFFFFFFFFFFFFFFFFFFFFFFFFFFFFFFFFFFFFF DUP3 AND SWAP1 POP SWAP2 SWAP1 POP JUMP JUMPDEST PUSH1 0x0 PUSH2 0xFF9 DUP3 PUSH2 0xFCE JUMP JUMPDEST SWAP1 POP SWAP2 SWAP1 POP JUMP JUMPDEST PUSH2 0x1009 DUP2 PUSH2 0xFEE JUMP JUMPDEST DUP2 EQ PUSH2 0x1014 JUMPI PUSH1 0x0 DUP1 REVERT JUMPDEST POP JUMP JUMPDEST PUSH1 0x0 DUP2 CALLDATALOAD SWAP1 POP PUSH2 0x1026 DUP2 PUSH2 0x1000 JUMP JUMPDEST SWAP3 SWAP2 POP POP JUMP JUMPDEST PUSH1 0x0 DUP1 PUSH1 0x0 DUP1 PUSH1 0x0 DUP1 PUSH1 0x0 PUSH1 0xE0 DUP9 DUP11 SUB SLT ISZERO PUSH2 0x104B JUMPI PUSH2 0x104A PUSH2 0xE12 JUMP JUMPDEST JUMPDEST PUSH1 0x0 PUSH2 0x1059 DUP11 DUP3 DUP12 ADD PUSH2 0xE3D JUMP JUMPDEST SWAP8 POP POP PUSH1 0x20 PUSH2 0x106A DUP11 DUP3 DUP12 ADD PUSH2 0xE73 JUMP JUMPDEST SWAP7 POP POP PUSH1 0x40 DUP9 ADD CALLDATALOAD PUSH8 0xFFFFFFFFFFFFFFFF DUP2 GT ISZERO PUSH2 0x108B JUMPI PUSH2 0x108A PUSH2 0xE17 JUMP JUMPDEST JUMPDEST PUSH2 0x1097 DUP11 DUP3 DUP12 ADD PUSH2 0xFA0 JUMP JUMPDEST SWAP6 POP POP PUSH1 0x60 PUSH2 0x10A8 DUP11 DUP3 DUP12 ADD PUSH2 0x1017 JUMP JUMPDEST SWAP5 POP POP PUSH1 0x80 PUSH2 0x10B9 DUP11 DUP3 DUP12 ADD PUSH2 0xE3D JUMP JUMPDEST SWAP4 POP POP PUSH1 0xA0 PUSH2 0x10CA DUP11 DUP3 DUP12 ADD PUSH2 0xE3D JUMP JUMPDEST SWAP3 POP POP PUSH1 0xC0 PUSH2 0x10DB DUP11 DUP3 DUP12 ADD PUSH2 0x1017 JUMP JUMPDEST SWAP2 POP POP SWAP3 SWAP6 SWAP9 SWAP2 SWAP5 SWAP8 POP SWAP3 SWAP6 POP JUMP JUMPDEST PUSH1 0x0 PUSH1 0x20 DUP3 DUP5 SUB SLT ISZERO PUSH2 0x1100 JUMPI PUSH2 0x10FF PUSH2 0xE12 JUMP JUMPDEST JUMPDEST PUSH1 0x0 PUSH2 0x110E DUP5 DUP3 DUP6 ADD PUSH2 0xE3D JUMP JUMPDEST SWAP2 POP POP SWAP3 SWAP2 POP POP JUMP JUMPDEST PUSH2 0x1120 DUP2 PUSH2 0xE52 JUMP JUMPDEST DUP3 MSTORE POP POP JUMP JUMPDEST PUSH1 0x0 DUP2 MLOAD SWAP1 POP SWAP2 SWAP1 POP JUMP JUMPDEST PUSH1 0x0 DUP3 DUP3 MSTORE PUSH1 0x20 DUP3 ADD SWAP1 POP SWAP3 SWAP2 POP POP JUMP JUMPDEST PUSH1 0x0 JUMPDEST DUP4 DUP2 LT ISZERO PUSH2 0x1160 JUMPI DUP1 DUP3 ADD MLOAD DUP2 DUP5 ADD MSTORE PUSH1 0x20 DUP2 ADD SWAP1 POP PUSH2 0x1145 JUMP JUMPDEST DUP4 DUP2 GT ISZERO PUSH2 0x116F JUMPI PUSH1 0x0 DUP5 DUP5 ADD MSTORE JUMPDEST POP POP POP POP JUMP JUMPDEST PUSH1 0x0 PUSH2 0x1180 DUP3 PUSH2 0x1126 JUMP JUMPDEST PUSH2 0x118A DUP2 DUP6 PUSH2 0x1131 JUMP JUMPDEST SWAP4 POP PUSH2 0x119A DUP2 DUP6 PUSH1 0x20 DUP7 ADD PUSH2 0x1142 JUMP JUMPDEST PUSH2 0x11A3 DUP2 PUSH2 0xE92 JUMP JUMPDEST DUP5 ADD SWAP2 POP POP SWAP3 SWAP2 POP POP JUMP JUMPDEST PUSH2 0x11B7 DUP2 PUSH2 0xFEE JUMP JUMPDEST DUP3 MSTORE POP POP JUMP JUMPDEST PUSH2 0x11C6 DUP2 PUSH2 0xE1C JUMP JUMPDEST DUP3 MSTORE POP POP JUMP JUMPDEST PUSH1 0x0 PUSH2 0x100 DUP4 ADD PUSH1 0x0 DUP4 ADD MLOAD PUSH2 0x11E5 PUSH1 0x0 DUP7 ADD DUP3 PUSH2 0x1117 JUMP JUMPDEST POP PUSH1 0x20 DUP4 ADD MLOAD DUP5 DUP3 SUB PUSH1 0x20 DUP7 ADD MSTORE PUSH2 0x11FD DUP3 DUP3 PUSH2 0x1175 JUMP JUMPDEST SWAP2 POP POP PUSH1 0x40 DUP4 ADD MLOAD PUSH2 0x1212 PUSH1 0x40 DUP7 ADD DUP3 PUSH2 0x11AE JUMP JUMPDEST POP PUSH1 0x60 DUP4 ADD MLOAD PUSH2 0x1225 PUSH1 0x60 DUP7 ADD DUP3 PUSH2 0x11BD JUMP JUMPDEST POP PUSH1 0x80 DUP4 ADD MLOAD PUSH2 0x1238 PUSH1 0x80 DUP7 ADD DUP3 PUSH2 0x11BD JUMP JUMPDEST POP PUSH1 0xA0 DUP4 ADD MLOAD PUSH2 0x124B PUSH1 0xA0 DUP7 ADD DUP3 PUSH2 0x11BD JUMP JUMPDEST POP PUSH1 0xC0 DUP4 ADD MLOAD PUSH2 0x125E PUSH1 0xC0 DUP7 ADD DUP3 PUSH2 0x11AE JUMP JUMPDEST POP PUSH1 0xE0 DUP4 ADD MLOAD PUSH2 0x1271 PUSH1 0xE0 DUP7 ADD DUP3 PUSH2 0x11AE JUMP JUMPDEST POP DUP1 SWAP2 POP POP SWAP3 SWAP2 POP POP JUMP JUMPDEST PUSH1 0x0 PUSH1 0x20 DUP3 ADD SWAP1 POP DUP2 DUP2 SUB PUSH1 0x0 DUP4 ADD MSTORE PUSH2 0x1296 DUP2 DUP5 PUSH2 0x11CC JUMP JUMPDEST SWAP1 POP SWAP3 SWAP2 POP POP JUMP JUMPDEST PUSH1 0x0 DUP2 SWAP1 POP SWAP2 SWAP1 POP JUMP JUMPDEST PUSH2 0x12B1 DUP2 PUSH2 0x129E JUMP JUMPDEST DUP3 MSTORE POP POP JUMP JUMPDEST PUSH1 0x0 PUSH1 0x20 DUP3 ADD SWAP1 POP PUSH2 0x12CC PUSH1 0x0 DUP4 ADD DUP5 PUSH2 0x12A8 JUMP JUMPDEST SWAP3 SWAP2 POP POP JUMP JUMPDEST PUSH2 0x12DB DUP2 PUSH2 0xE52 JUMP JUMPDEST DUP3 MSTORE POP POP JUMP JUMPDEST PUSH1 0x0 DUP3 DUP3 MSTORE PUSH1 0x20 DUP3 ADD SWAP1 POP SWAP3 SWAP2 POP POP JUMP JUMPDEST PUSH1 0x0 PUSH2 0x12FD DUP3 PUSH2 0x1126 JUMP JUMPDEST PUSH2 0x1307 DUP2 DUP6 PUSH2 0x12E1 JUMP JUMPDEST SWAP4 POP PUSH2 0x1317 DUP2 DUP6 PUSH1 0x20 DUP7 ADD PUSH2 0x1142 JUMP JUMPDEST PUSH2 0x1320 DUP2 PUSH2 0xE92 JUMP JUMPDEST DUP5 ADD SWAP2 POP POP SWAP3 SWAP2 POP POP JUMP JUMPDEST PUSH2 0x1334 DUP2 PUSH2 0xFEE JUMP JUMPDEST DUP3 MSTORE POP POP JUMP JUMPDEST PUSH2 0x1343 DUP2 PUSH2 0xE1C JUMP JUMPDEST DUP3 MSTORE POP POP JUMP JUMPDEST PUSH1 0x0 PUSH2 0x100 DUP3 ADD SWAP1 POP PUSH2 0x135F PUSH1 0x0 DUP4 ADD DUP12 PUSH2 0x12D2 JUMP JUMPDEST DUP2 DUP2 SUB PUSH1 0x20 DUP4 ADD MSTORE PUSH2 0x1371 DUP2 DUP11 PUSH2 0x12F2 JUMP JUMPDEST SWAP1 POP PUSH2 0x1380 PUSH1 0x40 DUP4 ADD DUP10 PUSH2 0x132B JUMP JUMPDEST PUSH2 0x138D PUSH1 0x60 DUP4 ADD DUP9 PUSH2 0x133A JUMP JUMPDEST PUSH2 0x139A PUSH1 0x80 DUP4 ADD DUP8 PUSH2 0x133A JUMP JUMPDEST PUSH2 0x13A7 PUSH1 0xA0 DUP4 ADD DUP7 PUSH2 0x133A JUMP JUMPDEST PUSH2 0x13B4 PUSH1 0xC0 DUP4 ADD DUP6 PUSH2 0x132B JUMP JUMPDEST PUSH2 0x13C1 PUSH1 0xE0 DUP4 ADD DUP5 PUSH2 0x132B JUMP JUMPDEST SWAP10 SWAP9 POP POP POP POP POP POP POP POP POP JUMP JUMPDEST PUSH1 0x0 DUP2 SWAP1 POP SWAP2 SWAP1 POP JUMP JUMPDEST PUSH1 0x0 PUSH2 0x13F3 PUSH2 0x13EE PUSH2 0x13E9 DUP5 PUSH2 0xFCE JUMP JUMPDEST PUSH2 0x13CE JUMP JUMPDEST PUSH2 0xFCE JUMP JUMPDEST SWAP1 POP SWAP2 SWAP1 POP JUMP JUMPDEST PUSH1 0x0 PUSH2 0x1405 DUP3 PUSH2 0x13D8 JUMP JUMPDEST SWAP1 POP SWAP2 SWAP1 POP JUMP JUMPDEST PUSH1 0x0 PUSH2 0x1417 DUP3 PUSH2 0x13FA JUMP JUMPDEST SWAP1 POP SWAP2 SWAP1 POP JUMP JUMPDEST PUSH2 0x1427 DUP2 PUSH2 0x140C JUMP JUMPDEST DUP3 MSTORE POP POP JUMP JUMPDEST PUSH1 0x0 PUSH1 0xA0 DUP3 ADD SWAP1 POP PUSH2 0x1442 PUSH1 0x0 DUP4 ADD DUP9 PUSH2 0x12D2 JUMP JUMPDEST PUSH2 0x144F PUSH1 0x20 DUP4 ADD DUP8 PUSH2 0x133A JUMP JUMPDEST DUP2 DUP2 SUB PUSH1 0x40 DUP4 ADD MSTORE PUSH2 0x1461 DUP2 DUP7 PUSH2 0x12F2 JUMP JUMPDEST SWAP1 POP PUSH2 0x1470 PUSH1 0x60 DUP4 ADD DUP6 PUSH2 0x141E JUMP JUMPDEST PUSH2 0x147D PUSH1 0x80 DUP4 ADD DUP5 PUSH2 0x133A JUMP JUMPDEST SWAP7 SWAP6 POP POP POP POP POP POP JUMP JUMPDEST PUSH1 0x0 DUP2 MLOAD SWAP1 POP PUSH2 0x1496 DUP2 PUSH2 0xE26 JUMP JUMPDEST SWAP3 SWAP2 POP POP JUMP JUMPDEST PUSH1 0x0 PUSH1 0x20 DUP3 DUP5 SUB SLT ISZERO PUSH2 0x14B2 JUMPI PUSH2 0x14B1 PUSH2 0xE12 JUMP JUMPDEST JUMPDEST PUSH1 0x0 PUSH2 0x14C0 DUP5 DUP3 DUP6 ADD PUSH2 0x1487 JUMP JUMPDEST SWAP2 POP POP SWAP3 SWAP2 POP POP JUMP JUMPDEST PUSH1 0x0 PUSH1 0x80 DUP3 ADD SWAP1 POP PUSH2 0x14DE PUSH1 0x0 DUP4 ADD DUP8 PUSH2 0x12D2 JUMP JUMPDEST PUSH2 0x14EB PUSH1 0x20 DUP4 ADD DUP7 PUSH2 0x133A JUMP JUMPDEST DUP2 DUP2 SUB PUSH1 0x40 DUP4 ADD MSTORE PUSH2 0x14FD DUP2 DUP6 PUSH2 0x12F2 JUMP JUMPDEST SWAP1 POP PUSH2 0x150C PUSH1 0x60 DUP4 ADD DUP5 PUSH2 0x133A JUMP JUMPDEST SWAP6 SWAP5 POP POP POP POP POP JUMP JUMPDEST PUSH1 0x0 PUSH1 0xA0 DUP3 ADD SWAP1 POP PUSH2 0x152A PUSH1 0x0 DUP4 ADD DUP9 PUSH2 0x133A JUMP JUMPDEST PUSH2 0x1537 PUSH1 0x20 DUP4 ADD DUP8 PUSH2 0x12D2 JUMP JUMPDEST DUP2 DUP2 SUB PUSH1 0x40 DUP4 ADD MSTORE PUSH2 0x1549 DUP2 DUP7 PUSH2 0x12F2 JUMP JUMPDEST SWAP1 POP PUSH2 0x1558 PUSH1 0x60 DUP4 ADD DUP6 PUSH2 0x133A JUMP JUMPDEST PUSH2 0x1565 PUSH1 0x80 DUP4 ADD DUP5 PUSH2 0x132B JUMP JUMPDEST SWAP7 SWAP6 POP POP POP POP POP POP JUMP JUMPDEST PUSH32 0x4E487B7100000000000000000000000000000000000000000000000000000000 PUSH1 0x0 MSTORE PUSH1 0x22 PUSH1 0x4 MSTORE PUSH1 0x24 PUSH1 0x0 REVERT JUMPDEST PUSH1 0x0 PUSH1 0x2 DUP3 DIV SWAP1 POP PUSH1 0x1 DUP3 AND DUP1 PUSH2 0x15B6 JUMPI PUSH1 0x7F DUP3 AND SWAP2 POP JUMPDEST PUSH1 0x20 DUP3 LT DUP2 SUB PUSH2 0x15C9 JUMPI PUSH2 0x15C8 PUSH2 0x156F JUMP JUMPDEST JUMPDEST POP SWAP2 SWAP1 POP JUMP JUMPDEST PUSH1 0x0 PUSH1 0x80 DUP3 ADD SWAP1 POP PUSH2 0x15E4 PUSH1 0x0 DUP4 ADD DUP8 PUSH2 0x132B JUMP JUMPDEST PUSH2 0x15F1 PUSH1 0x20 DUP4 ADD DUP7 PUSH2 0x12D2 JUMP JUMPDEST PUSH2 0x15FE PUSH1 0x40 DUP4 ADD DUP6 PUSH2 0x133A JUMP JUMPDEST DUP2 DUP2 SUB PUSH1 0x60 DUP4 ADD MSTORE PUSH2 0x1610 DUP2 DUP5 PUSH2 0x12F2 JUMP JUMPDEST SWAP1 POP SWAP6 SWAP5 POP POP POP POP POP JUMP JUMPDEST PUSH1 0x0 PUSH1 0x40 DUP3 ADD SWAP1 POP PUSH2 0x1630 PUSH1 0x0 DUP4 ADD DUP6 PUSH2 0x133A JUMP JUMPDEST PUSH2 0x163D PUSH1 0x20 DUP4 ADD DUP5 PUSH2 0x133A JUMP JUMPDEST SWAP4 SWAP3 POP POP POP JUMP JUMPDEST PUSH1 0x0 DUP1 REVERT JUMPDEST PUSH1 0x0 DUP2 MLOAD SWAP1 POP PUSH2 0x1658 DUP2 PUSH2 0x1000 JUMP JUMPDEST SWAP3 SWAP2 POP POP JUMP JUMPDEST PUSH1 0x0 PUSH2 0x1669 DUP3 PUSH2 0xFEE JUMP JUMPDEST SWAP1 POP SWAP2 SWAP1 POP JUMP JUMPDEST PUSH2 0x1679 DUP2 PUSH2 0x165E JUMP JUMPDEST DUP2 EQ PUSH2 0x1684 JUMPI PUSH1 0x0 DUP1 REVERT JUMPDEST POP JUMP JUMPDEST PUSH1 0x0 DUP2 MLOAD SWAP1 POP PUSH2 0x1696 DUP2 PUSH2 0x1670 JUMP JUMPDEST SWAP3 SWAP2 POP POP JUMP JUMPDEST PUSH1 0x0 DUP2 ISZERO ISZERO SWAP1 POP SWAP2 SWAP1 POP JUMP JUMPDEST PUSH2 0x16B1 DUP2 PUSH2 0x169C JUMP JUMPDEST DUP2 EQ PUSH2 0x16BC JUMPI PUSH1 0x0 DUP1 REVERT JUMPDEST POP JUMP JUMPDEST PUSH1 0x0 DUP2 MLOAD SWAP1 POP PUSH2 0x16CE DUP2 PUSH2 0x16A8 JUMP JUMPDEST SWAP3 SWAP2 POP POP JUMP JUMPDEST PUSH1 0x0 PUSH1 0xE0 DUP3 DUP5 SUB SLT ISZERO PUSH2 0x16EA JUMPI PUSH2 0x16E9 PUSH2 0x1644 JUMP JUMPDEST JUMPDEST PUSH2 0x16F4 PUSH1 0xE0 PUSH2 0xF03 JUMP JUMPDEST SWAP1 POP PUSH1 0x0 PUSH2 0x1704 DUP5 DUP3 DUP6 ADD PUSH2 0x16BF JUMP JUMPDEST PUSH1 0x0 DUP4 ADD MSTORE POP PUSH1 0x20 PUSH2 0x1718 DUP5 DUP3 DUP6 ADD PUSH2 0x16BF JUMP JUMPDEST PUSH1 0x20 DUP4 ADD MSTORE POP PUSH1 0x40 PUSH2 0x172C DUP5 DUP3 DUP6 ADD PUSH2 0x16BF JUMP JUMPDEST PUSH1 0x40 DUP4 ADD MSTORE POP PUSH1 0x60 PUSH2 0x1740 DUP5 DUP3 DUP6 ADD PUSH2 0x16BF JUMP JUMPDEST PUSH1 0x60 DUP4 ADD MSTORE POP PUSH1 0x80 PUSH2 0x1754 DUP5 DUP3 DUP6 ADD PUSH2 0x16BF JUMP JUMPDEST PUSH1 0x80 DUP4 ADD MSTORE POP PUSH1 0xA0 PUSH2 0x1768 DUP5 DUP3 DUP6 ADD PUSH2 0x1487 JUMP JUMPDEST PUSH1 0xA0 DUP4 ADD MSTORE POP PUSH1 0xC0 PUSH2 0x177C DUP5 DUP3 DUP6 ADD PUSH2 0x1487 JUMP JUMPDEST PUSH1 0xC0 DUP4 ADD MSTORE POP SWAP3 SWAP2 POP POP JUMP JUMPDEST PUSH2 0x1791 DUP2 PUSH2 0x129E JUMP JUMPDEST DUP2 EQ PUSH2 0x179C JUMPI PUSH1 0x0 DUP1 REVERT JUMPDEST POP JUMP JUMPDEST PUSH1 0x0 DUP2 MLOAD SWAP1 POP PUSH2 0x17AE DUP2 PUSH2 0x1788 JUMP JUMPDEST SWAP3 SWAP2 POP POP JUMP JUMPDEST PUSH1 0x0 PUSH2 0x200 DUP3 DUP5 SUB SLT ISZERO PUSH2 0x17CB JUMPI PUSH2 0x17CA PUSH2 0x1644 JUMP JUMPDEST JUMPDEST PUSH2 0x17D6 PUSH2 0x140 PUSH2 0xF03 JUMP JUMPDEST SWAP1 POP PUSH1 0x0 PUSH2 0x17E6 DUP5 DUP3 DUP6 ADD PUSH2 0x1649 JUMP JUMPDEST PUSH1 0x0 DUP4 ADD MSTORE POP PUSH1 0x20 PUSH2 0x17FA DUP5 DUP3 DUP6 ADD PUSH2 0x1649 JUMP JUMPDEST PUSH1 0x20 DUP4 ADD MSTORE POP PUSH1 0x40 PUSH2 0x180E DUP5 DUP3 DUP6 ADD PUSH2 0x1687 JUMP JUMPDEST PUSH1 0x40 DUP4 ADD MSTORE POP PUSH1 0x60 PUSH2 0x1822 DUP5 DUP3 DUP6 ADD PUSH2 0x16BF JUMP JUMPDEST PUSH1 0x60 DUP4 ADD MSTORE POP PUSH1 0x80 PUSH2 0x1836 DUP5 DUP3 DUP6 ADD PUSH2 0x16D4 JUMP JUMPDEST PUSH1 0x80 DUP4 ADD MSTORE POP PUSH2 0x160 PUSH2 0x184B DUP5 DUP3 DUP6 ADD PUSH2 0x179F JUMP JUMPDEST PUSH1 0xA0 DUP4 ADD MSTORE POP PUSH2 0x180 PUSH2 0x1860 DUP5 DUP3 DUP6 ADD PUSH2 0x179F JUMP JUMPDEST PUSH1 0xC0 DUP4 ADD MSTORE POP PUSH2 0x1A0 PUSH2 0x1875 DUP5 DUP3 DUP6 ADD PUSH2 0x1487 JUMP JUMPDEST PUSH1 0xE0 DUP4 ADD MSTORE POP PUSH2 0x1C0 PUSH2 0x188A DUP5 DUP3 DUP6 ADD PUSH2 0x1487 JUMP JUMPDEST PUSH2 0x100 DUP4 ADD MSTORE POP PUSH2 0x1E0 PUSH2 0x18A0 DUP5 DUP3 DUP6 ADD PUSH2 0x1487 JUMP JUMPDEST PUSH2 0x120 DUP4 ADD MSTORE POP SWAP3 SWAP2 POP POP JUMP JUMPDEST PUSH1 0x0 PUSH2 0x200 DUP3 DUP5 SUB SLT ISZERO PUSH2 0x18C4 JUMPI PUSH2 0x18C3 PUSH2 0xE12 JUMP JUMPDEST JUMPDEST PUSH1 0x0 PUSH2 0x18D2 DUP5 DUP3 DUP6 ADD PUSH2 0x17B4 JUMP JUMPDEST SWAP2 POP POP SWAP3 SWAP2 POP POP JUMP INVALID LOG2 PUSH5 0x6970667358 0x22 SLT KECCAK256 0x27 SWAP8 MLOAD 0xDA SWAP5 0x4A 0x2E 0xB7 0xDD 0x25 SWAP3 DIV 0x28 0xC9 PUSH17 0x877EF6A10DCC6E7AC055A588FE84F01374 PUSH5 0x736F6C6343 STOP ADDMOD 0xE STOP CALLER "
				},
				"gasEstimates": {
					"creation": {
						"codeDepositCost": "1283400",
						"executionCost": "infinite",
						"totalCost": "infinite"
					},
					"external": {
						"getRequest(uint256)": "infinite",
						"getSettledData(uint256)": "infinite",
						"ooRequests(uint256)": "infinite",
						"requestData(uint256,bytes32,bytes,address,uint256,uint256,address)": "infinite",
						"settleRequest(uint256)": "infinite"
					}
				},
				"methodIdentifiers": {
					"getRequest(uint256)": "c58343ef",
					"getSettledData(uint256)": "e5da66af",
					"ooRequests(uint256)": "f418ad7a",
					"requestData(uint256,bytes32,bytes,address,uint256,uint256,address)": "43c2ed99",
					"settleRequest(uint256)": "d247f92b"
				}
			},
			"storageLayout": {
				"storage": [
					{
						"astId": 83,
						"contract": "chain-oracle/OOConsumerV2.sol:OOConsumerV2",
						"label": "oo",
						"offset": 0,
						"slot": "0",
						"type": "t_contract(OptimisticOracleV2Interface)672"
					},
					{
						"astId": 105,
						"contract": "chain-oracle/OOConsumerV2.sol:OOConsumerV2",
						"label": "ooRequests",
						"offset": 0,
						"slot": "1",
						"type": "t_mapping(t_uint256,t_struct(Request)100_storage)"
					}
				],
				"types": {
					"t_address": {
						"encoding": "inplace",
						"label": "address",
						"numberOfBytes": "20"
					},
					"t_bytes32": {
						"encoding": "inplace",
						"label": "bytes32",
						"numberOfBytes": "32"
					},
					"t_bytes_storage": {
						"encoding": "bytes",
						"label": "bytes",
						"numberOfBytes": "32"
					},
					"t_contract(OptimisticOracleV2Interface)672": {
						"encoding": "inplace",
						"label": "contract OptimisticOracleV2Interface",
						"numberOfBytes": "20"
					},
					"t_mapping(t_uint256,t_struct(Request)100_storage)": {
						"encoding": "mapping",
						"key": "t_uint256",
						"label": "mapping(uint256 => struct OOConsumerV2.Request)",
						"numberOfBytes": "32",
						"value": "t_struct(Request)100_storage"
					},
					"t_struct(Request)100_storage": {
						"encoding": "inplace",
						"label": "struct OOConsumerV2.Request",
						"members": [
							{
								"astId": 85,
								"contract": "chain-oracle/OOConsumerV2.sol:OOConsumerV2",
								"label": "identifier",
								"offset": 0,
								"slot": "0",
								"type": "t_bytes32"
							},
							{
								"astId": 87,
								"contract": "chain-oracle/OOConsumerV2.sol:OOConsumerV2",
								"label": "ancillaryData",
								"offset": 0,
								"slot": "1",
								"type": "t_bytes_storage"
							},
							{
								"astId": 89,
								"contract": "chain-oracle/OOConsumerV2.sol:OOConsumerV2",
								"label": "bondCurrencyAddress",
								"offset": 0,
								"slot": "2",
								"type": "t_address"
							},
							{
								"astId": 91,
								"contract": "chain-oracle/OOConsumerV2.sol:OOConsumerV2",
								"label": "reward",
								"offset": 0,
								"slot": "3",
								"type": "t_uint256"
							},
							{
								"astId": 93,
								"contract": "chain-oracle/OOConsumerV2.sol:OOConsumerV2",
								"label": "livenessTime",
								"offset": 0,
								"slot": "4",
								"type": "t_uint256"
							},
							{
								"astId": 95,
								"contract": "chain-oracle/OOConsumerV2.sol:OOConsumerV2",
								"label": "requestTime",
								"offset": 0,
								"slot": "5",
								"type": "t_uint256"
							},
							{
								"astId": 97,
								"contract": "chain-oracle/OOConsumerV2.sol:OOConsumerV2",
								"label": "requester",
								"offset": 0,
								"slot": "6",
								"type": "t_address"
							},
							{
								"astId": 99,
								"contract": "chain-oracle/OOConsumerV2.sol:OOConsumerV2",
								"label": "oracle",
								"offset": 0,
								"slot": "7",
								"type": "t_address"
							}
						],
						"numberOfBytes": "256"
					},
					"t_uint256": {
						"encoding": "inplace",
						"label": "uint256",
						"numberOfBytes": "32"
					}
				}
			},
			"userdoc": {
				"kind": "user",
				"methods": {
					"requestData(uint256,bytes32,bytes,address,uint256,uint256,address)": {
						"notice": "bytes identifier = bytes(\"YES_OR_NO_QUERY\") identifier can be found here: https://docs.uma.xyz/resources/approved-price-identifiers  bytes ancillaryData = bytes( \"Q:Did the temperature on the 25th of July 2022 in Manhattan NY exceed 35c? A:1 for yes. 0 for no.\" );"
					}
				},
				"version": 1
			}
		}
	}
}