{
	"client-oracle/OptimisticOracleV2.sol": {
		"OptimisticOracleV2": {
			"abi": [
				{
					"anonymous": false,
					"inputs": [
						{
							"indexed": false,
							"internalType": "uint256",
							"name": "requestId",
							"type": "uint256"
						},
						{
							"indexed": false,
							"internalType": "bytes",
							"name": "identifier",
							"type": "bytes"
						},
						{
							"indexed": false,
							"internalType": "bytes",
							"name": "ancillaryData",
							"type": "bytes"
						},
						{
							"indexed": false,
							"internalType": "uint256",
							"name": "requestTime",
							"type": "uint256"
						},
						{
							"indexed": false,
							"internalType": "address",
							"name": "requester",
							"type": "address"
						}
					],
					"name": "requestCreated",
					"type": "event"
				},
				{
					"anonymous": false,
					"inputs": [
						{
							"indexed": false,
							"internalType": "uint256",
							"name": "requestId",
							"type": "uint256"
						},
						{
							"indexed": false,
							"internalType": "int256",
							"name": "result",
							"type": "int256"
						},
						{
							"indexed": false,
							"internalType": "uint256",
							"name": "timestamp",
							"type": "uint256"
						}
					],
					"name": "resultAdded",
					"type": "event"
				},
				{
					"anonymous": false,
					"inputs": [
						{
							"indexed": false,
							"internalType": "uint256",
							"name": "requestId",
							"type": "uint256"
						},
						{
							"indexed": false,
							"internalType": "uint256",
							"name": "timestamp",
							"type": "uint256"
						}
					],
					"name": "settleOORequest",
					"type": "event"
				},
				{
					"inputs": [
						{
							"internalType": "uint256",
							"name": "",
							"type": "uint256"
						}
					],
					"name": "ooRequests",
					"outputs": [
						{
							"internalType": "bytes",
							"name": "identifier",
							"type": "bytes"
						},
						{
							"internalType": "bytes",
							"name": "ancillaryData",
							"type": "bytes"
						},
						{
							"internalType": "address",
							"name": "bondCurrencyAddress",
							"type": "address"
						},
						{
							"internalType": "uint256",
							"name": "reward",
							"type": "uint256"
						},
						{
							"internalType": "uint256",
							"name": "livenessTime",
							"type": "uint256"
						},
						{
							"internalType": "uint256",
							"name": "requestTime",
							"type": "uint256"
						},
						{
							"internalType": "address",
							"name": "requester",
							"type": "address"
						},
						{
							"internalType": "int256",
							"name": "result",
							"type": "int256"
						},
						{
							"internalType": "enum OptimisticOracleV2.Status",
							"name": "currentStatus",
							"type": "uint8"
						}
					],
					"stateMutability": "view",
					"type": "function"
				},
				{
					"inputs": [
						{
							"internalType": "bytes",
							"name": "identifier",
							"type": "bytes"
						},
						{
							"internalType": "bytes",
							"name": "ancillaryData",
							"type": "bytes"
						},
						{
							"internalType": "address",
							"name": "bondCurrencyAddress",
							"type": "address"
						},
						{
							"internalType": "uint256",
							"name": "rewardAmount",
							"type": "uint256"
						},
						{
							"internalType": "uint256",
							"name": "livenessTime",
							"type": "uint256"
						}
					],
					"name": "requestData",
					"outputs": [
						{
							"internalType": "uint256",
							"name": "requestId",
							"type": "uint256"
						}
					],
					"stateMutability": "nonpayable",
					"type": "function"
				},
				{
					"inputs": [
						{
							"internalType": "uint256",
							"name": "requestId",
							"type": "uint256"
						},
						{
							"internalType": "int256",
							"name": "result",
							"type": "int256"
						}
					],
					"name": "setRequestResult",
					"outputs": [],
					"stateMutability": "nonpayable",
					"type": "function"
				},
				{
					"inputs": [
						{
							"internalType": "uint256",
							"name": "requestId",
							"type": "uint256"
						}
					],
					"name": "settleRequest",
					"outputs": [],
					"stateMutability": "nonpayable",
					"type": "function"
				},
				{
					"inputs": [],
					"name": "totalOORequests",
					"outputs": [
						{
							"internalType": "uint256",
							"name": "",
							"type": "uint256"
						}
					],
					"stateMutability": "view",
					"type": "function"
				}
			],
			"devdoc": {
				"kind": "dev",
				"methods": {},
				"version": 1
			},
			"evm": {
				"assembly": "    /* \"client-oracle/OptimisticOracleV2.sol\":129:2280  contract OptimisticOracleV2 {... */\n  mstore(0x40, 0x80)\n    /* \"client-oracle/OptimisticOracleV2.sol\":196:197  1 */\n  0x01\n    /* \"client-oracle/OptimisticOracleV2.sol\":163:197  uint256 public totalOORequests = 1 */\n  0x00\n  sstore\n    /* \"client-oracle/OptimisticOracleV2.sol\":129:2280  contract OptimisticOracleV2 {... */\n  callvalue\n  dup1\n  iszero\n  tag_1\n  jumpi\n  0x00\n  dup1\n  revert\ntag_1:\n  pop\n  dataSize(sub_0)\n  dup1\n  dataOffset(sub_0)\n  0x00\n  codecopy\n  0x00\n  return\nstop\n\nsub_0: assembly {\n        /* \"client-oracle/OptimisticOracleV2.sol\":129:2280  contract OptimisticOracleV2 {... */\n      mstore(0x40, 0x80)\n      callvalue\n      dup1\n      iszero\n      tag_1\n      jumpi\n      0x00\n      dup1\n      revert\n    tag_1:\n      pop\n      jumpi(tag_2, lt(calldatasize, 0x04))\n      shr(0xe0, calldataload(0x00))\n      dup1\n      0x7b2239db\n      eq\n      tag_3\n      jumpi\n      dup1\n      0x8a9cf5da\n      eq\n      tag_4\n      jumpi\n      dup1\n      0xb87c065f\n      eq\n      tag_5\n      jumpi\n      dup1\n      0xd247f92b\n      eq\n      tag_6\n      jumpi\n      dup1\n      0xf418ad7a\n      eq\n      tag_7\n      jumpi\n    tag_2:\n      0x00\n      dup1\n      revert\n        /* \"client-oracle/OptimisticOracleV2.sol\":1027:1747  function requestData(... */\n    tag_3:\n      tag_8\n      0x04\n      dup1\n      calldatasize\n      sub\n      dup2\n      add\n      swap1\n      tag_9\n      swap2\n      swap1\n      tag_10\n      jump\t// in\n    tag_9:\n      tag_11\n      jump\t// in\n    tag_8:\n      mload(0x40)\n      tag_12\n      swap2\n      swap1\n      tag_13\n      jump\t// in\n    tag_12:\n      mload(0x40)\n      dup1\n      swap2\n      sub\n      swap1\n      return\n        /* \"client-oracle/OptimisticOracleV2.sol\":163:197  uint256 public totalOORequests = 1 */\n    tag_4:\n      tag_14\n      tag_15\n      jump\t// in\n    tag_14:\n      mload(0x40)\n      tag_16\n      swap2\n      swap1\n      tag_13\n      jump\t// in\n    tag_16:\n      mload(0x40)\n      dup1\n      swap2\n      sub\n      swap1\n      return\n        /* \"client-oracle/OptimisticOracleV2.sol\":2005:2278  function setRequestResult(uint requestId, int result) public {... */\n    tag_5:\n      tag_17\n      0x04\n      dup1\n      calldatasize\n      sub\n      dup2\n      add\n      swap1\n      tag_18\n      swap2\n      swap1\n      tag_19\n      jump\t// in\n    tag_18:\n      tag_20\n      jump\t// in\n    tag_17:\n      stop\n        /* \"client-oracle/OptimisticOracleV2.sol\":1790:1971  function settleRequest(uint requestId) public {... */\n    tag_6:\n      tag_21\n      0x04\n      dup1\n      calldatasize\n      sub\n      dup2\n      add\n      swap1\n      tag_22\n      swap2\n      swap1\n      tag_23\n      jump\t// in\n    tag_22:\n      tag_24\n      jump\t// in\n    tag_21:\n      stop\n        /* \"client-oracle/OptimisticOracleV2.sol\":597:641  mapping(uint => ooRequest) public ooRequests */\n    tag_7:\n      tag_25\n      0x04\n      dup1\n      calldatasize\n      sub\n      dup2\n      add\n      swap1\n      tag_26\n      swap2\n      swap1\n      tag_23\n      jump\t// in\n    tag_26:\n      tag_27\n      jump\t// in\n    tag_25:\n      mload(0x40)\n      tag_28\n      swap10\n      swap9\n      swap8\n      swap7\n      swap6\n      swap5\n      swap4\n      swap3\n      swap2\n      swap1\n      tag_29\n      jump\t// in\n    tag_28:\n      mload(0x40)\n      dup1\n      swap2\n      sub\n      swap1\n      return\n        /* \"client-oracle/OptimisticOracleV2.sol\":1027:1747  function requestData(... */\n    tag_11:\n        /* \"client-oracle/OptimisticOracleV2.sol\":1233:1247  uint requestId */\n      0x00\n        /* \"client-oracle/OptimisticOracleV2.sol\":1271:1286  totalOORequests */\n      dup1\n      sload\n        /* \"client-oracle/OptimisticOracleV2.sol\":1259:1286  requestId = totalOORequests */\n      swap1\n      pop\n        /* \"client-oracle/OptimisticOracleV2.sol\":1320:1573  ooRequest(... */\n      mload(0x40)\n      dup1\n      0x0120\n      add\n      0x40\n      mstore\n      dup1\n        /* \"client-oracle/OptimisticOracleV2.sol\":1343:1353  identifier */\n      dup8\n        /* \"client-oracle/OptimisticOracleV2.sol\":1320:1573  ooRequest(... */\n      dup2\n      mstore\n      0x20\n      add\n        /* \"client-oracle/OptimisticOracleV2.sol\":1367:1380  ancillaryData */\n      dup7\n        /* \"client-oracle/OptimisticOracleV2.sol\":1320:1573  ooRequest(... */\n      dup2\n      mstore\n      0x20\n      add\n        /* \"client-oracle/OptimisticOracleV2.sol\":1394:1413  bondCurrencyAddress */\n      dup6\n        /* \"client-oracle/OptimisticOracleV2.sol\":1320:1573  ooRequest(... */\n      0xffffffffffffffffffffffffffffffffffffffff\n      and\n      dup2\n      mstore\n      0x20\n      add\n        /* \"client-oracle/OptimisticOracleV2.sol\":1427:1439  rewardAmount */\n      dup5\n        /* \"client-oracle/OptimisticOracleV2.sol\":1320:1573  ooRequest(... */\n      dup2\n      mstore\n      0x20\n      add\n        /* \"client-oracle/OptimisticOracleV2.sol\":1453:1465  livenessTime */\n      dup4\n        /* \"client-oracle/OptimisticOracleV2.sol\":1320:1573  ooRequest(... */\n      dup2\n      mstore\n      0x20\n      add\n        /* \"client-oracle/OptimisticOracleV2.sol\":1479:1494  block.timestamp */\n      timestamp\n        /* \"client-oracle/OptimisticOracleV2.sol\":1320:1573  ooRequest(... */\n      dup2\n      mstore\n      0x20\n      add\n        /* \"client-oracle/OptimisticOracleV2.sol\":1508:1518  msg.sender */\n      caller\n        /* \"client-oracle/OptimisticOracleV2.sol\":1320:1573  ooRequest(... */\n      0xffffffffffffffffffffffffffffffffffffffff\n      and\n      dup2\n      mstore\n      0x20\n      add\n        /* \"client-oracle/OptimisticOracleV2.sol\":1532:1533  0 */\n      0x00\n        /* \"client-oracle/OptimisticOracleV2.sol\":1320:1573  ooRequest(... */\n      dup2\n      mstore\n      0x20\n      add\n        /* \"client-oracle/OptimisticOracleV2.sol\":1547:1563  Status.Requested */\n      0x00\n        /* \"client-oracle/OptimisticOracleV2.sol\":1320:1573  ooRequest(... */\n      0x02\n      dup2\n      gt\n      iszero\n      tag_31\n      jumpi\n      tag_32\n      tag_33\n      jump\t// in\n    tag_32:\n    tag_31:\n      dup2\n      mstore\n      pop\n        /* \"client-oracle/OptimisticOracleV2.sol\":1296:1306  ooRequests */\n      0x01\n        /* \"client-oracle/OptimisticOracleV2.sol\":1296:1317  ooRequests[requestId] */\n      0x00\n        /* \"client-oracle/OptimisticOracleV2.sol\":1307:1316  requestId */\n      dup4\n        /* \"client-oracle/OptimisticOracleV2.sol\":1296:1317  ooRequests[requestId] */\n      dup2\n      mstore\n      0x20\n      add\n      swap1\n      dup2\n      mstore\n      0x20\n      add\n      0x00\n      keccak256\n        /* \"client-oracle/OptimisticOracleV2.sol\":1296:1573  ooRequests[requestId] = ooRequest(... */\n      0x00\n      dup3\n      add\n      mload\n      dup2\n      0x00\n      add\n      swap1\n      dup2\n      tag_34\n      swap2\n      swap1\n      tag_35\n      jump\t// in\n    tag_34:\n      pop\n      0x20\n      dup3\n      add\n      mload\n      dup2\n      0x01\n      add\n      swap1\n      dup2\n      tag_36\n      swap2\n      swap1\n      tag_35\n      jump\t// in\n    tag_36:\n      pop\n      0x40\n      dup3\n      add\n      mload\n      dup2\n      0x02\n      add\n      exp(0x0100, 0x00)\n      dup2\n      sload\n      dup2\n      0xffffffffffffffffffffffffffffffffffffffff\n      mul\n      not\n      and\n      swap1\n      dup4\n      0xffffffffffffffffffffffffffffffffffffffff\n      and\n      mul\n      or\n      swap1\n      sstore\n      pop\n      0x60\n      dup3\n      add\n      mload\n      dup2\n      0x03\n      add\n      sstore\n      0x80\n      dup3\n      add\n      mload\n      dup2\n      0x04\n      add\n      sstore\n      0xa0\n      dup3\n      add\n      mload\n      dup2\n      0x05\n      add\n      sstore\n      0xc0\n      dup3\n      add\n      mload\n      dup2\n      0x06\n      add\n      exp(0x0100, 0x00)\n      dup2\n      sload\n      dup2\n      0xffffffffffffffffffffffffffffffffffffffff\n      mul\n      not\n      and\n      swap1\n      dup4\n      0xffffffffffffffffffffffffffffffffffffffff\n      and\n      mul\n      or\n      swap1\n      sstore\n      pop\n      0xe0\n      dup3\n      add\n      mload\n      dup2\n      0x07\n      add\n      sstore\n      0x0100\n      dup3\n      add\n      mload\n      dup2\n      0x08\n      add\n      exp(0x0100, 0x00)\n      dup2\n      sload\n      dup2\n      0xff\n      mul\n      not\n      and\n      swap1\n      dup4\n      0x02\n      dup2\n      gt\n      iszero\n      tag_37\n      jumpi\n      tag_38\n      tag_33\n      jump\t// in\n    tag_38:\n    tag_37:\n      mul\n      or\n      swap1\n      sstore\n      pop\n      swap1\n      pop\n      pop\n        /* \"client-oracle/OptimisticOracleV2.sol\":1589:1740  requestCreated(... */\n      0x2b71a8d9954440b2c8680fb7eed2c6ab5fa8f72dc3e1b86cc4cacba7aadb75f7\n        /* \"client-oracle/OptimisticOracleV2.sol\":1617:1626  requestId */\n      dup2\n        /* \"client-oracle/OptimisticOracleV2.sol\":1640:1650  identifier */\n      dup8\n        /* \"client-oracle/OptimisticOracleV2.sol\":1664:1677  ancillaryData */\n      dup8\n        /* \"client-oracle/OptimisticOracleV2.sol\":1691:1706  block.timestamp */\n      timestamp\n        /* \"client-oracle/OptimisticOracleV2.sol\":1720:1730  msg.sender */\n      caller\n        /* \"client-oracle/OptimisticOracleV2.sol\":1589:1740  requestCreated(... */\n      mload(0x40)\n      tag_39\n      swap6\n      swap5\n      swap4\n      swap3\n      swap2\n      swap1\n      tag_40\n      jump\t// in\n    tag_39:\n      mload(0x40)\n      dup1\n      swap2\n      sub\n      swap1\n      log1\n        /* \"client-oracle/OptimisticOracleV2.sol\":1027:1747  function requestData(... */\n      swap6\n      swap5\n      pop\n      pop\n      pop\n      pop\n      pop\n      jump\t// out\n        /* \"client-oracle/OptimisticOracleV2.sol\":163:197  uint256 public totalOORequests = 1 */\n    tag_15:\n      sload(0x00)\n      dup2\n      jump\t// out\n        /* \"client-oracle/OptimisticOracleV2.sol\":2005:2278  function setRequestResult(uint requestId, int result) public {... */\n    tag_20:\n        /* \"client-oracle/OptimisticOracleV2.sol\":2076:2102  ooRequest storage _request */\n      0x00\n        /* \"client-oracle/OptimisticOracleV2.sol\":2105:2115  ooRequests */\n      0x01\n        /* \"client-oracle/OptimisticOracleV2.sol\":2105:2126  ooRequests[requestId] */\n      0x00\n        /* \"client-oracle/OptimisticOracleV2.sol\":2116:2125  requestId */\n      dup5\n        /* \"client-oracle/OptimisticOracleV2.sol\":2105:2126  ooRequests[requestId] */\n      dup2\n      mstore\n      0x20\n      add\n      swap1\n      dup2\n      mstore\n      0x20\n      add\n      0x00\n      keccak256\n        /* \"client-oracle/OptimisticOracleV2.sol\":2076:2126  ooRequest storage _request = ooRequests[requestId] */\n      swap1\n      pop\n        /* \"client-oracle/OptimisticOracleV2.sol\":2154:2160  result */\n      dup2\n        /* \"client-oracle/OptimisticOracleV2.sol\":2136:2144  _request */\n      dup2\n        /* \"client-oracle/OptimisticOracleV2.sol\":2136:2151  _request.result */\n      0x07\n      add\n        /* \"client-oracle/OptimisticOracleV2.sol\":2136:2160  _request.result = result */\n      dup2\n      swap1\n      sstore\n      pop\n        /* \"client-oracle/OptimisticOracleV2.sol\":2195:2209  Status.Settled */\n      0x02\n        /* \"client-oracle/OptimisticOracleV2.sol\":2170:2178  _request */\n      dup2\n        /* \"client-oracle/OptimisticOracleV2.sol\":2170:2192  _request.currentStatus */\n      0x08\n      add\n      0x00\n        /* \"client-oracle/OptimisticOracleV2.sol\":2170:2209  _request.currentStatus = Status.Settled */\n      0x0100\n      exp\n      dup2\n      sload\n      dup2\n      0xff\n      mul\n      not\n      and\n      swap1\n      dup4\n      0x02\n      dup2\n      gt\n      iszero\n      tag_42\n      jumpi\n      tag_43\n      tag_33\n      jump\t// in\n    tag_43:\n    tag_42:\n      mul\n      or\n      swap1\n      sstore\n      pop\n        /* \"client-oracle/OptimisticOracleV2.sol\":2224:2271  resultAdded(requestId, result, block.timestamp) */\n      0x336b6a93b38daa435f14747b9c40a9bc9569de3a62550c286f52428d83a2846f\n        /* \"client-oracle/OptimisticOracleV2.sol\":2236:2245  requestId */\n      dup4\n        /* \"client-oracle/OptimisticOracleV2.sol\":2247:2253  result */\n      dup4\n        /* \"client-oracle/OptimisticOracleV2.sol\":2255:2270  block.timestamp */\n      timestamp\n        /* \"client-oracle/OptimisticOracleV2.sol\":2224:2271  resultAdded(requestId, result, block.timestamp) */\n      mload(0x40)\n      tag_44\n      swap4\n      swap3\n      swap2\n      swap1\n      tag_45\n      jump\t// in\n    tag_44:\n      mload(0x40)\n      dup1\n      swap2\n      sub\n      swap1\n      log1\n        /* \"client-oracle/OptimisticOracleV2.sol\":2066:2278  {... */\n      pop\n        /* \"client-oracle/OptimisticOracleV2.sol\":2005:2278  function setRequestResult(uint requestId, int result) public {... */\n      pop\n      pop\n      jump\t// out\n        /* \"client-oracle/OptimisticOracleV2.sol\":1790:1971  function settleRequest(uint requestId) public {... */\n    tag_24:\n        /* \"client-oracle/OptimisticOracleV2.sol\":1884:1906  Status.SettleRequested */\n      0x01\n        /* \"client-oracle/OptimisticOracleV2.sol\":1846:1856  ooRequests */\n      dup1\n        /* \"client-oracle/OptimisticOracleV2.sol\":1846:1867  ooRequests[requestId] */\n      0x00\n        /* \"client-oracle/OptimisticOracleV2.sol\":1857:1866  requestId */\n      dup4\n        /* \"client-oracle/OptimisticOracleV2.sol\":1846:1867  ooRequests[requestId] */\n      dup2\n      mstore\n      0x20\n      add\n      swap1\n      dup2\n      mstore\n      0x20\n      add\n      0x00\n      keccak256\n        /* \"client-oracle/OptimisticOracleV2.sol\":1846:1881  ooRequests[requestId].currentStatus */\n      0x08\n      add\n      0x00\n        /* \"client-oracle/OptimisticOracleV2.sol\":1846:1906  ooRequests[requestId].currentStatus = Status.SettleRequested */\n      0x0100\n      exp\n      dup2\n      sload\n      dup2\n      0xff\n      mul\n      not\n      and\n      swap1\n      dup4\n      0x02\n      dup2\n      gt\n      iszero\n      tag_47\n      jumpi\n      tag_48\n      tag_33\n      jump\t// in\n    tag_48:\n    tag_47:\n      mul\n      or\n      swap1\n      sstore\n      pop\n        /* \"client-oracle/OptimisticOracleV2.sol\":1921:1964  settleOORequest(requestId, block.timestamp) */\n      0x1f5d616c2e1670edad5d1f2ce72c07bd219ebefbae35617f57d8234964fc2743\n        /* \"client-oracle/OptimisticOracleV2.sol\":1937:1946  requestId */\n      dup2\n        /* \"client-oracle/OptimisticOracleV2.sol\":1948:1963  block.timestamp */\n      timestamp\n        /* \"client-oracle/OptimisticOracleV2.sol\":1921:1964  settleOORequest(requestId, block.timestamp) */\n      mload(0x40)\n      tag_49\n      swap3\n      swap2\n      swap1\n      tag_50\n      jump\t// in\n    tag_49:\n      mload(0x40)\n      dup1\n      swap2\n      sub\n      swap1\n      log1\n        /* \"client-oracle/OptimisticOracleV2.sol\":1790:1971  function settleRequest(uint requestId) public {... */\n      pop\n      jump\t// out\n        /* \"client-oracle/OptimisticOracleV2.sol\":597:641  mapping(uint => ooRequest) public ooRequests */\n    tag_27:\n      mstore(0x20, 0x01)\n      dup1\n      0x00\n      mstore\n      keccak256(0x00, 0x40)\n      0x00\n      swap2\n      pop\n      swap1\n      pop\n      dup1\n      0x00\n      add\n      dup1\n      sload\n      tag_51\n      swap1\n      tag_52\n      jump\t// in\n    tag_51:\n      dup1\n      0x1f\n      add\n      0x20\n      dup1\n      swap2\n      div\n      mul\n      0x20\n      add\n      mload(0x40)\n      swap1\n      dup2\n      add\n      0x40\n      mstore\n      dup1\n      swap3\n      swap2\n      swap1\n      dup2\n      dup2\n      mstore\n      0x20\n      add\n      dup3\n      dup1\n      sload\n      tag_53\n      swap1\n      tag_52\n      jump\t// in\n    tag_53:\n      dup1\n      iszero\n      tag_54\n      jumpi\n      dup1\n      0x1f\n      lt\n      tag_55\n      jumpi\n      0x0100\n      dup1\n      dup4\n      sload\n      div\n      mul\n      dup4\n      mstore\n      swap2\n      0x20\n      add\n      swap2\n      jump(tag_54)\n    tag_55:\n      dup3\n      add\n      swap2\n      swap1\n      0x00\n      mstore\n      keccak256(0x00, 0x20)\n      swap1\n    tag_56:\n      dup2\n      sload\n      dup2\n      mstore\n      swap1\n      0x01\n      add\n      swap1\n      0x20\n      add\n      dup1\n      dup4\n      gt\n      tag_56\n      jumpi\n      dup3\n      swap1\n      sub\n      0x1f\n      and\n      dup3\n      add\n      swap2\n    tag_54:\n      pop\n      pop\n      pop\n      pop\n      pop\n      swap1\n      dup1\n      0x01\n      add\n      dup1\n      sload\n      tag_57\n      swap1\n      tag_52\n      jump\t// in\n    tag_57:\n      dup1\n      0x1f\n      add\n      0x20\n      dup1\n      swap2\n      div\n      mul\n      0x20\n      add\n      mload(0x40)\n      swap1\n      dup2\n      add\n      0x40\n      mstore\n      dup1\n      swap3\n      swap2\n      swap1\n      dup2\n      dup2\n      mstore\n      0x20\n      add\n      dup3\n      dup1\n      sload\n      tag_58\n      swap1\n      tag_52\n      jump\t// in\n    tag_58:\n      dup1\n      iszero\n      tag_59\n      jumpi\n      dup1\n      0x1f\n      lt\n      tag_60\n      jumpi\n      0x0100\n      dup1\n      dup4\n      sload\n      div\n      mul\n      dup4\n      mstore\n      swap2\n      0x20\n      add\n      swap2\n      jump(tag_59)\n    tag_60:\n      dup3\n      add\n      swap2\n      swap1\n      0x00\n      mstore\n      keccak256(0x00, 0x20)\n      swap1\n    tag_61:\n      dup2\n      sload\n      dup2\n      mstore\n      swap1\n      0x01\n      add\n      swap1\n      0x20\n      add\n      dup1\n      dup4\n      gt\n      tag_61\n      jumpi\n      dup3\n      swap1\n      sub\n      0x1f\n      and\n      dup3\n      add\n      swap2\n    tag_59:\n      pop\n      pop\n      pop\n      pop\n      pop\n      swap1\n      dup1\n      0x02\n      add\n      0x00\n      swap1\n      sload\n      swap1\n      0x0100\n      exp\n      swap1\n      div\n      0xffffffffffffffffffffffffffffffffffffffff\n      and\n      swap1\n      dup1\n      0x03\n      add\n      sload\n      swap1\n      dup1\n      0x04\n      add\n      sload\n      swap1\n      dup1\n      0x05\n      add\n      sload\n      swap1\n      dup1\n      0x06\n      add\n      0x00\n      swap1\n      sload\n      swap1\n      0x0100\n      exp\n      swap1\n      div\n      0xffffffffffffffffffffffffffffffffffffffff\n      and\n      swap1\n      dup1\n      0x07\n      add\n      sload\n      swap1\n      dup1\n      0x08\n      add\n      0x00\n      swap1\n      sload\n      swap1\n      0x0100\n      exp\n      swap1\n      div\n      0xff\n      and\n      swap1\n      pop\n      dup10\n      jump\t// out\n        /* \"#utility.yul\":7:82   */\n    tag_62:\n        /* \"#utility.yul\":40:46   */\n      0x00\n        /* \"#utility.yul\":73:75   */\n      0x40\n        /* \"#utility.yul\":67:76   */\n      mload\n        /* \"#utility.yul\":57:76   */\n      swap1\n      pop\n        /* \"#utility.yul\":7:82   */\n      swap1\n      jump\t// out\n        /* \"#utility.yul\":88:205   */\n    tag_63:\n        /* \"#utility.yul\":197:198   */\n      0x00\n        /* \"#utility.yul\":194:195   */\n      dup1\n        /* \"#utility.yul\":187:199   */\n      revert\n        /* \"#utility.yul\":211:328   */\n    tag_64:\n        /* \"#utility.yul\":320:321   */\n      0x00\n        /* \"#utility.yul\":317:318   */\n      dup1\n        /* \"#utility.yul\":310:322   */\n      revert\n        /* \"#utility.yul\":334:451   */\n    tag_65:\n        /* \"#utility.yul\":443:444   */\n      0x00\n        /* \"#utility.yul\":440:441   */\n      dup1\n        /* \"#utility.yul\":433:445   */\n      revert\n        /* \"#utility.yul\":457:574   */\n    tag_66:\n        /* \"#utility.yul\":566:567   */\n      0x00\n        /* \"#utility.yul\":563:564   */\n      dup1\n        /* \"#utility.yul\":556:568   */\n      revert\n        /* \"#utility.yul\":580:682   */\n    tag_67:\n        /* \"#utility.yul\":621:627   */\n      0x00\n        /* \"#utility.yul\":672:674   */\n      0x1f\n        /* \"#utility.yul\":668:675   */\n      not\n        /* \"#utility.yul\":663:665   */\n      0x1f\n        /* \"#utility.yul\":656:661   */\n      dup4\n        /* \"#utility.yul\":652:666   */\n      add\n        /* \"#utility.yul\":648:676   */\n      and\n        /* \"#utility.yul\":638:676   */\n      swap1\n      pop\n        /* \"#utility.yul\":580:682   */\n      swap2\n      swap1\n      pop\n      jump\t// out\n        /* \"#utility.yul\":688:868   */\n    tag_68:\n        /* \"#utility.yul\":736:813   */\n      0x4e487b7100000000000000000000000000000000000000000000000000000000\n        /* \"#utility.yul\":733:734   */\n      0x00\n        /* \"#utility.yul\":726:814   */\n      mstore\n        /* \"#utility.yul\":833:837   */\n      0x41\n        /* \"#utility.yul\":830:831   */\n      0x04\n        /* \"#utility.yul\":823:838   */\n      mstore\n        /* \"#utility.yul\":857:861   */\n      0x24\n        /* \"#utility.yul\":854:855   */\n      0x00\n        /* \"#utility.yul\":847:862   */\n      revert\n        /* \"#utility.yul\":874:1155   */\n    tag_69:\n        /* \"#utility.yul\":957:984   */\n      tag_121\n        /* \"#utility.yul\":979:983   */\n      dup3\n        /* \"#utility.yul\":957:984   */\n      tag_67\n      jump\t// in\n    tag_121:\n        /* \"#utility.yul\":949:955   */\n      dup2\n        /* \"#utility.yul\":945:985   */\n      add\n        /* \"#utility.yul\":1087:1093   */\n      dup2\n        /* \"#utility.yul\":1075:1085   */\n      dup2\n        /* \"#utility.yul\":1072:1094   */\n      lt\n        /* \"#utility.yul\":1051:1069   */\n      0xffffffffffffffff\n        /* \"#utility.yul\":1039:1049   */\n      dup3\n        /* \"#utility.yul\":1036:1070   */\n      gt\n        /* \"#utility.yul\":1033:1095   */\n      or\n        /* \"#utility.yul\":1030:1118   */\n      iszero\n      tag_122\n      jumpi\n        /* \"#utility.yul\":1098:1116   */\n      tag_123\n      tag_68\n      jump\t// in\n    tag_123:\n        /* \"#utility.yul\":1030:1118   */\n    tag_122:\n        /* \"#utility.yul\":1138:1148   */\n      dup1\n        /* \"#utility.yul\":1134:1136   */\n      0x40\n        /* \"#utility.yul\":1127:1149   */\n      mstore\n        /* \"#utility.yul\":917:1155   */\n      pop\n        /* \"#utility.yul\":874:1155   */\n      pop\n      pop\n      jump\t// out\n        /* \"#utility.yul\":1161:1290   */\n    tag_70:\n        /* \"#utility.yul\":1195:1201   */\n      0x00\n        /* \"#utility.yul\":1222:1242   */\n      tag_125\n      tag_62\n      jump\t// in\n    tag_125:\n        /* \"#utility.yul\":1212:1242   */\n      swap1\n      pop\n        /* \"#utility.yul\":1251:1284   */\n      tag_126\n        /* \"#utility.yul\":1279:1283   */\n      dup3\n        /* \"#utility.yul\":1271:1277   */\n      dup3\n        /* \"#utility.yul\":1251:1284   */\n      tag_69\n      jump\t// in\n    tag_126:\n        /* \"#utility.yul\":1161:1290   */\n      swap2\n      swap1\n      pop\n      jump\t// out\n        /* \"#utility.yul\":1296:1603   */\n    tag_71:\n        /* \"#utility.yul\":1357:1361   */\n      0x00\n        /* \"#utility.yul\":1447:1465   */\n      0xffffffffffffffff\n        /* \"#utility.yul\":1439:1445   */\n      dup3\n        /* \"#utility.yul\":1436:1466   */\n      gt\n        /* \"#utility.yul\":1433:1489   */\n      iszero\n      tag_128\n      jumpi\n        /* \"#utility.yul\":1469:1487   */\n      tag_129\n      tag_68\n      jump\t// in\n    tag_129:\n        /* \"#utility.yul\":1433:1489   */\n    tag_128:\n        /* \"#utility.yul\":1507:1536   */\n      tag_130\n        /* \"#utility.yul\":1529:1535   */\n      dup3\n        /* \"#utility.yul\":1507:1536   */\n      tag_67\n      jump\t// in\n    tag_130:\n        /* \"#utility.yul\":1499:1536   */\n      swap1\n      pop\n        /* \"#utility.yul\":1591:1595   */\n      0x20\n        /* \"#utility.yul\":1585:1589   */\n      dup2\n        /* \"#utility.yul\":1581:1596   */\n      add\n        /* \"#utility.yul\":1573:1596   */\n      swap1\n      pop\n        /* \"#utility.yul\":1296:1603   */\n      swap2\n      swap1\n      pop\n      jump\t// out\n        /* \"#utility.yul\":1609:1755   */\n    tag_72:\n        /* \"#utility.yul\":1706:1712   */\n      dup3\n        /* \"#utility.yul\":1701:1704   */\n      dup2\n        /* \"#utility.yul\":1696:1699   */\n      dup4\n        /* \"#utility.yul\":1683:1713   */\n      calldatacopy\n        /* \"#utility.yul\":1747:1748   */\n      0x00\n        /* \"#utility.yul\":1738:1744   */\n      dup4\n        /* \"#utility.yul\":1733:1736   */\n      dup4\n        /* \"#utility.yul\":1729:1745   */\n      add\n        /* \"#utility.yul\":1722:1749   */\n      mstore\n        /* \"#utility.yul\":1609:1755   */\n      pop\n      pop\n      pop\n      jump\t// out\n        /* \"#utility.yul\":1761:2184   */\n    tag_73:\n        /* \"#utility.yul\":1838:1843   */\n      0x00\n        /* \"#utility.yul\":1863:1928   */\n      tag_133\n        /* \"#utility.yul\":1879:1927   */\n      tag_134\n        /* \"#utility.yul\":1920:1926   */\n      dup5\n        /* \"#utility.yul\":1879:1927   */\n      tag_71\n      jump\t// in\n    tag_134:\n        /* \"#utility.yul\":1863:1928   */\n      tag_70\n      jump\t// in\n    tag_133:\n        /* \"#utility.yul\":1854:1928   */\n      swap1\n      pop\n        /* \"#utility.yul\":1951:1957   */\n      dup3\n        /* \"#utility.yul\":1944:1949   */\n      dup2\n        /* \"#utility.yul\":1937:1958   */\n      mstore\n        /* \"#utility.yul\":1989:1993   */\n      0x20\n        /* \"#utility.yul\":1982:1987   */\n      dup2\n        /* \"#utility.yul\":1978:1994   */\n      add\n        /* \"#utility.yul\":2027:2030   */\n      dup5\n        /* \"#utility.yul\":2018:2024   */\n      dup5\n        /* \"#utility.yul\":2013:2016   */\n      dup5\n        /* \"#utility.yul\":2009:2025   */\n      add\n        /* \"#utility.yul\":2006:2031   */\n      gt\n        /* \"#utility.yul\":2003:2115   */\n      iszero\n      tag_135\n      jumpi\n        /* \"#utility.yul\":2034:2113   */\n      tag_136\n      tag_66\n      jump\t// in\n    tag_136:\n        /* \"#utility.yul\":2003:2115   */\n    tag_135:\n        /* \"#utility.yul\":2124:2178   */\n      tag_137\n        /* \"#utility.yul\":2171:2177   */\n      dup5\n        /* \"#utility.yul\":2166:2169   */\n      dup3\n        /* \"#utility.yul\":2161:2164   */\n      dup6\n        /* \"#utility.yul\":2124:2178   */\n      tag_72\n      jump\t// in\n    tag_137:\n        /* \"#utility.yul\":1844:2184   */\n      pop\n        /* \"#utility.yul\":1761:2184   */\n      swap4\n      swap3\n      pop\n      pop\n      pop\n      jump\t// out\n        /* \"#utility.yul\":2203:2541   */\n    tag_74:\n        /* \"#utility.yul\":2258:2263   */\n      0x00\n        /* \"#utility.yul\":2307:2310   */\n      dup3\n        /* \"#utility.yul\":2300:2304   */\n      0x1f\n        /* \"#utility.yul\":2292:2298   */\n      dup4\n        /* \"#utility.yul\":2288:2305   */\n      add\n        /* \"#utility.yul\":2284:2311   */\n      slt\n        /* \"#utility.yul\":2274:2396   */\n      tag_139\n      jumpi\n        /* \"#utility.yul\":2315:2394   */\n      tag_140\n      tag_65\n      jump\t// in\n    tag_140:\n        /* \"#utility.yul\":2274:2396   */\n    tag_139:\n        /* \"#utility.yul\":2432:2438   */\n      dup2\n        /* \"#utility.yul\":2419:2439   */\n      calldataload\n        /* \"#utility.yul\":2457:2535   */\n      tag_141\n        /* \"#utility.yul\":2531:2534   */\n      dup5\n        /* \"#utility.yul\":2523:2529   */\n      dup3\n        /* \"#utility.yul\":2516:2520   */\n      0x20\n        /* \"#utility.yul\":2508:2514   */\n      dup7\n        /* \"#utility.yul\":2504:2521   */\n      add\n        /* \"#utility.yul\":2457:2535   */\n      tag_73\n      jump\t// in\n    tag_141:\n        /* \"#utility.yul\":2448:2535   */\n      swap2\n      pop\n        /* \"#utility.yul\":2264:2541   */\n      pop\n        /* \"#utility.yul\":2203:2541   */\n      swap3\n      swap2\n      pop\n      pop\n      jump\t// out\n        /* \"#utility.yul\":2547:2673   */\n    tag_75:\n        /* \"#utility.yul\":2584:2591   */\n      0x00\n        /* \"#utility.yul\":2624:2666   */\n      0xffffffffffffffffffffffffffffffffffffffff\n        /* \"#utility.yul\":2617:2622   */\n      dup3\n        /* \"#utility.yul\":2613:2667   */\n      and\n        /* \"#utility.yul\":2602:2667   */\n      swap1\n      pop\n        /* \"#utility.yul\":2547:2673   */\n      swap2\n      swap1\n      pop\n      jump\t// out\n        /* \"#utility.yul\":2679:2775   */\n    tag_76:\n        /* \"#utility.yul\":2716:2723   */\n      0x00\n        /* \"#utility.yul\":2745:2769   */\n      tag_144\n        /* \"#utility.yul\":2763:2768   */\n      dup3\n        /* \"#utility.yul\":2745:2769   */\n      tag_75\n      jump\t// in\n    tag_144:\n        /* \"#utility.yul\":2734:2769   */\n      swap1\n      pop\n        /* \"#utility.yul\":2679:2775   */\n      swap2\n      swap1\n      pop\n      jump\t// out\n        /* \"#utility.yul\":2781:2903   */\n    tag_77:\n        /* \"#utility.yul\":2854:2878   */\n      tag_146\n        /* \"#utility.yul\":2872:2877   */\n      dup2\n        /* \"#utility.yul\":2854:2878   */\n      tag_76\n      jump\t// in\n    tag_146:\n        /* \"#utility.yul\":2847:2852   */\n      dup2\n        /* \"#utility.yul\":2844:2879   */\n      eq\n        /* \"#utility.yul\":2834:2897   */\n      tag_147\n      jumpi\n        /* \"#utility.yul\":2893:2894   */\n      0x00\n        /* \"#utility.yul\":2890:2891   */\n      dup1\n        /* \"#utility.yul\":2883:2895   */\n      revert\n        /* \"#utility.yul\":2834:2897   */\n    tag_147:\n        /* \"#utility.yul\":2781:2903   */\n      pop\n      jump\t// out\n        /* \"#utility.yul\":2909:3048   */\n    tag_78:\n        /* \"#utility.yul\":2955:2960   */\n      0x00\n        /* \"#utility.yul\":2993:2999   */\n      dup2\n        /* \"#utility.yul\":2980:3000   */\n      calldataload\n        /* \"#utility.yul\":2971:3000   */\n      swap1\n      pop\n        /* \"#utility.yul\":3009:3042   */\n      tag_149\n        /* \"#utility.yul\":3036:3041   */\n      dup2\n        /* \"#utility.yul\":3009:3042   */\n      tag_77\n      jump\t// in\n    tag_149:\n        /* \"#utility.yul\":2909:3048   */\n      swap3\n      swap2\n      pop\n      pop\n      jump\t// out\n        /* \"#utility.yul\":3054:3131   */\n    tag_79:\n        /* \"#utility.yul\":3091:3098   */\n      0x00\n        /* \"#utility.yul\":3120:3125   */\n      dup2\n        /* \"#utility.yul\":3109:3125   */\n      swap1\n      pop\n        /* \"#utility.yul\":3054:3131   */\n      swap2\n      swap1\n      pop\n      jump\t// out\n        /* \"#utility.yul\":3137:3259   */\n    tag_80:\n        /* \"#utility.yul\":3210:3234   */\n      tag_152\n        /* \"#utility.yul\":3228:3233   */\n      dup2\n        /* \"#utility.yul\":3210:3234   */\n      tag_79\n      jump\t// in\n    tag_152:\n        /* \"#utility.yul\":3203:3208   */\n      dup2\n        /* \"#utility.yul\":3200:3235   */\n      eq\n        /* \"#utility.yul\":3190:3253   */\n      tag_153\n      jumpi\n        /* \"#utility.yul\":3249:3250   */\n      0x00\n        /* \"#utility.yul\":3246:3247   */\n      dup1\n        /* \"#utility.yul\":3239:3251   */\n      revert\n        /* \"#utility.yul\":3190:3253   */\n    tag_153:\n        /* \"#utility.yul\":3137:3259   */\n      pop\n      jump\t// out\n        /* \"#utility.yul\":3265:3404   */\n    tag_81:\n        /* \"#utility.yul\":3311:3316   */\n      0x00\n        /* \"#utility.yul\":3349:3355   */\n      dup2\n        /* \"#utility.yul\":3336:3356   */\n      calldataload\n        /* \"#utility.yul\":3327:3356   */\n      swap1\n      pop\n        /* \"#utility.yul\":3365:3398   */\n      tag_155\n        /* \"#utility.yul\":3392:3397   */\n      dup2\n        /* \"#utility.yul\":3365:3398   */\n      tag_80\n      jump\t// in\n    tag_155:\n        /* \"#utility.yul\":3265:3404   */\n      swap3\n      swap2\n      pop\n      pop\n      jump\t// out\n        /* \"#utility.yul\":3410:4677   */\n    tag_10:\n        /* \"#utility.yul\":3523:3529   */\n      0x00\n        /* \"#utility.yul\":3531:3537   */\n      dup1\n        /* \"#utility.yul\":3539:3545   */\n      0x00\n        /* \"#utility.yul\":3547:3553   */\n      dup1\n        /* \"#utility.yul\":3555:3561   */\n      0x00\n        /* \"#utility.yul\":3604:3607   */\n      0xa0\n        /* \"#utility.yul\":3592:3601   */\n      dup7\n        /* \"#utility.yul\":3583:3590   */\n      dup9\n        /* \"#utility.yul\":3579:3602   */\n      sub\n        /* \"#utility.yul\":3575:3608   */\n      slt\n        /* \"#utility.yul\":3572:3692   */\n      iszero\n      tag_157\n      jumpi\n        /* \"#utility.yul\":3611:3690   */\n      tag_158\n      tag_63\n      jump\t// in\n    tag_158:\n        /* \"#utility.yul\":3572:3692   */\n    tag_157:\n        /* \"#utility.yul\":3759:3760   */\n      0x00\n        /* \"#utility.yul\":3748:3757   */\n      dup7\n        /* \"#utility.yul\":3744:3761   */\n      add\n        /* \"#utility.yul\":3731:3762   */\n      calldataload\n        /* \"#utility.yul\":3789:3807   */\n      0xffffffffffffffff\n        /* \"#utility.yul\":3781:3787   */\n      dup2\n        /* \"#utility.yul\":3778:3808   */\n      gt\n        /* \"#utility.yul\":3775:3892   */\n      iszero\n      tag_159\n      jumpi\n        /* \"#utility.yul\":3811:3890   */\n      tag_160\n      tag_64\n      jump\t// in\n    tag_160:\n        /* \"#utility.yul\":3775:3892   */\n    tag_159:\n        /* \"#utility.yul\":3916:3978   */\n      tag_161\n        /* \"#utility.yul\":3970:3977   */\n      dup9\n        /* \"#utility.yul\":3961:3967   */\n      dup3\n        /* \"#utility.yul\":3950:3959   */\n      dup10\n        /* \"#utility.yul\":3946:3968   */\n      add\n        /* \"#utility.yul\":3916:3978   */\n      tag_74\n      jump\t// in\n    tag_161:\n        /* \"#utility.yul\":3906:3978   */\n      swap6\n      pop\n        /* \"#utility.yul\":3702:3988   */\n      pop\n        /* \"#utility.yul\":4055:4057   */\n      0x20\n        /* \"#utility.yul\":4044:4053   */\n      dup7\n        /* \"#utility.yul\":4040:4058   */\n      add\n        /* \"#utility.yul\":4027:4059   */\n      calldataload\n        /* \"#utility.yul\":4086:4104   */\n      0xffffffffffffffff\n        /* \"#utility.yul\":4078:4084   */\n      dup2\n        /* \"#utility.yul\":4075:4105   */\n      gt\n        /* \"#utility.yul\":4072:4189   */\n      iszero\n      tag_162\n      jumpi\n        /* \"#utility.yul\":4108:4187   */\n      tag_163\n      tag_64\n      jump\t// in\n    tag_163:\n        /* \"#utility.yul\":4072:4189   */\n    tag_162:\n        /* \"#utility.yul\":4213:4275   */\n      tag_164\n        /* \"#utility.yul\":4267:4274   */\n      dup9\n        /* \"#utility.yul\":4258:4264   */\n      dup3\n        /* \"#utility.yul\":4247:4256   */\n      dup10\n        /* \"#utility.yul\":4243:4265   */\n      add\n        /* \"#utility.yul\":4213:4275   */\n      tag_74\n      jump\t// in\n    tag_164:\n        /* \"#utility.yul\":4203:4275   */\n      swap5\n      pop\n        /* \"#utility.yul\":3998:4285   */\n      pop\n        /* \"#utility.yul\":4324:4326   */\n      0x40\n        /* \"#utility.yul\":4350:4403   */\n      tag_165\n        /* \"#utility.yul\":4395:4402   */\n      dup9\n        /* \"#utility.yul\":4386:4392   */\n      dup3\n        /* \"#utility.yul\":4375:4384   */\n      dup10\n        /* \"#utility.yul\":4371:4393   */\n      add\n        /* \"#utility.yul\":4350:4403   */\n      tag_78\n      jump\t// in\n    tag_165:\n        /* \"#utility.yul\":4340:4403   */\n      swap4\n      pop\n        /* \"#utility.yul\":4295:4413   */\n      pop\n        /* \"#utility.yul\":4452:4454   */\n      0x60\n        /* \"#utility.yul\":4478:4531   */\n      tag_166\n        /* \"#utility.yul\":4523:4530   */\n      dup9\n        /* \"#utility.yul\":4514:4520   */\n      dup3\n        /* \"#utility.yul\":4503:4512   */\n      dup10\n        /* \"#utility.yul\":4499:4521   */\n      add\n        /* \"#utility.yul\":4478:4531   */\n      tag_81\n      jump\t// in\n    tag_166:\n        /* \"#utility.yul\":4468:4531   */\n      swap3\n      pop\n        /* \"#utility.yul\":4423:4541   */\n      pop\n        /* \"#utility.yul\":4580:4583   */\n      0x80\n        /* \"#utility.yul\":4607:4660   */\n      tag_167\n        /* \"#utility.yul\":4652:4659   */\n      dup9\n        /* \"#utility.yul\":4643:4649   */\n      dup3\n        /* \"#utility.yul\":4632:4641   */\n      dup10\n        /* \"#utility.yul\":4628:4650   */\n      add\n        /* \"#utility.yul\":4607:4660   */\n      tag_81\n      jump\t// in\n    tag_167:\n        /* \"#utility.yul\":4597:4660   */\n      swap2\n      pop\n        /* \"#utility.yul\":4551:4670   */\n      pop\n        /* \"#utility.yul\":3410:4677   */\n      swap3\n      swap6\n      pop\n      swap3\n      swap6\n      swap1\n      swap4\n      pop\n      jump\t// out\n        /* \"#utility.yul\":4683:4801   */\n    tag_82:\n        /* \"#utility.yul\":4770:4794   */\n      tag_169\n        /* \"#utility.yul\":4788:4793   */\n      dup2\n        /* \"#utility.yul\":4770:4794   */\n      tag_79\n      jump\t// in\n    tag_169:\n        /* \"#utility.yul\":4765:4768   */\n      dup3\n        /* \"#utility.yul\":4758:4795   */\n      mstore\n        /* \"#utility.yul\":4683:4801   */\n      pop\n      pop\n      jump\t// out\n        /* \"#utility.yul\":4807:5029   */\n    tag_13:\n        /* \"#utility.yul\":4900:4904   */\n      0x00\n        /* \"#utility.yul\":4938:4940   */\n      0x20\n        /* \"#utility.yul\":4927:4936   */\n      dup3\n        /* \"#utility.yul\":4923:4941   */\n      add\n        /* \"#utility.yul\":4915:4941   */\n      swap1\n      pop\n        /* \"#utility.yul\":4951:5022   */\n      tag_171\n        /* \"#utility.yul\":5019:5020   */\n      0x00\n        /* \"#utility.yul\":5008:5017   */\n      dup4\n        /* \"#utility.yul\":5004:5021   */\n      add\n        /* \"#utility.yul\":4995:5001   */\n      dup5\n        /* \"#utility.yul\":4951:5022   */\n      tag_82\n      jump\t// in\n    tag_171:\n        /* \"#utility.yul\":4807:5029   */\n      swap3\n      swap2\n      pop\n      pop\n      jump\t// out\n        /* \"#utility.yul\":5035:5111   */\n    tag_83:\n        /* \"#utility.yul\":5071:5078   */\n      0x00\n        /* \"#utility.yul\":5100:5105   */\n      dup2\n        /* \"#utility.yul\":5089:5105   */\n      swap1\n      pop\n        /* \"#utility.yul\":5035:5111   */\n      swap2\n      swap1\n      pop\n      jump\t// out\n        /* \"#utility.yul\":5117:5237   */\n    tag_84:\n        /* \"#utility.yul\":5189:5212   */\n      tag_174\n        /* \"#utility.yul\":5206:5211   */\n      dup2\n        /* \"#utility.yul\":5189:5212   */\n      tag_83\n      jump\t// in\n    tag_174:\n        /* \"#utility.yul\":5182:5187   */\n      dup2\n        /* \"#utility.yul\":5179:5213   */\n      eq\n        /* \"#utility.yul\":5169:5231   */\n      tag_175\n      jumpi\n        /* \"#utility.yul\":5227:5228   */\n      0x00\n        /* \"#utility.yul\":5224:5225   */\n      dup1\n        /* \"#utility.yul\":5217:5229   */\n      revert\n        /* \"#utility.yul\":5169:5231   */\n    tag_175:\n        /* \"#utility.yul\":5117:5237   */\n      pop\n      jump\t// out\n        /* \"#utility.yul\":5243:5380   */\n    tag_85:\n        /* \"#utility.yul\":5288:5293   */\n      0x00\n        /* \"#utility.yul\":5326:5332   */\n      dup2\n        /* \"#utility.yul\":5313:5333   */\n      calldataload\n        /* \"#utility.yul\":5304:5333   */\n      swap1\n      pop\n        /* \"#utility.yul\":5342:5374   */\n      tag_177\n        /* \"#utility.yul\":5368:5373   */\n      dup2\n        /* \"#utility.yul\":5342:5374   */\n      tag_84\n      jump\t// in\n    tag_177:\n        /* \"#utility.yul\":5243:5380   */\n      swap3\n      swap2\n      pop\n      pop\n      jump\t// out\n        /* \"#utility.yul\":5386:5858   */\n    tag_19:\n        /* \"#utility.yul\":5453:5459   */\n      0x00\n        /* \"#utility.yul\":5461:5467   */\n      dup1\n        /* \"#utility.yul\":5510:5512   */\n      0x40\n        /* \"#utility.yul\":5498:5507   */\n      dup4\n        /* \"#utility.yul\":5489:5496   */\n      dup6\n        /* \"#utility.yul\":5485:5508   */\n      sub\n        /* \"#utility.yul\":5481:5513   */\n      slt\n        /* \"#utility.yul\":5478:5597   */\n      iszero\n      tag_179\n      jumpi\n        /* \"#utility.yul\":5516:5595   */\n      tag_180\n      tag_63\n      jump\t// in\n    tag_180:\n        /* \"#utility.yul\":5478:5597   */\n    tag_179:\n        /* \"#utility.yul\":5636:5637   */\n      0x00\n        /* \"#utility.yul\":5661:5714   */\n      tag_181\n        /* \"#utility.yul\":5706:5713   */\n      dup6\n        /* \"#utility.yul\":5697:5703   */\n      dup3\n        /* \"#utility.yul\":5686:5695   */\n      dup7\n        /* \"#utility.yul\":5682:5704   */\n      add\n        /* \"#utility.yul\":5661:5714   */\n      tag_81\n      jump\t// in\n    tag_181:\n        /* \"#utility.yul\":5651:5714   */\n      swap3\n      pop\n        /* \"#utility.yul\":5607:5724   */\n      pop\n        /* \"#utility.yul\":5763:5765   */\n      0x20\n        /* \"#utility.yul\":5789:5841   */\n      tag_182\n        /* \"#utility.yul\":5833:5840   */\n      dup6\n        /* \"#utility.yul\":5824:5830   */\n      dup3\n        /* \"#utility.yul\":5813:5822   */\n      dup7\n        /* \"#utility.yul\":5809:5831   */\n      add\n        /* \"#utility.yul\":5789:5841   */\n      tag_85\n      jump\t// in\n    tag_182:\n        /* \"#utility.yul\":5779:5841   */\n      swap2\n      pop\n        /* \"#utility.yul\":5734:5851   */\n      pop\n        /* \"#utility.yul\":5386:5858   */\n      swap3\n      pop\n      swap3\n      swap1\n      pop\n      jump\t// out\n        /* \"#utility.yul\":5864:6193   */\n    tag_23:\n        /* \"#utility.yul\":5923:5929   */\n      0x00\n        /* \"#utility.yul\":5972:5974   */\n      0x20\n        /* \"#utility.yul\":5960:5969   */\n      dup3\n        /* \"#utility.yul\":5951:5958   */\n      dup5\n        /* \"#utility.yul\":5947:5970   */\n      sub\n        /* \"#utility.yul\":5943:5975   */\n      slt\n        /* \"#utility.yul\":5940:6059   */\n      iszero\n      tag_184\n      jumpi\n        /* \"#utility.yul\":5978:6057   */\n      tag_185\n      tag_63\n      jump\t// in\n    tag_185:\n        /* \"#utility.yul\":5940:6059   */\n    tag_184:\n        /* \"#utility.yul\":6098:6099   */\n      0x00\n        /* \"#utility.yul\":6123:6176   */\n      tag_186\n        /* \"#utility.yul\":6168:6175   */\n      dup5\n        /* \"#utility.yul\":6159:6165   */\n      dup3\n        /* \"#utility.yul\":6148:6157   */\n      dup6\n        /* \"#utility.yul\":6144:6166   */\n      add\n        /* \"#utility.yul\":6123:6176   */\n      tag_81\n      jump\t// in\n    tag_186:\n        /* \"#utility.yul\":6113:6176   */\n      swap2\n      pop\n        /* \"#utility.yul\":6069:6186   */\n      pop\n        /* \"#utility.yul\":5864:6193   */\n      swap3\n      swap2\n      pop\n      pop\n      jump\t// out\n        /* \"#utility.yul\":6199:6297   */\n    tag_86:\n        /* \"#utility.yul\":6250:6256   */\n      0x00\n        /* \"#utility.yul\":6284:6289   */\n      dup2\n        /* \"#utility.yul\":6278:6290   */\n      mload\n        /* \"#utility.yul\":6268:6290   */\n      swap1\n      pop\n        /* \"#utility.yul\":6199:6297   */\n      swap2\n      swap1\n      pop\n      jump\t// out\n        /* \"#utility.yul\":6303:6471   */\n    tag_87:\n        /* \"#utility.yul\":6386:6397   */\n      0x00\n        /* \"#utility.yul\":6420:6426   */\n      dup3\n        /* \"#utility.yul\":6415:6418   */\n      dup3\n        /* \"#utility.yul\":6408:6427   */\n      mstore\n        /* \"#utility.yul\":6460:6464   */\n      0x20\n        /* \"#utility.yul\":6455:6458   */\n      dup3\n        /* \"#utility.yul\":6451:6465   */\n      add\n        /* \"#utility.yul\":6436:6465   */\n      swap1\n      pop\n        /* \"#utility.yul\":6303:6471   */\n      swap3\n      swap2\n      pop\n      pop\n      jump\t// out\n        /* \"#utility.yul\":6477:6723   */\n    tag_88:\n        /* \"#utility.yul\":6558:6559   */\n      0x00\n        /* \"#utility.yul\":6568:6681   */\n    tag_190:\n        /* \"#utility.yul\":6582:6588   */\n      dup4\n        /* \"#utility.yul\":6579:6580   */\n      dup2\n        /* \"#utility.yul\":6576:6589   */\n      lt\n        /* \"#utility.yul\":6568:6681   */\n      iszero\n      tag_192\n      jumpi\n        /* \"#utility.yul\":6667:6668   */\n      dup1\n        /* \"#utility.yul\":6662:6665   */\n      dup3\n        /* \"#utility.yul\":6658:6669   */\n      add\n        /* \"#utility.yul\":6652:6670   */\n      mload\n        /* \"#utility.yul\":6648:6649   */\n      dup2\n        /* \"#utility.yul\":6643:6646   */\n      dup5\n        /* \"#utility.yul\":6639:6650   */\n      add\n        /* \"#utility.yul\":6632:6671   */\n      mstore\n        /* \"#utility.yul\":6604:6606   */\n      0x20\n        /* \"#utility.yul\":6601:6602   */\n      dup2\n        /* \"#utility.yul\":6597:6607   */\n      add\n        /* \"#utility.yul\":6592:6607   */\n      swap1\n      pop\n        /* \"#utility.yul\":6568:6681   */\n      jump(tag_190)\n    tag_192:\n        /* \"#utility.yul\":6715:6716   */\n      0x00\n        /* \"#utility.yul\":6706:6712   */\n      dup5\n        /* \"#utility.yul\":6701:6704   */\n      dup5\n        /* \"#utility.yul\":6697:6713   */\n      add\n        /* \"#utility.yul\":6690:6717   */\n      mstore\n        /* \"#utility.yul\":6539:6723   */\n      pop\n        /* \"#utility.yul\":6477:6723   */\n      pop\n      pop\n      pop\n      jump\t// out\n        /* \"#utility.yul\":6729:7102   */\n    tag_89:\n        /* \"#utility.yul\":6815:6818   */\n      0x00\n        /* \"#utility.yul\":6843:6881   */\n      tag_194\n        /* \"#utility.yul\":6875:6880   */\n      dup3\n        /* \"#utility.yul\":6843:6881   */\n      tag_86\n      jump\t// in\n    tag_194:\n        /* \"#utility.yul\":6897:6967   */\n      tag_195\n        /* \"#utility.yul\":6960:6966   */\n      dup2\n        /* \"#utility.yul\":6955:6958   */\n      dup6\n        /* \"#utility.yul\":6897:6967   */\n      tag_87\n      jump\t// in\n    tag_195:\n        /* \"#utility.yul\":6890:6967   */\n      swap4\n      pop\n        /* \"#utility.yul\":6976:7041   */\n      tag_196\n        /* \"#utility.yul\":7034:7040   */\n      dup2\n        /* \"#utility.yul\":7029:7032   */\n      dup6\n        /* \"#utility.yul\":7022:7026   */\n      0x20\n        /* \"#utility.yul\":7015:7020   */\n      dup7\n        /* \"#utility.yul\":7011:7027   */\n      add\n        /* \"#utility.yul\":6976:7041   */\n      tag_88\n      jump\t// in\n    tag_196:\n        /* \"#utility.yul\":7066:7095   */\n      tag_197\n        /* \"#utility.yul\":7088:7094   */\n      dup2\n        /* \"#utility.yul\":7066:7095   */\n      tag_67\n      jump\t// in\n    tag_197:\n        /* \"#utility.yul\":7061:7064   */\n      dup5\n        /* \"#utility.yul\":7057:7096   */\n      add\n        /* \"#utility.yul\":7050:7096   */\n      swap2\n      pop\n        /* \"#utility.yul\":6819:7102   */\n      pop\n        /* \"#utility.yul\":6729:7102   */\n      swap3\n      swap2\n      pop\n      pop\n      jump\t// out\n        /* \"#utility.yul\":7108:7226   */\n    tag_90:\n        /* \"#utility.yul\":7195:7219   */\n      tag_199\n        /* \"#utility.yul\":7213:7218   */\n      dup2\n        /* \"#utility.yul\":7195:7219   */\n      tag_76\n      jump\t// in\n    tag_199:\n        /* \"#utility.yul\":7190:7193   */\n      dup3\n        /* \"#utility.yul\":7183:7220   */\n      mstore\n        /* \"#utility.yul\":7108:7226   */\n      pop\n      pop\n      jump\t// out\n        /* \"#utility.yul\":7232:7347   */\n    tag_91:\n        /* \"#utility.yul\":7317:7340   */\n      tag_201\n        /* \"#utility.yul\":7334:7339   */\n      dup2\n        /* \"#utility.yul\":7317:7340   */\n      tag_83\n      jump\t// in\n    tag_201:\n        /* \"#utility.yul\":7312:7315   */\n      dup3\n        /* \"#utility.yul\":7305:7341   */\n      mstore\n        /* \"#utility.yul\":7232:7347   */\n      pop\n      pop\n      jump\t// out\n        /* \"#utility.yul\":7353:7533   */\n    tag_33:\n        /* \"#utility.yul\":7401:7478   */\n      0x4e487b7100000000000000000000000000000000000000000000000000000000\n        /* \"#utility.yul\":7398:7399   */\n      0x00\n        /* \"#utility.yul\":7391:7479   */\n      mstore\n        /* \"#utility.yul\":7498:7502   */\n      0x21\n        /* \"#utility.yul\":7495:7496   */\n      0x04\n        /* \"#utility.yul\":7488:7503   */\n      mstore\n        /* \"#utility.yul\":7522:7526   */\n      0x24\n        /* \"#utility.yul\":7519:7520   */\n      0x00\n        /* \"#utility.yul\":7512:7527   */\n      revert\n        /* \"#utility.yul\":7539:7652   */\n    tag_92:\n        /* \"#utility.yul\":7620:7621   */\n      0x03\n        /* \"#utility.yul\":7613:7618   */\n      dup2\n        /* \"#utility.yul\":7610:7622   */\n      lt\n        /* \"#utility.yul\":7600:7646   */\n      tag_204\n      jumpi\n        /* \"#utility.yul\":7626:7644   */\n      tag_205\n      tag_33\n      jump\t// in\n    tag_205:\n        /* \"#utility.yul\":7600:7646   */\n    tag_204:\n        /* \"#utility.yul\":7539:7652   */\n      pop\n      jump\t// out\n        /* \"#utility.yul\":7658:7785   */\n    tag_93:\n        /* \"#utility.yul\":7703:7710   */\n      0x00\n        /* \"#utility.yul\":7732:7737   */\n      dup2\n        /* \"#utility.yul\":7721:7737   */\n      swap1\n      pop\n        /* \"#utility.yul\":7738:7779   */\n      tag_207\n        /* \"#utility.yul\":7773:7778   */\n      dup3\n        /* \"#utility.yul\":7738:7779   */\n      tag_92\n      jump\t// in\n    tag_207:\n        /* \"#utility.yul\":7658:7785   */\n      swap2\n      swap1\n      pop\n      jump\t// out\n        /* \"#utility.yul\":7791:7918   */\n    tag_94:\n        /* \"#utility.yul\":7847:7856   */\n      0x00\n        /* \"#utility.yul\":7880:7912   */\n      tag_209\n        /* \"#utility.yul\":7906:7911   */\n      dup3\n        /* \"#utility.yul\":7880:7912   */\n      tag_93\n      jump\t// in\n    tag_209:\n        /* \"#utility.yul\":7867:7912   */\n      swap1\n      pop\n        /* \"#utility.yul\":7791:7918   */\n      swap2\n      swap1\n      pop\n      jump\t// out\n        /* \"#utility.yul\":7924:8067   */\n    tag_95:\n        /* \"#utility.yul\":8017:8060   */\n      tag_211\n        /* \"#utility.yul\":8054:8059   */\n      dup2\n        /* \"#utility.yul\":8017:8060   */\n      tag_94\n      jump\t// in\n    tag_211:\n        /* \"#utility.yul\":8012:8015   */\n      dup3\n        /* \"#utility.yul\":8005:8061   */\n      mstore\n        /* \"#utility.yul\":7924:8067   */\n      pop\n      pop\n      jump\t// out\n        /* \"#utility.yul\":8073:9363   */\n    tag_29:\n        /* \"#utility.yul\":8430:8434   */\n      0x00\n        /* \"#utility.yul\":8468:8471   */\n      0x0120\n        /* \"#utility.yul\":8457:8466   */\n      dup3\n        /* \"#utility.yul\":8453:8472   */\n      add\n        /* \"#utility.yul\":8445:8472   */\n      swap1\n      pop\n        /* \"#utility.yul\":8518:8527   */\n      dup2\n        /* \"#utility.yul\":8512:8516   */\n      dup2\n        /* \"#utility.yul\":8508:8528   */\n      sub\n        /* \"#utility.yul\":8504:8505   */\n      0x00\n        /* \"#utility.yul\":8493:8502   */\n      dup4\n        /* \"#utility.yul\":8489:8506   */\n      add\n        /* \"#utility.yul\":8482:8529   */\n      mstore\n        /* \"#utility.yul\":8546:8622   */\n      tag_213\n        /* \"#utility.yul\":8617:8621   */\n      dup2\n        /* \"#utility.yul\":8608:8614   */\n      dup13\n        /* \"#utility.yul\":8546:8622   */\n      tag_89\n      jump\t// in\n    tag_213:\n        /* \"#utility.yul\":8538:8622   */\n      swap1\n      pop\n        /* \"#utility.yul\":8669:8678   */\n      dup2\n        /* \"#utility.yul\":8663:8667   */\n      dup2\n        /* \"#utility.yul\":8659:8679   */\n      sub\n        /* \"#utility.yul\":8654:8656   */\n      0x20\n        /* \"#utility.yul\":8643:8652   */\n      dup4\n        /* \"#utility.yul\":8639:8657   */\n      add\n        /* \"#utility.yul\":8632:8680   */\n      mstore\n        /* \"#utility.yul\":8697:8773   */\n      tag_214\n        /* \"#utility.yul\":8768:8772   */\n      dup2\n        /* \"#utility.yul\":8759:8765   */\n      dup12\n        /* \"#utility.yul\":8697:8773   */\n      tag_89\n      jump\t// in\n    tag_214:\n        /* \"#utility.yul\":8689:8773   */\n      swap1\n      pop\n        /* \"#utility.yul\":8783:8855   */\n      tag_215\n        /* \"#utility.yul\":8851:8853   */\n      0x40\n        /* \"#utility.yul\":8840:8849   */\n      dup4\n        /* \"#utility.yul\":8836:8854   */\n      add\n        /* \"#utility.yul\":8827:8833   */\n      dup11\n        /* \"#utility.yul\":8783:8855   */\n      tag_90\n      jump\t// in\n    tag_215:\n        /* \"#utility.yul\":8865:8937   */\n      tag_216\n        /* \"#utility.yul\":8933:8935   */\n      0x60\n        /* \"#utility.yul\":8922:8931   */\n      dup4\n        /* \"#utility.yul\":8918:8936   */\n      add\n        /* \"#utility.yul\":8909:8915   */\n      dup10\n        /* \"#utility.yul\":8865:8937   */\n      tag_82\n      jump\t// in\n    tag_216:\n        /* \"#utility.yul\":8947:9020   */\n      tag_217\n        /* \"#utility.yul\":9015:9018   */\n      0x80\n        /* \"#utility.yul\":9004:9013   */\n      dup4\n        /* \"#utility.yul\":9000:9019   */\n      add\n        /* \"#utility.yul\":8991:8997   */\n      dup9\n        /* \"#utility.yul\":8947:9020   */\n      tag_82\n      jump\t// in\n    tag_217:\n        /* \"#utility.yul\":9030:9103   */\n      tag_218\n        /* \"#utility.yul\":9098:9101   */\n      0xa0\n        /* \"#utility.yul\":9087:9096   */\n      dup4\n        /* \"#utility.yul\":9083:9102   */\n      add\n        /* \"#utility.yul\":9074:9080   */\n      dup8\n        /* \"#utility.yul\":9030:9103   */\n      tag_82\n      jump\t// in\n    tag_218:\n        /* \"#utility.yul\":9113:9186   */\n      tag_219\n        /* \"#utility.yul\":9181:9184   */\n      0xc0\n        /* \"#utility.yul\":9170:9179   */\n      dup4\n        /* \"#utility.yul\":9166:9185   */\n      add\n        /* \"#utility.yul\":9157:9163   */\n      dup7\n        /* \"#utility.yul\":9113:9186   */\n      tag_90\n      jump\t// in\n    tag_219:\n        /* \"#utility.yul\":9196:9267   */\n      tag_220\n        /* \"#utility.yul\":9262:9265   */\n      0xe0\n        /* \"#utility.yul\":9251:9260   */\n      dup4\n        /* \"#utility.yul\":9247:9266   */\n      add\n        /* \"#utility.yul\":9238:9244   */\n      dup6\n        /* \"#utility.yul\":9196:9267   */\n      tag_91\n      jump\t// in\n    tag_220:\n        /* \"#utility.yul\":9277:9356   */\n      tag_221\n        /* \"#utility.yul\":9351:9354   */\n      0x0100\n        /* \"#utility.yul\":9340:9349   */\n      dup4\n        /* \"#utility.yul\":9336:9355   */\n      add\n        /* \"#utility.yul\":9327:9333   */\n      dup5\n        /* \"#utility.yul\":9277:9356   */\n      tag_95\n      jump\t// in\n    tag_221:\n        /* \"#utility.yul\":8073:9363   */\n      swap11\n      swap10\n      pop\n      pop\n      pop\n      pop\n      pop\n      pop\n      pop\n      pop\n      pop\n      pop\n      jump\t// out\n        /* \"#utility.yul\":9369:9549   */\n    tag_96:\n        /* \"#utility.yul\":9417:9494   */\n      0x4e487b7100000000000000000000000000000000000000000000000000000000\n        /* \"#utility.yul\":9414:9415   */\n      0x00\n        /* \"#utility.yul\":9407:9495   */\n      mstore\n        /* \"#utility.yul\":9514:9518   */\n      0x22\n        /* \"#utility.yul\":9511:9512   */\n      0x04\n        /* \"#utility.yul\":9504:9519   */\n      mstore\n        /* \"#utility.yul\":9538:9542   */\n      0x24\n        /* \"#utility.yul\":9535:9536   */\n      0x00\n        /* \"#utility.yul\":9528:9543   */\n      revert\n        /* \"#utility.yul\":9555:9875   */\n    tag_52:\n        /* \"#utility.yul\":9599:9605   */\n      0x00\n        /* \"#utility.yul\":9636:9637   */\n      0x02\n        /* \"#utility.yul\":9630:9634   */\n      dup3\n        /* \"#utility.yul\":9626:9638   */\n      div\n        /* \"#utility.yul\":9616:9638   */\n      swap1\n      pop\n        /* \"#utility.yul\":9683:9684   */\n      0x01\n        /* \"#utility.yul\":9677:9681   */\n      dup3\n        /* \"#utility.yul\":9673:9685   */\n      and\n        /* \"#utility.yul\":9704:9722   */\n      dup1\n        /* \"#utility.yul\":9694:9775   */\n      tag_224\n      jumpi\n        /* \"#utility.yul\":9760:9764   */\n      0x7f\n        /* \"#utility.yul\":9752:9758   */\n      dup3\n        /* \"#utility.yul\":9748:9765   */\n      and\n        /* \"#utility.yul\":9738:9765   */\n      swap2\n      pop\n        /* \"#utility.yul\":9694:9775   */\n    tag_224:\n        /* \"#utility.yul\":9822:9824   */\n      0x20\n        /* \"#utility.yul\":9814:9820   */\n      dup3\n        /* \"#utility.yul\":9811:9825   */\n      lt\n        /* \"#utility.yul\":9791:9809   */\n      dup2\n        /* \"#utility.yul\":9788:9826   */\n      sub\n        /* \"#utility.yul\":9785:9869   */\n      tag_225\n      jumpi\n        /* \"#utility.yul\":9841:9859   */\n      tag_226\n      tag_96\n      jump\t// in\n    tag_226:\n        /* \"#utility.yul\":9785:9869   */\n    tag_225:\n        /* \"#utility.yul\":9606:9875   */\n      pop\n        /* \"#utility.yul\":9555:9875   */\n      swap2\n      swap1\n      pop\n      jump\t// out\n        /* \"#utility.yul\":9881:10021   */\n    tag_97:\n        /* \"#utility.yul\":9929:9933   */\n      0x00\n        /* \"#utility.yul\":9952:9955   */\n      dup2\n        /* \"#utility.yul\":9944:9955   */\n      swap1\n      pop\n        /* \"#utility.yul\":9975:9978   */\n      dup2\n        /* \"#utility.yul\":9972:9973   */\n      0x00\n        /* \"#utility.yul\":9965:9979   */\n      mstore\n        /* \"#utility.yul\":10009:10013   */\n      0x20\n        /* \"#utility.yul\":10006:10007   */\n      0x00\n        /* \"#utility.yul\":9996:10014   */\n      keccak256\n        /* \"#utility.yul\":9988:10014   */\n      swap1\n      pop\n        /* \"#utility.yul\":9881:10021   */\n      swap2\n      swap1\n      pop\n      jump\t// out\n        /* \"#utility.yul\":10027:10120   */\n    tag_98:\n        /* \"#utility.yul\":10064:10070   */\n      0x00\n        /* \"#utility.yul\":10111:10113   */\n      0x20\n        /* \"#utility.yul\":10106:10108   */\n      0x1f\n        /* \"#utility.yul\":10099:10104   */\n      dup4\n        /* \"#utility.yul\":10095:10109   */\n      add\n        /* \"#utility.yul\":10091:10114   */\n      div\n        /* \"#utility.yul\":10081:10114   */\n      swap1\n      pop\n        /* \"#utility.yul\":10027:10120   */\n      swap2\n      swap1\n      pop\n      jump\t// out\n        /* \"#utility.yul\":10126:10233   */\n    tag_99:\n        /* \"#utility.yul\":10170:10178   */\n      0x00\n        /* \"#utility.yul\":10220:10225   */\n      dup3\n        /* \"#utility.yul\":10214:10218   */\n      dup3\n        /* \"#utility.yul\":10210:10226   */\n      shl\n        /* \"#utility.yul\":10189:10226   */\n      swap1\n      pop\n        /* \"#utility.yul\":10126:10233   */\n      swap3\n      swap2\n      pop\n      pop\n      jump\t// out\n        /* \"#utility.yul\":10239:10632   */\n    tag_100:\n        /* \"#utility.yul\":10308:10314   */\n      0x00\n        /* \"#utility.yul\":10358:10359   */\n      0x08\n        /* \"#utility.yul\":10346:10356   */\n      dup4\n        /* \"#utility.yul\":10342:10360   */\n      mul\n        /* \"#utility.yul\":10381:10478   */\n      tag_231\n        /* \"#utility.yul\":10411:10477   */\n      0xffffffffffffffffffffffffffffffffffffffffffffffffffffffffffffffff\n        /* \"#utility.yul\":10400:10409   */\n      dup3\n        /* \"#utility.yul\":10381:10478   */\n      tag_99\n      jump\t// in\n    tag_231:\n        /* \"#utility.yul\":10499:10538   */\n      tag_232\n        /* \"#utility.yul\":10529:10537   */\n      dup7\n        /* \"#utility.yul\":10518:10527   */\n      dup4\n        /* \"#utility.yul\":10499:10538   */\n      tag_99\n      jump\t// in\n    tag_232:\n        /* \"#utility.yul\":10487:10538   */\n      swap6\n      pop\n        /* \"#utility.yul\":10571:10575   */\n      dup1\n        /* \"#utility.yul\":10567:10576   */\n      not\n        /* \"#utility.yul\":10560:10565   */\n      dup5\n        /* \"#utility.yul\":10556:10577   */\n      and\n        /* \"#utility.yul\":10547:10577   */\n      swap4\n      pop\n        /* \"#utility.yul\":10620:10624   */\n      dup1\n        /* \"#utility.yul\":10610:10618   */\n      dup7\n        /* \"#utility.yul\":10606:10625   */\n      and\n        /* \"#utility.yul\":10599:10604   */\n      dup5\n        /* \"#utility.yul\":10596:10626   */\n      or\n        /* \"#utility.yul\":10586:10626   */\n      swap3\n      pop\n        /* \"#utility.yul\":10315:10632   */\n      pop\n      pop\n        /* \"#utility.yul\":10239:10632   */\n      swap4\n      swap3\n      pop\n      pop\n      pop\n      jump\t// out\n        /* \"#utility.yul\":10638:10698   */\n    tag_101:\n        /* \"#utility.yul\":10666:10669   */\n      0x00\n        /* \"#utility.yul\":10687:10692   */\n      dup2\n        /* \"#utility.yul\":10680:10692   */\n      swap1\n      pop\n        /* \"#utility.yul\":10638:10698   */\n      swap2\n      swap1\n      pop\n      jump\t// out\n        /* \"#utility.yul\":10704:10846   */\n    tag_102:\n        /* \"#utility.yul\":10754:10763   */\n      0x00\n        /* \"#utility.yul\":10787:10840   */\n      tag_235\n        /* \"#utility.yul\":10805:10839   */\n      tag_236\n        /* \"#utility.yul\":10814:10838   */\n      tag_237\n        /* \"#utility.yul\":10832:10837   */\n      dup5\n        /* \"#utility.yul\":10814:10838   */\n      tag_79\n      jump\t// in\n    tag_237:\n        /* \"#utility.yul\":10805:10839   */\n      tag_101\n      jump\t// in\n    tag_236:\n        /* \"#utility.yul\":10787:10840   */\n      tag_79\n      jump\t// in\n    tag_235:\n        /* \"#utility.yul\":10774:10840   */\n      swap1\n      pop\n        /* \"#utility.yul\":10704:10846   */\n      swap2\n      swap1\n      pop\n      jump\t// out\n        /* \"#utility.yul\":10852:10927   */\n    tag_103:\n        /* \"#utility.yul\":10895:10898   */\n      0x00\n        /* \"#utility.yul\":10916:10921   */\n      dup2\n        /* \"#utility.yul\":10909:10921   */\n      swap1\n      pop\n        /* \"#utility.yul\":10852:10927   */\n      swap2\n      swap1\n      pop\n      jump\t// out\n        /* \"#utility.yul\":10933:11202   */\n    tag_104:\n        /* \"#utility.yul\":11043:11082   */\n      tag_240\n        /* \"#utility.yul\":11074:11081   */\n      dup4\n        /* \"#utility.yul\":11043:11082   */\n      tag_102\n      jump\t// in\n    tag_240:\n        /* \"#utility.yul\":11104:11195   */\n      tag_241\n        /* \"#utility.yul\":11153:11194   */\n      tag_242\n        /* \"#utility.yul\":11177:11193   */\n      dup3\n        /* \"#utility.yul\":11153:11194   */\n      tag_103\n      jump\t// in\n    tag_242:\n        /* \"#utility.yul\":11145:11151   */\n      dup5\n        /* \"#utility.yul\":11138:11142   */\n      dup5\n        /* \"#utility.yul\":11132:11143   */\n      sload\n        /* \"#utility.yul\":11104:11195   */\n      tag_100\n      jump\t// in\n    tag_241:\n        /* \"#utility.yul\":11098:11102   */\n      dup3\n        /* \"#utility.yul\":11091:11196   */\n      sstore\n        /* \"#utility.yul\":11009:11202   */\n      pop\n        /* \"#utility.yul\":10933:11202   */\n      pop\n      pop\n      pop\n      jump\t// out\n        /* \"#utility.yul\":11208:11281   */\n    tag_105:\n        /* \"#utility.yul\":11253:11256   */\n      0x00\n        /* \"#utility.yul\":11208:11281   */\n      swap1\n      jump\t// out\n        /* \"#utility.yul\":11287:11476   */\n    tag_106:\n        /* \"#utility.yul\":11364:11396   */\n      tag_245\n      tag_105\n      jump\t// in\n    tag_245:\n        /* \"#utility.yul\":11405:11470   */\n      tag_246\n        /* \"#utility.yul\":11463:11469   */\n      dup2\n        /* \"#utility.yul\":11455:11461   */\n      dup5\n        /* \"#utility.yul\":11449:11453   */\n      dup5\n        /* \"#utility.yul\":11405:11470   */\n      tag_104\n      jump\t// in\n    tag_246:\n        /* \"#utility.yul\":11340:11476   */\n      pop\n        /* \"#utility.yul\":11287:11476   */\n      pop\n      pop\n      jump\t// out\n        /* \"#utility.yul\":11482:11668   */\n    tag_107:\n        /* \"#utility.yul\":11542:11662   */\n    tag_248:\n        /* \"#utility.yul\":11559:11562   */\n      dup2\n        /* \"#utility.yul\":11552:11557   */\n      dup2\n        /* \"#utility.yul\":11549:11563   */\n      lt\n        /* \"#utility.yul\":11542:11662   */\n      iszero\n      tag_250\n      jumpi\n        /* \"#utility.yul\":11613:11652   */\n      tag_251\n        /* \"#utility.yul\":11650:11651   */\n      0x00\n        /* \"#utility.yul\":11643:11648   */\n      dup3\n        /* \"#utility.yul\":11613:11652   */\n      tag_106\n      jump\t// in\n    tag_251:\n        /* \"#utility.yul\":11586:11587   */\n      0x01\n        /* \"#utility.yul\":11579:11584   */\n      dup2\n        /* \"#utility.yul\":11575:11588   */\n      add\n        /* \"#utility.yul\":11566:11588   */\n      swap1\n      pop\n        /* \"#utility.yul\":11542:11662   */\n      jump(tag_248)\n    tag_250:\n        /* \"#utility.yul\":11482:11668   */\n      pop\n      pop\n      jump\t// out\n        /* \"#utility.yul\":11674:12215   */\n    tag_108:\n        /* \"#utility.yul\":11774:11776   */\n      0x1f\n        /* \"#utility.yul\":11769:11772   */\n      dup3\n        /* \"#utility.yul\":11766:11777   */\n      gt\n        /* \"#utility.yul\":11763:12208   */\n      iszero\n      tag_253\n      jumpi\n        /* \"#utility.yul\":11808:11845   */\n      tag_254\n        /* \"#utility.yul\":11839:11844   */\n      dup2\n        /* \"#utility.yul\":11808:11845   */\n      tag_97\n      jump\t// in\n    tag_254:\n        /* \"#utility.yul\":11891:11920   */\n      tag_255\n        /* \"#utility.yul\":11909:11919   */\n      dup5\n        /* \"#utility.yul\":11891:11920   */\n      tag_98\n      jump\t// in\n    tag_255:\n        /* \"#utility.yul\":11881:11889   */\n      dup2\n        /* \"#utility.yul\":11877:11921   */\n      add\n        /* \"#utility.yul\":12074:12076   */\n      0x20\n        /* \"#utility.yul\":12062:12072   */\n      dup6\n        /* \"#utility.yul\":12059:12077   */\n      lt\n        /* \"#utility.yul\":12056:12105   */\n      iszero\n      tag_256\n      jumpi\n        /* \"#utility.yul\":12095:12103   */\n      dup2\n        /* \"#utility.yul\":12080:12103   */\n      swap1\n      pop\n        /* \"#utility.yul\":12056:12105   */\n    tag_256:\n        /* \"#utility.yul\":12118:12198   */\n      tag_257\n        /* \"#utility.yul\":12174:12196   */\n      tag_258\n        /* \"#utility.yul\":12192:12195   */\n      dup6\n        /* \"#utility.yul\":12174:12196   */\n      tag_98\n      jump\t// in\n    tag_258:\n        /* \"#utility.yul\":12164:12172   */\n      dup4\n        /* \"#utility.yul\":12160:12197   */\n      add\n        /* \"#utility.yul\":12147:12158   */\n      dup3\n        /* \"#utility.yul\":12118:12198   */\n      tag_107\n      jump\t// in\n    tag_257:\n        /* \"#utility.yul\":11778:12208   */\n      pop\n      pop\n        /* \"#utility.yul\":11763:12208   */\n    tag_253:\n        /* \"#utility.yul\":11674:12215   */\n      pop\n      pop\n      pop\n      jump\t// out\n        /* \"#utility.yul\":12221:12338   */\n    tag_109:\n        /* \"#utility.yul\":12275:12283   */\n      0x00\n        /* \"#utility.yul\":12325:12330   */\n      dup3\n        /* \"#utility.yul\":12319:12323   */\n      dup3\n        /* \"#utility.yul\":12315:12331   */\n      shr\n        /* \"#utility.yul\":12294:12331   */\n      swap1\n      pop\n        /* \"#utility.yul\":12221:12338   */\n      swap3\n      swap2\n      pop\n      pop\n      jump\t// out\n        /* \"#utility.yul\":12344:12513   */\n    tag_110:\n        /* \"#utility.yul\":12388:12394   */\n      0x00\n        /* \"#utility.yul\":12421:12472   */\n      tag_261\n        /* \"#utility.yul\":12469:12470   */\n      0x00\n        /* \"#utility.yul\":12465:12471   */\n      not\n        /* \"#utility.yul\":12457:12462   */\n      dup5\n        /* \"#utility.yul\":12454:12455   */\n      0x08\n        /* \"#utility.yul\":12450:12463   */\n      mul\n        /* \"#utility.yul\":12421:12472   */\n      tag_109\n      jump\t// in\n    tag_261:\n        /* \"#utility.yul\":12417:12473   */\n      not\n        /* \"#utility.yul\":12502:12506   */\n      dup1\n        /* \"#utility.yul\":12496:12500   */\n      dup4\n        /* \"#utility.yul\":12492:12507   */\n      and\n        /* \"#utility.yul\":12482:12507   */\n      swap2\n      pop\n        /* \"#utility.yul\":12395:12513   */\n      pop\n        /* \"#utility.yul\":12344:12513   */\n      swap3\n      swap2\n      pop\n      pop\n      jump\t// out\n        /* \"#utility.yul\":12518:12813   */\n    tag_111:\n        /* \"#utility.yul\":12594:12598   */\n      0x00\n        /* \"#utility.yul\":12740:12769   */\n      tag_263\n        /* \"#utility.yul\":12765:12768   */\n      dup4\n        /* \"#utility.yul\":12759:12763   */\n      dup4\n        /* \"#utility.yul\":12740:12769   */\n      tag_110\n      jump\t// in\n    tag_263:\n        /* \"#utility.yul\":12732:12769   */\n      swap2\n      pop\n        /* \"#utility.yul\":12802:12805   */\n      dup3\n        /* \"#utility.yul\":12799:12800   */\n      0x02\n        /* \"#utility.yul\":12795:12806   */\n      mul\n        /* \"#utility.yul\":12789:12793   */\n      dup3\n        /* \"#utility.yul\":12786:12807   */\n      or\n        /* \"#utility.yul\":12778:12807   */\n      swap1\n      pop\n        /* \"#utility.yul\":12518:12813   */\n      swap3\n      swap2\n      pop\n      pop\n      jump\t// out\n        /* \"#utility.yul\":12818:14208   */\n    tag_35:\n        /* \"#utility.yul\":12933:12969   */\n      tag_265\n        /* \"#utility.yul\":12965:12968   */\n      dup3\n        /* \"#utility.yul\":12933:12969   */\n      tag_86\n      jump\t// in\n    tag_265:\n        /* \"#utility.yul\":13034:13052   */\n      0xffffffffffffffff\n        /* \"#utility.yul\":13026:13032   */\n      dup2\n        /* \"#utility.yul\":13023:13053   */\n      gt\n        /* \"#utility.yul\":13020:13076   */\n      iszero\n      tag_266\n      jumpi\n        /* \"#utility.yul\":13056:13074   */\n      tag_267\n      tag_68\n      jump\t// in\n    tag_267:\n        /* \"#utility.yul\":13020:13076   */\n    tag_266:\n        /* \"#utility.yul\":13100:13138   */\n      tag_268\n        /* \"#utility.yul\":13132:13136   */\n      dup3\n        /* \"#utility.yul\":13126:13137   */\n      sload\n        /* \"#utility.yul\":13100:13138   */\n      tag_52\n      jump\t// in\n    tag_268:\n        /* \"#utility.yul\":13185:13251   */\n      tag_269\n        /* \"#utility.yul\":13244:13250   */\n      dup3\n        /* \"#utility.yul\":13236:13242   */\n      dup3\n        /* \"#utility.yul\":13230:13234   */\n      dup6\n        /* \"#utility.yul\":13185:13251   */\n      tag_108\n      jump\t// in\n    tag_269:\n        /* \"#utility.yul\":13278:13279   */\n      0x00\n        /* \"#utility.yul\":13302:13306   */\n      0x20\n        /* \"#utility.yul\":13289:13306   */\n      swap1\n      pop\n        /* \"#utility.yul\":13334:13336   */\n      0x1f\n        /* \"#utility.yul\":13326:13332   */\n      dup4\n        /* \"#utility.yul\":13323:13337   */\n      gt\n        /* \"#utility.yul\":13351:13352   */\n      0x01\n        /* \"#utility.yul\":13346:13963   */\n      dup2\n      eq\n      tag_271\n      jumpi\n        /* \"#utility.yul\":14007:14008   */\n      0x00\n        /* \"#utility.yul\":14024:14030   */\n      dup5\n        /* \"#utility.yul\":14021:14098   */\n      iszero\n      tag_272\n      jumpi\n        /* \"#utility.yul\":14073:14082   */\n      dup3\n        /* \"#utility.yul\":14068:14071   */\n      dup8\n        /* \"#utility.yul\":14064:14083   */\n      add\n        /* \"#utility.yul\":14058:14084   */\n      mload\n        /* \"#utility.yul\":14049:14084   */\n      swap1\n      pop\n        /* \"#utility.yul\":14021:14098   */\n    tag_272:\n        /* \"#utility.yul\":14124:14191   */\n      tag_273\n        /* \"#utility.yul\":14184:14190   */\n      dup6\n        /* \"#utility.yul\":14177:14182   */\n      dup3\n        /* \"#utility.yul\":14124:14191   */\n      tag_111\n      jump\t// in\n    tag_273:\n        /* \"#utility.yul\":14118:14122   */\n      dup7\n        /* \"#utility.yul\":14111:14192   */\n      sstore\n        /* \"#utility.yul\":13980:14202   */\n      pop\n        /* \"#utility.yul\":13316:14202   */\n      jump(tag_270)\n        /* \"#utility.yul\":13346:13963   */\n    tag_271:\n        /* \"#utility.yul\":13398:13402   */\n      0x1f\n        /* \"#utility.yul\":13394:13403   */\n      not\n        /* \"#utility.yul\":13386:13392   */\n      dup5\n        /* \"#utility.yul\":13382:13404   */\n      and\n        /* \"#utility.yul\":13432:13468   */\n      tag_274\n        /* \"#utility.yul\":13463:13467   */\n      dup7\n        /* \"#utility.yul\":13432:13468   */\n      tag_97\n      jump\t// in\n    tag_274:\n        /* \"#utility.yul\":13490:13491   */\n      0x00\n        /* \"#utility.yul\":13504:13712   */\n    tag_275:\n        /* \"#utility.yul\":13518:13525   */\n      dup3\n        /* \"#utility.yul\":13515:13516   */\n      dup2\n        /* \"#utility.yul\":13512:13526   */\n      lt\n        /* \"#utility.yul\":13504:13712   */\n      iszero\n      tag_277\n      jumpi\n        /* \"#utility.yul\":13597:13606   */\n      dup5\n        /* \"#utility.yul\":13592:13595   */\n      dup10\n        /* \"#utility.yul\":13588:13607   */\n      add\n        /* \"#utility.yul\":13582:13608   */\n      mload\n        /* \"#utility.yul\":13574:13580   */\n      dup3\n        /* \"#utility.yul\":13567:13609   */\n      sstore\n        /* \"#utility.yul\":13648:13649   */\n      0x01\n        /* \"#utility.yul\":13640:13646   */\n      dup3\n        /* \"#utility.yul\":13636:13650   */\n      add\n        /* \"#utility.yul\":13626:13650   */\n      swap2\n      pop\n        /* \"#utility.yul\":13695:13697   */\n      0x20\n        /* \"#utility.yul\":13684:13693   */\n      dup6\n        /* \"#utility.yul\":13680:13698   */\n      add\n        /* \"#utility.yul\":13667:13698   */\n      swap5\n      pop\n        /* \"#utility.yul\":13541:13545   */\n      0x20\n        /* \"#utility.yul\":13538:13539   */\n      dup2\n        /* \"#utility.yul\":13534:13546   */\n      add\n        /* \"#utility.yul\":13529:13546   */\n      swap1\n      pop\n        /* \"#utility.yul\":13504:13712   */\n      jump(tag_275)\n    tag_277:\n        /* \"#utility.yul\":13740:13746   */\n      dup7\n        /* \"#utility.yul\":13731:13738   */\n      dup4\n        /* \"#utility.yul\":13728:13747   */\n      lt\n        /* \"#utility.yul\":13725:13904   */\n      iszero\n      tag_278\n      jumpi\n        /* \"#utility.yul\":13798:13807   */\n      dup5\n        /* \"#utility.yul\":13793:13796   */\n      dup10\n        /* \"#utility.yul\":13789:13808   */\n      add\n        /* \"#utility.yul\":13783:13809   */\n      mload\n        /* \"#utility.yul\":13841:13889   */\n      tag_279\n        /* \"#utility.yul\":13883:13887   */\n      0x1f\n        /* \"#utility.yul\":13875:13881   */\n      dup10\n        /* \"#utility.yul\":13871:13888   */\n      and\n        /* \"#utility.yul\":13860:13869   */\n      dup3\n        /* \"#utility.yul\":13841:13889   */\n      tag_110\n      jump\t// in\n    tag_279:\n        /* \"#utility.yul\":13833:13839   */\n      dup4\n        /* \"#utility.yul\":13826:13890   */\n      sstore\n        /* \"#utility.yul\":13748:13904   */\n      pop\n        /* \"#utility.yul\":13725:13904   */\n    tag_278:\n        /* \"#utility.yul\":13950:13951   */\n      0x01\n        /* \"#utility.yul\":13946:13947   */\n      0x02\n        /* \"#utility.yul\":13938:13944   */\n      dup9\n        /* \"#utility.yul\":13934:13948   */\n      mul\n        /* \"#utility.yul\":13930:13952   */\n      add\n        /* \"#utility.yul\":13924:13928   */\n      dup9\n        /* \"#utility.yul\":13917:13953   */\n      sstore\n        /* \"#utility.yul\":13353:13963   */\n      pop\n      pop\n      pop\n        /* \"#utility.yul\":13316:14202   */\n    tag_270:\n      pop\n        /* \"#utility.yul\":12908:14208   */\n      pop\n      pop\n      pop\n        /* \"#utility.yul\":12818:14208   */\n      pop\n      pop\n      jump\t// out\n        /* \"#utility.yul\":14214:15052   */\n    tag_40:\n        /* \"#utility.yul\":14455:14459   */\n      0x00\n        /* \"#utility.yul\":14493:14496   */\n      0xa0\n        /* \"#utility.yul\":14482:14491   */\n      dup3\n        /* \"#utility.yul\":14478:14497   */\n      add\n        /* \"#utility.yul\":14470:14497   */\n      swap1\n      pop\n        /* \"#utility.yul\":14507:14578   */\n      tag_281\n        /* \"#utility.yul\":14575:14576   */\n      0x00\n        /* \"#utility.yul\":14564:14573   */\n      dup4\n        /* \"#utility.yul\":14560:14577   */\n      add\n        /* \"#utility.yul\":14551:14557   */\n      dup9\n        /* \"#utility.yul\":14507:14578   */\n      tag_82\n      jump\t// in\n    tag_281:\n        /* \"#utility.yul\":14625:14634   */\n      dup2\n        /* \"#utility.yul\":14619:14623   */\n      dup2\n        /* \"#utility.yul\":14615:14635   */\n      sub\n        /* \"#utility.yul\":14610:14612   */\n      0x20\n        /* \"#utility.yul\":14599:14608   */\n      dup4\n        /* \"#utility.yul\":14595:14613   */\n      add\n        /* \"#utility.yul\":14588:14636   */\n      mstore\n        /* \"#utility.yul\":14653:14729   */\n      tag_282\n        /* \"#utility.yul\":14724:14728   */\n      dup2\n        /* \"#utility.yul\":14715:14721   */\n      dup8\n        /* \"#utility.yul\":14653:14729   */\n      tag_89\n      jump\t// in\n    tag_282:\n        /* \"#utility.yul\":14645:14729   */\n      swap1\n      pop\n        /* \"#utility.yul\":14776:14785   */\n      dup2\n        /* \"#utility.yul\":14770:14774   */\n      dup2\n        /* \"#utility.yul\":14766:14786   */\n      sub\n        /* \"#utility.yul\":14761:14763   */\n      0x40\n        /* \"#utility.yul\":14750:14759   */\n      dup4\n        /* \"#utility.yul\":14746:14764   */\n      add\n        /* \"#utility.yul\":14739:14787   */\n      mstore\n        /* \"#utility.yul\":14804:14880   */\n      tag_283\n        /* \"#utility.yul\":14875:14879   */\n      dup2\n        /* \"#utility.yul\":14866:14872   */\n      dup7\n        /* \"#utility.yul\":14804:14880   */\n      tag_89\n      jump\t// in\n    tag_283:\n        /* \"#utility.yul\":14796:14880   */\n      swap1\n      pop\n        /* \"#utility.yul\":14890:14962   */\n      tag_284\n        /* \"#utility.yul\":14958:14960   */\n      0x60\n        /* \"#utility.yul\":14947:14956   */\n      dup4\n        /* \"#utility.yul\":14943:14961   */\n      add\n        /* \"#utility.yul\":14934:14940   */\n      dup6\n        /* \"#utility.yul\":14890:14962   */\n      tag_82\n      jump\t// in\n    tag_284:\n        /* \"#utility.yul\":14972:15045   */\n      tag_285\n        /* \"#utility.yul\":15040:15043   */\n      0x80\n        /* \"#utility.yul\":15029:15038   */\n      dup4\n        /* \"#utility.yul\":15025:15044   */\n      add\n        /* \"#utility.yul\":15016:15022   */\n      dup5\n        /* \"#utility.yul\":14972:15045   */\n      tag_90\n      jump\t// in\n    tag_285:\n        /* \"#utility.yul\":14214:15052   */\n      swap7\n      swap6\n      pop\n      pop\n      pop\n      pop\n      pop\n      pop\n      jump\t// out\n        /* \"#utility.yul\":15058:15496   */\n    tag_45:\n        /* \"#utility.yul\":15205:15209   */\n      0x00\n        /* \"#utility.yul\":15243:15245   */\n      0x60\n        /* \"#utility.yul\":15232:15241   */\n      dup3\n        /* \"#utility.yul\":15228:15246   */\n      add\n        /* \"#utility.yul\":15220:15246   */\n      swap1\n      pop\n        /* \"#utility.yul\":15256:15327   */\n      tag_287\n        /* \"#utility.yul\":15324:15325   */\n      0x00\n        /* \"#utility.yul\":15313:15322   */\n      dup4\n        /* \"#utility.yul\":15309:15326   */\n      add\n        /* \"#utility.yul\":15300:15306   */\n      dup7\n        /* \"#utility.yul\":15256:15327   */\n      tag_82\n      jump\t// in\n    tag_287:\n        /* \"#utility.yul\":15337:15407   */\n      tag_288\n        /* \"#utility.yul\":15403:15405   */\n      0x20\n        /* \"#utility.yul\":15392:15401   */\n      dup4\n        /* \"#utility.yul\":15388:15406   */\n      add\n        /* \"#utility.yul\":15379:15385   */\n      dup6\n        /* \"#utility.yul\":15337:15407   */\n      tag_91\n      jump\t// in\n    tag_288:\n        /* \"#utility.yul\":15417:15489   */\n      tag_289\n        /* \"#utility.yul\":15485:15487   */\n      0x40\n        /* \"#utility.yul\":15474:15483   */\n      dup4\n        /* \"#utility.yul\":15470:15488   */\n      add\n        /* \"#utility.yul\":15461:15467   */\n      dup5\n        /* \"#utility.yul\":15417:15489   */\n      tag_82\n      jump\t// in\n    tag_289:\n        /* \"#utility.yul\":15058:15496   */\n      swap5\n      swap4\n      pop\n      pop\n      pop\n      pop\n      jump\t// out\n        /* \"#utility.yul\":15502:15834   */\n    tag_50:\n        /* \"#utility.yul\":15623:15627   */\n      0x00\n        /* \"#utility.yul\":15661:15663   */\n      0x40\n        /* \"#utility.yul\":15650:15659   */\n      dup3\n        /* \"#utility.yul\":15646:15664   */\n      add\n        /* \"#utility.yul\":15638:15664   */\n      swap1\n      pop\n        /* \"#utility.yul\":15674:15745   */\n      tag_291\n        /* \"#utility.yul\":15742:15743   */\n      0x00\n        /* \"#utility.yul\":15731:15740   */\n      dup4\n        /* \"#utility.yul\":15727:15744   */\n      add\n        /* \"#utility.yul\":15718:15724   */\n      dup6\n        /* \"#utility.yul\":15674:15745   */\n      tag_82\n      jump\t// in\n    tag_291:\n        /* \"#utility.yul\":15755:15827   */\n      tag_292\n        /* \"#utility.yul\":15823:15825   */\n      0x20\n        /* \"#utility.yul\":15812:15821   */\n      dup4\n        /* \"#utility.yul\":15808:15826   */\n      add\n        /* \"#utility.yul\":15799:15805   */\n      dup5\n        /* \"#utility.yul\":15755:15827   */\n      tag_82\n      jump\t// in\n    tag_292:\n        /* \"#utility.yul\":15502:15834   */\n      swap4\n      swap3\n      pop\n      pop\n      pop\n      jump\t// out\n\n    auxdata: 0xa2646970667358221220166b2a5c58c077ab590b8f14819c1785af774bc8e4b79509cfb18ebfbc355c2164736f6c63430008100033\n}\n",
				"bytecode": {
					"linkReferences": {},
					"object": "6080604052600160005534801561001557600080fd5b50610ebb806100256000396000f3fe608060405234801561001057600080fd5b50600436106100575760003560e01c80637b2239db1461005c5780638a9cf5da1461008c578063b87c065f146100aa578063d247f92b146100c6578063f418ad7a146100e2575b600080fd5b610076600480360381019061007191906107b7565b61011a565b6040516100839190610879565b60405180910390f35b610094610311565b6040516100a19190610879565b60405180910390f35b6100c460048036038101906100bf91906108ca565b610317565b005b6100e060048036038101906100db919061090a565b6103a4565b005b6100fc60048036038101906100f7919061090a565b61041e565b60405161011199989796959493929190610a4b565b60405180910390f35b6000805490506040518061012001604052808781526020018681526020018573ffffffffffffffffffffffffffffffffffffffff1681526020018481526020018381526020014281526020013373ffffffffffffffffffffffffffffffffffffffff168152602001600081526020016000600281111561019d5761019c6109d4565b5b8152506001600083815260200190815260200160002060008201518160000190816101c89190610cf2565b5060208201518160010190816101de9190610cf2565b5060408201518160020160006101000a81548173ffffffffffffffffffffffffffffffffffffffff021916908373ffffffffffffffffffffffffffffffffffffffff160217905550606082015181600301556080820151816004015560a0820151816005015560c08201518160060160006101000a81548173ffffffffffffffffffffffffffffffffffffffff021916908373ffffffffffffffffffffffffffffffffffffffff16021790555060e082015181600701556101008201518160080160006101000a81548160ff021916908360028111156102c1576102c06109d4565b5b02179055509050507f2b71a8d9954440b2c8680fb7eed2c6ab5fa8f72dc3e1b86cc4cacba7aadb75f78187874233604051610300959493929190610dc4565b60405180910390a195945050505050565b60005481565b600060016000848152602001908152602001600020905081816007018190555060028160080160006101000a81548160ff0219169083600281111561035f5761035e6109d4565b5b02179055507f336b6a93b38daa435f14747b9c40a9bc9569de3a62550c286f52428d83a2846f83834260405161039793929190610e25565b60405180910390a1505050565b600180600083815260200190815260200160002060080160006101000a81548160ff021916908360028111156103dd576103dc6109d4565b5b02179055507f1f5d616c2e1670edad5d1f2ce72c07bd219ebefbae35617f57d8234964fc27438142604051610413929190610e5c565b60405180910390a150565b600160205280600052604060002060009150905080600001805461044190610b15565b80601f016020809104026020016040519081016040528092919081815260200182805461046d90610b15565b80156104ba5780601f1061048f576101008083540402835291602001916104ba565b820191906000526020600020905b81548152906001019060200180831161049d57829003601f168201915b5050505050908060010180546104cf90610b15565b80601f01602080910402602001604051908101604052809291908181526020018280546104fb90610b15565b80156105485780601f1061051d57610100808354040283529160200191610548565b820191906000526020600020905b81548152906001019060200180831161052b57829003601f168201915b5050505050908060020160009054906101000a900473ffffffffffffffffffffffffffffffffffffffff16908060030154908060040154908060050154908060060160009054906101000a900473ffffffffffffffffffffffffffffffffffffffff16908060070154908060080160009054906101000a900460ff16905089565b6000604051905090565b600080fd5b600080fd5b600080fd5b600080fd5b6000601f19601f8301169050919050565b7f4e487b7100000000000000000000000000000000000000000000000000000000600052604160045260246000fd5b610630826105e7565b810181811067ffffffffffffffff8211171561064f5761064e6105f8565b5b80604052505050565b60006106626105c9565b905061066e8282610627565b919050565b600067ffffffffffffffff82111561068e5761068d6105f8565b5b610697826105e7565b9050602081019050919050565b82818337600083830152505050565b60006106c66106c184610673565b610658565b9050828152602081018484840111156106e2576106e16105e2565b5b6106ed8482856106a4565b509392505050565b600082601f83011261070a576107096105dd565b5b813561071a8482602086016106b3565b91505092915050565b600073ffffffffffffffffffffffffffffffffffffffff82169050919050565b600061074e82610723565b9050919050565b61075e81610743565b811461076957600080fd5b50565b60008135905061077b81610755565b92915050565b6000819050919050565b61079481610781565b811461079f57600080fd5b50565b6000813590506107b18161078b565b92915050565b600080600080600060a086880312156107d3576107d26105d3565b5b600086013567ffffffffffffffff8111156107f1576107f06105d8565b5b6107fd888289016106f5565b955050602086013567ffffffffffffffff81111561081e5761081d6105d8565b5b61082a888289016106f5565b945050604061083b8882890161076c565b935050606061084c888289016107a2565b925050608061085d888289016107a2565b9150509295509295909350565b61087381610781565b82525050565b600060208201905061088e600083018461086a565b92915050565b6000819050919050565b6108a781610894565b81146108b257600080fd5b50565b6000813590506108c48161089e565b92915050565b600080604083850312156108e1576108e06105d3565b5b60006108ef858286016107a2565b9250506020610900858286016108b5565b9150509250929050565b6000602082840312156109205761091f6105d3565b5b600061092e848285016107a2565b91505092915050565b600081519050919050565b600082825260208201905092915050565b60005b83811015610971578082015181840152602081019050610956565b60008484015250505050565b600061098882610937565b6109928185610942565b93506109a2818560208601610953565b6109ab816105e7565b840191505092915050565b6109bf81610743565b82525050565b6109ce81610894565b82525050565b7f4e487b7100000000000000000000000000000000000000000000000000000000600052602160045260246000fd5b60038110610a1457610a136109d4565b5b50565b6000819050610a2582610a03565b919050565b6000610a3582610a17565b9050919050565b610a4581610a2a565b82525050565b6000610120820190508181036000830152610a66818c61097d565b90508181036020830152610a7a818b61097d565b9050610a89604083018a6109b6565b610a96606083018961086a565b610aa3608083018861086a565b610ab060a083018761086a565b610abd60c08301866109b6565b610aca60e08301856109c5565b610ad8610100830184610a3c565b9a9950505050505050505050565b7f4e487b7100000000000000000000000000000000000000000000000000000000600052602260045260246000fd5b60006002820490506001821680610b2d57607f821691505b602082108103610b4057610b3f610ae6565b5b50919050565b60008190508160005260206000209050919050565b60006020601f8301049050919050565b600082821b905092915050565b600060088302610ba87fffffffffffffffffffffffffffffffffffffffffffffffffffffffffffffffff82610b6b565b610bb28683610b6b565b95508019841693508086168417925050509392505050565b6000819050919050565b6000610bef610bea610be584610781565b610bca565b610781565b9050919050565b6000819050919050565b610c0983610bd4565b610c1d610c1582610bf6565b848454610b78565b825550505050565b600090565b610c32610c25565b610c3d818484610c00565b505050565b5b81811015610c6157610c56600082610c2a565b600181019050610c43565b5050565b601f821115610ca657610c7781610b46565b610c8084610b5b565b81016020851015610c8f578190505b610ca3610c9b85610b5b565b830182610c42565b50505b505050565b600082821c905092915050565b6000610cc960001984600802610cab565b1980831691505092915050565b6000610ce28383610cb8565b9150826002028217905092915050565b610cfb82610937565b67ffffffffffffffff811115610d1457610d136105f8565b5b610d1e8254610b15565b610d29828285610c65565b600060209050601f831160018114610d5c5760008415610d4a578287015190505b610d548582610cd6565b865550610dbc565b601f198416610d6a86610b46565b60005b82811015610d9257848901518255600182019150602085019450602081019050610d6d565b86831015610daf5784890151610dab601f891682610cb8565b8355505b6001600288020188555050505b505050505050565b600060a082019050610dd9600083018861086a565b8181036020830152610deb818761097d565b90508181036040830152610dff818661097d565b9050610e0e606083018561086a565b610e1b60808301846109b6565b9695505050505050565b6000606082019050610e3a600083018661086a565b610e4760208301856109c5565b610e54604083018461086a565b949350505050565b6000604082019050610e71600083018561086a565b610e7e602083018461086a565b939250505056fea2646970667358221220166b2a5c58c077ab590b8f14819c1785af774bc8e4b79509cfb18ebfbc355c2164736f6c63430008100033",
					"opcodes": "PUSH1 0x80 PUSH1 0x40 MSTORE PUSH1 0x1 PUSH1 0x0 SSTORE CALLVALUE DUP1 ISZERO PUSH2 0x15 JUMPI PUSH1 0x0 DUP1 REVERT JUMPDEST POP PUSH2 0xEBB DUP1 PUSH2 0x25 PUSH1 0x0 CODECOPY PUSH1 0x0 RETURN INVALID PUSH1 0x80 PUSH1 0x40 MSTORE CALLVALUE DUP1 ISZERO PUSH2 0x10 JUMPI PUSH1 0x0 DUP1 REVERT JUMPDEST POP PUSH1 0x4 CALLDATASIZE LT PUSH2 0x57 JUMPI PUSH1 0x0 CALLDATALOAD PUSH1 0xE0 SHR DUP1 PUSH4 0x7B2239DB EQ PUSH2 0x5C JUMPI DUP1 PUSH4 0x8A9CF5DA EQ PUSH2 0x8C JUMPI DUP1 PUSH4 0xB87C065F EQ PUSH2 0xAA JUMPI DUP1 PUSH4 0xD247F92B EQ PUSH2 0xC6 JUMPI DUP1 PUSH4 0xF418AD7A EQ PUSH2 0xE2 JUMPI JUMPDEST PUSH1 0x0 DUP1 REVERT JUMPDEST PUSH2 0x76 PUSH1 0x4 DUP1 CALLDATASIZE SUB DUP2 ADD SWAP1 PUSH2 0x71 SWAP2 SWAP1 PUSH2 0x7B7 JUMP JUMPDEST PUSH2 0x11A JUMP JUMPDEST PUSH1 0x40 MLOAD PUSH2 0x83 SWAP2 SWAP1 PUSH2 0x879 JUMP JUMPDEST PUSH1 0x40 MLOAD DUP1 SWAP2 SUB SWAP1 RETURN JUMPDEST PUSH2 0x94 PUSH2 0x311 JUMP JUMPDEST PUSH1 0x40 MLOAD PUSH2 0xA1 SWAP2 SWAP1 PUSH2 0x879 JUMP JUMPDEST PUSH1 0x40 MLOAD DUP1 SWAP2 SUB SWAP1 RETURN JUMPDEST PUSH2 0xC4 PUSH1 0x4 DUP1 CALLDATASIZE SUB DUP2 ADD SWAP1 PUSH2 0xBF SWAP2 SWAP1 PUSH2 0x8CA JUMP JUMPDEST PUSH2 0x317 JUMP JUMPDEST STOP JUMPDEST PUSH2 0xE0 PUSH1 0x4 DUP1 CALLDATASIZE SUB DUP2 ADD SWAP1 PUSH2 0xDB SWAP2 SWAP1 PUSH2 0x90A JUMP JUMPDEST PUSH2 0x3A4 JUMP JUMPDEST STOP JUMPDEST PUSH2 0xFC PUSH1 0x4 DUP1 CALLDATASIZE SUB DUP2 ADD SWAP1 PUSH2 0xF7 SWAP2 SWAP1 PUSH2 0x90A JUMP JUMPDEST PUSH2 0x41E JUMP JUMPDEST PUSH1 0x40 MLOAD PUSH2 0x111 SWAP10 SWAP9 SWAP8 SWAP7 SWAP6 SWAP5 SWAP4 SWAP3 SWAP2 SWAP1 PUSH2 0xA4B JUMP JUMPDEST PUSH1 0x40 MLOAD DUP1 SWAP2 SUB SWAP1 RETURN JUMPDEST PUSH1 0x0 DUP1 SLOAD SWAP1 POP PUSH1 0x40 MLOAD DUP1 PUSH2 0x120 ADD PUSH1 0x40 MSTORE DUP1 DUP8 DUP2 MSTORE PUSH1 0x20 ADD DUP7 DUP2 MSTORE PUSH1 0x20 ADD DUP6 PUSH20 0xFFFFFFFFFFFFFFFFFFFFFFFFFFFFFFFFFFFFFFFF AND DUP2 MSTORE PUSH1 0x20 ADD DUP5 DUP2 MSTORE PUSH1 0x20 ADD DUP4 DUP2 MSTORE PUSH1 0x20 ADD TIMESTAMP DUP2 MSTORE PUSH1 0x20 ADD CALLER PUSH20 0xFFFFFFFFFFFFFFFFFFFFFFFFFFFFFFFFFFFFFFFF AND DUP2 MSTORE PUSH1 0x20 ADD PUSH1 0x0 DUP2 MSTORE PUSH1 0x20 ADD PUSH1 0x0 PUSH1 0x2 DUP2 GT ISZERO PUSH2 0x19D JUMPI PUSH2 0x19C PUSH2 0x9D4 JUMP JUMPDEST JUMPDEST DUP2 MSTORE POP PUSH1 0x1 PUSH1 0x0 DUP4 DUP2 MSTORE PUSH1 0x20 ADD SWAP1 DUP2 MSTORE PUSH1 0x20 ADD PUSH1 0x0 KECCAK256 PUSH1 0x0 DUP3 ADD MLOAD DUP2 PUSH1 0x0 ADD SWAP1 DUP2 PUSH2 0x1C8 SWAP2 SWAP1 PUSH2 0xCF2 JUMP JUMPDEST POP PUSH1 0x20 DUP3 ADD MLOAD DUP2 PUSH1 0x1 ADD SWAP1 DUP2 PUSH2 0x1DE SWAP2 SWAP1 PUSH2 0xCF2 JUMP JUMPDEST POP PUSH1 0x40 DUP3 ADD MLOAD DUP2 PUSH1 0x2 ADD PUSH1 0x0 PUSH2 0x100 EXP DUP2 SLOAD DUP2 PUSH20 0xFFFFFFFFFFFFFFFFFFFFFFFFFFFFFFFFFFFFFFFF MUL NOT AND SWAP1 DUP4 PUSH20 0xFFFFFFFFFFFFFFFFFFFFFFFFFFFFFFFFFFFFFFFF AND MUL OR SWAP1 SSTORE POP PUSH1 0x60 DUP3 ADD MLOAD DUP2 PUSH1 0x3 ADD SSTORE PUSH1 0x80 DUP3 ADD MLOAD DUP2 PUSH1 0x4 ADD SSTORE PUSH1 0xA0 DUP3 ADD MLOAD DUP2 PUSH1 0x5 ADD SSTORE PUSH1 0xC0 DUP3 ADD MLOAD DUP2 PUSH1 0x6 ADD PUSH1 0x0 PUSH2 0x100 EXP DUP2 SLOAD DUP2 PUSH20 0xFFFFFFFFFFFFFFFFFFFFFFFFFFFFFFFFFFFFFFFF MUL NOT AND SWAP1 DUP4 PUSH20 0xFFFFFFFFFFFFFFFFFFFFFFFFFFFFFFFFFFFFFFFF AND MUL OR SWAP1 SSTORE POP PUSH1 0xE0 DUP3 ADD MLOAD DUP2 PUSH1 0x7 ADD SSTORE PUSH2 0x100 DUP3 ADD MLOAD DUP2 PUSH1 0x8 ADD PUSH1 0x0 PUSH2 0x100 EXP DUP2 SLOAD DUP2 PUSH1 0xFF MUL NOT AND SWAP1 DUP4 PUSH1 0x2 DUP2 GT ISZERO PUSH2 0x2C1 JUMPI PUSH2 0x2C0 PUSH2 0x9D4 JUMP JUMPDEST JUMPDEST MUL OR SWAP1 SSTORE POP SWAP1 POP POP PUSH32 0x2B71A8D9954440B2C8680FB7EED2C6AB5FA8F72DC3E1B86CC4CACBA7AADB75F7 DUP2 DUP8 DUP8 TIMESTAMP CALLER PUSH1 0x40 MLOAD PUSH2 0x300 SWAP6 SWAP5 SWAP4 SWAP3 SWAP2 SWAP1 PUSH2 0xDC4 JUMP JUMPDEST PUSH1 0x40 MLOAD DUP1 SWAP2 SUB SWAP1 LOG1 SWAP6 SWAP5 POP POP POP POP POP JUMP JUMPDEST PUSH1 0x0 SLOAD DUP2 JUMP JUMPDEST PUSH1 0x0 PUSH1 0x1 PUSH1 0x0 DUP5 DUP2 MSTORE PUSH1 0x20 ADD SWAP1 DUP2 MSTORE PUSH1 0x20 ADD PUSH1 0x0 KECCAK256 SWAP1 POP DUP2 DUP2 PUSH1 0x7 ADD DUP2 SWAP1 SSTORE POP PUSH1 0x2 DUP2 PUSH1 0x8 ADD PUSH1 0x0 PUSH2 0x100 EXP DUP2 SLOAD DUP2 PUSH1 0xFF MUL NOT AND SWAP1 DUP4 PUSH1 0x2 DUP2 GT ISZERO PUSH2 0x35F JUMPI PUSH2 0x35E PUSH2 0x9D4 JUMP JUMPDEST JUMPDEST MUL OR SWAP1 SSTORE POP PUSH32 0x336B6A93B38DAA435F14747B9C40A9BC9569DE3A62550C286F52428D83A2846F DUP4 DUP4 TIMESTAMP PUSH1 0x40 MLOAD PUSH2 0x397 SWAP4 SWAP3 SWAP2 SWAP1 PUSH2 0xE25 JUMP JUMPDEST PUSH1 0x40 MLOAD DUP1 SWAP2 SUB SWAP1 LOG1 POP POP POP JUMP JUMPDEST PUSH1 0x1 DUP1 PUSH1 0x0 DUP4 DUP2 MSTORE PUSH1 0x20 ADD SWAP1 DUP2 MSTORE PUSH1 0x20 ADD PUSH1 0x0 KECCAK256 PUSH1 0x8 ADD PUSH1 0x0 PUSH2 0x100 EXP DUP2 SLOAD DUP2 PUSH1 0xFF MUL NOT AND SWAP1 DUP4 PUSH1 0x2 DUP2 GT ISZERO PUSH2 0x3DD JUMPI PUSH2 0x3DC PUSH2 0x9D4 JUMP JUMPDEST JUMPDEST MUL OR SWAP1 SSTORE POP PUSH32 0x1F5D616C2E1670EDAD5D1F2CE72C07BD219EBEFBAE35617F57D8234964FC2743 DUP2 TIMESTAMP PUSH1 0x40 MLOAD PUSH2 0x413 SWAP3 SWAP2 SWAP1 PUSH2 0xE5C JUMP JUMPDEST PUSH1 0x40 MLOAD DUP1 SWAP2 SUB SWAP1 LOG1 POP JUMP JUMPDEST PUSH1 0x1 PUSH1 0x20 MSTORE DUP1 PUSH1 0x0 MSTORE PUSH1 0x40 PUSH1 0x0 KECCAK256 PUSH1 0x0 SWAP2 POP SWAP1 POP DUP1 PUSH1 0x0 ADD DUP1 SLOAD PUSH2 0x441 SWAP1 PUSH2 0xB15 JUMP JUMPDEST DUP1 PUSH1 0x1F ADD PUSH1 0x20 DUP1 SWAP2 DIV MUL PUSH1 0x20 ADD PUSH1 0x40 MLOAD SWAP1 DUP2 ADD PUSH1 0x40 MSTORE DUP1 SWAP3 SWAP2 SWAP1 DUP2 DUP2 MSTORE PUSH1 0x20 ADD DUP3 DUP1 SLOAD PUSH2 0x46D SWAP1 PUSH2 0xB15 JUMP JUMPDEST DUP1 ISZERO PUSH2 0x4BA JUMPI DUP1 PUSH1 0x1F LT PUSH2 0x48F JUMPI PUSH2 0x100 DUP1 DUP4 SLOAD DIV MUL DUP4 MSTORE SWAP2 PUSH1 0x20 ADD SWAP2 PUSH2 0x4BA JUMP JUMPDEST DUP3 ADD SWAP2 SWAP1 PUSH1 0x0 MSTORE PUSH1 0x20 PUSH1 0x0 KECCAK256 SWAP1 JUMPDEST DUP2 SLOAD DUP2 MSTORE SWAP1 PUSH1 0x1 ADD SWAP1 PUSH1 0x20 ADD DUP1 DUP4 GT PUSH2 0x49D JUMPI DUP3 SWAP1 SUB PUSH1 0x1F AND DUP3 ADD SWAP2 JUMPDEST POP POP POP POP POP SWAP1 DUP1 PUSH1 0x1 ADD DUP1 SLOAD PUSH2 0x4CF SWAP1 PUSH2 0xB15 JUMP JUMPDEST DUP1 PUSH1 0x1F ADD PUSH1 0x20 DUP1 SWAP2 DIV MUL PUSH1 0x20 ADD PUSH1 0x40 MLOAD SWAP1 DUP2 ADD PUSH1 0x40 MSTORE DUP1 SWAP3 SWAP2 SWAP1 DUP2 DUP2 MSTORE PUSH1 0x20 ADD DUP3 DUP1 SLOAD PUSH2 0x4FB SWAP1 PUSH2 0xB15 JUMP JUMPDEST DUP1 ISZERO PUSH2 0x548 JUMPI DUP1 PUSH1 0x1F LT PUSH2 0x51D JUMPI PUSH2 0x100 DUP1 DUP4 SLOAD DIV MUL DUP4 MSTORE SWAP2 PUSH1 0x20 ADD SWAP2 PUSH2 0x548 JUMP JUMPDEST DUP3 ADD SWAP2 SWAP1 PUSH1 0x0 MSTORE PUSH1 0x20 PUSH1 0x0 KECCAK256 SWAP1 JUMPDEST DUP2 SLOAD DUP2 MSTORE SWAP1 PUSH1 0x1 ADD SWAP1 PUSH1 0x20 ADD DUP1 DUP4 GT PUSH2 0x52B JUMPI DUP3 SWAP1 SUB PUSH1 0x1F AND DUP3 ADD SWAP2 JUMPDEST POP POP POP POP POP SWAP1 DUP1 PUSH1 0x2 ADD PUSH1 0x0 SWAP1 SLOAD SWAP1 PUSH2 0x100 EXP SWAP1 DIV PUSH20 0xFFFFFFFFFFFFFFFFFFFFFFFFFFFFFFFFFFFFFFFF AND SWAP1 DUP1 PUSH1 0x3 ADD SLOAD SWAP1 DUP1 PUSH1 0x4 ADD SLOAD SWAP1 DUP1 PUSH1 0x5 ADD SLOAD SWAP1 DUP1 PUSH1 0x6 ADD PUSH1 0x0 SWAP1 SLOAD SWAP1 PUSH2 0x100 EXP SWAP1 DIV PUSH20 0xFFFFFFFFFFFFFFFFFFFFFFFFFFFFFFFFFFFFFFFF AND SWAP1 DUP1 PUSH1 0x7 ADD SLOAD SWAP1 DUP1 PUSH1 0x8 ADD PUSH1 0x0 SWAP1 SLOAD SWAP1 PUSH2 0x100 EXP SWAP1 DIV PUSH1 0xFF AND SWAP1 POP DUP10 JUMP JUMPDEST PUSH1 0x0 PUSH1 0x40 MLOAD SWAP1 POP SWAP1 JUMP JUMPDEST PUSH1 0x0 DUP1 REVERT JUMPDEST PUSH1 0x0 DUP1 REVERT JUMPDEST PUSH1 0x0 DUP1 REVERT JUMPDEST PUSH1 0x0 DUP1 REVERT JUMPDEST PUSH1 0x0 PUSH1 0x1F NOT PUSH1 0x1F DUP4 ADD AND SWAP1 POP SWAP2 SWAP1 POP JUMP JUMPDEST PUSH32 0x4E487B7100000000000000000000000000000000000000000000000000000000 PUSH1 0x0 MSTORE PUSH1 0x41 PUSH1 0x4 MSTORE PUSH1 0x24 PUSH1 0x0 REVERT JUMPDEST PUSH2 0x630 DUP3 PUSH2 0x5E7 JUMP JUMPDEST DUP2 ADD DUP2 DUP2 LT PUSH8 0xFFFFFFFFFFFFFFFF DUP3 GT OR ISZERO PUSH2 0x64F JUMPI PUSH2 0x64E PUSH2 0x5F8 JUMP JUMPDEST JUMPDEST DUP1 PUSH1 0x40 MSTORE POP POP POP JUMP JUMPDEST PUSH1 0x0 PUSH2 0x662 PUSH2 0x5C9 JUMP JUMPDEST SWAP1 POP PUSH2 0x66E DUP3 DUP3 PUSH2 0x627 JUMP JUMPDEST SWAP2 SWAP1 POP JUMP JUMPDEST PUSH1 0x0 PUSH8 0xFFFFFFFFFFFFFFFF DUP3 GT ISZERO PUSH2 0x68E JUMPI PUSH2 0x68D PUSH2 0x5F8 JUMP JUMPDEST JUMPDEST PUSH2 0x697 DUP3 PUSH2 0x5E7 JUMP JUMPDEST SWAP1 POP PUSH1 0x20 DUP2 ADD SWAP1 POP SWAP2 SWAP1 POP JUMP JUMPDEST DUP3 DUP2 DUP4 CALLDATACOPY PUSH1 0x0 DUP4 DUP4 ADD MSTORE POP POP POP JUMP JUMPDEST PUSH1 0x0 PUSH2 0x6C6 PUSH2 0x6C1 DUP5 PUSH2 0x673 JUMP JUMPDEST PUSH2 0x658 JUMP JUMPDEST SWAP1 POP DUP3 DUP2 MSTORE PUSH1 0x20 DUP2 ADD DUP5 DUP5 DUP5 ADD GT ISZERO PUSH2 0x6E2 JUMPI PUSH2 0x6E1 PUSH2 0x5E2 JUMP JUMPDEST JUMPDEST PUSH2 0x6ED DUP5 DUP3 DUP6 PUSH2 0x6A4 JUMP JUMPDEST POP SWAP4 SWAP3 POP POP POP JUMP JUMPDEST PUSH1 0x0 DUP3 PUSH1 0x1F DUP4 ADD SLT PUSH2 0x70A JUMPI PUSH2 0x709 PUSH2 0x5DD JUMP JUMPDEST JUMPDEST DUP2 CALLDATALOAD PUSH2 0x71A DUP5 DUP3 PUSH1 0x20 DUP7 ADD PUSH2 0x6B3 JUMP JUMPDEST SWAP2 POP POP SWAP3 SWAP2 POP POP JUMP JUMPDEST PUSH1 0x0 PUSH20 0xFFFFFFFFFFFFFFFFFFFFFFFFFFFFFFFFFFFFFFFF DUP3 AND SWAP1 POP SWAP2 SWAP1 POP JUMP JUMPDEST PUSH1 0x0 PUSH2 0x74E DUP3 PUSH2 0x723 JUMP JUMPDEST SWAP1 POP SWAP2 SWAP1 POP JUMP JUMPDEST PUSH2 0x75E DUP2 PUSH2 0x743 JUMP JUMPDEST DUP2 EQ PUSH2 0x769 JUMPI PUSH1 0x0 DUP1 REVERT JUMPDEST POP JUMP JUMPDEST PUSH1 0x0 DUP2 CALLDATALOAD SWAP1 POP PUSH2 0x77B DUP2 PUSH2 0x755 JUMP JUMPDEST SWAP3 SWAP2 POP POP JUMP JUMPDEST PUSH1 0x0 DUP2 SWAP1 POP SWAP2 SWAP1 POP JUMP JUMPDEST PUSH2 0x794 DUP2 PUSH2 0x781 JUMP JUMPDEST DUP2 EQ PUSH2 0x79F JUMPI PUSH1 0x0 DUP1 REVERT JUMPDEST POP JUMP JUMPDEST PUSH1 0x0 DUP2 CALLDATALOAD SWAP1 POP PUSH2 0x7B1 DUP2 PUSH2 0x78B JUMP JUMPDEST SWAP3 SWAP2 POP POP JUMP JUMPDEST PUSH1 0x0 DUP1 PUSH1 0x0 DUP1 PUSH1 0x0 PUSH1 0xA0 DUP7 DUP9 SUB SLT ISZERO PUSH2 0x7D3 JUMPI PUSH2 0x7D2 PUSH2 0x5D3 JUMP JUMPDEST JUMPDEST PUSH1 0x0 DUP7 ADD CALLDATALOAD PUSH8 0xFFFFFFFFFFFFFFFF DUP2 GT ISZERO PUSH2 0x7F1 JUMPI PUSH2 0x7F0 PUSH2 0x5D8 JUMP JUMPDEST JUMPDEST PUSH2 0x7FD DUP9 DUP3 DUP10 ADD PUSH2 0x6F5 JUMP JUMPDEST SWAP6 POP POP PUSH1 0x20 DUP7 ADD CALLDATALOAD PUSH8 0xFFFFFFFFFFFFFFFF DUP2 GT ISZERO PUSH2 0x81E JUMPI PUSH2 0x81D PUSH2 0x5D8 JUMP JUMPDEST JUMPDEST PUSH2 0x82A DUP9 DUP3 DUP10 ADD PUSH2 0x6F5 JUMP JUMPDEST SWAP5 POP POP PUSH1 0x40 PUSH2 0x83B DUP9 DUP3 DUP10 ADD PUSH2 0x76C JUMP JUMPDEST SWAP4 POP POP PUSH1 0x60 PUSH2 0x84C DUP9 DUP3 DUP10 ADD PUSH2 0x7A2 JUMP JUMPDEST SWAP3 POP POP PUSH1 0x80 PUSH2 0x85D DUP9 DUP3 DUP10 ADD PUSH2 0x7A2 JUMP JUMPDEST SWAP2 POP POP SWAP3 SWAP6 POP SWAP3 SWAP6 SWAP1 SWAP4 POP JUMP JUMPDEST PUSH2 0x873 DUP2 PUSH2 0x781 JUMP JUMPDEST DUP3 MSTORE POP POP JUMP JUMPDEST PUSH1 0x0 PUSH1 0x20 DUP3 ADD SWAP1 POP PUSH2 0x88E PUSH1 0x0 DUP4 ADD DUP5 PUSH2 0x86A JUMP JUMPDEST SWAP3 SWAP2 POP POP JUMP JUMPDEST PUSH1 0x0 DUP2 SWAP1 POP SWAP2 SWAP1 POP JUMP JUMPDEST PUSH2 0x8A7 DUP2 PUSH2 0x894 JUMP JUMPDEST DUP2 EQ PUSH2 0x8B2 JUMPI PUSH1 0x0 DUP1 REVERT JUMPDEST POP JUMP JUMPDEST PUSH1 0x0 DUP2 CALLDATALOAD SWAP1 POP PUSH2 0x8C4 DUP2 PUSH2 0x89E JUMP JUMPDEST SWAP3 SWAP2 POP POP JUMP JUMPDEST PUSH1 0x0 DUP1 PUSH1 0x40 DUP4 DUP6 SUB SLT ISZERO PUSH2 0x8E1 JUMPI PUSH2 0x8E0 PUSH2 0x5D3 JUMP JUMPDEST JUMPDEST PUSH1 0x0 PUSH2 0x8EF DUP6 DUP3 DUP7 ADD PUSH2 0x7A2 JUMP JUMPDEST SWAP3 POP POP PUSH1 0x20 PUSH2 0x900 DUP6 DUP3 DUP7 ADD PUSH2 0x8B5 JUMP JUMPDEST SWAP2 POP POP SWAP3 POP SWAP3 SWAP1 POP JUMP JUMPDEST PUSH1 0x0 PUSH1 0x20 DUP3 DUP5 SUB SLT ISZERO PUSH2 0x920 JUMPI PUSH2 0x91F PUSH2 0x5D3 JUMP JUMPDEST JUMPDEST PUSH1 0x0 PUSH2 0x92E DUP5 DUP3 DUP6 ADD PUSH2 0x7A2 JUMP JUMPDEST SWAP2 POP POP SWAP3 SWAP2 POP POP JUMP JUMPDEST PUSH1 0x0 DUP2 MLOAD SWAP1 POP SWAP2 SWAP1 POP JUMP JUMPDEST PUSH1 0x0 DUP3 DUP3 MSTORE PUSH1 0x20 DUP3 ADD SWAP1 POP SWAP3 SWAP2 POP POP JUMP JUMPDEST PUSH1 0x0 JUMPDEST DUP4 DUP2 LT ISZERO PUSH2 0x971 JUMPI DUP1 DUP3 ADD MLOAD DUP2 DUP5 ADD MSTORE PUSH1 0x20 DUP2 ADD SWAP1 POP PUSH2 0x956 JUMP JUMPDEST PUSH1 0x0 DUP5 DUP5 ADD MSTORE POP POP POP POP JUMP JUMPDEST PUSH1 0x0 PUSH2 0x988 DUP3 PUSH2 0x937 JUMP JUMPDEST PUSH2 0x992 DUP2 DUP6 PUSH2 0x942 JUMP JUMPDEST SWAP4 POP PUSH2 0x9A2 DUP2 DUP6 PUSH1 0x20 DUP7 ADD PUSH2 0x953 JUMP JUMPDEST PUSH2 0x9AB DUP2 PUSH2 0x5E7 JUMP JUMPDEST DUP5 ADD SWAP2 POP POP SWAP3 SWAP2 POP POP JUMP JUMPDEST PUSH2 0x9BF DUP2 PUSH2 0x743 JUMP JUMPDEST DUP3 MSTORE POP POP JUMP JUMPDEST PUSH2 0x9CE DUP2 PUSH2 0x894 JUMP JUMPDEST DUP3 MSTORE POP POP JUMP JUMPDEST PUSH32 0x4E487B7100000000000000000000000000000000000000000000000000000000 PUSH1 0x0 MSTORE PUSH1 0x21 PUSH1 0x4 MSTORE PUSH1 0x24 PUSH1 0x0 REVERT JUMPDEST PUSH1 0x3 DUP2 LT PUSH2 0xA14 JUMPI PUSH2 0xA13 PUSH2 0x9D4 JUMP JUMPDEST JUMPDEST POP JUMP JUMPDEST PUSH1 0x0 DUP2 SWAP1 POP PUSH2 0xA25 DUP3 PUSH2 0xA03 JUMP JUMPDEST SWAP2 SWAP1 POP JUMP JUMPDEST PUSH1 0x0 PUSH2 0xA35 DUP3 PUSH2 0xA17 JUMP JUMPDEST SWAP1 POP SWAP2 SWAP1 POP JUMP JUMPDEST PUSH2 0xA45 DUP2 PUSH2 0xA2A JUMP JUMPDEST DUP3 MSTORE POP POP JUMP JUMPDEST PUSH1 0x0 PUSH2 0x120 DUP3 ADD SWAP1 POP DUP2 DUP2 SUB PUSH1 0x0 DUP4 ADD MSTORE PUSH2 0xA66 DUP2 DUP13 PUSH2 0x97D JUMP JUMPDEST SWAP1 POP DUP2 DUP2 SUB PUSH1 0x20 DUP4 ADD MSTORE PUSH2 0xA7A DUP2 DUP12 PUSH2 0x97D JUMP JUMPDEST SWAP1 POP PUSH2 0xA89 PUSH1 0x40 DUP4 ADD DUP11 PUSH2 0x9B6 JUMP JUMPDEST PUSH2 0xA96 PUSH1 0x60 DUP4 ADD DUP10 PUSH2 0x86A JUMP JUMPDEST PUSH2 0xAA3 PUSH1 0x80 DUP4 ADD DUP9 PUSH2 0x86A JUMP JUMPDEST PUSH2 0xAB0 PUSH1 0xA0 DUP4 ADD DUP8 PUSH2 0x86A JUMP JUMPDEST PUSH2 0xABD PUSH1 0xC0 DUP4 ADD DUP7 PUSH2 0x9B6 JUMP JUMPDEST PUSH2 0xACA PUSH1 0xE0 DUP4 ADD DUP6 PUSH2 0x9C5 JUMP JUMPDEST PUSH2 0xAD8 PUSH2 0x100 DUP4 ADD DUP5 PUSH2 0xA3C JUMP JUMPDEST SWAP11 SWAP10 POP POP POP POP POP POP POP POP POP POP JUMP JUMPDEST PUSH32 0x4E487B7100000000000000000000000000000000000000000000000000000000 PUSH1 0x0 MSTORE PUSH1 0x22 PUSH1 0x4 MSTORE PUSH1 0x24 PUSH1 0x0 REVERT JUMPDEST PUSH1 0x0 PUSH1 0x2 DUP3 DIV SWAP1 POP PUSH1 0x1 DUP3 AND DUP1 PUSH2 0xB2D JUMPI PUSH1 0x7F DUP3 AND SWAP2 POP JUMPDEST PUSH1 0x20 DUP3 LT DUP2 SUB PUSH2 0xB40 JUMPI PUSH2 0xB3F PUSH2 0xAE6 JUMP JUMPDEST JUMPDEST POP SWAP2 SWAP1 POP JUMP JUMPDEST PUSH1 0x0 DUP2 SWAP1 POP DUP2 PUSH1 0x0 MSTORE PUSH1 0x20 PUSH1 0x0 KECCAK256 SWAP1 POP SWAP2 SWAP1 POP JUMP JUMPDEST PUSH1 0x0 PUSH1 0x20 PUSH1 0x1F DUP4 ADD DIV SWAP1 POP SWAP2 SWAP1 POP JUMP JUMPDEST PUSH1 0x0 DUP3 DUP3 SHL SWAP1 POP SWAP3 SWAP2 POP POP JUMP JUMPDEST PUSH1 0x0 PUSH1 0x8 DUP4 MUL PUSH2 0xBA8 PUSH32 0xFFFFFFFFFFFFFFFFFFFFFFFFFFFFFFFFFFFFFFFFFFFFFFFFFFFFFFFFFFFFFFFF DUP3 PUSH2 0xB6B JUMP JUMPDEST PUSH2 0xBB2 DUP7 DUP4 PUSH2 0xB6B JUMP JUMPDEST SWAP6 POP DUP1 NOT DUP5 AND SWAP4 POP DUP1 DUP7 AND DUP5 OR SWAP3 POP POP POP SWAP4 SWAP3 POP POP POP JUMP JUMPDEST PUSH1 0x0 DUP2 SWAP1 POP SWAP2 SWAP1 POP JUMP JUMPDEST PUSH1 0x0 PUSH2 0xBEF PUSH2 0xBEA PUSH2 0xBE5 DUP5 PUSH2 0x781 JUMP JUMPDEST PUSH2 0xBCA JUMP JUMPDEST PUSH2 0x781 JUMP JUMPDEST SWAP1 POP SWAP2 SWAP1 POP JUMP JUMPDEST PUSH1 0x0 DUP2 SWAP1 POP SWAP2 SWAP1 POP JUMP JUMPDEST PUSH2 0xC09 DUP4 PUSH2 0xBD4 JUMP JUMPDEST PUSH2 0xC1D PUSH2 0xC15 DUP3 PUSH2 0xBF6 JUMP JUMPDEST DUP5 DUP5 SLOAD PUSH2 0xB78 JUMP JUMPDEST DUP3 SSTORE POP POP POP POP JUMP JUMPDEST PUSH1 0x0 SWAP1 JUMP JUMPDEST PUSH2 0xC32 PUSH2 0xC25 JUMP JUMPDEST PUSH2 0xC3D DUP2 DUP5 DUP5 PUSH2 0xC00 JUMP JUMPDEST POP POP POP JUMP JUMPDEST JUMPDEST DUP2 DUP2 LT ISZERO PUSH2 0xC61 JUMPI PUSH2 0xC56 PUSH1 0x0 DUP3 PUSH2 0xC2A JUMP JUMPDEST PUSH1 0x1 DUP2 ADD SWAP1 POP PUSH2 0xC43 JUMP JUMPDEST POP POP JUMP JUMPDEST PUSH1 0x1F DUP3 GT ISZERO PUSH2 0xCA6 JUMPI PUSH2 0xC77 DUP2 PUSH2 0xB46 JUMP JUMPDEST PUSH2 0xC80 DUP5 PUSH2 0xB5B JUMP JUMPDEST DUP2 ADD PUSH1 0x20 DUP6 LT ISZERO PUSH2 0xC8F JUMPI DUP2 SWAP1 POP JUMPDEST PUSH2 0xCA3 PUSH2 0xC9B DUP6 PUSH2 0xB5B JUMP JUMPDEST DUP4 ADD DUP3 PUSH2 0xC42 JUMP JUMPDEST POP POP JUMPDEST POP POP POP JUMP JUMPDEST PUSH1 0x0 DUP3 DUP3 SHR SWAP1 POP SWAP3 SWAP2 POP POP JUMP JUMPDEST PUSH1 0x0 PUSH2 0xCC9 PUSH1 0x0 NOT DUP5 PUSH1 0x8 MUL PUSH2 0xCAB JUMP JUMPDEST NOT DUP1 DUP4 AND SWAP2 POP POP SWAP3 SWAP2 POP POP JUMP JUMPDEST PUSH1 0x0 PUSH2 0xCE2 DUP4 DUP4 PUSH2 0xCB8 JUMP JUMPDEST SWAP2 POP DUP3 PUSH1 0x2 MUL DUP3 OR SWAP1 POP SWAP3 SWAP2 POP POP JUMP JUMPDEST PUSH2 0xCFB DUP3 PUSH2 0x937 JUMP JUMPDEST PUSH8 0xFFFFFFFFFFFFFFFF DUP2 GT ISZERO PUSH2 0xD14 JUMPI PUSH2 0xD13 PUSH2 0x5F8 JUMP JUMPDEST JUMPDEST PUSH2 0xD1E DUP3 SLOAD PUSH2 0xB15 JUMP JUMPDEST PUSH2 0xD29 DUP3 DUP3 DUP6 PUSH2 0xC65 JUMP JUMPDEST PUSH1 0x0 PUSH1 0x20 SWAP1 POP PUSH1 0x1F DUP4 GT PUSH1 0x1 DUP2 EQ PUSH2 0xD5C JUMPI PUSH1 0x0 DUP5 ISZERO PUSH2 0xD4A JUMPI DUP3 DUP8 ADD MLOAD SWAP1 POP JUMPDEST PUSH2 0xD54 DUP6 DUP3 PUSH2 0xCD6 JUMP JUMPDEST DUP7 SSTORE POP PUSH2 0xDBC JUMP JUMPDEST PUSH1 0x1F NOT DUP5 AND PUSH2 0xD6A DUP7 PUSH2 0xB46 JUMP JUMPDEST PUSH1 0x0 JUMPDEST DUP3 DUP2 LT ISZERO PUSH2 0xD92 JUMPI DUP5 DUP10 ADD MLOAD DUP3 SSTORE PUSH1 0x1 DUP3 ADD SWAP2 POP PUSH1 0x20 DUP6 ADD SWAP5 POP PUSH1 0x20 DUP2 ADD SWAP1 POP PUSH2 0xD6D JUMP JUMPDEST DUP7 DUP4 LT ISZERO PUSH2 0xDAF JUMPI DUP5 DUP10 ADD MLOAD PUSH2 0xDAB PUSH1 0x1F DUP10 AND DUP3 PUSH2 0xCB8 JUMP JUMPDEST DUP4 SSTORE POP JUMPDEST PUSH1 0x1 PUSH1 0x2 DUP9 MUL ADD DUP9 SSTORE POP POP POP JUMPDEST POP POP POP POP POP POP JUMP JUMPDEST PUSH1 0x0 PUSH1 0xA0 DUP3 ADD SWAP1 POP PUSH2 0xDD9 PUSH1 0x0 DUP4 ADD DUP9 PUSH2 0x86A JUMP JUMPDEST DUP2 DUP2 SUB PUSH1 0x20 DUP4 ADD MSTORE PUSH2 0xDEB DUP2 DUP8 PUSH2 0x97D JUMP JUMPDEST SWAP1 POP DUP2 DUP2 SUB PUSH1 0x40 DUP4 ADD MSTORE PUSH2 0xDFF DUP2 DUP7 PUSH2 0x97D JUMP JUMPDEST SWAP1 POP PUSH2 0xE0E PUSH1 0x60 DUP4 ADD DUP6 PUSH2 0x86A JUMP JUMPDEST PUSH2 0xE1B PUSH1 0x80 DUP4 ADD DUP5 PUSH2 0x9B6 JUMP JUMPDEST SWAP7 SWAP6 POP POP POP POP POP POP JUMP JUMPDEST PUSH1 0x0 PUSH1 0x60 DUP3 ADD SWAP1 POP PUSH2 0xE3A PUSH1 0x0 DUP4 ADD DUP7 PUSH2 0x86A JUMP JUMPDEST PUSH2 0xE47 PUSH1 0x20 DUP4 ADD DUP6 PUSH2 0x9C5 JUMP JUMPDEST PUSH2 0xE54 PUSH1 0x40 DUP4 ADD DUP5 PUSH2 0x86A JUMP JUMPDEST SWAP5 SWAP4 POP POP POP POP JUMP JUMPDEST PUSH1 0x0 PUSH1 0x40 DUP3 ADD SWAP1 POP PUSH2 0xE71 PUSH1 0x0 DUP4 ADD DUP6 PUSH2 0x86A JUMP JUMPDEST PUSH2 0xE7E PUSH1 0x20 DUP4 ADD DUP5 PUSH2 0x86A JUMP JUMPDEST SWAP4 SWAP3 POP POP POP JUMP INVALID LOG2 PUSH5 0x6970667358 0x22 SLT KECCAK256 AND PUSH12 0x2A5C58C077AB590B8F14819C OR DUP6 0xAF PUSH24 0x4BC8E4B79509CFB18EBFBC355C2164736F6C634300081000 CALLER "
				},
				"gasEstimates": {
					"creation": {
						"codeDepositCost": "754200",
						"executionCost": "22892",
						"totalCost": "777092"
					},
					"external": {
						"ooRequests(uint256)": "infinite",
						"requestData(bytes,bytes,address,uint256,uint256)": "infinite",
						"setRequestResult(uint256,int256)": "infinite",
						"settleRequest(uint256)": "infinite",
						"totalOORequests()": "2429"
					}
				},
				"methodIdentifiers": {
					"ooRequests(uint256)": "f418ad7a",
					"requestData(bytes,bytes,address,uint256,uint256)": "7b2239db",
					"setRequestResult(uint256,int256)": "b87c065f",
					"settleRequest(uint256)": "d247f92b",
					"totalOORequests()": "8a9cf5da"
				}
			},
			"storageLayout": {
				"storage": [
					{
						"astId": 5,
						"contract": "client-oracle/OptimisticOracleV2.sol:OptimisticOracleV2",
						"label": "totalOORequests",
						"offset": 0,
						"slot": "0",
						"type": "t_uint256"
					},
					{
						"astId": 34,
						"contract": "client-oracle/OptimisticOracleV2.sol:OptimisticOracleV2",
						"label": "ooRequests",
						"offset": 0,
						"slot": "1",
						"type": "t_mapping(t_uint256,t_struct(ooRequest)29_storage)"
					}
				],
				"types": {
					"t_address": {
						"encoding": "inplace",
						"label": "address",
						"numberOfBytes": "20"
					},
					"t_bytes_storage": {
						"encoding": "bytes",
						"label": "bytes",
						"numberOfBytes": "32"
					},
					"t_enum(Status)9": {
						"encoding": "inplace",
						"label": "enum OptimisticOracleV2.Status",
						"numberOfBytes": "1"
					},
					"t_int256": {
						"encoding": "inplace",
						"label": "int256",
						"numberOfBytes": "32"
					},
					"t_mapping(t_uint256,t_struct(ooRequest)29_storage)": {
						"encoding": "mapping",
						"key": "t_uint256",
						"label": "mapping(uint256 => struct OptimisticOracleV2.ooRequest)",
						"numberOfBytes": "32",
						"value": "t_struct(ooRequest)29_storage"
					},
					"t_struct(ooRequest)29_storage": {
						"encoding": "inplace",
						"label": "struct OptimisticOracleV2.ooRequest",
						"members": [
							{
								"astId": 11,
								"contract": "client-oracle/OptimisticOracleV2.sol:OptimisticOracleV2",
								"label": "identifier",
								"offset": 0,
								"slot": "0",
								"type": "t_bytes_storage"
							},
							{
								"astId": 13,
								"contract": "client-oracle/OptimisticOracleV2.sol:OptimisticOracleV2",
								"label": "ancillaryData",
								"offset": 0,
								"slot": "1",
								"type": "t_bytes_storage"
							},
							{
								"astId": 15,
								"contract": "client-oracle/OptimisticOracleV2.sol:OptimisticOracleV2",
								"label": "bondCurrencyAddress",
								"offset": 0,
								"slot": "2",
								"type": "t_address"
							},
							{
								"astId": 17,
								"contract": "client-oracle/OptimisticOracleV2.sol:OptimisticOracleV2",
								"label": "reward",
								"offset": 0,
								"slot": "3",
								"type": "t_uint256"
							},
							{
								"astId": 19,
								"contract": "client-oracle/OptimisticOracleV2.sol:OptimisticOracleV2",
								"label": "livenessTime",
								"offset": 0,
								"slot": "4",
								"type": "t_uint256"
							},
							{
								"astId": 21,
								"contract": "client-oracle/OptimisticOracleV2.sol:OptimisticOracleV2",
								"label": "requestTime",
								"offset": 0,
								"slot": "5",
								"type": "t_uint256"
							},
							{
								"astId": 23,
								"contract": "client-oracle/OptimisticOracleV2.sol:OptimisticOracleV2",
								"label": "requester",
								"offset": 0,
								"slot": "6",
								"type": "t_address"
							},
							{
								"astId": 25,
								"contract": "client-oracle/OptimisticOracleV2.sol:OptimisticOracleV2",
								"label": "result",
								"offset": 0,
								"slot": "7",
								"type": "t_int256"
							},
							{
								"astId": 28,
								"contract": "client-oracle/OptimisticOracleV2.sol:OptimisticOracleV2",
								"label": "currentStatus",
								"offset": 0,
								"slot": "8",
								"type": "t_enum(Status)9"
							}
						],
						"numberOfBytes": "288"
					},
					"t_uint256": {
						"encoding": "inplace",
						"label": "uint256",
						"numberOfBytes": "32"
					}
				}
			},
			"userdoc": {
				"kind": "user",
				"methods": {},
				"notice": "Maybe we can add extra data ,like proposed Result , settled Result",
				"version": 1
			}
		}
	}
}