{
	"client-oracle/OptimisticOracleV2.sol": {
		"OptimisticOracleV2": {
			"abi": [
				{
					"anonymous": false,
					"inputs": [
						{
							"indexed": false,
							"internalType": "uint256",
							"name": "requestId",
							"type": "uint256"
						},
						{
							"indexed": false,
							"internalType": "bytes32",
							"name": "identifier",
							"type": "bytes32"
						},
						{
							"indexed": false,
							"internalType": "bytes",
							"name": "ancillaryData",
							"type": "bytes"
						},
						{
							"indexed": false,
							"internalType": "uint256",
							"name": "requestTime",
							"type": "uint256"
						},
						{
							"indexed": false,
							"internalType": "address",
							"name": "requester",
							"type": "address"
						}
					],
					"name": "requestCreated",
					"type": "event"
				},
				{
					"anonymous": false,
					"inputs": [
						{
							"indexed": false,
							"internalType": "uint256",
							"name": "requestId",
							"type": "uint256"
						},
						{
							"indexed": false,
							"internalType": "int256",
							"name": "result",
							"type": "int256"
						},
						{
							"indexed": false,
							"internalType": "uint256",
							"name": "timestamp",
							"type": "uint256"
						}
					],
					"name": "resultAdded",
					"type": "event"
				},
				{
					"anonymous": false,
					"inputs": [
						{
							"indexed": false,
							"internalType": "uint256",
							"name": "requestId",
							"type": "uint256"
						},
						{
							"indexed": false,
							"internalType": "uint256",
							"name": "timestamp",
							"type": "uint256"
						}
					],
					"name": "settleOORequest",
					"type": "event"
				},
				{
					"inputs": [
						{
							"internalType": "uint256",
							"name": "requestId",
							"type": "uint256"
						}
					],
					"name": "getRequest",
					"outputs": [
						{
							"components": [
								{
									"internalType": "bytes32",
									"name": "identifier",
									"type": "bytes32"
								},
								{
									"internalType": "bytes",
									"name": "ancillaryData",
									"type": "bytes"
								},
								{
									"internalType": "address",
									"name": "bondCurrencyAddress",
									"type": "address"
								},
								{
									"internalType": "uint256",
									"name": "reward",
									"type": "uint256"
								},
								{
									"internalType": "uint256",
									"name": "livenessTime",
									"type": "uint256"
								},
								{
									"internalType": "uint256",
									"name": "requestTime",
									"type": "uint256"
								},
								{
									"internalType": "address",
									"name": "requester",
									"type": "address"
								},
								{
									"internalType": "int256",
									"name": "result",
									"type": "int256"
								},
								{
									"internalType": "enum OptimisticOracleV2.Status",
									"name": "currentStatus",
									"type": "uint8"
								}
							],
							"internalType": "struct OptimisticOracleV2.ooRequest",
							"name": "",
							"type": "tuple"
						}
					],
					"stateMutability": "view",
					"type": "function"
				},
				{
					"inputs": [
						{
							"internalType": "uint256",
							"name": "requestId",
							"type": "uint256"
						}
					],
					"name": "getRequestResult",
					"outputs": [
						{
							"internalType": "int256",
							"name": "",
							"type": "int256"
						}
					],
					"stateMutability": "view",
					"type": "function"
				},
				{
					"inputs": [
						{
							"internalType": "uint256",
							"name": "",
							"type": "uint256"
						}
					],
					"name": "ooRequests",
					"outputs": [
						{
							"internalType": "bytes32",
							"name": "identifier",
							"type": "bytes32"
						},
						{
							"internalType": "bytes",
							"name": "ancillaryData",
							"type": "bytes"
						},
						{
							"internalType": "address",
							"name": "bondCurrencyAddress",
							"type": "address"
						},
						{
							"internalType": "uint256",
							"name": "reward",
							"type": "uint256"
						},
						{
							"internalType": "uint256",
							"name": "livenessTime",
							"type": "uint256"
						},
						{
							"internalType": "uint256",
							"name": "requestTime",
							"type": "uint256"
						},
						{
							"internalType": "address",
							"name": "requester",
							"type": "address"
						},
						{
							"internalType": "int256",
							"name": "result",
							"type": "int256"
						},
						{
							"internalType": "enum OptimisticOracleV2.Status",
							"name": "currentStatus",
							"type": "uint8"
						}
					],
					"stateMutability": "view",
					"type": "function"
				},
				{
					"inputs": [
						{
							"internalType": "bytes32",
							"name": "identifier",
							"type": "bytes32"
						},
						{
							"internalType": "bytes",
							"name": "ancillaryData",
							"type": "bytes"
						},
						{
							"internalType": "address",
							"name": "bondCurrencyAddress",
							"type": "address"
						},
						{
							"internalType": "uint256",
							"name": "rewardAmount",
							"type": "uint256"
						},
						{
							"internalType": "uint256",
							"name": "livenessTime",
							"type": "uint256"
						}
					],
					"name": "requestData",
					"outputs": [
						{
							"internalType": "uint256",
							"name": "requestId",
							"type": "uint256"
						}
					],
					"stateMutability": "nonpayable",
					"type": "function"
				},
				{
					"inputs": [
						{
							"internalType": "uint256",
							"name": "requestId",
							"type": "uint256"
						},
						{
							"internalType": "int256",
							"name": "result",
							"type": "int256"
						}
					],
					"name": "setRequestResult",
					"outputs": [],
					"stateMutability": "nonpayable",
					"type": "function"
				},
				{
					"inputs": [
						{
							"internalType": "uint256",
							"name": "requestId",
							"type": "uint256"
						}
					],
					"name": "settleRequest",
					"outputs": [],
					"stateMutability": "nonpayable",
					"type": "function"
				},
				{
					"inputs": [],
					"name": "totalOORequests",
					"outputs": [
						{
							"internalType": "uint256",
							"name": "",
							"type": "uint256"
						}
					],
					"stateMutability": "view",
					"type": "function"
				}
			],
			"devdoc": {
				"kind": "dev",
				"methods": {},
				"version": 1
			},
			"evm": {
				"assembly": "    /* \"client-oracle/OptimisticOracleV2.sol\":129:2565  contract OptimisticOracleV2 {... */\n  mstore(0x40, 0x80)\n    /* \"client-oracle/OptimisticOracleV2.sol\":196:197  1 */\n  0x01\n    /* \"client-oracle/OptimisticOracleV2.sol\":163:197  uint256 public totalOORequests = 1 */\n  0x00\n  sstore\n    /* \"client-oracle/OptimisticOracleV2.sol\":129:2565  contract OptimisticOracleV2 {... */\n  callvalue\n  dup1\n  iszero\n  tag_1\n  jumpi\n  0x00\n  dup1\n  revert\ntag_1:\n  pop\n  dataSize(sub_0)\n  dup1\n  dataOffset(sub_0)\n  0x00\n  codecopy\n  0x00\n  return\nstop\n\nsub_0: assembly {\n        /* \"client-oracle/OptimisticOracleV2.sol\":129:2565  contract OptimisticOracleV2 {... */\n      mstore(0x40, 0x80)\n      callvalue\n      dup1\n      iszero\n      tag_1\n      jumpi\n      0x00\n      dup1\n      revert\n    tag_1:\n      pop\n      jumpi(tag_2, lt(calldatasize, 0x04))\n      shr(0xe0, calldataload(0x00))\n      dup1\n      0xc58343ef\n      gt\n      tag_10\n      jumpi\n      dup1\n      0xc58343ef\n      eq\n      tag_6\n      jumpi\n      dup1\n      0xd247f92b\n      eq\n      tag_7\n      jumpi\n      dup1\n      0xf418ad7a\n      eq\n      tag_8\n      jumpi\n      dup1\n      0xf84507ad\n      eq\n      tag_9\n      jumpi\n      jump(tag_2)\n    tag_10:\n      dup1\n      0x5944427b\n      eq\n      tag_3\n      jumpi\n      dup1\n      0x8a9cf5da\n      eq\n      tag_4\n      jumpi\n      dup1\n      0xb87c065f\n      eq\n      tag_5\n      jumpi\n    tag_2:\n      0x00\n      dup1\n      revert\n        /* \"client-oracle/OptimisticOracleV2.sol\":2313:2432  function getRequestResult(uint requestId) public view returns(int) {... */\n    tag_3:\n      tag_11\n      0x04\n      dup1\n      calldatasize\n      sub\n      dup2\n      add\n      swap1\n      tag_12\n      swap2\n      swap1\n      tag_13\n      jump\t// in\n    tag_12:\n      tag_14\n      jump\t// in\n    tag_11:\n      mload(0x40)\n      tag_15\n      swap2\n      swap1\n      tag_16\n      jump\t// in\n    tag_15:\n      mload(0x40)\n      dup1\n      swap2\n      sub\n      swap1\n      return\n        /* \"client-oracle/OptimisticOracleV2.sol\":163:197  uint256 public totalOORequests = 1 */\n    tag_4:\n      tag_17\n      tag_18\n      jump\t// in\n    tag_17:\n      mload(0x40)\n      tag_19\n      swap2\n      swap1\n      tag_20\n      jump\t// in\n    tag_19:\n      mload(0x40)\n      dup1\n      swap2\n      sub\n      swap1\n      return\n        /* \"client-oracle/OptimisticOracleV2.sol\":2034:2307  function setRequestResult(uint requestId, int result) public {... */\n    tag_5:\n      tag_21\n      0x04\n      dup1\n      calldatasize\n      sub\n      dup2\n      add\n      swap1\n      tag_22\n      swap2\n      swap1\n      tag_23\n      jump\t// in\n    tag_22:\n      tag_24\n      jump\t// in\n    tag_21:\n      stop\n        /* \"client-oracle/OptimisticOracleV2.sol\":2438:2557  function getRequest(uint requestId) public view returns(ooRequest memory) {... */\n    tag_6:\n      tag_25\n      0x04\n      dup1\n      calldatasize\n      sub\n      dup2\n      add\n      swap1\n      tag_26\n      swap2\n      swap1\n      tag_13\n      jump\t// in\n    tag_26:\n      tag_27\n      jump\t// in\n    tag_25:\n      mload(0x40)\n      tag_28\n      swap2\n      swap1\n      tag_29\n      jump\t// in\n    tag_28:\n      mload(0x40)\n      dup1\n      swap2\n      sub\n      swap1\n      return\n        /* \"client-oracle/OptimisticOracleV2.sol\":1819:2000  function settleRequest(uint requestId) public {... */\n    tag_7:\n      tag_30\n      0x04\n      dup1\n      calldatasize\n      sub\n      dup2\n      add\n      swap1\n      tag_31\n      swap2\n      swap1\n      tag_13\n      jump\t// in\n    tag_31:\n      tag_32\n      jump\t// in\n    tag_30:\n      stop\n        /* \"client-oracle/OptimisticOracleV2.sol\":599:643  mapping(uint => ooRequest) public ooRequests */\n    tag_8:\n      tag_33\n      0x04\n      dup1\n      calldatasize\n      sub\n      dup2\n      add\n      swap1\n      tag_34\n      swap2\n      swap1\n      tag_13\n      jump\t// in\n    tag_34:\n      tag_35\n      jump\t// in\n    tag_33:\n      mload(0x40)\n      tag_36\n      swap10\n      swap9\n      swap8\n      swap7\n      swap6\n      swap5\n      swap4\n      swap3\n      swap2\n      swap1\n      tag_37\n      jump\t// in\n    tag_36:\n      mload(0x40)\n      dup1\n      swap2\n      sub\n      swap1\n      return\n        /* \"client-oracle/OptimisticOracleV2.sol\":1031:1776  function requestData(... */\n    tag_9:\n      tag_38\n      0x04\n      dup1\n      calldatasize\n      sub\n      dup2\n      add\n      swap1\n      tag_39\n      swap2\n      swap1\n      tag_40\n      jump\t// in\n    tag_39:\n      tag_41\n      jump\t// in\n    tag_38:\n      mload(0x40)\n      tag_42\n      swap2\n      swap1\n      tag_20\n      jump\t// in\n    tag_42:\n      mload(0x40)\n      dup1\n      swap2\n      sub\n      swap1\n      return\n        /* \"client-oracle/OptimisticOracleV2.sol\":2313:2432  function getRequestResult(uint requestId) public view returns(int) {... */\n    tag_14:\n        /* \"client-oracle/OptimisticOracleV2.sol\":2375:2378  int */\n      0x00\n        /* \"client-oracle/OptimisticOracleV2.sol\":2397:2407  ooRequests */\n      0x01\n        /* \"client-oracle/OptimisticOracleV2.sol\":2397:2418  ooRequests[requestId] */\n      0x00\n        /* \"client-oracle/OptimisticOracleV2.sol\":2408:2417  requestId */\n      dup4\n        /* \"client-oracle/OptimisticOracleV2.sol\":2397:2418  ooRequests[requestId] */\n      dup2\n      mstore\n      0x20\n      add\n      swap1\n      dup2\n      mstore\n      0x20\n      add\n      0x00\n      keccak256\n        /* \"client-oracle/OptimisticOracleV2.sol\":2397:2425  ooRequests[requestId].result */\n      0x07\n      add\n      sload\n        /* \"client-oracle/OptimisticOracleV2.sol\":2390:2425  return ooRequests[requestId].result */\n      swap1\n      pop\n        /* \"client-oracle/OptimisticOracleV2.sol\":2313:2432  function getRequestResult(uint requestId) public view returns(int) {... */\n      swap2\n      swap1\n      pop\n      jump\t// out\n        /* \"client-oracle/OptimisticOracleV2.sol\":163:197  uint256 public totalOORequests = 1 */\n    tag_18:\n      sload(0x00)\n      dup2\n      jump\t// out\n        /* \"client-oracle/OptimisticOracleV2.sol\":2034:2307  function setRequestResult(uint requestId, int result) public {... */\n    tag_24:\n        /* \"client-oracle/OptimisticOracleV2.sol\":2105:2131  ooRequest storage _request */\n      0x00\n        /* \"client-oracle/OptimisticOracleV2.sol\":2134:2144  ooRequests */\n      0x01\n        /* \"client-oracle/OptimisticOracleV2.sol\":2134:2155  ooRequests[requestId] */\n      0x00\n        /* \"client-oracle/OptimisticOracleV2.sol\":2145:2154  requestId */\n      dup5\n        /* \"client-oracle/OptimisticOracleV2.sol\":2134:2155  ooRequests[requestId] */\n      dup2\n      mstore\n      0x20\n      add\n      swap1\n      dup2\n      mstore\n      0x20\n      add\n      0x00\n      keccak256\n        /* \"client-oracle/OptimisticOracleV2.sol\":2105:2155  ooRequest storage _request = ooRequests[requestId] */\n      swap1\n      pop\n        /* \"client-oracle/OptimisticOracleV2.sol\":2183:2189  result */\n      dup2\n        /* \"client-oracle/OptimisticOracleV2.sol\":2165:2173  _request */\n      dup2\n        /* \"client-oracle/OptimisticOracleV2.sol\":2165:2180  _request.result */\n      0x07\n      add\n        /* \"client-oracle/OptimisticOracleV2.sol\":2165:2189  _request.result = result */\n      dup2\n      swap1\n      sstore\n      pop\n        /* \"client-oracle/OptimisticOracleV2.sol\":2224:2238  Status.Settled */\n      0x02\n        /* \"client-oracle/OptimisticOracleV2.sol\":2199:2207  _request */\n      dup2\n        /* \"client-oracle/OptimisticOracleV2.sol\":2199:2221  _request.currentStatus */\n      0x08\n      add\n      0x00\n        /* \"client-oracle/OptimisticOracleV2.sol\":2199:2238  _request.currentStatus = Status.Settled */\n      0x0100\n      exp\n      dup2\n      sload\n      dup2\n      0xff\n      mul\n      not\n      and\n      swap1\n      dup4\n      0x02\n      dup2\n      gt\n      iszero\n      tag_45\n      jumpi\n      tag_46\n      tag_47\n      jump\t// in\n    tag_46:\n    tag_45:\n      mul\n      or\n      swap1\n      sstore\n      pop\n        /* \"client-oracle/OptimisticOracleV2.sol\":2253:2300  resultAdded(requestId, result, block.timestamp) */\n      0x336b6a93b38daa435f14747b9c40a9bc9569de3a62550c286f52428d83a2846f\n        /* \"client-oracle/OptimisticOracleV2.sol\":2265:2274  requestId */\n      dup4\n        /* \"client-oracle/OptimisticOracleV2.sol\":2276:2282  result */\n      dup4\n        /* \"client-oracle/OptimisticOracleV2.sol\":2284:2299  block.timestamp */\n      timestamp\n        /* \"client-oracle/OptimisticOracleV2.sol\":2253:2300  resultAdded(requestId, result, block.timestamp) */\n      mload(0x40)\n      tag_48\n      swap4\n      swap3\n      swap2\n      swap1\n      tag_49\n      jump\t// in\n    tag_48:\n      mload(0x40)\n      dup1\n      swap2\n      sub\n      swap1\n      log1\n        /* \"client-oracle/OptimisticOracleV2.sol\":2095:2307  {... */\n      pop\n        /* \"client-oracle/OptimisticOracleV2.sol\":2034:2307  function setRequestResult(uint requestId, int result) public {... */\n      pop\n      pop\n      jump\t// out\n        /* \"client-oracle/OptimisticOracleV2.sol\":2438:2557  function getRequest(uint requestId) public view returns(ooRequest memory) {... */\n    tag_27:\n        /* \"client-oracle/OptimisticOracleV2.sol\":2494:2510  ooRequest memory */\n      tag_50\n      tag_51\n      jump\t// in\n    tag_50:\n        /* \"client-oracle/OptimisticOracleV2.sol\":2529:2539  ooRequests */\n      0x01\n        /* \"client-oracle/OptimisticOracleV2.sol\":2529:2550  ooRequests[requestId] */\n      0x00\n        /* \"client-oracle/OptimisticOracleV2.sol\":2540:2549  requestId */\n      dup4\n        /* \"client-oracle/OptimisticOracleV2.sol\":2529:2550  ooRequests[requestId] */\n      dup2\n      mstore\n      0x20\n      add\n      swap1\n      dup2\n      mstore\n      0x20\n      add\n      0x00\n      keccak256\n        /* \"client-oracle/OptimisticOracleV2.sol\":2522:2550  return ooRequests[requestId] */\n      mload(0x40)\n      dup1\n      0x0120\n      add\n      0x40\n      mstore\n      swap1\n      dup2\n      0x00\n      dup3\n      add\n      sload\n      dup2\n      mstore\n      0x20\n      add\n      0x01\n      dup3\n      add\n      dup1\n      sload\n      tag_53\n      swap1\n      tag_54\n      jump\t// in\n    tag_53:\n      dup1\n      0x1f\n      add\n      0x20\n      dup1\n      swap2\n      div\n      mul\n      0x20\n      add\n      mload(0x40)\n      swap1\n      dup2\n      add\n      0x40\n      mstore\n      dup1\n      swap3\n      swap2\n      swap1\n      dup2\n      dup2\n      mstore\n      0x20\n      add\n      dup3\n      dup1\n      sload\n      tag_55\n      swap1\n      tag_54\n      jump\t// in\n    tag_55:\n      dup1\n      iszero\n      tag_56\n      jumpi\n      dup1\n      0x1f\n      lt\n      tag_57\n      jumpi\n      0x0100\n      dup1\n      dup4\n      sload\n      div\n      mul\n      dup4\n      mstore\n      swap2\n      0x20\n      add\n      swap2\n      jump(tag_56)\n    tag_57:\n      dup3\n      add\n      swap2\n      swap1\n      0x00\n      mstore\n      keccak256(0x00, 0x20)\n      swap1\n    tag_58:\n      dup2\n      sload\n      dup2\n      mstore\n      swap1\n      0x01\n      add\n      swap1\n      0x20\n      add\n      dup1\n      dup4\n      gt\n      tag_58\n      jumpi\n      dup3\n      swap1\n      sub\n      0x1f\n      and\n      dup3\n      add\n      swap2\n    tag_56:\n      pop\n      pop\n      pop\n      pop\n      pop\n      dup2\n      mstore\n      0x20\n      add\n      0x02\n      dup3\n      add\n      0x00\n      swap1\n      sload\n      swap1\n      0x0100\n      exp\n      swap1\n      div\n      0xffffffffffffffffffffffffffffffffffffffff\n      and\n      0xffffffffffffffffffffffffffffffffffffffff\n      and\n      0xffffffffffffffffffffffffffffffffffffffff\n      and\n      dup2\n      mstore\n      0x20\n      add\n      0x03\n      dup3\n      add\n      sload\n      dup2\n      mstore\n      0x20\n      add\n      0x04\n      dup3\n      add\n      sload\n      dup2\n      mstore\n      0x20\n      add\n      0x05\n      dup3\n      add\n      sload\n      dup2\n      mstore\n      0x20\n      add\n      0x06\n      dup3\n      add\n      0x00\n      swap1\n      sload\n      swap1\n      0x0100\n      exp\n      swap1\n      div\n      0xffffffffffffffffffffffffffffffffffffffff\n      and\n      0xffffffffffffffffffffffffffffffffffffffff\n      and\n      0xffffffffffffffffffffffffffffffffffffffff\n      and\n      dup2\n      mstore\n      0x20\n      add\n      0x07\n      dup3\n      add\n      sload\n      dup2\n      mstore\n      0x20\n      add\n      0x08\n      dup3\n      add\n      0x00\n      swap1\n      sload\n      swap1\n      0x0100\n      exp\n      swap1\n      div\n      0xff\n      and\n      0x02\n      dup2\n      gt\n      iszero\n      tag_59\n      jumpi\n      tag_60\n      tag_47\n      jump\t// in\n    tag_60:\n    tag_59:\n      0x02\n      dup2\n      gt\n      iszero\n      tag_61\n      jumpi\n      tag_62\n      tag_47\n      jump\t// in\n    tag_62:\n    tag_61:\n      dup2\n      mstore\n      pop\n      pop\n      swap1\n      pop\n        /* \"client-oracle/OptimisticOracleV2.sol\":2438:2557  function getRequest(uint requestId) public view returns(ooRequest memory) {... */\n      swap2\n      swap1\n      pop\n      jump\t// out\n        /* \"client-oracle/OptimisticOracleV2.sol\":1819:2000  function settleRequest(uint requestId) public {... */\n    tag_32:\n        /* \"client-oracle/OptimisticOracleV2.sol\":1913:1935  Status.SettleRequested */\n      0x01\n        /* \"client-oracle/OptimisticOracleV2.sol\":1875:1885  ooRequests */\n      dup1\n        /* \"client-oracle/OptimisticOracleV2.sol\":1875:1896  ooRequests[requestId] */\n      0x00\n        /* \"client-oracle/OptimisticOracleV2.sol\":1886:1895  requestId */\n      dup4\n        /* \"client-oracle/OptimisticOracleV2.sol\":1875:1896  ooRequests[requestId] */\n      dup2\n      mstore\n      0x20\n      add\n      swap1\n      dup2\n      mstore\n      0x20\n      add\n      0x00\n      keccak256\n        /* \"client-oracle/OptimisticOracleV2.sol\":1875:1910  ooRequests[requestId].currentStatus */\n      0x08\n      add\n      0x00\n        /* \"client-oracle/OptimisticOracleV2.sol\":1875:1935  ooRequests[requestId].currentStatus = Status.SettleRequested */\n      0x0100\n      exp\n      dup2\n      sload\n      dup2\n      0xff\n      mul\n      not\n      and\n      swap1\n      dup4\n      0x02\n      dup2\n      gt\n      iszero\n      tag_64\n      jumpi\n      tag_65\n      tag_47\n      jump\t// in\n    tag_65:\n    tag_64:\n      mul\n      or\n      swap1\n      sstore\n      pop\n        /* \"client-oracle/OptimisticOracleV2.sol\":1950:1993  settleOORequest(requestId, block.timestamp) */\n      0x1f5d616c2e1670edad5d1f2ce72c07bd219ebefbae35617f57d8234964fc2743\n        /* \"client-oracle/OptimisticOracleV2.sol\":1966:1975  requestId */\n      dup2\n        /* \"client-oracle/OptimisticOracleV2.sol\":1977:1992  block.timestamp */\n      timestamp\n        /* \"client-oracle/OptimisticOracleV2.sol\":1950:1993  settleOORequest(requestId, block.timestamp) */\n      mload(0x40)\n      tag_66\n      swap3\n      swap2\n      swap1\n      tag_67\n      jump\t// in\n    tag_66:\n      mload(0x40)\n      dup1\n      swap2\n      sub\n      swap1\n      log1\n        /* \"client-oracle/OptimisticOracleV2.sol\":1819:2000  function settleRequest(uint requestId) public {... */\n      pop\n      jump\t// out\n        /* \"client-oracle/OptimisticOracleV2.sol\":599:643  mapping(uint => ooRequest) public ooRequests */\n    tag_35:\n      mstore(0x20, 0x01)\n      dup1\n      0x00\n      mstore\n      keccak256(0x00, 0x40)\n      0x00\n      swap2\n      pop\n      swap1\n      pop\n      dup1\n      0x00\n      add\n      sload\n      swap1\n      dup1\n      0x01\n      add\n      dup1\n      sload\n      tag_68\n      swap1\n      tag_54\n      jump\t// in\n    tag_68:\n      dup1\n      0x1f\n      add\n      0x20\n      dup1\n      swap2\n      div\n      mul\n      0x20\n      add\n      mload(0x40)\n      swap1\n      dup2\n      add\n      0x40\n      mstore\n      dup1\n      swap3\n      swap2\n      swap1\n      dup2\n      dup2\n      mstore\n      0x20\n      add\n      dup3\n      dup1\n      sload\n      tag_69\n      swap1\n      tag_54\n      jump\t// in\n    tag_69:\n      dup1\n      iszero\n      tag_70\n      jumpi\n      dup1\n      0x1f\n      lt\n      tag_71\n      jumpi\n      0x0100\n      dup1\n      dup4\n      sload\n      div\n      mul\n      dup4\n      mstore\n      swap2\n      0x20\n      add\n      swap2\n      jump(tag_70)\n    tag_71:\n      dup3\n      add\n      swap2\n      swap1\n      0x00\n      mstore\n      keccak256(0x00, 0x20)\n      swap1\n    tag_72:\n      dup2\n      sload\n      dup2\n      mstore\n      swap1\n      0x01\n      add\n      swap1\n      0x20\n      add\n      dup1\n      dup4\n      gt\n      tag_72\n      jumpi\n      dup3\n      swap1\n      sub\n      0x1f\n      and\n      dup3\n      add\n      swap2\n    tag_70:\n      pop\n      pop\n      pop\n      pop\n      pop\n      swap1\n      dup1\n      0x02\n      add\n      0x00\n      swap1\n      sload\n      swap1\n      0x0100\n      exp\n      swap1\n      div\n      0xffffffffffffffffffffffffffffffffffffffff\n      and\n      swap1\n      dup1\n      0x03\n      add\n      sload\n      swap1\n      dup1\n      0x04\n      add\n      sload\n      swap1\n      dup1\n      0x05\n      add\n      sload\n      swap1\n      dup1\n      0x06\n      add\n      0x00\n      swap1\n      sload\n      swap1\n      0x0100\n      exp\n      swap1\n      div\n      0xffffffffffffffffffffffffffffffffffffffff\n      and\n      swap1\n      dup1\n      0x07\n      add\n      sload\n      swap1\n      dup1\n      0x08\n      add\n      0x00\n      swap1\n      sload\n      swap1\n      0x0100\n      exp\n      swap1\n      div\n      0xff\n      and\n      swap1\n      pop\n      dup10\n      jump\t// out\n        /* \"client-oracle/OptimisticOracleV2.sol\":1031:1776  function requestData(... */\n    tag_41:\n        /* \"client-oracle/OptimisticOracleV2.sol\":1232:1246  uint requestId */\n      0x00\n        /* \"client-oracle/OptimisticOracleV2.sol\":1270:1285  totalOORequests */\n      dup1\n      sload\n        /* \"client-oracle/OptimisticOracleV2.sol\":1258:1285  requestId = totalOORequests */\n      swap1\n      pop\n        /* \"client-oracle/OptimisticOracleV2.sol\":1319:1572  ooRequest(... */\n      mload(0x40)\n      dup1\n      0x0120\n      add\n      0x40\n      mstore\n      dup1\n        /* \"client-oracle/OptimisticOracleV2.sol\":1342:1352  identifier */\n      dup8\n        /* \"client-oracle/OptimisticOracleV2.sol\":1319:1572  ooRequest(... */\n      dup2\n      mstore\n      0x20\n      add\n        /* \"client-oracle/OptimisticOracleV2.sol\":1366:1379  ancillaryData */\n      dup7\n        /* \"client-oracle/OptimisticOracleV2.sol\":1319:1572  ooRequest(... */\n      dup2\n      mstore\n      0x20\n      add\n        /* \"client-oracle/OptimisticOracleV2.sol\":1393:1412  bondCurrencyAddress */\n      dup6\n        /* \"client-oracle/OptimisticOracleV2.sol\":1319:1572  ooRequest(... */\n      0xffffffffffffffffffffffffffffffffffffffff\n      and\n      dup2\n      mstore\n      0x20\n      add\n        /* \"client-oracle/OptimisticOracleV2.sol\":1426:1438  rewardAmount */\n      dup5\n        /* \"client-oracle/OptimisticOracleV2.sol\":1319:1572  ooRequest(... */\n      dup2\n      mstore\n      0x20\n      add\n        /* \"client-oracle/OptimisticOracleV2.sol\":1452:1464  livenessTime */\n      dup4\n        /* \"client-oracle/OptimisticOracleV2.sol\":1319:1572  ooRequest(... */\n      dup2\n      mstore\n      0x20\n      add\n        /* \"client-oracle/OptimisticOracleV2.sol\":1478:1493  block.timestamp */\n      timestamp\n        /* \"client-oracle/OptimisticOracleV2.sol\":1319:1572  ooRequest(... */\n      dup2\n      mstore\n      0x20\n      add\n        /* \"client-oracle/OptimisticOracleV2.sol\":1507:1517  msg.sender */\n      caller\n        /* \"client-oracle/OptimisticOracleV2.sol\":1319:1572  ooRequest(... */\n      0xffffffffffffffffffffffffffffffffffffffff\n      and\n      dup2\n      mstore\n      0x20\n      add\n        /* \"client-oracle/OptimisticOracleV2.sol\":1531:1532  0 */\n      0x00\n        /* \"client-oracle/OptimisticOracleV2.sol\":1319:1572  ooRequest(... */\n      dup2\n      mstore\n      0x20\n      add\n        /* \"client-oracle/OptimisticOracleV2.sol\":1546:1562  Status.Requested */\n      0x00\n        /* \"client-oracle/OptimisticOracleV2.sol\":1319:1572  ooRequest(... */\n      0x02\n      dup2\n      gt\n      iszero\n      tag_74\n      jumpi\n      tag_75\n      tag_47\n      jump\t// in\n    tag_75:\n    tag_74:\n      dup2\n      mstore\n      pop\n        /* \"client-oracle/OptimisticOracleV2.sol\":1295:1305  ooRequests */\n      0x01\n        /* \"client-oracle/OptimisticOracleV2.sol\":1295:1316  ooRequests[requestId] */\n      0x00\n        /* \"client-oracle/OptimisticOracleV2.sol\":1306:1315  requestId */\n      dup4\n        /* \"client-oracle/OptimisticOracleV2.sol\":1295:1316  ooRequests[requestId] */\n      dup2\n      mstore\n      0x20\n      add\n      swap1\n      dup2\n      mstore\n      0x20\n      add\n      0x00\n      keccak256\n        /* \"client-oracle/OptimisticOracleV2.sol\":1295:1572  ooRequests[requestId] = ooRequest(... */\n      0x00\n      dup3\n      add\n      mload\n      dup2\n      0x00\n      add\n      sstore\n      0x20\n      dup3\n      add\n      mload\n      dup2\n      0x01\n      add\n      swap1\n      dup1\n      mload\n      swap1\n      0x20\n      add\n      swap1\n      tag_76\n      swap3\n      swap2\n      swap1\n      tag_77\n      jump\t// in\n    tag_76:\n      pop\n      0x40\n      dup3\n      add\n      mload\n      dup2\n      0x02\n      add\n      exp(0x0100, 0x00)\n      dup2\n      sload\n      dup2\n      0xffffffffffffffffffffffffffffffffffffffff\n      mul\n      not\n      and\n      swap1\n      dup4\n      0xffffffffffffffffffffffffffffffffffffffff\n      and\n      mul\n      or\n      swap1\n      sstore\n      pop\n      0x60\n      dup3\n      add\n      mload\n      dup2\n      0x03\n      add\n      sstore\n      0x80\n      dup3\n      add\n      mload\n      dup2\n      0x04\n      add\n      sstore\n      0xa0\n      dup3\n      add\n      mload\n      dup2\n      0x05\n      add\n      sstore\n      0xc0\n      dup3\n      add\n      mload\n      dup2\n      0x06\n      add\n      exp(0x0100, 0x00)\n      dup2\n      sload\n      dup2\n      0xffffffffffffffffffffffffffffffffffffffff\n      mul\n      not\n      and\n      swap1\n      dup4\n      0xffffffffffffffffffffffffffffffffffffffff\n      and\n      mul\n      or\n      swap1\n      sstore\n      pop\n      0xe0\n      dup3\n      add\n      mload\n      dup2\n      0x07\n      add\n      sstore\n      0x0100\n      dup3\n      add\n      mload\n      dup2\n      0x08\n      add\n      exp(0x0100, 0x00)\n      dup2\n      sload\n      dup2\n      0xff\n      mul\n      not\n      and\n      swap1\n      dup4\n      0x02\n      dup2\n      gt\n      iszero\n      tag_78\n      jumpi\n      tag_79\n      tag_47\n      jump\t// in\n    tag_79:\n    tag_78:\n      mul\n      or\n      swap1\n      sstore\n      pop\n      swap1\n      pop\n      pop\n        /* \"client-oracle/OptimisticOracleV2.sol\":1601:1602  1 */\n      0x01\n        /* \"client-oracle/OptimisticOracleV2.sol\":1583:1598  totalOORequests */\n      0x00\n      dup1\n        /* \"client-oracle/OptimisticOracleV2.sol\":1583:1602  totalOORequests +=1 */\n      dup3\n      dup3\n      sload\n      tag_80\n      swap2\n      swap1\n      tag_81\n      jump\t// in\n    tag_80:\n      swap3\n      pop\n      pop\n      dup2\n      swap1\n      sstore\n      pop\n        /* \"client-oracle/OptimisticOracleV2.sol\":1618:1769  requestCreated(... */\n      0x30b5bfd849df20e3e537cf95d7077e1aa0fcd8cc44832c6abd42da4534099f36\n        /* \"client-oracle/OptimisticOracleV2.sol\":1646:1655  requestId */\n      dup2\n        /* \"client-oracle/OptimisticOracleV2.sol\":1669:1679  identifier */\n      dup8\n        /* \"client-oracle/OptimisticOracleV2.sol\":1693:1706  ancillaryData */\n      dup8\n        /* \"client-oracle/OptimisticOracleV2.sol\":1720:1735  block.timestamp */\n      timestamp\n        /* \"client-oracle/OptimisticOracleV2.sol\":1749:1759  msg.sender */\n      caller\n        /* \"client-oracle/OptimisticOracleV2.sol\":1618:1769  requestCreated(... */\n      mload(0x40)\n      tag_82\n      swap6\n      swap5\n      swap4\n      swap3\n      swap2\n      swap1\n      tag_83\n      jump\t// in\n    tag_82:\n      mload(0x40)\n      dup1\n      swap2\n      sub\n      swap1\n      log1\n        /* \"client-oracle/OptimisticOracleV2.sol\":1031:1776  function requestData(... */\n      swap6\n      swap5\n      pop\n      pop\n      pop\n      pop\n      pop\n      jump\t// out\n    tag_51:\n      mload(0x40)\n      dup1\n      0x0120\n      add\n      0x40\n      mstore\n      dup1\n      0x00\n      dup1\n      not\n      and\n      dup2\n      mstore\n      0x20\n      add\n      0x60\n      dup2\n      mstore\n      0x20\n      add\n      and(0xffffffffffffffffffffffffffffffffffffffff, 0x00)\n      dup2\n      mstore\n      0x20\n      add\n      0x00\n      dup2\n      mstore\n      0x20\n      add\n      0x00\n      dup2\n      mstore\n      0x20\n      add\n      0x00\n      dup2\n      mstore\n      0x20\n      add\n      and(0xffffffffffffffffffffffffffffffffffffffff, 0x00)\n      dup2\n      mstore\n      0x20\n      add\n      0x00\n      dup2\n      mstore\n      0x20\n      add\n      0x00\n      0x02\n      dup2\n      gt\n      iszero\n      tag_84\n      jumpi\n      tag_85\n      tag_47\n      jump\t// in\n    tag_85:\n    tag_84:\n      dup2\n      mstore\n      pop\n      swap1\n      jump\t// out\n    tag_77:\n      dup3\n      dup1\n      sload\n      tag_86\n      swap1\n      tag_54\n      jump\t// in\n    tag_86:\n      swap1\n      0x00\n      mstore\n      keccak256(0x00, 0x20)\n      swap1\n      0x1f\n      add\n      0x20\n      swap1\n      div\n      dup2\n      add\n      swap3\n      dup3\n      tag_88\n      jumpi\n      0x00\n      dup6\n      sstore\n      jump(tag_87)\n    tag_88:\n      dup3\n      0x1f\n      lt\n      tag_89\n      jumpi\n      dup1\n      mload\n      not(0xff)\n      and\n      dup4\n      dup1\n      add\n      or\n      dup6\n      sstore\n      jump(tag_87)\n    tag_89:\n      dup3\n      dup1\n      add\n      0x01\n      add\n      dup6\n      sstore\n      dup3\n      iszero\n      tag_87\n      jumpi\n      swap2\n      dup3\n      add\n    tag_90:\n      dup3\n      dup2\n      gt\n      iszero\n      tag_91\n      jumpi\n      dup3\n      mload\n      dup3\n      sstore\n      swap2\n      0x20\n      add\n      swap2\n      swap1\n      0x01\n      add\n      swap1\n      jump(tag_90)\n    tag_91:\n    tag_87:\n      pop\n      swap1\n      pop\n      tag_92\n      swap2\n      swap1\n      tag_93\n      jump\t// in\n    tag_92:\n      pop\n      swap1\n      jump\t// out\n    tag_93:\n    tag_94:\n      dup1\n      dup3\n      gt\n      iszero\n      tag_95\n      jumpi\n      0x00\n      dup2\n      0x00\n      swap1\n      sstore\n      pop\n      0x01\n      add\n      jump(tag_94)\n    tag_95:\n      pop\n      swap1\n      jump\t// out\n        /* \"#utility.yul\":7:82   */\n    tag_96:\n        /* \"#utility.yul\":40:46   */\n      0x00\n        /* \"#utility.yul\":73:75   */\n      0x40\n        /* \"#utility.yul\":67:76   */\n      mload\n        /* \"#utility.yul\":57:76   */\n      swap1\n      pop\n        /* \"#utility.yul\":7:82   */\n      swap1\n      jump\t// out\n        /* \"#utility.yul\":88:205   */\n    tag_97:\n        /* \"#utility.yul\":197:198   */\n      0x00\n        /* \"#utility.yul\":194:195   */\n      dup1\n        /* \"#utility.yul\":187:199   */\n      revert\n        /* \"#utility.yul\":211:328   */\n    tag_98:\n        /* \"#utility.yul\":320:321   */\n      0x00\n        /* \"#utility.yul\":317:318   */\n      dup1\n        /* \"#utility.yul\":310:322   */\n      revert\n        /* \"#utility.yul\":334:411   */\n    tag_99:\n        /* \"#utility.yul\":371:378   */\n      0x00\n        /* \"#utility.yul\":400:405   */\n      dup2\n        /* \"#utility.yul\":389:405   */\n      swap1\n      pop\n        /* \"#utility.yul\":334:411   */\n      swap2\n      swap1\n      pop\n      jump\t// out\n        /* \"#utility.yul\":417:539   */\n    tag_100:\n        /* \"#utility.yul\":490:514   */\n      tag_150\n        /* \"#utility.yul\":508:513   */\n      dup2\n        /* \"#utility.yul\":490:514   */\n      tag_99\n      jump\t// in\n    tag_150:\n        /* \"#utility.yul\":483:488   */\n      dup2\n        /* \"#utility.yul\":480:515   */\n      eq\n        /* \"#utility.yul\":470:533   */\n      tag_151\n      jumpi\n        /* \"#utility.yul\":529:530   */\n      0x00\n        /* \"#utility.yul\":526:527   */\n      dup1\n        /* \"#utility.yul\":519:531   */\n      revert\n        /* \"#utility.yul\":470:533   */\n    tag_151:\n        /* \"#utility.yul\":417:539   */\n      pop\n      jump\t// out\n        /* \"#utility.yul\":545:684   */\n    tag_101:\n        /* \"#utility.yul\":591:596   */\n      0x00\n        /* \"#utility.yul\":629:635   */\n      dup2\n        /* \"#utility.yul\":616:636   */\n      calldataload\n        /* \"#utility.yul\":607:636   */\n      swap1\n      pop\n        /* \"#utility.yul\":645:678   */\n      tag_153\n        /* \"#utility.yul\":672:677   */\n      dup2\n        /* \"#utility.yul\":645:678   */\n      tag_100\n      jump\t// in\n    tag_153:\n        /* \"#utility.yul\":545:684   */\n      swap3\n      swap2\n      pop\n      pop\n      jump\t// out\n        /* \"#utility.yul\":690:1019   */\n    tag_13:\n        /* \"#utility.yul\":749:755   */\n      0x00\n        /* \"#utility.yul\":798:800   */\n      0x20\n        /* \"#utility.yul\":786:795   */\n      dup3\n        /* \"#utility.yul\":777:784   */\n      dup5\n        /* \"#utility.yul\":773:796   */\n      sub\n        /* \"#utility.yul\":769:801   */\n      slt\n        /* \"#utility.yul\":766:885   */\n      iszero\n      tag_155\n      jumpi\n        /* \"#utility.yul\":804:883   */\n      tag_156\n      tag_97\n      jump\t// in\n    tag_156:\n        /* \"#utility.yul\":766:885   */\n    tag_155:\n        /* \"#utility.yul\":924:925   */\n      0x00\n        /* \"#utility.yul\":949:1002   */\n      tag_157\n        /* \"#utility.yul\":994:1001   */\n      dup5\n        /* \"#utility.yul\":985:991   */\n      dup3\n        /* \"#utility.yul\":974:983   */\n      dup6\n        /* \"#utility.yul\":970:992   */\n      add\n        /* \"#utility.yul\":949:1002   */\n      tag_101\n      jump\t// in\n    tag_157:\n        /* \"#utility.yul\":939:1002   */\n      swap2\n      pop\n        /* \"#utility.yul\":895:1012   */\n      pop\n        /* \"#utility.yul\":690:1019   */\n      swap3\n      swap2\n      pop\n      pop\n      jump\t// out\n        /* \"#utility.yul\":1025:1101   */\n    tag_102:\n        /* \"#utility.yul\":1061:1068   */\n      0x00\n        /* \"#utility.yul\":1090:1095   */\n      dup2\n        /* \"#utility.yul\":1079:1095   */\n      swap1\n      pop\n        /* \"#utility.yul\":1025:1101   */\n      swap2\n      swap1\n      pop\n      jump\t// out\n        /* \"#utility.yul\":1107:1222   */\n    tag_103:\n        /* \"#utility.yul\":1192:1215   */\n      tag_160\n        /* \"#utility.yul\":1209:1214   */\n      dup2\n        /* \"#utility.yul\":1192:1215   */\n      tag_102\n      jump\t// in\n    tag_160:\n        /* \"#utility.yul\":1187:1190   */\n      dup3\n        /* \"#utility.yul\":1180:1216   */\n      mstore\n        /* \"#utility.yul\":1107:1222   */\n      pop\n      pop\n      jump\t// out\n        /* \"#utility.yul\":1228:1446   */\n    tag_16:\n        /* \"#utility.yul\":1319:1323   */\n      0x00\n        /* \"#utility.yul\":1357:1359   */\n      0x20\n        /* \"#utility.yul\":1346:1355   */\n      dup3\n        /* \"#utility.yul\":1342:1360   */\n      add\n        /* \"#utility.yul\":1334:1360   */\n      swap1\n      pop\n        /* \"#utility.yul\":1370:1439   */\n      tag_162\n        /* \"#utility.yul\":1436:1437   */\n      0x00\n        /* \"#utility.yul\":1425:1434   */\n      dup4\n        /* \"#utility.yul\":1421:1438   */\n      add\n        /* \"#utility.yul\":1412:1418   */\n      dup5\n        /* \"#utility.yul\":1370:1439   */\n      tag_103\n      jump\t// in\n    tag_162:\n        /* \"#utility.yul\":1228:1446   */\n      swap3\n      swap2\n      pop\n      pop\n      jump\t// out\n        /* \"#utility.yul\":1452:1570   */\n    tag_104:\n        /* \"#utility.yul\":1539:1563   */\n      tag_164\n        /* \"#utility.yul\":1557:1562   */\n      dup2\n        /* \"#utility.yul\":1539:1563   */\n      tag_99\n      jump\t// in\n    tag_164:\n        /* \"#utility.yul\":1534:1537   */\n      dup3\n        /* \"#utility.yul\":1527:1564   */\n      mstore\n        /* \"#utility.yul\":1452:1570   */\n      pop\n      pop\n      jump\t// out\n        /* \"#utility.yul\":1576:1798   */\n    tag_20:\n        /* \"#utility.yul\":1669:1673   */\n      0x00\n        /* \"#utility.yul\":1707:1709   */\n      0x20\n        /* \"#utility.yul\":1696:1705   */\n      dup3\n        /* \"#utility.yul\":1692:1710   */\n      add\n        /* \"#utility.yul\":1684:1710   */\n      swap1\n      pop\n        /* \"#utility.yul\":1720:1791   */\n      tag_166\n        /* \"#utility.yul\":1788:1789   */\n      0x00\n        /* \"#utility.yul\":1777:1786   */\n      dup4\n        /* \"#utility.yul\":1773:1790   */\n      add\n        /* \"#utility.yul\":1764:1770   */\n      dup5\n        /* \"#utility.yul\":1720:1791   */\n      tag_104\n      jump\t// in\n    tag_166:\n        /* \"#utility.yul\":1576:1798   */\n      swap3\n      swap2\n      pop\n      pop\n      jump\t// out\n        /* \"#utility.yul\":1804:1924   */\n    tag_105:\n        /* \"#utility.yul\":1876:1899   */\n      tag_168\n        /* \"#utility.yul\":1893:1898   */\n      dup2\n        /* \"#utility.yul\":1876:1899   */\n      tag_102\n      jump\t// in\n    tag_168:\n        /* \"#utility.yul\":1869:1874   */\n      dup2\n        /* \"#utility.yul\":1866:1900   */\n      eq\n        /* \"#utility.yul\":1856:1918   */\n      tag_169\n      jumpi\n        /* \"#utility.yul\":1914:1915   */\n      0x00\n        /* \"#utility.yul\":1911:1912   */\n      dup1\n        /* \"#utility.yul\":1904:1916   */\n      revert\n        /* \"#utility.yul\":1856:1918   */\n    tag_169:\n        /* \"#utility.yul\":1804:1924   */\n      pop\n      jump\t// out\n        /* \"#utility.yul\":1930:2067   */\n    tag_106:\n        /* \"#utility.yul\":1975:1980   */\n      0x00\n        /* \"#utility.yul\":2013:2019   */\n      dup2\n        /* \"#utility.yul\":2000:2020   */\n      calldataload\n        /* \"#utility.yul\":1991:2020   */\n      swap1\n      pop\n        /* \"#utility.yul\":2029:2061   */\n      tag_171\n        /* \"#utility.yul\":2055:2060   */\n      dup2\n        /* \"#utility.yul\":2029:2061   */\n      tag_105\n      jump\t// in\n    tag_171:\n        /* \"#utility.yul\":1930:2067   */\n      swap3\n      swap2\n      pop\n      pop\n      jump\t// out\n        /* \"#utility.yul\":2073:2545   */\n    tag_23:\n        /* \"#utility.yul\":2140:2146   */\n      0x00\n        /* \"#utility.yul\":2148:2154   */\n      dup1\n        /* \"#utility.yul\":2197:2199   */\n      0x40\n        /* \"#utility.yul\":2185:2194   */\n      dup4\n        /* \"#utility.yul\":2176:2183   */\n      dup6\n        /* \"#utility.yul\":2172:2195   */\n      sub\n        /* \"#utility.yul\":2168:2200   */\n      slt\n        /* \"#utility.yul\":2165:2284   */\n      iszero\n      tag_173\n      jumpi\n        /* \"#utility.yul\":2203:2282   */\n      tag_174\n      tag_97\n      jump\t// in\n    tag_174:\n        /* \"#utility.yul\":2165:2284   */\n    tag_173:\n        /* \"#utility.yul\":2323:2324   */\n      0x00\n        /* \"#utility.yul\":2348:2401   */\n      tag_175\n        /* \"#utility.yul\":2393:2400   */\n      dup6\n        /* \"#utility.yul\":2384:2390   */\n      dup3\n        /* \"#utility.yul\":2373:2382   */\n      dup7\n        /* \"#utility.yul\":2369:2391   */\n      add\n        /* \"#utility.yul\":2348:2401   */\n      tag_101\n      jump\t// in\n    tag_175:\n        /* \"#utility.yul\":2338:2401   */\n      swap3\n      pop\n        /* \"#utility.yul\":2294:2411   */\n      pop\n        /* \"#utility.yul\":2450:2452   */\n      0x20\n        /* \"#utility.yul\":2476:2528   */\n      tag_176\n        /* \"#utility.yul\":2520:2527   */\n      dup6\n        /* \"#utility.yul\":2511:2517   */\n      dup3\n        /* \"#utility.yul\":2500:2509   */\n      dup7\n        /* \"#utility.yul\":2496:2518   */\n      add\n        /* \"#utility.yul\":2476:2528   */\n      tag_106\n      jump\t// in\n    tag_176:\n        /* \"#utility.yul\":2466:2528   */\n      swap2\n      pop\n        /* \"#utility.yul\":2421:2538   */\n      pop\n        /* \"#utility.yul\":2073:2545   */\n      swap3\n      pop\n      swap3\n      swap1\n      pop\n      jump\t// out\n        /* \"#utility.yul\":2551:2628   */\n    tag_107:\n        /* \"#utility.yul\":2588:2595   */\n      0x00\n        /* \"#utility.yul\":2617:2622   */\n      dup2\n        /* \"#utility.yul\":2606:2622   */\n      swap1\n      pop\n        /* \"#utility.yul\":2551:2628   */\n      swap2\n      swap1\n      pop\n      jump\t// out\n        /* \"#utility.yul\":2634:2742   */\n    tag_108:\n        /* \"#utility.yul\":2711:2735   */\n      tag_179\n        /* \"#utility.yul\":2729:2734   */\n      dup2\n        /* \"#utility.yul\":2711:2735   */\n      tag_107\n      jump\t// in\n    tag_179:\n        /* \"#utility.yul\":2706:2709   */\n      dup3\n        /* \"#utility.yul\":2699:2736   */\n      mstore\n        /* \"#utility.yul\":2634:2742   */\n      pop\n      pop\n      jump\t// out\n        /* \"#utility.yul\":2748:2846   */\n    tag_109:\n        /* \"#utility.yul\":2799:2805   */\n      0x00\n        /* \"#utility.yul\":2833:2838   */\n      dup2\n        /* \"#utility.yul\":2827:2839   */\n      mload\n        /* \"#utility.yul\":2817:2839   */\n      swap1\n      pop\n        /* \"#utility.yul\":2748:2846   */\n      swap2\n      swap1\n      pop\n      jump\t// out\n        /* \"#utility.yul\":2852:3010   */\n    tag_110:\n        /* \"#utility.yul\":2925:2936   */\n      0x00\n        /* \"#utility.yul\":2959:2965   */\n      dup3\n        /* \"#utility.yul\":2954:2957   */\n      dup3\n        /* \"#utility.yul\":2947:2966   */\n      mstore\n        /* \"#utility.yul\":2999:3003   */\n      0x20\n        /* \"#utility.yul\":2994:2997   */\n      dup3\n        /* \"#utility.yul\":2990:3004   */\n      add\n        /* \"#utility.yul\":2975:3004   */\n      swap1\n      pop\n        /* \"#utility.yul\":2852:3010   */\n      swap3\n      swap2\n      pop\n      pop\n      jump\t// out\n        /* \"#utility.yul\":3016:3323   */\n    tag_111:\n        /* \"#utility.yul\":3084:3085   */\n      0x00\n        /* \"#utility.yul\":3094:3207   */\n    tag_183:\n        /* \"#utility.yul\":3108:3114   */\n      dup4\n        /* \"#utility.yul\":3105:3106   */\n      dup2\n        /* \"#utility.yul\":3102:3115   */\n      lt\n        /* \"#utility.yul\":3094:3207   */\n      iszero\n      tag_185\n      jumpi\n        /* \"#utility.yul\":3193:3194   */\n      dup1\n        /* \"#utility.yul\":3188:3191   */\n      dup3\n        /* \"#utility.yul\":3184:3195   */\n      add\n        /* \"#utility.yul\":3178:3196   */\n      mload\n        /* \"#utility.yul\":3174:3175   */\n      dup2\n        /* \"#utility.yul\":3169:3172   */\n      dup5\n        /* \"#utility.yul\":3165:3176   */\n      add\n        /* \"#utility.yul\":3158:3197   */\n      mstore\n        /* \"#utility.yul\":3130:3132   */\n      0x20\n        /* \"#utility.yul\":3127:3128   */\n      dup2\n        /* \"#utility.yul\":3123:3133   */\n      add\n        /* \"#utility.yul\":3118:3133   */\n      swap1\n      pop\n        /* \"#utility.yul\":3094:3207   */\n      jump(tag_183)\n    tag_185:\n        /* \"#utility.yul\":3225:3231   */\n      dup4\n        /* \"#utility.yul\":3222:3223   */\n      dup2\n        /* \"#utility.yul\":3219:3232   */\n      gt\n        /* \"#utility.yul\":3216:3317   */\n      iszero\n      tag_186\n      jumpi\n        /* \"#utility.yul\":3305:3306   */\n      0x00\n        /* \"#utility.yul\":3296:3302   */\n      dup5\n        /* \"#utility.yul\":3291:3294   */\n      dup5\n        /* \"#utility.yul\":3287:3303   */\n      add\n        /* \"#utility.yul\":3280:3307   */\n      mstore\n        /* \"#utility.yul\":3216:3317   */\n    tag_186:\n        /* \"#utility.yul\":3065:3323   */\n      pop\n        /* \"#utility.yul\":3016:3323   */\n      pop\n      pop\n      pop\n      jump\t// out\n        /* \"#utility.yul\":3329:3431   */\n    tag_112:\n        /* \"#utility.yul\":3370:3376   */\n      0x00\n        /* \"#utility.yul\":3421:3423   */\n      0x1f\n        /* \"#utility.yul\":3417:3424   */\n      not\n        /* \"#utility.yul\":3412:3414   */\n      0x1f\n        /* \"#utility.yul\":3405:3410   */\n      dup4\n        /* \"#utility.yul\":3401:3415   */\n      add\n        /* \"#utility.yul\":3397:3425   */\n      and\n        /* \"#utility.yul\":3387:3425   */\n      swap1\n      pop\n        /* \"#utility.yul\":3329:3431   */\n      swap2\n      swap1\n      pop\n      jump\t// out\n        /* \"#utility.yul\":3437:3777   */\n    tag_113:\n        /* \"#utility.yul\":3513:3516   */\n      0x00\n        /* \"#utility.yul\":3541:3579   */\n      tag_189\n        /* \"#utility.yul\":3573:3578   */\n      dup3\n        /* \"#utility.yul\":3541:3579   */\n      tag_109\n      jump\t// in\n    tag_189:\n        /* \"#utility.yul\":3595:3655   */\n      tag_190\n        /* \"#utility.yul\":3648:3654   */\n      dup2\n        /* \"#utility.yul\":3643:3646   */\n      dup6\n        /* \"#utility.yul\":3595:3655   */\n      tag_110\n      jump\t// in\n    tag_190:\n        /* \"#utility.yul\":3588:3655   */\n      swap4\n      pop\n        /* \"#utility.yul\":3664:3716   */\n      tag_191\n        /* \"#utility.yul\":3709:3715   */\n      dup2\n        /* \"#utility.yul\":3704:3707   */\n      dup6\n        /* \"#utility.yul\":3697:3701   */\n      0x20\n        /* \"#utility.yul\":3690:3695   */\n      dup7\n        /* \"#utility.yul\":3686:3702   */\n      add\n        /* \"#utility.yul\":3664:3716   */\n      tag_111\n      jump\t// in\n    tag_191:\n        /* \"#utility.yul\":3741:3770   */\n      tag_192\n        /* \"#utility.yul\":3763:3769   */\n      dup2\n        /* \"#utility.yul\":3741:3770   */\n      tag_112\n      jump\t// in\n    tag_192:\n        /* \"#utility.yul\":3736:3739   */\n      dup5\n        /* \"#utility.yul\":3732:3771   */\n      add\n        /* \"#utility.yul\":3725:3771   */\n      swap2\n      pop\n        /* \"#utility.yul\":3517:3777   */\n      pop\n        /* \"#utility.yul\":3437:3777   */\n      swap3\n      swap2\n      pop\n      pop\n      jump\t// out\n        /* \"#utility.yul\":3783:3909   */\n    tag_114:\n        /* \"#utility.yul\":3820:3827   */\n      0x00\n        /* \"#utility.yul\":3860:3902   */\n      0xffffffffffffffffffffffffffffffffffffffff\n        /* \"#utility.yul\":3853:3858   */\n      dup3\n        /* \"#utility.yul\":3849:3903   */\n      and\n        /* \"#utility.yul\":3838:3903   */\n      swap1\n      pop\n        /* \"#utility.yul\":3783:3909   */\n      swap2\n      swap1\n      pop\n      jump\t// out\n        /* \"#utility.yul\":3915:4011   */\n    tag_115:\n        /* \"#utility.yul\":3952:3959   */\n      0x00\n        /* \"#utility.yul\":3981:4005   */\n      tag_195\n        /* \"#utility.yul\":3999:4004   */\n      dup3\n        /* \"#utility.yul\":3981:4005   */\n      tag_114\n      jump\t// in\n    tag_195:\n        /* \"#utility.yul\":3970:4005   */\n      swap1\n      pop\n        /* \"#utility.yul\":3915:4011   */\n      swap2\n      swap1\n      pop\n      jump\t// out\n        /* \"#utility.yul\":4017:4125   */\n    tag_116:\n        /* \"#utility.yul\":4094:4118   */\n      tag_197\n        /* \"#utility.yul\":4112:4117   */\n      dup2\n        /* \"#utility.yul\":4094:4118   */\n      tag_115\n      jump\t// in\n    tag_197:\n        /* \"#utility.yul\":4089:4092   */\n      dup3\n        /* \"#utility.yul\":4082:4119   */\n      mstore\n        /* \"#utility.yul\":4017:4125   */\n      pop\n      pop\n      jump\t// out\n        /* \"#utility.yul\":4131:4239   */\n    tag_117:\n        /* \"#utility.yul\":4208:4232   */\n      tag_199\n        /* \"#utility.yul\":4226:4231   */\n      dup2\n        /* \"#utility.yul\":4208:4232   */\n      tag_99\n      jump\t// in\n    tag_199:\n        /* \"#utility.yul\":4203:4206   */\n      dup3\n        /* \"#utility.yul\":4196:4233   */\n      mstore\n        /* \"#utility.yul\":4131:4239   */\n      pop\n      pop\n      jump\t// out\n        /* \"#utility.yul\":4245:4350   */\n    tag_118:\n        /* \"#utility.yul\":4320:4343   */\n      tag_201\n        /* \"#utility.yul\":4337:4342   */\n      dup2\n        /* \"#utility.yul\":4320:4343   */\n      tag_102\n      jump\t// in\n    tag_201:\n        /* \"#utility.yul\":4315:4318   */\n      dup3\n        /* \"#utility.yul\":4308:4344   */\n      mstore\n        /* \"#utility.yul\":4245:4350   */\n      pop\n      pop\n      jump\t// out\n        /* \"#utility.yul\":4356:4536   */\n    tag_47:\n        /* \"#utility.yul\":4404:4481   */\n      0x4e487b7100000000000000000000000000000000000000000000000000000000\n        /* \"#utility.yul\":4401:4402   */\n      0x00\n        /* \"#utility.yul\":4394:4482   */\n      mstore\n        /* \"#utility.yul\":4501:4505   */\n      0x21\n        /* \"#utility.yul\":4498:4499   */\n      0x04\n        /* \"#utility.yul\":4491:4506   */\n      mstore\n        /* \"#utility.yul\":4525:4529   */\n      0x24\n        /* \"#utility.yul\":4522:4523   */\n      0x00\n        /* \"#utility.yul\":4515:4530   */\n      revert\n        /* \"#utility.yul\":4542:4655   */\n    tag_119:\n        /* \"#utility.yul\":4623:4624   */\n      0x03\n        /* \"#utility.yul\":4616:4621   */\n      dup2\n        /* \"#utility.yul\":4613:4625   */\n      lt\n        /* \"#utility.yul\":4603:4649   */\n      tag_204\n      jumpi\n        /* \"#utility.yul\":4629:4647   */\n      tag_205\n      tag_47\n      jump\t// in\n    tag_205:\n        /* \"#utility.yul\":4603:4649   */\n    tag_204:\n        /* \"#utility.yul\":4542:4655   */\n      pop\n      jump\t// out\n        /* \"#utility.yul\":4661:4788   */\n    tag_120:\n        /* \"#utility.yul\":4706:4713   */\n      0x00\n        /* \"#utility.yul\":4735:4740   */\n      dup2\n        /* \"#utility.yul\":4724:4740   */\n      swap1\n      pop\n        /* \"#utility.yul\":4741:4782   */\n      tag_207\n        /* \"#utility.yul\":4776:4781   */\n      dup3\n        /* \"#utility.yul\":4741:4782   */\n      tag_119\n      jump\t// in\n    tag_207:\n        /* \"#utility.yul\":4661:4788   */\n      swap2\n      swap1\n      pop\n      jump\t// out\n        /* \"#utility.yul\":4794:4921   */\n    tag_121:\n        /* \"#utility.yul\":4850:4859   */\n      0x00\n        /* \"#utility.yul\":4883:4915   */\n      tag_209\n        /* \"#utility.yul\":4909:4914   */\n      dup3\n        /* \"#utility.yul\":4883:4915   */\n      tag_120\n      jump\t// in\n    tag_209:\n        /* \"#utility.yul\":4870:4915   */\n      swap1\n      pop\n        /* \"#utility.yul\":4794:4921   */\n      swap2\n      swap1\n      pop\n      jump\t// out\n        /* \"#utility.yul\":4927:5060   */\n    tag_122:\n        /* \"#utility.yul\":5010:5053   */\n      tag_211\n        /* \"#utility.yul\":5047:5052   */\n      dup2\n        /* \"#utility.yul\":5010:5053   */\n      tag_121\n      jump\t// in\n    tag_211:\n        /* \"#utility.yul\":5005:5008   */\n      dup3\n        /* \"#utility.yul\":4998:5054   */\n      mstore\n        /* \"#utility.yul\":4927:5060   */\n      pop\n      pop\n      jump\t// out\n        /* \"#utility.yul\":5148:7043   */\n    tag_123:\n        /* \"#utility.yul\":5267:5270   */\n      0x00\n        /* \"#utility.yul\":5303:5309   */\n      0x0120\n        /* \"#utility.yul\":5298:5301   */\n      dup4\n        /* \"#utility.yul\":5294:5310   */\n      add\n        /* \"#utility.yul\":5398:5402   */\n      0x00\n        /* \"#utility.yul\":5391:5396   */\n      dup4\n        /* \"#utility.yul\":5387:5403   */\n      add\n        /* \"#utility.yul\":5381:5404   */\n      mload\n        /* \"#utility.yul\":5417:5480   */\n      tag_213\n        /* \"#utility.yul\":5474:5478   */\n      0x00\n        /* \"#utility.yul\":5469:5472   */\n      dup7\n        /* \"#utility.yul\":5465:5479   */\n      add\n        /* \"#utility.yul\":5451:5463   */\n      dup3\n        /* \"#utility.yul\":5417:5480   */\n      tag_108\n      jump\t// in\n    tag_213:\n        /* \"#utility.yul\":5320:5490   */\n      pop\n        /* \"#utility.yul\":5581:5585   */\n      0x20\n        /* \"#utility.yul\":5574:5579   */\n      dup4\n        /* \"#utility.yul\":5570:5586   */\n      add\n        /* \"#utility.yul\":5564:5587   */\n      mload\n        /* \"#utility.yul\":5634:5637   */\n      dup5\n        /* \"#utility.yul\":5628:5632   */\n      dup3\n        /* \"#utility.yul\":5624:5638   */\n      sub\n        /* \"#utility.yul\":5617:5621   */\n      0x20\n        /* \"#utility.yul\":5612:5615   */\n      dup7\n        /* \"#utility.yul\":5608:5622   */\n      add\n        /* \"#utility.yul\":5601:5639   */\n      mstore\n        /* \"#utility.yul\":5660:5731   */\n      tag_214\n        /* \"#utility.yul\":5726:5730   */\n      dup3\n        /* \"#utility.yul\":5712:5724   */\n      dup3\n        /* \"#utility.yul\":5660:5731   */\n      tag_113\n      jump\t// in\n    tag_214:\n        /* \"#utility.yul\":5652:5731   */\n      swap2\n      pop\n        /* \"#utility.yul\":5500:5742   */\n      pop\n        /* \"#utility.yul\":5839:5843   */\n      0x40\n        /* \"#utility.yul\":5832:5837   */\n      dup4\n        /* \"#utility.yul\":5828:5844   */\n      add\n        /* \"#utility.yul\":5822:5845   */\n      mload\n        /* \"#utility.yul\":5858:5921   */\n      tag_215\n        /* \"#utility.yul\":5915:5919   */\n      0x40\n        /* \"#utility.yul\":5910:5913   */\n      dup7\n        /* \"#utility.yul\":5906:5920   */\n      add\n        /* \"#utility.yul\":5892:5904   */\n      dup3\n        /* \"#utility.yul\":5858:5921   */\n      tag_116\n      jump\t// in\n    tag_215:\n        /* \"#utility.yul\":5752:5931   */\n      pop\n        /* \"#utility.yul\":6015:6019   */\n      0x60\n        /* \"#utility.yul\":6008:6013   */\n      dup4\n        /* \"#utility.yul\":6004:6020   */\n      add\n        /* \"#utility.yul\":5998:6021   */\n      mload\n        /* \"#utility.yul\":6034:6097   */\n      tag_216\n        /* \"#utility.yul\":6091:6095   */\n      0x60\n        /* \"#utility.yul\":6086:6089   */\n      dup7\n        /* \"#utility.yul\":6082:6096   */\n      add\n        /* \"#utility.yul\":6068:6080   */\n      dup3\n        /* \"#utility.yul\":6034:6097   */\n      tag_117\n      jump\t// in\n    tag_216:\n        /* \"#utility.yul\":5941:6107   */\n      pop\n        /* \"#utility.yul\":6197:6201   */\n      0x80\n        /* \"#utility.yul\":6190:6195   */\n      dup4\n        /* \"#utility.yul\":6186:6202   */\n      add\n        /* \"#utility.yul\":6180:6203   */\n      mload\n        /* \"#utility.yul\":6216:6279   */\n      tag_217\n        /* \"#utility.yul\":6273:6277   */\n      0x80\n        /* \"#utility.yul\":6268:6271   */\n      dup7\n        /* \"#utility.yul\":6264:6278   */\n      add\n        /* \"#utility.yul\":6250:6262   */\n      dup3\n        /* \"#utility.yul\":6216:6279   */\n      tag_117\n      jump\t// in\n    tag_217:\n        /* \"#utility.yul\":6117:6289   */\n      pop\n        /* \"#utility.yul\":6378:6382   */\n      0xa0\n        /* \"#utility.yul\":6371:6376   */\n      dup4\n        /* \"#utility.yul\":6367:6383   */\n      add\n        /* \"#utility.yul\":6361:6384   */\n      mload\n        /* \"#utility.yul\":6397:6460   */\n      tag_218\n        /* \"#utility.yul\":6454:6458   */\n      0xa0\n        /* \"#utility.yul\":6449:6452   */\n      dup7\n        /* \"#utility.yul\":6445:6459   */\n      add\n        /* \"#utility.yul\":6431:6443   */\n      dup3\n        /* \"#utility.yul\":6397:6460   */\n      tag_117\n      jump\t// in\n    tag_218:\n        /* \"#utility.yul\":6299:6470   */\n      pop\n        /* \"#utility.yul\":6557:6561   */\n      0xc0\n        /* \"#utility.yul\":6550:6555   */\n      dup4\n        /* \"#utility.yul\":6546:6562   */\n      add\n        /* \"#utility.yul\":6540:6563   */\n      mload\n        /* \"#utility.yul\":6576:6639   */\n      tag_219\n        /* \"#utility.yul\":6633:6637   */\n      0xc0\n        /* \"#utility.yul\":6628:6631   */\n      dup7\n        /* \"#utility.yul\":6624:6638   */\n      add\n        /* \"#utility.yul\":6610:6622   */\n      dup3\n        /* \"#utility.yul\":6576:6639   */\n      tag_116\n      jump\t// in\n    tag_219:\n        /* \"#utility.yul\":6480:6649   */\n      pop\n        /* \"#utility.yul\":6733:6737   */\n      0xe0\n        /* \"#utility.yul\":6726:6731   */\n      dup4\n        /* \"#utility.yul\":6722:6738   */\n      add\n        /* \"#utility.yul\":6716:6739   */\n      mload\n        /* \"#utility.yul\":6752:6813   */\n      tag_220\n        /* \"#utility.yul\":6807:6811   */\n      0xe0\n        /* \"#utility.yul\":6802:6805   */\n      dup7\n        /* \"#utility.yul\":6798:6812   */\n      add\n        /* \"#utility.yul\":6784:6796   */\n      dup3\n        /* \"#utility.yul\":6752:6813   */\n      tag_118\n      jump\t// in\n    tag_220:\n        /* \"#utility.yul\":6659:6823   */\n      pop\n        /* \"#utility.yul\":6914:6920   */\n      0x0100\n        /* \"#utility.yul\":6907:6912   */\n      dup4\n        /* \"#utility.yul\":6903:6921   */\n      add\n        /* \"#utility.yul\":6897:6922   */\n      mload\n        /* \"#utility.yul\":6935:7006   */\n      tag_221\n        /* \"#utility.yul\":6998:7004   */\n      0x0100\n        /* \"#utility.yul\":6993:6996   */\n      dup7\n        /* \"#utility.yul\":6989:7005   */\n      add\n        /* \"#utility.yul\":6975:6987   */\n      dup3\n        /* \"#utility.yul\":6935:7006   */\n      tag_122\n      jump\t// in\n    tag_221:\n        /* \"#utility.yul\":6833:7016   */\n      pop\n        /* \"#utility.yul\":7033:7037   */\n      dup1\n        /* \"#utility.yul\":7026:7037   */\n      swap2\n      pop\n        /* \"#utility.yul\":5272:7043   */\n      pop\n        /* \"#utility.yul\":5148:7043   */\n      swap3\n      swap2\n      pop\n      pop\n      jump\t// out\n        /* \"#utility.yul\":7049:7422   */\n    tag_29:\n        /* \"#utility.yul\":7192:7196   */\n      0x00\n        /* \"#utility.yul\":7230:7232   */\n      0x20\n        /* \"#utility.yul\":7219:7228   */\n      dup3\n        /* \"#utility.yul\":7215:7233   */\n      add\n        /* \"#utility.yul\":7207:7233   */\n      swap1\n      pop\n        /* \"#utility.yul\":7279:7288   */\n      dup2\n        /* \"#utility.yul\":7273:7277   */\n      dup2\n        /* \"#utility.yul\":7269:7289   */\n      sub\n        /* \"#utility.yul\":7265:7266   */\n      0x00\n        /* \"#utility.yul\":7254:7263   */\n      dup4\n        /* \"#utility.yul\":7250:7267   */\n      add\n        /* \"#utility.yul\":7243:7290   */\n      mstore\n        /* \"#utility.yul\":7307:7415   */\n      tag_223\n        /* \"#utility.yul\":7410:7414   */\n      dup2\n        /* \"#utility.yul\":7401:7407   */\n      dup5\n        /* \"#utility.yul\":7307:7415   */\n      tag_123\n      jump\t// in\n    tag_223:\n        /* \"#utility.yul\":7299:7415   */\n      swap1\n      pop\n        /* \"#utility.yul\":7049:7422   */\n      swap3\n      swap2\n      pop\n      pop\n      jump\t// out\n        /* \"#utility.yul\":7428:7546   */\n    tag_124:\n        /* \"#utility.yul\":7515:7539   */\n      tag_225\n        /* \"#utility.yul\":7533:7538   */\n      dup2\n        /* \"#utility.yul\":7515:7539   */\n      tag_107\n      jump\t// in\n    tag_225:\n        /* \"#utility.yul\":7510:7513   */\n      dup3\n        /* \"#utility.yul\":7503:7540   */\n      mstore\n        /* \"#utility.yul\":7428:7546   */\n      pop\n      pop\n      jump\t// out\n        /* \"#utility.yul\":7552:7720   */\n    tag_125:\n        /* \"#utility.yul\":7635:7646   */\n      0x00\n        /* \"#utility.yul\":7669:7675   */\n      dup3\n        /* \"#utility.yul\":7664:7667   */\n      dup3\n        /* \"#utility.yul\":7657:7676   */\n      mstore\n        /* \"#utility.yul\":7709:7713   */\n      0x20\n        /* \"#utility.yul\":7704:7707   */\n      dup3\n        /* \"#utility.yul\":7700:7714   */\n      add\n        /* \"#utility.yul\":7685:7714   */\n      swap1\n      pop\n        /* \"#utility.yul\":7552:7720   */\n      swap3\n      swap2\n      pop\n      pop\n      jump\t// out\n        /* \"#utility.yul\":7726:8086   */\n    tag_126:\n        /* \"#utility.yul\":7812:7815   */\n      0x00\n        /* \"#utility.yul\":7840:7878   */\n      tag_228\n        /* \"#utility.yul\":7872:7877   */\n      dup3\n        /* \"#utility.yul\":7840:7878   */\n      tag_109\n      jump\t// in\n    tag_228:\n        /* \"#utility.yul\":7894:7964   */\n      tag_229\n        /* \"#utility.yul\":7957:7963   */\n      dup2\n        /* \"#utility.yul\":7952:7955   */\n      dup6\n        /* \"#utility.yul\":7894:7964   */\n      tag_125\n      jump\t// in\n    tag_229:\n        /* \"#utility.yul\":7887:7964   */\n      swap4\n      pop\n        /* \"#utility.yul\":7973:8025   */\n      tag_230\n        /* \"#utility.yul\":8018:8024   */\n      dup2\n        /* \"#utility.yul\":8013:8016   */\n      dup6\n        /* \"#utility.yul\":8006:8010   */\n      0x20\n        /* \"#utility.yul\":7999:8004   */\n      dup7\n        /* \"#utility.yul\":7995:8011   */\n      add\n        /* \"#utility.yul\":7973:8025   */\n      tag_111\n      jump\t// in\n    tag_230:\n        /* \"#utility.yul\":8050:8079   */\n      tag_231\n        /* \"#utility.yul\":8072:8078   */\n      dup2\n        /* \"#utility.yul\":8050:8079   */\n      tag_112\n      jump\t// in\n    tag_231:\n        /* \"#utility.yul\":8045:8048   */\n      dup5\n        /* \"#utility.yul\":8041:8080   */\n      add\n        /* \"#utility.yul\":8034:8080   */\n      swap2\n      pop\n        /* \"#utility.yul\":7816:8086   */\n      pop\n        /* \"#utility.yul\":7726:8086   */\n      swap3\n      swap2\n      pop\n      pop\n      jump\t// out\n        /* \"#utility.yul\":8092:8210   */\n    tag_127:\n        /* \"#utility.yul\":8179:8203   */\n      tag_233\n        /* \"#utility.yul\":8197:8202   */\n      dup2\n        /* \"#utility.yul\":8179:8203   */\n      tag_115\n      jump\t// in\n    tag_233:\n        /* \"#utility.yul\":8174:8177   */\n      dup3\n        /* \"#utility.yul\":8167:8204   */\n      mstore\n        /* \"#utility.yul\":8092:8210   */\n      pop\n      pop\n      jump\t// out\n        /* \"#utility.yul\":8216:8359   */\n    tag_128:\n        /* \"#utility.yul\":8309:8352   */\n      tag_235\n        /* \"#utility.yul\":8346:8351   */\n      dup2\n        /* \"#utility.yul\":8309:8352   */\n      tag_121\n      jump\t// in\n    tag_235:\n        /* \"#utility.yul\":8304:8307   */\n      dup3\n        /* \"#utility.yul\":8297:8353   */\n      mstore\n        /* \"#utility.yul\":8216:8359   */\n      pop\n      pop\n      jump\t// out\n        /* \"#utility.yul\":8365:9568   */\n    tag_37:\n        /* \"#utility.yul\":8704:8708   */\n      0x00\n        /* \"#utility.yul\":8742:8745   */\n      0x0120\n        /* \"#utility.yul\":8731:8740   */\n      dup3\n        /* \"#utility.yul\":8727:8746   */\n      add\n        /* \"#utility.yul\":8719:8746   */\n      swap1\n      pop\n        /* \"#utility.yul\":8756:8827   */\n      tag_237\n        /* \"#utility.yul\":8824:8825   */\n      0x00\n        /* \"#utility.yul\":8813:8822   */\n      dup4\n        /* \"#utility.yul\":8809:8826   */\n      add\n        /* \"#utility.yul\":8800:8806   */\n      dup13\n        /* \"#utility.yul\":8756:8827   */\n      tag_124\n      jump\t// in\n    tag_237:\n        /* \"#utility.yul\":8874:8883   */\n      dup2\n        /* \"#utility.yul\":8868:8872   */\n      dup2\n        /* \"#utility.yul\":8864:8884   */\n      sub\n        /* \"#utility.yul\":8859:8861   */\n      0x20\n        /* \"#utility.yul\":8848:8857   */\n      dup4\n        /* \"#utility.yul\":8844:8862   */\n      add\n        /* \"#utility.yul\":8837:8885   */\n      mstore\n        /* \"#utility.yul\":8902:8978   */\n      tag_238\n        /* \"#utility.yul\":8973:8977   */\n      dup2\n        /* \"#utility.yul\":8964:8970   */\n      dup12\n        /* \"#utility.yul\":8902:8978   */\n      tag_126\n      jump\t// in\n    tag_238:\n        /* \"#utility.yul\":8894:8978   */\n      swap1\n      pop\n        /* \"#utility.yul\":8988:9060   */\n      tag_239\n        /* \"#utility.yul\":9056:9058   */\n      0x40\n        /* \"#utility.yul\":9045:9054   */\n      dup4\n        /* \"#utility.yul\":9041:9059   */\n      add\n        /* \"#utility.yul\":9032:9038   */\n      dup11\n        /* \"#utility.yul\":8988:9060   */\n      tag_127\n      jump\t// in\n    tag_239:\n        /* \"#utility.yul\":9070:9142   */\n      tag_240\n        /* \"#utility.yul\":9138:9140   */\n      0x60\n        /* \"#utility.yul\":9127:9136   */\n      dup4\n        /* \"#utility.yul\":9123:9141   */\n      add\n        /* \"#utility.yul\":9114:9120   */\n      dup10\n        /* \"#utility.yul\":9070:9142   */\n      tag_104\n      jump\t// in\n    tag_240:\n        /* \"#utility.yul\":9152:9225   */\n      tag_241\n        /* \"#utility.yul\":9220:9223   */\n      0x80\n        /* \"#utility.yul\":9209:9218   */\n      dup4\n        /* \"#utility.yul\":9205:9224   */\n      add\n        /* \"#utility.yul\":9196:9202   */\n      dup9\n        /* \"#utility.yul\":9152:9225   */\n      tag_104\n      jump\t// in\n    tag_241:\n        /* \"#utility.yul\":9235:9308   */\n      tag_242\n        /* \"#utility.yul\":9303:9306   */\n      0xa0\n        /* \"#utility.yul\":9292:9301   */\n      dup4\n        /* \"#utility.yul\":9288:9307   */\n      add\n        /* \"#utility.yul\":9279:9285   */\n      dup8\n        /* \"#utility.yul\":9235:9308   */\n      tag_104\n      jump\t// in\n    tag_242:\n        /* \"#utility.yul\":9318:9391   */\n      tag_243\n        /* \"#utility.yul\":9386:9389   */\n      0xc0\n        /* \"#utility.yul\":9375:9384   */\n      dup4\n        /* \"#utility.yul\":9371:9390   */\n      add\n        /* \"#utility.yul\":9362:9368   */\n      dup7\n        /* \"#utility.yul\":9318:9391   */\n      tag_127\n      jump\t// in\n    tag_243:\n        /* \"#utility.yul\":9401:9472   */\n      tag_244\n        /* \"#utility.yul\":9467:9470   */\n      0xe0\n        /* \"#utility.yul\":9456:9465   */\n      dup4\n        /* \"#utility.yul\":9452:9471   */\n      add\n        /* \"#utility.yul\":9443:9449   */\n      dup6\n        /* \"#utility.yul\":9401:9472   */\n      tag_103\n      jump\t// in\n    tag_244:\n        /* \"#utility.yul\":9482:9561   */\n      tag_245\n        /* \"#utility.yul\":9556:9559   */\n      0x0100\n        /* \"#utility.yul\":9545:9554   */\n      dup4\n        /* \"#utility.yul\":9541:9560   */\n      add\n        /* \"#utility.yul\":9532:9538   */\n      dup5\n        /* \"#utility.yul\":9482:9561   */\n      tag_128\n      jump\t// in\n    tag_245:\n        /* \"#utility.yul\":8365:9568   */\n      swap11\n      swap10\n      pop\n      pop\n      pop\n      pop\n      pop\n      pop\n      pop\n      pop\n      pop\n      pop\n      jump\t// out\n        /* \"#utility.yul\":9574:9696   */\n    tag_129:\n        /* \"#utility.yul\":9647:9671   */\n      tag_247\n        /* \"#utility.yul\":9665:9670   */\n      dup2\n        /* \"#utility.yul\":9647:9671   */\n      tag_107\n      jump\t// in\n    tag_247:\n        /* \"#utility.yul\":9640:9645   */\n      dup2\n        /* \"#utility.yul\":9637:9672   */\n      eq\n        /* \"#utility.yul\":9627:9690   */\n      tag_248\n      jumpi\n        /* \"#utility.yul\":9686:9687   */\n      0x00\n        /* \"#utility.yul\":9683:9684   */\n      dup1\n        /* \"#utility.yul\":9676:9688   */\n      revert\n        /* \"#utility.yul\":9627:9690   */\n    tag_248:\n        /* \"#utility.yul\":9574:9696   */\n      pop\n      jump\t// out\n        /* \"#utility.yul\":9702:9841   */\n    tag_130:\n        /* \"#utility.yul\":9748:9753   */\n      0x00\n        /* \"#utility.yul\":9786:9792   */\n      dup2\n        /* \"#utility.yul\":9773:9793   */\n      calldataload\n        /* \"#utility.yul\":9764:9793   */\n      swap1\n      pop\n        /* \"#utility.yul\":9802:9835   */\n      tag_250\n        /* \"#utility.yul\":9829:9834   */\n      dup2\n        /* \"#utility.yul\":9802:9835   */\n      tag_129\n      jump\t// in\n    tag_250:\n        /* \"#utility.yul\":9702:9841   */\n      swap3\n      swap2\n      pop\n      pop\n      jump\t// out\n        /* \"#utility.yul\":9847:9964   */\n    tag_131:\n        /* \"#utility.yul\":9956:9957   */\n      0x00\n        /* \"#utility.yul\":9953:9954   */\n      dup1\n        /* \"#utility.yul\":9946:9958   */\n      revert\n        /* \"#utility.yul\":9970:10087   */\n    tag_132:\n        /* \"#utility.yul\":10079:10080   */\n      0x00\n        /* \"#utility.yul\":10076:10077   */\n      dup1\n        /* \"#utility.yul\":10069:10081   */\n      revert\n        /* \"#utility.yul\":10093:10273   */\n    tag_133:\n        /* \"#utility.yul\":10141:10218   */\n      0x4e487b7100000000000000000000000000000000000000000000000000000000\n        /* \"#utility.yul\":10138:10139   */\n      0x00\n        /* \"#utility.yul\":10131:10219   */\n      mstore\n        /* \"#utility.yul\":10238:10242   */\n      0x41\n        /* \"#utility.yul\":10235:10236   */\n      0x04\n        /* \"#utility.yul\":10228:10243   */\n      mstore\n        /* \"#utility.yul\":10262:10266   */\n      0x24\n        /* \"#utility.yul\":10259:10260   */\n      0x00\n        /* \"#utility.yul\":10252:10267   */\n      revert\n        /* \"#utility.yul\":10279:10560   */\n    tag_134:\n        /* \"#utility.yul\":10362:10389   */\n      tag_255\n        /* \"#utility.yul\":10384:10388   */\n      dup3\n        /* \"#utility.yul\":10362:10389   */\n      tag_112\n      jump\t// in\n    tag_255:\n        /* \"#utility.yul\":10354:10360   */\n      dup2\n        /* \"#utility.yul\":10350:10390   */\n      add\n        /* \"#utility.yul\":10492:10498   */\n      dup2\n        /* \"#utility.yul\":10480:10490   */\n      dup2\n        /* \"#utility.yul\":10477:10499   */\n      lt\n        /* \"#utility.yul\":10456:10474   */\n      0xffffffffffffffff\n        /* \"#utility.yul\":10444:10454   */\n      dup3\n        /* \"#utility.yul\":10441:10475   */\n      gt\n        /* \"#utility.yul\":10438:10500   */\n      or\n        /* \"#utility.yul\":10435:10523   */\n      iszero\n      tag_256\n      jumpi\n        /* \"#utility.yul\":10503:10521   */\n      tag_257\n      tag_133\n      jump\t// in\n    tag_257:\n        /* \"#utility.yul\":10435:10523   */\n    tag_256:\n        /* \"#utility.yul\":10543:10553   */\n      dup1\n        /* \"#utility.yul\":10539:10541   */\n      0x40\n        /* \"#utility.yul\":10532:10554   */\n      mstore\n        /* \"#utility.yul\":10322:10560   */\n      pop\n        /* \"#utility.yul\":10279:10560   */\n      pop\n      pop\n      jump\t// out\n        /* \"#utility.yul\":10566:10695   */\n    tag_135:\n        /* \"#utility.yul\":10600:10606   */\n      0x00\n        /* \"#utility.yul\":10627:10647   */\n      tag_259\n      tag_96\n      jump\t// in\n    tag_259:\n        /* \"#utility.yul\":10617:10647   */\n      swap1\n      pop\n        /* \"#utility.yul\":10656:10689   */\n      tag_260\n        /* \"#utility.yul\":10684:10688   */\n      dup3\n        /* \"#utility.yul\":10676:10682   */\n      dup3\n        /* \"#utility.yul\":10656:10689   */\n      tag_134\n      jump\t// in\n    tag_260:\n        /* \"#utility.yul\":10566:10695   */\n      swap2\n      swap1\n      pop\n      jump\t// out\n        /* \"#utility.yul\":10701:11008   */\n    tag_136:\n        /* \"#utility.yul\":10762:10766   */\n      0x00\n        /* \"#utility.yul\":10852:10870   */\n      0xffffffffffffffff\n        /* \"#utility.yul\":10844:10850   */\n      dup3\n        /* \"#utility.yul\":10841:10871   */\n      gt\n        /* \"#utility.yul\":10838:10894   */\n      iszero\n      tag_262\n      jumpi\n        /* \"#utility.yul\":10874:10892   */\n      tag_263\n      tag_133\n      jump\t// in\n    tag_263:\n        /* \"#utility.yul\":10838:10894   */\n    tag_262:\n        /* \"#utility.yul\":10912:10941   */\n      tag_264\n        /* \"#utility.yul\":10934:10940   */\n      dup3\n        /* \"#utility.yul\":10912:10941   */\n      tag_112\n      jump\t// in\n    tag_264:\n        /* \"#utility.yul\":10904:10941   */\n      swap1\n      pop\n        /* \"#utility.yul\":10996:11000   */\n      0x20\n        /* \"#utility.yul\":10990:10994   */\n      dup2\n        /* \"#utility.yul\":10986:11001   */\n      add\n        /* \"#utility.yul\":10978:11001   */\n      swap1\n      pop\n        /* \"#utility.yul\":10701:11008   */\n      swap2\n      swap1\n      pop\n      jump\t// out\n        /* \"#utility.yul\":11014:11168   */\n    tag_137:\n        /* \"#utility.yul\":11098:11104   */\n      dup3\n        /* \"#utility.yul\":11093:11096   */\n      dup2\n        /* \"#utility.yul\":11088:11091   */\n      dup4\n        /* \"#utility.yul\":11075:11105   */\n      calldatacopy\n        /* \"#utility.yul\":11160:11161   */\n      0x00\n        /* \"#utility.yul\":11151:11157   */\n      dup4\n        /* \"#utility.yul\":11146:11149   */\n      dup4\n        /* \"#utility.yul\":11142:11158   */\n      add\n        /* \"#utility.yul\":11135:11162   */\n      mstore\n        /* \"#utility.yul\":11014:11168   */\n      pop\n      pop\n      pop\n      jump\t// out\n        /* \"#utility.yul\":11174:11584   */\n    tag_138:\n        /* \"#utility.yul\":11251:11256   */\n      0x00\n        /* \"#utility.yul\":11276:11341   */\n      tag_267\n        /* \"#utility.yul\":11292:11340   */\n      tag_268\n        /* \"#utility.yul\":11333:11339   */\n      dup5\n        /* \"#utility.yul\":11292:11340   */\n      tag_136\n      jump\t// in\n    tag_268:\n        /* \"#utility.yul\":11276:11341   */\n      tag_135\n      jump\t// in\n    tag_267:\n        /* \"#utility.yul\":11267:11341   */\n      swap1\n      pop\n        /* \"#utility.yul\":11364:11370   */\n      dup3\n        /* \"#utility.yul\":11357:11362   */\n      dup2\n        /* \"#utility.yul\":11350:11371   */\n      mstore\n        /* \"#utility.yul\":11402:11406   */\n      0x20\n        /* \"#utility.yul\":11395:11400   */\n      dup2\n        /* \"#utility.yul\":11391:11407   */\n      add\n        /* \"#utility.yul\":11440:11443   */\n      dup5\n        /* \"#utility.yul\":11431:11437   */\n      dup5\n        /* \"#utility.yul\":11426:11429   */\n      dup5\n        /* \"#utility.yul\":11422:11438   */\n      add\n        /* \"#utility.yul\":11419:11444   */\n      gt\n        /* \"#utility.yul\":11416:11528   */\n      iszero\n      tag_269\n      jumpi\n        /* \"#utility.yul\":11447:11526   */\n      tag_270\n      tag_132\n      jump\t// in\n    tag_270:\n        /* \"#utility.yul\":11416:11528   */\n    tag_269:\n        /* \"#utility.yul\":11537:11578   */\n      tag_271\n        /* \"#utility.yul\":11571:11577   */\n      dup5\n        /* \"#utility.yul\":11566:11569   */\n      dup3\n        /* \"#utility.yul\":11561:11564   */\n      dup6\n        /* \"#utility.yul\":11537:11578   */\n      tag_137\n      jump\t// in\n    tag_271:\n        /* \"#utility.yul\":11257:11584   */\n      pop\n        /* \"#utility.yul\":11174:11584   */\n      swap4\n      swap3\n      pop\n      pop\n      pop\n      jump\t// out\n        /* \"#utility.yul\":11603:11941   */\n    tag_139:\n        /* \"#utility.yul\":11658:11663   */\n      0x00\n        /* \"#utility.yul\":11707:11710   */\n      dup3\n        /* \"#utility.yul\":11700:11704   */\n      0x1f\n        /* \"#utility.yul\":11692:11698   */\n      dup4\n        /* \"#utility.yul\":11688:11705   */\n      add\n        /* \"#utility.yul\":11684:11711   */\n      slt\n        /* \"#utility.yul\":11674:11796   */\n      tag_273\n      jumpi\n        /* \"#utility.yul\":11715:11794   */\n      tag_274\n      tag_131\n      jump\t// in\n    tag_274:\n        /* \"#utility.yul\":11674:11796   */\n    tag_273:\n        /* \"#utility.yul\":11832:11838   */\n      dup2\n        /* \"#utility.yul\":11819:11839   */\n      calldataload\n        /* \"#utility.yul\":11857:11935   */\n      tag_275\n        /* \"#utility.yul\":11931:11934   */\n      dup5\n        /* \"#utility.yul\":11923:11929   */\n      dup3\n        /* \"#utility.yul\":11916:11920   */\n      0x20\n        /* \"#utility.yul\":11908:11914   */\n      dup7\n        /* \"#utility.yul\":11904:11921   */\n      add\n        /* \"#utility.yul\":11857:11935   */\n      tag_138\n      jump\t// in\n    tag_275:\n        /* \"#utility.yul\":11848:11935   */\n      swap2\n      pop\n        /* \"#utility.yul\":11664:11941   */\n      pop\n        /* \"#utility.yul\":11603:11941   */\n      swap3\n      swap2\n      pop\n      pop\n      jump\t// out\n        /* \"#utility.yul\":11947:12069   */\n    tag_140:\n        /* \"#utility.yul\":12020:12044   */\n      tag_277\n        /* \"#utility.yul\":12038:12043   */\n      dup2\n        /* \"#utility.yul\":12020:12044   */\n      tag_115\n      jump\t// in\n    tag_277:\n        /* \"#utility.yul\":12013:12018   */\n      dup2\n        /* \"#utility.yul\":12010:12045   */\n      eq\n        /* \"#utility.yul\":12000:12063   */\n      tag_278\n      jumpi\n        /* \"#utility.yul\":12059:12060   */\n      0x00\n        /* \"#utility.yul\":12056:12057   */\n      dup1\n        /* \"#utility.yul\":12049:12061   */\n      revert\n        /* \"#utility.yul\":12000:12063   */\n    tag_278:\n        /* \"#utility.yul\":11947:12069   */\n      pop\n      jump\t// out\n        /* \"#utility.yul\":12075:12214   */\n    tag_141:\n        /* \"#utility.yul\":12121:12126   */\n      0x00\n        /* \"#utility.yul\":12159:12165   */\n      dup2\n        /* \"#utility.yul\":12146:12166   */\n      calldataload\n        /* \"#utility.yul\":12137:12166   */\n      swap1\n      pop\n        /* \"#utility.yul\":12175:12208   */\n      tag_280\n        /* \"#utility.yul\":12202:12207   */\n      dup2\n        /* \"#utility.yul\":12175:12208   */\n      tag_140\n      jump\t// in\n    tag_280:\n        /* \"#utility.yul\":12075:12214   */\n      swap3\n      swap2\n      pop\n      pop\n      jump\t// out\n        /* \"#utility.yul\":12220:13309   */\n    tag_40:\n        /* \"#utility.yul\":12324:12330   */\n      0x00\n        /* \"#utility.yul\":12332:12338   */\n      dup1\n        /* \"#utility.yul\":12340:12346   */\n      0x00\n        /* \"#utility.yul\":12348:12354   */\n      dup1\n        /* \"#utility.yul\":12356:12362   */\n      0x00\n        /* \"#utility.yul\":12405:12408   */\n      0xa0\n        /* \"#utility.yul\":12393:12402   */\n      dup7\n        /* \"#utility.yul\":12384:12391   */\n      dup9\n        /* \"#utility.yul\":12380:12403   */\n      sub\n        /* \"#utility.yul\":12376:12409   */\n      slt\n        /* \"#utility.yul\":12373:12493   */\n      iszero\n      tag_282\n      jumpi\n        /* \"#utility.yul\":12412:12491   */\n      tag_283\n      tag_97\n      jump\t// in\n    tag_283:\n        /* \"#utility.yul\":12373:12493   */\n    tag_282:\n        /* \"#utility.yul\":12532:12533   */\n      0x00\n        /* \"#utility.yul\":12557:12610   */\n      tag_284\n        /* \"#utility.yul\":12602:12609   */\n      dup9\n        /* \"#utility.yul\":12593:12599   */\n      dup3\n        /* \"#utility.yul\":12582:12591   */\n      dup10\n        /* \"#utility.yul\":12578:12600   */\n      add\n        /* \"#utility.yul\":12557:12610   */\n      tag_130\n      jump\t// in\n    tag_284:\n        /* \"#utility.yul\":12547:12610   */\n      swap6\n      pop\n        /* \"#utility.yul\":12503:12620   */\n      pop\n        /* \"#utility.yul\":12687:12689   */\n      0x20\n        /* \"#utility.yul\":12676:12685   */\n      dup7\n        /* \"#utility.yul\":12672:12690   */\n      add\n        /* \"#utility.yul\":12659:12691   */\n      calldataload\n        /* \"#utility.yul\":12718:12736   */\n      0xffffffffffffffff\n        /* \"#utility.yul\":12710:12716   */\n      dup2\n        /* \"#utility.yul\":12707:12737   */\n      gt\n        /* \"#utility.yul\":12704:12821   */\n      iszero\n      tag_285\n      jumpi\n        /* \"#utility.yul\":12740:12819   */\n      tag_286\n      tag_98\n      jump\t// in\n    tag_286:\n        /* \"#utility.yul\":12704:12821   */\n    tag_285:\n        /* \"#utility.yul\":12845:12907   */\n      tag_287\n        /* \"#utility.yul\":12899:12906   */\n      dup9\n        /* \"#utility.yul\":12890:12896   */\n      dup3\n        /* \"#utility.yul\":12879:12888   */\n      dup10\n        /* \"#utility.yul\":12875:12897   */\n      add\n        /* \"#utility.yul\":12845:12907   */\n      tag_139\n      jump\t// in\n    tag_287:\n        /* \"#utility.yul\":12835:12907   */\n      swap5\n      pop\n        /* \"#utility.yul\":12630:12917   */\n      pop\n        /* \"#utility.yul\":12956:12958   */\n      0x40\n        /* \"#utility.yul\":12982:13035   */\n      tag_288\n        /* \"#utility.yul\":13027:13034   */\n      dup9\n        /* \"#utility.yul\":13018:13024   */\n      dup3\n        /* \"#utility.yul\":13007:13016   */\n      dup10\n        /* \"#utility.yul\":13003:13025   */\n      add\n        /* \"#utility.yul\":12982:13035   */\n      tag_141\n      jump\t// in\n    tag_288:\n        /* \"#utility.yul\":12972:13035   */\n      swap4\n      pop\n        /* \"#utility.yul\":12927:13045   */\n      pop\n        /* \"#utility.yul\":13084:13086   */\n      0x60\n        /* \"#utility.yul\":13110:13163   */\n      tag_289\n        /* \"#utility.yul\":13155:13162   */\n      dup9\n        /* \"#utility.yul\":13146:13152   */\n      dup3\n        /* \"#utility.yul\":13135:13144   */\n      dup10\n        /* \"#utility.yul\":13131:13153   */\n      add\n        /* \"#utility.yul\":13110:13163   */\n      tag_101\n      jump\t// in\n    tag_289:\n        /* \"#utility.yul\":13100:13163   */\n      swap3\n      pop\n        /* \"#utility.yul\":13055:13173   */\n      pop\n        /* \"#utility.yul\":13212:13215   */\n      0x80\n        /* \"#utility.yul\":13239:13292   */\n      tag_290\n        /* \"#utility.yul\":13284:13291   */\n      dup9\n        /* \"#utility.yul\":13275:13281   */\n      dup3\n        /* \"#utility.yul\":13264:13273   */\n      dup10\n        /* \"#utility.yul\":13260:13282   */\n      add\n        /* \"#utility.yul\":13239:13292   */\n      tag_101\n      jump\t// in\n    tag_290:\n        /* \"#utility.yul\":13229:13292   */\n      swap2\n      pop\n        /* \"#utility.yul\":13183:13302   */\n      pop\n        /* \"#utility.yul\":12220:13309   */\n      swap3\n      swap6\n      pop\n      swap3\n      swap6\n      swap1\n      swap4\n      pop\n      jump\t// out\n        /* \"#utility.yul\":13315:13753   */\n    tag_49:\n        /* \"#utility.yul\":13462:13466   */\n      0x00\n        /* \"#utility.yul\":13500:13502   */\n      0x60\n        /* \"#utility.yul\":13489:13498   */\n      dup3\n        /* \"#utility.yul\":13485:13503   */\n      add\n        /* \"#utility.yul\":13477:13503   */\n      swap1\n      pop\n        /* \"#utility.yul\":13513:13584   */\n      tag_292\n        /* \"#utility.yul\":13581:13582   */\n      0x00\n        /* \"#utility.yul\":13570:13579   */\n      dup4\n        /* \"#utility.yul\":13566:13583   */\n      add\n        /* \"#utility.yul\":13557:13563   */\n      dup7\n        /* \"#utility.yul\":13513:13584   */\n      tag_104\n      jump\t// in\n    tag_292:\n        /* \"#utility.yul\":13594:13664   */\n      tag_293\n        /* \"#utility.yul\":13660:13662   */\n      0x20\n        /* \"#utility.yul\":13649:13658   */\n      dup4\n        /* \"#utility.yul\":13645:13663   */\n      add\n        /* \"#utility.yul\":13636:13642   */\n      dup6\n        /* \"#utility.yul\":13594:13664   */\n      tag_103\n      jump\t// in\n    tag_293:\n        /* \"#utility.yul\":13674:13746   */\n      tag_294\n        /* \"#utility.yul\":13742:13744   */\n      0x40\n        /* \"#utility.yul\":13731:13740   */\n      dup4\n        /* \"#utility.yul\":13727:13745   */\n      add\n        /* \"#utility.yul\":13718:13724   */\n      dup5\n        /* \"#utility.yul\":13674:13746   */\n      tag_104\n      jump\t// in\n    tag_294:\n        /* \"#utility.yul\":13315:13753   */\n      swap5\n      swap4\n      pop\n      pop\n      pop\n      pop\n      jump\t// out\n        /* \"#utility.yul\":13759:13939   */\n    tag_142:\n        /* \"#utility.yul\":13807:13884   */\n      0x4e487b7100000000000000000000000000000000000000000000000000000000\n        /* \"#utility.yul\":13804:13805   */\n      0x00\n        /* \"#utility.yul\":13797:13885   */\n      mstore\n        /* \"#utility.yul\":13904:13908   */\n      0x22\n        /* \"#utility.yul\":13901:13902   */\n      0x04\n        /* \"#utility.yul\":13894:13909   */\n      mstore\n        /* \"#utility.yul\":13928:13932   */\n      0x24\n        /* \"#utility.yul\":13925:13926   */\n      0x00\n        /* \"#utility.yul\":13918:13933   */\n      revert\n        /* \"#utility.yul\":13945:14265   */\n    tag_54:\n        /* \"#utility.yul\":13989:13995   */\n      0x00\n        /* \"#utility.yul\":14026:14027   */\n      0x02\n        /* \"#utility.yul\":14020:14024   */\n      dup3\n        /* \"#utility.yul\":14016:14028   */\n      div\n        /* \"#utility.yul\":14006:14028   */\n      swap1\n      pop\n        /* \"#utility.yul\":14073:14074   */\n      0x01\n        /* \"#utility.yul\":14067:14071   */\n      dup3\n        /* \"#utility.yul\":14063:14075   */\n      and\n        /* \"#utility.yul\":14094:14112   */\n      dup1\n        /* \"#utility.yul\":14084:14165   */\n      tag_297\n      jumpi\n        /* \"#utility.yul\":14150:14154   */\n      0x7f\n        /* \"#utility.yul\":14142:14148   */\n      dup3\n        /* \"#utility.yul\":14138:14155   */\n      and\n        /* \"#utility.yul\":14128:14155   */\n      swap2\n      pop\n        /* \"#utility.yul\":14084:14165   */\n    tag_297:\n        /* \"#utility.yul\":14212:14214   */\n      0x20\n        /* \"#utility.yul\":14204:14210   */\n      dup3\n        /* \"#utility.yul\":14201:14215   */\n      lt\n        /* \"#utility.yul\":14181:14199   */\n      dup2\n        /* \"#utility.yul\":14178:14216   */\n      sub\n        /* \"#utility.yul\":14175:14259   */\n      tag_298\n      jumpi\n        /* \"#utility.yul\":14231:14249   */\n      tag_299\n      tag_142\n      jump\t// in\n    tag_299:\n        /* \"#utility.yul\":14175:14259   */\n    tag_298:\n        /* \"#utility.yul\":13996:14265   */\n      pop\n        /* \"#utility.yul\":13945:14265   */\n      swap2\n      swap1\n      pop\n      jump\t// out\n        /* \"#utility.yul\":14271:14603   */\n    tag_67:\n        /* \"#utility.yul\":14392:14396   */\n      0x00\n        /* \"#utility.yul\":14430:14432   */\n      0x40\n        /* \"#utility.yul\":14419:14428   */\n      dup3\n        /* \"#utility.yul\":14415:14433   */\n      add\n        /* \"#utility.yul\":14407:14433   */\n      swap1\n      pop\n        /* \"#utility.yul\":14443:14514   */\n      tag_301\n        /* \"#utility.yul\":14511:14512   */\n      0x00\n        /* \"#utility.yul\":14500:14509   */\n      dup4\n        /* \"#utility.yul\":14496:14513   */\n      add\n        /* \"#utility.yul\":14487:14493   */\n      dup6\n        /* \"#utility.yul\":14443:14514   */\n      tag_104\n      jump\t// in\n    tag_301:\n        /* \"#utility.yul\":14524:14596   */\n      tag_302\n        /* \"#utility.yul\":14592:14594   */\n      0x20\n        /* \"#utility.yul\":14581:14590   */\n      dup4\n        /* \"#utility.yul\":14577:14595   */\n      add\n        /* \"#utility.yul\":14568:14574   */\n      dup5\n        /* \"#utility.yul\":14524:14596   */\n      tag_104\n      jump\t// in\n    tag_302:\n        /* \"#utility.yul\":14271:14603   */\n      swap4\n      swap3\n      pop\n      pop\n      pop\n      jump\t// out\n        /* \"#utility.yul\":14609:14789   */\n    tag_143:\n        /* \"#utility.yul\":14657:14734   */\n      0x4e487b7100000000000000000000000000000000000000000000000000000000\n        /* \"#utility.yul\":14654:14655   */\n      0x00\n        /* \"#utility.yul\":14647:14735   */\n      mstore\n        /* \"#utility.yul\":14754:14758   */\n      0x11\n        /* \"#utility.yul\":14751:14752   */\n      0x04\n        /* \"#utility.yul\":14744:14759   */\n      mstore\n        /* \"#utility.yul\":14778:14782   */\n      0x24\n        /* \"#utility.yul\":14775:14776   */\n      0x00\n        /* \"#utility.yul\":14768:14783   */\n      revert\n        /* \"#utility.yul\":14795:15100   */\n    tag_81:\n        /* \"#utility.yul\":14835:14838   */\n      0x00\n        /* \"#utility.yul\":14854:14874   */\n      tag_305\n        /* \"#utility.yul\":14872:14873   */\n      dup3\n        /* \"#utility.yul\":14854:14874   */\n      tag_99\n      jump\t// in\n    tag_305:\n        /* \"#utility.yul\":14849:14874   */\n      swap2\n      pop\n        /* \"#utility.yul\":14888:14908   */\n      tag_306\n        /* \"#utility.yul\":14906:14907   */\n      dup4\n        /* \"#utility.yul\":14888:14908   */\n      tag_99\n      jump\t// in\n    tag_306:\n        /* \"#utility.yul\":14883:14908   */\n      swap3\n      pop\n        /* \"#utility.yul\":15042:15043   */\n      dup3\n        /* \"#utility.yul\":14974:15040   */\n      0xffffffffffffffffffffffffffffffffffffffffffffffffffffffffffffffff\n        /* \"#utility.yul\":14970:15044   */\n      sub\n        /* \"#utility.yul\":14967:14968   */\n      dup3\n        /* \"#utility.yul\":14964:15045   */\n      gt\n        /* \"#utility.yul\":14961:15068   */\n      iszero\n      tag_307\n      jumpi\n        /* \"#utility.yul\":15048:15066   */\n      tag_308\n      tag_143\n      jump\t// in\n    tag_308:\n        /* \"#utility.yul\":14961:15068   */\n    tag_307:\n        /* \"#utility.yul\":15092:15093   */\n      dup3\n        /* \"#utility.yul\":15089:15090   */\n      dup3\n        /* \"#utility.yul\":15085:15094   */\n      add\n        /* \"#utility.yul\":15078:15094   */\n      swap1\n      pop\n        /* \"#utility.yul\":14795:15100   */\n      swap3\n      swap2\n      pop\n      pop\n      jump\t// out\n        /* \"#utility.yul\":15106:15857   */\n    tag_83:\n        /* \"#utility.yul\":15329:15333   */\n      0x00\n        /* \"#utility.yul\":15367:15370   */\n      0xa0\n        /* \"#utility.yul\":15356:15365   */\n      dup3\n        /* \"#utility.yul\":15352:15371   */\n      add\n        /* \"#utility.yul\":15344:15371   */\n      swap1\n      pop\n        /* \"#utility.yul\":15381:15452   */\n      tag_310\n        /* \"#utility.yul\":15449:15450   */\n      0x00\n        /* \"#utility.yul\":15438:15447   */\n      dup4\n        /* \"#utility.yul\":15434:15451   */\n      add\n        /* \"#utility.yul\":15425:15431   */\n      dup9\n        /* \"#utility.yul\":15381:15452   */\n      tag_104\n      jump\t// in\n    tag_310:\n        /* \"#utility.yul\":15462:15534   */\n      tag_311\n        /* \"#utility.yul\":15530:15532   */\n      0x20\n        /* \"#utility.yul\":15519:15528   */\n      dup4\n        /* \"#utility.yul\":15515:15533   */\n      add\n        /* \"#utility.yul\":15506:15512   */\n      dup8\n        /* \"#utility.yul\":15462:15534   */\n      tag_124\n      jump\t// in\n    tag_311:\n        /* \"#utility.yul\":15581:15590   */\n      dup2\n        /* \"#utility.yul\":15575:15579   */\n      dup2\n        /* \"#utility.yul\":15571:15591   */\n      sub\n        /* \"#utility.yul\":15566:15568   */\n      0x40\n        /* \"#utility.yul\":15555:15564   */\n      dup4\n        /* \"#utility.yul\":15551:15569   */\n      add\n        /* \"#utility.yul\":15544:15592   */\n      mstore\n        /* \"#utility.yul\":15609:15685   */\n      tag_312\n        /* \"#utility.yul\":15680:15684   */\n      dup2\n        /* \"#utility.yul\":15671:15677   */\n      dup7\n        /* \"#utility.yul\":15609:15685   */\n      tag_126\n      jump\t// in\n    tag_312:\n        /* \"#utility.yul\":15601:15685   */\n      swap1\n      pop\n        /* \"#utility.yul\":15695:15767   */\n      tag_313\n        /* \"#utility.yul\":15763:15765   */\n      0x60\n        /* \"#utility.yul\":15752:15761   */\n      dup4\n        /* \"#utility.yul\":15748:15766   */\n      add\n        /* \"#utility.yul\":15739:15745   */\n      dup6\n        /* \"#utility.yul\":15695:15767   */\n      tag_104\n      jump\t// in\n    tag_313:\n        /* \"#utility.yul\":15777:15850   */\n      tag_314\n        /* \"#utility.yul\":15845:15848   */\n      0x80\n        /* \"#utility.yul\":15834:15843   */\n      dup4\n        /* \"#utility.yul\":15830:15849   */\n      add\n        /* \"#utility.yul\":15821:15827   */\n      dup5\n        /* \"#utility.yul\":15777:15850   */\n      tag_127\n      jump\t// in\n    tag_314:\n        /* \"#utility.yul\":15106:15857   */\n      swap7\n      swap6\n      pop\n      pop\n      pop\n      pop\n      pop\n      pop\n      jump\t// out\n\n    auxdata: 0xa26469706673582212209d9bd286fa53e343accbd2cc0100c8ee12b75cbab3c61086df8ea0ca1337dc5064736f6c634300080e0033\n}\n",
				"bytecode": {
					"linkReferences": {},
					"object": "6080604052600160005534801561001557600080fd5b506111b8806100256000396000f3fe608060405234801561001057600080fd5b506004361061007d5760003560e01c8063c58343ef1161005b578063c58343ef146100ec578063d247f92b1461011c578063f418ad7a14610138578063f84507ad146101705761007d565b80635944427b146100825780638a9cf5da146100b2578063b87c065f146100d0575b600080fd5b61009c6004803603810190610097919061094e565b6101a0565b6040516100a99190610994565b60405180910390f35b6100ba6101c0565b6040516100c791906109be565b60405180910390f35b6100ea60048036038101906100e59190610a05565b6101c6565b005b6101066004803603810190610101919061094e565b610253565b6040516101139190610c92565b60405180910390f35b6101366004803603810190610131919061094e565b61042c565b005b610152600480360381019061014d919061094e565b6104a6565b60405161016799989796959493929190610d2b565b60405180910390f35b61018a60048036038101906101859190610f4c565b6105c9565b60405161019791906109be565b60405180910390f35b600060016000838152602001908152602001600020600701549050919050565b60005481565b600060016000848152602001908152602001600020905081816007018190555060028160080160006101000a81548160ff0219169083600281111561020e5761020d610b56565b5b02179055507f336b6a93b38daa435f14747b9c40a9bc9569de3a62550c286f52428d83a2846f83834260405161024693929190610fe3565b60405180910390a1505050565b61025b6107d4565b60016000838152602001908152602001600020604051806101200160405290816000820154815260200160018201805461029490611049565b80601f01602080910402602001604051908101604052809291908181526020018280546102c090611049565b801561030d5780601f106102e25761010080835404028352916020019161030d565b820191906000526020600020905b8154815290600101906020018083116102f057829003601f168201915b505050505081526020016002820160009054906101000a900473ffffffffffffffffffffffffffffffffffffffff1673ffffffffffffffffffffffffffffffffffffffff1673ffffffffffffffffffffffffffffffffffffffff1681526020016003820154815260200160048201548152602001600582015481526020016006820160009054906101000a900473ffffffffffffffffffffffffffffffffffffffff1673ffffffffffffffffffffffffffffffffffffffff1673ffffffffffffffffffffffffffffffffffffffff168152602001600782015481526020016008820160009054906101000a900460ff16600281111561040f5761040e610b56565b5b600281111561042157610420610b56565b5b815250509050919050565b600180600083815260200190815260200160002060080160006101000a81548160ff0219169083600281111561046557610464610b56565b5b02179055507f1f5d616c2e1670edad5d1f2ce72c07bd219ebefbae35617f57d8234964fc2743814260405161049b92919061107a565b60405180910390a150565b60016020528060005260406000206000915090508060000154908060010180546104cf90611049565b80601f01602080910402602001604051908101604052809291908181526020018280546104fb90611049565b80156105485780601f1061051d57610100808354040283529160200191610548565b820191906000526020600020905b81548152906001019060200180831161052b57829003601f168201915b5050505050908060020160009054906101000a900473ffffffffffffffffffffffffffffffffffffffff16908060030154908060040154908060050154908060060160009054906101000a900473ffffffffffffffffffffffffffffffffffffffff16908060070154908060080160009054906101000a900460ff16905089565b6000805490506040518061012001604052808781526020018681526020018573ffffffffffffffffffffffffffffffffffffffff1681526020018481526020018381526020014281526020013373ffffffffffffffffffffffffffffffffffffffff168152602001600081526020016000600281111561064c5761064b610b56565b5b81525060016000838152602001908152602001600020600082015181600001556020820151816001019080519060200190610688929190610861565b5060408201518160020160006101000a81548173ffffffffffffffffffffffffffffffffffffffff021916908373ffffffffffffffffffffffffffffffffffffffff160217905550606082015181600301556080820151816004015560a0820151816005015560c08201518160060160006101000a81548173ffffffffffffffffffffffffffffffffffffffff021916908373ffffffffffffffffffffffffffffffffffffffff16021790555060e082015181600701556101008201518160080160006101000a81548160ff0219169083600281111561076b5761076a610b56565b5b0217905550905050600160008082825461078591906110d2565b925050819055507f30b5bfd849df20e3e537cf95d7077e1aa0fcd8cc44832c6abd42da4534099f3681878742336040516107c3959493929190611128565b60405180910390a195945050505050565b6040518061012001604052806000801916815260200160608152602001600073ffffffffffffffffffffffffffffffffffffffff168152602001600081526020016000815260200160008152602001600073ffffffffffffffffffffffffffffffffffffffff168152602001600081526020016000600281111561085b5761085a610b56565b5b81525090565b82805461086d90611049565b90600052602060002090601f01602090048101928261088f57600085556108d6565b82601f106108a857805160ff19168380011785556108d6565b828001600101855582156108d6579182015b828111156108d55782518255916020019190600101906108ba565b5b5090506108e391906108e7565b5090565b5b808211156109005760008160009055506001016108e8565b5090565b6000604051905090565b600080fd5b600080fd5b6000819050919050565b61092b81610918565b811461093657600080fd5b50565b60008135905061094881610922565b92915050565b6000602082840312156109645761096361090e565b5b600061097284828501610939565b91505092915050565b6000819050919050565b61098e8161097b565b82525050565b60006020820190506109a96000830184610985565b92915050565b6109b881610918565b82525050565b60006020820190506109d360008301846109af565b92915050565b6109e28161097b565b81146109ed57600080fd5b50565b6000813590506109ff816109d9565b92915050565b60008060408385031215610a1c57610a1b61090e565b5b6000610a2a85828601610939565b9250506020610a3b858286016109f0565b9150509250929050565b6000819050919050565b610a5881610a45565b82525050565b600081519050919050565b600082825260208201905092915050565b60005b83811015610a98578082015181840152602081019050610a7d565b83811115610aa7576000848401525b50505050565b6000601f19601f8301169050919050565b6000610ac982610a5e565b610ad38185610a69565b9350610ae3818560208601610a7a565b610aec81610aad565b840191505092915050565b600073ffffffffffffffffffffffffffffffffffffffff82169050919050565b6000610b2282610af7565b9050919050565b610b3281610b17565b82525050565b610b4181610918565b82525050565b610b508161097b565b82525050565b7f4e487b7100000000000000000000000000000000000000000000000000000000600052602160045260246000fd5b60038110610b9657610b95610b56565b5b50565b6000819050610ba782610b85565b919050565b6000610bb782610b99565b9050919050565b610bc781610bac565b82525050565b600061012083016000830151610be66000860182610a4f565b5060208301518482036020860152610bfe8282610abe565b9150506040830151610c136040860182610b29565b506060830151610c266060860182610b38565b506080830151610c396080860182610b38565b5060a0830151610c4c60a0860182610b38565b5060c0830151610c5f60c0860182610b29565b5060e0830151610c7260e0860182610b47565b50610100830151610c87610100860182610bbe565b508091505092915050565b60006020820190508181036000830152610cac8184610bcd565b905092915050565b610cbd81610a45565b82525050565b600082825260208201905092915050565b6000610cdf82610a5e565b610ce98185610cc3565b9350610cf9818560208601610a7a565b610d0281610aad565b840191505092915050565b610d1681610b17565b82525050565b610d2581610bac565b82525050565b600061012082019050610d41600083018c610cb4565b8181036020830152610d53818b610cd4565b9050610d62604083018a610d0d565b610d6f60608301896109af565b610d7c60808301886109af565b610d8960a08301876109af565b610d9660c0830186610d0d565b610da360e0830185610985565b610db1610100830184610d1c565b9a9950505050505050505050565b610dc881610a45565b8114610dd357600080fd5b50565b600081359050610de581610dbf565b92915050565b600080fd5b600080fd5b7f4e487b7100000000000000000000000000000000000000000000000000000000600052604160045260246000fd5b610e2d82610aad565b810181811067ffffffffffffffff82111715610e4c57610e4b610df5565b5b80604052505050565b6000610e5f610904565b9050610e6b8282610e24565b919050565b600067ffffffffffffffff821115610e8b57610e8a610df5565b5b610e9482610aad565b9050602081019050919050565b82818337600083830152505050565b6000610ec3610ebe84610e70565b610e55565b905082815260208101848484011115610edf57610ede610df0565b5b610eea848285610ea1565b509392505050565b600082601f830112610f0757610f06610deb565b5b8135610f17848260208601610eb0565b91505092915050565b610f2981610b17565b8114610f3457600080fd5b50565b600081359050610f4681610f20565b92915050565b600080600080600060a08688031215610f6857610f6761090e565b5b6000610f7688828901610dd6565b955050602086013567ffffffffffffffff811115610f9757610f96610913565b5b610fa388828901610ef2565b9450506040610fb488828901610f37565b9350506060610fc588828901610939565b9250506080610fd688828901610939565b9150509295509295909350565b6000606082019050610ff860008301866109af565b6110056020830185610985565b61101260408301846109af565b949350505050565b7f4e487b7100000000000000000000000000000000000000000000000000000000600052602260045260246000fd5b6000600282049050600182168061106157607f821691505b6020821081036110745761107361101a565b5b50919050565b600060408201905061108f60008301856109af565b61109c60208301846109af565b9392505050565b7f4e487b7100000000000000000000000000000000000000000000000000000000600052601160045260246000fd5b60006110dd82610918565b91506110e883610918565b9250827fffffffffffffffffffffffffffffffffffffffffffffffffffffffffffffffff0382111561111d5761111c6110a3565b5b828201905092915050565b600060a08201905061113d60008301886109af565b61114a6020830187610cb4565b818103604083015261115c8186610cd4565b905061116b60608301856109af565b6111786080830184610d0d565b969550505050505056fea26469706673582212209d9bd286fa53e343accbd2cc0100c8ee12b75cbab3c61086df8ea0ca1337dc5064736f6c634300080e0033",
					"opcodes": "PUSH1 0x80 PUSH1 0x40 MSTORE PUSH1 0x1 PUSH1 0x0 SSTORE CALLVALUE DUP1 ISZERO PUSH2 0x15 JUMPI PUSH1 0x0 DUP1 REVERT JUMPDEST POP PUSH2 0x11B8 DUP1 PUSH2 0x25 PUSH1 0x0 CODECOPY PUSH1 0x0 RETURN INVALID PUSH1 0x80 PUSH1 0x40 MSTORE CALLVALUE DUP1 ISZERO PUSH2 0x10 JUMPI PUSH1 0x0 DUP1 REVERT JUMPDEST POP PUSH1 0x4 CALLDATASIZE LT PUSH2 0x7D JUMPI PUSH1 0x0 CALLDATALOAD PUSH1 0xE0 SHR DUP1 PUSH4 0xC58343EF GT PUSH2 0x5B JUMPI DUP1 PUSH4 0xC58343EF EQ PUSH2 0xEC JUMPI DUP1 PUSH4 0xD247F92B EQ PUSH2 0x11C JUMPI DUP1 PUSH4 0xF418AD7A EQ PUSH2 0x138 JUMPI DUP1 PUSH4 0xF84507AD EQ PUSH2 0x170 JUMPI PUSH2 0x7D JUMP JUMPDEST DUP1 PUSH4 0x5944427B EQ PUSH2 0x82 JUMPI DUP1 PUSH4 0x8A9CF5DA EQ PUSH2 0xB2 JUMPI DUP1 PUSH4 0xB87C065F EQ PUSH2 0xD0 JUMPI JUMPDEST PUSH1 0x0 DUP1 REVERT JUMPDEST PUSH2 0x9C PUSH1 0x4 DUP1 CALLDATASIZE SUB DUP2 ADD SWAP1 PUSH2 0x97 SWAP2 SWAP1 PUSH2 0x94E JUMP JUMPDEST PUSH2 0x1A0 JUMP JUMPDEST PUSH1 0x40 MLOAD PUSH2 0xA9 SWAP2 SWAP1 PUSH2 0x994 JUMP JUMPDEST PUSH1 0x40 MLOAD DUP1 SWAP2 SUB SWAP1 RETURN JUMPDEST PUSH2 0xBA PUSH2 0x1C0 JUMP JUMPDEST PUSH1 0x40 MLOAD PUSH2 0xC7 SWAP2 SWAP1 PUSH2 0x9BE JUMP JUMPDEST PUSH1 0x40 MLOAD DUP1 SWAP2 SUB SWAP1 RETURN JUMPDEST PUSH2 0xEA PUSH1 0x4 DUP1 CALLDATASIZE SUB DUP2 ADD SWAP1 PUSH2 0xE5 SWAP2 SWAP1 PUSH2 0xA05 JUMP JUMPDEST PUSH2 0x1C6 JUMP JUMPDEST STOP JUMPDEST PUSH2 0x106 PUSH1 0x4 DUP1 CALLDATASIZE SUB DUP2 ADD SWAP1 PUSH2 0x101 SWAP2 SWAP1 PUSH2 0x94E JUMP JUMPDEST PUSH2 0x253 JUMP JUMPDEST PUSH1 0x40 MLOAD PUSH2 0x113 SWAP2 SWAP1 PUSH2 0xC92 JUMP JUMPDEST PUSH1 0x40 MLOAD DUP1 SWAP2 SUB SWAP1 RETURN JUMPDEST PUSH2 0x136 PUSH1 0x4 DUP1 CALLDATASIZE SUB DUP2 ADD SWAP1 PUSH2 0x131 SWAP2 SWAP1 PUSH2 0x94E JUMP JUMPDEST PUSH2 0x42C JUMP JUMPDEST STOP JUMPDEST PUSH2 0x152 PUSH1 0x4 DUP1 CALLDATASIZE SUB DUP2 ADD SWAP1 PUSH2 0x14D SWAP2 SWAP1 PUSH2 0x94E JUMP JUMPDEST PUSH2 0x4A6 JUMP JUMPDEST PUSH1 0x40 MLOAD PUSH2 0x167 SWAP10 SWAP9 SWAP8 SWAP7 SWAP6 SWAP5 SWAP4 SWAP3 SWAP2 SWAP1 PUSH2 0xD2B JUMP JUMPDEST PUSH1 0x40 MLOAD DUP1 SWAP2 SUB SWAP1 RETURN JUMPDEST PUSH2 0x18A PUSH1 0x4 DUP1 CALLDATASIZE SUB DUP2 ADD SWAP1 PUSH2 0x185 SWAP2 SWAP1 PUSH2 0xF4C JUMP JUMPDEST PUSH2 0x5C9 JUMP JUMPDEST PUSH1 0x40 MLOAD PUSH2 0x197 SWAP2 SWAP1 PUSH2 0x9BE JUMP JUMPDEST PUSH1 0x40 MLOAD DUP1 SWAP2 SUB SWAP1 RETURN JUMPDEST PUSH1 0x0 PUSH1 0x1 PUSH1 0x0 DUP4 DUP2 MSTORE PUSH1 0x20 ADD SWAP1 DUP2 MSTORE PUSH1 0x20 ADD PUSH1 0x0 KECCAK256 PUSH1 0x7 ADD SLOAD SWAP1 POP SWAP2 SWAP1 POP JUMP JUMPDEST PUSH1 0x0 SLOAD DUP2 JUMP JUMPDEST PUSH1 0x0 PUSH1 0x1 PUSH1 0x0 DUP5 DUP2 MSTORE PUSH1 0x20 ADD SWAP1 DUP2 MSTORE PUSH1 0x20 ADD PUSH1 0x0 KECCAK256 SWAP1 POP DUP2 DUP2 PUSH1 0x7 ADD DUP2 SWAP1 SSTORE POP PUSH1 0x2 DUP2 PUSH1 0x8 ADD PUSH1 0x0 PUSH2 0x100 EXP DUP2 SLOAD DUP2 PUSH1 0xFF MUL NOT AND SWAP1 DUP4 PUSH1 0x2 DUP2 GT ISZERO PUSH2 0x20E JUMPI PUSH2 0x20D PUSH2 0xB56 JUMP JUMPDEST JUMPDEST MUL OR SWAP1 SSTORE POP PUSH32 0x336B6A93B38DAA435F14747B9C40A9BC9569DE3A62550C286F52428D83A2846F DUP4 DUP4 TIMESTAMP PUSH1 0x40 MLOAD PUSH2 0x246 SWAP4 SWAP3 SWAP2 SWAP1 PUSH2 0xFE3 JUMP JUMPDEST PUSH1 0x40 MLOAD DUP1 SWAP2 SUB SWAP1 LOG1 POP POP POP JUMP JUMPDEST PUSH2 0x25B PUSH2 0x7D4 JUMP JUMPDEST PUSH1 0x1 PUSH1 0x0 DUP4 DUP2 MSTORE PUSH1 0x20 ADD SWAP1 DUP2 MSTORE PUSH1 0x20 ADD PUSH1 0x0 KECCAK256 PUSH1 0x40 MLOAD DUP1 PUSH2 0x120 ADD PUSH1 0x40 MSTORE SWAP1 DUP2 PUSH1 0x0 DUP3 ADD SLOAD DUP2 MSTORE PUSH1 0x20 ADD PUSH1 0x1 DUP3 ADD DUP1 SLOAD PUSH2 0x294 SWAP1 PUSH2 0x1049 JUMP JUMPDEST DUP1 PUSH1 0x1F ADD PUSH1 0x20 DUP1 SWAP2 DIV MUL PUSH1 0x20 ADD PUSH1 0x40 MLOAD SWAP1 DUP2 ADD PUSH1 0x40 MSTORE DUP1 SWAP3 SWAP2 SWAP1 DUP2 DUP2 MSTORE PUSH1 0x20 ADD DUP3 DUP1 SLOAD PUSH2 0x2C0 SWAP1 PUSH2 0x1049 JUMP JUMPDEST DUP1 ISZERO PUSH2 0x30D JUMPI DUP1 PUSH1 0x1F LT PUSH2 0x2E2 JUMPI PUSH2 0x100 DUP1 DUP4 SLOAD DIV MUL DUP4 MSTORE SWAP2 PUSH1 0x20 ADD SWAP2 PUSH2 0x30D JUMP JUMPDEST DUP3 ADD SWAP2 SWAP1 PUSH1 0x0 MSTORE PUSH1 0x20 PUSH1 0x0 KECCAK256 SWAP1 JUMPDEST DUP2 SLOAD DUP2 MSTORE SWAP1 PUSH1 0x1 ADD SWAP1 PUSH1 0x20 ADD DUP1 DUP4 GT PUSH2 0x2F0 JUMPI DUP3 SWAP1 SUB PUSH1 0x1F AND DUP3 ADD SWAP2 JUMPDEST POP POP POP POP POP DUP2 MSTORE PUSH1 0x20 ADD PUSH1 0x2 DUP3 ADD PUSH1 0x0 SWAP1 SLOAD SWAP1 PUSH2 0x100 EXP SWAP1 DIV PUSH20 0xFFFFFFFFFFFFFFFFFFFFFFFFFFFFFFFFFFFFFFFF AND PUSH20 0xFFFFFFFFFFFFFFFFFFFFFFFFFFFFFFFFFFFFFFFF AND PUSH20 0xFFFFFFFFFFFFFFFFFFFFFFFFFFFFFFFFFFFFFFFF AND DUP2 MSTORE PUSH1 0x20 ADD PUSH1 0x3 DUP3 ADD SLOAD DUP2 MSTORE PUSH1 0x20 ADD PUSH1 0x4 DUP3 ADD SLOAD DUP2 MSTORE PUSH1 0x20 ADD PUSH1 0x5 DUP3 ADD SLOAD DUP2 MSTORE PUSH1 0x20 ADD PUSH1 0x6 DUP3 ADD PUSH1 0x0 SWAP1 SLOAD SWAP1 PUSH2 0x100 EXP SWAP1 DIV PUSH20 0xFFFFFFFFFFFFFFFFFFFFFFFFFFFFFFFFFFFFFFFF AND PUSH20 0xFFFFFFFFFFFFFFFFFFFFFFFFFFFFFFFFFFFFFFFF AND PUSH20 0xFFFFFFFFFFFFFFFFFFFFFFFFFFFFFFFFFFFFFFFF AND DUP2 MSTORE PUSH1 0x20 ADD PUSH1 0x7 DUP3 ADD SLOAD DUP2 MSTORE PUSH1 0x20 ADD PUSH1 0x8 DUP3 ADD PUSH1 0x0 SWAP1 SLOAD SWAP1 PUSH2 0x100 EXP SWAP1 DIV PUSH1 0xFF AND PUSH1 0x2 DUP2 GT ISZERO PUSH2 0x40F JUMPI PUSH2 0x40E PUSH2 0xB56 JUMP JUMPDEST JUMPDEST PUSH1 0x2 DUP2 GT ISZERO PUSH2 0x421 JUMPI PUSH2 0x420 PUSH2 0xB56 JUMP JUMPDEST JUMPDEST DUP2 MSTORE POP POP SWAP1 POP SWAP2 SWAP1 POP JUMP JUMPDEST PUSH1 0x1 DUP1 PUSH1 0x0 DUP4 DUP2 MSTORE PUSH1 0x20 ADD SWAP1 DUP2 MSTORE PUSH1 0x20 ADD PUSH1 0x0 KECCAK256 PUSH1 0x8 ADD PUSH1 0x0 PUSH2 0x100 EXP DUP2 SLOAD DUP2 PUSH1 0xFF MUL NOT AND SWAP1 DUP4 PUSH1 0x2 DUP2 GT ISZERO PUSH2 0x465 JUMPI PUSH2 0x464 PUSH2 0xB56 JUMP JUMPDEST JUMPDEST MUL OR SWAP1 SSTORE POP PUSH32 0x1F5D616C2E1670EDAD5D1F2CE72C07BD219EBEFBAE35617F57D8234964FC2743 DUP2 TIMESTAMP PUSH1 0x40 MLOAD PUSH2 0x49B SWAP3 SWAP2 SWAP1 PUSH2 0x107A JUMP JUMPDEST PUSH1 0x40 MLOAD DUP1 SWAP2 SUB SWAP1 LOG1 POP JUMP JUMPDEST PUSH1 0x1 PUSH1 0x20 MSTORE DUP1 PUSH1 0x0 MSTORE PUSH1 0x40 PUSH1 0x0 KECCAK256 PUSH1 0x0 SWAP2 POP SWAP1 POP DUP1 PUSH1 0x0 ADD SLOAD SWAP1 DUP1 PUSH1 0x1 ADD DUP1 SLOAD PUSH2 0x4CF SWAP1 PUSH2 0x1049 JUMP JUMPDEST DUP1 PUSH1 0x1F ADD PUSH1 0x20 DUP1 SWAP2 DIV MUL PUSH1 0x20 ADD PUSH1 0x40 MLOAD SWAP1 DUP2 ADD PUSH1 0x40 MSTORE DUP1 SWAP3 SWAP2 SWAP1 DUP2 DUP2 MSTORE PUSH1 0x20 ADD DUP3 DUP1 SLOAD PUSH2 0x4FB SWAP1 PUSH2 0x1049 JUMP JUMPDEST DUP1 ISZERO PUSH2 0x548 JUMPI DUP1 PUSH1 0x1F LT PUSH2 0x51D JUMPI PUSH2 0x100 DUP1 DUP4 SLOAD DIV MUL DUP4 MSTORE SWAP2 PUSH1 0x20 ADD SWAP2 PUSH2 0x548 JUMP JUMPDEST DUP3 ADD SWAP2 SWAP1 PUSH1 0x0 MSTORE PUSH1 0x20 PUSH1 0x0 KECCAK256 SWAP1 JUMPDEST DUP2 SLOAD DUP2 MSTORE SWAP1 PUSH1 0x1 ADD SWAP1 PUSH1 0x20 ADD DUP1 DUP4 GT PUSH2 0x52B JUMPI DUP3 SWAP1 SUB PUSH1 0x1F AND DUP3 ADD SWAP2 JUMPDEST POP POP POP POP POP SWAP1 DUP1 PUSH1 0x2 ADD PUSH1 0x0 SWAP1 SLOAD SWAP1 PUSH2 0x100 EXP SWAP1 DIV PUSH20 0xFFFFFFFFFFFFFFFFFFFFFFFFFFFFFFFFFFFFFFFF AND SWAP1 DUP1 PUSH1 0x3 ADD SLOAD SWAP1 DUP1 PUSH1 0x4 ADD SLOAD SWAP1 DUP1 PUSH1 0x5 ADD SLOAD SWAP1 DUP1 PUSH1 0x6 ADD PUSH1 0x0 SWAP1 SLOAD SWAP1 PUSH2 0x100 EXP SWAP1 DIV PUSH20 0xFFFFFFFFFFFFFFFFFFFFFFFFFFFFFFFFFFFFFFFF AND SWAP1 DUP1 PUSH1 0x7 ADD SLOAD SWAP1 DUP1 PUSH1 0x8 ADD PUSH1 0x0 SWAP1 SLOAD SWAP1 PUSH2 0x100 EXP SWAP1 DIV PUSH1 0xFF AND SWAP1 POP DUP10 JUMP JUMPDEST PUSH1 0x0 DUP1 SLOAD SWAP1 POP PUSH1 0x40 MLOAD DUP1 PUSH2 0x120 ADD PUSH1 0x40 MSTORE DUP1 DUP8 DUP2 MSTORE PUSH1 0x20 ADD DUP7 DUP2 MSTORE PUSH1 0x20 ADD DUP6 PUSH20 0xFFFFFFFFFFFFFFFFFFFFFFFFFFFFFFFFFFFFFFFF AND DUP2 MSTORE PUSH1 0x20 ADD DUP5 DUP2 MSTORE PUSH1 0x20 ADD DUP4 DUP2 MSTORE PUSH1 0x20 ADD TIMESTAMP DUP2 MSTORE PUSH1 0x20 ADD CALLER PUSH20 0xFFFFFFFFFFFFFFFFFFFFFFFFFFFFFFFFFFFFFFFF AND DUP2 MSTORE PUSH1 0x20 ADD PUSH1 0x0 DUP2 MSTORE PUSH1 0x20 ADD PUSH1 0x0 PUSH1 0x2 DUP2 GT ISZERO PUSH2 0x64C JUMPI PUSH2 0x64B PUSH2 0xB56 JUMP JUMPDEST JUMPDEST DUP2 MSTORE POP PUSH1 0x1 PUSH1 0x0 DUP4 DUP2 MSTORE PUSH1 0x20 ADD SWAP1 DUP2 MSTORE PUSH1 0x20 ADD PUSH1 0x0 KECCAK256 PUSH1 0x0 DUP3 ADD MLOAD DUP2 PUSH1 0x0 ADD SSTORE PUSH1 0x20 DUP3 ADD MLOAD DUP2 PUSH1 0x1 ADD SWAP1 DUP1 MLOAD SWAP1 PUSH1 0x20 ADD SWAP1 PUSH2 0x688 SWAP3 SWAP2 SWAP1 PUSH2 0x861 JUMP JUMPDEST POP PUSH1 0x40 DUP3 ADD MLOAD DUP2 PUSH1 0x2 ADD PUSH1 0x0 PUSH2 0x100 EXP DUP2 SLOAD DUP2 PUSH20 0xFFFFFFFFFFFFFFFFFFFFFFFFFFFFFFFFFFFFFFFF MUL NOT AND SWAP1 DUP4 PUSH20 0xFFFFFFFFFFFFFFFFFFFFFFFFFFFFFFFFFFFFFFFF AND MUL OR SWAP1 SSTORE POP PUSH1 0x60 DUP3 ADD MLOAD DUP2 PUSH1 0x3 ADD SSTORE PUSH1 0x80 DUP3 ADD MLOAD DUP2 PUSH1 0x4 ADD SSTORE PUSH1 0xA0 DUP3 ADD MLOAD DUP2 PUSH1 0x5 ADD SSTORE PUSH1 0xC0 DUP3 ADD MLOAD DUP2 PUSH1 0x6 ADD PUSH1 0x0 PUSH2 0x100 EXP DUP2 SLOAD DUP2 PUSH20 0xFFFFFFFFFFFFFFFFFFFFFFFFFFFFFFFFFFFFFFFF MUL NOT AND SWAP1 DUP4 PUSH20 0xFFFFFFFFFFFFFFFFFFFFFFFFFFFFFFFFFFFFFFFF AND MUL OR SWAP1 SSTORE POP PUSH1 0xE0 DUP3 ADD MLOAD DUP2 PUSH1 0x7 ADD SSTORE PUSH2 0x100 DUP3 ADD MLOAD DUP2 PUSH1 0x8 ADD PUSH1 0x0 PUSH2 0x100 EXP DUP2 SLOAD DUP2 PUSH1 0xFF MUL NOT AND SWAP1 DUP4 PUSH1 0x2 DUP2 GT ISZERO PUSH2 0x76B JUMPI PUSH2 0x76A PUSH2 0xB56 JUMP JUMPDEST JUMPDEST MUL OR SWAP1 SSTORE POP SWAP1 POP POP PUSH1 0x1 PUSH1 0x0 DUP1 DUP3 DUP3 SLOAD PUSH2 0x785 SWAP2 SWAP1 PUSH2 0x10D2 JUMP JUMPDEST SWAP3 POP POP DUP2 SWAP1 SSTORE POP PUSH32 0x30B5BFD849DF20E3E537CF95D7077E1AA0FCD8CC44832C6ABD42DA4534099F36 DUP2 DUP8 DUP8 TIMESTAMP CALLER PUSH1 0x40 MLOAD PUSH2 0x7C3 SWAP6 SWAP5 SWAP4 SWAP3 SWAP2 SWAP1 PUSH2 0x1128 JUMP JUMPDEST PUSH1 0x40 MLOAD DUP1 SWAP2 SUB SWAP1 LOG1 SWAP6 SWAP5 POP POP POP POP POP JUMP JUMPDEST PUSH1 0x40 MLOAD DUP1 PUSH2 0x120 ADD PUSH1 0x40 MSTORE DUP1 PUSH1 0x0 DUP1 NOT AND DUP2 MSTORE PUSH1 0x20 ADD PUSH1 0x60 DUP2 MSTORE PUSH1 0x20 ADD PUSH1 0x0 PUSH20 0xFFFFFFFFFFFFFFFFFFFFFFFFFFFFFFFFFFFFFFFF AND DUP2 MSTORE PUSH1 0x20 ADD PUSH1 0x0 DUP2 MSTORE PUSH1 0x20 ADD PUSH1 0x0 DUP2 MSTORE PUSH1 0x20 ADD PUSH1 0x0 DUP2 MSTORE PUSH1 0x20 ADD PUSH1 0x0 PUSH20 0xFFFFFFFFFFFFFFFFFFFFFFFFFFFFFFFFFFFFFFFF AND DUP2 MSTORE PUSH1 0x20 ADD PUSH1 0x0 DUP2 MSTORE PUSH1 0x20 ADD PUSH1 0x0 PUSH1 0x2 DUP2 GT ISZERO PUSH2 0x85B JUMPI PUSH2 0x85A PUSH2 0xB56 JUMP JUMPDEST JUMPDEST DUP2 MSTORE POP SWAP1 JUMP JUMPDEST DUP3 DUP1 SLOAD PUSH2 0x86D SWAP1 PUSH2 0x1049 JUMP JUMPDEST SWAP1 PUSH1 0x0 MSTORE PUSH1 0x20 PUSH1 0x0 KECCAK256 SWAP1 PUSH1 0x1F ADD PUSH1 0x20 SWAP1 DIV DUP2 ADD SWAP3 DUP3 PUSH2 0x88F JUMPI PUSH1 0x0 DUP6 SSTORE PUSH2 0x8D6 JUMP JUMPDEST DUP3 PUSH1 0x1F LT PUSH2 0x8A8 JUMPI DUP1 MLOAD PUSH1 0xFF NOT AND DUP4 DUP1 ADD OR DUP6 SSTORE PUSH2 0x8D6 JUMP JUMPDEST DUP3 DUP1 ADD PUSH1 0x1 ADD DUP6 SSTORE DUP3 ISZERO PUSH2 0x8D6 JUMPI SWAP2 DUP3 ADD JUMPDEST DUP3 DUP2 GT ISZERO PUSH2 0x8D5 JUMPI DUP3 MLOAD DUP3 SSTORE SWAP2 PUSH1 0x20 ADD SWAP2 SWAP1 PUSH1 0x1 ADD SWAP1 PUSH2 0x8BA JUMP JUMPDEST JUMPDEST POP SWAP1 POP PUSH2 0x8E3 SWAP2 SWAP1 PUSH2 0x8E7 JUMP JUMPDEST POP SWAP1 JUMP JUMPDEST JUMPDEST DUP1 DUP3 GT ISZERO PUSH2 0x900 JUMPI PUSH1 0x0 DUP2 PUSH1 0x0 SWAP1 SSTORE POP PUSH1 0x1 ADD PUSH2 0x8E8 JUMP JUMPDEST POP SWAP1 JUMP JUMPDEST PUSH1 0x0 PUSH1 0x40 MLOAD SWAP1 POP SWAP1 JUMP JUMPDEST PUSH1 0x0 DUP1 REVERT JUMPDEST PUSH1 0x0 DUP1 REVERT JUMPDEST PUSH1 0x0 DUP2 SWAP1 POP SWAP2 SWAP1 POP JUMP JUMPDEST PUSH2 0x92B DUP2 PUSH2 0x918 JUMP JUMPDEST DUP2 EQ PUSH2 0x936 JUMPI PUSH1 0x0 DUP1 REVERT JUMPDEST POP JUMP JUMPDEST PUSH1 0x0 DUP2 CALLDATALOAD SWAP1 POP PUSH2 0x948 DUP2 PUSH2 0x922 JUMP JUMPDEST SWAP3 SWAP2 POP POP JUMP JUMPDEST PUSH1 0x0 PUSH1 0x20 DUP3 DUP5 SUB SLT ISZERO PUSH2 0x964 JUMPI PUSH2 0x963 PUSH2 0x90E JUMP JUMPDEST JUMPDEST PUSH1 0x0 PUSH2 0x972 DUP5 DUP3 DUP6 ADD PUSH2 0x939 JUMP JUMPDEST SWAP2 POP POP SWAP3 SWAP2 POP POP JUMP JUMPDEST PUSH1 0x0 DUP2 SWAP1 POP SWAP2 SWAP1 POP JUMP JUMPDEST PUSH2 0x98E DUP2 PUSH2 0x97B JUMP JUMPDEST DUP3 MSTORE POP POP JUMP JUMPDEST PUSH1 0x0 PUSH1 0x20 DUP3 ADD SWAP1 POP PUSH2 0x9A9 PUSH1 0x0 DUP4 ADD DUP5 PUSH2 0x985 JUMP JUMPDEST SWAP3 SWAP2 POP POP JUMP JUMPDEST PUSH2 0x9B8 DUP2 PUSH2 0x918 JUMP JUMPDEST DUP3 MSTORE POP POP JUMP JUMPDEST PUSH1 0x0 PUSH1 0x20 DUP3 ADD SWAP1 POP PUSH2 0x9D3 PUSH1 0x0 DUP4 ADD DUP5 PUSH2 0x9AF JUMP JUMPDEST SWAP3 SWAP2 POP POP JUMP JUMPDEST PUSH2 0x9E2 DUP2 PUSH2 0x97B JUMP JUMPDEST DUP2 EQ PUSH2 0x9ED JUMPI PUSH1 0x0 DUP1 REVERT JUMPDEST POP JUMP JUMPDEST PUSH1 0x0 DUP2 CALLDATALOAD SWAP1 POP PUSH2 0x9FF DUP2 PUSH2 0x9D9 JUMP JUMPDEST SWAP3 SWAP2 POP POP JUMP JUMPDEST PUSH1 0x0 DUP1 PUSH1 0x40 DUP4 DUP6 SUB SLT ISZERO PUSH2 0xA1C JUMPI PUSH2 0xA1B PUSH2 0x90E JUMP JUMPDEST JUMPDEST PUSH1 0x0 PUSH2 0xA2A DUP6 DUP3 DUP7 ADD PUSH2 0x939 JUMP JUMPDEST SWAP3 POP POP PUSH1 0x20 PUSH2 0xA3B DUP6 DUP3 DUP7 ADD PUSH2 0x9F0 JUMP JUMPDEST SWAP2 POP POP SWAP3 POP SWAP3 SWAP1 POP JUMP JUMPDEST PUSH1 0x0 DUP2 SWAP1 POP SWAP2 SWAP1 POP JUMP JUMPDEST PUSH2 0xA58 DUP2 PUSH2 0xA45 JUMP JUMPDEST DUP3 MSTORE POP POP JUMP JUMPDEST PUSH1 0x0 DUP2 MLOAD SWAP1 POP SWAP2 SWAP1 POP JUMP JUMPDEST PUSH1 0x0 DUP3 DUP3 MSTORE PUSH1 0x20 DUP3 ADD SWAP1 POP SWAP3 SWAP2 POP POP JUMP JUMPDEST PUSH1 0x0 JUMPDEST DUP4 DUP2 LT ISZERO PUSH2 0xA98 JUMPI DUP1 DUP3 ADD MLOAD DUP2 DUP5 ADD MSTORE PUSH1 0x20 DUP2 ADD SWAP1 POP PUSH2 0xA7D JUMP JUMPDEST DUP4 DUP2 GT ISZERO PUSH2 0xAA7 JUMPI PUSH1 0x0 DUP5 DUP5 ADD MSTORE JUMPDEST POP POP POP POP JUMP JUMPDEST PUSH1 0x0 PUSH1 0x1F NOT PUSH1 0x1F DUP4 ADD AND SWAP1 POP SWAP2 SWAP1 POP JUMP JUMPDEST PUSH1 0x0 PUSH2 0xAC9 DUP3 PUSH2 0xA5E JUMP JUMPDEST PUSH2 0xAD3 DUP2 DUP6 PUSH2 0xA69 JUMP JUMPDEST SWAP4 POP PUSH2 0xAE3 DUP2 DUP6 PUSH1 0x20 DUP7 ADD PUSH2 0xA7A JUMP JUMPDEST PUSH2 0xAEC DUP2 PUSH2 0xAAD JUMP JUMPDEST DUP5 ADD SWAP2 POP POP SWAP3 SWAP2 POP POP JUMP JUMPDEST PUSH1 0x0 PUSH20 0xFFFFFFFFFFFFFFFFFFFFFFFFFFFFFFFFFFFFFFFF DUP3 AND SWAP1 POP SWAP2 SWAP1 POP JUMP JUMPDEST PUSH1 0x0 PUSH2 0xB22 DUP3 PUSH2 0xAF7 JUMP JUMPDEST SWAP1 POP SWAP2 SWAP1 POP JUMP JUMPDEST PUSH2 0xB32 DUP2 PUSH2 0xB17 JUMP JUMPDEST DUP3 MSTORE POP POP JUMP JUMPDEST PUSH2 0xB41 DUP2 PUSH2 0x918 JUMP JUMPDEST DUP3 MSTORE POP POP JUMP JUMPDEST PUSH2 0xB50 DUP2 PUSH2 0x97B JUMP JUMPDEST DUP3 MSTORE POP POP JUMP JUMPDEST PUSH32 0x4E487B7100000000000000000000000000000000000000000000000000000000 PUSH1 0x0 MSTORE PUSH1 0x21 PUSH1 0x4 MSTORE PUSH1 0x24 PUSH1 0x0 REVERT JUMPDEST PUSH1 0x3 DUP2 LT PUSH2 0xB96 JUMPI PUSH2 0xB95 PUSH2 0xB56 JUMP JUMPDEST JUMPDEST POP JUMP JUMPDEST PUSH1 0x0 DUP2 SWAP1 POP PUSH2 0xBA7 DUP3 PUSH2 0xB85 JUMP JUMPDEST SWAP2 SWAP1 POP JUMP JUMPDEST PUSH1 0x0 PUSH2 0xBB7 DUP3 PUSH2 0xB99 JUMP JUMPDEST SWAP1 POP SWAP2 SWAP1 POP JUMP JUMPDEST PUSH2 0xBC7 DUP2 PUSH2 0xBAC JUMP JUMPDEST DUP3 MSTORE POP POP JUMP JUMPDEST PUSH1 0x0 PUSH2 0x120 DUP4 ADD PUSH1 0x0 DUP4 ADD MLOAD PUSH2 0xBE6 PUSH1 0x0 DUP7 ADD DUP3 PUSH2 0xA4F JUMP JUMPDEST POP PUSH1 0x20 DUP4 ADD MLOAD DUP5 DUP3 SUB PUSH1 0x20 DUP7 ADD MSTORE PUSH2 0xBFE DUP3 DUP3 PUSH2 0xABE JUMP JUMPDEST SWAP2 POP POP PUSH1 0x40 DUP4 ADD MLOAD PUSH2 0xC13 PUSH1 0x40 DUP7 ADD DUP3 PUSH2 0xB29 JUMP JUMPDEST POP PUSH1 0x60 DUP4 ADD MLOAD PUSH2 0xC26 PUSH1 0x60 DUP7 ADD DUP3 PUSH2 0xB38 JUMP JUMPDEST POP PUSH1 0x80 DUP4 ADD MLOAD PUSH2 0xC39 PUSH1 0x80 DUP7 ADD DUP3 PUSH2 0xB38 JUMP JUMPDEST POP PUSH1 0xA0 DUP4 ADD MLOAD PUSH2 0xC4C PUSH1 0xA0 DUP7 ADD DUP3 PUSH2 0xB38 JUMP JUMPDEST POP PUSH1 0xC0 DUP4 ADD MLOAD PUSH2 0xC5F PUSH1 0xC0 DUP7 ADD DUP3 PUSH2 0xB29 JUMP JUMPDEST POP PUSH1 0xE0 DUP4 ADD MLOAD PUSH2 0xC72 PUSH1 0xE0 DUP7 ADD DUP3 PUSH2 0xB47 JUMP JUMPDEST POP PUSH2 0x100 DUP4 ADD MLOAD PUSH2 0xC87 PUSH2 0x100 DUP7 ADD DUP3 PUSH2 0xBBE JUMP JUMPDEST POP DUP1 SWAP2 POP POP SWAP3 SWAP2 POP POP JUMP JUMPDEST PUSH1 0x0 PUSH1 0x20 DUP3 ADD SWAP1 POP DUP2 DUP2 SUB PUSH1 0x0 DUP4 ADD MSTORE PUSH2 0xCAC DUP2 DUP5 PUSH2 0xBCD JUMP JUMPDEST SWAP1 POP SWAP3 SWAP2 POP POP JUMP JUMPDEST PUSH2 0xCBD DUP2 PUSH2 0xA45 JUMP JUMPDEST DUP3 MSTORE POP POP JUMP JUMPDEST PUSH1 0x0 DUP3 DUP3 MSTORE PUSH1 0x20 DUP3 ADD SWAP1 POP SWAP3 SWAP2 POP POP JUMP JUMPDEST PUSH1 0x0 PUSH2 0xCDF DUP3 PUSH2 0xA5E JUMP JUMPDEST PUSH2 0xCE9 DUP2 DUP6 PUSH2 0xCC3 JUMP JUMPDEST SWAP4 POP PUSH2 0xCF9 DUP2 DUP6 PUSH1 0x20 DUP7 ADD PUSH2 0xA7A JUMP JUMPDEST PUSH2 0xD02 DUP2 PUSH2 0xAAD JUMP JUMPDEST DUP5 ADD SWAP2 POP POP SWAP3 SWAP2 POP POP JUMP JUMPDEST PUSH2 0xD16 DUP2 PUSH2 0xB17 JUMP JUMPDEST DUP3 MSTORE POP POP JUMP JUMPDEST PUSH2 0xD25 DUP2 PUSH2 0xBAC JUMP JUMPDEST DUP3 MSTORE POP POP JUMP JUMPDEST PUSH1 0x0 PUSH2 0x120 DUP3 ADD SWAP1 POP PUSH2 0xD41 PUSH1 0x0 DUP4 ADD DUP13 PUSH2 0xCB4 JUMP JUMPDEST DUP2 DUP2 SUB PUSH1 0x20 DUP4 ADD MSTORE PUSH2 0xD53 DUP2 DUP12 PUSH2 0xCD4 JUMP JUMPDEST SWAP1 POP PUSH2 0xD62 PUSH1 0x40 DUP4 ADD DUP11 PUSH2 0xD0D JUMP JUMPDEST PUSH2 0xD6F PUSH1 0x60 DUP4 ADD DUP10 PUSH2 0x9AF JUMP JUMPDEST PUSH2 0xD7C PUSH1 0x80 DUP4 ADD DUP9 PUSH2 0x9AF JUMP JUMPDEST PUSH2 0xD89 PUSH1 0xA0 DUP4 ADD DUP8 PUSH2 0x9AF JUMP JUMPDEST PUSH2 0xD96 PUSH1 0xC0 DUP4 ADD DUP7 PUSH2 0xD0D JUMP JUMPDEST PUSH2 0xDA3 PUSH1 0xE0 DUP4 ADD DUP6 PUSH2 0x985 JUMP JUMPDEST PUSH2 0xDB1 PUSH2 0x100 DUP4 ADD DUP5 PUSH2 0xD1C JUMP JUMPDEST SWAP11 SWAP10 POP POP POP POP POP POP POP POP POP POP JUMP JUMPDEST PUSH2 0xDC8 DUP2 PUSH2 0xA45 JUMP JUMPDEST DUP2 EQ PUSH2 0xDD3 JUMPI PUSH1 0x0 DUP1 REVERT JUMPDEST POP JUMP JUMPDEST PUSH1 0x0 DUP2 CALLDATALOAD SWAP1 POP PUSH2 0xDE5 DUP2 PUSH2 0xDBF JUMP JUMPDEST SWAP3 SWAP2 POP POP JUMP JUMPDEST PUSH1 0x0 DUP1 REVERT JUMPDEST PUSH1 0x0 DUP1 REVERT JUMPDEST PUSH32 0x4E487B7100000000000000000000000000000000000000000000000000000000 PUSH1 0x0 MSTORE PUSH1 0x41 PUSH1 0x4 MSTORE PUSH1 0x24 PUSH1 0x0 REVERT JUMPDEST PUSH2 0xE2D DUP3 PUSH2 0xAAD JUMP JUMPDEST DUP2 ADD DUP2 DUP2 LT PUSH8 0xFFFFFFFFFFFFFFFF DUP3 GT OR ISZERO PUSH2 0xE4C JUMPI PUSH2 0xE4B PUSH2 0xDF5 JUMP JUMPDEST JUMPDEST DUP1 PUSH1 0x40 MSTORE POP POP POP JUMP JUMPDEST PUSH1 0x0 PUSH2 0xE5F PUSH2 0x904 JUMP JUMPDEST SWAP1 POP PUSH2 0xE6B DUP3 DUP3 PUSH2 0xE24 JUMP JUMPDEST SWAP2 SWAP1 POP JUMP JUMPDEST PUSH1 0x0 PUSH8 0xFFFFFFFFFFFFFFFF DUP3 GT ISZERO PUSH2 0xE8B JUMPI PUSH2 0xE8A PUSH2 0xDF5 JUMP JUMPDEST JUMPDEST PUSH2 0xE94 DUP3 PUSH2 0xAAD JUMP JUMPDEST SWAP1 POP PUSH1 0x20 DUP2 ADD SWAP1 POP SWAP2 SWAP1 POP JUMP JUMPDEST DUP3 DUP2 DUP4 CALLDATACOPY PUSH1 0x0 DUP4 DUP4 ADD MSTORE POP POP POP JUMP JUMPDEST PUSH1 0x0 PUSH2 0xEC3 PUSH2 0xEBE DUP5 PUSH2 0xE70 JUMP JUMPDEST PUSH2 0xE55 JUMP JUMPDEST SWAP1 POP DUP3 DUP2 MSTORE PUSH1 0x20 DUP2 ADD DUP5 DUP5 DUP5 ADD GT ISZERO PUSH2 0xEDF JUMPI PUSH2 0xEDE PUSH2 0xDF0 JUMP JUMPDEST JUMPDEST PUSH2 0xEEA DUP5 DUP3 DUP6 PUSH2 0xEA1 JUMP JUMPDEST POP SWAP4 SWAP3 POP POP POP JUMP JUMPDEST PUSH1 0x0 DUP3 PUSH1 0x1F DUP4 ADD SLT PUSH2 0xF07 JUMPI PUSH2 0xF06 PUSH2 0xDEB JUMP JUMPDEST JUMPDEST DUP2 CALLDATALOAD PUSH2 0xF17 DUP5 DUP3 PUSH1 0x20 DUP7 ADD PUSH2 0xEB0 JUMP JUMPDEST SWAP2 POP POP SWAP3 SWAP2 POP POP JUMP JUMPDEST PUSH2 0xF29 DUP2 PUSH2 0xB17 JUMP JUMPDEST DUP2 EQ PUSH2 0xF34 JUMPI PUSH1 0x0 DUP1 REVERT JUMPDEST POP JUMP JUMPDEST PUSH1 0x0 DUP2 CALLDATALOAD SWAP1 POP PUSH2 0xF46 DUP2 PUSH2 0xF20 JUMP JUMPDEST SWAP3 SWAP2 POP POP JUMP JUMPDEST PUSH1 0x0 DUP1 PUSH1 0x0 DUP1 PUSH1 0x0 PUSH1 0xA0 DUP7 DUP9 SUB SLT ISZERO PUSH2 0xF68 JUMPI PUSH2 0xF67 PUSH2 0x90E JUMP JUMPDEST JUMPDEST PUSH1 0x0 PUSH2 0xF76 DUP9 DUP3 DUP10 ADD PUSH2 0xDD6 JUMP JUMPDEST SWAP6 POP POP PUSH1 0x20 DUP7 ADD CALLDATALOAD PUSH8 0xFFFFFFFFFFFFFFFF DUP2 GT ISZERO PUSH2 0xF97 JUMPI PUSH2 0xF96 PUSH2 0x913 JUMP JUMPDEST JUMPDEST PUSH2 0xFA3 DUP9 DUP3 DUP10 ADD PUSH2 0xEF2 JUMP JUMPDEST SWAP5 POP POP PUSH1 0x40 PUSH2 0xFB4 DUP9 DUP3 DUP10 ADD PUSH2 0xF37 JUMP JUMPDEST SWAP4 POP POP PUSH1 0x60 PUSH2 0xFC5 DUP9 DUP3 DUP10 ADD PUSH2 0x939 JUMP JUMPDEST SWAP3 POP POP PUSH1 0x80 PUSH2 0xFD6 DUP9 DUP3 DUP10 ADD PUSH2 0x939 JUMP JUMPDEST SWAP2 POP POP SWAP3 SWAP6 POP SWAP3 SWAP6 SWAP1 SWAP4 POP JUMP JUMPDEST PUSH1 0x0 PUSH1 0x60 DUP3 ADD SWAP1 POP PUSH2 0xFF8 PUSH1 0x0 DUP4 ADD DUP7 PUSH2 0x9AF JUMP JUMPDEST PUSH2 0x1005 PUSH1 0x20 DUP4 ADD DUP6 PUSH2 0x985 JUMP JUMPDEST PUSH2 0x1012 PUSH1 0x40 DUP4 ADD DUP5 PUSH2 0x9AF JUMP JUMPDEST SWAP5 SWAP4 POP POP POP POP JUMP JUMPDEST PUSH32 0x4E487B7100000000000000000000000000000000000000000000000000000000 PUSH1 0x0 MSTORE PUSH1 0x22 PUSH1 0x4 MSTORE PUSH1 0x24 PUSH1 0x0 REVERT JUMPDEST PUSH1 0x0 PUSH1 0x2 DUP3 DIV SWAP1 POP PUSH1 0x1 DUP3 AND DUP1 PUSH2 0x1061 JUMPI PUSH1 0x7F DUP3 AND SWAP2 POP JUMPDEST PUSH1 0x20 DUP3 LT DUP2 SUB PUSH2 0x1074 JUMPI PUSH2 0x1073 PUSH2 0x101A JUMP JUMPDEST JUMPDEST POP SWAP2 SWAP1 POP JUMP JUMPDEST PUSH1 0x0 PUSH1 0x40 DUP3 ADD SWAP1 POP PUSH2 0x108F PUSH1 0x0 DUP4 ADD DUP6 PUSH2 0x9AF JUMP JUMPDEST PUSH2 0x109C PUSH1 0x20 DUP4 ADD DUP5 PUSH2 0x9AF JUMP JUMPDEST SWAP4 SWAP3 POP POP POP JUMP JUMPDEST PUSH32 0x4E487B7100000000000000000000000000000000000000000000000000000000 PUSH1 0x0 MSTORE PUSH1 0x11 PUSH1 0x4 MSTORE PUSH1 0x24 PUSH1 0x0 REVERT JUMPDEST PUSH1 0x0 PUSH2 0x10DD DUP3 PUSH2 0x918 JUMP JUMPDEST SWAP2 POP PUSH2 0x10E8 DUP4 PUSH2 0x918 JUMP JUMPDEST SWAP3 POP DUP3 PUSH32 0xFFFFFFFFFFFFFFFFFFFFFFFFFFFFFFFFFFFFFFFFFFFFFFFFFFFFFFFFFFFFFFFF SUB DUP3 GT ISZERO PUSH2 0x111D JUMPI PUSH2 0x111C PUSH2 0x10A3 JUMP JUMPDEST JUMPDEST DUP3 DUP3 ADD SWAP1 POP SWAP3 SWAP2 POP POP JUMP JUMPDEST PUSH1 0x0 PUSH1 0xA0 DUP3 ADD SWAP1 POP PUSH2 0x113D PUSH1 0x0 DUP4 ADD DUP9 PUSH2 0x9AF JUMP JUMPDEST PUSH2 0x114A PUSH1 0x20 DUP4 ADD DUP8 PUSH2 0xCB4 JUMP JUMPDEST DUP2 DUP2 SUB PUSH1 0x40 DUP4 ADD MSTORE PUSH2 0x115C DUP2 DUP7 PUSH2 0xCD4 JUMP JUMPDEST SWAP1 POP PUSH2 0x116B PUSH1 0x60 DUP4 ADD DUP6 PUSH2 0x9AF JUMP JUMPDEST PUSH2 0x1178 PUSH1 0x80 DUP4 ADD DUP5 PUSH2 0xD0D JUMP JUMPDEST SWAP7 SWAP6 POP POP POP POP POP POP JUMP INVALID LOG2 PUSH5 0x6970667358 0x22 SLT KECCAK256 SWAP14 SWAP12 0xD2 DUP7 STATICCALL MSTORE8 0xE3 NUMBER 0xAC 0xCB 0xD2 0xCC ADD STOP 0xC8 0xEE SLT 0xB7 0x5C 0xBA 0xB3 0xC6 LT DUP7 0xDF DUP15 LOG0 0xCA SGT CALLDATACOPY 0xDC POP PUSH5 0x736F6C6343 STOP ADDMOD 0xE STOP CALLER "
				},
				"gasEstimates": {
					"creation": {
						"codeDepositCost": "907200",
						"executionCost": "23048",
						"totalCost": "930248"
					},
					"external": {
						"getRequest(uint256)": "infinite",
						"getRequestResult(uint256)": "2787",
						"ooRequests(uint256)": "infinite",
						"requestData(bytes32,bytes,address,uint256,uint256)": "infinite",
						"setRequestResult(uint256,int256)": "infinite",
						"settleRequest(uint256)": "infinite",
						"totalOORequests()": "2452"
					}
				},
				"methodIdentifiers": {
					"getRequest(uint256)": "c58343ef",
					"getRequestResult(uint256)": "5944427b",
					"ooRequests(uint256)": "f418ad7a",
					"requestData(bytes32,bytes,address,uint256,uint256)": "f84507ad",
					"setRequestResult(uint256,int256)": "b87c065f",
					"settleRequest(uint256)": "d247f92b",
					"totalOORequests()": "8a9cf5da"
				}
			},
			"storageLayout": {
				"storage": [
					{
						"astId": 5,
						"contract": "client-oracle/OptimisticOracleV2.sol:OptimisticOracleV2",
						"label": "totalOORequests",
						"offset": 0,
						"slot": "0",
						"type": "t_uint256"
					},
					{
						"astId": 34,
						"contract": "client-oracle/OptimisticOracleV2.sol:OptimisticOracleV2",
						"label": "ooRequests",
						"offset": 0,
						"slot": "1",
						"type": "t_mapping(t_uint256,t_struct(ooRequest)29_storage)"
					}
				],
				"types": {
					"t_address": {
						"encoding": "inplace",
						"label": "address",
						"numberOfBytes": "20"
					},
					"t_bytes32": {
						"encoding": "inplace",
						"label": "bytes32",
						"numberOfBytes": "32"
					},
					"t_bytes_storage": {
						"encoding": "bytes",
						"label": "bytes",
						"numberOfBytes": "32"
					},
					"t_enum(Status)9": {
						"encoding": "inplace",
						"label": "enum OptimisticOracleV2.Status",
						"numberOfBytes": "1"
					},
					"t_int256": {
						"encoding": "inplace",
						"label": "int256",
						"numberOfBytes": "32"
					},
					"t_mapping(t_uint256,t_struct(ooRequest)29_storage)": {
						"encoding": "mapping",
						"key": "t_uint256",
						"label": "mapping(uint256 => struct OptimisticOracleV2.ooRequest)",
						"numberOfBytes": "32",
						"value": "t_struct(ooRequest)29_storage"
					},
					"t_struct(ooRequest)29_storage": {
						"encoding": "inplace",
						"label": "struct OptimisticOracleV2.ooRequest",
						"members": [
							{
								"astId": 11,
								"contract": "client-oracle/OptimisticOracleV2.sol:OptimisticOracleV2",
								"label": "identifier",
								"offset": 0,
								"slot": "0",
								"type": "t_bytes32"
							},
							{
								"astId": 13,
								"contract": "client-oracle/OptimisticOracleV2.sol:OptimisticOracleV2",
								"label": "ancillaryData",
								"offset": 0,
								"slot": "1",
								"type": "t_bytes_storage"
							},
							{
								"astId": 15,
								"contract": "client-oracle/OptimisticOracleV2.sol:OptimisticOracleV2",
								"label": "bondCurrencyAddress",
								"offset": 0,
								"slot": "2",
								"type": "t_address"
							},
							{
								"astId": 17,
								"contract": "client-oracle/OptimisticOracleV2.sol:OptimisticOracleV2",
								"label": "reward",
								"offset": 0,
								"slot": "3",
								"type": "t_uint256"
							},
							{
								"astId": 19,
								"contract": "client-oracle/OptimisticOracleV2.sol:OptimisticOracleV2",
								"label": "livenessTime",
								"offset": 0,
								"slot": "4",
								"type": "t_uint256"
							},
							{
								"astId": 21,
								"contract": "client-oracle/OptimisticOracleV2.sol:OptimisticOracleV2",
								"label": "requestTime",
								"offset": 0,
								"slot": "5",
								"type": "t_uint256"
							},
							{
								"astId": 23,
								"contract": "client-oracle/OptimisticOracleV2.sol:OptimisticOracleV2",
								"label": "requester",
								"offset": 0,
								"slot": "6",
								"type": "t_address"
							},
							{
								"astId": 25,
								"contract": "client-oracle/OptimisticOracleV2.sol:OptimisticOracleV2",
								"label": "result",
								"offset": 0,
								"slot": "7",
								"type": "t_int256"
							},
							{
								"astId": 28,
								"contract": "client-oracle/OptimisticOracleV2.sol:OptimisticOracleV2",
								"label": "currentStatus",
								"offset": 0,
								"slot": "8",
								"type": "t_enum(Status)9"
							}
						],
						"numberOfBytes": "288"
					},
					"t_uint256": {
						"encoding": "inplace",
						"label": "uint256",
						"numberOfBytes": "32"
					}
				}
			},
			"userdoc": {
				"kind": "user",
				"methods": {},
				"notice": "Maybe we can add extra data ,like proposed Result , settled Result",
				"version": 1
			}
		}
	}
}