{
	"data": {
		"bytecode": {
			"linkReferences": {},
			"object": "60806040523480156200001157600080fd5b50604051620015b5380380620015b58339818101604052810190620000379190620000e8565b806000806101000a81548173ffffffffffffffffffffffffffffffffffffffff021916908373ffffffffffffffffffffffffffffffffffffffff160217905550506200011a565b600080fd5b600073ffffffffffffffffffffffffffffffffffffffff82169050919050565b6000620000b08262000083565b9050919050565b620000c281620000a3565b8114620000ce57600080fd5b50565b600081519050620000e281620000b7565b92915050565b6000602082840312156200010157620001006200007e565b5b60006200011184828501620000d1565b91505092915050565b61148b806200012a6000396000f3fe608060405234801561001057600080fd5b50600436106100575760003560e01c80631d99e1671461005c5780637d9a71241461008c5780638bde9aee146100bc578063adee9e00146100ec578063bb27bdec1461011c575b600080fd5b6100766004803603810190610071919061080b565b61014f565b6040516100839190610aa0565b60405180910390f35b6100a660048036038101906100a1919061080b565b610215565b6040516100b39190610acb565b60405180910390f35b6100d660048036038101906100d19190610c58565b6102d5565b6040516100e39190610cd6565b60405180910390f35b6101066004803603810190610101919061080b565b6104cd565b6040516101139190610acb565b60405180910390f35b6101366004803603810190610131919061080b565b61058b565b6040516101469493929190610d7f565b60405180910390f35b610157610683565b600060016000848152602001908152602001600020905060008054906101000a900473ffffffffffffffffffffffffffffffffffffffff1673ffffffffffffffffffffffffffffffffffffffff16638830288482600001546040518263ffffffff1660e01b81526004016101cb9190610cd6565b61020060405180830381865afa1580156101e9573d6000803e3d6000fd5b505050506040513d601f19601f8201168201806040525081019061020d919061106e565b915050919050565b60008060016000848152602001908152602001600020905060008054906101000a900473ffffffffffffffffffffffffffffffffffffffff1673ffffffffffffffffffffffffffffffffffffffff16638ea2f2ab82600001546040518263ffffffff1660e01b815260040161028a9190610cd6565b6020604051808303816000875af11580156102a9573d6000803e3d6000fd5b505050506040513d601f19601f820116820180604052508101906102cd919061109c565b915050919050565b60008060009054906101000a900473ffffffffffffffffffffffffffffffffffffffff1673ffffffffffffffffffffffffffffffffffffffff166336b13af484306040518363ffffffff1660e01b81526004016103339291906110c9565b6020604051808303816000875af1158015610352573d6000803e3d6000fd5b505050506040513d601f19601f8201168201806040525081019061037691906110f9565b905060405180608001604052808281526020018481526020018373ffffffffffffffffffffffffffffffffffffffff1681526020013373ffffffffffffffffffffffffffffffffffffffff16815250600160008681526020019081526020016000206000820151816000015560208201518160010190816103f79190611328565b5060408201518160020160006101000a81548173ffffffffffffffffffffffffffffffffffffffff021916908373ffffffffffffffffffffffffffffffffffffffff16021790555060608201518160030160006101000a81548173ffffffffffffffffffffffffffffffffffffffff021916908373ffffffffffffffffffffffffffffffffffffffff1602179055509050507f6742d89113434a0e223f6f67176dcfb8c82efc4bc2a686a7d3858e01a0dbd275848285426040516104be9493929190611409565b60405180910390a19392505050565b60008060016000848152602001908152602001600020905060008054906101000a900473ffffffffffffffffffffffffffffffffffffffff1673ffffffffffffffffffffffffffffffffffffffff1663e39dfd7f82600001546040518263ffffffff1660e01b81526004016105429190610cd6565b602060405180830381865afa15801561055f573d6000803e3d6000fd5b505050506040513d601f19601f82011682018060405250810190610583919061109c565b915050919050565b60016020528060005260406000206000915090508060000154908060010180546105b490611155565b80601f01602080910402602001604051908101604052809291908181526020018280546105e090611155565b801561062d5780601f106106025761010080835404028352916020019161062d565b820191906000526020600020905b81548152906001019060200180831161061057829003601f168201915b5050505050908060020160009054906101000a900473ffffffffffffffffffffffffffffffffffffffff16908060030160009054906101000a900473ffffffffffffffffffffffffffffffffffffffff16905084565b604051806101800160405280610697610760565b8152602001600073ffffffffffffffffffffffffffffffffffffffff168152602001600067ffffffffffffffff168152602001600015158152602001600073ffffffffffffffffffffffffffffffffffffffff168152602001600067ffffffffffffffff168152602001600015158152602001600080191681526020016000801916815260200160008152602001600073ffffffffffffffffffffffffffffffffffffffff168152602001600073ffffffffffffffffffffffffffffffffffffffff1681525090565b6040518060a00160405280600015158152602001600015158152602001600015158152602001600073ffffffffffffffffffffffffffffffffffffffff168152602001600073ffffffffffffffffffffffffffffffffffffffff1681525090565b6000604051905090565b600080fd5b600080fd5b6000819050919050565b6107e8816107d5565b81146107f357600080fd5b50565b600081359050610805816107df565b92915050565b600060208284031215610821576108206107cb565b5b600061082f848285016107f6565b91505092915050565b60008115159050919050565b61084d81610838565b82525050565b600073ffffffffffffffffffffffffffffffffffffffff82169050919050565b600061087e82610853565b9050919050565b61088e81610873565b82525050565b60a0820160008201516108aa6000850182610844565b5060208201516108bd6020850182610844565b5060408201516108d06040850182610844565b5060608201516108e36060850182610885565b5060808201516108f66080850182610885565b50505050565b600067ffffffffffffffff82169050919050565b610919816108fc565b82525050565b6000819050919050565b600061094461093f61093a84610853565b61091f565b610853565b9050919050565b600061095682610929565b9050919050565b60006109688261094b565b9050919050565b6109788161095d565b82525050565b6000819050919050565b6109918161097e565b82525050565b6109a0816107d5565b82525050565b610200820160008201516109bd6000850182610894565b5060208201516109d060a0850182610885565b5060408201516109e360c0850182610910565b5060608201516109f660e0850182610844565b506080820151610a0a61010085018261096f565b5060a0820151610a1e610120850182610910565b5060c0820151610a32610140850182610844565b5060e0820151610a46610160850182610988565b50610100820151610a5b610180850182610988565b50610120820151610a706101a0850182610997565b50610140820151610a856101c0850182610885565b50610160820151610a9a6101e0850182610885565b50505050565b600061020082019050610ab660008301846109a6565b92915050565b610ac581610838565b82525050565b6000602082019050610ae06000830184610abc565b92915050565b600080fd5b600080fd5b6000601f19601f8301169050919050565b7f4e487b7100000000000000000000000000000000000000000000000000000000600052604160045260246000fd5b610b3982610af0565b810181811067ffffffffffffffff82111715610b5857610b57610b01565b5b80604052505050565b6000610b6b6107c1565b9050610b778282610b30565b919050565b600067ffffffffffffffff821115610b9757610b96610b01565b5b610ba082610af0565b9050602081019050919050565b82818337600083830152505050565b6000610bcf610bca84610b7c565b610b61565b905082815260208101848484011115610beb57610bea610aeb565b5b610bf6848285610bad565b509392505050565b600082601f830112610c1357610c12610ae6565b5b8135610c23848260208601610bbc565b91505092915050565b610c3581610873565b8114610c4057600080fd5b50565b600081359050610c5281610c2c565b92915050565b600080600060608486031215610c7157610c706107cb565b5b6000610c7f868287016107f6565b935050602084013567ffffffffffffffff811115610ca057610c9f6107d0565b5b610cac86828701610bfe565b9250506040610cbd86828701610c43565b9150509250925092565b610cd08161097e565b82525050565b6000602082019050610ceb6000830184610cc7565b92915050565b600081519050919050565b600082825260208201905092915050565b60005b83811015610d2b578082015181840152602081019050610d10565b60008484015250505050565b6000610d4282610cf1565b610d4c8185610cfc565b9350610d5c818560208601610d0d565b610d6581610af0565b840191505092915050565b610d7981610873565b82525050565b6000608082019050610d946000830187610cc7565b8181036020830152610da68186610d37565b9050610db56040830185610d70565b610dc26060830184610d70565b95945050505050565b600080fd5b610dd981610838565b8114610de457600080fd5b50565b600081519050610df681610dd0565b92915050565b600081519050610e0b81610c2c565b92915050565b600060a08284031215610e2757610e26610dcb565b5b610e3160a0610b61565b90506000610e4184828501610de7565b6000830152506020610e5584828501610de7565b6020830152506040610e6984828501610de7565b6040830152506060610e7d84828501610dfc565b6060830152506080610e9184828501610dfc565b60808301525092915050565b610ea6816108fc565b8114610eb157600080fd5b50565b600081519050610ec381610e9d565b92915050565b6000610ed482610873565b9050919050565b610ee481610ec9565b8114610eef57600080fd5b50565b600081519050610f0181610edb565b92915050565b610f108161097e565b8114610f1b57600080fd5b50565b600081519050610f2d81610f07565b92915050565b600081519050610f42816107df565b92915050565b60006102008284031215610f5f57610f5e610dcb565b5b610f6a610180610b61565b90506000610f7a84828501610e11565b60008301525060a0610f8e84828501610dfc565b60208301525060c0610fa284828501610eb4565b60408301525060e0610fb684828501610de7565b606083015250610100610fcb84828501610ef2565b608083015250610120610fe084828501610eb4565b60a083015250610140610ff584828501610de7565b60c08301525061016061100a84828501610f1e565b60e08301525061018061101f84828501610f1e565b610100830152506101a061103584828501610f33565b610120830152506101c061104b84828501610dfc565b610140830152506101e061106184828501610dfc565b6101608301525092915050565b60006102008284031215611085576110846107cb565b5b600061109384828501610f48565b91505092915050565b6000602082840312156110b2576110b16107cb565b5b60006110c084828501610de7565b91505092915050565b600060408201905081810360008301526110e38185610d37565b90506110f26020830184610d70565b9392505050565b60006020828403121561110f5761110e6107cb565b5b600061111d84828501610f1e565b91505092915050565b7f4e487b7100000000000000000000000000000000000000000000000000000000600052602260045260246000fd5b6000600282049050600182168061116d57607f821691505b6020821081036111805761117f611126565b5b50919050565b60008190508160005260206000209050919050565b60006020601f8301049050919050565b600082821b905092915050565b6000600883026111e87fffffffffffffffffffffffffffffffffffffffffffffffffffffffffffffffff826111ab565b6111f286836111ab565b95508019841693508086168417925050509392505050565b600061122561122061121b846107d5565b61091f565b6107d5565b9050919050565b6000819050919050565b61123f8361120a565b61125361124b8261122c565b8484546111b8565b825550505050565b600090565b61126861125b565b611273818484611236565b505050565b5b818110156112975761128c600082611260565b600181019050611279565b5050565b601f8211156112dc576112ad81611186565b6112b68461119b565b810160208510156112c5578190505b6112d96112d18561119b565b830182611278565b50505b505050565b600082821c905092915050565b60006112ff600019846008026112e1565b1980831691505092915050565b600061131883836112ee565b9150826002028217905092915050565b61133182610cf1565b67ffffffffffffffff81111561134a57611349610b01565b5b6113548254611155565b61135f82828561129b565b600060209050601f8311600181146113925760008415611380578287015190505b61138a858261130c565b8655506113f2565b601f1984166113a086611186565b60005b828110156113c8578489015182556001820191506020850194506020810190506113a3565b868310156113e557848901516113e1601f8916826112ee565b8355505b6001600288020188555050505b505050505050565b611403816107d5565b82525050565b600060808201905061141e60008301876113fa565b61142b6020830186610cc7565b818103604083015261143d8185610d37565b905061144c60608301846113fa565b9594505050505056fea26469706673582212202d4fbfe4d59c7e0b20cdbf2ea2acb0e5030cf117d42a877ae3d3835ec0998d8564736f6c63430008100033",
			"opcodes": "PUSH1 0x80 PUSH1 0x40 MSTORE CALLVALUE DUP1 ISZERO PUSH3 0x11 JUMPI PUSH1 0x0 DUP1 REVERT JUMPDEST POP PUSH1 0x40 MLOAD PUSH3 0x15B5 CODESIZE SUB DUP1 PUSH3 0x15B5 DUP4 CODECOPY DUP2 DUP2 ADD PUSH1 0x40 MSTORE DUP2 ADD SWAP1 PUSH3 0x37 SWAP2 SWAP1 PUSH3 0xE8 JUMP JUMPDEST DUP1 PUSH1 0x0 DUP1 PUSH2 0x100 EXP DUP2 SLOAD DUP2 PUSH20 0xFFFFFFFFFFFFFFFFFFFFFFFFFFFFFFFFFFFFFFFF MUL NOT AND SWAP1 DUP4 PUSH20 0xFFFFFFFFFFFFFFFFFFFFFFFFFFFFFFFFFFFFFFFF AND MUL OR SWAP1 SSTORE POP POP PUSH3 0x11A JUMP JUMPDEST PUSH1 0x0 DUP1 REVERT JUMPDEST PUSH1 0x0 PUSH20 0xFFFFFFFFFFFFFFFFFFFFFFFFFFFFFFFFFFFFFFFF DUP3 AND SWAP1 POP SWAP2 SWAP1 POP JUMP JUMPDEST PUSH1 0x0 PUSH3 0xB0 DUP3 PUSH3 0x83 JUMP JUMPDEST SWAP1 POP SWAP2 SWAP1 POP JUMP JUMPDEST PUSH3 0xC2 DUP2 PUSH3 0xA3 JUMP JUMPDEST DUP2 EQ PUSH3 0xCE JUMPI PUSH1 0x0 DUP1 REVERT JUMPDEST POP JUMP JUMPDEST PUSH1 0x0 DUP2 MLOAD SWAP1 POP PUSH3 0xE2 DUP2 PUSH3 0xB7 JUMP JUMPDEST SWAP3 SWAP2 POP POP JUMP JUMPDEST PUSH1 0x0 PUSH1 0x20 DUP3 DUP5 SUB SLT ISZERO PUSH3 0x101 JUMPI PUSH3 0x100 PUSH3 0x7E JUMP JUMPDEST JUMPDEST PUSH1 0x0 PUSH3 0x111 DUP5 DUP3 DUP6 ADD PUSH3 0xD1 JUMP JUMPDEST SWAP2 POP POP SWAP3 SWAP2 POP POP JUMP JUMPDEST PUSH2 0x148B DUP1 PUSH3 0x12A PUSH1 0x0 CODECOPY PUSH1 0x0 RETURN INVALID PUSH1 0x80 PUSH1 0x40 MSTORE CALLVALUE DUP1 ISZERO PUSH2 0x10 JUMPI PUSH1 0x0 DUP1 REVERT JUMPDEST POP PUSH1 0x4 CALLDATASIZE LT PUSH2 0x57 JUMPI PUSH1 0x0 CALLDATALOAD PUSH1 0xE0 SHR DUP1 PUSH4 0x1D99E167 EQ PUSH2 0x5C JUMPI DUP1 PUSH4 0x7D9A7124 EQ PUSH2 0x8C JUMPI DUP1 PUSH4 0x8BDE9AEE EQ PUSH2 0xBC JUMPI DUP1 PUSH4 0xADEE9E00 EQ PUSH2 0xEC JUMPI DUP1 PUSH4 0xBB27BDEC EQ PUSH2 0x11C JUMPI JUMPDEST PUSH1 0x0 DUP1 REVERT JUMPDEST PUSH2 0x76 PUSH1 0x4 DUP1 CALLDATASIZE SUB DUP2 ADD SWAP1 PUSH2 0x71 SWAP2 SWAP1 PUSH2 0x80B JUMP JUMPDEST PUSH2 0x14F JUMP JUMPDEST PUSH1 0x40 MLOAD PUSH2 0x83 SWAP2 SWAP1 PUSH2 0xAA0 JUMP JUMPDEST PUSH1 0x40 MLOAD DUP1 SWAP2 SUB SWAP1 RETURN JUMPDEST PUSH2 0xA6 PUSH1 0x4 DUP1 CALLDATASIZE SUB DUP2 ADD SWAP1 PUSH2 0xA1 SWAP2 SWAP1 PUSH2 0x80B JUMP JUMPDEST PUSH2 0x215 JUMP JUMPDEST PUSH1 0x40 MLOAD PUSH2 0xB3 SWAP2 SWAP1 PUSH2 0xACB JUMP JUMPDEST PUSH1 0x40 MLOAD DUP1 SWAP2 SUB SWAP1 RETURN JUMPDEST PUSH2 0xD6 PUSH1 0x4 DUP1 CALLDATASIZE SUB DUP2 ADD SWAP1 PUSH2 0xD1 SWAP2 SWAP1 PUSH2 0xC58 JUMP JUMPDEST PUSH2 0x2D5 JUMP JUMPDEST PUSH1 0x40 MLOAD PUSH2 0xE3 SWAP2 SWAP1 PUSH2 0xCD6 JUMP JUMPDEST PUSH1 0x40 MLOAD DUP1 SWAP2 SUB SWAP1 RETURN JUMPDEST PUSH2 0x106 PUSH1 0x4 DUP1 CALLDATASIZE SUB DUP2 ADD SWAP1 PUSH2 0x101 SWAP2 SWAP1 PUSH2 0x80B JUMP JUMPDEST PUSH2 0x4CD JUMP JUMPDEST PUSH1 0x40 MLOAD PUSH2 0x113 SWAP2 SWAP1 PUSH2 0xACB JUMP JUMPDEST PUSH1 0x40 MLOAD DUP1 SWAP2 SUB SWAP1 RETURN JUMPDEST PUSH2 0x136 PUSH1 0x4 DUP1 CALLDATASIZE SUB DUP2 ADD SWAP1 PUSH2 0x131 SWAP2 SWAP1 PUSH2 0x80B JUMP JUMPDEST PUSH2 0x58B JUMP JUMPDEST PUSH1 0x40 MLOAD PUSH2 0x146 SWAP5 SWAP4 SWAP3 SWAP2 SWAP1 PUSH2 0xD7F JUMP JUMPDEST PUSH1 0x40 MLOAD DUP1 SWAP2 SUB SWAP1 RETURN JUMPDEST PUSH2 0x157 PUSH2 0x683 JUMP JUMPDEST PUSH1 0x0 PUSH1 0x1 PUSH1 0x0 DUP5 DUP2 MSTORE PUSH1 0x20 ADD SWAP1 DUP2 MSTORE PUSH1 0x20 ADD PUSH1 0x0 KECCAK256 SWAP1 POP PUSH1 0x0 DUP1 SLOAD SWAP1 PUSH2 0x100 EXP SWAP1 DIV PUSH20 0xFFFFFFFFFFFFFFFFFFFFFFFFFFFFFFFFFFFFFFFF AND PUSH20 0xFFFFFFFFFFFFFFFFFFFFFFFFFFFFFFFFFFFFFFFF AND PUSH4 0x88302884 DUP3 PUSH1 0x0 ADD SLOAD PUSH1 0x40 MLOAD DUP3 PUSH4 0xFFFFFFFF AND PUSH1 0xE0 SHL DUP2 MSTORE PUSH1 0x4 ADD PUSH2 0x1CB SWAP2 SWAP1 PUSH2 0xCD6 JUMP JUMPDEST PUSH2 0x200 PUSH1 0x40 MLOAD DUP1 DUP4 SUB DUP2 DUP7 GAS STATICCALL ISZERO DUP1 ISZERO PUSH2 0x1E9 JUMPI RETURNDATASIZE PUSH1 0x0 DUP1 RETURNDATACOPY RETURNDATASIZE PUSH1 0x0 REVERT JUMPDEST POP POP POP POP PUSH1 0x40 MLOAD RETURNDATASIZE PUSH1 0x1F NOT PUSH1 0x1F DUP3 ADD AND DUP3 ADD DUP1 PUSH1 0x40 MSTORE POP DUP2 ADD SWAP1 PUSH2 0x20D SWAP2 SWAP1 PUSH2 0x106E JUMP JUMPDEST SWAP2 POP POP SWAP2 SWAP1 POP JUMP JUMPDEST PUSH1 0x0 DUP1 PUSH1 0x1 PUSH1 0x0 DUP5 DUP2 MSTORE PUSH1 0x20 ADD SWAP1 DUP2 MSTORE PUSH1 0x20 ADD PUSH1 0x0 KECCAK256 SWAP1 POP PUSH1 0x0 DUP1 SLOAD SWAP1 PUSH2 0x100 EXP SWAP1 DIV PUSH20 0xFFFFFFFFFFFFFFFFFFFFFFFFFFFFFFFFFFFFFFFF AND PUSH20 0xFFFFFFFFFFFFFFFFFFFFFFFFFFFFFFFFFFFFFFFF AND PUSH4 0x8EA2F2AB DUP3 PUSH1 0x0 ADD SLOAD PUSH1 0x40 MLOAD DUP3 PUSH4 0xFFFFFFFF AND PUSH1 0xE0 SHL DUP2 MSTORE PUSH1 0x4 ADD PUSH2 0x28A SWAP2 SWAP1 PUSH2 0xCD6 JUMP JUMPDEST PUSH1 0x20 PUSH1 0x40 MLOAD DUP1 DUP4 SUB DUP2 PUSH1 0x0 DUP8 GAS CALL ISZERO DUP1 ISZERO PUSH2 0x2A9 JUMPI RETURNDATASIZE PUSH1 0x0 DUP1 RETURNDATACOPY RETURNDATASIZE PUSH1 0x0 REVERT JUMPDEST POP POP POP POP PUSH1 0x40 MLOAD RETURNDATASIZE PUSH1 0x1F NOT PUSH1 0x1F DUP3 ADD AND DUP3 ADD DUP1 PUSH1 0x40 MSTORE POP DUP2 ADD SWAP1 PUSH2 0x2CD SWAP2 SWAP1 PUSH2 0x109C JUMP JUMPDEST SWAP2 POP POP SWAP2 SWAP1 POP JUMP JUMPDEST PUSH1 0x0 DUP1 PUSH1 0x0 SWAP1 SLOAD SWAP1 PUSH2 0x100 EXP SWAP1 DIV PUSH20 0xFFFFFFFFFFFFFFFFFFFFFFFFFFFFFFFFFFFFFFFF AND PUSH20 0xFFFFFFFFFFFFFFFFFFFFFFFFFFFFFFFFFFFFFFFF AND PUSH4 0x36B13AF4 DUP5 ADDRESS PUSH1 0x40 MLOAD DUP4 PUSH4 0xFFFFFFFF AND PUSH1 0xE0 SHL DUP2 MSTORE PUSH1 0x4 ADD PUSH2 0x333 SWAP3 SWAP2 SWAP1 PUSH2 0x10C9 JUMP JUMPDEST PUSH1 0x20 PUSH1 0x40 MLOAD DUP1 DUP4 SUB DUP2 PUSH1 0x0 DUP8 GAS CALL ISZERO DUP1 ISZERO PUSH2 0x352 JUMPI RETURNDATASIZE PUSH1 0x0 DUP1 RETURNDATACOPY RETURNDATASIZE PUSH1 0x0 REVERT JUMPDEST POP POP POP POP PUSH1 0x40 MLOAD RETURNDATASIZE PUSH1 0x1F NOT PUSH1 0x1F DUP3 ADD AND DUP3 ADD DUP1 PUSH1 0x40 MSTORE POP DUP2 ADD SWAP1 PUSH2 0x376 SWAP2 SWAP1 PUSH2 0x10F9 JUMP JUMPDEST SWAP1 POP PUSH1 0x40 MLOAD DUP1 PUSH1 0x80 ADD PUSH1 0x40 MSTORE DUP1 DUP3 DUP2 MSTORE PUSH1 0x20 ADD DUP5 DUP2 MSTORE PUSH1 0x20 ADD DUP4 PUSH20 0xFFFFFFFFFFFFFFFFFFFFFFFFFFFFFFFFFFFFFFFF AND DUP2 MSTORE PUSH1 0x20 ADD CALLER PUSH20 0xFFFFFFFFFFFFFFFFFFFFFFFFFFFFFFFFFFFFFFFF AND DUP2 MSTORE POP PUSH1 0x1 PUSH1 0x0 DUP7 DUP2 MSTORE PUSH1 0x20 ADD SWAP1 DUP2 MSTORE PUSH1 0x20 ADD PUSH1 0x0 KECCAK256 PUSH1 0x0 DUP3 ADD MLOAD DUP2 PUSH1 0x0 ADD SSTORE PUSH1 0x20 DUP3 ADD MLOAD DUP2 PUSH1 0x1 ADD SWAP1 DUP2 PUSH2 0x3F7 SWAP2 SWAP1 PUSH2 0x1328 JUMP JUMPDEST POP PUSH1 0x40 DUP3 ADD MLOAD DUP2 PUSH1 0x2 ADD PUSH1 0x0 PUSH2 0x100 EXP DUP2 SLOAD DUP2 PUSH20 0xFFFFFFFFFFFFFFFFFFFFFFFFFFFFFFFFFFFFFFFF MUL NOT AND SWAP1 DUP4 PUSH20 0xFFFFFFFFFFFFFFFFFFFFFFFFFFFFFFFFFFFFFFFF AND MUL OR SWAP1 SSTORE POP PUSH1 0x60 DUP3 ADD MLOAD DUP2 PUSH1 0x3 ADD PUSH1 0x0 PUSH2 0x100 EXP DUP2 SLOAD DUP2 PUSH20 0xFFFFFFFFFFFFFFFFFFFFFFFFFFFFFFFFFFFFFFFF MUL NOT AND SWAP1 DUP4 PUSH20 0xFFFFFFFFFFFFFFFFFFFFFFFFFFFFFFFFFFFFFFFF AND MUL OR SWAP1 SSTORE POP SWAP1 POP POP PUSH32 0x6742D89113434A0E223F6F67176DCFB8C82EFC4BC2A686A7D3858E01A0DBD275 DUP5 DUP3 DUP6 TIMESTAMP PUSH1 0x40 MLOAD PUSH2 0x4BE SWAP5 SWAP4 SWAP3 SWAP2 SWAP1 PUSH2 0x1409 JUMP JUMPDEST PUSH1 0x40 MLOAD DUP1 SWAP2 SUB SWAP1 LOG1 SWAP4 SWAP3 POP POP POP JUMP JUMPDEST PUSH1 0x0 DUP1 PUSH1 0x1 PUSH1 0x0 DUP5 DUP2 MSTORE PUSH1 0x20 ADD SWAP1 DUP2 MSTORE PUSH1 0x20 ADD PUSH1 0x0 KECCAK256 SWAP1 POP PUSH1 0x0 DUP1 SLOAD SWAP1 PUSH2 0x100 EXP SWAP1 DIV PUSH20 0xFFFFFFFFFFFFFFFFFFFFFFFFFFFFFFFFFFFFFFFF AND PUSH20 0xFFFFFFFFFFFFFFFFFFFFFFFFFFFFFFFFFFFFFFFF AND PUSH4 0xE39DFD7F DUP3 PUSH1 0x0 ADD SLOAD PUSH1 0x40 MLOAD DUP3 PUSH4 0xFFFFFFFF AND PUSH1 0xE0 SHL DUP2 MSTORE PUSH1 0x4 ADD PUSH2 0x542 SWAP2 SWAP1 PUSH2 0xCD6 JUMP JUMPDEST PUSH1 0x20 PUSH1 0x40 MLOAD DUP1 DUP4 SUB DUP2 DUP7 GAS STATICCALL ISZERO DUP1 ISZERO PUSH2 0x55F JUMPI RETURNDATASIZE PUSH1 0x0 DUP1 RETURNDATACOPY RETURNDATASIZE PUSH1 0x0 REVERT JUMPDEST POP POP POP POP PUSH1 0x40 MLOAD RETURNDATASIZE PUSH1 0x1F NOT PUSH1 0x1F DUP3 ADD AND DUP3 ADD DUP1 PUSH1 0x40 MSTORE POP DUP2 ADD SWAP1 PUSH2 0x583 SWAP2 SWAP1 PUSH2 0x109C JUMP JUMPDEST SWAP2 POP POP SWAP2 SWAP1 POP JUMP JUMPDEST PUSH1 0x1 PUSH1 0x20 MSTORE DUP1 PUSH1 0x0 MSTORE PUSH1 0x40 PUSH1 0x0 KECCAK256 PUSH1 0x0 SWAP2 POP SWAP1 POP DUP1 PUSH1 0x0 ADD SLOAD SWAP1 DUP1 PUSH1 0x1 ADD DUP1 SLOAD PUSH2 0x5B4 SWAP1 PUSH2 0x1155 JUMP JUMPDEST DUP1 PUSH1 0x1F ADD PUSH1 0x20 DUP1 SWAP2 DIV MUL PUSH1 0x20 ADD PUSH1 0x40 MLOAD SWAP1 DUP2 ADD PUSH1 0x40 MSTORE DUP1 SWAP3 SWAP2 SWAP1 DUP2 DUP2 MSTORE PUSH1 0x20 ADD DUP3 DUP1 SLOAD PUSH2 0x5E0 SWAP1 PUSH2 0x1155 JUMP JUMPDEST DUP1 ISZERO PUSH2 0x62D JUMPI DUP1 PUSH1 0x1F LT PUSH2 0x602 JUMPI PUSH2 0x100 DUP1 DUP4 SLOAD DIV MUL DUP4 MSTORE SWAP2 PUSH1 0x20 ADD SWAP2 PUSH2 0x62D JUMP JUMPDEST DUP3 ADD SWAP2 SWAP1 PUSH1 0x0 MSTORE PUSH1 0x20 PUSH1 0x0 KECCAK256 SWAP1 JUMPDEST DUP2 SLOAD DUP2 MSTORE SWAP1 PUSH1 0x1 ADD SWAP1 PUSH1 0x20 ADD DUP1 DUP4 GT PUSH2 0x610 JUMPI DUP3 SWAP1 SUB PUSH1 0x1F AND DUP3 ADD SWAP2 JUMPDEST POP POP POP POP POP SWAP1 DUP1 PUSH1 0x2 ADD PUSH1 0x0 SWAP1 SLOAD SWAP1 PUSH2 0x100 EXP SWAP1 DIV PUSH20 0xFFFFFFFFFFFFFFFFFFFFFFFFFFFFFFFFFFFFFFFF AND SWAP1 DUP1 PUSH1 0x3 ADD PUSH1 0x0 SWAP1 SLOAD SWAP1 PUSH2 0x100 EXP SWAP1 DIV PUSH20 0xFFFFFFFFFFFFFFFFFFFFFFFFFFFFFFFFFFFFFFFF AND SWAP1 POP DUP5 JUMP JUMPDEST PUSH1 0x40 MLOAD DUP1 PUSH2 0x180 ADD PUSH1 0x40 MSTORE DUP1 PUSH2 0x697 PUSH2 0x760 JUMP JUMPDEST DUP2 MSTORE PUSH1 0x20 ADD PUSH1 0x0 PUSH20 0xFFFFFFFFFFFFFFFFFFFFFFFFFFFFFFFFFFFFFFFF AND DUP2 MSTORE PUSH1 0x20 ADD PUSH1 0x0 PUSH8 0xFFFFFFFFFFFFFFFF AND DUP2 MSTORE PUSH1 0x20 ADD PUSH1 0x0 ISZERO ISZERO DUP2 MSTORE PUSH1 0x20 ADD PUSH1 0x0 PUSH20 0xFFFFFFFFFFFFFFFFFFFFFFFFFFFFFFFFFFFFFFFF AND DUP2 MSTORE PUSH1 0x20 ADD PUSH1 0x0 PUSH8 0xFFFFFFFFFFFFFFFF AND DUP2 MSTORE PUSH1 0x20 ADD PUSH1 0x0 ISZERO ISZERO DUP2 MSTORE PUSH1 0x20 ADD PUSH1 0x0 DUP1 NOT AND DUP2 MSTORE PUSH1 0x20 ADD PUSH1 0x0 DUP1 NOT AND DUP2 MSTORE PUSH1 0x20 ADD PUSH1 0x0 DUP2 MSTORE PUSH1 0x20 ADD PUSH1 0x0 PUSH20 0xFFFFFFFFFFFFFFFFFFFFFFFFFFFFFFFFFFFFFFFF AND DUP2 MSTORE PUSH1 0x20 ADD PUSH1 0x0 PUSH20 0xFFFFFFFFFFFFFFFFFFFFFFFFFFFFFFFFFFFFFFFF AND DUP2 MSTORE POP SWAP1 JUMP JUMPDEST PUSH1 0x40 MLOAD DUP1 PUSH1 0xA0 ADD PUSH1 0x40 MSTORE DUP1 PUSH1 0x0 ISZERO ISZERO DUP2 MSTORE PUSH1 0x20 ADD PUSH1 0x0 ISZERO ISZERO DUP2 MSTORE PUSH1 0x20 ADD PUSH1 0x0 ISZERO ISZERO DUP2 MSTORE PUSH1 0x20 ADD PUSH1 0x0 PUSH20 0xFFFFFFFFFFFFFFFFFFFFFFFFFFFFFFFFFFFFFFFF AND DUP2 MSTORE PUSH1 0x20 ADD PUSH1 0x0 PUSH20 0xFFFFFFFFFFFFFFFFFFFFFFFFFFFFFFFFFFFFFFFF AND DUP2 MSTORE POP SWAP1 JUMP JUMPDEST PUSH1 0x0 PUSH1 0x40 MLOAD SWAP1 POP SWAP1 JUMP JUMPDEST PUSH1 0x0 DUP1 REVERT JUMPDEST PUSH1 0x0 DUP1 REVERT JUMPDEST PUSH1 0x0 DUP2 SWAP1 POP SWAP2 SWAP1 POP JUMP JUMPDEST PUSH2 0x7E8 DUP2 PUSH2 0x7D5 JUMP JUMPDEST DUP2 EQ PUSH2 0x7F3 JUMPI PUSH1 0x0 DUP1 REVERT JUMPDEST POP JUMP JUMPDEST PUSH1 0x0 DUP2 CALLDATALOAD SWAP1 POP PUSH2 0x805 DUP2 PUSH2 0x7DF JUMP JUMPDEST SWAP3 SWAP2 POP POP JUMP JUMPDEST PUSH1 0x0 PUSH1 0x20 DUP3 DUP5 SUB SLT ISZERO PUSH2 0x821 JUMPI PUSH2 0x820 PUSH2 0x7CB JUMP JUMPDEST JUMPDEST PUSH1 0x0 PUSH2 0x82F DUP5 DUP3 DUP6 ADD PUSH2 0x7F6 JUMP JUMPDEST SWAP2 POP POP SWAP3 SWAP2 POP POP JUMP JUMPDEST PUSH1 0x0 DUP2 ISZERO ISZERO SWAP1 POP SWAP2 SWAP1 POP JUMP JUMPDEST PUSH2 0x84D DUP2 PUSH2 0x838 JUMP JUMPDEST DUP3 MSTORE POP POP JUMP JUMPDEST PUSH1 0x0 PUSH20 0xFFFFFFFFFFFFFFFFFFFFFFFFFFFFFFFFFFFFFFFF DUP3 AND SWAP1 POP SWAP2 SWAP1 POP JUMP JUMPDEST PUSH1 0x0 PUSH2 0x87E DUP3 PUSH2 0x853 JUMP JUMPDEST SWAP1 POP SWAP2 SWAP1 POP JUMP JUMPDEST PUSH2 0x88E DUP2 PUSH2 0x873 JUMP JUMPDEST DUP3 MSTORE POP POP JUMP JUMPDEST PUSH1 0xA0 DUP3 ADD PUSH1 0x0 DUP3 ADD MLOAD PUSH2 0x8AA PUSH1 0x0 DUP6 ADD DUP3 PUSH2 0x844 JUMP JUMPDEST POP PUSH1 0x20 DUP3 ADD MLOAD PUSH2 0x8BD PUSH1 0x20 DUP6 ADD DUP3 PUSH2 0x844 JUMP JUMPDEST POP PUSH1 0x40 DUP3 ADD MLOAD PUSH2 0x8D0 PUSH1 0x40 DUP6 ADD DUP3 PUSH2 0x844 JUMP JUMPDEST POP PUSH1 0x60 DUP3 ADD MLOAD PUSH2 0x8E3 PUSH1 0x60 DUP6 ADD DUP3 PUSH2 0x885 JUMP JUMPDEST POP PUSH1 0x80 DUP3 ADD MLOAD PUSH2 0x8F6 PUSH1 0x80 DUP6 ADD DUP3 PUSH2 0x885 JUMP JUMPDEST POP POP POP POP JUMP JUMPDEST PUSH1 0x0 PUSH8 0xFFFFFFFFFFFFFFFF DUP3 AND SWAP1 POP SWAP2 SWAP1 POP JUMP JUMPDEST PUSH2 0x919 DUP2 PUSH2 0x8FC JUMP JUMPDEST DUP3 MSTORE POP POP JUMP JUMPDEST PUSH1 0x0 DUP2 SWAP1 POP SWAP2 SWAP1 POP JUMP JUMPDEST PUSH1 0x0 PUSH2 0x944 PUSH2 0x93F PUSH2 0x93A DUP5 PUSH2 0x853 JUMP JUMPDEST PUSH2 0x91F JUMP JUMPDEST PUSH2 0x853 JUMP JUMPDEST SWAP1 POP SWAP2 SWAP1 POP JUMP JUMPDEST PUSH1 0x0 PUSH2 0x956 DUP3 PUSH2 0x929 JUMP JUMPDEST SWAP1 POP SWAP2 SWAP1 POP JUMP JUMPDEST PUSH1 0x0 PUSH2 0x968 DUP3 PUSH2 0x94B JUMP JUMPDEST SWAP1 POP SWAP2 SWAP1 POP JUMP JUMPDEST PUSH2 0x978 DUP2 PUSH2 0x95D JUMP JUMPDEST DUP3 MSTORE POP POP JUMP JUMPDEST PUSH1 0x0 DUP2 SWAP1 POP SWAP2 SWAP1 POP JUMP JUMPDEST PUSH2 0x991 DUP2 PUSH2 0x97E JUMP JUMPDEST DUP3 MSTORE POP POP JUMP JUMPDEST PUSH2 0x9A0 DUP2 PUSH2 0x7D5 JUMP JUMPDEST DUP3 MSTORE POP POP JUMP JUMPDEST PUSH2 0x200 DUP3 ADD PUSH1 0x0 DUP3 ADD MLOAD PUSH2 0x9BD PUSH1 0x0 DUP6 ADD DUP3 PUSH2 0x894 JUMP JUMPDEST POP PUSH1 0x20 DUP3 ADD MLOAD PUSH2 0x9D0 PUSH1 0xA0 DUP6 ADD DUP3 PUSH2 0x885 JUMP JUMPDEST POP PUSH1 0x40 DUP3 ADD MLOAD PUSH2 0x9E3 PUSH1 0xC0 DUP6 ADD DUP3 PUSH2 0x910 JUMP JUMPDEST POP PUSH1 0x60 DUP3 ADD MLOAD PUSH2 0x9F6 PUSH1 0xE0 DUP6 ADD DUP3 PUSH2 0x844 JUMP JUMPDEST POP PUSH1 0x80 DUP3 ADD MLOAD PUSH2 0xA0A PUSH2 0x100 DUP6 ADD DUP3 PUSH2 0x96F JUMP JUMPDEST POP PUSH1 0xA0 DUP3 ADD MLOAD PUSH2 0xA1E PUSH2 0x120 DUP6 ADD DUP3 PUSH2 0x910 JUMP JUMPDEST POP PUSH1 0xC0 DUP3 ADD MLOAD PUSH2 0xA32 PUSH2 0x140 DUP6 ADD DUP3 PUSH2 0x844 JUMP JUMPDEST POP PUSH1 0xE0 DUP3 ADD MLOAD PUSH2 0xA46 PUSH2 0x160 DUP6 ADD DUP3 PUSH2 0x988 JUMP JUMPDEST POP PUSH2 0x100 DUP3 ADD MLOAD PUSH2 0xA5B PUSH2 0x180 DUP6 ADD DUP3 PUSH2 0x988 JUMP JUMPDEST POP PUSH2 0x120 DUP3 ADD MLOAD PUSH2 0xA70 PUSH2 0x1A0 DUP6 ADD DUP3 PUSH2 0x997 JUMP JUMPDEST POP PUSH2 0x140 DUP3 ADD MLOAD PUSH2 0xA85 PUSH2 0x1C0 DUP6 ADD DUP3 PUSH2 0x885 JUMP JUMPDEST POP PUSH2 0x160 DUP3 ADD MLOAD PUSH2 0xA9A PUSH2 0x1E0 DUP6 ADD DUP3 PUSH2 0x885 JUMP JUMPDEST POP POP POP POP JUMP JUMPDEST PUSH1 0x0 PUSH2 0x200 DUP3 ADD SWAP1 POP PUSH2 0xAB6 PUSH1 0x0 DUP4 ADD DUP5 PUSH2 0x9A6 JUMP JUMPDEST SWAP3 SWAP2 POP POP JUMP JUMPDEST PUSH2 0xAC5 DUP2 PUSH2 0x838 JUMP JUMPDEST DUP3 MSTORE POP POP JUMP JUMPDEST PUSH1 0x0 PUSH1 0x20 DUP3 ADD SWAP1 POP PUSH2 0xAE0 PUSH1 0x0 DUP4 ADD DUP5 PUSH2 0xABC JUMP JUMPDEST SWAP3 SWAP2 POP POP JUMP JUMPDEST PUSH1 0x0 DUP1 REVERT JUMPDEST PUSH1 0x0 DUP1 REVERT JUMPDEST PUSH1 0x0 PUSH1 0x1F NOT PUSH1 0x1F DUP4 ADD AND SWAP1 POP SWAP2 SWAP1 POP JUMP JUMPDEST PUSH32 0x4E487B7100000000000000000000000000000000000000000000000000000000 PUSH1 0x0 MSTORE PUSH1 0x41 PUSH1 0x4 MSTORE PUSH1 0x24 PUSH1 0x0 REVERT JUMPDEST PUSH2 0xB39 DUP3 PUSH2 0xAF0 JUMP JUMPDEST DUP2 ADD DUP2 DUP2 LT PUSH8 0xFFFFFFFFFFFFFFFF DUP3 GT OR ISZERO PUSH2 0xB58 JUMPI PUSH2 0xB57 PUSH2 0xB01 JUMP JUMPDEST JUMPDEST DUP1 PUSH1 0x40 MSTORE POP POP POP JUMP JUMPDEST PUSH1 0x0 PUSH2 0xB6B PUSH2 0x7C1 JUMP JUMPDEST SWAP1 POP PUSH2 0xB77 DUP3 DUP3 PUSH2 0xB30 JUMP JUMPDEST SWAP2 SWAP1 POP JUMP JUMPDEST PUSH1 0x0 PUSH8 0xFFFFFFFFFFFFFFFF DUP3 GT ISZERO PUSH2 0xB97 JUMPI PUSH2 0xB96 PUSH2 0xB01 JUMP JUMPDEST JUMPDEST PUSH2 0xBA0 DUP3 PUSH2 0xAF0 JUMP JUMPDEST SWAP1 POP PUSH1 0x20 DUP2 ADD SWAP1 POP SWAP2 SWAP1 POP JUMP JUMPDEST DUP3 DUP2 DUP4 CALLDATACOPY PUSH1 0x0 DUP4 DUP4 ADD MSTORE POP POP POP JUMP JUMPDEST PUSH1 0x0 PUSH2 0xBCF PUSH2 0xBCA DUP5 PUSH2 0xB7C JUMP JUMPDEST PUSH2 0xB61 JUMP JUMPDEST SWAP1 POP DUP3 DUP2 MSTORE PUSH1 0x20 DUP2 ADD DUP5 DUP5 DUP5 ADD GT ISZERO PUSH2 0xBEB JUMPI PUSH2 0xBEA PUSH2 0xAEB JUMP JUMPDEST JUMPDEST PUSH2 0xBF6 DUP5 DUP3 DUP6 PUSH2 0xBAD JUMP JUMPDEST POP SWAP4 SWAP3 POP POP POP JUMP JUMPDEST PUSH1 0x0 DUP3 PUSH1 0x1F DUP4 ADD SLT PUSH2 0xC13 JUMPI PUSH2 0xC12 PUSH2 0xAE6 JUMP JUMPDEST JUMPDEST DUP2 CALLDATALOAD PUSH2 0xC23 DUP5 DUP3 PUSH1 0x20 DUP7 ADD PUSH2 0xBBC JUMP JUMPDEST SWAP2 POP POP SWAP3 SWAP2 POP POP JUMP JUMPDEST PUSH2 0xC35 DUP2 PUSH2 0x873 JUMP JUMPDEST DUP2 EQ PUSH2 0xC40 JUMPI PUSH1 0x0 DUP1 REVERT JUMPDEST POP JUMP JUMPDEST PUSH1 0x0 DUP2 CALLDATALOAD SWAP1 POP PUSH2 0xC52 DUP2 PUSH2 0xC2C JUMP JUMPDEST SWAP3 SWAP2 POP POP JUMP JUMPDEST PUSH1 0x0 DUP1 PUSH1 0x0 PUSH1 0x60 DUP5 DUP7 SUB SLT ISZERO PUSH2 0xC71 JUMPI PUSH2 0xC70 PUSH2 0x7CB JUMP JUMPDEST JUMPDEST PUSH1 0x0 PUSH2 0xC7F DUP7 DUP3 DUP8 ADD PUSH2 0x7F6 JUMP JUMPDEST SWAP4 POP POP PUSH1 0x20 DUP5 ADD CALLDATALOAD PUSH8 0xFFFFFFFFFFFFFFFF DUP2 GT ISZERO PUSH2 0xCA0 JUMPI PUSH2 0xC9F PUSH2 0x7D0 JUMP JUMPDEST JUMPDEST PUSH2 0xCAC DUP7 DUP3 DUP8 ADD PUSH2 0xBFE JUMP JUMPDEST SWAP3 POP POP PUSH1 0x40 PUSH2 0xCBD DUP7 DUP3 DUP8 ADD PUSH2 0xC43 JUMP JUMPDEST SWAP2 POP POP SWAP3 POP SWAP3 POP SWAP3 JUMP JUMPDEST PUSH2 0xCD0 DUP2 PUSH2 0x97E JUMP JUMPDEST DUP3 MSTORE POP POP JUMP JUMPDEST PUSH1 0x0 PUSH1 0x20 DUP3 ADD SWAP1 POP PUSH2 0xCEB PUSH1 0x0 DUP4 ADD DUP5 PUSH2 0xCC7 JUMP JUMPDEST SWAP3 SWAP2 POP POP JUMP JUMPDEST PUSH1 0x0 DUP2 MLOAD SWAP1 POP SWAP2 SWAP1 POP JUMP JUMPDEST PUSH1 0x0 DUP3 DUP3 MSTORE PUSH1 0x20 DUP3 ADD SWAP1 POP SWAP3 SWAP2 POP POP JUMP JUMPDEST PUSH1 0x0 JUMPDEST DUP4 DUP2 LT ISZERO PUSH2 0xD2B JUMPI DUP1 DUP3 ADD MLOAD DUP2 DUP5 ADD MSTORE PUSH1 0x20 DUP2 ADD SWAP1 POP PUSH2 0xD10 JUMP JUMPDEST PUSH1 0x0 DUP5 DUP5 ADD MSTORE POP POP POP POP JUMP JUMPDEST PUSH1 0x0 PUSH2 0xD42 DUP3 PUSH2 0xCF1 JUMP JUMPDEST PUSH2 0xD4C DUP2 DUP6 PUSH2 0xCFC JUMP JUMPDEST SWAP4 POP PUSH2 0xD5C DUP2 DUP6 PUSH1 0x20 DUP7 ADD PUSH2 0xD0D JUMP JUMPDEST PUSH2 0xD65 DUP2 PUSH2 0xAF0 JUMP JUMPDEST DUP5 ADD SWAP2 POP POP SWAP3 SWAP2 POP POP JUMP JUMPDEST PUSH2 0xD79 DUP2 PUSH2 0x873 JUMP JUMPDEST DUP3 MSTORE POP POP JUMP JUMPDEST PUSH1 0x0 PUSH1 0x80 DUP3 ADD SWAP1 POP PUSH2 0xD94 PUSH1 0x0 DUP4 ADD DUP8 PUSH2 0xCC7 JUMP JUMPDEST DUP2 DUP2 SUB PUSH1 0x20 DUP4 ADD MSTORE PUSH2 0xDA6 DUP2 DUP7 PUSH2 0xD37 JUMP JUMPDEST SWAP1 POP PUSH2 0xDB5 PUSH1 0x40 DUP4 ADD DUP6 PUSH2 0xD70 JUMP JUMPDEST PUSH2 0xDC2 PUSH1 0x60 DUP4 ADD DUP5 PUSH2 0xD70 JUMP JUMPDEST SWAP6 SWAP5 POP POP POP POP POP JUMP JUMPDEST PUSH1 0x0 DUP1 REVERT JUMPDEST PUSH2 0xDD9 DUP2 PUSH2 0x838 JUMP JUMPDEST DUP2 EQ PUSH2 0xDE4 JUMPI PUSH1 0x0 DUP1 REVERT JUMPDEST POP JUMP JUMPDEST PUSH1 0x0 DUP2 MLOAD SWAP1 POP PUSH2 0xDF6 DUP2 PUSH2 0xDD0 JUMP JUMPDEST SWAP3 SWAP2 POP POP JUMP JUMPDEST PUSH1 0x0 DUP2 MLOAD SWAP1 POP PUSH2 0xE0B DUP2 PUSH2 0xC2C JUMP JUMPDEST SWAP3 SWAP2 POP POP JUMP JUMPDEST PUSH1 0x0 PUSH1 0xA0 DUP3 DUP5 SUB SLT ISZERO PUSH2 0xE27 JUMPI PUSH2 0xE26 PUSH2 0xDCB JUMP JUMPDEST JUMPDEST PUSH2 0xE31 PUSH1 0xA0 PUSH2 0xB61 JUMP JUMPDEST SWAP1 POP PUSH1 0x0 PUSH2 0xE41 DUP5 DUP3 DUP6 ADD PUSH2 0xDE7 JUMP JUMPDEST PUSH1 0x0 DUP4 ADD MSTORE POP PUSH1 0x20 PUSH2 0xE55 DUP5 DUP3 DUP6 ADD PUSH2 0xDE7 JUMP JUMPDEST PUSH1 0x20 DUP4 ADD MSTORE POP PUSH1 0x40 PUSH2 0xE69 DUP5 DUP3 DUP6 ADD PUSH2 0xDE7 JUMP JUMPDEST PUSH1 0x40 DUP4 ADD MSTORE POP PUSH1 0x60 PUSH2 0xE7D DUP5 DUP3 DUP6 ADD PUSH2 0xDFC JUMP JUMPDEST PUSH1 0x60 DUP4 ADD MSTORE POP PUSH1 0x80 PUSH2 0xE91 DUP5 DUP3 DUP6 ADD PUSH2 0xDFC JUMP JUMPDEST PUSH1 0x80 DUP4 ADD MSTORE POP SWAP3 SWAP2 POP POP JUMP JUMPDEST PUSH2 0xEA6 DUP2 PUSH2 0x8FC JUMP JUMPDEST DUP2 EQ PUSH2 0xEB1 JUMPI PUSH1 0x0 DUP1 REVERT JUMPDEST POP JUMP JUMPDEST PUSH1 0x0 DUP2 MLOAD SWAP1 POP PUSH2 0xEC3 DUP2 PUSH2 0xE9D JUMP JUMPDEST SWAP3 SWAP2 POP POP JUMP JUMPDEST PUSH1 0x0 PUSH2 0xED4 DUP3 PUSH2 0x873 JUMP JUMPDEST SWAP1 POP SWAP2 SWAP1 POP JUMP JUMPDEST PUSH2 0xEE4 DUP2 PUSH2 0xEC9 JUMP JUMPDEST DUP2 EQ PUSH2 0xEEF JUMPI PUSH1 0x0 DUP1 REVERT JUMPDEST POP JUMP JUMPDEST PUSH1 0x0 DUP2 MLOAD SWAP1 POP PUSH2 0xF01 DUP2 PUSH2 0xEDB JUMP JUMPDEST SWAP3 SWAP2 POP POP JUMP JUMPDEST PUSH2 0xF10 DUP2 PUSH2 0x97E JUMP JUMPDEST DUP2 EQ PUSH2 0xF1B JUMPI PUSH1 0x0 DUP1 REVERT JUMPDEST POP JUMP JUMPDEST PUSH1 0x0 DUP2 MLOAD SWAP1 POP PUSH2 0xF2D DUP2 PUSH2 0xF07 JUMP JUMPDEST SWAP3 SWAP2 POP POP JUMP JUMPDEST PUSH1 0x0 DUP2 MLOAD SWAP1 POP PUSH2 0xF42 DUP2 PUSH2 0x7DF JUMP JUMPDEST SWAP3 SWAP2 POP POP JUMP JUMPDEST PUSH1 0x0 PUSH2 0x200 DUP3 DUP5 SUB SLT ISZERO PUSH2 0xF5F JUMPI PUSH2 0xF5E PUSH2 0xDCB JUMP JUMPDEST JUMPDEST PUSH2 0xF6A PUSH2 0x180 PUSH2 0xB61 JUMP JUMPDEST SWAP1 POP PUSH1 0x0 PUSH2 0xF7A DUP5 DUP3 DUP6 ADD PUSH2 0xE11 JUMP JUMPDEST PUSH1 0x0 DUP4 ADD MSTORE POP PUSH1 0xA0 PUSH2 0xF8E DUP5 DUP3 DUP6 ADD PUSH2 0xDFC JUMP JUMPDEST PUSH1 0x20 DUP4 ADD MSTORE POP PUSH1 0xC0 PUSH2 0xFA2 DUP5 DUP3 DUP6 ADD PUSH2 0xEB4 JUMP JUMPDEST PUSH1 0x40 DUP4 ADD MSTORE POP PUSH1 0xE0 PUSH2 0xFB6 DUP5 DUP3 DUP6 ADD PUSH2 0xDE7 JUMP JUMPDEST PUSH1 0x60 DUP4 ADD MSTORE POP PUSH2 0x100 PUSH2 0xFCB DUP5 DUP3 DUP6 ADD PUSH2 0xEF2 JUMP JUMPDEST PUSH1 0x80 DUP4 ADD MSTORE POP PUSH2 0x120 PUSH2 0xFE0 DUP5 DUP3 DUP6 ADD PUSH2 0xEB4 JUMP JUMPDEST PUSH1 0xA0 DUP4 ADD MSTORE POP PUSH2 0x140 PUSH2 0xFF5 DUP5 DUP3 DUP6 ADD PUSH2 0xDE7 JUMP JUMPDEST PUSH1 0xC0 DUP4 ADD MSTORE POP PUSH2 0x160 PUSH2 0x100A DUP5 DUP3 DUP6 ADD PUSH2 0xF1E JUMP JUMPDEST PUSH1 0xE0 DUP4 ADD MSTORE POP PUSH2 0x180 PUSH2 0x101F DUP5 DUP3 DUP6 ADD PUSH2 0xF1E JUMP JUMPDEST PUSH2 0x100 DUP4 ADD MSTORE POP PUSH2 0x1A0 PUSH2 0x1035 DUP5 DUP3 DUP6 ADD PUSH2 0xF33 JUMP JUMPDEST PUSH2 0x120 DUP4 ADD MSTORE POP PUSH2 0x1C0 PUSH2 0x104B DUP5 DUP3 DUP6 ADD PUSH2 0xDFC JUMP JUMPDEST PUSH2 0x140 DUP4 ADD MSTORE POP PUSH2 0x1E0 PUSH2 0x1061 DUP5 DUP3 DUP6 ADD PUSH2 0xDFC JUMP JUMPDEST PUSH2 0x160 DUP4 ADD MSTORE POP SWAP3 SWAP2 POP POP JUMP JUMPDEST PUSH1 0x0 PUSH2 0x200 DUP3 DUP5 SUB SLT ISZERO PUSH2 0x1085 JUMPI PUSH2 0x1084 PUSH2 0x7CB JUMP JUMPDEST JUMPDEST PUSH1 0x0 PUSH2 0x1093 DUP5 DUP3 DUP6 ADD PUSH2 0xF48 JUMP JUMPDEST SWAP2 POP POP SWAP3 SWAP2 POP POP JUMP JUMPDEST PUSH1 0x0 PUSH1 0x20 DUP3 DUP5 SUB SLT ISZERO PUSH2 0x10B2 JUMPI PUSH2 0x10B1 PUSH2 0x7CB JUMP JUMPDEST JUMPDEST PUSH1 0x0 PUSH2 0x10C0 DUP5 DUP3 DUP6 ADD PUSH2 0xDE7 JUMP JUMPDEST SWAP2 POP POP SWAP3 SWAP2 POP POP JUMP JUMPDEST PUSH1 0x0 PUSH1 0x40 DUP3 ADD SWAP1 POP DUP2 DUP2 SUB PUSH1 0x0 DUP4 ADD MSTORE PUSH2 0x10E3 DUP2 DUP6 PUSH2 0xD37 JUMP JUMPDEST SWAP1 POP PUSH2 0x10F2 PUSH1 0x20 DUP4 ADD DUP5 PUSH2 0xD70 JUMP JUMPDEST SWAP4 SWAP3 POP POP POP JUMP JUMPDEST PUSH1 0x0 PUSH1 0x20 DUP3 DUP5 SUB SLT ISZERO PUSH2 0x110F JUMPI PUSH2 0x110E PUSH2 0x7CB JUMP JUMPDEST JUMPDEST PUSH1 0x0 PUSH2 0x111D DUP5 DUP3 DUP6 ADD PUSH2 0xF1E JUMP JUMPDEST SWAP2 POP POP SWAP3 SWAP2 POP POP JUMP JUMPDEST PUSH32 0x4E487B7100000000000000000000000000000000000000000000000000000000 PUSH1 0x0 MSTORE PUSH1 0x22 PUSH1 0x4 MSTORE PUSH1 0x24 PUSH1 0x0 REVERT JUMPDEST PUSH1 0x0 PUSH1 0x2 DUP3 DIV SWAP1 POP PUSH1 0x1 DUP3 AND DUP1 PUSH2 0x116D JUMPI PUSH1 0x7F DUP3 AND SWAP2 POP JUMPDEST PUSH1 0x20 DUP3 LT DUP2 SUB PUSH2 0x1180 JUMPI PUSH2 0x117F PUSH2 0x1126 JUMP JUMPDEST JUMPDEST POP SWAP2 SWAP1 POP JUMP JUMPDEST PUSH1 0x0 DUP2 SWAP1 POP DUP2 PUSH1 0x0 MSTORE PUSH1 0x20 PUSH1 0x0 KECCAK256 SWAP1 POP SWAP2 SWAP1 POP JUMP JUMPDEST PUSH1 0x0 PUSH1 0x20 PUSH1 0x1F DUP4 ADD DIV SWAP1 POP SWAP2 SWAP1 POP JUMP JUMPDEST PUSH1 0x0 DUP3 DUP3 SHL SWAP1 POP SWAP3 SWAP2 POP POP JUMP JUMPDEST PUSH1 0x0 PUSH1 0x8 DUP4 MUL PUSH2 0x11E8 PUSH32 0xFFFFFFFFFFFFFFFFFFFFFFFFFFFFFFFFFFFFFFFFFFFFFFFFFFFFFFFFFFFFFFFF DUP3 PUSH2 0x11AB JUMP JUMPDEST PUSH2 0x11F2 DUP7 DUP4 PUSH2 0x11AB JUMP JUMPDEST SWAP6 POP DUP1 NOT DUP5 AND SWAP4 POP DUP1 DUP7 AND DUP5 OR SWAP3 POP POP POP SWAP4 SWAP3 POP POP POP JUMP JUMPDEST PUSH1 0x0 PUSH2 0x1225 PUSH2 0x1220 PUSH2 0x121B DUP5 PUSH2 0x7D5 JUMP JUMPDEST PUSH2 0x91F JUMP JUMPDEST PUSH2 0x7D5 JUMP JUMPDEST SWAP1 POP SWAP2 SWAP1 POP JUMP JUMPDEST PUSH1 0x0 DUP2 SWAP1 POP SWAP2 SWAP1 POP JUMP JUMPDEST PUSH2 0x123F DUP4 PUSH2 0x120A JUMP JUMPDEST PUSH2 0x1253 PUSH2 0x124B DUP3 PUSH2 0x122C JUMP JUMPDEST DUP5 DUP5 SLOAD PUSH2 0x11B8 JUMP JUMPDEST DUP3 SSTORE POP POP POP POP JUMP JUMPDEST PUSH1 0x0 SWAP1 JUMP JUMPDEST PUSH2 0x1268 PUSH2 0x125B JUMP JUMPDEST PUSH2 0x1273 DUP2 DUP5 DUP5 PUSH2 0x1236 JUMP JUMPDEST POP POP POP JUMP JUMPDEST JUMPDEST DUP2 DUP2 LT ISZERO PUSH2 0x1297 JUMPI PUSH2 0x128C PUSH1 0x0 DUP3 PUSH2 0x1260 JUMP JUMPDEST PUSH1 0x1 DUP2 ADD SWAP1 POP PUSH2 0x1279 JUMP JUMPDEST POP POP JUMP JUMPDEST PUSH1 0x1F DUP3 GT ISZERO PUSH2 0x12DC JUMPI PUSH2 0x12AD DUP2 PUSH2 0x1186 JUMP JUMPDEST PUSH2 0x12B6 DUP5 PUSH2 0x119B JUMP JUMPDEST DUP2 ADD PUSH1 0x20 DUP6 LT ISZERO PUSH2 0x12C5 JUMPI DUP2 SWAP1 POP JUMPDEST PUSH2 0x12D9 PUSH2 0x12D1 DUP6 PUSH2 0x119B JUMP JUMPDEST DUP4 ADD DUP3 PUSH2 0x1278 JUMP JUMPDEST POP POP JUMPDEST POP POP POP JUMP JUMPDEST PUSH1 0x0 DUP3 DUP3 SHR SWAP1 POP SWAP3 SWAP2 POP POP JUMP JUMPDEST PUSH1 0x0 PUSH2 0x12FF PUSH1 0x0 NOT DUP5 PUSH1 0x8 MUL PUSH2 0x12E1 JUMP JUMPDEST NOT DUP1 DUP4 AND SWAP2 POP POP SWAP3 SWAP2 POP POP JUMP JUMPDEST PUSH1 0x0 PUSH2 0x1318 DUP4 DUP4 PUSH2 0x12EE JUMP JUMPDEST SWAP2 POP DUP3 PUSH1 0x2 MUL DUP3 OR SWAP1 POP SWAP3 SWAP2 POP POP JUMP JUMPDEST PUSH2 0x1331 DUP3 PUSH2 0xCF1 JUMP JUMPDEST PUSH8 0xFFFFFFFFFFFFFFFF DUP2 GT ISZERO PUSH2 0x134A JUMPI PUSH2 0x1349 PUSH2 0xB01 JUMP JUMPDEST JUMPDEST PUSH2 0x1354 DUP3 SLOAD PUSH2 0x1155 JUMP JUMPDEST PUSH2 0x135F DUP3 DUP3 DUP6 PUSH2 0x129B JUMP JUMPDEST PUSH1 0x0 PUSH1 0x20 SWAP1 POP PUSH1 0x1F DUP4 GT PUSH1 0x1 DUP2 EQ PUSH2 0x1392 JUMPI PUSH1 0x0 DUP5 ISZERO PUSH2 0x1380 JUMPI DUP3 DUP8 ADD MLOAD SWAP1 POP JUMPDEST PUSH2 0x138A DUP6 DUP3 PUSH2 0x130C JUMP JUMPDEST DUP7 SSTORE POP PUSH2 0x13F2 JUMP JUMPDEST PUSH1 0x1F NOT DUP5 AND PUSH2 0x13A0 DUP7 PUSH2 0x1186 JUMP JUMPDEST PUSH1 0x0 JUMPDEST DUP3 DUP2 LT ISZERO PUSH2 0x13C8 JUMPI DUP5 DUP10 ADD MLOAD DUP3 SSTORE PUSH1 0x1 DUP3 ADD SWAP2 POP PUSH1 0x20 DUP6 ADD SWAP5 POP PUSH1 0x20 DUP2 ADD SWAP1 POP PUSH2 0x13A3 JUMP JUMPDEST DUP7 DUP4 LT ISZERO PUSH2 0x13E5 JUMPI DUP5 DUP10 ADD MLOAD PUSH2 0x13E1 PUSH1 0x1F DUP10 AND DUP3 PUSH2 0x12EE JUMP JUMPDEST DUP4 SSTORE POP JUMPDEST PUSH1 0x1 PUSH1 0x2 DUP9 MUL ADD DUP9 SSTORE POP POP POP JUMPDEST POP POP POP POP POP POP JUMP JUMPDEST PUSH2 0x1403 DUP2 PUSH2 0x7D5 JUMP JUMPDEST DUP3 MSTORE POP POP JUMP JUMPDEST PUSH1 0x0 PUSH1 0x80 DUP3 ADD SWAP1 POP PUSH2 0x141E PUSH1 0x0 DUP4 ADD DUP8 PUSH2 0x13FA JUMP JUMPDEST PUSH2 0x142B PUSH1 0x20 DUP4 ADD DUP7 PUSH2 0xCC7 JUMP JUMPDEST DUP2 DUP2 SUB PUSH1 0x40 DUP4 ADD MSTORE PUSH2 0x143D DUP2 DUP6 PUSH2 0xD37 JUMP JUMPDEST SWAP1 POP PUSH2 0x144C PUSH1 0x60 DUP4 ADD DUP5 PUSH2 0x13FA JUMP JUMPDEST SWAP6 SWAP5 POP POP POP POP POP JUMP INVALID LOG2 PUSH5 0x6970667358 0x22 SLT KECCAK256 0x2D 0x4F 0xBF 0xE4 0xD5 SWAP13 PUSH31 0xB20CDBF2EA2ACB0E5030CF117D42A877AE3D3835EC0998D8564736F6C6343 STOP ADDMOD LT STOP CALLER "
		},
		"gasEstimates": {
			"creation": {
				"codeDepositCost": "1051800",
				"executionCost": "infinite",
				"totalCost": "infinite"
			},
			"external": {
				"assertTruth(uint256,bytes,address)": "infinite",
				"assertionRequests(uint256)": "infinite",
				"getAssertion(uint256)": "infinite",
				"getAssertionResult(uint256)": "infinite",
				"settleAndGetAssertionResult(uint256)": "infinite"
			}
		},
		"methodIdentifiers": {
			"assertTruth(uint256,bytes,address)": "8bde9aee",
			"assertionRequests(uint256)": "bb27bdec",
			"getAssertion(uint256)": "1d99e167",
			"getAssertionResult(uint256)": "adee9e00",
			"settleAndGetAssertionResult(uint256)": "7d9a7124"
		}
	},
	"abi": [
		{
			"inputs": [
				{
					"internalType": "address",
					"name": "ooContractAddress",
					"type": "address"
				}
			],
			"stateMutability": "nonpayable",
			"type": "constructor"
		},
		{
			"anonymous": false,
			"inputs": [
				{
					"indexed": false,
					"internalType": "uint256",
					"name": "assertId",
					"type": "uint256"
				},
				{
					"indexed": false,
					"internalType": "bytes32",
					"name": "assertionID",
					"type": "bytes32"
				},
				{
					"indexed": false,
					"internalType": "bytes",
					"name": "assertedClaim",
					"type": "bytes"
				},
				{
					"indexed": false,
					"internalType": "uint256",
					"name": "timestamp",
					"type": "uint256"
				}
			],
			"name": "truthAsserted",
			"type": "event"
		},
		{
			"inputs": [
				{
					"internalType": "uint256",
					"name": "assertId",
					"type": "uint256"
				},
				{
					"internalType": "bytes",
					"name": "assertedClaim",
					"type": "bytes"
				},
				{
					"internalType": "address",
					"name": "requester",
					"type": "address"
				}
			],
			"name": "assertTruth",
			"outputs": [
				{
					"internalType": "bytes32",
					"name": "assertionId",
					"type": "bytes32"
				}
			],
			"stateMutability": "nonpayable",
			"type": "function"
		},
		{
			"inputs": [
				{
					"internalType": "uint256",
					"name": "",
					"type": "uint256"
				}
			],
			"name": "assertionRequests",
			"outputs": [
				{
					"internalType": "bytes32",
					"name": "assertionId",
					"type": "bytes32"
				},
				{
					"internalType": "bytes",
					"name": "assertedClaim",
					"type": "bytes"
				},
				{
					"internalType": "address",
					"name": "requester",
					"type": "address"
				},
				{
					"internalType": "address",
					"name": "oracle",
					"type": "address"
				}
			],
			"stateMutability": "view",
			"type": "function"
		},
		{
			"inputs": [
				{
					"internalType": "uint256",
					"name": "assertId",
					"type": "uint256"
				}
			],
			"name": "getAssertion",
			"outputs": [
				{
					"components": [
						{
							"components": [
								{
									"internalType": "bool",
									"name": "arbitrateViaEscalationManager",
									"type": "bool"
								},
								{
									"internalType": "bool",
									"name": "discardOracle",
									"type": "bool"
								},
								{
									"internalType": "bool",
									"name": "validateDisputers",
									"type": "bool"
								},
								{
									"internalType": "address",
									"name": "assertingCaller",
									"type": "address"
								},
								{
									"internalType": "address",
									"name": "escalationManager",
									"type": "address"
								}
							],
							"internalType": "struct OptimisticOracleV3Interface.EscalationManagerSettings",
							"name": "escalationManagerSettings",
							"type": "tuple"
						},
						{
							"internalType": "address",
							"name": "asserter",
							"type": "address"
						},
						{
							"internalType": "uint64",
							"name": "assertionTime",
							"type": "uint64"
						},
						{
							"internalType": "bool",
							"name": "settled",
							"type": "bool"
						},
						{
							"internalType": "contract IERC20",
							"name": "currency",
							"type": "address"
						},
						{
							"internalType": "uint64",
							"name": "expirationTime",
							"type": "uint64"
						},
						{
							"internalType": "bool",
							"name": "settlementResolution",
							"type": "bool"
						},
						{
							"internalType": "bytes32",
							"name": "domainId",
							"type": "bytes32"
						},
						{
							"internalType": "bytes32",
							"name": "identifier",
							"type": "bytes32"
						},
						{
							"internalType": "uint256",
							"name": "bond",
							"type": "uint256"
						},
						{
							"internalType": "address",
							"name": "callbackRecipient",
							"type": "address"
						},
						{
							"internalType": "address",
							"name": "disputer",
							"type": "address"
						}
					],
					"internalType": "struct OptimisticOracleV3Interface.Assertion",
					"name": "",
					"type": "tuple"
				}
			],
			"stateMutability": "view",
			"type": "function"
		},
		{
			"inputs": [
				{
					"internalType": "uint256",
					"name": "assertId",
					"type": "uint256"
				}
			],
			"name": "getAssertionResult",
			"outputs": [
				{
					"internalType": "bool",
					"name": "",
					"type": "bool"
				}
			],
			"stateMutability": "view",
			"type": "function"
		},
		{
			"inputs": [
				{
					"internalType": "uint256",
					"name": "assertId",
					"type": "uint256"
				}
			],
			"name": "settleAndGetAssertionResult",
			"outputs": [
				{
					"internalType": "bool",
					"name": "",
					"type": "bool"
				}
			],
			"stateMutability": "nonpayable",
			"type": "function"
		}
	]
}