{
	"data": {
		"bytecode": {
			"linkReferences": {},
			"object": "6080604052600160005534801561001557600080fd5b506112e5806100256000396000f3fe608060405234801561001057600080fd5b506004361061007d5760003560e01c8063c58343ef1161005b578063c58343ef146100ec578063d247f92b1461011c578063f418ad7a14610138578063f84507ad146101705761007d565b80635944427b146100825780638a9cf5da146100b2578063b87c065f146100d0575b600080fd5b61009c6004803603810190610097919061088b565b6101a0565b6040516100a991906108d1565b60405180910390f35b6100ba6101c0565b6040516100c791906108fb565b60405180910390f35b6100ea60048036038101906100e59190610942565b6101c6565b005b6101066004803603810190610101919061088b565b610253565b6040516101139190610bc6565b60405180910390f35b6101366004803603810190610131919061088b565b61042c565b005b610152600480360381019061014d919061088b565b6104a6565b60405161016799989796959493929190610c5f565b60405180910390f35b61018a60048036038101906101859190610e80565b6105c9565b60405161019791906108fb565b60405180910390f35b600060016000838152602001908152602001600020600701549050919050565b60005481565b600060016000848152602001908152602001600020905081816007018190555060028160080160006101000a81548160ff0219169083600281111561020e5761020d610a8a565b5b02179055507f336b6a93b38daa435f14747b9c40a9bc9569de3a62550c286f52428d83a2846f83834260405161024693929190610f17565b60405180910390a1505050565b61025b6107b4565b60016000838152602001908152602001600020604051806101200160405290816000820154815260200160018201805461029490610f7d565b80601f01602080910402602001604051908101604052809291908181526020018280546102c090610f7d565b801561030d5780601f106102e25761010080835404028352916020019161030d565b820191906000526020600020905b8154815290600101906020018083116102f057829003601f168201915b505050505081526020016002820160009054906101000a900473ffffffffffffffffffffffffffffffffffffffff1673ffffffffffffffffffffffffffffffffffffffff1673ffffffffffffffffffffffffffffffffffffffff1681526020016003820154815260200160048201548152602001600582015481526020016006820160009054906101000a900473ffffffffffffffffffffffffffffffffffffffff1673ffffffffffffffffffffffffffffffffffffffff1673ffffffffffffffffffffffffffffffffffffffff168152602001600782015481526020016008820160009054906101000a900460ff16600281111561040f5761040e610a8a565b5b600281111561042157610420610a8a565b5b815250509050919050565b600180600083815260200190815260200160002060080160006101000a81548160ff0219169083600281111561046557610464610a8a565b5b02179055507f1f5d616c2e1670edad5d1f2ce72c07bd219ebefbae35617f57d8234964fc2743814260405161049b929190610fae565b60405180910390a150565b60016020528060005260406000206000915090508060000154908060010180546104cf90610f7d565b80601f01602080910402602001604051908101604052809291908181526020018280546104fb90610f7d565b80156105485780601f1061051d57610100808354040283529160200191610548565b820191906000526020600020905b81548152906001019060200180831161052b57829003601f168201915b5050505050908060020160009054906101000a900473ffffffffffffffffffffffffffffffffffffffff16908060030154908060040154908060050154908060060160009054906101000a900473ffffffffffffffffffffffffffffffffffffffff16908060070154908060080160009054906101000a900460ff16905089565b6000805490506040518061012001604052808781526020018681526020018573ffffffffffffffffffffffffffffffffffffffff1681526020018481526020018381526020014281526020013373ffffffffffffffffffffffffffffffffffffffff168152602001600081526020016000600281111561064c5761064b610a8a565b5b815250600160008381526020019081526020016000206000820151816000015560208201518160010190816106819190611183565b5060408201518160020160006101000a81548173ffffffffffffffffffffffffffffffffffffffff021916908373ffffffffffffffffffffffffffffffffffffffff160217905550606082015181600301556080820151816004015560a0820151816005015560c08201518160060160006101000a81548173ffffffffffffffffffffffffffffffffffffffff021916908373ffffffffffffffffffffffffffffffffffffffff16021790555060e082015181600701556101008201518160080160006101000a81548160ff0219169083600281111561076457610763610a8a565b5b02179055509050507f30b5bfd849df20e3e537cf95d7077e1aa0fcd8cc44832c6abd42da4534099f3681878742336040516107a3959493929190611255565b60405180910390a195945050505050565b6040518061012001604052806000801916815260200160608152602001600073ffffffffffffffffffffffffffffffffffffffff168152602001600081526020016000815260200160008152602001600073ffffffffffffffffffffffffffffffffffffffff168152602001600081526020016000600281111561083b5761083a610a8a565b5b81525090565b6000604051905090565b600080fd5b600080fd5b6000819050919050565b61086881610855565b811461087357600080fd5b50565b6000813590506108858161085f565b92915050565b6000602082840312156108a1576108a061084b565b5b60006108af84828501610876565b91505092915050565b6000819050919050565b6108cb816108b8565b82525050565b60006020820190506108e660008301846108c2565b92915050565b6108f581610855565b82525050565b600060208201905061091060008301846108ec565b92915050565b61091f816108b8565b811461092a57600080fd5b50565b60008135905061093c81610916565b92915050565b600080604083850312156109595761095861084b565b5b600061096785828601610876565b92505060206109788582860161092d565b9150509250929050565b6000819050919050565b61099581610982565b82525050565b600081519050919050565b600082825260208201905092915050565b60005b838110156109d55780820151818401526020810190506109ba565b60008484015250505050565b6000601f19601f8301169050919050565b60006109fd8261099b565b610a0781856109a6565b9350610a178185602086016109b7565b610a20816109e1565b840191505092915050565b600073ffffffffffffffffffffffffffffffffffffffff82169050919050565b6000610a5682610a2b565b9050919050565b610a6681610a4b565b82525050565b610a7581610855565b82525050565b610a84816108b8565b82525050565b7f4e487b7100000000000000000000000000000000000000000000000000000000600052602160045260246000fd5b60038110610aca57610ac9610a8a565b5b50565b6000819050610adb82610ab9565b919050565b6000610aeb82610acd565b9050919050565b610afb81610ae0565b82525050565b600061012083016000830151610b1a600086018261098c565b5060208301518482036020860152610b3282826109f2565b9150506040830151610b476040860182610a5d565b506060830151610b5a6060860182610a6c565b506080830151610b6d6080860182610a6c565b5060a0830151610b8060a0860182610a6c565b5060c0830151610b9360c0860182610a5d565b5060e0830151610ba660e0860182610a7b565b50610100830151610bbb610100860182610af2565b508091505092915050565b60006020820190508181036000830152610be08184610b01565b905092915050565b610bf181610982565b82525050565b600082825260208201905092915050565b6000610c138261099b565b610c1d8185610bf7565b9350610c2d8185602086016109b7565b610c36816109e1565b840191505092915050565b610c4a81610a4b565b82525050565b610c5981610ae0565b82525050565b600061012082019050610c75600083018c610be8565b8181036020830152610c87818b610c08565b9050610c96604083018a610c41565b610ca360608301896108ec565b610cb060808301886108ec565b610cbd60a08301876108ec565b610cca60c0830186610c41565b610cd760e08301856108c2565b610ce5610100830184610c50565b9a9950505050505050505050565b610cfc81610982565b8114610d0757600080fd5b50565b600081359050610d1981610cf3565b92915050565b600080fd5b600080fd5b7f4e487b7100000000000000000000000000000000000000000000000000000000600052604160045260246000fd5b610d61826109e1565b810181811067ffffffffffffffff82111715610d8057610d7f610d29565b5b80604052505050565b6000610d93610841565b9050610d9f8282610d58565b919050565b600067ffffffffffffffff821115610dbf57610dbe610d29565b5b610dc8826109e1565b9050602081019050919050565b82818337600083830152505050565b6000610df7610df284610da4565b610d89565b905082815260208101848484011115610e1357610e12610d24565b5b610e1e848285610dd5565b509392505050565b600082601f830112610e3b57610e3a610d1f565b5b8135610e4b848260208601610de4565b91505092915050565b610e5d81610a4b565b8114610e6857600080fd5b50565b600081359050610e7a81610e54565b92915050565b600080600080600060a08688031215610e9c57610e9b61084b565b5b6000610eaa88828901610d0a565b955050602086013567ffffffffffffffff811115610ecb57610eca610850565b5b610ed788828901610e26565b9450506040610ee888828901610e6b565b9350506060610ef988828901610876565b9250506080610f0a88828901610876565b9150509295509295909350565b6000606082019050610f2c60008301866108ec565b610f3960208301856108c2565b610f4660408301846108ec565b949350505050565b7f4e487b7100000000000000000000000000000000000000000000000000000000600052602260045260246000fd5b60006002820490506001821680610f9557607f821691505b602082108103610fa857610fa7610f4e565b5b50919050565b6000604082019050610fc360008301856108ec565b610fd060208301846108ec565b9392505050565b60008190508160005260206000209050919050565b60006020601f8301049050919050565b600082821b905092915050565b6000600883026110397fffffffffffffffffffffffffffffffffffffffffffffffffffffffffffffffff82610ffc565b6110438683610ffc565b95508019841693508086168417925050509392505050565b6000819050919050565b600061108061107b61107684610855565b61105b565b610855565b9050919050565b6000819050919050565b61109a83611065565b6110ae6110a682611087565b848454611009565b825550505050565b600090565b6110c36110b6565b6110ce818484611091565b505050565b5b818110156110f2576110e76000826110bb565b6001810190506110d4565b5050565b601f8211156111375761110881610fd7565b61111184610fec565b81016020851015611120578190505b61113461112c85610fec565b8301826110d3565b50505b505050565b600082821c905092915050565b600061115a6000198460080261113c565b1980831691505092915050565b60006111738383611149565b9150826002028217905092915050565b61118c8261099b565b67ffffffffffffffff8111156111a5576111a4610d29565b5b6111af8254610f7d565b6111ba8282856110f6565b600060209050601f8311600181146111ed57600084156111db578287015190505b6111e58582611167565b86555061124d565b601f1984166111fb86610fd7565b60005b82811015611223578489015182556001820191506020850194506020810190506111fe565b86831015611240578489015161123c601f891682611149565b8355505b6001600288020188555050505b505050505050565b600060a08201905061126a60008301886108ec565b6112776020830187610be8565b81810360408301526112898186610c08565b905061129860608301856108ec565b6112a56080830184610c41565b969550505050505056fea2646970667358221220df69f1f8dd9439656a05f444d0f0e9ad6699fbe2e297add79c9a7bf30ed8f52c64736f6c63430008100033",
			"opcodes": "PUSH1 0x80 PUSH1 0x40 MSTORE PUSH1 0x1 PUSH1 0x0 SSTORE CALLVALUE DUP1 ISZERO PUSH2 0x15 JUMPI PUSH1 0x0 DUP1 REVERT JUMPDEST POP PUSH2 0x12E5 DUP1 PUSH2 0x25 PUSH1 0x0 CODECOPY PUSH1 0x0 RETURN INVALID PUSH1 0x80 PUSH1 0x40 MSTORE CALLVALUE DUP1 ISZERO PUSH2 0x10 JUMPI PUSH1 0x0 DUP1 REVERT JUMPDEST POP PUSH1 0x4 CALLDATASIZE LT PUSH2 0x7D JUMPI PUSH1 0x0 CALLDATALOAD PUSH1 0xE0 SHR DUP1 PUSH4 0xC58343EF GT PUSH2 0x5B JUMPI DUP1 PUSH4 0xC58343EF EQ PUSH2 0xEC JUMPI DUP1 PUSH4 0xD247F92B EQ PUSH2 0x11C JUMPI DUP1 PUSH4 0xF418AD7A EQ PUSH2 0x138 JUMPI DUP1 PUSH4 0xF84507AD EQ PUSH2 0x170 JUMPI PUSH2 0x7D JUMP JUMPDEST DUP1 PUSH4 0x5944427B EQ PUSH2 0x82 JUMPI DUP1 PUSH4 0x8A9CF5DA EQ PUSH2 0xB2 JUMPI DUP1 PUSH4 0xB87C065F EQ PUSH2 0xD0 JUMPI JUMPDEST PUSH1 0x0 DUP1 REVERT JUMPDEST PUSH2 0x9C PUSH1 0x4 DUP1 CALLDATASIZE SUB DUP2 ADD SWAP1 PUSH2 0x97 SWAP2 SWAP1 PUSH2 0x88B JUMP JUMPDEST PUSH2 0x1A0 JUMP JUMPDEST PUSH1 0x40 MLOAD PUSH2 0xA9 SWAP2 SWAP1 PUSH2 0x8D1 JUMP JUMPDEST PUSH1 0x40 MLOAD DUP1 SWAP2 SUB SWAP1 RETURN JUMPDEST PUSH2 0xBA PUSH2 0x1C0 JUMP JUMPDEST PUSH1 0x40 MLOAD PUSH2 0xC7 SWAP2 SWAP1 PUSH2 0x8FB JUMP JUMPDEST PUSH1 0x40 MLOAD DUP1 SWAP2 SUB SWAP1 RETURN JUMPDEST PUSH2 0xEA PUSH1 0x4 DUP1 CALLDATASIZE SUB DUP2 ADD SWAP1 PUSH2 0xE5 SWAP2 SWAP1 PUSH2 0x942 JUMP JUMPDEST PUSH2 0x1C6 JUMP JUMPDEST STOP JUMPDEST PUSH2 0x106 PUSH1 0x4 DUP1 CALLDATASIZE SUB DUP2 ADD SWAP1 PUSH2 0x101 SWAP2 SWAP1 PUSH2 0x88B JUMP JUMPDEST PUSH2 0x253 JUMP JUMPDEST PUSH1 0x40 MLOAD PUSH2 0x113 SWAP2 SWAP1 PUSH2 0xBC6 JUMP JUMPDEST PUSH1 0x40 MLOAD DUP1 SWAP2 SUB SWAP1 RETURN JUMPDEST PUSH2 0x136 PUSH1 0x4 DUP1 CALLDATASIZE SUB DUP2 ADD SWAP1 PUSH2 0x131 SWAP2 SWAP1 PUSH2 0x88B JUMP JUMPDEST PUSH2 0x42C JUMP JUMPDEST STOP JUMPDEST PUSH2 0x152 PUSH1 0x4 DUP1 CALLDATASIZE SUB DUP2 ADD SWAP1 PUSH2 0x14D SWAP2 SWAP1 PUSH2 0x88B JUMP JUMPDEST PUSH2 0x4A6 JUMP JUMPDEST PUSH1 0x40 MLOAD PUSH2 0x167 SWAP10 SWAP9 SWAP8 SWAP7 SWAP6 SWAP5 SWAP4 SWAP3 SWAP2 SWAP1 PUSH2 0xC5F JUMP JUMPDEST PUSH1 0x40 MLOAD DUP1 SWAP2 SUB SWAP1 RETURN JUMPDEST PUSH2 0x18A PUSH1 0x4 DUP1 CALLDATASIZE SUB DUP2 ADD SWAP1 PUSH2 0x185 SWAP2 SWAP1 PUSH2 0xE80 JUMP JUMPDEST PUSH2 0x5C9 JUMP JUMPDEST PUSH1 0x40 MLOAD PUSH2 0x197 SWAP2 SWAP1 PUSH2 0x8FB JUMP JUMPDEST PUSH1 0x40 MLOAD DUP1 SWAP2 SUB SWAP1 RETURN JUMPDEST PUSH1 0x0 PUSH1 0x1 PUSH1 0x0 DUP4 DUP2 MSTORE PUSH1 0x20 ADD SWAP1 DUP2 MSTORE PUSH1 0x20 ADD PUSH1 0x0 KECCAK256 PUSH1 0x7 ADD SLOAD SWAP1 POP SWAP2 SWAP1 POP JUMP JUMPDEST PUSH1 0x0 SLOAD DUP2 JUMP JUMPDEST PUSH1 0x0 PUSH1 0x1 PUSH1 0x0 DUP5 DUP2 MSTORE PUSH1 0x20 ADD SWAP1 DUP2 MSTORE PUSH1 0x20 ADD PUSH1 0x0 KECCAK256 SWAP1 POP DUP2 DUP2 PUSH1 0x7 ADD DUP2 SWAP1 SSTORE POP PUSH1 0x2 DUP2 PUSH1 0x8 ADD PUSH1 0x0 PUSH2 0x100 EXP DUP2 SLOAD DUP2 PUSH1 0xFF MUL NOT AND SWAP1 DUP4 PUSH1 0x2 DUP2 GT ISZERO PUSH2 0x20E JUMPI PUSH2 0x20D PUSH2 0xA8A JUMP JUMPDEST JUMPDEST MUL OR SWAP1 SSTORE POP PUSH32 0x336B6A93B38DAA435F14747B9C40A9BC9569DE3A62550C286F52428D83A2846F DUP4 DUP4 TIMESTAMP PUSH1 0x40 MLOAD PUSH2 0x246 SWAP4 SWAP3 SWAP2 SWAP1 PUSH2 0xF17 JUMP JUMPDEST PUSH1 0x40 MLOAD DUP1 SWAP2 SUB SWAP1 LOG1 POP POP POP JUMP JUMPDEST PUSH2 0x25B PUSH2 0x7B4 JUMP JUMPDEST PUSH1 0x1 PUSH1 0x0 DUP4 DUP2 MSTORE PUSH1 0x20 ADD SWAP1 DUP2 MSTORE PUSH1 0x20 ADD PUSH1 0x0 KECCAK256 PUSH1 0x40 MLOAD DUP1 PUSH2 0x120 ADD PUSH1 0x40 MSTORE SWAP1 DUP2 PUSH1 0x0 DUP3 ADD SLOAD DUP2 MSTORE PUSH1 0x20 ADD PUSH1 0x1 DUP3 ADD DUP1 SLOAD PUSH2 0x294 SWAP1 PUSH2 0xF7D JUMP JUMPDEST DUP1 PUSH1 0x1F ADD PUSH1 0x20 DUP1 SWAP2 DIV MUL PUSH1 0x20 ADD PUSH1 0x40 MLOAD SWAP1 DUP2 ADD PUSH1 0x40 MSTORE DUP1 SWAP3 SWAP2 SWAP1 DUP2 DUP2 MSTORE PUSH1 0x20 ADD DUP3 DUP1 SLOAD PUSH2 0x2C0 SWAP1 PUSH2 0xF7D JUMP JUMPDEST DUP1 ISZERO PUSH2 0x30D JUMPI DUP1 PUSH1 0x1F LT PUSH2 0x2E2 JUMPI PUSH2 0x100 DUP1 DUP4 SLOAD DIV MUL DUP4 MSTORE SWAP2 PUSH1 0x20 ADD SWAP2 PUSH2 0x30D JUMP JUMPDEST DUP3 ADD SWAP2 SWAP1 PUSH1 0x0 MSTORE PUSH1 0x20 PUSH1 0x0 KECCAK256 SWAP1 JUMPDEST DUP2 SLOAD DUP2 MSTORE SWAP1 PUSH1 0x1 ADD SWAP1 PUSH1 0x20 ADD DUP1 DUP4 GT PUSH2 0x2F0 JUMPI DUP3 SWAP1 SUB PUSH1 0x1F AND DUP3 ADD SWAP2 JUMPDEST POP POP POP POP POP DUP2 MSTORE PUSH1 0x20 ADD PUSH1 0x2 DUP3 ADD PUSH1 0x0 SWAP1 SLOAD SWAP1 PUSH2 0x100 EXP SWAP1 DIV PUSH20 0xFFFFFFFFFFFFFFFFFFFFFFFFFFFFFFFFFFFFFFFF AND PUSH20 0xFFFFFFFFFFFFFFFFFFFFFFFFFFFFFFFFFFFFFFFF AND PUSH20 0xFFFFFFFFFFFFFFFFFFFFFFFFFFFFFFFFFFFFFFFF AND DUP2 MSTORE PUSH1 0x20 ADD PUSH1 0x3 DUP3 ADD SLOAD DUP2 MSTORE PUSH1 0x20 ADD PUSH1 0x4 DUP3 ADD SLOAD DUP2 MSTORE PUSH1 0x20 ADD PUSH1 0x5 DUP3 ADD SLOAD DUP2 MSTORE PUSH1 0x20 ADD PUSH1 0x6 DUP3 ADD PUSH1 0x0 SWAP1 SLOAD SWAP1 PUSH2 0x100 EXP SWAP1 DIV PUSH20 0xFFFFFFFFFFFFFFFFFFFFFFFFFFFFFFFFFFFFFFFF AND PUSH20 0xFFFFFFFFFFFFFFFFFFFFFFFFFFFFFFFFFFFFFFFF AND PUSH20 0xFFFFFFFFFFFFFFFFFFFFFFFFFFFFFFFFFFFFFFFF AND DUP2 MSTORE PUSH1 0x20 ADD PUSH1 0x7 DUP3 ADD SLOAD DUP2 MSTORE PUSH1 0x20 ADD PUSH1 0x8 DUP3 ADD PUSH1 0x0 SWAP1 SLOAD SWAP1 PUSH2 0x100 EXP SWAP1 DIV PUSH1 0xFF AND PUSH1 0x2 DUP2 GT ISZERO PUSH2 0x40F JUMPI PUSH2 0x40E PUSH2 0xA8A JUMP JUMPDEST JUMPDEST PUSH1 0x2 DUP2 GT ISZERO PUSH2 0x421 JUMPI PUSH2 0x420 PUSH2 0xA8A JUMP JUMPDEST JUMPDEST DUP2 MSTORE POP POP SWAP1 POP SWAP2 SWAP1 POP JUMP JUMPDEST PUSH1 0x1 DUP1 PUSH1 0x0 DUP4 DUP2 MSTORE PUSH1 0x20 ADD SWAP1 DUP2 MSTORE PUSH1 0x20 ADD PUSH1 0x0 KECCAK256 PUSH1 0x8 ADD PUSH1 0x0 PUSH2 0x100 EXP DUP2 SLOAD DUP2 PUSH1 0xFF MUL NOT AND SWAP1 DUP4 PUSH1 0x2 DUP2 GT ISZERO PUSH2 0x465 JUMPI PUSH2 0x464 PUSH2 0xA8A JUMP JUMPDEST JUMPDEST MUL OR SWAP1 SSTORE POP PUSH32 0x1F5D616C2E1670EDAD5D1F2CE72C07BD219EBEFBAE35617F57D8234964FC2743 DUP2 TIMESTAMP PUSH1 0x40 MLOAD PUSH2 0x49B SWAP3 SWAP2 SWAP1 PUSH2 0xFAE JUMP JUMPDEST PUSH1 0x40 MLOAD DUP1 SWAP2 SUB SWAP1 LOG1 POP JUMP JUMPDEST PUSH1 0x1 PUSH1 0x20 MSTORE DUP1 PUSH1 0x0 MSTORE PUSH1 0x40 PUSH1 0x0 KECCAK256 PUSH1 0x0 SWAP2 POP SWAP1 POP DUP1 PUSH1 0x0 ADD SLOAD SWAP1 DUP1 PUSH1 0x1 ADD DUP1 SLOAD PUSH2 0x4CF SWAP1 PUSH2 0xF7D JUMP JUMPDEST DUP1 PUSH1 0x1F ADD PUSH1 0x20 DUP1 SWAP2 DIV MUL PUSH1 0x20 ADD PUSH1 0x40 MLOAD SWAP1 DUP2 ADD PUSH1 0x40 MSTORE DUP1 SWAP3 SWAP2 SWAP1 DUP2 DUP2 MSTORE PUSH1 0x20 ADD DUP3 DUP1 SLOAD PUSH2 0x4FB SWAP1 PUSH2 0xF7D JUMP JUMPDEST DUP1 ISZERO PUSH2 0x548 JUMPI DUP1 PUSH1 0x1F LT PUSH2 0x51D JUMPI PUSH2 0x100 DUP1 DUP4 SLOAD DIV MUL DUP4 MSTORE SWAP2 PUSH1 0x20 ADD SWAP2 PUSH2 0x548 JUMP JUMPDEST DUP3 ADD SWAP2 SWAP1 PUSH1 0x0 MSTORE PUSH1 0x20 PUSH1 0x0 KECCAK256 SWAP1 JUMPDEST DUP2 SLOAD DUP2 MSTORE SWAP1 PUSH1 0x1 ADD SWAP1 PUSH1 0x20 ADD DUP1 DUP4 GT PUSH2 0x52B JUMPI DUP3 SWAP1 SUB PUSH1 0x1F AND DUP3 ADD SWAP2 JUMPDEST POP POP POP POP POP SWAP1 DUP1 PUSH1 0x2 ADD PUSH1 0x0 SWAP1 SLOAD SWAP1 PUSH2 0x100 EXP SWAP1 DIV PUSH20 0xFFFFFFFFFFFFFFFFFFFFFFFFFFFFFFFFFFFFFFFF AND SWAP1 DUP1 PUSH1 0x3 ADD SLOAD SWAP1 DUP1 PUSH1 0x4 ADD SLOAD SWAP1 DUP1 PUSH1 0x5 ADD SLOAD SWAP1 DUP1 PUSH1 0x6 ADD PUSH1 0x0 SWAP1 SLOAD SWAP1 PUSH2 0x100 EXP SWAP1 DIV PUSH20 0xFFFFFFFFFFFFFFFFFFFFFFFFFFFFFFFFFFFFFFFF AND SWAP1 DUP1 PUSH1 0x7 ADD SLOAD SWAP1 DUP1 PUSH1 0x8 ADD PUSH1 0x0 SWAP1 SLOAD SWAP1 PUSH2 0x100 EXP SWAP1 DIV PUSH1 0xFF AND SWAP1 POP DUP10 JUMP JUMPDEST PUSH1 0x0 DUP1 SLOAD SWAP1 POP PUSH1 0x40 MLOAD DUP1 PUSH2 0x120 ADD PUSH1 0x40 MSTORE DUP1 DUP8 DUP2 MSTORE PUSH1 0x20 ADD DUP7 DUP2 MSTORE PUSH1 0x20 ADD DUP6 PUSH20 0xFFFFFFFFFFFFFFFFFFFFFFFFFFFFFFFFFFFFFFFF AND DUP2 MSTORE PUSH1 0x20 ADD DUP5 DUP2 MSTORE PUSH1 0x20 ADD DUP4 DUP2 MSTORE PUSH1 0x20 ADD TIMESTAMP DUP2 MSTORE PUSH1 0x20 ADD CALLER PUSH20 0xFFFFFFFFFFFFFFFFFFFFFFFFFFFFFFFFFFFFFFFF AND DUP2 MSTORE PUSH1 0x20 ADD PUSH1 0x0 DUP2 MSTORE PUSH1 0x20 ADD PUSH1 0x0 PUSH1 0x2 DUP2 GT ISZERO PUSH2 0x64C JUMPI PUSH2 0x64B PUSH2 0xA8A JUMP JUMPDEST JUMPDEST DUP2 MSTORE POP PUSH1 0x1 PUSH1 0x0 DUP4 DUP2 MSTORE PUSH1 0x20 ADD SWAP1 DUP2 MSTORE PUSH1 0x20 ADD PUSH1 0x0 KECCAK256 PUSH1 0x0 DUP3 ADD MLOAD DUP2 PUSH1 0x0 ADD SSTORE PUSH1 0x20 DUP3 ADD MLOAD DUP2 PUSH1 0x1 ADD SWAP1 DUP2 PUSH2 0x681 SWAP2 SWAP1 PUSH2 0x1183 JUMP JUMPDEST POP PUSH1 0x40 DUP3 ADD MLOAD DUP2 PUSH1 0x2 ADD PUSH1 0x0 PUSH2 0x100 EXP DUP2 SLOAD DUP2 PUSH20 0xFFFFFFFFFFFFFFFFFFFFFFFFFFFFFFFFFFFFFFFF MUL NOT AND SWAP1 DUP4 PUSH20 0xFFFFFFFFFFFFFFFFFFFFFFFFFFFFFFFFFFFFFFFF AND MUL OR SWAP1 SSTORE POP PUSH1 0x60 DUP3 ADD MLOAD DUP2 PUSH1 0x3 ADD SSTORE PUSH1 0x80 DUP3 ADD MLOAD DUP2 PUSH1 0x4 ADD SSTORE PUSH1 0xA0 DUP3 ADD MLOAD DUP2 PUSH1 0x5 ADD SSTORE PUSH1 0xC0 DUP3 ADD MLOAD DUP2 PUSH1 0x6 ADD PUSH1 0x0 PUSH2 0x100 EXP DUP2 SLOAD DUP2 PUSH20 0xFFFFFFFFFFFFFFFFFFFFFFFFFFFFFFFFFFFFFFFF MUL NOT AND SWAP1 DUP4 PUSH20 0xFFFFFFFFFFFFFFFFFFFFFFFFFFFFFFFFFFFFFFFF AND MUL OR SWAP1 SSTORE POP PUSH1 0xE0 DUP3 ADD MLOAD DUP2 PUSH1 0x7 ADD SSTORE PUSH2 0x100 DUP3 ADD MLOAD DUP2 PUSH1 0x8 ADD PUSH1 0x0 PUSH2 0x100 EXP DUP2 SLOAD DUP2 PUSH1 0xFF MUL NOT AND SWAP1 DUP4 PUSH1 0x2 DUP2 GT ISZERO PUSH2 0x764 JUMPI PUSH2 0x763 PUSH2 0xA8A JUMP JUMPDEST JUMPDEST MUL OR SWAP1 SSTORE POP SWAP1 POP POP PUSH32 0x30B5BFD849DF20E3E537CF95D7077E1AA0FCD8CC44832C6ABD42DA4534099F36 DUP2 DUP8 DUP8 TIMESTAMP CALLER PUSH1 0x40 MLOAD PUSH2 0x7A3 SWAP6 SWAP5 SWAP4 SWAP3 SWAP2 SWAP1 PUSH2 0x1255 JUMP JUMPDEST PUSH1 0x40 MLOAD DUP1 SWAP2 SUB SWAP1 LOG1 SWAP6 SWAP5 POP POP POP POP POP JUMP JUMPDEST PUSH1 0x40 MLOAD DUP1 PUSH2 0x120 ADD PUSH1 0x40 MSTORE DUP1 PUSH1 0x0 DUP1 NOT AND DUP2 MSTORE PUSH1 0x20 ADD PUSH1 0x60 DUP2 MSTORE PUSH1 0x20 ADD PUSH1 0x0 PUSH20 0xFFFFFFFFFFFFFFFFFFFFFFFFFFFFFFFFFFFFFFFF AND DUP2 MSTORE PUSH1 0x20 ADD PUSH1 0x0 DUP2 MSTORE PUSH1 0x20 ADD PUSH1 0x0 DUP2 MSTORE PUSH1 0x20 ADD PUSH1 0x0 DUP2 MSTORE PUSH1 0x20 ADD PUSH1 0x0 PUSH20 0xFFFFFFFFFFFFFFFFFFFFFFFFFFFFFFFFFFFFFFFF AND DUP2 MSTORE PUSH1 0x20 ADD PUSH1 0x0 DUP2 MSTORE PUSH1 0x20 ADD PUSH1 0x0 PUSH1 0x2 DUP2 GT ISZERO PUSH2 0x83B JUMPI PUSH2 0x83A PUSH2 0xA8A JUMP JUMPDEST JUMPDEST DUP2 MSTORE POP SWAP1 JUMP JUMPDEST PUSH1 0x0 PUSH1 0x40 MLOAD SWAP1 POP SWAP1 JUMP JUMPDEST PUSH1 0x0 DUP1 REVERT JUMPDEST PUSH1 0x0 DUP1 REVERT JUMPDEST PUSH1 0x0 DUP2 SWAP1 POP SWAP2 SWAP1 POP JUMP JUMPDEST PUSH2 0x868 DUP2 PUSH2 0x855 JUMP JUMPDEST DUP2 EQ PUSH2 0x873 JUMPI PUSH1 0x0 DUP1 REVERT JUMPDEST POP JUMP JUMPDEST PUSH1 0x0 DUP2 CALLDATALOAD SWAP1 POP PUSH2 0x885 DUP2 PUSH2 0x85F JUMP JUMPDEST SWAP3 SWAP2 POP POP JUMP JUMPDEST PUSH1 0x0 PUSH1 0x20 DUP3 DUP5 SUB SLT ISZERO PUSH2 0x8A1 JUMPI PUSH2 0x8A0 PUSH2 0x84B JUMP JUMPDEST JUMPDEST PUSH1 0x0 PUSH2 0x8AF DUP5 DUP3 DUP6 ADD PUSH2 0x876 JUMP JUMPDEST SWAP2 POP POP SWAP3 SWAP2 POP POP JUMP JUMPDEST PUSH1 0x0 DUP2 SWAP1 POP SWAP2 SWAP1 POP JUMP JUMPDEST PUSH2 0x8CB DUP2 PUSH2 0x8B8 JUMP JUMPDEST DUP3 MSTORE POP POP JUMP JUMPDEST PUSH1 0x0 PUSH1 0x20 DUP3 ADD SWAP1 POP PUSH2 0x8E6 PUSH1 0x0 DUP4 ADD DUP5 PUSH2 0x8C2 JUMP JUMPDEST SWAP3 SWAP2 POP POP JUMP JUMPDEST PUSH2 0x8F5 DUP2 PUSH2 0x855 JUMP JUMPDEST DUP3 MSTORE POP POP JUMP JUMPDEST PUSH1 0x0 PUSH1 0x20 DUP3 ADD SWAP1 POP PUSH2 0x910 PUSH1 0x0 DUP4 ADD DUP5 PUSH2 0x8EC JUMP JUMPDEST SWAP3 SWAP2 POP POP JUMP JUMPDEST PUSH2 0x91F DUP2 PUSH2 0x8B8 JUMP JUMPDEST DUP2 EQ PUSH2 0x92A JUMPI PUSH1 0x0 DUP1 REVERT JUMPDEST POP JUMP JUMPDEST PUSH1 0x0 DUP2 CALLDATALOAD SWAP1 POP PUSH2 0x93C DUP2 PUSH2 0x916 JUMP JUMPDEST SWAP3 SWAP2 POP POP JUMP JUMPDEST PUSH1 0x0 DUP1 PUSH1 0x40 DUP4 DUP6 SUB SLT ISZERO PUSH2 0x959 JUMPI PUSH2 0x958 PUSH2 0x84B JUMP JUMPDEST JUMPDEST PUSH1 0x0 PUSH2 0x967 DUP6 DUP3 DUP7 ADD PUSH2 0x876 JUMP JUMPDEST SWAP3 POP POP PUSH1 0x20 PUSH2 0x978 DUP6 DUP3 DUP7 ADD PUSH2 0x92D JUMP JUMPDEST SWAP2 POP POP SWAP3 POP SWAP3 SWAP1 POP JUMP JUMPDEST PUSH1 0x0 DUP2 SWAP1 POP SWAP2 SWAP1 POP JUMP JUMPDEST PUSH2 0x995 DUP2 PUSH2 0x982 JUMP JUMPDEST DUP3 MSTORE POP POP JUMP JUMPDEST PUSH1 0x0 DUP2 MLOAD SWAP1 POP SWAP2 SWAP1 POP JUMP JUMPDEST PUSH1 0x0 DUP3 DUP3 MSTORE PUSH1 0x20 DUP3 ADD SWAP1 POP SWAP3 SWAP2 POP POP JUMP JUMPDEST PUSH1 0x0 JUMPDEST DUP4 DUP2 LT ISZERO PUSH2 0x9D5 JUMPI DUP1 DUP3 ADD MLOAD DUP2 DUP5 ADD MSTORE PUSH1 0x20 DUP2 ADD SWAP1 POP PUSH2 0x9BA JUMP JUMPDEST PUSH1 0x0 DUP5 DUP5 ADD MSTORE POP POP POP POP JUMP JUMPDEST PUSH1 0x0 PUSH1 0x1F NOT PUSH1 0x1F DUP4 ADD AND SWAP1 POP SWAP2 SWAP1 POP JUMP JUMPDEST PUSH1 0x0 PUSH2 0x9FD DUP3 PUSH2 0x99B JUMP JUMPDEST PUSH2 0xA07 DUP2 DUP6 PUSH2 0x9A6 JUMP JUMPDEST SWAP4 POP PUSH2 0xA17 DUP2 DUP6 PUSH1 0x20 DUP7 ADD PUSH2 0x9B7 JUMP JUMPDEST PUSH2 0xA20 DUP2 PUSH2 0x9E1 JUMP JUMPDEST DUP5 ADD SWAP2 POP POP SWAP3 SWAP2 POP POP JUMP JUMPDEST PUSH1 0x0 PUSH20 0xFFFFFFFFFFFFFFFFFFFFFFFFFFFFFFFFFFFFFFFF DUP3 AND SWAP1 POP SWAP2 SWAP1 POP JUMP JUMPDEST PUSH1 0x0 PUSH2 0xA56 DUP3 PUSH2 0xA2B JUMP JUMPDEST SWAP1 POP SWAP2 SWAP1 POP JUMP JUMPDEST PUSH2 0xA66 DUP2 PUSH2 0xA4B JUMP JUMPDEST DUP3 MSTORE POP POP JUMP JUMPDEST PUSH2 0xA75 DUP2 PUSH2 0x855 JUMP JUMPDEST DUP3 MSTORE POP POP JUMP JUMPDEST PUSH2 0xA84 DUP2 PUSH2 0x8B8 JUMP JUMPDEST DUP3 MSTORE POP POP JUMP JUMPDEST PUSH32 0x4E487B7100000000000000000000000000000000000000000000000000000000 PUSH1 0x0 MSTORE PUSH1 0x21 PUSH1 0x4 MSTORE PUSH1 0x24 PUSH1 0x0 REVERT JUMPDEST PUSH1 0x3 DUP2 LT PUSH2 0xACA JUMPI PUSH2 0xAC9 PUSH2 0xA8A JUMP JUMPDEST JUMPDEST POP JUMP JUMPDEST PUSH1 0x0 DUP2 SWAP1 POP PUSH2 0xADB DUP3 PUSH2 0xAB9 JUMP JUMPDEST SWAP2 SWAP1 POP JUMP JUMPDEST PUSH1 0x0 PUSH2 0xAEB DUP3 PUSH2 0xACD JUMP JUMPDEST SWAP1 POP SWAP2 SWAP1 POP JUMP JUMPDEST PUSH2 0xAFB DUP2 PUSH2 0xAE0 JUMP JUMPDEST DUP3 MSTORE POP POP JUMP JUMPDEST PUSH1 0x0 PUSH2 0x120 DUP4 ADD PUSH1 0x0 DUP4 ADD MLOAD PUSH2 0xB1A PUSH1 0x0 DUP7 ADD DUP3 PUSH2 0x98C JUMP JUMPDEST POP PUSH1 0x20 DUP4 ADD MLOAD DUP5 DUP3 SUB PUSH1 0x20 DUP7 ADD MSTORE PUSH2 0xB32 DUP3 DUP3 PUSH2 0x9F2 JUMP JUMPDEST SWAP2 POP POP PUSH1 0x40 DUP4 ADD MLOAD PUSH2 0xB47 PUSH1 0x40 DUP7 ADD DUP3 PUSH2 0xA5D JUMP JUMPDEST POP PUSH1 0x60 DUP4 ADD MLOAD PUSH2 0xB5A PUSH1 0x60 DUP7 ADD DUP3 PUSH2 0xA6C JUMP JUMPDEST POP PUSH1 0x80 DUP4 ADD MLOAD PUSH2 0xB6D PUSH1 0x80 DUP7 ADD DUP3 PUSH2 0xA6C JUMP JUMPDEST POP PUSH1 0xA0 DUP4 ADD MLOAD PUSH2 0xB80 PUSH1 0xA0 DUP7 ADD DUP3 PUSH2 0xA6C JUMP JUMPDEST POP PUSH1 0xC0 DUP4 ADD MLOAD PUSH2 0xB93 PUSH1 0xC0 DUP7 ADD DUP3 PUSH2 0xA5D JUMP JUMPDEST POP PUSH1 0xE0 DUP4 ADD MLOAD PUSH2 0xBA6 PUSH1 0xE0 DUP7 ADD DUP3 PUSH2 0xA7B JUMP JUMPDEST POP PUSH2 0x100 DUP4 ADD MLOAD PUSH2 0xBBB PUSH2 0x100 DUP7 ADD DUP3 PUSH2 0xAF2 JUMP JUMPDEST POP DUP1 SWAP2 POP POP SWAP3 SWAP2 POP POP JUMP JUMPDEST PUSH1 0x0 PUSH1 0x20 DUP3 ADD SWAP1 POP DUP2 DUP2 SUB PUSH1 0x0 DUP4 ADD MSTORE PUSH2 0xBE0 DUP2 DUP5 PUSH2 0xB01 JUMP JUMPDEST SWAP1 POP SWAP3 SWAP2 POP POP JUMP JUMPDEST PUSH2 0xBF1 DUP2 PUSH2 0x982 JUMP JUMPDEST DUP3 MSTORE POP POP JUMP JUMPDEST PUSH1 0x0 DUP3 DUP3 MSTORE PUSH1 0x20 DUP3 ADD SWAP1 POP SWAP3 SWAP2 POP POP JUMP JUMPDEST PUSH1 0x0 PUSH2 0xC13 DUP3 PUSH2 0x99B JUMP JUMPDEST PUSH2 0xC1D DUP2 DUP6 PUSH2 0xBF7 JUMP JUMPDEST SWAP4 POP PUSH2 0xC2D DUP2 DUP6 PUSH1 0x20 DUP7 ADD PUSH2 0x9B7 JUMP JUMPDEST PUSH2 0xC36 DUP2 PUSH2 0x9E1 JUMP JUMPDEST DUP5 ADD SWAP2 POP POP SWAP3 SWAP2 POP POP JUMP JUMPDEST PUSH2 0xC4A DUP2 PUSH2 0xA4B JUMP JUMPDEST DUP3 MSTORE POP POP JUMP JUMPDEST PUSH2 0xC59 DUP2 PUSH2 0xAE0 JUMP JUMPDEST DUP3 MSTORE POP POP JUMP JUMPDEST PUSH1 0x0 PUSH2 0x120 DUP3 ADD SWAP1 POP PUSH2 0xC75 PUSH1 0x0 DUP4 ADD DUP13 PUSH2 0xBE8 JUMP JUMPDEST DUP2 DUP2 SUB PUSH1 0x20 DUP4 ADD MSTORE PUSH2 0xC87 DUP2 DUP12 PUSH2 0xC08 JUMP JUMPDEST SWAP1 POP PUSH2 0xC96 PUSH1 0x40 DUP4 ADD DUP11 PUSH2 0xC41 JUMP JUMPDEST PUSH2 0xCA3 PUSH1 0x60 DUP4 ADD DUP10 PUSH2 0x8EC JUMP JUMPDEST PUSH2 0xCB0 PUSH1 0x80 DUP4 ADD DUP9 PUSH2 0x8EC JUMP JUMPDEST PUSH2 0xCBD PUSH1 0xA0 DUP4 ADD DUP8 PUSH2 0x8EC JUMP JUMPDEST PUSH2 0xCCA PUSH1 0xC0 DUP4 ADD DUP7 PUSH2 0xC41 JUMP JUMPDEST PUSH2 0xCD7 PUSH1 0xE0 DUP4 ADD DUP6 PUSH2 0x8C2 JUMP JUMPDEST PUSH2 0xCE5 PUSH2 0x100 DUP4 ADD DUP5 PUSH2 0xC50 JUMP JUMPDEST SWAP11 SWAP10 POP POP POP POP POP POP POP POP POP POP JUMP JUMPDEST PUSH2 0xCFC DUP2 PUSH2 0x982 JUMP JUMPDEST DUP2 EQ PUSH2 0xD07 JUMPI PUSH1 0x0 DUP1 REVERT JUMPDEST POP JUMP JUMPDEST PUSH1 0x0 DUP2 CALLDATALOAD SWAP1 POP PUSH2 0xD19 DUP2 PUSH2 0xCF3 JUMP JUMPDEST SWAP3 SWAP2 POP POP JUMP JUMPDEST PUSH1 0x0 DUP1 REVERT JUMPDEST PUSH1 0x0 DUP1 REVERT JUMPDEST PUSH32 0x4E487B7100000000000000000000000000000000000000000000000000000000 PUSH1 0x0 MSTORE PUSH1 0x41 PUSH1 0x4 MSTORE PUSH1 0x24 PUSH1 0x0 REVERT JUMPDEST PUSH2 0xD61 DUP3 PUSH2 0x9E1 JUMP JUMPDEST DUP2 ADD DUP2 DUP2 LT PUSH8 0xFFFFFFFFFFFFFFFF DUP3 GT OR ISZERO PUSH2 0xD80 JUMPI PUSH2 0xD7F PUSH2 0xD29 JUMP JUMPDEST JUMPDEST DUP1 PUSH1 0x40 MSTORE POP POP POP JUMP JUMPDEST PUSH1 0x0 PUSH2 0xD93 PUSH2 0x841 JUMP JUMPDEST SWAP1 POP PUSH2 0xD9F DUP3 DUP3 PUSH2 0xD58 JUMP JUMPDEST SWAP2 SWAP1 POP JUMP JUMPDEST PUSH1 0x0 PUSH8 0xFFFFFFFFFFFFFFFF DUP3 GT ISZERO PUSH2 0xDBF JUMPI PUSH2 0xDBE PUSH2 0xD29 JUMP JUMPDEST JUMPDEST PUSH2 0xDC8 DUP3 PUSH2 0x9E1 JUMP JUMPDEST SWAP1 POP PUSH1 0x20 DUP2 ADD SWAP1 POP SWAP2 SWAP1 POP JUMP JUMPDEST DUP3 DUP2 DUP4 CALLDATACOPY PUSH1 0x0 DUP4 DUP4 ADD MSTORE POP POP POP JUMP JUMPDEST PUSH1 0x0 PUSH2 0xDF7 PUSH2 0xDF2 DUP5 PUSH2 0xDA4 JUMP JUMPDEST PUSH2 0xD89 JUMP JUMPDEST SWAP1 POP DUP3 DUP2 MSTORE PUSH1 0x20 DUP2 ADD DUP5 DUP5 DUP5 ADD GT ISZERO PUSH2 0xE13 JUMPI PUSH2 0xE12 PUSH2 0xD24 JUMP JUMPDEST JUMPDEST PUSH2 0xE1E DUP5 DUP3 DUP6 PUSH2 0xDD5 JUMP JUMPDEST POP SWAP4 SWAP3 POP POP POP JUMP JUMPDEST PUSH1 0x0 DUP3 PUSH1 0x1F DUP4 ADD SLT PUSH2 0xE3B JUMPI PUSH2 0xE3A PUSH2 0xD1F JUMP JUMPDEST JUMPDEST DUP2 CALLDATALOAD PUSH2 0xE4B DUP5 DUP3 PUSH1 0x20 DUP7 ADD PUSH2 0xDE4 JUMP JUMPDEST SWAP2 POP POP SWAP3 SWAP2 POP POP JUMP JUMPDEST PUSH2 0xE5D DUP2 PUSH2 0xA4B JUMP JUMPDEST DUP2 EQ PUSH2 0xE68 JUMPI PUSH1 0x0 DUP1 REVERT JUMPDEST POP JUMP JUMPDEST PUSH1 0x0 DUP2 CALLDATALOAD SWAP1 POP PUSH2 0xE7A DUP2 PUSH2 0xE54 JUMP JUMPDEST SWAP3 SWAP2 POP POP JUMP JUMPDEST PUSH1 0x0 DUP1 PUSH1 0x0 DUP1 PUSH1 0x0 PUSH1 0xA0 DUP7 DUP9 SUB SLT ISZERO PUSH2 0xE9C JUMPI PUSH2 0xE9B PUSH2 0x84B JUMP JUMPDEST JUMPDEST PUSH1 0x0 PUSH2 0xEAA DUP9 DUP3 DUP10 ADD PUSH2 0xD0A JUMP JUMPDEST SWAP6 POP POP PUSH1 0x20 DUP7 ADD CALLDATALOAD PUSH8 0xFFFFFFFFFFFFFFFF DUP2 GT ISZERO PUSH2 0xECB JUMPI PUSH2 0xECA PUSH2 0x850 JUMP JUMPDEST JUMPDEST PUSH2 0xED7 DUP9 DUP3 DUP10 ADD PUSH2 0xE26 JUMP JUMPDEST SWAP5 POP POP PUSH1 0x40 PUSH2 0xEE8 DUP9 DUP3 DUP10 ADD PUSH2 0xE6B JUMP JUMPDEST SWAP4 POP POP PUSH1 0x60 PUSH2 0xEF9 DUP9 DUP3 DUP10 ADD PUSH2 0x876 JUMP JUMPDEST SWAP3 POP POP PUSH1 0x80 PUSH2 0xF0A DUP9 DUP3 DUP10 ADD PUSH2 0x876 JUMP JUMPDEST SWAP2 POP POP SWAP3 SWAP6 POP SWAP3 SWAP6 SWAP1 SWAP4 POP JUMP JUMPDEST PUSH1 0x0 PUSH1 0x60 DUP3 ADD SWAP1 POP PUSH2 0xF2C PUSH1 0x0 DUP4 ADD DUP7 PUSH2 0x8EC JUMP JUMPDEST PUSH2 0xF39 PUSH1 0x20 DUP4 ADD DUP6 PUSH2 0x8C2 JUMP JUMPDEST PUSH2 0xF46 PUSH1 0x40 DUP4 ADD DUP5 PUSH2 0x8EC JUMP JUMPDEST SWAP5 SWAP4 POP POP POP POP JUMP JUMPDEST PUSH32 0x4E487B7100000000000000000000000000000000000000000000000000000000 PUSH1 0x0 MSTORE PUSH1 0x22 PUSH1 0x4 MSTORE PUSH1 0x24 PUSH1 0x0 REVERT JUMPDEST PUSH1 0x0 PUSH1 0x2 DUP3 DIV SWAP1 POP PUSH1 0x1 DUP3 AND DUP1 PUSH2 0xF95 JUMPI PUSH1 0x7F DUP3 AND SWAP2 POP JUMPDEST PUSH1 0x20 DUP3 LT DUP2 SUB PUSH2 0xFA8 JUMPI PUSH2 0xFA7 PUSH2 0xF4E JUMP JUMPDEST JUMPDEST POP SWAP2 SWAP1 POP JUMP JUMPDEST PUSH1 0x0 PUSH1 0x40 DUP3 ADD SWAP1 POP PUSH2 0xFC3 PUSH1 0x0 DUP4 ADD DUP6 PUSH2 0x8EC JUMP JUMPDEST PUSH2 0xFD0 PUSH1 0x20 DUP4 ADD DUP5 PUSH2 0x8EC JUMP JUMPDEST SWAP4 SWAP3 POP POP POP JUMP JUMPDEST PUSH1 0x0 DUP2 SWAP1 POP DUP2 PUSH1 0x0 MSTORE PUSH1 0x20 PUSH1 0x0 KECCAK256 SWAP1 POP SWAP2 SWAP1 POP JUMP JUMPDEST PUSH1 0x0 PUSH1 0x20 PUSH1 0x1F DUP4 ADD DIV SWAP1 POP SWAP2 SWAP1 POP JUMP JUMPDEST PUSH1 0x0 DUP3 DUP3 SHL SWAP1 POP SWAP3 SWAP2 POP POP JUMP JUMPDEST PUSH1 0x0 PUSH1 0x8 DUP4 MUL PUSH2 0x1039 PUSH32 0xFFFFFFFFFFFFFFFFFFFFFFFFFFFFFFFFFFFFFFFFFFFFFFFFFFFFFFFFFFFFFFFF DUP3 PUSH2 0xFFC JUMP JUMPDEST PUSH2 0x1043 DUP7 DUP4 PUSH2 0xFFC JUMP JUMPDEST SWAP6 POP DUP1 NOT DUP5 AND SWAP4 POP DUP1 DUP7 AND DUP5 OR SWAP3 POP POP POP SWAP4 SWAP3 POP POP POP JUMP JUMPDEST PUSH1 0x0 DUP2 SWAP1 POP SWAP2 SWAP1 POP JUMP JUMPDEST PUSH1 0x0 PUSH2 0x1080 PUSH2 0x107B PUSH2 0x1076 DUP5 PUSH2 0x855 JUMP JUMPDEST PUSH2 0x105B JUMP JUMPDEST PUSH2 0x855 JUMP JUMPDEST SWAP1 POP SWAP2 SWAP1 POP JUMP JUMPDEST PUSH1 0x0 DUP2 SWAP1 POP SWAP2 SWAP1 POP JUMP JUMPDEST PUSH2 0x109A DUP4 PUSH2 0x1065 JUMP JUMPDEST PUSH2 0x10AE PUSH2 0x10A6 DUP3 PUSH2 0x1087 JUMP JUMPDEST DUP5 DUP5 SLOAD PUSH2 0x1009 JUMP JUMPDEST DUP3 SSTORE POP POP POP POP JUMP JUMPDEST PUSH1 0x0 SWAP1 JUMP JUMPDEST PUSH2 0x10C3 PUSH2 0x10B6 JUMP JUMPDEST PUSH2 0x10CE DUP2 DUP5 DUP5 PUSH2 0x1091 JUMP JUMPDEST POP POP POP JUMP JUMPDEST JUMPDEST DUP2 DUP2 LT ISZERO PUSH2 0x10F2 JUMPI PUSH2 0x10E7 PUSH1 0x0 DUP3 PUSH2 0x10BB JUMP JUMPDEST PUSH1 0x1 DUP2 ADD SWAP1 POP PUSH2 0x10D4 JUMP JUMPDEST POP POP JUMP JUMPDEST PUSH1 0x1F DUP3 GT ISZERO PUSH2 0x1137 JUMPI PUSH2 0x1108 DUP2 PUSH2 0xFD7 JUMP JUMPDEST PUSH2 0x1111 DUP5 PUSH2 0xFEC JUMP JUMPDEST DUP2 ADD PUSH1 0x20 DUP6 LT ISZERO PUSH2 0x1120 JUMPI DUP2 SWAP1 POP JUMPDEST PUSH2 0x1134 PUSH2 0x112C DUP6 PUSH2 0xFEC JUMP JUMPDEST DUP4 ADD DUP3 PUSH2 0x10D3 JUMP JUMPDEST POP POP JUMPDEST POP POP POP JUMP JUMPDEST PUSH1 0x0 DUP3 DUP3 SHR SWAP1 POP SWAP3 SWAP2 POP POP JUMP JUMPDEST PUSH1 0x0 PUSH2 0x115A PUSH1 0x0 NOT DUP5 PUSH1 0x8 MUL PUSH2 0x113C JUMP JUMPDEST NOT DUP1 DUP4 AND SWAP2 POP POP SWAP3 SWAP2 POP POP JUMP JUMPDEST PUSH1 0x0 PUSH2 0x1173 DUP4 DUP4 PUSH2 0x1149 JUMP JUMPDEST SWAP2 POP DUP3 PUSH1 0x2 MUL DUP3 OR SWAP1 POP SWAP3 SWAP2 POP POP JUMP JUMPDEST PUSH2 0x118C DUP3 PUSH2 0x99B JUMP JUMPDEST PUSH8 0xFFFFFFFFFFFFFFFF DUP2 GT ISZERO PUSH2 0x11A5 JUMPI PUSH2 0x11A4 PUSH2 0xD29 JUMP JUMPDEST JUMPDEST PUSH2 0x11AF DUP3 SLOAD PUSH2 0xF7D JUMP JUMPDEST PUSH2 0x11BA DUP3 DUP3 DUP6 PUSH2 0x10F6 JUMP JUMPDEST PUSH1 0x0 PUSH1 0x20 SWAP1 POP PUSH1 0x1F DUP4 GT PUSH1 0x1 DUP2 EQ PUSH2 0x11ED JUMPI PUSH1 0x0 DUP5 ISZERO PUSH2 0x11DB JUMPI DUP3 DUP8 ADD MLOAD SWAP1 POP JUMPDEST PUSH2 0x11E5 DUP6 DUP3 PUSH2 0x1167 JUMP JUMPDEST DUP7 SSTORE POP PUSH2 0x124D JUMP JUMPDEST PUSH1 0x1F NOT DUP5 AND PUSH2 0x11FB DUP7 PUSH2 0xFD7 JUMP JUMPDEST PUSH1 0x0 JUMPDEST DUP3 DUP2 LT ISZERO PUSH2 0x1223 JUMPI DUP5 DUP10 ADD MLOAD DUP3 SSTORE PUSH1 0x1 DUP3 ADD SWAP2 POP PUSH1 0x20 DUP6 ADD SWAP5 POP PUSH1 0x20 DUP2 ADD SWAP1 POP PUSH2 0x11FE JUMP JUMPDEST DUP7 DUP4 LT ISZERO PUSH2 0x1240 JUMPI DUP5 DUP10 ADD MLOAD PUSH2 0x123C PUSH1 0x1F DUP10 AND DUP3 PUSH2 0x1149 JUMP JUMPDEST DUP4 SSTORE POP JUMPDEST PUSH1 0x1 PUSH1 0x2 DUP9 MUL ADD DUP9 SSTORE POP POP POP JUMPDEST POP POP POP POP POP POP JUMP JUMPDEST PUSH1 0x0 PUSH1 0xA0 DUP3 ADD SWAP1 POP PUSH2 0x126A PUSH1 0x0 DUP4 ADD DUP9 PUSH2 0x8EC JUMP JUMPDEST PUSH2 0x1277 PUSH1 0x20 DUP4 ADD DUP8 PUSH2 0xBE8 JUMP JUMPDEST DUP2 DUP2 SUB PUSH1 0x40 DUP4 ADD MSTORE PUSH2 0x1289 DUP2 DUP7 PUSH2 0xC08 JUMP JUMPDEST SWAP1 POP PUSH2 0x1298 PUSH1 0x60 DUP4 ADD DUP6 PUSH2 0x8EC JUMP JUMPDEST PUSH2 0x12A5 PUSH1 0x80 DUP4 ADD DUP5 PUSH2 0xC41 JUMP JUMPDEST SWAP7 SWAP6 POP POP POP POP POP POP JUMP INVALID LOG2 PUSH5 0x6970667358 0x22 SLT KECCAK256 0xDF PUSH10 0xF1F8DD9439656A05F444 0xD0 CREATE 0xE9 0xAD PUSH7 0x99FBE2E297ADD7 SWAP13 SWAP11 PUSH28 0xF30ED8F52C64736F6C63430008100033000000000000000000000000 "
		},
		"gasEstimates": {
			"creation": {
				"codeDepositCost": "967400",
				"executionCost": "23114",
				"totalCost": "990514"
			},
			"external": {
				"getRequest(uint256)": "infinite",
				"getRequestResult(uint256)": "2787",
				"ooRequests(uint256)": "infinite",
				"requestData(bytes32,bytes,address,uint256,uint256)": "infinite",
				"setRequestResult(uint256,int256)": "infinite",
				"settleRequest(uint256)": "infinite",
				"totalOORequests()": "2452"
			}
		},
		"methodIdentifiers": {
			"getRequest(uint256)": "c58343ef",
			"getRequestResult(uint256)": "5944427b",
			"ooRequests(uint256)": "f418ad7a",
			"requestData(bytes32,bytes,address,uint256,uint256)": "f84507ad",
			"setRequestResult(uint256,int256)": "b87c065f",
			"settleRequest(uint256)": "d247f92b",
			"totalOORequests()": "8a9cf5da"
		}
	},
	"abi": [
		{
			"anonymous": false,
			"inputs": [
				{
					"indexed": false,
					"internalType": "uint256",
					"name": "requestId",
					"type": "uint256"
				},
				{
					"indexed": false,
					"internalType": "bytes32",
					"name": "identifier",
					"type": "bytes32"
				},
				{
					"indexed": false,
					"internalType": "bytes",
					"name": "ancillaryData",
					"type": "bytes"
				},
				{
					"indexed": false,
					"internalType": "uint256",
					"name": "requestTime",
					"type": "uint256"
				},
				{
					"indexed": false,
					"internalType": "address",
					"name": "requester",
					"type": "address"
				}
			],
			"name": "requestCreated",
			"type": "event"
		},
		{
			"anonymous": false,
			"inputs": [
				{
					"indexed": false,
					"internalType": "uint256",
					"name": "requestId",
					"type": "uint256"
				},
				{
					"indexed": false,
					"internalType": "int256",
					"name": "result",
					"type": "int256"
				},
				{
					"indexed": false,
					"internalType": "uint256",
					"name": "timestamp",
					"type": "uint256"
				}
			],
			"name": "resultAdded",
			"type": "event"
		},
		{
			"anonymous": false,
			"inputs": [
				{
					"indexed": false,
					"internalType": "uint256",
					"name": "requestId",
					"type": "uint256"
				},
				{
					"indexed": false,
					"internalType": "uint256",
					"name": "timestamp",
					"type": "uint256"
				}
			],
			"name": "settleOORequest",
			"type": "event"
		},
		{
			"inputs": [
				{
					"internalType": "uint256",
					"name": "requestId",
					"type": "uint256"
				}
			],
			"name": "getRequest",
			"outputs": [
				{
					"components": [
						{
							"internalType": "bytes32",
							"name": "identifier",
							"type": "bytes32"
						},
						{
							"internalType": "bytes",
							"name": "ancillaryData",
							"type": "bytes"
						},
						{
							"internalType": "address",
							"name": "bondCurrencyAddress",
							"type": "address"
						},
						{
							"internalType": "uint256",
							"name": "reward",
							"type": "uint256"
						},
						{
							"internalType": "uint256",
							"name": "livenessTime",
							"type": "uint256"
						},
						{
							"internalType": "uint256",
							"name": "requestTime",
							"type": "uint256"
						},
						{
							"internalType": "address",
							"name": "requester",
							"type": "address"
						},
						{
							"internalType": "int256",
							"name": "result",
							"type": "int256"
						},
						{
							"internalType": "enum OptimisticOracleV2.Status",
							"name": "currentStatus",
							"type": "uint8"
						}
					],
					"internalType": "struct OptimisticOracleV2.ooRequest",
					"name": "",
					"type": "tuple"
				}
			],
			"stateMutability": "view",
			"type": "function"
		},
		{
			"inputs": [
				{
					"internalType": "uint256",
					"name": "requestId",
					"type": "uint256"
				}
			],
			"name": "getRequestResult",
			"outputs": [
				{
					"internalType": "int256",
					"name": "",
					"type": "int256"
				}
			],
			"stateMutability": "view",
			"type": "function"
		},
		{
			"inputs": [
				{
					"internalType": "uint256",
					"name": "",
					"type": "uint256"
				}
			],
			"name": "ooRequests",
			"outputs": [
				{
					"internalType": "bytes32",
					"name": "identifier",
					"type": "bytes32"
				},
				{
					"internalType": "bytes",
					"name": "ancillaryData",
					"type": "bytes"
				},
				{
					"internalType": "address",
					"name": "bondCurrencyAddress",
					"type": "address"
				},
				{
					"internalType": "uint256",
					"name": "reward",
					"type": "uint256"
				},
				{
					"internalType": "uint256",
					"name": "livenessTime",
					"type": "uint256"
				},
				{
					"internalType": "uint256",
					"name": "requestTime",
					"type": "uint256"
				},
				{
					"internalType": "address",
					"name": "requester",
					"type": "address"
				},
				{
					"internalType": "int256",
					"name": "result",
					"type": "int256"
				},
				{
					"internalType": "enum OptimisticOracleV2.Status",
					"name": "currentStatus",
					"type": "uint8"
				}
			],
			"stateMutability": "view",
			"type": "function"
		},
		{
			"inputs": [
				{
					"internalType": "bytes32",
					"name": "identifier",
					"type": "bytes32"
				},
				{
					"internalType": "bytes",
					"name": "ancillaryData",
					"type": "bytes"
				},
				{
					"internalType": "address",
					"name": "bondCurrencyAddress",
					"type": "address"
				},
				{
					"internalType": "uint256",
					"name": "rewardAmount",
					"type": "uint256"
				},
				{
					"internalType": "uint256",
					"name": "livenessTime",
					"type": "uint256"
				}
			],
			"name": "requestData",
			"outputs": [
				{
					"internalType": "uint256",
					"name": "requestId",
					"type": "uint256"
				}
			],
			"stateMutability": "nonpayable",
			"type": "function"
		},
		{
			"inputs": [
				{
					"internalType": "uint256",
					"name": "requestId",
					"type": "uint256"
				},
				{
					"internalType": "int256",
					"name": "result",
					"type": "int256"
				}
			],
			"name": "setRequestResult",
			"outputs": [],
			"stateMutability": "nonpayable",
			"type": "function"
		},
		{
			"inputs": [
				{
					"internalType": "uint256",
					"name": "requestId",
					"type": "uint256"
				}
			],
			"name": "settleRequest",
			"outputs": [],
			"stateMutability": "nonpayable",
			"type": "function"
		},
		{
			"inputs": [],
			"name": "totalOORequests",
			"outputs": [
				{
					"internalType": "uint256",
					"name": "",
					"type": "uint256"
				}
			],
			"stateMutability": "view",
			"type": "function"
		}
	]
}