{
	"data": {
		"bytecode": {
			"linkReferences": {},
			"object": "6080604052600160005534801561001557600080fd5b506112c1806100256000396000f3fe608060405234801561001057600080fd5b50600436106100885760003560e01c8063884e3f431161005b578063884e3f4314610127578063adee9e0014610143578063b1a1589114610173578063bb27bdec1461018f57610088565b806314d82c041461008d5780631d99e167146100a95780632c59e707146100d95780633fbec59b14610109575b600080fd5b6100a760048036038101906100a29190610893565b6101c3565b005b6100c360048036038101906100be9190610893565b6102c7565b6040516100d09190610ab2565b60405180910390f35b6100f360048036038101906100ee9190610c09565b61043c565b6040516101009190610c61565b60405180910390f35b6101116105a8565b60405161011e9190610c61565b60405180910390f35b610141600480360381019061013c9190610ca8565b6105ae565b005b61015d60048036038101906101589190610893565b6106a9565b60405161016a9190610cf7565b60405180910390f35b61018d60048036038101906101889190610d3e565b6106d6565b005b6101a960048036038101906101a49190610893565b6106f5565b6040516101ba959493929190610df5565b60405180910390f35b600060028111156101d7576101d66109c5565b5b6001600083815260200190815260200160002060020160159054906101000a900460ff16600281111561020d5761020c6109c5565b5b1461024d576040517f08c379a000000000000000000000000000000000000000000000000000000000815260040161024490610eac565b60405180910390fd5b600180600083815260200190815260200160002060020160156101000a81548160ff02191690836002811115610286576102856109c5565b5b02179055507f27eae51a13096bbf91c9ade81b17ef36e6b1785e85ced181d9cd9af19afc4c1681426040516102bc929190610ecc565b60405180910390a150565b6102cf6107ed565b600160008381526020019081526020016000206040518060a00160405290816000820154815260200160018201805461030790610f24565b80601f016020809104026020016040519081016040528092919081815260200182805461033390610f24565b80156103805780601f1061035557610100808354040283529160200191610380565b820191906000526020600020905b81548152906001019060200180831161036357829003601f168201915b505050505081526020016002820160009054906101000a900473ffffffffffffffffffffffffffffffffffffffff1673ffffffffffffffffffffffffffffffffffffffff1673ffffffffffffffffffffffffffffffffffffffff1681526020016002820160149054906101000a900460ff161515151581526020016002820160159054906101000a900460ff16600281111561041f5761041e6109c5565b5b6002811115610431576104306109c5565b5b815250509050919050565b6000805490506040518060a00160405280600080191681526020018381526020013373ffffffffffffffffffffffffffffffffffffffff16815260200160001515815260200160006002811115610496576104956109c5565b5b815250600160008381526020019081526020016000206000820151816000015560208201518160010190816104cb9190611101565b5060408201518160020160006101000a81548173ffffffffffffffffffffffffffffffffffffffff021916908373ffffffffffffffffffffffffffffffffffffffff16021790555060608201518160020160146101000a81548160ff02191690831515021790555060808201518160020160156101000a81548160ff0219169083600281111561055e5761055d6109c5565b5b02179055509050507f64d3908edca7df860b524330c97271844d5bf3cf0b3cab43c48311c8e464119a8133844260405161059b94939291906111d3565b60405180910390a1919050565b60005481565b600160028111156105c2576105c16109c5565b5b6001600084815260200190815260200160002060020160159054906101000a900460ff1660028111156105f8576105f76109c5565b5b14610638576040517f08c379a000000000000000000000000000000000000000000000000000000000815260040161062f9061126b565b60405180910390fd5b806001600084815260200190815260200160002060020160146101000a81548160ff02191690831515021790555060026001600084815260200190815260200160002060020160156101000a81548160ff021916908360028111156106a05761069f6109c5565b5b02179055505050565b60006001600083815260200190815260200160002060020160149054906101000a900460ff169050919050565b8060016000848152602001908152602001600020600001819055505050565b600160205280600052604060002060009150905080600001549080600101805461071e90610f24565b80601f016020809104026020016040519081016040528092919081815260200182805461074a90610f24565b80156107975780601f1061076c57610100808354040283529160200191610797565b820191906000526020600020905b81548152906001019060200180831161077a57829003601f168201915b5050505050908060020160009054906101000a900473ffffffffffffffffffffffffffffffffffffffff16908060020160149054906101000a900460ff16908060020160159054906101000a900460ff16905085565b6040518060a001604052806000801916815260200160608152602001600073ffffffffffffffffffffffffffffffffffffffff16815260200160001515815260200160006002811115610843576108426109c5565b5b81525090565b6000604051905090565b600080fd5b600080fd5b6000819050919050565b6108708161085d565b811461087b57600080fd5b50565b60008135905061088d81610867565b92915050565b6000602082840312156108a9576108a8610853565b5b60006108b78482850161087e565b91505092915050565b6000819050919050565b6108d3816108c0565b82525050565b600081519050919050565b600082825260208201905092915050565b60005b838110156109135780820151818401526020810190506108f8565b60008484015250505050565b6000601f19601f8301169050919050565b600061093b826108d9565b61094581856108e4565b93506109558185602086016108f5565b61095e8161091f565b840191505092915050565b600073ffffffffffffffffffffffffffffffffffffffff82169050919050565b600061099482610969565b9050919050565b6109a481610989565b82525050565b60008115159050919050565b6109bf816109aa565b82525050565b7f4e487b7100000000000000000000000000000000000000000000000000000000600052602160045260246000fd5b60038110610a0557610a046109c5565b5b50565b6000819050610a16826109f4565b919050565b6000610a2682610a08565b9050919050565b610a3681610a1b565b82525050565b600060a083016000830151610a5460008601826108ca565b5060208301518482036020860152610a6c8282610930565b9150506040830151610a81604086018261099b565b506060830151610a9460608601826109b6565b506080830151610aa76080860182610a2d565b508091505092915050565b60006020820190508181036000830152610acc8184610a3c565b905092915050565b600080fd5b600080fd5b7f4e487b7100000000000000000000000000000000000000000000000000000000600052604160045260246000fd5b610b168261091f565b810181811067ffffffffffffffff82111715610b3557610b34610ade565b5b80604052505050565b6000610b48610849565b9050610b548282610b0d565b919050565b600067ffffffffffffffff821115610b7457610b73610ade565b5b610b7d8261091f565b9050602081019050919050565b82818337600083830152505050565b6000610bac610ba784610b59565b610b3e565b905082815260208101848484011115610bc857610bc7610ad9565b5b610bd3848285610b8a565b509392505050565b600082601f830112610bf057610bef610ad4565b5b8135610c00848260208601610b99565b91505092915050565b600060208284031215610c1f57610c1e610853565b5b600082013567ffffffffffffffff811115610c3d57610c3c610858565b5b610c4984828501610bdb565b91505092915050565b610c5b8161085d565b82525050565b6000602082019050610c766000830184610c52565b92915050565b610c85816109aa565b8114610c9057600080fd5b50565b600081359050610ca281610c7c565b92915050565b60008060408385031215610cbf57610cbe610853565b5b6000610ccd8582860161087e565b9250506020610cde85828601610c93565b9150509250929050565b610cf1816109aa565b82525050565b6000602082019050610d0c6000830184610ce8565b92915050565b610d1b816108c0565b8114610d2657600080fd5b50565b600081359050610d3881610d12565b92915050565b60008060408385031215610d5557610d54610853565b5b6000610d638582860161087e565b9250506020610d7485828601610d29565b9150509250929050565b610d87816108c0565b82525050565b600082825260208201905092915050565b6000610da9826108d9565b610db38185610d8d565b9350610dc38185602086016108f5565b610dcc8161091f565b840191505092915050565b610de081610989565b82525050565b610def81610a1b565b82525050565b600060a082019050610e0a6000830188610d7e565b8181036020830152610e1c8187610d9e565b9050610e2b6040830186610dd7565b610e386060830185610ce8565b610e456080830184610de6565b9695505050505050565b600082825260208201905092915050565b7f4e6f742079657420417373657274656400000000000000000000000000000000600082015250565b6000610e96601083610e4f565b9150610ea182610e60565b602082019050919050565b60006020820190508181036000830152610ec581610e89565b9050919050565b6000604082019050610ee16000830185610c52565b610eee6020830184610c52565b9392505050565b7f4e487b7100000000000000000000000000000000000000000000000000000000600052602260045260246000fd5b60006002820490506001821680610f3c57607f821691505b602082108103610f4f57610f4e610ef5565b5b50919050565b60008190508160005260206000209050919050565b60006020601f8301049050919050565b600082821b905092915050565b600060088302610fb77fffffffffffffffffffffffffffffffffffffffffffffffffffffffffffffffff82610f7a565b610fc18683610f7a565b95508019841693508086168417925050509392505050565b6000819050919050565b6000610ffe610ff9610ff48461085d565b610fd9565b61085d565b9050919050565b6000819050919050565b61101883610fe3565b61102c61102482611005565b848454610f87565b825550505050565b600090565b611041611034565b61104c81848461100f565b505050565b5b8181101561107057611065600082611039565b600181019050611052565b5050565b601f8211156110b55761108681610f55565b61108f84610f6a565b8101602085101561109e578190505b6110b26110aa85610f6a565b830182611051565b50505b505050565b600082821c905092915050565b60006110d8600019846008026110ba565b1980831691505092915050565b60006110f183836110c7565b9150826002028217905092915050565b61110a826108d9565b67ffffffffffffffff81111561112357611122610ade565b5b61112d8254610f24565b611138828285611074565b600060209050601f83116001811461116b5760008415611159578287015190505b61116385826110e5565b8655506111cb565b601f19841661117986610f55565b60005b828110156111a15784890151825560018201915060208501945060208101905061117c565b868310156111be57848901516111ba601f8916826110c7565b8355505b6001600288020188555050505b505050505050565b60006080820190506111e86000830187610c52565b6111f56020830186610dd7565b81810360408301526112078185610d9e565b90506112166060830184610c52565b95945050505050565b7f4e6f742079657420726571756573746564000000000000000000000000000000600082015250565b6000611255601183610e4f565b91506112608261121f565b602082019050919050565b6000602082019050818103600083015261128481611248565b905091905056fea2646970667358221220634285f5b75bf53031b8da26151f9bddf800169e1bdd474c96394da5e0dc2fc064736f6c63430008100033",
			"opcodes": "PUSH1 0x80 PUSH1 0x40 MSTORE PUSH1 0x1 PUSH1 0x0 SSTORE CALLVALUE DUP1 ISZERO PUSH2 0x15 JUMPI PUSH1 0x0 DUP1 REVERT JUMPDEST POP PUSH2 0x12C1 DUP1 PUSH2 0x25 PUSH1 0x0 CODECOPY PUSH1 0x0 RETURN INVALID PUSH1 0x80 PUSH1 0x40 MSTORE CALLVALUE DUP1 ISZERO PUSH2 0x10 JUMPI PUSH1 0x0 DUP1 REVERT JUMPDEST POP PUSH1 0x4 CALLDATASIZE LT PUSH2 0x88 JUMPI PUSH1 0x0 CALLDATALOAD PUSH1 0xE0 SHR DUP1 PUSH4 0x884E3F43 GT PUSH2 0x5B JUMPI DUP1 PUSH4 0x884E3F43 EQ PUSH2 0x127 JUMPI DUP1 PUSH4 0xADEE9E00 EQ PUSH2 0x143 JUMPI DUP1 PUSH4 0xB1A15891 EQ PUSH2 0x173 JUMPI DUP1 PUSH4 0xBB27BDEC EQ PUSH2 0x18F JUMPI PUSH2 0x88 JUMP JUMPDEST DUP1 PUSH4 0x14D82C04 EQ PUSH2 0x8D JUMPI DUP1 PUSH4 0x1D99E167 EQ PUSH2 0xA9 JUMPI DUP1 PUSH4 0x2C59E707 EQ PUSH2 0xD9 JUMPI DUP1 PUSH4 0x3FBEC59B EQ PUSH2 0x109 JUMPI JUMPDEST PUSH1 0x0 DUP1 REVERT JUMPDEST PUSH2 0xA7 PUSH1 0x4 DUP1 CALLDATASIZE SUB DUP2 ADD SWAP1 PUSH2 0xA2 SWAP2 SWAP1 PUSH2 0x893 JUMP JUMPDEST PUSH2 0x1C3 JUMP JUMPDEST STOP JUMPDEST PUSH2 0xC3 PUSH1 0x4 DUP1 CALLDATASIZE SUB DUP2 ADD SWAP1 PUSH2 0xBE SWAP2 SWAP1 PUSH2 0x893 JUMP JUMPDEST PUSH2 0x2C7 JUMP JUMPDEST PUSH1 0x40 MLOAD PUSH2 0xD0 SWAP2 SWAP1 PUSH2 0xAB2 JUMP JUMPDEST PUSH1 0x40 MLOAD DUP1 SWAP2 SUB SWAP1 RETURN JUMPDEST PUSH2 0xF3 PUSH1 0x4 DUP1 CALLDATASIZE SUB DUP2 ADD SWAP1 PUSH2 0xEE SWAP2 SWAP1 PUSH2 0xC09 JUMP JUMPDEST PUSH2 0x43C JUMP JUMPDEST PUSH1 0x40 MLOAD PUSH2 0x100 SWAP2 SWAP1 PUSH2 0xC61 JUMP JUMPDEST PUSH1 0x40 MLOAD DUP1 SWAP2 SUB SWAP1 RETURN JUMPDEST PUSH2 0x111 PUSH2 0x5A8 JUMP JUMPDEST PUSH1 0x40 MLOAD PUSH2 0x11E SWAP2 SWAP1 PUSH2 0xC61 JUMP JUMPDEST PUSH1 0x40 MLOAD DUP1 SWAP2 SUB SWAP1 RETURN JUMPDEST PUSH2 0x141 PUSH1 0x4 DUP1 CALLDATASIZE SUB DUP2 ADD SWAP1 PUSH2 0x13C SWAP2 SWAP1 PUSH2 0xCA8 JUMP JUMPDEST PUSH2 0x5AE JUMP JUMPDEST STOP JUMPDEST PUSH2 0x15D PUSH1 0x4 DUP1 CALLDATASIZE SUB DUP2 ADD SWAP1 PUSH2 0x158 SWAP2 SWAP1 PUSH2 0x893 JUMP JUMPDEST PUSH2 0x6A9 JUMP JUMPDEST PUSH1 0x40 MLOAD PUSH2 0x16A SWAP2 SWAP1 PUSH2 0xCF7 JUMP JUMPDEST PUSH1 0x40 MLOAD DUP1 SWAP2 SUB SWAP1 RETURN JUMPDEST PUSH2 0x18D PUSH1 0x4 DUP1 CALLDATASIZE SUB DUP2 ADD SWAP1 PUSH2 0x188 SWAP2 SWAP1 PUSH2 0xD3E JUMP JUMPDEST PUSH2 0x6D6 JUMP JUMPDEST STOP JUMPDEST PUSH2 0x1A9 PUSH1 0x4 DUP1 CALLDATASIZE SUB DUP2 ADD SWAP1 PUSH2 0x1A4 SWAP2 SWAP1 PUSH2 0x893 JUMP JUMPDEST PUSH2 0x6F5 JUMP JUMPDEST PUSH1 0x40 MLOAD PUSH2 0x1BA SWAP6 SWAP5 SWAP4 SWAP3 SWAP2 SWAP1 PUSH2 0xDF5 JUMP JUMPDEST PUSH1 0x40 MLOAD DUP1 SWAP2 SUB SWAP1 RETURN JUMPDEST PUSH1 0x0 PUSH1 0x2 DUP2 GT ISZERO PUSH2 0x1D7 JUMPI PUSH2 0x1D6 PUSH2 0x9C5 JUMP JUMPDEST JUMPDEST PUSH1 0x1 PUSH1 0x0 DUP4 DUP2 MSTORE PUSH1 0x20 ADD SWAP1 DUP2 MSTORE PUSH1 0x20 ADD PUSH1 0x0 KECCAK256 PUSH1 0x2 ADD PUSH1 0x15 SWAP1 SLOAD SWAP1 PUSH2 0x100 EXP SWAP1 DIV PUSH1 0xFF AND PUSH1 0x2 DUP2 GT ISZERO PUSH2 0x20D JUMPI PUSH2 0x20C PUSH2 0x9C5 JUMP JUMPDEST JUMPDEST EQ PUSH2 0x24D JUMPI PUSH1 0x40 MLOAD PUSH32 0x8C379A000000000000000000000000000000000000000000000000000000000 DUP2 MSTORE PUSH1 0x4 ADD PUSH2 0x244 SWAP1 PUSH2 0xEAC JUMP JUMPDEST PUSH1 0x40 MLOAD DUP1 SWAP2 SUB SWAP1 REVERT JUMPDEST PUSH1 0x1 DUP1 PUSH1 0x0 DUP4 DUP2 MSTORE PUSH1 0x20 ADD SWAP1 DUP2 MSTORE PUSH1 0x20 ADD PUSH1 0x0 KECCAK256 PUSH1 0x2 ADD PUSH1 0x15 PUSH2 0x100 EXP DUP2 SLOAD DUP2 PUSH1 0xFF MUL NOT AND SWAP1 DUP4 PUSH1 0x2 DUP2 GT ISZERO PUSH2 0x286 JUMPI PUSH2 0x285 PUSH2 0x9C5 JUMP JUMPDEST JUMPDEST MUL OR SWAP1 SSTORE POP PUSH32 0x27EAE51A13096BBF91C9ADE81B17EF36E6B1785E85CED181D9CD9AF19AFC4C16 DUP2 TIMESTAMP PUSH1 0x40 MLOAD PUSH2 0x2BC SWAP3 SWAP2 SWAP1 PUSH2 0xECC JUMP JUMPDEST PUSH1 0x40 MLOAD DUP1 SWAP2 SUB SWAP1 LOG1 POP JUMP JUMPDEST PUSH2 0x2CF PUSH2 0x7ED JUMP JUMPDEST PUSH1 0x1 PUSH1 0x0 DUP4 DUP2 MSTORE PUSH1 0x20 ADD SWAP1 DUP2 MSTORE PUSH1 0x20 ADD PUSH1 0x0 KECCAK256 PUSH1 0x40 MLOAD DUP1 PUSH1 0xA0 ADD PUSH1 0x40 MSTORE SWAP1 DUP2 PUSH1 0x0 DUP3 ADD SLOAD DUP2 MSTORE PUSH1 0x20 ADD PUSH1 0x1 DUP3 ADD DUP1 SLOAD PUSH2 0x307 SWAP1 PUSH2 0xF24 JUMP JUMPDEST DUP1 PUSH1 0x1F ADD PUSH1 0x20 DUP1 SWAP2 DIV MUL PUSH1 0x20 ADD PUSH1 0x40 MLOAD SWAP1 DUP2 ADD PUSH1 0x40 MSTORE DUP1 SWAP3 SWAP2 SWAP1 DUP2 DUP2 MSTORE PUSH1 0x20 ADD DUP3 DUP1 SLOAD PUSH2 0x333 SWAP1 PUSH2 0xF24 JUMP JUMPDEST DUP1 ISZERO PUSH2 0x380 JUMPI DUP1 PUSH1 0x1F LT PUSH2 0x355 JUMPI PUSH2 0x100 DUP1 DUP4 SLOAD DIV MUL DUP4 MSTORE SWAP2 PUSH1 0x20 ADD SWAP2 PUSH2 0x380 JUMP JUMPDEST DUP3 ADD SWAP2 SWAP1 PUSH1 0x0 MSTORE PUSH1 0x20 PUSH1 0x0 KECCAK256 SWAP1 JUMPDEST DUP2 SLOAD DUP2 MSTORE SWAP1 PUSH1 0x1 ADD SWAP1 PUSH1 0x20 ADD DUP1 DUP4 GT PUSH2 0x363 JUMPI DUP3 SWAP1 SUB PUSH1 0x1F AND DUP3 ADD SWAP2 JUMPDEST POP POP POP POP POP DUP2 MSTORE PUSH1 0x20 ADD PUSH1 0x2 DUP3 ADD PUSH1 0x0 SWAP1 SLOAD SWAP1 PUSH2 0x100 EXP SWAP1 DIV PUSH20 0xFFFFFFFFFFFFFFFFFFFFFFFFFFFFFFFFFFFFFFFF AND PUSH20 0xFFFFFFFFFFFFFFFFFFFFFFFFFFFFFFFFFFFFFFFF AND PUSH20 0xFFFFFFFFFFFFFFFFFFFFFFFFFFFFFFFFFFFFFFFF AND DUP2 MSTORE PUSH1 0x20 ADD PUSH1 0x2 DUP3 ADD PUSH1 0x14 SWAP1 SLOAD SWAP1 PUSH2 0x100 EXP SWAP1 DIV PUSH1 0xFF AND ISZERO ISZERO ISZERO ISZERO DUP2 MSTORE PUSH1 0x20 ADD PUSH1 0x2 DUP3 ADD PUSH1 0x15 SWAP1 SLOAD SWAP1 PUSH2 0x100 EXP SWAP1 DIV PUSH1 0xFF AND PUSH1 0x2 DUP2 GT ISZERO PUSH2 0x41F JUMPI PUSH2 0x41E PUSH2 0x9C5 JUMP JUMPDEST JUMPDEST PUSH1 0x2 DUP2 GT ISZERO PUSH2 0x431 JUMPI PUSH2 0x430 PUSH2 0x9C5 JUMP JUMPDEST JUMPDEST DUP2 MSTORE POP POP SWAP1 POP SWAP2 SWAP1 POP JUMP JUMPDEST PUSH1 0x0 DUP1 SLOAD SWAP1 POP PUSH1 0x40 MLOAD DUP1 PUSH1 0xA0 ADD PUSH1 0x40 MSTORE DUP1 PUSH1 0x0 DUP1 NOT AND DUP2 MSTORE PUSH1 0x20 ADD DUP4 DUP2 MSTORE PUSH1 0x20 ADD CALLER PUSH20 0xFFFFFFFFFFFFFFFFFFFFFFFFFFFFFFFFFFFFFFFF AND DUP2 MSTORE PUSH1 0x20 ADD PUSH1 0x0 ISZERO ISZERO DUP2 MSTORE PUSH1 0x20 ADD PUSH1 0x0 PUSH1 0x2 DUP2 GT ISZERO PUSH2 0x496 JUMPI PUSH2 0x495 PUSH2 0x9C5 JUMP JUMPDEST JUMPDEST DUP2 MSTORE POP PUSH1 0x1 PUSH1 0x0 DUP4 DUP2 MSTORE PUSH1 0x20 ADD SWAP1 DUP2 MSTORE PUSH1 0x20 ADD PUSH1 0x0 KECCAK256 PUSH1 0x0 DUP3 ADD MLOAD DUP2 PUSH1 0x0 ADD SSTORE PUSH1 0x20 DUP3 ADD MLOAD DUP2 PUSH1 0x1 ADD SWAP1 DUP2 PUSH2 0x4CB SWAP2 SWAP1 PUSH2 0x1101 JUMP JUMPDEST POP PUSH1 0x40 DUP3 ADD MLOAD DUP2 PUSH1 0x2 ADD PUSH1 0x0 PUSH2 0x100 EXP DUP2 SLOAD DUP2 PUSH20 0xFFFFFFFFFFFFFFFFFFFFFFFFFFFFFFFFFFFFFFFF MUL NOT AND SWAP1 DUP4 PUSH20 0xFFFFFFFFFFFFFFFFFFFFFFFFFFFFFFFFFFFFFFFF AND MUL OR SWAP1 SSTORE POP PUSH1 0x60 DUP3 ADD MLOAD DUP2 PUSH1 0x2 ADD PUSH1 0x14 PUSH2 0x100 EXP DUP2 SLOAD DUP2 PUSH1 0xFF MUL NOT AND SWAP1 DUP4 ISZERO ISZERO MUL OR SWAP1 SSTORE POP PUSH1 0x80 DUP3 ADD MLOAD DUP2 PUSH1 0x2 ADD PUSH1 0x15 PUSH2 0x100 EXP DUP2 SLOAD DUP2 PUSH1 0xFF MUL NOT AND SWAP1 DUP4 PUSH1 0x2 DUP2 GT ISZERO PUSH2 0x55E JUMPI PUSH2 0x55D PUSH2 0x9C5 JUMP JUMPDEST JUMPDEST MUL OR SWAP1 SSTORE POP SWAP1 POP POP PUSH32 0x64D3908EDCA7DF860B524330C97271844D5BF3CF0B3CAB43C48311C8E464119A DUP2 CALLER DUP5 TIMESTAMP PUSH1 0x40 MLOAD PUSH2 0x59B SWAP5 SWAP4 SWAP3 SWAP2 SWAP1 PUSH2 0x11D3 JUMP JUMPDEST PUSH1 0x40 MLOAD DUP1 SWAP2 SUB SWAP1 LOG1 SWAP2 SWAP1 POP JUMP JUMPDEST PUSH1 0x0 SLOAD DUP2 JUMP JUMPDEST PUSH1 0x1 PUSH1 0x2 DUP2 GT ISZERO PUSH2 0x5C2 JUMPI PUSH2 0x5C1 PUSH2 0x9C5 JUMP JUMPDEST JUMPDEST PUSH1 0x1 PUSH1 0x0 DUP5 DUP2 MSTORE PUSH1 0x20 ADD SWAP1 DUP2 MSTORE PUSH1 0x20 ADD PUSH1 0x0 KECCAK256 PUSH1 0x2 ADD PUSH1 0x15 SWAP1 SLOAD SWAP1 PUSH2 0x100 EXP SWAP1 DIV PUSH1 0xFF AND PUSH1 0x2 DUP2 GT ISZERO PUSH2 0x5F8 JUMPI PUSH2 0x5F7 PUSH2 0x9C5 JUMP JUMPDEST JUMPDEST EQ PUSH2 0x638 JUMPI PUSH1 0x40 MLOAD PUSH32 0x8C379A000000000000000000000000000000000000000000000000000000000 DUP2 MSTORE PUSH1 0x4 ADD PUSH2 0x62F SWAP1 PUSH2 0x126B JUMP JUMPDEST PUSH1 0x40 MLOAD DUP1 SWAP2 SUB SWAP1 REVERT JUMPDEST DUP1 PUSH1 0x1 PUSH1 0x0 DUP5 DUP2 MSTORE PUSH1 0x20 ADD SWAP1 DUP2 MSTORE PUSH1 0x20 ADD PUSH1 0x0 KECCAK256 PUSH1 0x2 ADD PUSH1 0x14 PUSH2 0x100 EXP DUP2 SLOAD DUP2 PUSH1 0xFF MUL NOT AND SWAP1 DUP4 ISZERO ISZERO MUL OR SWAP1 SSTORE POP PUSH1 0x2 PUSH1 0x1 PUSH1 0x0 DUP5 DUP2 MSTORE PUSH1 0x20 ADD SWAP1 DUP2 MSTORE PUSH1 0x20 ADD PUSH1 0x0 KECCAK256 PUSH1 0x2 ADD PUSH1 0x15 PUSH2 0x100 EXP DUP2 SLOAD DUP2 PUSH1 0xFF MUL NOT AND SWAP1 DUP4 PUSH1 0x2 DUP2 GT ISZERO PUSH2 0x6A0 JUMPI PUSH2 0x69F PUSH2 0x9C5 JUMP JUMPDEST JUMPDEST MUL OR SWAP1 SSTORE POP POP POP JUMP JUMPDEST PUSH1 0x0 PUSH1 0x1 PUSH1 0x0 DUP4 DUP2 MSTORE PUSH1 0x20 ADD SWAP1 DUP2 MSTORE PUSH1 0x20 ADD PUSH1 0x0 KECCAK256 PUSH1 0x2 ADD PUSH1 0x14 SWAP1 SLOAD SWAP1 PUSH2 0x100 EXP SWAP1 DIV PUSH1 0xFF AND SWAP1 POP SWAP2 SWAP1 POP JUMP JUMPDEST DUP1 PUSH1 0x1 PUSH1 0x0 DUP5 DUP2 MSTORE PUSH1 0x20 ADD SWAP1 DUP2 MSTORE PUSH1 0x20 ADD PUSH1 0x0 KECCAK256 PUSH1 0x0 ADD DUP2 SWAP1 SSTORE POP POP POP JUMP JUMPDEST PUSH1 0x1 PUSH1 0x20 MSTORE DUP1 PUSH1 0x0 MSTORE PUSH1 0x40 PUSH1 0x0 KECCAK256 PUSH1 0x0 SWAP2 POP SWAP1 POP DUP1 PUSH1 0x0 ADD SLOAD SWAP1 DUP1 PUSH1 0x1 ADD DUP1 SLOAD PUSH2 0x71E SWAP1 PUSH2 0xF24 JUMP JUMPDEST DUP1 PUSH1 0x1F ADD PUSH1 0x20 DUP1 SWAP2 DIV MUL PUSH1 0x20 ADD PUSH1 0x40 MLOAD SWAP1 DUP2 ADD PUSH1 0x40 MSTORE DUP1 SWAP3 SWAP2 SWAP1 DUP2 DUP2 MSTORE PUSH1 0x20 ADD DUP3 DUP1 SLOAD PUSH2 0x74A SWAP1 PUSH2 0xF24 JUMP JUMPDEST DUP1 ISZERO PUSH2 0x797 JUMPI DUP1 PUSH1 0x1F LT PUSH2 0x76C JUMPI PUSH2 0x100 DUP1 DUP4 SLOAD DIV MUL DUP4 MSTORE SWAP2 PUSH1 0x20 ADD SWAP2 PUSH2 0x797 JUMP JUMPDEST DUP3 ADD SWAP2 SWAP1 PUSH1 0x0 MSTORE PUSH1 0x20 PUSH1 0x0 KECCAK256 SWAP1 JUMPDEST DUP2 SLOAD DUP2 MSTORE SWAP1 PUSH1 0x1 ADD SWAP1 PUSH1 0x20 ADD DUP1 DUP4 GT PUSH2 0x77A JUMPI DUP3 SWAP1 SUB PUSH1 0x1F AND DUP3 ADD SWAP2 JUMPDEST POP POP POP POP POP SWAP1 DUP1 PUSH1 0x2 ADD PUSH1 0x0 SWAP1 SLOAD SWAP1 PUSH2 0x100 EXP SWAP1 DIV PUSH20 0xFFFFFFFFFFFFFFFFFFFFFFFFFFFFFFFFFFFFFFFF AND SWAP1 DUP1 PUSH1 0x2 ADD PUSH1 0x14 SWAP1 SLOAD SWAP1 PUSH2 0x100 EXP SWAP1 DIV PUSH1 0xFF AND SWAP1 DUP1 PUSH1 0x2 ADD PUSH1 0x15 SWAP1 SLOAD SWAP1 PUSH2 0x100 EXP SWAP1 DIV PUSH1 0xFF AND SWAP1 POP DUP6 JUMP JUMPDEST PUSH1 0x40 MLOAD DUP1 PUSH1 0xA0 ADD PUSH1 0x40 MSTORE DUP1 PUSH1 0x0 DUP1 NOT AND DUP2 MSTORE PUSH1 0x20 ADD PUSH1 0x60 DUP2 MSTORE PUSH1 0x20 ADD PUSH1 0x0 PUSH20 0xFFFFFFFFFFFFFFFFFFFFFFFFFFFFFFFFFFFFFFFF AND DUP2 MSTORE PUSH1 0x20 ADD PUSH1 0x0 ISZERO ISZERO DUP2 MSTORE PUSH1 0x20 ADD PUSH1 0x0 PUSH1 0x2 DUP2 GT ISZERO PUSH2 0x843 JUMPI PUSH2 0x842 PUSH2 0x9C5 JUMP JUMPDEST JUMPDEST DUP2 MSTORE POP SWAP1 JUMP JUMPDEST PUSH1 0x0 PUSH1 0x40 MLOAD SWAP1 POP SWAP1 JUMP JUMPDEST PUSH1 0x0 DUP1 REVERT JUMPDEST PUSH1 0x0 DUP1 REVERT JUMPDEST PUSH1 0x0 DUP2 SWAP1 POP SWAP2 SWAP1 POP JUMP JUMPDEST PUSH2 0x870 DUP2 PUSH2 0x85D JUMP JUMPDEST DUP2 EQ PUSH2 0x87B JUMPI PUSH1 0x0 DUP1 REVERT JUMPDEST POP JUMP JUMPDEST PUSH1 0x0 DUP2 CALLDATALOAD SWAP1 POP PUSH2 0x88D DUP2 PUSH2 0x867 JUMP JUMPDEST SWAP3 SWAP2 POP POP JUMP JUMPDEST PUSH1 0x0 PUSH1 0x20 DUP3 DUP5 SUB SLT ISZERO PUSH2 0x8A9 JUMPI PUSH2 0x8A8 PUSH2 0x853 JUMP JUMPDEST JUMPDEST PUSH1 0x0 PUSH2 0x8B7 DUP5 DUP3 DUP6 ADD PUSH2 0x87E JUMP JUMPDEST SWAP2 POP POP SWAP3 SWAP2 POP POP JUMP JUMPDEST PUSH1 0x0 DUP2 SWAP1 POP SWAP2 SWAP1 POP JUMP JUMPDEST PUSH2 0x8D3 DUP2 PUSH2 0x8C0 JUMP JUMPDEST DUP3 MSTORE POP POP JUMP JUMPDEST PUSH1 0x0 DUP2 MLOAD SWAP1 POP SWAP2 SWAP1 POP JUMP JUMPDEST PUSH1 0x0 DUP3 DUP3 MSTORE PUSH1 0x20 DUP3 ADD SWAP1 POP SWAP3 SWAP2 POP POP JUMP JUMPDEST PUSH1 0x0 JUMPDEST DUP4 DUP2 LT ISZERO PUSH2 0x913 JUMPI DUP1 DUP3 ADD MLOAD DUP2 DUP5 ADD MSTORE PUSH1 0x20 DUP2 ADD SWAP1 POP PUSH2 0x8F8 JUMP JUMPDEST PUSH1 0x0 DUP5 DUP5 ADD MSTORE POP POP POP POP JUMP JUMPDEST PUSH1 0x0 PUSH1 0x1F NOT PUSH1 0x1F DUP4 ADD AND SWAP1 POP SWAP2 SWAP1 POP JUMP JUMPDEST PUSH1 0x0 PUSH2 0x93B DUP3 PUSH2 0x8D9 JUMP JUMPDEST PUSH2 0x945 DUP2 DUP6 PUSH2 0x8E4 JUMP JUMPDEST SWAP4 POP PUSH2 0x955 DUP2 DUP6 PUSH1 0x20 DUP7 ADD PUSH2 0x8F5 JUMP JUMPDEST PUSH2 0x95E DUP2 PUSH2 0x91F JUMP JUMPDEST DUP5 ADD SWAP2 POP POP SWAP3 SWAP2 POP POP JUMP JUMPDEST PUSH1 0x0 PUSH20 0xFFFFFFFFFFFFFFFFFFFFFFFFFFFFFFFFFFFFFFFF DUP3 AND SWAP1 POP SWAP2 SWAP1 POP JUMP JUMPDEST PUSH1 0x0 PUSH2 0x994 DUP3 PUSH2 0x969 JUMP JUMPDEST SWAP1 POP SWAP2 SWAP1 POP JUMP JUMPDEST PUSH2 0x9A4 DUP2 PUSH2 0x989 JUMP JUMPDEST DUP3 MSTORE POP POP JUMP JUMPDEST PUSH1 0x0 DUP2 ISZERO ISZERO SWAP1 POP SWAP2 SWAP1 POP JUMP JUMPDEST PUSH2 0x9BF DUP2 PUSH2 0x9AA JUMP JUMPDEST DUP3 MSTORE POP POP JUMP JUMPDEST PUSH32 0x4E487B7100000000000000000000000000000000000000000000000000000000 PUSH1 0x0 MSTORE PUSH1 0x21 PUSH1 0x4 MSTORE PUSH1 0x24 PUSH1 0x0 REVERT JUMPDEST PUSH1 0x3 DUP2 LT PUSH2 0xA05 JUMPI PUSH2 0xA04 PUSH2 0x9C5 JUMP JUMPDEST JUMPDEST POP JUMP JUMPDEST PUSH1 0x0 DUP2 SWAP1 POP PUSH2 0xA16 DUP3 PUSH2 0x9F4 JUMP JUMPDEST SWAP2 SWAP1 POP JUMP JUMPDEST PUSH1 0x0 PUSH2 0xA26 DUP3 PUSH2 0xA08 JUMP JUMPDEST SWAP1 POP SWAP2 SWAP1 POP JUMP JUMPDEST PUSH2 0xA36 DUP2 PUSH2 0xA1B JUMP JUMPDEST DUP3 MSTORE POP POP JUMP JUMPDEST PUSH1 0x0 PUSH1 0xA0 DUP4 ADD PUSH1 0x0 DUP4 ADD MLOAD PUSH2 0xA54 PUSH1 0x0 DUP7 ADD DUP3 PUSH2 0x8CA JUMP JUMPDEST POP PUSH1 0x20 DUP4 ADD MLOAD DUP5 DUP3 SUB PUSH1 0x20 DUP7 ADD MSTORE PUSH2 0xA6C DUP3 DUP3 PUSH2 0x930 JUMP JUMPDEST SWAP2 POP POP PUSH1 0x40 DUP4 ADD MLOAD PUSH2 0xA81 PUSH1 0x40 DUP7 ADD DUP3 PUSH2 0x99B JUMP JUMPDEST POP PUSH1 0x60 DUP4 ADD MLOAD PUSH2 0xA94 PUSH1 0x60 DUP7 ADD DUP3 PUSH2 0x9B6 JUMP JUMPDEST POP PUSH1 0x80 DUP4 ADD MLOAD PUSH2 0xAA7 PUSH1 0x80 DUP7 ADD DUP3 PUSH2 0xA2D JUMP JUMPDEST POP DUP1 SWAP2 POP POP SWAP3 SWAP2 POP POP JUMP JUMPDEST PUSH1 0x0 PUSH1 0x20 DUP3 ADD SWAP1 POP DUP2 DUP2 SUB PUSH1 0x0 DUP4 ADD MSTORE PUSH2 0xACC DUP2 DUP5 PUSH2 0xA3C JUMP JUMPDEST SWAP1 POP SWAP3 SWAP2 POP POP JUMP JUMPDEST PUSH1 0x0 DUP1 REVERT JUMPDEST PUSH1 0x0 DUP1 REVERT JUMPDEST PUSH32 0x4E487B7100000000000000000000000000000000000000000000000000000000 PUSH1 0x0 MSTORE PUSH1 0x41 PUSH1 0x4 MSTORE PUSH1 0x24 PUSH1 0x0 REVERT JUMPDEST PUSH2 0xB16 DUP3 PUSH2 0x91F JUMP JUMPDEST DUP2 ADD DUP2 DUP2 LT PUSH8 0xFFFFFFFFFFFFFFFF DUP3 GT OR ISZERO PUSH2 0xB35 JUMPI PUSH2 0xB34 PUSH2 0xADE JUMP JUMPDEST JUMPDEST DUP1 PUSH1 0x40 MSTORE POP POP POP JUMP JUMPDEST PUSH1 0x0 PUSH2 0xB48 PUSH2 0x849 JUMP JUMPDEST SWAP1 POP PUSH2 0xB54 DUP3 DUP3 PUSH2 0xB0D JUMP JUMPDEST SWAP2 SWAP1 POP JUMP JUMPDEST PUSH1 0x0 PUSH8 0xFFFFFFFFFFFFFFFF DUP3 GT ISZERO PUSH2 0xB74 JUMPI PUSH2 0xB73 PUSH2 0xADE JUMP JUMPDEST JUMPDEST PUSH2 0xB7D DUP3 PUSH2 0x91F JUMP JUMPDEST SWAP1 POP PUSH1 0x20 DUP2 ADD SWAP1 POP SWAP2 SWAP1 POP JUMP JUMPDEST DUP3 DUP2 DUP4 CALLDATACOPY PUSH1 0x0 DUP4 DUP4 ADD MSTORE POP POP POP JUMP JUMPDEST PUSH1 0x0 PUSH2 0xBAC PUSH2 0xBA7 DUP5 PUSH2 0xB59 JUMP JUMPDEST PUSH2 0xB3E JUMP JUMPDEST SWAP1 POP DUP3 DUP2 MSTORE PUSH1 0x20 DUP2 ADD DUP5 DUP5 DUP5 ADD GT ISZERO PUSH2 0xBC8 JUMPI PUSH2 0xBC7 PUSH2 0xAD9 JUMP JUMPDEST JUMPDEST PUSH2 0xBD3 DUP5 DUP3 DUP6 PUSH2 0xB8A JUMP JUMPDEST POP SWAP4 SWAP3 POP POP POP JUMP JUMPDEST PUSH1 0x0 DUP3 PUSH1 0x1F DUP4 ADD SLT PUSH2 0xBF0 JUMPI PUSH2 0xBEF PUSH2 0xAD4 JUMP JUMPDEST JUMPDEST DUP2 CALLDATALOAD PUSH2 0xC00 DUP5 DUP3 PUSH1 0x20 DUP7 ADD PUSH2 0xB99 JUMP JUMPDEST SWAP2 POP POP SWAP3 SWAP2 POP POP JUMP JUMPDEST PUSH1 0x0 PUSH1 0x20 DUP3 DUP5 SUB SLT ISZERO PUSH2 0xC1F JUMPI PUSH2 0xC1E PUSH2 0x853 JUMP JUMPDEST JUMPDEST PUSH1 0x0 DUP3 ADD CALLDATALOAD PUSH8 0xFFFFFFFFFFFFFFFF DUP2 GT ISZERO PUSH2 0xC3D JUMPI PUSH2 0xC3C PUSH2 0x858 JUMP JUMPDEST JUMPDEST PUSH2 0xC49 DUP5 DUP3 DUP6 ADD PUSH2 0xBDB JUMP JUMPDEST SWAP2 POP POP SWAP3 SWAP2 POP POP JUMP JUMPDEST PUSH2 0xC5B DUP2 PUSH2 0x85D JUMP JUMPDEST DUP3 MSTORE POP POP JUMP JUMPDEST PUSH1 0x0 PUSH1 0x20 DUP3 ADD SWAP1 POP PUSH2 0xC76 PUSH1 0x0 DUP4 ADD DUP5 PUSH2 0xC52 JUMP JUMPDEST SWAP3 SWAP2 POP POP JUMP JUMPDEST PUSH2 0xC85 DUP2 PUSH2 0x9AA JUMP JUMPDEST DUP2 EQ PUSH2 0xC90 JUMPI PUSH1 0x0 DUP1 REVERT JUMPDEST POP JUMP JUMPDEST PUSH1 0x0 DUP2 CALLDATALOAD SWAP1 POP PUSH2 0xCA2 DUP2 PUSH2 0xC7C JUMP JUMPDEST SWAP3 SWAP2 POP POP JUMP JUMPDEST PUSH1 0x0 DUP1 PUSH1 0x40 DUP4 DUP6 SUB SLT ISZERO PUSH2 0xCBF JUMPI PUSH2 0xCBE PUSH2 0x853 JUMP JUMPDEST JUMPDEST PUSH1 0x0 PUSH2 0xCCD DUP6 DUP3 DUP7 ADD PUSH2 0x87E JUMP JUMPDEST SWAP3 POP POP PUSH1 0x20 PUSH2 0xCDE DUP6 DUP3 DUP7 ADD PUSH2 0xC93 JUMP JUMPDEST SWAP2 POP POP SWAP3 POP SWAP3 SWAP1 POP JUMP JUMPDEST PUSH2 0xCF1 DUP2 PUSH2 0x9AA JUMP JUMPDEST DUP3 MSTORE POP POP JUMP JUMPDEST PUSH1 0x0 PUSH1 0x20 DUP3 ADD SWAP1 POP PUSH2 0xD0C PUSH1 0x0 DUP4 ADD DUP5 PUSH2 0xCE8 JUMP JUMPDEST SWAP3 SWAP2 POP POP JUMP JUMPDEST PUSH2 0xD1B DUP2 PUSH2 0x8C0 JUMP JUMPDEST DUP2 EQ PUSH2 0xD26 JUMPI PUSH1 0x0 DUP1 REVERT JUMPDEST POP JUMP JUMPDEST PUSH1 0x0 DUP2 CALLDATALOAD SWAP1 POP PUSH2 0xD38 DUP2 PUSH2 0xD12 JUMP JUMPDEST SWAP3 SWAP2 POP POP JUMP JUMPDEST PUSH1 0x0 DUP1 PUSH1 0x40 DUP4 DUP6 SUB SLT ISZERO PUSH2 0xD55 JUMPI PUSH2 0xD54 PUSH2 0x853 JUMP JUMPDEST JUMPDEST PUSH1 0x0 PUSH2 0xD63 DUP6 DUP3 DUP7 ADD PUSH2 0x87E JUMP JUMPDEST SWAP3 POP POP PUSH1 0x20 PUSH2 0xD74 DUP6 DUP3 DUP7 ADD PUSH2 0xD29 JUMP JUMPDEST SWAP2 POP POP SWAP3 POP SWAP3 SWAP1 POP JUMP JUMPDEST PUSH2 0xD87 DUP2 PUSH2 0x8C0 JUMP JUMPDEST DUP3 MSTORE POP POP JUMP JUMPDEST PUSH1 0x0 DUP3 DUP3 MSTORE PUSH1 0x20 DUP3 ADD SWAP1 POP SWAP3 SWAP2 POP POP JUMP JUMPDEST PUSH1 0x0 PUSH2 0xDA9 DUP3 PUSH2 0x8D9 JUMP JUMPDEST PUSH2 0xDB3 DUP2 DUP6 PUSH2 0xD8D JUMP JUMPDEST SWAP4 POP PUSH2 0xDC3 DUP2 DUP6 PUSH1 0x20 DUP7 ADD PUSH2 0x8F5 JUMP JUMPDEST PUSH2 0xDCC DUP2 PUSH2 0x91F JUMP JUMPDEST DUP5 ADD SWAP2 POP POP SWAP3 SWAP2 POP POP JUMP JUMPDEST PUSH2 0xDE0 DUP2 PUSH2 0x989 JUMP JUMPDEST DUP3 MSTORE POP POP JUMP JUMPDEST PUSH2 0xDEF DUP2 PUSH2 0xA1B JUMP JUMPDEST DUP3 MSTORE POP POP JUMP JUMPDEST PUSH1 0x0 PUSH1 0xA0 DUP3 ADD SWAP1 POP PUSH2 0xE0A PUSH1 0x0 DUP4 ADD DUP9 PUSH2 0xD7E JUMP JUMPDEST DUP2 DUP2 SUB PUSH1 0x20 DUP4 ADD MSTORE PUSH2 0xE1C DUP2 DUP8 PUSH2 0xD9E JUMP JUMPDEST SWAP1 POP PUSH2 0xE2B PUSH1 0x40 DUP4 ADD DUP7 PUSH2 0xDD7 JUMP JUMPDEST PUSH2 0xE38 PUSH1 0x60 DUP4 ADD DUP6 PUSH2 0xCE8 JUMP JUMPDEST PUSH2 0xE45 PUSH1 0x80 DUP4 ADD DUP5 PUSH2 0xDE6 JUMP JUMPDEST SWAP7 SWAP6 POP POP POP POP POP POP JUMP JUMPDEST PUSH1 0x0 DUP3 DUP3 MSTORE PUSH1 0x20 DUP3 ADD SWAP1 POP SWAP3 SWAP2 POP POP JUMP JUMPDEST PUSH32 0x4E6F742079657420417373657274656400000000000000000000000000000000 PUSH1 0x0 DUP3 ADD MSTORE POP JUMP JUMPDEST PUSH1 0x0 PUSH2 0xE96 PUSH1 0x10 DUP4 PUSH2 0xE4F JUMP JUMPDEST SWAP2 POP PUSH2 0xEA1 DUP3 PUSH2 0xE60 JUMP JUMPDEST PUSH1 0x20 DUP3 ADD SWAP1 POP SWAP2 SWAP1 POP JUMP JUMPDEST PUSH1 0x0 PUSH1 0x20 DUP3 ADD SWAP1 POP DUP2 DUP2 SUB PUSH1 0x0 DUP4 ADD MSTORE PUSH2 0xEC5 DUP2 PUSH2 0xE89 JUMP JUMPDEST SWAP1 POP SWAP2 SWAP1 POP JUMP JUMPDEST PUSH1 0x0 PUSH1 0x40 DUP3 ADD SWAP1 POP PUSH2 0xEE1 PUSH1 0x0 DUP4 ADD DUP6 PUSH2 0xC52 JUMP JUMPDEST PUSH2 0xEEE PUSH1 0x20 DUP4 ADD DUP5 PUSH2 0xC52 JUMP JUMPDEST SWAP4 SWAP3 POP POP POP JUMP JUMPDEST PUSH32 0x4E487B7100000000000000000000000000000000000000000000000000000000 PUSH1 0x0 MSTORE PUSH1 0x22 PUSH1 0x4 MSTORE PUSH1 0x24 PUSH1 0x0 REVERT JUMPDEST PUSH1 0x0 PUSH1 0x2 DUP3 DIV SWAP1 POP PUSH1 0x1 DUP3 AND DUP1 PUSH2 0xF3C JUMPI PUSH1 0x7F DUP3 AND SWAP2 POP JUMPDEST PUSH1 0x20 DUP3 LT DUP2 SUB PUSH2 0xF4F JUMPI PUSH2 0xF4E PUSH2 0xEF5 JUMP JUMPDEST JUMPDEST POP SWAP2 SWAP1 POP JUMP JUMPDEST PUSH1 0x0 DUP2 SWAP1 POP DUP2 PUSH1 0x0 MSTORE PUSH1 0x20 PUSH1 0x0 KECCAK256 SWAP1 POP SWAP2 SWAP1 POP JUMP JUMPDEST PUSH1 0x0 PUSH1 0x20 PUSH1 0x1F DUP4 ADD DIV SWAP1 POP SWAP2 SWAP1 POP JUMP JUMPDEST PUSH1 0x0 DUP3 DUP3 SHL SWAP1 POP SWAP3 SWAP2 POP POP JUMP JUMPDEST PUSH1 0x0 PUSH1 0x8 DUP4 MUL PUSH2 0xFB7 PUSH32 0xFFFFFFFFFFFFFFFFFFFFFFFFFFFFFFFFFFFFFFFFFFFFFFFFFFFFFFFFFFFFFFFF DUP3 PUSH2 0xF7A JUMP JUMPDEST PUSH2 0xFC1 DUP7 DUP4 PUSH2 0xF7A JUMP JUMPDEST SWAP6 POP DUP1 NOT DUP5 AND SWAP4 POP DUP1 DUP7 AND DUP5 OR SWAP3 POP POP POP SWAP4 SWAP3 POP POP POP JUMP JUMPDEST PUSH1 0x0 DUP2 SWAP1 POP SWAP2 SWAP1 POP JUMP JUMPDEST PUSH1 0x0 PUSH2 0xFFE PUSH2 0xFF9 PUSH2 0xFF4 DUP5 PUSH2 0x85D JUMP JUMPDEST PUSH2 0xFD9 JUMP JUMPDEST PUSH2 0x85D JUMP JUMPDEST SWAP1 POP SWAP2 SWAP1 POP JUMP JUMPDEST PUSH1 0x0 DUP2 SWAP1 POP SWAP2 SWAP1 POP JUMP JUMPDEST PUSH2 0x1018 DUP4 PUSH2 0xFE3 JUMP JUMPDEST PUSH2 0x102C PUSH2 0x1024 DUP3 PUSH2 0x1005 JUMP JUMPDEST DUP5 DUP5 SLOAD PUSH2 0xF87 JUMP JUMPDEST DUP3 SSTORE POP POP POP POP JUMP JUMPDEST PUSH1 0x0 SWAP1 JUMP JUMPDEST PUSH2 0x1041 PUSH2 0x1034 JUMP JUMPDEST PUSH2 0x104C DUP2 DUP5 DUP5 PUSH2 0x100F JUMP JUMPDEST POP POP POP JUMP JUMPDEST JUMPDEST DUP2 DUP2 LT ISZERO PUSH2 0x1070 JUMPI PUSH2 0x1065 PUSH1 0x0 DUP3 PUSH2 0x1039 JUMP JUMPDEST PUSH1 0x1 DUP2 ADD SWAP1 POP PUSH2 0x1052 JUMP JUMPDEST POP POP JUMP JUMPDEST PUSH1 0x1F DUP3 GT ISZERO PUSH2 0x10B5 JUMPI PUSH2 0x1086 DUP2 PUSH2 0xF55 JUMP JUMPDEST PUSH2 0x108F DUP5 PUSH2 0xF6A JUMP JUMPDEST DUP2 ADD PUSH1 0x20 DUP6 LT ISZERO PUSH2 0x109E JUMPI DUP2 SWAP1 POP JUMPDEST PUSH2 0x10B2 PUSH2 0x10AA DUP6 PUSH2 0xF6A JUMP JUMPDEST DUP4 ADD DUP3 PUSH2 0x1051 JUMP JUMPDEST POP POP JUMPDEST POP POP POP JUMP JUMPDEST PUSH1 0x0 DUP3 DUP3 SHR SWAP1 POP SWAP3 SWAP2 POP POP JUMP JUMPDEST PUSH1 0x0 PUSH2 0x10D8 PUSH1 0x0 NOT DUP5 PUSH1 0x8 MUL PUSH2 0x10BA JUMP JUMPDEST NOT DUP1 DUP4 AND SWAP2 POP POP SWAP3 SWAP2 POP POP JUMP JUMPDEST PUSH1 0x0 PUSH2 0x10F1 DUP4 DUP4 PUSH2 0x10C7 JUMP JUMPDEST SWAP2 POP DUP3 PUSH1 0x2 MUL DUP3 OR SWAP1 POP SWAP3 SWAP2 POP POP JUMP JUMPDEST PUSH2 0x110A DUP3 PUSH2 0x8D9 JUMP JUMPDEST PUSH8 0xFFFFFFFFFFFFFFFF DUP2 GT ISZERO PUSH2 0x1123 JUMPI PUSH2 0x1122 PUSH2 0xADE JUMP JUMPDEST JUMPDEST PUSH2 0x112D DUP3 SLOAD PUSH2 0xF24 JUMP JUMPDEST PUSH2 0x1138 DUP3 DUP3 DUP6 PUSH2 0x1074 JUMP JUMPDEST PUSH1 0x0 PUSH1 0x20 SWAP1 POP PUSH1 0x1F DUP4 GT PUSH1 0x1 DUP2 EQ PUSH2 0x116B JUMPI PUSH1 0x0 DUP5 ISZERO PUSH2 0x1159 JUMPI DUP3 DUP8 ADD MLOAD SWAP1 POP JUMPDEST PUSH2 0x1163 DUP6 DUP3 PUSH2 0x10E5 JUMP JUMPDEST DUP7 SSTORE POP PUSH2 0x11CB JUMP JUMPDEST PUSH1 0x1F NOT DUP5 AND PUSH2 0x1179 DUP7 PUSH2 0xF55 JUMP JUMPDEST PUSH1 0x0 JUMPDEST DUP3 DUP2 LT ISZERO PUSH2 0x11A1 JUMPI DUP5 DUP10 ADD MLOAD DUP3 SSTORE PUSH1 0x1 DUP3 ADD SWAP2 POP PUSH1 0x20 DUP6 ADD SWAP5 POP PUSH1 0x20 DUP2 ADD SWAP1 POP PUSH2 0x117C JUMP JUMPDEST DUP7 DUP4 LT ISZERO PUSH2 0x11BE JUMPI DUP5 DUP10 ADD MLOAD PUSH2 0x11BA PUSH1 0x1F DUP10 AND DUP3 PUSH2 0x10C7 JUMP JUMPDEST DUP4 SSTORE POP JUMPDEST PUSH1 0x1 PUSH1 0x2 DUP9 MUL ADD DUP9 SSTORE POP POP POP JUMPDEST POP POP POP POP POP POP JUMP JUMPDEST PUSH1 0x0 PUSH1 0x80 DUP3 ADD SWAP1 POP PUSH2 0x11E8 PUSH1 0x0 DUP4 ADD DUP8 PUSH2 0xC52 JUMP JUMPDEST PUSH2 0x11F5 PUSH1 0x20 DUP4 ADD DUP7 PUSH2 0xDD7 JUMP JUMPDEST DUP2 DUP2 SUB PUSH1 0x40 DUP4 ADD MSTORE PUSH2 0x1207 DUP2 DUP6 PUSH2 0xD9E JUMP JUMPDEST SWAP1 POP PUSH2 0x1216 PUSH1 0x60 DUP4 ADD DUP5 PUSH2 0xC52 JUMP JUMPDEST SWAP6 SWAP5 POP POP POP POP POP JUMP JUMPDEST PUSH32 0x4E6F742079657420726571756573746564000000000000000000000000000000 PUSH1 0x0 DUP3 ADD MSTORE POP JUMP JUMPDEST PUSH1 0x0 PUSH2 0x1255 PUSH1 0x11 DUP4 PUSH2 0xE4F JUMP JUMPDEST SWAP2 POP PUSH2 0x1260 DUP3 PUSH2 0x121F JUMP JUMPDEST PUSH1 0x20 DUP3 ADD SWAP1 POP SWAP2 SWAP1 POP JUMP JUMPDEST PUSH1 0x0 PUSH1 0x20 DUP3 ADD SWAP1 POP DUP2 DUP2 SUB PUSH1 0x0 DUP4 ADD MSTORE PUSH2 0x1284 DUP2 PUSH2 0x1248 JUMP JUMPDEST SWAP1 POP SWAP2 SWAP1 POP JUMP INVALID LOG2 PUSH5 0x6970667358 0x22 SLT KECCAK256 PUSH4 0x4285F5B7 JUMPDEST CREATE2 ADDRESS BALANCE 0xB8 0xDA 0x26 ISZERO 0x1F SWAP12 0xDD 0xF8 STOP AND SWAP15 SHL 0xDD SELFBALANCE 0x4C SWAP7 CODECOPY 0x4D 0xA5 0xE0 0xDC 0x2F 0xC0 PUSH5 0x736F6C6343 STOP ADDMOD LT STOP CALLER "
		},
		"gasEstimates": {
			"creation": {
				"codeDepositCost": "960200",
				"executionCost": "23107",
				"totalCost": "983307"
			},
			"external": {
				"assertTruthWithDefaults(bytes)": "infinite",
				"assertionRequests(uint256)": "infinite",
				"getAssertion(uint256)": "infinite",
				"getAssertionResult(uint256)": "2900",
				"setAssertResult(uint256,bool)": "51752",
				"setAssertionId(uint256,bytes32)": "22821",
				"settleAssertion(uint256)": "infinite",
				"totalAssertions()": "2496"
			}
		},
		"methodIdentifiers": {
			"assertTruthWithDefaults(bytes)": "2c59e707",
			"assertionRequests(uint256)": "bb27bdec",
			"getAssertion(uint256)": "1d99e167",
			"getAssertionResult(uint256)": "adee9e00",
			"setAssertResult(uint256,bool)": "884e3f43",
			"setAssertionId(uint256,bytes32)": "b1a15891",
			"settleAssertion(uint256)": "14d82c04",
			"totalAssertions()": "3fbec59b"
		}
	},
	"abi": [
		{
			"anonymous": false,
			"inputs": [
				{
					"indexed": false,
					"internalType": "uint256",
					"name": "assertId",
					"type": "uint256"
				},
				{
					"indexed": false,
					"internalType": "address",
					"name": "requester",
					"type": "address"
				},
				{
					"indexed": false,
					"internalType": "bytes",
					"name": "claim",
					"type": "bytes"
				},
				{
					"indexed": false,
					"internalType": "uint256",
					"name": "timestamp",
					"type": "uint256"
				}
			],
			"name": "assertTruth",
			"type": "event"
		},
		{
			"anonymous": false,
			"inputs": [
				{
					"indexed": false,
					"internalType": "uint256",
					"name": "assertId",
					"type": "uint256"
				},
				{
					"indexed": false,
					"internalType": "uint256",
					"name": "timestamp",
					"type": "uint256"
				}
			],
			"name": "settleRequest",
			"type": "event"
		},
		{
			"inputs": [
				{
					"internalType": "bytes",
					"name": "claim",
					"type": "bytes"
				}
			],
			"name": "assertTruthWithDefaults",
			"outputs": [
				{
					"internalType": "uint256",
					"name": "assertId",
					"type": "uint256"
				}
			],
			"stateMutability": "nonpayable",
			"type": "function"
		},
		{
			"inputs": [
				{
					"internalType": "uint256",
					"name": "",
					"type": "uint256"
				}
			],
			"name": "assertionRequests",
			"outputs": [
				{
					"internalType": "bytes32",
					"name": "assertionId",
					"type": "bytes32"
				},
				{
					"internalType": "bytes",
					"name": "assertedClaim",
					"type": "bytes"
				},
				{
					"internalType": "address",
					"name": "requester",
					"type": "address"
				},
				{
					"internalType": "bool",
					"name": "result",
					"type": "bool"
				},
				{
					"internalType": "enum OptimisticOracleV3.Status",
					"name": "currentStatus",
					"type": "uint8"
				}
			],
			"stateMutability": "view",
			"type": "function"
		},
		{
			"inputs": [
				{
					"internalType": "uint256",
					"name": "assertId",
					"type": "uint256"
				}
			],
			"name": "getAssertion",
			"outputs": [
				{
					"components": [
						{
							"internalType": "bytes32",
							"name": "assertionId",
							"type": "bytes32"
						},
						{
							"internalType": "bytes",
							"name": "assertedClaim",
							"type": "bytes"
						},
						{
							"internalType": "address",
							"name": "requester",
							"type": "address"
						},
						{
							"internalType": "bool",
							"name": "result",
							"type": "bool"
						},
						{
							"internalType": "enum OptimisticOracleV3.Status",
							"name": "currentStatus",
							"type": "uint8"
						}
					],
					"internalType": "struct OptimisticOracleV3.AssertionRequest",
					"name": "",
					"type": "tuple"
				}
			],
			"stateMutability": "view",
			"type": "function"
		},
		{
			"inputs": [
				{
					"internalType": "uint256",
					"name": "assertId",
					"type": "uint256"
				}
			],
			"name": "getAssertionResult",
			"outputs": [
				{
					"internalType": "bool",
					"name": "",
					"type": "bool"
				}
			],
			"stateMutability": "view",
			"type": "function"
		},
		{
			"inputs": [
				{
					"internalType": "uint256",
					"name": "assertId",
					"type": "uint256"
				},
				{
					"internalType": "bool",
					"name": "assertResult",
					"type": "bool"
				}
			],
			"name": "setAssertResult",
			"outputs": [],
			"stateMutability": "nonpayable",
			"type": "function"
		},
		{
			"inputs": [
				{
					"internalType": "uint256",
					"name": "assertId",
					"type": "uint256"
				},
				{
					"internalType": "bytes32",
					"name": "assertionId",
					"type": "bytes32"
				}
			],
			"name": "setAssertionId",
			"outputs": [],
			"stateMutability": "nonpayable",
			"type": "function"
		},
		{
			"inputs": [
				{
					"internalType": "uint256",
					"name": "assertId",
					"type": "uint256"
				}
			],
			"name": "settleAssertion",
			"outputs": [],
			"stateMutability": "nonpayable",
			"type": "function"
		},
		{
			"inputs": [],
			"name": "totalAssertions",
			"outputs": [
				{
					"internalType": "uint256",
					"name": "",
					"type": "uint256"
				}
			],
			"stateMutability": "view",
			"type": "function"
		}
	]
}